{
  "_format": "hh-sol-artifact-1",
  "contractName": "RevealChainlinkFunctionConsumer",
  "sourceName": "contracts/mockups/RevealChainlinkFunctionConsumer.sol",
  "abi": [
    {
      "inputs": [],
      "stateMutability": "nonpayable",
      "type": "constructor"
    },
    {
      "inputs": [],
      "name": "copyData",
      "outputs": [
        {
          "internalType": "bytes",
          "name": "",
          "type": "bytes"
        }
      ],
      "stateMutability": "nonpayable",
      "type": "function"
    },
    {
      "inputs": [],
      "name": "dataHasBeenRead",
      "outputs": [
        {
          "internalType": "bool",
          "name": "",
          "type": "bool"
        }
      ],
      "stateMutability": "view",
      "type": "function"
    },
    {
      "inputs": [],
      "name": "dataIsReady",
      "outputs": [
        {
          "internalType": "bool",
          "name": "",
          "type": "bool"
        }
      ],
      "stateMutability": "view",
      "type": "function"
    },
    {
      "inputs": [],
      "name": "requestData",
      "outputs": [],
      "stateMutability": "nonpayable",
      "type": "function"
    },
    {
      "inputs": [
        {
          "internalType": "uint256",
          "name": "seed",
          "type": "uint256"
        }
      ],
      "name": "updateData",
      "outputs": [],
      "stateMutability": "nonpayable",
      "type": "function"
    }
  ],
  "bytecode": "0x60806040526000600260006101000a81548160ff0219169083151502179055506001600260016101000a81548160ff0219169083151502179055503480156200004757600080fd5b506200005a607b6200006060201b60201c565b6200050f565b600081905081816040516020016200007a929190620000d8565b6040516020818303038152906040526000908162000099919062000375565b506000604051620000ab9190620004f6565b60405180910390206001819055505050565b6000819050919050565b620000d281620000bd565b82525050565b6000604082019050620000ef6000830185620000c7565b620000fe6020830184620000c7565b9392505050565b600081519050919050565b7f4e487b7100000000000000000000000000000000000000000000000000000000600052604160045260246000fd5b7f4e487b7100000000000000000000000000000000000000000000000000000000600052602260045260246000fd5b600060028204905060018216806200018757607f821691505b6020821081036200019d576200019c6200013f565b5b50919050565b60008190508160005260206000209050919050565b60006020601f8301049050919050565b600082821b905092915050565b600060088302620002077fffffffffffffffffffffffffffffffffffffffffffffffffffffffffffffffff82620001c8565b620002138683620001c8565b95508019841693508086168417925050509392505050565b6000819050919050565b600062000256620002506200024a84620000bd565b6200022b565b620000bd565b9050919050565b6000819050919050565b620002728362000235565b6200028a62000281826200025d565b848454620001d5565b825550505050565b600090565b620002a162000292565b620002ae81848462000267565b505050565b5b81811015620002d657620002ca60008262000297565b600181019050620002b4565b5050565b601f8211156200032557620002ef81620001a3565b620002fa84620001b8565b810160208510156200030a578190505b620003226200031985620001b8565b830182620002b3565b50505b505050565b600082821c905092915050565b60006200034a600019846008026200032a565b1980831691505092915050565b600062000365838362000337565b9150826002028217905092915050565b620003808262000105565b67ffffffffffffffff8111156200039c576200039b62000110565b5b620003a882546200016e565b620003b5828285620002da565b600060209050601f831160018114620003ed5760008415620003d8578287015190505b620003e4858262000357565b86555062000454565b601f198416620003fd86620001a3565b60005b82811015620004275784890151825560018201915060208501945060208101905062000400565b8683101562000447578489015162000443601f89168262000337565b8355505b6001600288020188555050505b505050505050565b600081905092915050565b6000815462000476816200016e565b6200048281866200045c565b94506001821660008114620004a05760018114620004b657620004ed565b60ff1983168652811515820286019350620004ed565b620004c185620001a3565b60005b83811015620004e557815481890152600182019150602081019050620004c4565b838801955050505b50505092915050565b600062000504828462000467565b915081905092915050565b6108c2806200051f6000396000f3fe608060405234801561001057600080fd5b50600436106100575760003560e01c8063036279591461005c57806309e960081461007a5780632f703e0814610096578063606deecd146100b4578063cce71063146100be575b600080fd5b6100646100dc565b60405161007191906102ca565b60405180910390f35b610094600480360381019061008f9190610320565b6100ef565b005b61009e610146565b6040516100ab91906103dd565b60405180910390f35b6100bc61020e565b005b6100c661029c565b6040516100d391906102ca565b60405180910390f35b600260019054906101000a900460ff1681565b6000819050818160405160200161010792919061040e565b604051602081830303815290604052600090816101249190610672565b50600060405161013491906107d2565b60405180910390206001819055505050565b60606001600260016101000a81548160ff0219169083151502179055506000600260006101000a81548160ff0219169083151502179055506000805461018b90610495565b80601f01602080910402602001604051908101604052809291908181526020018280546101b790610495565b80156102045780601f106101d957610100808354040283529160200191610204565b820191906000526020600020905b8154815290600101906020018083116101e757829003601f168201915b5050505050905090565b60011515600260019054906101000a900460ff16151514610264576040517f08c379a000000000000000000000000000000000000000000000000000000000815260040161025b9061086c565b60405180910390fd5b6001600260006101000a81548160ff0219169083151502179055506000600260016101000a81548160ff021916908315150217905550565b600260009054906101000a900460ff1681565b60008115159050919050565b6102c4816102af565b82525050565b60006020820190506102df60008301846102bb565b92915050565b600080fd5b6000819050919050565b6102fd816102ea565b811461030857600080fd5b50565b60008135905061031a816102f4565b92915050565b600060208284031215610336576103356102e5565b5b60006103448482850161030b565b91505092915050565b600081519050919050565b600082825260208201905092915050565b60005b8381101561038757808201518184015260208101905061036c565b60008484015250505050565b6000601f19601f8301169050919050565b60006103af8261034d565b6103b98185610358565b93506103c9818560208601610369565b6103d281610393565b840191505092915050565b600060208201905081810360008301526103f781846103a4565b905092915050565b610408816102ea565b82525050565b600060408201905061042360008301856103ff565b61043060208301846103ff565b9392505050565b7f4e487b7100000000000000000000000000000000000000000000000000000000600052604160045260246000fd5b7f4e487b7100000000000000000000000000000000000000000000000000000000600052602260045260246000fd5b600060028204905060018216806104ad57607f821691505b6020821081036104c0576104bf610466565b5b50919050565b60008190508160005260206000209050919050565b60006020601f8301049050919050565b600082821b905092915050565b6000600883026105287fffffffffffffffffffffffffffffffffffffffffffffffffffffffffffffffff826104eb565b61053286836104eb565b95508019841693508086168417925050509392505050565b6000819050919050565b600061056f61056a610565846102ea565b61054a565b6102ea565b9050919050565b6000819050919050565b61058983610554565b61059d61059582610576565b8484546104f8565b825550505050565b600090565b6105b26105a5565b6105bd818484610580565b505050565b5b818110156105e1576105d66000826105aa565b6001810190506105c3565b5050565b601f821115610626576105f7816104c6565b610600846104db565b8101602085101561060f578190505b61062361061b856104db565b8301826105c2565b50505b505050565b600082821c905092915050565b60006106496000198460080261062b565b1980831691505092915050565b60006106628383610638565b9150826002028217905092915050565b61067b8261034d565b67ffffffffffffffff81111561069457610693610437565b5b61069e8254610495565b6106a98282856105e5565b600060209050601f8311600181146106dc57600084156106ca578287015190505b6106d48582610656565b86555061073c565b601f1984166106ea866104c6565b60005b82811015610712578489015182556001820191506020850194506020810190506106ed565b8683101561072f578489015161072b601f891682610638565b8355505b6001600288020188555050505b505050505050565b600081905092915050565b6000815461075c81610495565b6107668186610744565b945060018216600081146107815760018114610796576107c9565b60ff19831686528115158202860193506107c9565b61079f856104c6565b60005b838110156107c1578154818901526001820191506020810190506107a2565b838801955050505b50505092915050565b60006107de828461074f565b915081905092915050565b600082825260208201905092915050565b7f4552523a2050726576696f7573206461746120686173206e6f74206265656e2060008201527f7265616421000000000000000000000000000000000000000000000000000000602082015250565b60006108566025836107e9565b9150610861826107fa565b604082019050919050565b6000602082019050818103600083015261088581610849565b905091905056fea2646970667358221220369959f988dfccdfc323ca2a0bca47012c0e982cd24ac996f6aa2a2fb5257a4d64736f6c63430008120033",
  "linkReferences": {},
  "deployedLinkReferences": {}
}