{
  "_format": "hh-sol-artifact-1",
  "contractName": "Game",
  "sourceName": "contracts/Game.sol",
  "abi": [
    {
      "inputs": [],
      "stateMutability": "nonpayable",
      "type": "constructor"
    },
    {
      "inputs": [],
      "name": "BALL_STEPS_PER_MOVE",
      "outputs": [
        {
          "internalType": "uint256",
          "name": "",
          "type": "uint256"
        }
      ],
      "stateMutability": "view",
      "type": "function"
    },
    {
      "inputs": [],
      "name": "FIELD_H",
      "outputs": [
        {
          "internalType": "uint256",
          "name": "",
          "type": "uint256"
        }
      ],
      "stateMutability": "view",
      "type": "function"
    },
    {
      "inputs": [],
      "name": "FIELD_W",
      "outputs": [
        {
          "internalType": "uint256",
          "name": "",
          "type": "uint256"
        }
      ],
      "stateMutability": "view",
      "type": "function"
    },
    {
      "inputs": [],
      "name": "PLAYER_STEPS_PER_MOVE",
      "outputs": [
        {
          "internalType": "uint256",
          "name": "",
          "type": "uint256"
        }
      ],
      "stateMutability": "view",
      "type": "function"
    },
    {
      "inputs": [],
      "name": "commitmentTick",
      "outputs": [],
      "stateMutability": "nonpayable",
      "type": "function"
    },
    {
      "inputs": [],
      "name": "createMatch",
      "outputs": [],
      "stateMutability": "nonpayable",
      "type": "function"
    },
    {
      "inputs": [],
      "name": "dispute",
      "outputs": [],
      "stateMutability": "nonpayable",
      "type": "function"
    },
    {
      "inputs": [],
      "name": "joinMatch",
      "outputs": [],
      "stateMutability": "nonpayable",
      "type": "function"
    },
    {
      "inputs": [],
      "name": "matchCounter",
      "outputs": [
        {
          "internalType": "uint256",
          "name": "",
          "type": "uint256"
        }
      ],
      "stateMutability": "view",
      "type": "function"
    },
    {
      "inputs": [
        {
          "internalType": "uint256",
          "name": "",
          "type": "uint256"
        }
      ],
      "name": "matchIdToMoveId",
      "outputs": [
        {
          "internalType": "uint256",
          "name": "",
          "type": "uint256"
        }
      ],
      "stateMutability": "view",
      "type": "function"
    },
    {
      "inputs": [
        {
          "internalType": "uint256",
          "name": "",
          "type": "uint256"
        },
        {
          "internalType": "uint256",
          "name": "",
          "type": "uint256"
        }
      ],
      "name": "matchProgression",
      "outputs": [
        {
          "internalType": "uint256",
          "name": "team1_seed",
          "type": "uint256"
        },
        {
          "internalType": "uint256",
          "name": "team2_seed",
          "type": "uint256"
        },
        {
          "internalType": "uint256",
          "name": "team_with_the_ball",
          "type": "uint256"
        },
        {
          "internalType": "uint256",
          "name": "player_id_with_the_ball",
          "type": "uint256"
        },
        {
          "internalType": "bool",
          "name": "pass",
          "type": "bool"
        },
        {
          "internalType": "uint256",
          "name": "receiving_player_id",
          "type": "uint256"
        },
        {
          "internalType": "bool",
          "name": "interceptionOcurred",
          "type": "bool"
        },
        {
          "internalType": "bool",
          "name": "shoot",
          "type": "bool"
        }
      ],
      "stateMutability": "view",
      "type": "function"
    },
    {
      "inputs": [
        {
          "internalType": "uint256",
          "name": "",
          "type": "uint256"
        }
      ],
      "name": "matches",
      "outputs": [
        {
          "internalType": "uint256",
          "name": "seed",
          "type": "uint256"
        },
        {
          "internalType": "address",
          "name": "team1_commitmentChainlinkFunctionConsumer",
          "type": "address"
        },
        {
          "internalType": "address",
          "name": "team2_commitmentChainlinkFunctionConsumer",
          "type": "address"
        },
        {
          "internalType": "address",
          "name": "team1_revealChainlinkFunctionConsumer",
          "type": "address"
        },
        {
          "internalType": "address",
          "name": "team2_revealmentChainlinkFunctionConsumer",
          "type": "address"
        }
      ],
      "stateMutability": "view",
      "type": "function"
    },
    {
      "inputs": [
        {
          "internalType": "uint256",
          "name": "matchId",
          "type": "uint256"
        },
        {
          "internalType": "uint256",
          "name": "previousMoveId",
          "type": "uint256"
        }
      ],
      "name": "playout",
      "outputs": [
        {
          "components": [
            {
              "components": [
                {
                  "internalType": "uint256",
                  "name": "speed",
                  "type": "uint256"
                },
                {
                  "internalType": "uint256",
                  "name": "skill",
                  "type": "uint256"
                },
                {
                  "internalType": "uint256",
                  "name": "stamina",
                  "type": "uint256"
                }
              ],
              "internalType": "struct Game.PlayerStats[10]",
              "name": "team1_playerStats",
              "type": "tuple[10]"
            },
            {
              "components": [
                {
                  "internalType": "uint256",
                  "name": "speed",
                  "type": "uint256"
                },
                {
                  "internalType": "uint256",
                  "name": "skill",
                  "type": "uint256"
                },
                {
                  "internalType": "uint256",
                  "name": "stamina",
                  "type": "uint256"
                }
              ],
              "internalType": "struct Game.PlayerStats[10]",
              "name": "team2_playerStats",
              "type": "tuple[10]"
            },
            {
              "internalType": "uint256[]",
              "name": "team1_x_positions",
              "type": "uint256[]"
            },
            {
              "internalType": "uint256[10]",
              "name": "team2_x_positions",
              "type": "uint256[10]"
            },
            {
              "internalType": "uint256[10]",
              "name": "team1_y_positions",
              "type": "uint256[10]"
            },
            {
              "internalType": "uint256[10]",
              "name": "team2_y_positions",
              "type": "uint256[10]"
            },
            {
              "internalType": "uint256",
              "name": "team1_seed",
              "type": "uint256"
            },
            {
              "internalType": "uint256",
              "name": "team2_seed",
              "type": "uint256"
            },
            {
              "internalType": "uint256",
              "name": "team_with_the_ball",
              "type": "uint256"
            },
            {
              "internalType": "uint256",
              "name": "player_id_with_the_ball",
              "type": "uint256"
            },
            {
              "internalType": "bool",
              "name": "pass",
              "type": "bool"
            },
            {
              "internalType": "uint256[7]",
              "name": "pass_ball_x_positions",
              "type": "uint256[7]"
            },
            {
              "internalType": "uint256[7]",
              "name": "pass_ball_y_positions",
              "type": "uint256[7]"
            },
            {
              "internalType": "uint256",
              "name": "receiving_player_id",
              "type": "uint256"
            },
            {
              "internalType": "bool",
              "name": "interceptionOcurred",
              "type": "bool"
            },
            {
              "internalType": "bool",
              "name": "shoot",
              "type": "bool"
            }
          ],
          "internalType": "struct Game.MoveInfo",
          "name": "move",
          "type": "tuple"
        },
        {
          "components": [
            {
              "components": [
                {
                  "internalType": "uint256",
                  "name": "speed",
                  "type": "uint256"
                },
                {
                  "internalType": "uint256",
                  "name": "skill",
                  "type": "uint256"
                },
                {
                  "internalType": "uint256",
                  "name": "stamina",
                  "type": "uint256"
                }
              ],
              "internalType": "struct Game.PlayerStats[10]",
              "name": "team1_playerStats",
              "type": "tuple[10]"
            },
            {
              "components": [
                {
                  "internalType": "uint256",
                  "name": "speed",
                  "type": "uint256"
                },
                {
                  "internalType": "uint256",
                  "name": "skill",
                  "type": "uint256"
                },
                {
                  "internalType": "uint256",
                  "name": "stamina",
                  "type": "uint256"
                }
              ],
              "internalType": "struct Game.PlayerStats[10]",
              "name": "team2_playerStats",
              "type": "tuple[10]"
            },
            {
              "internalType": "uint256[]",
              "name": "team1_x_positions",
              "type": "uint256[]"
            },
            {
              "internalType": "uint256[10]",
              "name": "team2_x_positions",
              "type": "uint256[10]"
            },
            {
              "internalType": "uint256[10]",
              "name": "team1_y_positions",
              "type": "uint256[10]"
            },
            {
              "internalType": "uint256[10]",
              "name": "team2_y_positions",
              "type": "uint256[10]"
            },
            {
              "internalType": "uint256",
              "name": "team1_seed",
              "type": "uint256"
            },
            {
              "internalType": "uint256",
              "name": "team2_seed",
              "type": "uint256"
            },
            {
              "internalType": "uint256",
              "name": "team_with_the_ball",
              "type": "uint256"
            },
            {
              "internalType": "uint256",
              "name": "player_id_with_the_ball",
              "type": "uint256"
            },
            {
              "internalType": "bool",
              "name": "pass",
              "type": "bool"
            },
            {
              "internalType": "uint256[7]",
              "name": "pass_ball_x_positions",
              "type": "uint256[7]"
            },
            {
              "internalType": "uint256[7]",
              "name": "pass_ball_y_positions",
              "type": "uint256[7]"
            },
            {
              "internalType": "uint256",
              "name": "receiving_player_id",
              "type": "uint256"
            },
            {
              "internalType": "bool",
              "name": "interceptionOcurred",
              "type": "bool"
            },
            {
              "internalType": "bool",
              "name": "shoot",
              "type": "bool"
            }
          ],
          "internalType": "struct Game.MoveInfo[5]",
          "name": "moveProgression",
          "type": "tuple[5]"
        }
      ],
      "stateMutability": "view",
      "type": "function"
    },
    {
      "inputs": [],
      "name": "revealTick",
      "outputs": [],
      "stateMutability": "nonpayable",
      "type": "function"
    },
    {
      "inputs": [
        {
          "internalType": "uint256",
          "name": "matchId",
          "type": "uint256"
        },
        {
          "components": [
            {
              "components": [
                {
                  "internalType": "uint256",
                  "name": "speed",
                  "type": "uint256"
                },
                {
                  "internalType": "uint256",
                  "name": "skill",
                  "type": "uint256"
                },
                {
                  "internalType": "uint256",
                  "name": "stamina",
                  "type": "uint256"
                }
              ],
              "internalType": "struct Game.PlayerStats[10]",
              "name": "team1_playerStats",
              "type": "tuple[10]"
            },
            {
              "components": [
                {
                  "internalType": "uint256",
                  "name": "speed",
                  "type": "uint256"
                },
                {
                  "internalType": "uint256",
                  "name": "skill",
                  "type": "uint256"
                },
                {
                  "internalType": "uint256",
                  "name": "stamina",
                  "type": "uint256"
                }
              ],
              "internalType": "struct Game.PlayerStats[10]",
              "name": "team2_playerStats",
              "type": "tuple[10]"
            },
            {
              "internalType": "uint256[]",
              "name": "team1_x_positions",
              "type": "uint256[]"
            },
            {
              "internalType": "uint256[10]",
              "name": "team2_x_positions",
              "type": "uint256[10]"
            },
            {
              "internalType": "uint256[10]",
              "name": "team1_y_positions",
              "type": "uint256[10]"
            },
            {
              "internalType": "uint256[10]",
              "name": "team2_y_positions",
              "type": "uint256[10]"
            },
            {
              "internalType": "uint256",
              "name": "team1_seed",
              "type": "uint256"
            },
            {
              "internalType": "uint256",
              "name": "team2_seed",
              "type": "uint256"
            },
            {
              "internalType": "uint256",
              "name": "team_with_the_ball",
              "type": "uint256"
            },
            {
              "internalType": "uint256",
              "name": "player_id_with_the_ball",
              "type": "uint256"
            },
            {
              "internalType": "bool",
              "name": "pass",
              "type": "bool"
            },
            {
              "internalType": "uint256[7]",
              "name": "pass_ball_x_positions",
              "type": "uint256[7]"
            },
            {
              "internalType": "uint256[7]",
              "name": "pass_ball_y_positions",
              "type": "uint256[7]"
            },
            {
              "internalType": "uint256",
              "name": "receiving_player_id",
              "type": "uint256"
            },
            {
              "internalType": "bool",
              "name": "interceptionOcurred",
              "type": "bool"
            },
            {
              "internalType": "bool",
              "name": "shoot",
              "type": "bool"
            }
          ],
          "internalType": "struct Game.MoveInfo",
          "name": "reportedMoveInfo",
          "type": "tuple"
        }
      ],
      "name": "stateUpdateTick",
      "outputs": [],
      "stateMutability": "nonpayable",
      "type": "function"
    },
    {
      "inputs": [],
      "name": "ticker",
      "outputs": [
        {
          "internalType": "address",
          "name": "",
          "type": "address"
        }
      ],
      "stateMutability": "view",
      "type": "function"
    },
    {
      "inputs": [
        {
          "internalType": "uint256",
          "name": "matchId",
          "type": "uint256"
        },
        {
          "internalType": "bytes",
          "name": "commitment",
          "type": "bytes"
        }
      ],
      "name": "updateCommitmentInfo",
      "outputs": [],
      "stateMutability": "nonpayable",
      "type": "function"
    },
    {
      "inputs": [
        {
          "internalType": "uint256",
          "name": "matchId",
          "type": "uint256"
        },
        {
          "internalType": "bytes",
          "name": "commitment",
          "type": "bytes"
        }
      ],
      "name": "updateRevealInfo",
      "outputs": [],
      "stateMutability": "nonpayable",
      "type": "function"
    }
  ],
  "bytecode": "0x60806040523480156200001157600080fd5b506000601e905060005b81811015620002bd57600a67ffffffffffffffff811115620000425762000041620003b0565b5b604051908082528060200260200182016040528015620000715781602001602082028036833780820191505090505b506004600060015481526020019081526020016000206000838152602001908152602001600020603c019080519060200190620000b0929190620002fa565b50806004600060015481526020019081526020016000206000838152602001908152602001600020603c01600081548110620000f157620000f0620003df565b5b9060005260206000200181905550604051806020016040528060326003846200011b919062000447565b620001279190620004c1565b8152506004600060015481526020019081526020016000206000838152602001908152602001600020604701906001620001639291906200034c565b5060046000600154815260200190815260200160002060008281526020019081526020016000205060046000600154815260200190815260200160002060008281526020019081526020016000205060016004600060015481526020019081526020016000206000838152602001908152602001600020605f0160006101000a81548160ff02191690831515021790555060016004600060015481526020019081526020016000206000838152602001908152602001600020605d0181905550600a81620002329190620004c1565b6004600060015481526020019081526020016000206000838152602001908152602001600020605e0181905550600a816001620002709190620004f9565b6200027c9190620004c1565b6004600060015481526020019081526020016000206000838152602001908152602001600020606e018190555080620002b59062000534565b90506200001b565b5080600360006001548152602001908152602001600020819055506001806000828254620002ec9190620004f9565b925050819055505062000581565b82805482825590600052602060002090810192821562000339579160200282015b82811115620003385782518255916020019190600101906200031b565b5b50905062000348919062000391565b5090565b82600a81019282156200037e579160200282015b828111156200037d57825182559160200191906001019062000360565b5b5090506200038d919062000391565b5090565b5b80821115620003ac57600081600090555060010162000392565b5090565b7f4e487b7100000000000000000000000000000000000000000000000000000000600052604160045260246000fd5b7f4e487b7100000000000000000000000000000000000000000000000000000000600052603260045260246000fd5b6000819050919050565b7f4e487b7100000000000000000000000000000000000000000000000000000000600052601160045260246000fd5b600062000454826200040e565b915062000461836200040e565b925082820262000471816200040e565b915082820484148315176200048b576200048a62000418565b5b5092915050565b7f4e487b7100000000000000000000000000000000000000000000000000000000600052601260045260246000fd5b6000620004ce826200040e565b9150620004db836200040e565b925082620004ee57620004ed62000492565b5b828206905092915050565b600062000506826200040e565b915062000513836200040e565b92508282019050808211156200052e576200052d62000418565b5b92915050565b600062000541826200040e565b91507fffffffffffffffffffffffffffffffffffffffffffffffffffffffffffffffff820362000576576200057562000418565b5b600182019050919050565b612d5080620005916000396000f3fe608060405234801561001057600080fd5b50600436106101165760003560e01c8063502d4755116100a2578063960c68d011610071578063960c68d0146102b0578063a0cc641a146102cc578063ea302bdb146102d6578063f1a182661461030d578063f240f7c31461031757610116565b8063502d4755146102285780635a6d3e4814610258578063734692a9146102745780638ba47bdd1461029257610116565b806339febf0c116100e957806339febf0c1461019257806341ba6321146101b05780634768d4ef146101cc57806349bbc37a146102005780634b46db951461021e57610116565b806301fd19511461011b57806302c0cdc414610139578063124a96c8146101435780632db146cf14610161575b600080fd5b610123610321565b6040516101309190611825565b60405180910390f35b610141610327565b005b61014b610329565b6040516101589190611825565b60405180910390f35b61017b60048036038101906101769190611880565b61032e565b604051610189929190611ef3565b60405180910390f35b61019a610d6d565b6040516101a79190611825565b60405180910390f35b6101ca60048036038101906101c59190612070565b610d72565b005b6101e660048036038101906101e191906120cc565b610d76565b6040516101f795949392919061213a565b60405180910390f35b610208610e2c565b6040516102159190611825565b60405180910390f35b610226610e31565b005b610242600480360381019061023d91906120cc565b610e33565b60405161024f9190611825565b60405180910390f35b610272600480360381019061026d919061269f565b610e4b565b005b61027c610e4f565b6040516102899190611825565b60405180910390f35b61029a610e54565b6040516102a791906126fb565b60405180910390f35b6102ca60048036038101906102c59190612070565b610e78565b005b6102d4610e7c565b005b6102f060048036038101906102eb9190611880565b610e7e565b604051610304989796959493929190612725565b60405180910390f35b610315610efa565b005b61031f610efc565b005b60015481565b565b603281565b61033661169e565b61033e61174b565b6004600085815260200190815260200160002060008481526020019081526020016000206040518061020001604052908160008201600a80602002604051908101604052809291906000905b828210156103d05783826003020160405180606001604052908160008201548152602001600182015481526020016002820154815250508152602001906001019061038a565b505050508152602001601e8201600a80602002604051908101604052809291906000905b8282101561043a578382600302016040518060600160405290816000820154815260200160018201548152602001600282015481525050815260200190600101906103f4565b505050508152602001603c820180548060200260200160405190810160405280929190818152602001828054801561049157602002820191906000526020600020905b81548152602001906001019080831161047d575b50505050508152602001603d8201600a806020026040519081016040528092919082600a80156104d6576020028201915b8154815260200190600101908083116104c2575b5050505050815260200160478201600a806020026040519081016040528092919082600a801561051b576020028201915b815481526020019060010190808311610507575b5050505050815260200160518201600a806020026040519081016040528092919082600a8015610560576020028201915b81548152602001906001019080831161054c575b50505050508152602001605b8201548152602001605c8201548152602001605d8201548152602001605e8201548152602001605f820160009054906101000a900460ff16151515158152602001606082016007806020026040519081016040528092919082600780156105e8576020028201915b8154815260200190600101908083116105d4575b505050505081526020016067820160078060200260405190810160405280929190826007801561062d576020028201915b815481526020019060010190808311610619575b50505050508152602001606e8201548152602001606f820160009054906101000a900460ff16151515158152602001606f820160019054906101000a900460ff1615151515815250509150600a67ffffffffffffffff81111561069357610692611f45565b5b6040519080825280602002602001820160405280156106c15781602001602082028036833780820191505090505b50826040018190525060005b600a81101561074e57600460008681526020019081526020016000206000858152602001908152602001600020603c01818154811061070f5761070e6127a3565b5b906000526020600020015483604001518281518110610731576107306127a3565b5b6020026020010181815250508061074790612801565b90506106cd565b5060006004600086815260200190815260200160002060006001866107739190612849565b815260200190815260200160002090506000600590505b6000811115610a6d5760005b600a81101561085057600083603c0182815481106107b7576107b66127a3565b5b9060005260206000200154905060008460470183600a81106107dc576107db6127a3565b5b015490506000806107f28960018787878b610efe565b91509150818960400151868151811061080e5761080d6127a3565b5b60200260200101818152505080896080015186600a8110610832576108316127a3565b5b602002018181525050505050508061084990612801565b9050610796565b5060005b600a81101561090257600083603d0182600a8110610875576108746127a3565b5b0154905060008460510183600a8110610891576108906127a3565b5b015490506000806108a78960028787878b610efe565b9150915081896060015186600a81106108c3576108c26127a3565b5b602002018181525050808960a0015186600a81106108e4576108e36127a3565b5b60200201818152505050505050806108fb90612801565b9050610854565b50600a67ffffffffffffffff81111561091e5761091d611f45565b5b60405190808252806020026020018201604052801561094c5781602001602082028036833780820191505090505b508382600561095b919061287d565b6005811061096c5761096b6127a3565b5b60200201516040018190525060005b600a811015610a59578460400151818151811061099b5761099a6127a3565b5b6020026020010151848360056109b1919061287d565b600581106109c2576109c16127a3565b5b60200201516040015182815181106109dd576109dc6127a3565b5b602002602001018181525050846080015181600a8110610a00576109ff6127a3565b5b602002015184836005610a13919061287d565b60058110610a2457610a236127a3565b5b60200201516080015182600a8110610a3f57610a3e6127a3565b5b60200201818152505080610a5290612801565b905061097b565b508080610a65906128b1565b91505061078a565b50600115158361014001511515148015610a90575060001515836101c001511515145b15610c8157600083610120015190506000846101a001519050600080600187610100015103610b7c5786604001518481518110610ad057610acf6127a3565b5b6020026020010151876101600151600060078110610af157610af06127a3565b5b602002018181525050866080015184600a8110610b1157610b106127a3565b5b6020020151876101800151600060078110610b2f57610b2e6127a3565b5b60200201818152505086604001518381518110610b4f57610b4e6127a3565b5b60200260200101519150866080015183600a8110610b7057610b6f6127a3565b5b60200201519050610c35565b866060015184600a8110610b9357610b926127a3565b5b6020020151876101600151600060078110610bb157610bb06127a3565b5b6020020181815250508660a0015184600a8110610bd157610bd06127a3565b5b6020020151876101800151600060078110610bef57610bee6127a3565b5b602002018181525050866060015183600a8110610c0f57610c0e6127a3565b5b602002015191508660a0015183600a8110610c2d57610c2c6127a3565b5b602002015190505b6000600190505b600781108015610c55575060001515886101c001511515145b15610c7b57610c668884848461113c565b50508080610c7390612801565b915050610c3c565b50505050505b60005b600a811015610d645783604001518181518110610ca457610ca36127a3565b5b60200260200101518360016005610cbb919061287d565b60058110610ccc57610ccb6127a3565b5b6020020151604001518281518110610ce757610ce66127a3565b5b602002602001018181525050836080015181600a8110610d0a57610d096127a3565b5b60200201518360016005610d1e919061287d565b60058110610d2f57610d2e6127a3565b5b60200201516080015182600a8110610d4a57610d496127a3565b5b60200201818152505080610d5d90612801565b9050610c84565b50509250929050565b600581565b5050565b600260205280600052604060002060009150905080600001549080603d0160009054906101000a900473ffffffffffffffffffffffffffffffffffffffff169080603e0160009054906101000a900473ffffffffffffffffffffffffffffffffffffffff169080603f0160009054906101000a900473ffffffffffffffffffffffffffffffffffffffff16908060400160009054906101000a900473ffffffffffffffffffffffffffffffffffffffff16905085565b606481565b565b60036020528060005260406000206000915090505481565b5050565b600781565b60008054906101000a900473ffffffffffffffffffffffffffffffffffffffff1681565b5050565b565b60046020528160005260406000206020528060005260406000206000915091505080605b01549080605c01549080605d01549080605e01549080605f0160009054906101000a900460ff169080606e01549080606f0160009054906101000a900460ff169080606f0160019054906101000a900460ff16905088565b565b565b600080600088604001518781518110610f1a57610f196127a3565b5b602002602001015190506000896080015188600a8110610f3d57610f3c6127a3565b5b6020020151905060028903610f8957896060015188600a8110610f6357610f626127a3565b5b602002015191508960a0015188600a8110610f8157610f806127a3565b5b602002015190505b8682148015610f9757508581145b15610fa9578181935093505050611131565b6000851480610fc5575060001515610fc188886115c2565b1515145b15610fd7578181935093505050611131565b60018503610fec578686935093505050611131565b60008288610ffa91906128e4565b90506000828861100a91906128e4565b9050600082131561104d576103e887836103e86110279190612927565b61103191906129ce565b61103b9190612a38565b846110469190612849565b955061109c565b6000821215611097576103e8878361106490612a69565b6103e86110719190612927565b61107b91906129ce565b6110859190612a38565b84611090919061287d565b955061109b565b8895505b5b60008113156110dd576103e887826103e86110b79190612927565b6110c191906129ce565b6110cb9190612a38565b836110d69190612849565b945061112c565b6000811215611127576103e887826110f490612a69565b6103e86111019190612927565b61110b91906129ce565b61111591906129ce565b83611120919061287d565b945061112b565b8794505b5b505050505b965096945050505050565b60008061117d6040518060400160405280600e81526020017f414456414e43494e472042414c4c0000000000000000000000000000000000008152506115dc565b6000866101600151600185611192919061287d565b600781106111a3576111a26127a3565b5b6020020151905060008761018001516001866111bf919061287d565b600781106111d0576111cf6127a3565b5b6020020151905060008560076111e6919061287d565b90506001810361123957878961016001518760078110611209576112086127a3565b5b60200201818152505086896101800151876007811061122b5761122a6127a3565b5b6020020181815250506113e8565b6000838961124791906128e4565b90506000838961125791906128e4565b905060008213156112b9576103e883836103e86112749190612927565b61127e91906129ce565b6112889190612a38565b856112939190612849565b8b610160015189600781106112ab576112aa6127a3565b5b60200201818152505061131f565b600082121561131e576103e883836112d090612a69565b6103e86112dd9190612927565b6112e791906129ce565b6112f19190612a38565b856112fc919061287d565b8b61016001518960078110611314576113136127a3565b5b6020020181815250505b5b600081131561137f576103e883826103e861133a9190612927565b61134491906129ce565b61134e9190612a38565b846113599190612849565b8b61018001518960078110611371576113706127a3565b5b6020020181815250506113e5565b60008212156113e4576103e8838261139690612a69565b6103e86113a39190612927565b6113ad91906129ce565b6113b791906129ce565b846113c2919061287d565b8b610180015189600781106113da576113d96127a3565b5b6020020181815250505b5b50505b6002896101000151036114d25760005b600a8110156114cc57600060028b6080015183600a811061141c5761141b6127a3565b5b60200201518761142c91906128e4565b6114369190612c0d565b60028c60400151848151811061144f5761144e6127a3565b5b60200260200101518961146291906128e4565b61146c9190612c0d565b6114769190612849565b9050600581108015611486575060005b156114ba5760018b61010001818152505060018b6101c0019015159081151581525050818b610120018181525050506114cc565b50806114c590612801565b90506113f8565b506115b6565b60005b600a8110156115b45760008a6060015182600a81106114f7576114f66127a3565b5b6020020151905060008b60a0015183600a8110611517576115166127a3565b5b6020020151905060006002828961152e91906128e4565b6115389190612c0d565b6002848b61154691906128e4565b6115509190612c0d565b61155a9190612849565b905060058110801561156a575060005b156115a05760028d61010001818152505060018d6101c0019015159081151581525050838d6101200181815250505050506115b4565b505050806115ad90612801565b90506114d5565b505b50505094509492505050565b60006064831080156115d45750603282105b905092915050565b611672816040516024016115f09190612cf8565b6040516020818303038152906040527f41304fac000000000000000000000000000000000000000000000000000000007bffffffffffffffffffffffffffffffffffffffffffffffffffffffff19166020820180517bffffffffffffffffffffffffffffffffffffffffffffffffffffffff8381831617835250505050611675565b50565b60008151905060006a636f6e736f6c652e6c6f679050602083016000808483855afa5050505050565b6040518061020001604052806116b2611778565b81526020016116bf611778565b8152602001606081526020016116d36117a6565b81526020016116e06117a6565b81526020016116ed6117a6565b81526020016000815260200160008152602001600081526020016000815260200160001515815260200161171f6117c9565b815260200161172c6117c9565b8152602001600081526020016000151581526020016000151581525090565b6040518060a001604052806005905b61176261169e565b81526020019060019003908161175a5790505090565b604051806101400160405280600a905b6117906117eb565b8152602001906001900390816117885790505090565b604051806101400160405280600a90602082028036833780820191505090505090565b6040518060e00160405280600790602082028036833780820191505090505090565b60405180606001604052806000815260200160008152602001600081525090565b6000819050919050565b61181f8161180c565b82525050565b600060208201905061183a6000830184611816565b92915050565b6000604051905090565b600080fd5b600080fd5b61185d8161180c565b811461186857600080fd5b50565b60008135905061187a81611854565b92915050565b600080604083850312156118975761189661184a565b5b60006118a58582860161186b565b92505060206118b68582860161186b565b9150509250929050565b6000600a9050919050565b600081905092915050565b6000819050919050565b6118e98161180c565b82525050565b60608201600082015161190560008501826118e0565b50602082015161191860208501826118e0565b50604082015161192b60408501826118e0565b50505050565b600061193d83836118ef565b60608301905092915050565b6000602082019050919050565b61195f816118c0565b61196981846118cb565b9250611974826118d6565b8060005b838110156119a557815161198c8782611931565b965061199783611949565b925050600181019050611978565b505050505050565b600081519050919050565b600082825260208201905092915050565b6000819050602082019050919050565b60006119e583836118e0565b60208301905092915050565b6000602082019050919050565b6000611a09826119ad565b611a1381856119b8565b9350611a1e836119c9565b8060005b83811015611a4f578151611a3688826119d9565b9750611a41836119f1565b925050600181019050611a22565b5085935050505092915050565b6000600a9050919050565b600081905092915050565b6000819050919050565b6000602082019050919050565b611a9281611a5c565b611a9c8184611a67565b9250611aa782611a72565b8060005b83811015611ad8578151611abf87826119d9565b9650611aca83611a7c565b925050600181019050611aab565b505050505050565b60008115159050919050565b611af581611ae0565b82525050565b600060079050919050565b600081905092915050565b6000819050919050565b6000602082019050919050565b611b3181611afb565b611b3b8184611b06565b9250611b4682611b11565b8060005b83811015611b77578151611b5e87826119d9565b9650611b6983611b1b565b925050600181019050611b4a565b505050505050565b6000610e2083016000830151611b986000860182611956565b506020830151611bac6103c0860182611956565b506040830151848203610780860152611bc582826119fe565b9150506060830151611bdb6107a0860182611a89565b506080830151611bef6108e0860182611a89565b5060a0830151611c03610a20860182611a89565b5060c0830151611c17610b608601826118e0565b5060e0830151611c2b610b808601826118e0565b50610100830151611c40610ba08601826118e0565b50610120830151611c55610bc08601826118e0565b50610140830151611c6a610be0860182611aec565b50610160830151611c7f610c00860182611b28565b50610180830151611c94610ce0860182611b28565b506101a0830151611ca9610dc08601826118e0565b506101c0830151611cbe610de0860182611aec565b506101e0830151611cd3610e00860182611aec565b508091505092915050565b600060059050919050565b600081905092915050565b6000819050919050565b6000610e2083016000830151611d176000860182611956565b506020830151611d2b6103c0860182611956565b506040830151848203610780860152611d4482826119fe565b9150506060830151611d5a6107a0860182611a89565b506080830151611d6e6108e0860182611a89565b5060a0830151611d82610a20860182611a89565b5060c0830151611d96610b608601826118e0565b5060e0830151611daa610b808601826118e0565b50610100830151611dbf610ba08601826118e0565b50610120830151611dd4610bc08601826118e0565b50610140830151611de9610be0860182611aec565b50610160830151611dfe610c00860182611b28565b50610180830151611e13610ce0860182611b28565b506101a0830151611e28610dc08601826118e0565b506101c0830151611e3d610de0860182611aec565b506101e0830151611e52610e00860182611aec565b508091505092915050565b6000611e698383611cfe565b905092915050565b6000602082019050919050565b6000611e8982611cde565b611e938185611ce9565b935083602082028501611ea585611cf4565b8060005b85811015611ee15784840389528151611ec28582611e5d565b9450611ecd83611e71565b925060208a01995050600181019050611ea9565b50829750879550505050505092915050565b60006040820190508181036000830152611f0d8185611b7f565b90508181036020830152611f218184611e7e565b90509392505050565b600080fd5b600080fd5b6000601f19601f8301169050919050565b7f4e487b7100000000000000000000000000000000000000000000000000000000600052604160045260246000fd5b611f7d82611f34565b810181811067ffffffffffffffff82111715611f9c57611f9b611f45565b5b80604052505050565b6000611faf611840565b9050611fbb8282611f74565b919050565b600067ffffffffffffffff821115611fdb57611fda611f45565b5b611fe482611f34565b9050602081019050919050565b82818337600083830152505050565b600061201361200e84611fc0565b611fa5565b90508281526020810184848401111561202f5761202e611f2f565b5b61203a848285611ff1565b509392505050565b600082601f83011261205757612056611f2a565b5b8135612067848260208601612000565b91505092915050565b600080604083850312156120875761208661184a565b5b60006120958582860161186b565b925050602083013567ffffffffffffffff8111156120b6576120b561184f565b5b6120c285828601612042565b9150509250929050565b6000602082840312156120e2576120e161184a565b5b60006120f08482850161186b565b91505092915050565b600073ffffffffffffffffffffffffffffffffffffffff82169050919050565b6000612124826120f9565b9050919050565b61213481612119565b82525050565b600060a08201905061214f6000830188611816565b61215c602083018761212b565b612169604083018661212b565b612176606083018561212b565b612183608083018461212b565b9695505050505050565b600080fd5b600080fd5b600067ffffffffffffffff8211156121b2576121b1611f45565b5b602082029050919050565b600080fd5b6000606082840312156121d8576121d761218d565b5b6121e26060611fa5565b905060006121f28482850161186b565b60008301525060206122068482850161186b565b602083015250604061221a8482850161186b565b60408301525092915050565b600061223961223484612197565b611fa5565b90508060608402830185811115612253576122526121bd565b5b835b8181101561227c578061226888826121c2565b845260208401935050606081019050612255565b5050509392505050565b600082601f83011261229b5761229a611f2a565b5b600a6122a8848285612226565b91505092915050565b600067ffffffffffffffff8211156122cc576122cb611f45565b5b602082029050602081019050919050565b60006122f06122eb846122b1565b611fa5565b90508083825260208201905060208402830185811115612313576123126121bd565b5b835b8181101561233c5780612328888261186b565b845260208401935050602081019050612315565b5050509392505050565b600082601f83011261235b5761235a611f2a565b5b813561236b8482602086016122dd565b91505092915050565b600067ffffffffffffffff82111561238f5761238e611f45565b5b602082029050919050565b60006123ad6123a884612374565b611fa5565b905080602084028301858111156123c7576123c66121bd565b5b835b818110156123f057806123dc888261186b565b8452602084019350506020810190506123c9565b5050509392505050565b600082601f83011261240f5761240e611f2a565b5b600a61241c84828561239a565b91505092915050565b61242e81611ae0565b811461243957600080fd5b50565b60008135905061244b81612425565b92915050565b600067ffffffffffffffff82111561246c5761246b611f45565b5b602082029050919050565b600061248a61248584612451565b611fa5565b905080602084028301858111156124a4576124a36121bd565b5b835b818110156124cd57806124b9888261186b565b8452602084019350506020810190506124a6565b5050509392505050565b600082601f8301126124ec576124eb611f2a565b5b60076124f9848285612477565b91505092915050565b6000610e2082840312156125195761251861218d565b5b612524610200611fa5565b9050600061253484828501612286565b6000830152506103c061254984828501612286565b60208301525061078082013567ffffffffffffffff81111561256e5761256d612192565b5b61257a84828501612346565b6040830152506107a061258f848285016123fa565b6060830152506108e06125a4848285016123fa565b608083015250610a206125b9848285016123fa565b60a083015250610b606125ce8482850161186b565b60c083015250610b806125e38482850161186b565b60e083015250610ba06125f88482850161186b565b61010083015250610bc061260e8482850161186b565b61012083015250610be06126248482850161243c565b61014083015250610c0061263a848285016124d7565b61016083015250610ce0612650848285016124d7565b61018083015250610dc06126668482850161186b565b6101a083015250610de061267c8482850161243c565b6101c083015250610e006126928482850161243c565b6101e08301525092915050565b600080604083850312156126b6576126b561184a565b5b60006126c48582860161186b565b925050602083013567ffffffffffffffff8111156126e5576126e461184f565b5b6126f185828601612502565b9150509250929050565b6000602082019050612710600083018461212b565b92915050565b61271f81611ae0565b82525050565b60006101008201905061273b600083018b611816565b612748602083018a611816565b6127556040830189611816565b6127626060830188611816565b61276f6080830187612716565b61277c60a0830186611816565b61278960c0830185612716565b61279660e0830184612716565b9998505050505050505050565b7f4e487b7100000000000000000000000000000000000000000000000000000000600052603260045260246000fd5b7f4e487b7100000000000000000000000000000000000000000000000000000000600052601160045260246000fd5b600061280c8261180c565b91507fffffffffffffffffffffffffffffffffffffffffffffffffffffffffffffffff820361283e5761283d6127d2565b5b600182019050919050565b60006128548261180c565b915061285f8361180c565b9250828201905080821115612877576128766127d2565b5b92915050565b60006128888261180c565b91506128938361180c565b92508282039050818111156128ab576128aa6127d2565b5b92915050565b60006128bc8261180c565b9150600082036128cf576128ce6127d2565b5b600182039050919050565b6000819050919050565b60006128ef826128da565b91506128fa836128da565b9250828203905081811260008412168282136000851215161715612921576129206127d2565b5b92915050565b6000612932826128da565b915061293d836128da565b925082820261294b816128da565b91507f80000000000000000000000000000000000000000000000000000000000000008414600084121615612983576129826127d2565b5b8282058414831517612998576129976127d2565b5b5092915050565b7f4e487b7100000000000000000000000000000000000000000000000000000000600052601260045260246000fd5b60006129d9826128da565b91506129e4836128da565b9250826129f4576129f361299f565b5b600160000383147f800000000000000000000000000000000000000000000000000000000000000083141615612a2d57612a2c6127d2565b5b828205905092915050565b6000612a438261180c565b9150612a4e8361180c565b925082612a5e57612a5d61299f565b5b828204905092915050565b6000612a74826128da565b91507f80000000000000000000000000000000000000000000000000000000000000008203612aa657612aa56127d2565b5b816000039050919050565b60008160011c9050919050565b6000808291508390505b6001851115612b0857808604811115612ae457612ae36127d2565b5b6001851615612af35780820291505b8081029050612b0185612ab1565b9450612ac8565b94509492505050565b60008260008114612b295760018114612b3357612b3c565b6001915050612bf8565b82915050612bf8565b5081612b4b5760009050612bf8565b600190506000821360018114612b685760008114612b8057612b94565b828604831115612b7b57612b7a6127d2565b5b612b94565b828605831215612b9357612b926127d2565b5b5b506001831615612ba2578190505b8182029150612bb083612ab1565b9250612bbe85848484612abe565b925090508185048111600082131615612bda57612bd96127d2565b5b8184058112600082121615612bf257612bf16127d2565b5b81810290505b949350505050565b600060ff82169050919050565b6000612c18826128da565b9150612c2383612c00565b9250612c717f7fffffffffffffffffffffffffffffffffffffffffffffffffffffffffffffff7f80000000000000000000000000000000000000000000000000000000000000008585612b11565b905092915050565b600081519050919050565b600082825260208201905092915050565b60005b83811015612cb3578082015181840152602081019050612c98565b60008484015250505050565b6000612cca82612c79565b612cd48185612c84565b9350612ce4818560208601612c95565b612ced81611f34565b840191505092915050565b60006020820190508181036000830152612d128184612cbf565b90509291505056fea26469706673582212202e44a304cba6fd84bc136a6930d4b134e7540ce71c7b913076528ab41d7bcfd564736f6c63430008120033",
  "linkReferences": {},
  "deployedLinkReferences": {}
}