{
  "_format": "hh-sol-artifact-1",
  "contractName": "CommitmentChainlinkFunctionConsumer",
  "sourceName": "contracts/mockups/CommitmentChainlinkFunctionConsumer.sol",
  "abi": [
    {
      "inputs": [],
      "stateMutability": "nonpayable",
      "type": "constructor"
    },
    {
      "inputs": [],
      "name": "_dataIsReady",
      "outputs": [
        {
          "internalType": "bool",
          "name": "",
          "type": "bool"
        }
      ],
      "stateMutability": "view",
      "type": "function"
    },
    {
      "inputs": [],
      "name": "commitment",
      "outputs": [
        {
          "internalType": "bytes32",
          "name": "",
          "type": "bytes32"
        }
      ],
      "stateMutability": "view",
      "type": "function"
    },
    {
      "inputs": [],
      "name": "copyData",
      "outputs": [
        {
          "internalType": "bytes",
          "name": "",
          "type": "bytes"
        }
      ],
      "stateMutability": "nonpayable",
      "type": "function"
    },
    {
      "inputs": [],
      "name": "dataHasBeenRead",
      "outputs": [
        {
          "internalType": "bool",
          "name": "",
          "type": "bool"
        }
      ],
      "stateMutability": "view",
      "type": "function"
    },
    {
      "inputs": [],
      "name": "dataIsReady",
      "outputs": [
        {
          "internalType": "bool",
          "name": "",
          "type": "bool"
        }
      ],
      "stateMutability": "view",
      "type": "function"
    },
    {
      "inputs": [],
      "name": "encodedData",
      "outputs": [
        {
          "internalType": "bytes",
          "name": "",
          "type": "bytes"
        }
      ],
      "stateMutability": "view",
      "type": "function"
    },
    {
      "inputs": [],
      "name": "requestData",
      "outputs": [],
      "stateMutability": "nonpayable",
      "type": "function"
    },
    {
      "inputs": [
        {
          "internalType": "uint256",
          "name": "seed",
          "type": "uint256"
        }
      ],
      "name": "updateData",
      "outputs": [],
      "stateMutability": "nonpayable",
      "type": "function"
    }
  ],
  "bytecode": "0x60806040526000600260006101000a81548160ff0219169083151502179055506001600260016101000a81548160ff0219169083151502179055503480156200004757600080fd5b506200005a607b6200006060201b60201c565b6200050f565b600081905081816040516020016200007a929190620000d8565b6040516020818303038152906040526000908162000099919062000375565b506000604051620000ab9190620004f6565b60405180910390206001819055505050565b6000819050919050565b620000d281620000bd565b82525050565b6000604082019050620000ef6000830185620000c7565b620000fe6020830184620000c7565b9392505050565b600081519050919050565b7f4e487b7100000000000000000000000000000000000000000000000000000000600052604160045260246000fd5b7f4e487b7100000000000000000000000000000000000000000000000000000000600052602260045260246000fd5b600060028204905060018216806200018757607f821691505b6020821081036200019d576200019c6200013f565b5b50919050565b60008190508160005260206000209050919050565b60006020601f8301049050919050565b600082821b905092915050565b600060088302620002077fffffffffffffffffffffffffffffffffffffffffffffffffffffffffffffffff82620001c8565b620002138683620001c8565b95508019841693508086168417925050509392505050565b6000819050919050565b600062000256620002506200024a84620000bd565b6200022b565b620000bd565b9050919050565b6000819050919050565b620002728362000235565b6200028a62000281826200025d565b848454620001d5565b825550505050565b600090565b620002a162000292565b620002ae81848462000267565b505050565b5b81811015620002d657620002ca60008262000297565b600181019050620002b4565b5050565b601f8211156200032557620002ef81620001a3565b620002fa84620001b8565b810160208510156200030a578190505b620003226200031985620001b8565b830182620002b3565b50505b505050565b600082821c905092915050565b60006200034a600019846008026200032a565b1980831691505092915050565b600062000365838362000337565b9150826002028217905092915050565b620003808262000105565b67ffffffffffffffff8111156200039c576200039b62000110565b5b620003a882546200016e565b620003b5828285620002da565b600060209050601f831160018114620003ed5760008415620003d8578287015190505b620003e4858262000357565b86555062000454565b601f198416620003fd86620001a3565b60005b82811015620004275784890151825560018201915060208501945060208101905062000400565b8683101562000447578489015162000443601f89168262000337565b8355505b6001600288020188555050505b505050505050565b600081905092915050565b6000815462000476816200016e565b6200048281866200045c565b94506001821660008114620004a05760018114620004b657620004ed565b60ff1983168652811515820286019350620004ed565b620004c185620001a3565b60005b83811015620004e557815481890152600182019150602081019050620004c4565b838801955050505b50505092915050565b600062000504828462000467565b915081905092915050565b6109c3806200051f6000396000f3fe608060405234801561001057600080fd5b50600436106100885760003560e01c806358194ff21161005b57806358194ff214610103578063606deecd14610121578063cce710631461012b578063d2b0bf7c1461014957610088565b8063036279591461008d57806309e96008146100ab5780631303a484146100c75780632f703e08146100e5575b600080fd5b610095610167565b6040516100a29190610397565b60405180910390f35b6100c560048036038101906100c091906103ed565b61017a565b005b6100cf6101d1565b6040516100dc9190610433565b60405180910390f35b6100ed6101d7565b6040516100fa91906104de565b60405180910390f35b61010b610236565b6040516101189190610397565b60405180910390f35b610129610249565b005b6101336102d7565b6040516101409190610397565b60405180910390f35b6101516102ee565b60405161015e91906104de565b60405180910390f35b600260019054906101000a900460ff1681565b6000819050818160405160200161019292919061050f565b604051602081830303815290604052600090816101af9190610773565b5060006040516101bf91906108d3565b60405180910390206001819055505050565b60015481565b60606001600260016101000a81548160ff0219169083151502179055506000600260006101000a81548160ff0219169083151502179055506001546040516020016102229190610433565b604051602081830303815290604052905090565b600260009054906101000a900460ff1681565b60011515600260019054906101000a900460ff1615151461029f576040517f08c379a00000000000000000000000000000000000000000000000000000000081526004016102969061096d565b60405180910390fd5b6001600260006101000a81548160ff0219169083151502179055506000600260016101000a81548160ff021916908315150217905550565b6000600260009054906101000a900460ff16905090565b600080546102fb90610596565b80601f016020809104026020016040519081016040528092919081815260200182805461032790610596565b80156103745780601f1061034957610100808354040283529160200191610374565b820191906000526020600020905b81548152906001019060200180831161035757829003601f168201915b505050505081565b60008115159050919050565b6103918161037c565b82525050565b60006020820190506103ac6000830184610388565b92915050565b600080fd5b6000819050919050565b6103ca816103b7565b81146103d557600080fd5b50565b6000813590506103e7816103c1565b92915050565b600060208284031215610403576104026103b2565b5b6000610411848285016103d8565b91505092915050565b6000819050919050565b61042d8161041a565b82525050565b60006020820190506104486000830184610424565b92915050565b600081519050919050565b600082825260208201905092915050565b60005b8381101561048857808201518184015260208101905061046d565b60008484015250505050565b6000601f19601f8301169050919050565b60006104b08261044e565b6104ba8185610459565b93506104ca81856020860161046a565b6104d381610494565b840191505092915050565b600060208201905081810360008301526104f881846104a5565b905092915050565b610509816103b7565b82525050565b60006040820190506105246000830185610500565b6105316020830184610500565b9392505050565b7f4e487b7100000000000000000000000000000000000000000000000000000000600052604160045260246000fd5b7f4e487b7100000000000000000000000000000000000000000000000000000000600052602260045260246000fd5b600060028204905060018216806105ae57607f821691505b6020821081036105c1576105c0610567565b5b50919050565b60008190508160005260206000209050919050565b60006020601f8301049050919050565b600082821b905092915050565b6000600883026106297fffffffffffffffffffffffffffffffffffffffffffffffffffffffffffffffff826105ec565b61063386836105ec565b95508019841693508086168417925050509392505050565b6000819050919050565b600061067061066b610666846103b7565b61064b565b6103b7565b9050919050565b6000819050919050565b61068a83610655565b61069e61069682610677565b8484546105f9565b825550505050565b600090565b6106b36106a6565b6106be818484610681565b505050565b5b818110156106e2576106d76000826106ab565b6001810190506106c4565b5050565b601f821115610727576106f8816105c7565b610701846105dc565b81016020851015610710578190505b61072461071c856105dc565b8301826106c3565b50505b505050565b600082821c905092915050565b600061074a6000198460080261072c565b1980831691505092915050565b60006107638383610739565b9150826002028217905092915050565b61077c8261044e565b67ffffffffffffffff81111561079557610794610538565b5b61079f8254610596565b6107aa8282856106e6565b600060209050601f8311600181146107dd57600084156107cb578287015190505b6107d58582610757565b86555061083d565b601f1984166107eb866105c7565b60005b82811015610813578489015182556001820191506020850194506020810190506107ee565b86831015610830578489015161082c601f891682610739565b8355505b6001600288020188555050505b505050505050565b600081905092915050565b6000815461085d81610596565b6108678186610845565b945060018216600081146108825760018114610897576108ca565b60ff19831686528115158202860193506108ca565b6108a0856105c7565b60005b838110156108c2578154818901526001820191506020810190506108a3565b838801955050505b50505092915050565b60006108df8284610850565b915081905092915050565b600082825260208201905092915050565b7f4552523a2050726576696f7573206461746120686173206e6f74206265656e2060008201527f7265616421000000000000000000000000000000000000000000000000000000602082015250565b60006109576025836108ea565b9150610962826108fb565b604082019050919050565b600060208201905081810360008301526109868161094a565b905091905056fea2646970667358221220a893bc6182c560d13296da137c6ddfabdfe84734ab296f1ee8370f54251d52c964736f6c63430008120033",
  "linkReferences": {},
  "deployedLinkReferences": {}
}