{
  "_format": "hh-sol-artifact-1",
  "contractName": "GameManager",
  "sourceName": "contracts/GameManager.sol",
  "abi": [
    {
      "inputs": [
        {
          "internalType": "address",
          "name": "_logic",
          "type": "address"
        }
      ],
      "stateMutability": "nonpayable",
      "type": "constructor"
    },
    {
      "anonymous": false,
      "inputs": [
        {
          "indexed": false,
          "internalType": "uint256",
          "name": "matchId",
          "type": "uint256"
        },
        {
          "indexed": false,
          "internalType": "enum Types.MATCH_STAGE",
          "name": "stage",
          "type": "uint8"
        }
      ],
      "name": "MatchEnteredStage",
      "type": "event"
    },
    {
      "inputs": [],
      "name": "BALL_STEPS_PER_MOVE",
      "outputs": [
        {
          "internalType": "uint256",
          "name": "",
          "type": "uint256"
        }
      ],
      "stateMutability": "view",
      "type": "function"
    },
    {
      "inputs": [],
      "name": "BITS_PER_PLAYER_X_POS",
      "outputs": [
        {
          "internalType": "uint256",
          "name": "",
          "type": "uint256"
        }
      ],
      "stateMutability": "view",
      "type": "function"
    },
    {
      "inputs": [],
      "name": "BITS_PER_PLAYER_Y_POS",
      "outputs": [
        {
          "internalType": "uint256",
          "name": "",
          "type": "uint256"
        }
      ],
      "stateMutability": "view",
      "type": "function"
    },
    {
      "inputs": [],
      "name": "FIELD_H",
      "outputs": [
        {
          "internalType": "uint256",
          "name": "",
          "type": "uint256"
        }
      ],
      "stateMutability": "view",
      "type": "function"
    },
    {
      "inputs": [],
      "name": "FIELD_W",
      "outputs": [
        {
          "internalType": "uint256",
          "name": "",
          "type": "uint256"
        }
      ],
      "stateMutability": "view",
      "type": "function"
    },
    {
      "inputs": [],
      "name": "MAX_BALL_DISTANCE_REQUIRED",
      "outputs": [
        {
          "internalType": "uint256",
          "name": "",
          "type": "uint256"
        }
      ],
      "stateMutability": "view",
      "type": "function"
    },
    {
      "inputs": [],
      "name": "NUMBER_OF_PLAYERS_PER_TEAM",
      "outputs": [
        {
          "internalType": "uint256",
          "name": "",
          "type": "uint256"
        }
      ],
      "stateMutability": "view",
      "type": "function"
    },
    {
      "inputs": [],
      "name": "NUMBER_OF_TEAMS",
      "outputs": [
        {
          "internalType": "uint256",
          "name": "",
          "type": "uint256"
        }
      ],
      "stateMutability": "view",
      "type": "function"
    },
    {
      "inputs": [],
      "name": "PLAYER_STEPS_PER_MOVE",
      "outputs": [
        {
          "internalType": "uint256",
          "name": "",
          "type": "uint256"
        }
      ],
      "stateMutability": "view",
      "type": "function"
    },
    {
      "inputs": [],
      "name": "SHOOT_STEPS",
      "outputs": [
        {
          "internalType": "uint256",
          "name": "",
          "type": "uint256"
        }
      ],
      "stateMutability": "view",
      "type": "function"
    },
    {
      "inputs": [],
      "name": "STAMINA_LOSS_PER_STEP",
      "outputs": [
        {
          "internalType": "uint256",
          "name": "",
          "type": "uint256"
        }
      ],
      "stateMutability": "view",
      "type": "function"
    },
    {
      "inputs": [],
      "name": "STAMINA_REQUIREMENT_FOR_ADVANCEMENT",
      "outputs": [
        {
          "internalType": "uint256",
          "name": "",
          "type": "uint256"
        }
      ],
      "stateMutability": "view",
      "type": "function"
    },
    {
      "inputs": [
        {
          "internalType": "uint256",
          "name": "matchId",
          "type": "uint256"
        },
        {
          "internalType": "uint256",
          "name": "currMoveId",
          "type": "uint256"
        }
      ],
      "name": "_initStorageForMatch",
      "outputs": [],
      "stateMutability": "nonpayable",
      "type": "function"
    },
    {
      "inputs": [
        {
          "internalType": "uint256",
          "name": "matchId",
          "type": "uint256"
        },
        {
          "internalType": "uint256",
          "name": "stateId",
          "type": "uint256"
        }
      ],
      "name": "_setPlayersToInitialPositions",
      "outputs": [],
      "stateMutability": "nonpayable",
      "type": "function"
    },
    {
      "inputs": [
        {
          "internalType": "uint256",
          "name": "matchId",
          "type": "uint256"
        }
      ],
      "name": "commitmentTick",
      "outputs": [],
      "stateMutability": "nonpayable",
      "type": "function"
    },
    {
      "inputs": [
        {
          "internalType": "address",
          "name": "commitmentFunctionConsumer",
          "type": "address"
        },
        {
          "internalType": "address",
          "name": "revealFunctionConsumer",
          "type": "address"
        }
      ],
      "name": "createMatch",
      "outputs": [],
      "stateMutability": "nonpayable",
      "type": "function"
    },
    {
      "inputs": [
        {
          "internalType": "uint256",
          "name": "matchId",
          "type": "uint256"
        },
        {
          "internalType": "address",
          "name": "commitmentFunctionConsumer",
          "type": "address"
        },
        {
          "internalType": "address",
          "name": "revealFunctionConsumer",
          "type": "address"
        }
      ],
      "name": "joinMatch",
      "outputs": [],
      "stateMutability": "nonpayable",
      "type": "function"
    },
    {
      "inputs": [],
      "name": "logic",
      "outputs": [
        {
          "internalType": "address",
          "name": "",
          "type": "address"
        }
      ],
      "stateMutability": "view",
      "type": "function"
    },
    {
      "inputs": [],
      "name": "matchCounter",
      "outputs": [
        {
          "internalType": "uint256",
          "name": "",
          "type": "uint256"
        }
      ],
      "stateMutability": "view",
      "type": "function"
    },
    {
      "inputs": [
        {
          "internalType": "uint256",
          "name": "",
          "type": "uint256"
        }
      ],
      "name": "matchIdToMatchStateId",
      "outputs": [
        {
          "internalType": "uint256",
          "name": "",
          "type": "uint256"
        }
      ],
      "stateMutability": "view",
      "type": "function"
    },
    {
      "inputs": [
        {
          "internalType": "uint256",
          "name": "",
          "type": "uint256"
        }
      ],
      "name": "matchInfo",
      "outputs": [
        {
          "internalType": "uint256",
          "name": "seed",
          "type": "uint256"
        },
        {
          "internalType": "enum Types.MATCH_STAGE",
          "name": "stage",
          "type": "uint8"
        },
        {
          "internalType": "uint256",
          "name": "stateId",
          "type": "uint256"
        }
      ],
      "stateMutability": "view",
      "type": "function"
    },
    {
      "inputs": [
        {
          "internalType": "uint256",
          "name": "matchId",
          "type": "uint256"
        }
      ],
      "name": "revealTick",
      "outputs": [],
      "stateMutability": "nonpayable",
      "type": "function"
    },
    {
      "inputs": [
        {
          "internalType": "uint256",
          "name": "",
          "type": "uint256"
        }
      ],
      "name": "seedRequestIdMatchId",
      "outputs": [
        {
          "internalType": "uint256",
          "name": "",
          "type": "uint256"
        }
      ],
      "stateMutability": "view",
      "type": "function"
    },
    {
      "inputs": [
        {
          "internalType": "uint256",
          "name": "",
          "type": "uint256"
        },
        {
          "internalType": "uint256",
          "name": "",
          "type": "uint256"
        }
      ],
      "name": "stateShouldBeSkipped",
      "outputs": [
        {
          "internalType": "bool",
          "name": "",
          "type": "bool"
        }
      ],
      "stateMutability": "view",
      "type": "function"
    },
    {
      "inputs": [
        {
          "internalType": "uint256",
          "name": "",
          "type": "uint256"
        },
        {
          "internalType": "uint256",
          "name": "",
          "type": "uint256"
        },
        {
          "internalType": "uint256",
          "name": "",
          "type": "uint256"
        }
      ],
      "name": "teamMove",
      "outputs": [
        {
          "internalType": "bytes",
          "name": "commitment",
          "type": "bytes"
        },
        {
          "internalType": "bytes",
          "name": "reveal",
          "type": "bytes"
        },
        {
          "internalType": "uint256",
          "name": "seed",
          "type": "uint256"
        },
        {
          "internalType": "bool",
          "name": "wantToPass",
          "type": "bool"
        },
        {
          "internalType": "uint256",
          "name": "receivingPlayerId",
          "type": "uint256"
        },
        {
          "internalType": "bool",
          "name": "wantToShoot",
          "type": "bool"
        }
      ],
      "stateMutability": "view",
      "type": "function"
    },
    {
      "inputs": [],
      "name": "ticker",
      "outputs": [
        {
          "internalType": "address",
          "name": "",
          "type": "address"
        }
      ],
      "stateMutability": "view",
      "type": "function"
    },
    {
      "inputs": [
        {
          "internalType": "uint256",
          "name": "matchId",
          "type": "uint256"
        }
      ],
      "name": "updateCommitmentInfo",
      "outputs": [],
      "stateMutability": "nonpayable",
      "type": "function"
    },
    {
      "inputs": [
        {
          "internalType": "uint256",
          "name": "matchId",
          "type": "uint256"
        }
      ],
      "name": "updateRevealInfo",
      "outputs": [],
      "stateMutability": "nonpayable",
      "type": "function"
    }
  ],
  "bytecode": "0x60806040523480156200001157600080fd5b50604051620039e0380380620039e08339818101604052810190620000379190620000e8565b806000806101000a81548173ffffffffffffffffffffffffffffffffffffffff021916908373ffffffffffffffffffffffffffffffffffffffff160217905550506200011a565b600080fd5b600073ffffffffffffffffffffffffffffffffffffffff82169050919050565b6000620000b08262000083565b9050919050565b620000c281620000a3565b8114620000ce57600080fd5b50565b600081519050620000e281620000b7565b92915050565b6000602082840312156200010157620001006200007e565b5b60006200011184828501620000d1565b91505092915050565b6138b6806200012a6000396000f3fe608060405234801561001057600080fd5b50600436106101c45760003560e01c80635cd6925a116100f9578063ae5c135611610097578063d7dfa0dd11610071578063d7dfa0dd146104ec578063e3c8bfb91461050a578063ef9923c614610528578063f978103314610546576101c4565b8063ae5c13561461047e578063c8067b6f1461049c578063d79b490e146104ba576101c4565b8063755f10fd116100d3578063755f10fd146103f65780638ba47bdd1461042657806390ede5d514610444578063a67e38be14610460576101c4565b80635cd6925a1461039e578063705dd6cd146103ba578063734692a9146103d8576101c4565b806335868ab7116101665780634425601711610140578063442560171461032857806345baee551461034457806349bbc37a146103625780634ffdf11e14610380576101c4565b806335868ab7146102be57806337c74779146102da57806339febf0c1461030a576101c4565b80631b7d40a5116101a25780631b7d40a5146102215780631e20530a1461025657806322bfb7661461027257806327764f7d146102a2576101c4565b806301fd1951146101c957806307ae2a9c146101e7578063124a96c814610203575b600080fd5b6101d1610562565b6040516101de919061265c565b60405180910390f35b61020160048036038101906101fc91906126b7565b610568565b005b61020b610b8e565b604051610218919061265c565b60405180910390f35b61023b600480360381019061023691906126f7565b610b9f565b60405161024d969594939291906127f5565b60405180910390f35b610270600480360381019061026b91906128c2565b610d2f565b005b61028c600480360381019061028791906126b7565b610eba565b6040516102999190612902565b60405180910390f35b6102bc60048036038101906102b7919061291d565b610ee9565b005b6102d860048036038101906102d3919061294a565b6111dd565b005b6102f460048036038101906102ef919061291d565b6113dd565b604051610301919061265c565b60405180910390f35b6103126113f5565b60405161031f919061265c565b60405180910390f35b610342600480360381019061033d91906126b7565b6113fa565b005b61034c611736565b604051610359919061265c565b60405180910390f35b61036a61173b565b604051610377919061265c565b60405180910390f35b61038861174c565b604051610395919061265c565b60405180910390f35b6103b860048036038101906103b3919061291d565b611751565b005b6103c26119a0565b6040516103cf919061265c565b60405180910390f35b6103e06119a5565b6040516103ed919061265c565b60405180910390f35b610410600480360381019061040b919061291d565b6119aa565b60405161041d919061265c565b60405180910390f35b61042e6119c2565b60405161043b91906129ac565b60405180910390f35b61045e6004803603810190610459919061291d565b6119e8565b005b610468611cdc565b604051610475919061265c565b60405180910390f35b610486611ce1565b604051610493919061265c565b60405180910390f35b6104a4611ce6565b6040516104b1919061265c565b60405180910390f35b6104d460048036038101906104cf919061291d565b611ceb565b6040516104e393929190612a3e565b60405180910390f35b6104f4611d22565b60405161050191906129ac565b60405180910390f35b610512611d46565b60405161051f919061265c565b60405180910390f35b610530611d4b565b60405161053d919061265c565b60405180910390f35b610560600480360381019061055b919061291d565b611d50565b005b60025481565b60008060076000858152602001908152602001600020600084815260200190815260200160002082815481106105a1576105a0612a75565b5b9060005260206000209060060201905060005b600a8110156108755760008103610646576002600a60026105d59190612c06565b6105df9190612c80565b8260040182815481106105f5576105f4612a75565b5b90600052602060002001819055506002600960026106139190612c06565b61061d9190612c80565b82600501828154811061063357610632612a75565b5b9060005260206000200181905550610864565b6000811180156106565750600481105b156106f3576008600a600261066b9190612c06565b6106759190612c80565b60036106819190612cb1565b82600401828154811061069757610696612a75565b5b90600052602060002001819055506004600960026106b59190612c06565b6106bf9190612c80565b816106ca9190612cb1565b8260050182815481106106e0576106df612a75565b5b9060005260206000200181905550610863565b6003811180156107035750600881105b156107ac576008600a60026107189190612c06565b6107229190612c80565b600261072e9190612cb1565b82600401828154811061074457610743612a75565b5b90600052602060002001819055506005600960026107629190612c06565b61076c9190612c80565b6003826107799190612cf3565b6107839190612cb1565b82600501828154811061079957610798612a75565b5b9060005260206000200181905550610862565b6007811180156107bc5750600a81105b15610861576008600a60026107d19190612c06565b6107db9190612c80565b60016107e79190612cb1565b8260040182815481106107fd576107fc612a75565b5b906000526020600020018190555060036009600261081b9190612c06565b6108259190612c80565b6007826108329190612cf3565b61083c9190612cb1565b82600501828154811061085257610851612a75565b5b90600052602060002001819055505b5b5b5b8061086e90612d27565b90506105b4565b5060019150600060076000868152602001908152602001600020600085815260200190815260200160002083815481106108b2576108b1612a75565b5b9060005260206000209060060201905060005b600a811015610b865760008103610957576002600a60026108e69190612c06565b6108f09190612c80565b82600401828154811061090657610905612a75565b5b90600052602060002001819055506002600960026109249190612c06565b61092e9190612c80565b82600501828154811061094457610943612a75565b5b9060005260206000200181905550610b75565b6000811180156109675750600481105b15610a04576008600a600261097c9190612c06565b6109869190612c80565b60056109929190612cb1565b8260040182815481106109a8576109a7612a75565b5b90600052602060002001819055506004600960026109c69190612c06565b6109d09190612c80565b816109db9190612cb1565b8260050182815481106109f1576109f0612a75565b5b9060005260206000200181905550610b74565b600381118015610a145750600881105b15610abd576008600a6002610a299190612c06565b610a339190612c80565b6006610a3f9190612cb1565b826004018281548110610a5557610a54612a75565b5b9060005260206000200181905550600560096002610a739190612c06565b610a7d9190612c80565b600382610a8a9190612cf3565b610a949190612cb1565b826005018281548110610aaa57610aa9612a75565b5b9060005260206000200181905550610b73565b600781118015610acd5750600a81105b15610b72576008600a6002610ae29190612c06565b610aec9190612c80565b6007610af89190612cb1565b826004018281548110610b0e57610b0d612a75565b5b9060005260206000200181905550600360096002610b2c9190612c06565b610b369190612c80565b600782610b439190612cf3565b610b4d9190612cb1565b826005018281548110610b6357610b62612a75565b5b90600052602060002001819055505b5b5b5b80610b7f90612d27565b90506108c5565b505050505050565b60096002610b9c9190612c06565b81565b60086020528260005260406000206020528160005260406000208181548110610bc757600080fd5b90600052602060002090600802016000925092505050806000018054610bec90612d9e565b80601f0160208091040260200160405190810160405280929190818152602001828054610c1890612d9e565b8015610c655780601f10610c3a57610100808354040283529160200191610c65565b820191906000526020600020905b815481529060010190602001808311610c4857829003601f168201915b505050505090806001018054610c7a90612d9e565b80601f0160208091040260200160405190810160405280929190818152602001828054610ca690612d9e565b8015610cf35780601f10610cc857610100808354040283529160200191610cf3565b820191906000526020600020905b815481529060010190602001808311610cd657829003601f168201915b5050505050908060020154908060050160009054906101000a900460ff16908060060154908060070160009054906101000a900460ff16905086565b60006002549050610d418160006113fa565b610d4c816000610568565b600060036000838152602001908152602001600020905060018160030160006101000a81548160ff0219169083600a811115610d8b57610d8a6129c7565b5b02179055508381600101600081548110610da857610da7612a75565b5b9060005260206000200160006101000a81548173ffffffffffffffffffffffffffffffffffffffff021916908373ffffffffffffffffffffffffffffffffffffffff1602179055508281600201600081548110610e0857610e07612a75565b5b9060005260206000200160006101000a81548173ffffffffffffffffffffffffffffffffffffffff021916908373ffffffffffffffffffffffffffffffffffffffff160217905550600160026000828254610e639190612dcf565b925050819055507f58d4562cf15d1052e816fd24f6af2c8a3a21416d6e4c01a9e11ef84ffe537e25828260030160009054906101000a900460ff16604051610eac929190612e03565b60405180910390a150505050565b60096020528160005260406000206020528060005260406000206000915091509054906101000a900460ff1681565b60006003600083815260200190815260200160002090506007600a811115610f1457610f136129c7565b5b8160030160009054906101000a900460ff16600a811115610f3857610f376129c7565b5b14610f78576040517f08c379a0000000000000000000000000000000000000000000000000000000008152600401610f6f90612eaf565b60405180910390fd5b60005b600281101561108357816002018181548110610f9a57610f99612a75565b5b9060005260206000200160009054906101000a900473ffffffffffffffffffffffffffffffffffffffff1673ffffffffffffffffffffffffffffffffffffffff1663cce710636040518163ffffffff1660e01b8152600401602060405180830381865afa15801561100f573d6000803e3d6000fd5b505050506040513d601f19601f820116820180604052508101906110339190612efb565b611072576040517f08c379a000000000000000000000000000000000000000000000000000000000815260040161106990612f9a565b60405180910390fd5b8061107c90612d27565b9050610f7b565b5060005b60028110156111615761115083828460020184815481106110ab576110aa612a75565b5b9060005260206000200160009054906101000a900473ffffffffffffffffffffffffffffffffffffffff1673ffffffffffffffffffffffffffffffffffffffff16632f703e086040518163ffffffff1660e01b81526004016000604051808303816000875af1158015611122573d6000803e3d6000fd5b505050506040513d6000823e3d601f19601f8201168201806040525081019061114b91906130e0565b611f18565b8061115a90612d27565b9050611087565b5060088160030160006101000a81548160ff0219169083600a81111561118a576111896129c7565b5b02179055507f58d4562cf15d1052e816fd24f6af2c8a3a21416d6e4c01a9e11ef84ffe537e25828260030160009054906101000a900460ff166040516111d1929190612e03565b60405180910390a15050565b60006003600085815260200190815260200160002090506001600a811115611208576112076129c7565b5b8160030160009054906101000a900460ff16600a81111561122c5761122b6129c7565b5b1461126c576040517f08c379a00000000000000000000000000000000000000000000000000000000081526004016112639061319b565b60405180910390fd5b828160010160018154811061128457611283612a75565b5b9060005260206000200160006101000a81548173ffffffffffffffffffffffffffffffffffffffff021916908373ffffffffffffffffffffffffffffffffffffffff16021790555081816002016001815481106112e4576112e3612a75565b5b9060005260206000200160006101000a81548173ffffffffffffffffffffffffffffffffffffffff021916908373ffffffffffffffffffffffffffffffffffffffff16021790555060028160030160006101000a81548160ff0219169083600a811115611354576113536129c7565b5b021790555061136284612190565b61138d6105157e2c499549a97345e6ecbdafe0734efcb95d518f4c7fb70bcae861729678e165612249565b7f58d4562cf15d1052e816fd24f6af2c8a3a21416d6e4c01a9e11ef84ffe537e25848260030160009054906101000a900460ff166040516113cf929190612e03565b60405180910390a150505050565b60046020528060005260406000206000915090505481565b600581565b61141c604051806060016040528060248152602001613824602491398261230b565b600081036114bb5760005b60028110156114b95760036000848152602001908152602001600020600101600181600181540180825580915050039060005260206000200160009054906101000a90505060036000848152602001908152602001600020600201600181600181540180825580915050039060005260206000200160009054906101000a905050806114b290612d27565b9050611427565b505b60006006600084815260200190815260200160002060008381526020019081526020016000209050600060076000858152602001908152602001600020600084815260200190815260200160002090506000600860008681526020019081526020016000206000858152602001908152602001600020905060005b600281101561172e578360000160009080600181540180825580915050600190039060005260206000200160009091909190915055826001816001815401808255809150500390600052602060002090505060005b600a811015611663578382815481106115a7576115a6612a75565b5b9060005260206000209060060201600001600181600181540180825580915050039060005260206000209050508382815481106115e7576115e6612a75565b5b906000526020600020906006020160040160018160018154018082558091505003906000526020600020505083828154811061162657611625612a75565b5b90600052602060002090600602016005016001816001815401808255809150500390600052602060002050508061165c90612d27565b905061158b565b50816001816001815401808255809150500390600052602060002090505060005b600a81101561171c578282815481106116a05761169f612a75565b5b90600052602060002090600802016003016001816001815401808255809150500390600052602060002050508282815481106116df576116de612a75565b5b90600052602060002090600802016004016001816001815401808255809150500390600052602060002050508061171590612d27565b9050611684565b508061172790612d27565b9050611536565b505050505050565b600981565b600a60026117499190612c06565b81565b600a81565b60006003600083815260200190815260200160002090506004600a81111561177c5761177b6129c7565b5b8160030160009054906101000a900460ff16600a8111156117a05761179f6129c7565b5b14806117e157506009600a8111156117bb576117ba6129c7565b5b8160030160009054906101000a900460ff16600a8111156117df576117de6129c7565b5b145b611820576040517f08c379a00000000000000000000000000000000000000000000000000000000081526004016118179061322d565b60405180910390fd5b6004600a811115611834576118336129c7565b5b8160030160009054906101000a900460ff16600a811115611858576118576129c7565b5b0361186757611866826123a7565b5b60005b60028110156119245781600101818154811061188957611888612a75565b5b9060005260206000200160009054906101000a900473ffffffffffffffffffffffffffffffffffffffff1673ffffffffffffffffffffffffffffffffffffffff1663606deecd6040518163ffffffff1660e01b8152600401600060405180830381600087803b1580156118fb57600080fd5b505af115801561190f573d6000803e3d6000fd5b505050508061191d90612d27565b905061186a565b5060058160030160006101000a81548160ff0219169083600a81111561194d5761194c6129c7565b5b02179055507f58d4562cf15d1052e816fd24f6af2c8a3a21416d6e4c01a9e11ef84ffe537e25828260030160009054906101000a900460ff16604051611994929190612e03565b60405180910390a15050565b600a81565b600781565b60056020528060005260406000206000915090505481565b600160009054906101000a900473ffffffffffffffffffffffffffffffffffffffff1681565b60006003600083815260200190815260200160002090506005600a811115611a1357611a126129c7565b5b8160030160009054906101000a900460ff16600a811115611a3757611a366129c7565b5b14611a77576040517f08c379a0000000000000000000000000000000000000000000000000000000008152600401611a6e906132bf565b60405180910390fd5b60005b6002811015611b8257816001018181548110611a9957611a98612a75565b5b9060005260206000200160009054906101000a900473ffffffffffffffffffffffffffffffffffffffff1673ffffffffffffffffffffffffffffffffffffffff1663cce710636040518163ffffffff1660e01b8152600401602060405180830381865afa158015611b0e573d6000803e3d6000fd5b505050506040513d601f19601f82011682018060405250810190611b329190612efb565b611b71576040517f08c379a0000000000000000000000000000000000000000000000000000000008152600401611b6890612f9a565b60405180910390fd5b80611b7b90612d27565b9050611a7a565b5060005b6002811015611c6057611c4f8382846001018481548110611baa57611ba9612a75565b5b9060005260206000200160009054906101000a900473ffffffffffffffffffffffffffffffffffffffff1673ffffffffffffffffffffffffffffffffffffffff16632f703e086040518163ffffffff1660e01b81526004016000604051808303816000875af1158015611c21573d6000803e3d6000fd5b505050506040513d6000823e3d601f19601f82011682018060405250810190611c4a91906130e0565b612572565b80611c5990612d27565b9050611b86565b5060068160030160006101000a81548160ff0219169083600a811115611c8957611c886129c7565b5b02179055507f58d4562cf15d1052e816fd24f6af2c8a3a21416d6e4c01a9e11ef84ffe537e25828260030160009054906101000a900460ff16604051611cd0929190612e03565b60405180910390a15050565b600281565b600a81565b601981565b60036020528060005260406000206000915090508060000154908060030160009054906101000a900460ff16908060040154905083565b60008054906101000a900473ffffffffffffffffffffffffffffffffffffffff1681565b600281565b600281565b60006003600083815260200190815260200160002090506006600a811115611d7b57611d7a6129c7565b5b8160030160009054906101000a900460ff16600a811115611d9f57611d9e6129c7565b5b14611ddf576040517f08c379a0000000000000000000000000000000000000000000000000000000008152600401611dd690613351565b60405180910390fd5b60005b6002811015611e9c57816002018181548110611e0157611e00612a75565b5b9060005260206000200160009054906101000a900473ffffffffffffffffffffffffffffffffffffffff1673ffffffffffffffffffffffffffffffffffffffff1663606deecd6040518163ffffffff1660e01b8152600401600060405180830381600087803b158015611e7357600080fd5b505af1158015611e87573d6000803e3d6000fd5b5050505080611e9590612d27565b9050611de2565b5060078160030160006101000a81548160ff0219169083600a811115611ec557611ec46129c7565b5b02179055507f58d4562cf15d1052e816fd24f6af2c8a3a21416d6e4c01a9e11ef84ffe537e25828260030160009054906101000a900460ff16604051611f0c929190612e03565b60405180910390a15050565b6000600860008581526020019081526020016000206000600560008781526020019081526020016000205481526020019081526020016000208381548110611f6357611f62612a75565b5b9060005260206000209060080201905060008280519060200120604051602001611f8d919061338a565b604051602081830303815290604052905081600001604051611faf9190613448565b6040518091039020818051906020012014611fff576040517f08c379a0000000000000000000000000000000000000000000000000000000008152600401611ff6906134d1565b60405180910390fd5b828260010190816120109190613688565b5060008084806020019051810190612028919061376f565b9150915081846002018190555060006009600a6120459190612dcf565b905060005b600a8110156120fc57600082826120619190612cb1565b84901c90506001600a60026120769190612c06565b6120809190612cf3565b600982901c1687600301838154811061209c5761209b612a75565b5b90600052602060002001819055506001600960026120ba9190612c06565b6120c49190612cf3565b81168760040183815481106120dc576120db612a75565b5b906000526020600020018190555050806120f590612d27565b905061204a565b5060018560070160006101000a81548160ff0219169083151502179055506001806001600a8461212c9190612cb1565b6121369190612dcf565b84901c16148560050160006101000a81548160ff0219169083151502179055506000600f6002600a846121699190612cb1565b6121739190612dcf565b84901c169050600781168660060181905550505050505050505050565b600060036000838152602001908152602001600020905081600460006105158152602001908152602001600020819055506003600a8111156121d5576121d46129c7565b5b8160030160009054906101000a900460ff16600a8111156121f9576121f86129c7565b5b50507f58d4562cf15d1052e816fd24f6af2c8a3a21416d6e4c01a9e11ef84ffe537e25828260030160009054906101000a900460ff1660405161223d929190612e03565b60405180910390a15050565b60006003600060046000868152602001908152602001600020548152602001908152602001600020905081816000018190555060048160030160006101000a81548160ff0219169083600a8111156122a4576122a36129c7565b5b02179055507f58d4562cf15d1052e816fd24f6af2c8a3a21416d6e4c01a9e11ef84ffe537e2560046000858152602001908152602001600020548260030160009054906101000a900460ff166040516122fe929190612e03565b60405180910390a1505050565b6123a382826040516024016123219291906137f3565b6040516020818303038152906040527fb60e72cc000000000000000000000000000000000000000000000000000000007bffffffffffffffffffffffffffffffffffffffffffffffffffffffff19166020820180517bffffffffffffffffffffffffffffffffffffffffffffffffffffffff838183161783525050505061261a565b5050565b60006003600083815260200190815260200160002060000154905060005b600281101561256d576000600760008581526020019081526020016000206000808152602001908152602001600020828154811061240657612405612a75565b5b9060005260206000209060060201905060005b600a8110156124f4576000600b828560016124349190612dcf565b61243e9190612cb1565b6124489190612cb1565b85901c9050607f811683600001838154811061246757612466612a75565b5b906000526020600020906003020160000181905550607f600782901c1683600001838154811061249a57612499612a75565b5b906000526020600020906003020160010181905550607f600e82901c168360000183815481106124cd576124cc612a75565b5b90600052602060002090600302016002018190555050806124ed90612d27565b9050612419565b50607f60006015846125069190612cb1565b85901c901c168160010160000181905550607f60076015846125289190612cb1565b85901c901c168160010160010181905550607f600e60158461254a9190612cb1565b85901c901c168160010160020181905550508061256690612d27565b90506123c5565b505050565b6125a760405180606001604052806039815260200161384860399139600560008681526020019081526020016000205461230b565b60006008600085815260200190815260200160002060006005600087815260200190815260200160002054815260200190815260200160002083815481106125f2576125f1612a75565b5b90600052602060002090600802019050818160000190816126139190613688565b5050505050565b60008151905060006a636f6e736f6c652e6c6f679050602083016000808483855afa5050505050565b6000819050919050565b61265681612643565b82525050565b6000602082019050612671600083018461264d565b92915050565b6000604051905090565b600080fd5b600080fd5b61269481612643565b811461269f57600080fd5b50565b6000813590506126b18161268b565b92915050565b600080604083850312156126ce576126cd612681565b5b60006126dc858286016126a2565b92505060206126ed858286016126a2565b9150509250929050565b6000806000606084860312156127105761270f612681565b5b600061271e868287016126a2565b935050602061272f868287016126a2565b9250506040612740868287016126a2565b9150509250925092565b600081519050919050565b600082825260208201905092915050565b60005b83811015612784578082015181840152602081019050612769565b60008484015250505050565b6000601f19601f8301169050919050565b60006127ac8261274a565b6127b68185612755565b93506127c6818560208601612766565b6127cf81612790565b840191505092915050565b60008115159050919050565b6127ef816127da565b82525050565b600060c082019050818103600083015261280f81896127a1565b9050818103602083015261282381886127a1565b9050612832604083018761264d565b61283f60608301866127e6565b61284c608083018561264d565b61285960a08301846127e6565b979650505050505050565b600073ffffffffffffffffffffffffffffffffffffffff82169050919050565b600061288f82612864565b9050919050565b61289f81612884565b81146128aa57600080fd5b50565b6000813590506128bc81612896565b92915050565b600080604083850312156128d9576128d8612681565b5b60006128e7858286016128ad565b92505060206128f8858286016128ad565b9150509250929050565b600060208201905061291760008301846127e6565b92915050565b60006020828403121561293357612932612681565b5b6000612941848285016126a2565b91505092915050565b60008060006060848603121561296357612962612681565b5b6000612971868287016126a2565b9350506020612982868287016128ad565b9250506040612993868287016128ad565b9150509250925092565b6129a681612884565b82525050565b60006020820190506129c1600083018461299d565b92915050565b7f4e487b7100000000000000000000000000000000000000000000000000000000600052602160045260246000fd5b600b8110612a0757612a066129c7565b5b50565b6000819050612a18826129f6565b919050565b6000612a2882612a0a565b9050919050565b612a3881612a1d565b82525050565b6000606082019050612a53600083018661264d565b612a606020830185612a2f565b612a6d604083018461264d565b949350505050565b7f4e487b7100000000000000000000000000000000000000000000000000000000600052603260045260246000fd5b7f4e487b7100000000000000000000000000000000000000000000000000000000600052601160045260246000fd5b60008160011c9050919050565b6000808291508390505b6001851115612b2a57808604811115612b0657612b05612aa4565b5b6001851615612b155780820291505b8081029050612b2385612ad3565b9450612aea565b94509492505050565b600082612b435760019050612bff565b81612b515760009050612bff565b8160018114612b675760028114612b7157612ba0565b6001915050612bff565b60ff841115612b8357612b82612aa4565b5b8360020a915084821115612b9a57612b99612aa4565b5b50612bff565b5060208310610133831016604e8410600b8410161715612bd55782820a905083811115612bd057612bcf612aa4565b5b612bff565b612be28484846001612ae0565b92509050818404811115612bf957612bf8612aa4565b5b81810290505b9392505050565b6000612c1182612643565b9150612c1c83612643565b9250612c497fffffffffffffffffffffffffffffffffffffffffffffffffffffffffffffffff8484612b33565b905092915050565b7f4e487b7100000000000000000000000000000000000000000000000000000000600052601260045260246000fd5b6000612c8b82612643565b9150612c9683612643565b925082612ca657612ca5612c51565b5b828204905092915050565b6000612cbc82612643565b9150612cc783612643565b9250828202612cd581612643565b91508282048414831517612cec57612ceb612aa4565b5b5092915050565b6000612cfe82612643565b9150612d0983612643565b9250828203905081811115612d2157612d20612aa4565b5b92915050565b6000612d3282612643565b91507fffffffffffffffffffffffffffffffffffffffffffffffffffffffffffffffff8203612d6457612d63612aa4565b5b600182019050919050565b7f4e487b7100000000000000000000000000000000000000000000000000000000600052602260045260246000fd5b60006002820490506001821680612db657607f821691505b602082108103612dc957612dc8612d6f565b5b50919050565b6000612dda82612643565b9150612de583612643565b9250828201905080821115612dfd57612dfc612aa4565b5b92915050565b6000604082019050612e18600083018561264d565b612e256020830184612a2f565b9392505050565b600082825260208201905092915050565b7f4552523a204d61746368206e6f7420696e20636f72726563742073746167652060008201527f746f20726563656976652052657665616c732100000000000000000000000000602082015250565b6000612e99603383612e2c565b9150612ea482612e3d565b604082019050919050565b60006020820190508181036000830152612ec881612e8c565b9050919050565b612ed8816127da565b8114612ee357600080fd5b50565b600081519050612ef581612ecf565b92915050565b600060208284031215612f1157612f10612681565b5b6000612f1f84828501612ee6565b91505092915050565b7f4552523a204e6f7420616c6c207465616d73206861766520697373756564206360008201527f6f6d6d69746d656e747321000000000000000000000000000000000000000000602082015250565b6000612f84602b83612e2c565b9150612f8f82612f28565b604082019050919050565b60006020820190508181036000830152612fb381612f77565b9050919050565b600080fd5b600080fd5b7f4e487b7100000000000000000000000000000000000000000000000000000000600052604160045260246000fd5b612ffc82612790565b810181811067ffffffffffffffff8211171561301b5761301a612fc4565b5b80604052505050565b600061302e612677565b905061303a8282612ff3565b919050565b600067ffffffffffffffff82111561305a57613059612fc4565b5b61306382612790565b9050602081019050919050565b600061308361307e8461303f565b613024565b90508281526020810184848401111561309f5761309e612fbf565b5b6130aa848285612766565b509392505050565b600082601f8301126130c7576130c6612fba565b5b81516130d7848260208601613070565b91505092915050565b6000602082840312156130f6576130f5612681565b5b600082015167ffffffffffffffff81111561311457613113612686565b5b613120848285016130b2565b91505092915050565b7f4552523a20596f752063616e206f6e6c79206a6f696e2061206e65776c79206360008201527f726561746564206d617463682100000000000000000000000000000000000000602082015250565b6000613185602d83612e2c565b915061319082613129565b604082019050919050565b600060208201905081810360008301526131b481613178565b9050919050565b7f4552523a204d61746368206e6f7420696e20636f72726563742073746167652060008201527f746f20666574636820436f6d6d69746d656e7473210000000000000000000000602082015250565b6000613217603583612e2c565b9150613222826131bb565b604082019050919050565b600060208201905081810360008301526132468161320a565b9050919050565b7f4552523a204d61746368206e6f7420696e20636f72726563742073746167652060008201527f746f207265636569766520436f6d6d69746d656e747321000000000000000000602082015250565b60006132a9603783612e2c565b91506132b48261324d565b604082019050919050565b600060208201905081810360008301526132d88161329c565b9050919050565b7f4552523a204d61746368206e6f7420696e20636f72726563742073746167652060008201527f746f206665746368205265617665616c73210000000000000000000000000000602082015250565b600061333b603283612e2c565b9150613346826132df565b604082019050919050565b6000602082019050818103600083015261336a8161332e565b9050919050565b6000819050919050565b61338481613371565b82525050565b600060208201905061339f600083018461337b565b92915050565b600081905092915050565b60008190508160005260206000209050919050565b600081546133d281612d9e565b6133dc81866133a5565b945060018216600081146133f7576001811461340c5761343f565b60ff198316865281151582028601935061343f565b613415856133b0565b60005b8381101561343757815481890152600182019150602081019050613418565b838801955050505b50505092915050565b600061345482846133c5565b915081905092915050565b7f4552523a2052657665616c20646f65736e277420636f72726573706f6e64207460008201527f6f2074686520436f6d6d69746d656e7400000000000000000000000000000000602082015250565b60006134bb603083612e2c565b91506134c68261345f565b604082019050919050565b600060208201905081810360008301526134ea816134ae565b9050919050565b60006020601f8301049050919050565b600082821b905092915050565b60006008830261353e7fffffffffffffffffffffffffffffffffffffffffffffffffffffffffffffffff82613501565b6135488683613501565b95508019841693508086168417925050509392505050565b6000819050919050565b600061358561358061357b84612643565b613560565b612643565b9050919050565b6000819050919050565b61359f8361356a565b6135b36135ab8261358c565b84845461350e565b825550505050565b600090565b6135c86135bb565b6135d3818484613596565b505050565b5b818110156135f7576135ec6000826135c0565b6001810190506135d9565b5050565b601f82111561363c5761360d816133b0565b613616846134f1565b81016020851015613625578190505b613639613631856134f1565b8301826135d8565b50505b505050565b600082821c905092915050565b600061365f60001984600802613641565b1980831691505092915050565b6000613678838361364e565b9150826002028217905092915050565b6136918261274a565b67ffffffffffffffff8111156136aa576136a9612fc4565b5b6136b48254612d9e565b6136bf8282856135fb565b600060209050601f8311600181146136f257600084156136e0578287015190505b6136ea858261366c565b865550613752565b601f198416613700866133b0565b60005b8281101561372857848901518255600182019150602085019450602081019050613703565b868310156137455784890151613741601f89168261364e565b8355505b6001600288020188555050505b505050505050565b6000815190506137698161268b565b92915050565b6000806040838503121561378657613785612681565b5b60006137948582860161375a565b92505060206137a58582860161375a565b9150509250929050565b600081519050919050565b60006137c5826137af565b6137cf8185612e2c565b93506137df818560208601612766565b6137e881612790565b840191505092915050565b6000604082019050818103600083015261380d81856137ba565b905061381c602083018461264d565b939250505056fe494e495449414c495a494e47462053544f5241474520464f522053544154454944202573757064617465436f6d6d69746d656e74496e666f2c206d617463684964546f4d61746368537461746549645b6d6174636849645d203a202573a264697066735822122015141fa60c48363bd9d4f792c198208bd90ea606782f63c235c43a9345c1c97f64736f6c63430008120033",
  "linkReferences": {},
  "deployedLinkReferences": {}
}