{
  "_format": "hh-sol-artifact-1",
  "contractName": "GameManager",
  "sourceName": "contracts/GameManager.sol",
  "abi": [
    {
      "inputs": [
        {
          "internalType": "address",
          "name": "_logic",
          "type": "address"
        }
      ],
      "stateMutability": "nonpayable",
      "type": "constructor"
    },
    {
      "anonymous": false,
      "inputs": [
        {
          "indexed": false,
          "internalType": "uint256",
          "name": "matchId",
          "type": "uint256"
        },
        {
          "indexed": false,
          "internalType": "enum Types.MATCH_STAGE",
          "name": "stage",
          "type": "uint8"
        }
      ],
      "name": "MatchEnteredStage",
      "type": "event"
    },
    {
      "inputs": [],
      "name": "BALL_STEPS_PER_MOVE",
      "outputs": [
        {
          "internalType": "uint256",
          "name": "",
          "type": "uint256"
        }
      ],
      "stateMutability": "view",
      "type": "function"
    },
    {
      "inputs": [],
      "name": "BITS_PER_PLAYER_X_POS",
      "outputs": [
        {
          "internalType": "uint256",
          "name": "",
          "type": "uint256"
        }
      ],
      "stateMutability": "view",
      "type": "function"
    },
    {
      "inputs": [],
      "name": "BITS_PER_PLAYER_Y_POS",
      "outputs": [
        {
          "internalType": "uint256",
          "name": "",
          "type": "uint256"
        }
      ],
      "stateMutability": "view",
      "type": "function"
    },
    {
      "inputs": [],
      "name": "FIELD_H",
      "outputs": [
        {
          "internalType": "uint256",
          "name": "",
          "type": "uint256"
        }
      ],
      "stateMutability": "view",
      "type": "function"
    },
    {
      "inputs": [],
      "name": "FIELD_W",
      "outputs": [
        {
          "internalType": "uint256",
          "name": "",
          "type": "uint256"
        }
      ],
      "stateMutability": "view",
      "type": "function"
    },
    {
      "inputs": [],
      "name": "MAX_BALL_DISTANCE_REQUIRED",
      "outputs": [
        {
          "internalType": "uint256",
          "name": "",
          "type": "uint256"
        }
      ],
      "stateMutability": "view",
      "type": "function"
    },
    {
      "inputs": [],
      "name": "NUMBER_OF_PLAYERS_PER_TEAM",
      "outputs": [
        {
          "internalType": "uint256",
          "name": "",
          "type": "uint256"
        }
      ],
      "stateMutability": "view",
      "type": "function"
    },
    {
      "inputs": [],
      "name": "NUMBER_OF_TEAMS",
      "outputs": [
        {
          "internalType": "uint256",
          "name": "",
          "type": "uint256"
        }
      ],
      "stateMutability": "view",
      "type": "function"
    },
    {
      "inputs": [],
      "name": "PLAYER_STEPS_PER_MOVE",
      "outputs": [
        {
          "internalType": "uint256",
          "name": "",
          "type": "uint256"
        }
      ],
      "stateMutability": "view",
      "type": "function"
    },
    {
      "inputs": [],
      "name": "STAMINA_REQUIREMENT_FOR_ADVANCEMENT",
      "outputs": [
        {
          "internalType": "uint256",
          "name": "",
          "type": "uint256"
        }
      ],
      "stateMutability": "view",
      "type": "function"
    },
    {
      "inputs": [
        {
          "internalType": "uint256",
          "name": "matchId",
          "type": "uint256"
        }
      ],
      "name": "commitmentTick",
      "outputs": [],
      "stateMutability": "nonpayable",
      "type": "function"
    },
    {
      "inputs": [],
      "name": "constants",
      "outputs": [
        {
          "internalType": "contract Constants",
          "name": "",
          "type": "address"
        }
      ],
      "stateMutability": "view",
      "type": "function"
    },
    {
      "inputs": [
        {
          "internalType": "address",
          "name": "commitmentFunctionConsumer",
          "type": "address"
        },
        {
          "internalType": "address",
          "name": "revealFunctionConsumer",
          "type": "address"
        }
      ],
      "name": "createMatch",
      "outputs": [],
      "stateMutability": "nonpayable",
      "type": "function"
    },
    {
      "inputs": [
        {
          "internalType": "uint256",
          "name": "matchId",
          "type": "uint256"
        },
        {
          "internalType": "address",
          "name": "commitmentFunctionConsumer",
          "type": "address"
        },
        {
          "internalType": "address",
          "name": "revealFunctionConsumer",
          "type": "address"
        }
      ],
      "name": "joinMatch",
      "outputs": [],
      "stateMutability": "nonpayable",
      "type": "function"
    },
    {
      "inputs": [],
      "name": "logic",
      "outputs": [
        {
          "internalType": "address",
          "name": "",
          "type": "address"
        }
      ],
      "stateMutability": "view",
      "type": "function"
    },
    {
      "inputs": [],
      "name": "matchCounter",
      "outputs": [
        {
          "internalType": "uint256",
          "name": "",
          "type": "uint256"
        }
      ],
      "stateMutability": "view",
      "type": "function"
    },
    {
      "inputs": [
        {
          "internalType": "uint256",
          "name": "",
          "type": "uint256"
        }
      ],
      "name": "matchIdToMatchStateId",
      "outputs": [
        {
          "internalType": "uint256",
          "name": "",
          "type": "uint256"
        }
      ],
      "stateMutability": "view",
      "type": "function"
    },
    {
      "inputs": [
        {
          "internalType": "uint256",
          "name": "",
          "type": "uint256"
        }
      ],
      "name": "matchInfo",
      "outputs": [
        {
          "internalType": "uint256",
          "name": "seed",
          "type": "uint256"
        },
        {
          "internalType": "enum Types.MATCH_STAGE",
          "name": "stage",
          "type": "uint8"
        },
        {
          "internalType": "uint256",
          "name": "stateId",
          "type": "uint256"
        }
      ],
      "stateMutability": "view",
      "type": "function"
    },
    {
      "inputs": [
        {
          "internalType": "uint256",
          "name": "matchId",
          "type": "uint256"
        }
      ],
      "name": "revealTick",
      "outputs": [],
      "stateMutability": "nonpayable",
      "type": "function"
    },
    {
      "inputs": [
        {
          "internalType": "uint256",
          "name": "",
          "type": "uint256"
        }
      ],
      "name": "seedRequestIdMatchId",
      "outputs": [
        {
          "internalType": "uint256",
          "name": "",
          "type": "uint256"
        }
      ],
      "stateMutability": "view",
      "type": "function"
    },
    {
      "inputs": [
        {
          "internalType": "uint256",
          "name": "",
          "type": "uint256"
        },
        {
          "internalType": "uint256",
          "name": "",
          "type": "uint256"
        },
        {
          "internalType": "uint256",
          "name": "",
          "type": "uint256"
        }
      ],
      "name": "teamMove",
      "outputs": [
        {
          "internalType": "bytes",
          "name": "commitment",
          "type": "bytes"
        },
        {
          "internalType": "bytes",
          "name": "reveal",
          "type": "bytes"
        },
        {
          "internalType": "bool",
          "name": "wantToPass",
          "type": "bool"
        },
        {
          "internalType": "uint256",
          "name": "receivingPlayerId",
          "type": "uint256"
        },
        {
          "internalType": "bool",
          "name": "wantToShoot",
          "type": "bool"
        }
      ],
      "stateMutability": "view",
      "type": "function"
    },
    {
      "inputs": [],
      "name": "ticker",
      "outputs": [
        {
          "internalType": "address",
          "name": "",
          "type": "address"
        }
      ],
      "stateMutability": "view",
      "type": "function"
    },
    {
      "inputs": [
        {
          "internalType": "uint256",
          "name": "matchId",
          "type": "uint256"
        }
      ],
      "name": "updateCommitmentInfo",
      "outputs": [],
      "stateMutability": "nonpayable",
      "type": "function"
    },
    {
      "inputs": [
        {
          "internalType": "uint256",
          "name": "matchId",
          "type": "uint256"
        }
      ],
      "name": "updateRevealInfo",
      "outputs": [],
      "stateMutability": "nonpayable",
      "type": "function"
    }
  ],
  "bytecode": "0x60806040523480156200001157600080fd5b5060405162003de238038062003de2833981810160405281019062000037919062000162565b6040516200004590620000ea565b604051809103906000f08015801562000062573d6000803e3d6000fd5b506000806101000a81548173ffffffffffffffffffffffffffffffffffffffff021916908373ffffffffffffffffffffffffffffffffffffffff16021790555080600160006101000a81548173ffffffffffffffffffffffffffffffffffffffff021916908373ffffffffffffffffffffffffffffffffffffffff1602179055505062000194565b61028d8062003b5583390190565b600080fd5b600073ffffffffffffffffffffffffffffffffffffffff82169050919050565b60006200012a82620000fd565b9050919050565b6200013c816200011d565b81146200014857600080fd5b50565b6000815190506200015c8162000131565b92915050565b6000602082840312156200017b576200017a620000f8565b5b60006200018b848285016200014b565b91505092915050565b6139b180620001a46000396000f3fe608060405234801561001057600080fd5b50600436106101585760003560e01c8063705dd6cd116100c3578063ae5c13561161007c578063ae5c1356146103a9578063c8067b6f146103c7578063d79b490e146103e5578063d7dfa0dd14610417578063e3c8bfb914610435578063f97810331461045357610158565b8063705dd6cd146102e557806372de5b2f14610303578063734692a914610321578063755f10fd1461033f5780638ba47bdd1461036f57806390ede5d51461038d57610158565b806337c747791161011557806337c747791461022157806339febf0c1461025157806345baee551461026f57806349bbc37a1461028d5780634ffdf11e146102ab5780635cd6925a146102c957610158565b806301fd19511461015d578063124a96c81461017b5780631b7d40a5146101995780631e20530a146101cd57806327764f7d146101e957806335868ab714610205575b600080fd5b61016561046f565b60405161017291906127c5565b60405180910390f35b610183610475565b60405161019091906127c5565b60405180910390f35b6101b360048036038101906101ae9190612820565b61047b565b6040516101c495949392919061291e565b60405180910390f35b6101e760048036038101906101e291906129dd565b610605565b005b61020360048036038101906101fe9190612a1d565b610785565b005b61021f600480360381019061021a9190612a4a565b610b93565b005b61023b60048036038101906102369190612a1d565b610d7c565b60405161024891906127c5565b60405180910390f35b610259610d94565b60405161026691906127c5565b60405180910390f35b610277610d99565b60405161028491906127c5565b60405180910390f35b610295610d9e565b6040516102a291906127c5565b60405180910390f35b6102b3610da4565b6040516102c091906127c5565b60405180910390f35b6102e360048036038101906102de9190612a1d565b610da9565b005b6102ed6110c6565b6040516102fa91906127c5565b60405180910390f35b61030b6110cb565b6040516103189190612afc565b60405180910390f35b6103296110ef565b60405161033691906127c5565b60405180910390f35b61035960048036038101906103549190612a1d565b6110f4565b60405161036691906127c5565b60405180910390f35b61037761110c565b6040516103849190612b26565b60405180910390f35b6103a760048036038101906103a29190612a1d565b611132565b005b6103b1611540565b6040516103be91906127c5565b60405180910390f35b6103cf611545565b6040516103dc91906127c5565b60405180910390f35b6103ff60048036038101906103fa9190612a1d565b61154a565b60405161040e93929190612bb8565b60405180910390f35b61041f611581565b60405161042c9190612b26565b60405180910390f35b61043d6115a7565b60405161044a91906127c5565b60405180910390f35b61046d60048036038101906104689190612a1d565b6115ac565b005b60035481565b6101f481565b600960205282600052604060002060205281600052604060002081815481106104a357600080fd5b906000526020600020906007020160009250925050508060000180546104c890612c1e565b80601f01602080910402602001604051908101604052809291908181526020018280546104f490612c1e565b80156105415780601f1061051657610100808354040283529160200191610541565b820191906000526020600020905b81548152906001019060200180831161052457829003601f168201915b50505050509080600101805461055690612c1e565b80601f016020809104026020016040519081016040528092919081815260200182805461058290612c1e565b80156105cf5780601f106105a4576101008083540402835291602001916105cf565b820191906000526020600020905b8154815290600101906020018083116105b257829003601f168201915b5050505050908060040160009054906101000a900460ff16908060050154908060060160009054906101000a900460ff16905085565b60006003549050610617816000611801565b600060046000838152602001908152602001600020905060018160030160006101000a81548160ff0219169083600a81111561065657610655612b41565b5b0217905550838160010160008154811061067357610672612c4f565b5b9060005260206000200160006101000a81548173ffffffffffffffffffffffffffffffffffffffff021916908373ffffffffffffffffffffffffffffffffffffffff16021790555082816002016000815481106106d3576106d2612c4f565b5b9060005260206000200160006101000a81548173ffffffffffffffffffffffffffffffffffffffff021916908373ffffffffffffffffffffffffffffffffffffffff16021790555060016003600082825461072e9190612cad565b925050819055507f58d4562cf15d1052e816fd24f6af2c8a3a21416d6e4c01a9e11ef84ffe537e25828260030160009054906101000a900460ff16604051610777929190612ce1565b60405180910390a150505050565b60006004600083815260200190815260200160002090506007600a8111156107b0576107af612b41565b5b8160030160009054906101000a900460ff16600a8111156107d4576107d3612b41565b5b14610814576040517f08c379a000000000000000000000000000000000000000000000000000000000815260040161080b90612d8d565b60405180910390fd5b60005b60008054906101000a900473ffffffffffffffffffffffffffffffffffffffff1673ffffffffffffffffffffffffffffffffffffffff1663e3c8bfb96040518163ffffffff1660e01b8152600401602060405180830381865afa158015610882573d6000803e3d6000fd5b505050506040513d601f19601f820116820180604052508101906108a69190612dc2565b8110156109ac578160020181815481106108c3576108c2612c4f565b5b9060005260206000200160009054906101000a900473ffffffffffffffffffffffffffffffffffffffff1673ffffffffffffffffffffffffffffffffffffffff1663cce710636040518163ffffffff1660e01b8152600401602060405180830381865afa158015610938573d6000803e3d6000fd5b505050506040513d601f19601f8201168201806040525081019061095c9190612e1b565b61099b576040517f08c379a000000000000000000000000000000000000000000000000000000000815260040161099290612eba565b60405180910390fd5b806109a590612eda565b9050610817565b5060005b60008054906101000a900473ffffffffffffffffffffffffffffffffffffffff1673ffffffffffffffffffffffffffffffffffffffff1663e3c8bfb96040518163ffffffff1660e01b8152600401602060405180830381865afa158015610a1b573d6000803e3d6000fd5b505050506040513d601f19601f82011682018060405250810190610a3f9190612dc2565b811015610b1757610b068382846002018481548110610a6157610a60612c4f565b5b9060005260206000200160009054906101000a900473ffffffffffffffffffffffffffffffffffffffff1673ffffffffffffffffffffffffffffffffffffffff16632f703e086040518163ffffffff1660e01b81526004016000604051808303816000875af1158015610ad8573d6000803e3d6000fd5b505050506040513d6000823e3d601f19601f82011682018060405250810190610b019190613048565b611d4f565b80610b1090612eda565b90506109b0565b5060088160030160006101000a81548160ff0219169083600a811115610b4057610b3f612b41565b5b02179055507f58d4562cf15d1052e816fd24f6af2c8a3a21416d6e4c01a9e11ef84ffe537e25828260030160009054906101000a900460ff16604051610b87929190612ce1565b60405180910390a15050565b60006004600085815260200190815260200160002090506001600a811115610bbe57610bbd612b41565b5b8160030160009054906101000a900460ff16600a811115610be257610be1612b41565b5b14610c22576040517f08c379a0000000000000000000000000000000000000000000000000000000008152600401610c1990613103565b60405180910390fd5b8281600101600181548110610c3a57610c39612c4f565b5b9060005260206000200160006101000a81548173ffffffffffffffffffffffffffffffffffffffff021916908373ffffffffffffffffffffffffffffffffffffffff1602179055508181600201600181548110610c9a57610c99612c4f565b5b9060005260206000200160006101000a81548173ffffffffffffffffffffffffffffffffffffffff021916908373ffffffffffffffffffffffffffffffffffffffff16021790555060028160030160006101000a81548160ff0219169083600a811115610d0a57610d09612b41565b5b0217905550610d18846124be565b610d2c610515670adbf78816ee7165612577565b7f58d4562cf15d1052e816fd24f6af2c8a3a21416d6e4c01a9e11ef84ffe537e25848260030160009054906101000a900460ff16604051610d6e929190612ce1565b60405180910390a150505050565b60056020528060005260406000206000915090505481565b600581565b600781565b6103e881565b600681565b6000600460008381526020019081526020016000209050610dfe6040518060400160405280601781526020017f636f6d6d69746d656e745469636b202d2063616c6c6564000000000000000000815250612677565b6004600a811115610e1257610e11612b41565b5b8160030160009054906101000a900460ff16600a811115610e3657610e35612b41565b5b1480610e7757506009600a811115610e5157610e50612b41565b5b8160030160009054906101000a900460ff16600a811115610e7557610e74612b41565b5b145b610eb6576040517f08c379a0000000000000000000000000000000000000000000000000000000008152600401610ead90613195565b60405180910390fd5b610edf8260016006600086815260200190815260200160002054610eda9190612cad565b611801565b610f0060405180606001604052806029815260200161395360299139612677565b60005b60008054906101000a900473ffffffffffffffffffffffffffffffffffffffff1673ffffffffffffffffffffffffffffffffffffffff1663e3c8bfb96040518163ffffffff1660e01b8152600401602060405180830381865afa158015610f6e573d6000803e3d6000fd5b505050506040513d601f19601f82011682018060405250810190610f929190612dc2565b81101561104a57816001018181548110610faf57610fae612c4f565b5b9060005260206000200160009054906101000a900473ffffffffffffffffffffffffffffffffffffffff1673ffffffffffffffffffffffffffffffffffffffff1663606deecd6040518163ffffffff1660e01b8152600401600060405180830381600087803b15801561102157600080fd5b505af1158015611035573d6000803e3d6000fd5b505050508061104390612eda565b9050610f03565b5060058160030160006101000a81548160ff0219169083600a81111561107357611072612b41565b5b02179055507f58d4562cf15d1052e816fd24f6af2c8a3a21416d6e4c01a9e11ef84ffe537e25828260030160009054906101000a900460ff166040516110ba929190612ce1565b60405180910390a15050565b600a81565b60008054906101000a900473ffffffffffffffffffffffffffffffffffffffff1681565b600781565b60066020528060005260406000206000915090505481565b600260009054906101000a900473ffffffffffffffffffffffffffffffffffffffff1681565b60006004600083815260200190815260200160002090506005600a81111561115d5761115c612b41565b5b8160030160009054906101000a900460ff16600a81111561118157611180612b41565b5b146111c1576040517f08c379a00000000000000000000000000000000000000000000000000000000081526004016111b890613227565b60405180910390fd5b60005b60008054906101000a900473ffffffffffffffffffffffffffffffffffffffff1673ffffffffffffffffffffffffffffffffffffffff1663e3c8bfb96040518163ffffffff1660e01b8152600401602060405180830381865afa15801561122f573d6000803e3d6000fd5b505050506040513d601f19601f820116820180604052508101906112539190612dc2565b811015611359578160010181815481106112705761126f612c4f565b5b9060005260206000200160009054906101000a900473ffffffffffffffffffffffffffffffffffffffff1673ffffffffffffffffffffffffffffffffffffffff1663cce710636040518163ffffffff1660e01b8152600401602060405180830381865afa1580156112e5573d6000803e3d6000fd5b505050506040513d601f19601f820116820180604052508101906113099190612e1b565b611348576040517f08c379a000000000000000000000000000000000000000000000000000000000815260040161133f90612eba565b60405180910390fd5b8061135290612eda565b90506111c4565b5060005b60008054906101000a900473ffffffffffffffffffffffffffffffffffffffff1673ffffffffffffffffffffffffffffffffffffffff1663e3c8bfb96040518163ffffffff1660e01b8152600401602060405180830381865afa1580156113c8573d6000803e3d6000fd5b505050506040513d601f19601f820116820180604052508101906113ec9190612dc2565b8110156114c4576114b3838284600101848154811061140e5761140d612c4f565b5b9060005260206000200160009054906101000a900473ffffffffffffffffffffffffffffffffffffffff1673ffffffffffffffffffffffffffffffffffffffff16632f703e086040518163ffffffff1660e01b81526004016000604051808303816000875af1158015611485573d6000803e3d6000fd5b505050506040513d6000823e3d601f19601f820116820180604052508101906114ae9190613048565b612710565b806114bd90612eda565b905061135d565b5060068160030160006101000a81548160ff0219169083600a8111156114ed576114ec612b41565b5b02179055507f58d4562cf15d1052e816fd24f6af2c8a3a21416d6e4c01a9e11ef84ffe537e25828260030160009054906101000a900460ff16604051611534929190612ce1565b60405180910390a15050565b600a81565b600581565b60046020528060005260406000206000915090508060000154908060030160009054906101000a900460ff16908060040154905083565b600160009054906101000a900473ffffffffffffffffffffffffffffffffffffffff1681565b600281565b60006004600083815260200190815260200160002090506006600a8111156115d7576115d6612b41565b5b8160030160009054906101000a900460ff16600a8111156115fb576115fa612b41565b5b1461163b576040517f08c379a0000000000000000000000000000000000000000000000000000000008152600401611632906132b9565b60405180910390fd5b60005b60008054906101000a900473ffffffffffffffffffffffffffffffffffffffff1673ffffffffffffffffffffffffffffffffffffffff1663e3c8bfb96040518163ffffffff1660e01b8152600401602060405180830381865afa1580156116a9573d6000803e3d6000fd5b505050506040513d601f19601f820116820180604052508101906116cd9190612dc2565b811015611785578160020181815481106116ea576116e9612c4f565b5b9060005260206000200160009054906101000a900473ffffffffffffffffffffffffffffffffffffffff1673ffffffffffffffffffffffffffffffffffffffff1663606deecd6040518163ffffffff1660e01b8152600401600060405180830381600087803b15801561175c57600080fd5b505af1158015611770573d6000803e3d6000fd5b505050508061177e90612eda565b905061163e565b5060078160030160006101000a81548160ff0219169083600a8111156117ae576117ad612b41565b5b02179055507f58d4562cf15d1052e816fd24f6af2c8a3a21416d6e4c01a9e11ef84ffe537e25828260030160009054906101000a900460ff166040516117f5929190612ce1565b60405180910390a15050565b6000810361192d5760005b60008054906101000a900473ffffffffffffffffffffffffffffffffffffffff1673ffffffffffffffffffffffffffffffffffffffff1663e3c8bfb96040518163ffffffff1660e01b8152600401602060405180830381865afa158015611877573d6000803e3d6000fd5b505050506040513d601f19601f8201168201806040525081019061189b9190612dc2565b81101561192b5760046000848152602001908152602001600020600101600181600181540180825580915050039060005260206000200160009054906101000a90505060046000848152602001908152602001600020600201600181600181540180825580915050039060005260206000200160009054906101000a9050508061192490612eda565b905061180c565b505b60006007600084815260200190815260200160002060008381526020019081526020016000209050600060086000858152602001908152602001600020600084815260200190815260200160002090506000600960008681526020019081526020016000206000858152602001908152602001600020905060005b60008054906101000a900473ffffffffffffffffffffffffffffffffffffffff1673ffffffffffffffffffffffffffffffffffffffff1663e3c8bfb96040518163ffffffff1660e01b8152600401602060405180830381865afa158015611a13573d6000803e3d6000fd5b505050506040513d601f19601f82011682018060405250810190611a379190612dc2565b811015611d47578360000160009080600181540180825580915050600190039060005260206000200160009091909190915055826001816001815401808255809150500390600052602060002090505060005b60008054906101000a900473ffffffffffffffffffffffffffffffffffffffff1673ffffffffffffffffffffffffffffffffffffffff1663ae5c13566040518163ffffffff1660e01b8152600401602060405180830381865afa158015611af5573d6000803e3d6000fd5b505050506040513d601f19601f82011682018060405250810190611b199190612dc2565b811015611bef57838281548110611b3357611b32612c4f565b5b906000526020600020906003020160000160018160018154018082558091505003906000526020600020905050838281548110611b7357611b72612c4f565b5b9060005260206000209060030201600101600181600181540180825580915050039060005260206000205050838281548110611bb257611bb1612c4f565b5b906000526020600020906003020160020160018160018154018082558091505003906000526020600020505080611be890612eda565b9050611a8a565b50816001816001815401808255809150500390600052602060002090505060005b60008054906101000a900473ffffffffffffffffffffffffffffffffffffffff1673ffffffffffffffffffffffffffffffffffffffff1663ae5c13566040518163ffffffff1660e01b8152600401602060405180830381865afa158015611c7b573d6000803e3d6000fd5b505050506040513d601f19601f82011682018060405250810190611c9f9190612dc2565b811015611d3557828281548110611cb957611cb8612c4f565b5b9060005260206000209060070201600201600181600181540180825580915050039060005260206000205050828281548110611cf857611cf7612c4f565b5b906000526020600020906007020160030160018160018154018082558091505003906000526020600020505080611d2e90612eda565b9050611c10565b5080611d4090612eda565b90506119a8565b505050505050565b6000600960008581526020019081526020016000206000600660008781526020019081526020016000205481526020019081526020016000208381548110611d9a57611d99612c4f565b5b9060005260206000209060070201905060008280519060200120604051602001611dc491906132f2565b604051602081830303815290604052905081600001604051611de691906133b0565b6040518091039020818051906020012014611e36576040517f08c379a0000000000000000000000000000000000000000000000000000000008152600401611e2d90613439565b60405180910390fd5b82826001019081611e4791906135e6565b5060008084806020019051810190611e5f91906136b8565b9150915060008060009054906101000a900473ffffffffffffffffffffffffffffffffffffffff1673ffffffffffffffffffffffffffffffffffffffff166345baee556040518163ffffffff1660e01b8152600401602060405180830381865afa158015611ed1573d6000803e3d6000fd5b505050506040513d601f19601f82011682018060405250810190611ef59190612dc2565b60008054906101000a900473ffffffffffffffffffffffffffffffffffffffff1673ffffffffffffffffffffffffffffffffffffffff16634ffdf11e6040518163ffffffff1660e01b8152600401602060405180830381865afa158015611f60573d6000803e3d6000fd5b505050506040513d601f19601f82011682018060405250810190611f849190612dc2565b611f8e9190612cad565b905060005b60008054906101000a900473ffffffffffffffffffffffffffffffffffffffff1673ffffffffffffffffffffffffffffffffffffffff1663ae5c13566040518163ffffffff1660e01b8152600401602060405180830381865afa158015611ffe573d6000803e3d6000fd5b505050506040513d601f19601f820116820180604052508101906120229190612dc2565b811015612279576000828261203791906136f8565b84901c9050600160008054906101000a900473ffffffffffffffffffffffffffffffffffffffff1673ffffffffffffffffffffffffffffffffffffffff16634ffdf11e6040518163ffffffff1660e01b8152600401602060405180830381865afa1580156120a9573d6000803e3d6000fd5b505050506040513d601f19601f820116820180604052508101906120cd9190612dc2565b60026120d9919061386d565b6120e391906138b8565b60008054906101000a900473ffffffffffffffffffffffffffffffffffffffff1673ffffffffffffffffffffffffffffffffffffffff166345baee556040518163ffffffff1660e01b8152600401602060405180830381865afa15801561214e573d6000803e3d6000fd5b505050506040513d601f19601f820116820180604052508101906121729190612dc2565b82901c1687600201838154811061218c5761218b612c4f565b5b9060005260206000200181905550600160008054906101000a900473ffffffffffffffffffffffffffffffffffffffff1673ffffffffffffffffffffffffffffffffffffffff166345baee556040518163ffffffff1660e01b8152600401602060405180830381865afa158015612207573d6000803e3d6000fd5b505050506040513d601f19601f8201168201806040525081019061222b9190612dc2565b6002612237919061386d565b61224191906138b8565b811687600301838154811061225957612258612c4f565b5b9060005260206000200181905550508061227290612eda565b9050611f93565b5060018060008054906101000a900473ffffffffffffffffffffffffffffffffffffffff1673ffffffffffffffffffffffffffffffffffffffff1663ae5c13566040518163ffffffff1660e01b8152600401602060405180830381865afa1580156122e8573d6000803e3d6000fd5b505050506040513d601f19601f8201168201806040525081019061230c9190612dc2565b8361231791906136f8565b84901c16148560060160006101000a81548160ff021916908315150217905550600180600160008054906101000a900473ffffffffffffffffffffffffffffffffffffffff1673ffffffffffffffffffffffffffffffffffffffff1663ae5c13566040518163ffffffff1660e01b8152600401602060405180830381865afa1580156123a7573d6000803e3d6000fd5b505050506040513d601f19601f820116820180604052508101906123cb9190612dc2565b846123d691906136f8565b6123e09190612cad565b84901c16148560040160006101000a81548160ff021916908315150217905550600f600260008054906101000a900473ffffffffffffffffffffffffffffffffffffffff1673ffffffffffffffffffffffffffffffffffffffff1663ae5c13566040518163ffffffff1660e01b8152600401602060405180830381865afa15801561246f573d6000803e3d6000fd5b505050506040513d601f19601f820116820180604052508101906124939190612dc2565b8361249e91906136f8565b6124a89190612cad565b83901c1685600501819055505050505050505050565b600060046000838152602001908152602001600020905081600560006105158152602001908152602001600020819055506003600a81111561250357612502612b41565b5b8160030160009054906101000a900460ff16600a81111561252757612526612b41565b5b50507f58d4562cf15d1052e816fd24f6af2c8a3a21416d6e4c01a9e11ef84ffe537e25828260030160009054906101000a900460ff1660405161256b929190612ce1565b60405180910390a15050565b60006004600060056000868152602001908152602001600020548152602001908152602001600020905081816000018190555060048160030160006101000a81548160ff0219169083600a8111156125d2576125d1612b41565b5b02179055506126156040518060400160405280601b81526020017f66756c6c66696c5365656452657175657374202d2063616c6c65640000000000815250612677565b7f58d4562cf15d1052e816fd24f6af2c8a3a21416d6e4c01a9e11ef84ffe537e2560056000858152602001908152602001600020548260030160009054906101000a900460ff1660405161266a929190612ce1565b60405180910390a1505050565b61270d8160405160240161268b9190613930565b6040516020818303038152906040527f41304fac000000000000000000000000000000000000000000000000000000007bffffffffffffffffffffffffffffffffffffffffffffffffffffffff19166020820180517bffffffffffffffffffffffffffffffffffffffffffffffffffffffff8381831617835250505050612783565b50565b600060096000858152602001908152602001600020600060066000878152602001908152602001600020548152602001908152602001600020838154811061275b5761275a612c4f565b5b906000526020600020906007020190508181600001908161277c91906135e6565b5050505050565b60008151905060006a636f6e736f6c652e6c6f679050602083016000808483855afa5050505050565b6000819050919050565b6127bf816127ac565b82525050565b60006020820190506127da60008301846127b6565b92915050565b6000604051905090565b600080fd5b600080fd5b6127fd816127ac565b811461280857600080fd5b50565b60008135905061281a816127f4565b92915050565b600080600060608486031215612839576128386127ea565b5b60006128478682870161280b565b93505060206128588682870161280b565b92505060406128698682870161280b565b9150509250925092565b600081519050919050565b600082825260208201905092915050565b60005b838110156128ad578082015181840152602081019050612892565b60008484015250505050565b6000601f19601f8301169050919050565b60006128d582612873565b6128df818561287e565b93506128ef81856020860161288f565b6128f8816128b9565b840191505092915050565b60008115159050919050565b61291881612903565b82525050565b600060a082019050818103600083015261293881886128ca565b9050818103602083015261294c81876128ca565b905061295b604083018661290f565b61296860608301856127b6565b612975608083018461290f565b9695505050505050565b600073ffffffffffffffffffffffffffffffffffffffff82169050919050565b60006129aa8261297f565b9050919050565b6129ba8161299f565b81146129c557600080fd5b50565b6000813590506129d7816129b1565b92915050565b600080604083850312156129f4576129f36127ea565b5b6000612a02858286016129c8565b9250506020612a13858286016129c8565b9150509250929050565b600060208284031215612a3357612a326127ea565b5b6000612a418482850161280b565b91505092915050565b600080600060608486031215612a6357612a626127ea565b5b6000612a718682870161280b565b9350506020612a82868287016129c8565b9250506040612a93868287016129c8565b9150509250925092565b6000819050919050565b6000612ac2612abd612ab88461297f565b612a9d565b61297f565b9050919050565b6000612ad482612aa7565b9050919050565b6000612ae682612ac9565b9050919050565b612af681612adb565b82525050565b6000602082019050612b116000830184612aed565b92915050565b612b208161299f565b82525050565b6000602082019050612b3b6000830184612b17565b92915050565b7f4e487b7100000000000000000000000000000000000000000000000000000000600052602160045260246000fd5b600b8110612b8157612b80612b41565b5b50565b6000819050612b9282612b70565b919050565b6000612ba282612b84565b9050919050565b612bb281612b97565b82525050565b6000606082019050612bcd60008301866127b6565b612bda6020830185612ba9565b612be760408301846127b6565b949350505050565b7f4e487b7100000000000000000000000000000000000000000000000000000000600052602260045260246000fd5b60006002820490506001821680612c3657607f821691505b602082108103612c4957612c48612bef565b5b50919050565b7f4e487b7100000000000000000000000000000000000000000000000000000000600052603260045260246000fd5b7f4e487b7100000000000000000000000000000000000000000000000000000000600052601160045260246000fd5b6000612cb8826127ac565b9150612cc3836127ac565b9250828201905080821115612cdb57612cda612c7e565b5b92915050565b6000604082019050612cf660008301856127b6565b612d036020830184612ba9565b9392505050565b600082825260208201905092915050565b7f4552523a204d61746368206e6f7420696e20636f72726563742073746167652060008201527f746f20726563656976652052657665616c732100000000000000000000000000602082015250565b6000612d77603383612d0a565b9150612d8282612d1b565b604082019050919050565b60006020820190508181036000830152612da681612d6a565b9050919050565b600081519050612dbc816127f4565b92915050565b600060208284031215612dd857612dd76127ea565b5b6000612de684828501612dad565b91505092915050565b612df881612903565b8114612e0357600080fd5b50565b600081519050612e1581612def565b92915050565b600060208284031215612e3157612e306127ea565b5b6000612e3f84828501612e06565b91505092915050565b7f4552523a204e6f7420616c6c207465616d73206861766520697373756564206360008201527f6f6d6d69746d656e747321000000000000000000000000000000000000000000602082015250565b6000612ea4602b83612d0a565b9150612eaf82612e48565b604082019050919050565b60006020820190508181036000830152612ed381612e97565b9050919050565b6000612ee5826127ac565b91507fffffffffffffffffffffffffffffffffffffffffffffffffffffffffffffffff8203612f1757612f16612c7e565b5b600182019050919050565b600080fd5b600080fd5b7f4e487b7100000000000000000000000000000000000000000000000000000000600052604160045260246000fd5b612f64826128b9565b810181811067ffffffffffffffff82111715612f8357612f82612f2c565b5b80604052505050565b6000612f966127e0565b9050612fa28282612f5b565b919050565b600067ffffffffffffffff821115612fc257612fc1612f2c565b5b612fcb826128b9565b9050602081019050919050565b6000612feb612fe684612fa7565b612f8c565b90508281526020810184848401111561300757613006612f27565b5b61301284828561288f565b509392505050565b600082601f83011261302f5761302e612f22565b5b815161303f848260208601612fd8565b91505092915050565b60006020828403121561305e5761305d6127ea565b5b600082015167ffffffffffffffff81111561307c5761307b6127ef565b5b6130888482850161301a565b91505092915050565b7f4552523a20596f752063616e206f6e6c79206a6f696e2061206e65776c79206360008201527f726561746564206d617463682100000000000000000000000000000000000000602082015250565b60006130ed602d83612d0a565b91506130f882613091565b604082019050919050565b6000602082019050818103600083015261311c816130e0565b9050919050565b7f4552523a204d61746368206e6f7420696e20636f72726563742073746167652060008201527f746f20666574636820436f6d6d69746d656e7473210000000000000000000000602082015250565b600061317f603583612d0a565b915061318a82613123565b604082019050919050565b600060208201905081810360008301526131ae81613172565b9050919050565b7f4552523a204d61746368206e6f7420696e20636f72726563742073746167652060008201527f746f207265636569766520436f6d6d69746d656e747321000000000000000000602082015250565b6000613211603783612d0a565b915061321c826131b5565b604082019050919050565b6000602082019050818103600083015261324081613204565b9050919050565b7f4552523a204d61746368206e6f7420696e20636f72726563742073746167652060008201527f746f206665746368205265617665616c73210000000000000000000000000000602082015250565b60006132a3603283612d0a565b91506132ae82613247565b604082019050919050565b600060208201905081810360008301526132d281613296565b9050919050565b6000819050919050565b6132ec816132d9565b82525050565b600060208201905061330760008301846132e3565b92915050565b600081905092915050565b60008190508160005260206000209050919050565b6000815461333a81612c1e565b613344818661330d565b9450600182166000811461335f5760018114613374576133a7565b60ff19831686528115158202860193506133a7565b61337d85613318565b60005b8381101561339f57815481890152600182019150602081019050613380565b838801955050505b50505092915050565b60006133bc828461332d565b915081905092915050565b7f4552523a2052657665616c20646f65736e277420636f72726573706f6e64207460008201527f6f2074686520436f6d6d69746d656e7400000000000000000000000000000000602082015250565b6000613423603083612d0a565b915061342e826133c7565b604082019050919050565b6000602082019050818103600083015261345281613416565b9050919050565b60006020601f8301049050919050565b600082821b905092915050565b6000600883026134a67fffffffffffffffffffffffffffffffffffffffffffffffffffffffffffffffff82613469565b6134b08683613469565b95508019841693508086168417925050509392505050565b60006134e36134de6134d9846127ac565b612a9d565b6127ac565b9050919050565b6000819050919050565b6134fd836134c8565b613511613509826134ea565b848454613476565b825550505050565b600090565b613526613519565b6135318184846134f4565b505050565b5b818110156135555761354a60008261351e565b600181019050613537565b5050565b601f82111561359a5761356b81613318565b61357484613459565b81016020851015613583578190505b61359761358f85613459565b830182613536565b50505b505050565b600082821c905092915050565b60006135bd6000198460080261359f565b1980831691505092915050565b60006135d683836135ac565b9150826002028217905092915050565b6135ef82612873565b67ffffffffffffffff81111561360857613607612f2c565b5b6136128254612c1e565b61361d828285613559565b600060209050601f831160018114613650576000841561363e578287015190505b61364885826135ca565b8655506136b0565b601f19841661365e86613318565b60005b8281101561368657848901518255600182019150602085019450602081019050613661565b868310156136a3578489015161369f601f8916826135ac565b8355505b6001600288020188555050505b505050505050565b600080604083850312156136cf576136ce6127ea565b5b60006136dd85828601612dad565b92505060206136ee85828601612dad565b9150509250929050565b6000613703826127ac565b915061370e836127ac565b925082820261371c816127ac565b9150828204841483151761373357613732612c7e565b5b5092915050565b60008160011c9050919050565b6000808291508390505b60018511156137915780860481111561376d5761376c612c7e565b5b600185161561377c5780820291505b808102905061378a8561373a565b9450613751565b94509492505050565b6000826137aa5760019050613866565b816137b85760009050613866565b81600181146137ce57600281146137d857613807565b6001915050613866565b60ff8411156137ea576137e9612c7e565b5b8360020a91508482111561380157613800612c7e565b5b50613866565b5060208310610133831016604e8410600b841016171561383c5782820a90508381111561383757613836612c7e565b5b613866565b6138498484846001613747565b925090508184048111156138605761385f612c7e565b5b81810290505b9392505050565b6000613878826127ac565b9150613883836127ac565b92506138b07fffffffffffffffffffffffffffffffffffffffffffffffffffffffffffffffff848461379a565b905092915050565b60006138c3826127ac565b91506138ce836127ac565b92508282039050818111156138e6576138e5612c7e565b5b92915050565b600081519050919050565b6000613902826138ec565b61390c8185612d0a565b935061391c81856020860161288f565b613925816128b9565b840191505092915050565b6000602082019050818103600083015261394a81846138f7565b90509291505056fe636f6d6d69746d656e745469636b43616c6c6564202d2070617373656420726571756972656d656e74a264697066735822122003a1ba659b25402a4354284623bfa9ccc9b92645d9ddb3d9f15afa9fdb5d17a464736f6c63430008120033608060405234801561001057600080fd5b5061026d806100206000396000f3fe608060405234801561001057600080fd5b506004361061009e5760003560e01c8063705dd6cd11610066578063705dd6cd14610139578063734692a914610157578063ae5c135614610175578063c8067b6f14610193578063e3c8bfb9146101b15761009e565b8063124a96c8146100a357806339febf0c146100c157806345baee55146100df57806349bbc37a146100fd5780634ffdf11e1461011b575b600080fd5b6100ab6101cf565b6040516100b8919061021c565b60405180910390f35b6100c96101d5565b6040516100d6919061021c565b60405180910390f35b6100e76101da565b6040516100f4919061021c565b60405180910390f35b6101056101df565b604051610112919061021c565b60405180910390f35b6101236101e5565b604051610130919061021c565b60405180910390f35b6101416101ea565b60405161014e919061021c565b60405180910390f35b61015f6101ef565b60405161016c919061021c565b60405180910390f35b61017d6101f4565b60405161018a919061021c565b60405180910390f35b61019b6101f9565b6040516101a8919061021c565b60405180910390f35b6101b96101fe565b6040516101c6919061021c565b60405180910390f35b6101f481565b600581565b600781565b6103e881565b600681565b600a81565b600781565b600a81565b600581565b600281565b6000819050919050565b61021681610203565b82525050565b6000602082019050610231600083018461020d565b9291505056fea264697066735822122001d9d86b524b072c82851d2da1af568601b991b53f790e36a726e5478a595e9964736f6c63430008120033",
  "linkReferences": {},
  "deployedLinkReferences": {}
}