{
  "_format": "hh-sol-artifact-1",
  "contractName": "GameLogic",
  "sourceName": "contracts/GameLogic.sol",
  "abi": [
    {
      "inputs": [],
      "stateMutability": "nonpayable",
      "type": "constructor"
    },
    {
      "anonymous": false,
      "inputs": [
        {
          "indexed": false,
          "internalType": "uint256",
          "name": "matchId",
          "type": "uint256"
        },
        {
          "indexed": false,
          "internalType": "enum Types.MATCH_STAGE",
          "name": "stage",
          "type": "uint8"
        }
      ],
      "name": "MatchEnteredStage",
      "type": "event"
    },
    {
      "inputs": [],
      "name": "BALL_STEPS_PER_MOVE",
      "outputs": [
        {
          "internalType": "uint256",
          "name": "",
          "type": "uint256"
        }
      ],
      "stateMutability": "view",
      "type": "function"
    },
    {
      "inputs": [],
      "name": "BITS_PER_PLAYER_X_POS",
      "outputs": [
        {
          "internalType": "uint256",
          "name": "",
          "type": "uint256"
        }
      ],
      "stateMutability": "view",
      "type": "function"
    },
    {
      "inputs": [],
      "name": "BITS_PER_PLAYER_Y_POS",
      "outputs": [
        {
          "internalType": "uint256",
          "name": "",
          "type": "uint256"
        }
      ],
      "stateMutability": "view",
      "type": "function"
    },
    {
      "inputs": [],
      "name": "FIELD_H",
      "outputs": [
        {
          "internalType": "uint256",
          "name": "",
          "type": "uint256"
        }
      ],
      "stateMutability": "view",
      "type": "function"
    },
    {
      "inputs": [],
      "name": "FIELD_W",
      "outputs": [
        {
          "internalType": "uint256",
          "name": "",
          "type": "uint256"
        }
      ],
      "stateMutability": "view",
      "type": "function"
    },
    {
      "inputs": [],
      "name": "MAX_BALL_DISTANCE_REQUIRED",
      "outputs": [
        {
          "internalType": "uint256",
          "name": "",
          "type": "uint256"
        }
      ],
      "stateMutability": "view",
      "type": "function"
    },
    {
      "inputs": [],
      "name": "NUMBER_OF_PLAYERS_PER_TEAM",
      "outputs": [
        {
          "internalType": "uint256",
          "name": "",
          "type": "uint256"
        }
      ],
      "stateMutability": "view",
      "type": "function"
    },
    {
      "inputs": [],
      "name": "NUMBER_OF_TEAMS",
      "outputs": [
        {
          "internalType": "uint256",
          "name": "",
          "type": "uint256"
        }
      ],
      "stateMutability": "view",
      "type": "function"
    },
    {
      "inputs": [],
      "name": "PLAYER_STEPS_PER_MOVE",
      "outputs": [
        {
          "internalType": "uint256",
          "name": "",
          "type": "uint256"
        }
      ],
      "stateMutability": "view",
      "type": "function"
    },
    {
      "inputs": [],
      "name": "SHOOT_STEPS",
      "outputs": [
        {
          "internalType": "uint256",
          "name": "",
          "type": "uint256"
        }
      ],
      "stateMutability": "view",
      "type": "function"
    },
    {
      "inputs": [],
      "name": "STAMINA_LOSS_PER_STEP",
      "outputs": [
        {
          "internalType": "uint256",
          "name": "",
          "type": "uint256"
        }
      ],
      "stateMutability": "view",
      "type": "function"
    },
    {
      "inputs": [],
      "name": "STAMINA_REQUIREMENT_FOR_ADVANCEMENT",
      "outputs": [
        {
          "internalType": "uint256",
          "name": "",
          "type": "uint256"
        }
      ],
      "stateMutability": "view",
      "type": "function"
    },
    {
      "inputs": [
        {
          "internalType": "uint256",
          "name": "matchId",
          "type": "uint256"
        }
      ],
      "name": "commitmentTick",
      "outputs": [],
      "stateMutability": "nonpayable",
      "type": "function"
    },
    {
      "inputs": [
        {
          "internalType": "address",
          "name": "team1_commitmentChainlinkFunctionConsumer",
          "type": "address"
        },
        {
          "internalType": "address",
          "name": "team1_revealChainlinkFunctionConsumer",
          "type": "address"
        }
      ],
      "name": "createMatch",
      "outputs": [],
      "stateMutability": "nonpayable",
      "type": "function"
    },
    {
      "inputs": [
        {
          "internalType": "uint256",
          "name": "matchId",
          "type": "uint256"
        },
        {
          "internalType": "uint256",
          "name": "stateId",
          "type": "uint256"
        },
        {
          "internalType": "uint256",
          "name": "teamId",
          "type": "uint256"
        },
        {
          "internalType": "uint256",
          "name": "playerId",
          "type": "uint256"
        }
      ],
      "name": "getPlayerPos",
      "outputs": [
        {
          "internalType": "uint256",
          "name": "x",
          "type": "uint256"
        },
        {
          "internalType": "uint256",
          "name": "y",
          "type": "uint256"
        }
      ],
      "stateMutability": "view",
      "type": "function"
    },
    {
      "inputs": [
        {
          "internalType": "uint256",
          "name": "matchId",
          "type": "uint256"
        },
        {
          "internalType": "uint256",
          "name": "stateId",
          "type": "uint256"
        }
      ],
      "name": "getProgression",
      "outputs": [
        {
          "components": [
            {
              "internalType": "uint256",
              "name": "startingTeamIdWithTheBall",
              "type": "uint256"
            },
            {
              "internalType": "uint256",
              "name": "startingPlayerIdWithTheBall",
              "type": "uint256"
            },
            {
              "internalType": "uint256",
              "name": "teamIdWithTheBall",
              "type": "uint256"
            },
            {
              "internalType": "uint256",
              "name": "playerIdWithTheBall",
              "type": "uint256"
            },
            {
              "internalType": "bool",
              "name": "ballWasWon",
              "type": "bool"
            },
            {
              "internalType": "uint256",
              "name": "ballWasWonByTeam",
              "type": "uint256"
            },
            {
              "internalType": "bool",
              "name": "interceptionOccured",
              "type": "bool"
            },
            {
              "internalType": "uint256",
              "name": "interceptionAchievedByTeam",
              "type": "uint256"
            },
            {
              "internalType": "uint256",
              "name": "ballXPos",
              "type": "uint256"
            },
            {
              "internalType": "uint256",
              "name": "ballYPos",
              "type": "uint256"
            },
            {
              "internalType": "bool",
              "name": "shotWasTaken",
              "type": "bool"
            },
            {
              "internalType": "uint256",
              "name": "teamIdOfTheGoalWhereTheShootWasTaken",
              "type": "uint256"
            },
            {
              "internalType": "bool",
              "name": "goalWasScored",
              "type": "bool"
            },
            {
              "internalType": "uint256",
              "name": "goalWasScoredByTeam",
              "type": "uint256"
            },
            {
              "components": [
                {
                  "components": [
                    {
                      "internalType": "uint256",
                      "name": "speed",
                      "type": "uint256"
                    },
                    {
                      "internalType": "uint256",
                      "name": "skill",
                      "type": "uint256"
                    },
                    {
                      "internalType": "uint256",
                      "name": "stamina",
                      "type": "uint256"
                    }
                  ],
                  "internalType": "struct Types.PlayerStats[]",
                  "name": "playerStats",
                  "type": "tuple[]"
                },
                {
                  "components": [
                    {
                      "internalType": "uint256",
                      "name": "speed",
                      "type": "uint256"
                    },
                    {
                      "internalType": "uint256",
                      "name": "skill",
                      "type": "uint256"
                    },
                    {
                      "internalType": "uint256",
                      "name": "stamina",
                      "type": "uint256"
                    }
                  ],
                  "internalType": "struct Types.PlayerStats",
                  "name": "goalKeeperStats",
                  "type": "tuple"
                },
                {
                  "internalType": "uint256[]",
                  "name": "xPos",
                  "type": "uint256[]"
                },
                {
                  "internalType": "uint256[]",
                  "name": "yPos",
                  "type": "uint256[]"
                }
              ],
              "internalType": "struct Types.TeamState[]",
              "name": "teamState",
              "type": "tuple[]"
            }
          ],
          "internalType": "struct Types.ProgressionState[]",
          "name": "progression",
          "type": "tuple[]"
        }
      ],
      "stateMutability": "view",
      "type": "function"
    },
    {
      "inputs": [
        {
          "internalType": "uint256",
          "name": "matchId",
          "type": "uint256"
        },
        {
          "internalType": "address",
          "name": "team2_commitmentChainlinkFunctionConsumer",
          "type": "address"
        },
        {
          "internalType": "address",
          "name": "team2_revealChainlinkFunctionConsumer",
          "type": "address"
        }
      ],
      "name": "joinMatch",
      "outputs": [],
      "stateMutability": "nonpayable",
      "type": "function"
    },
    {
      "inputs": [],
      "name": "logic",
      "outputs": [
        {
          "internalType": "address",
          "name": "",
          "type": "address"
        }
      ],
      "stateMutability": "view",
      "type": "function"
    },
    {
      "inputs": [],
      "name": "manager",
      "outputs": [
        {
          "internalType": "address",
          "name": "",
          "type": "address"
        }
      ],
      "stateMutability": "view",
      "type": "function"
    },
    {
      "inputs": [],
      "name": "matchCounter",
      "outputs": [
        {
          "internalType": "uint256",
          "name": "",
          "type": "uint256"
        }
      ],
      "stateMutability": "view",
      "type": "function"
    },
    {
      "inputs": [
        {
          "internalType": "uint256",
          "name": "",
          "type": "uint256"
        }
      ],
      "name": "matchIdToMatchStateId",
      "outputs": [
        {
          "internalType": "uint256",
          "name": "",
          "type": "uint256"
        }
      ],
      "stateMutability": "view",
      "type": "function"
    },
    {
      "inputs": [
        {
          "internalType": "uint256",
          "name": "",
          "type": "uint256"
        }
      ],
      "name": "matchInfo",
      "outputs": [
        {
          "internalType": "uint256",
          "name": "seed",
          "type": "uint256"
        },
        {
          "internalType": "enum Types.MATCH_STAGE",
          "name": "stage",
          "type": "uint8"
        },
        {
          "internalType": "uint256",
          "name": "stateId",
          "type": "uint256"
        }
      ],
      "stateMutability": "view",
      "type": "function"
    },
    {
      "inputs": [
        {
          "internalType": "uint256",
          "name": "matchId",
          "type": "uint256"
        }
      ],
      "name": "revealTick",
      "outputs": [],
      "stateMutability": "nonpayable",
      "type": "function"
    },
    {
      "inputs": [
        {
          "internalType": "uint256",
          "name": "",
          "type": "uint256"
        }
      ],
      "name": "seedRequestIdMatchId",
      "outputs": [
        {
          "internalType": "uint256",
          "name": "",
          "type": "uint256"
        }
      ],
      "stateMutability": "view",
      "type": "function"
    },
    {
      "inputs": [
        {
          "internalType": "uint256",
          "name": "",
          "type": "uint256"
        },
        {
          "internalType": "uint256",
          "name": "",
          "type": "uint256"
        }
      ],
      "name": "stateShouldBeSkipped",
      "outputs": [
        {
          "internalType": "bool",
          "name": "",
          "type": "bool"
        }
      ],
      "stateMutability": "view",
      "type": "function"
    },
    {
      "inputs": [
        {
          "internalType": "uint256",
          "name": "matchId",
          "type": "uint256"
        }
      ],
      "name": "stateUpdate",
      "outputs": [],
      "stateMutability": "nonpayable",
      "type": "function"
    },
    {
      "inputs": [
        {
          "internalType": "uint256",
          "name": "",
          "type": "uint256"
        },
        {
          "internalType": "uint256",
          "name": "",
          "type": "uint256"
        },
        {
          "internalType": "uint256",
          "name": "",
          "type": "uint256"
        }
      ],
      "name": "teamMove",
      "outputs": [
        {
          "internalType": "bytes",
          "name": "commitment",
          "type": "bytes"
        },
        {
          "internalType": "bytes",
          "name": "reveal",
          "type": "bytes"
        },
        {
          "internalType": "uint256",
          "name": "seed",
          "type": "uint256"
        },
        {
          "internalType": "bool",
          "name": "wantToPass",
          "type": "bool"
        },
        {
          "internalType": "uint256",
          "name": "receivingPlayerId",
          "type": "uint256"
        },
        {
          "internalType": "bool",
          "name": "wantToShoot",
          "type": "bool"
        }
      ],
      "stateMutability": "view",
      "type": "function"
    },
    {
      "inputs": [],
      "name": "ticker",
      "outputs": [
        {
          "internalType": "address",
          "name": "",
          "type": "address"
        }
      ],
      "stateMutability": "view",
      "type": "function"
    },
    {
      "inputs": [
        {
          "internalType": "uint256",
          "name": "matchId",
          "type": "uint256"
        }
      ],
      "name": "updateCommitmentInfo",
      "outputs": [],
      "stateMutability": "nonpayable",
      "type": "function"
    },
    {
      "inputs": [
        {
          "internalType": "uint256",
          "name": "matchId",
          "type": "uint256"
        }
      ],
      "name": "updateRevealInfo",
      "outputs": [],
      "stateMutability": "nonpayable",
      "type": "function"
    }
  ],
  "bytecode": "0x60806040523480156200001157600080fd5b5030604051620000219062000091565b6200002d9190620000e4565b604051809103906000f0801580156200004a573d6000803e3d6000fd5b50600a60006101000a81548173ffffffffffffffffffffffffffffffffffffffff021916908373ffffffffffffffffffffffffffffffffffffffff16021790555062000101565b6139e08062005a3f83390190565b600073ffffffffffffffffffffffffffffffffffffffff82169050919050565b6000620000cc826200009f565b9050919050565b620000de81620000bf565b82525050565b6000602082019050620000fb6000830184620000d3565b92915050565b61592e80620001116000396000f3fe608060405234801561001057600080fd5b50600436106101da5760003560e01c8063705dd6cd11610104578063c8067b6f116100a2578063e3c8bfb911610071578063e3c8bfb914610567578063e5bcd45014610585578063ef9923c6146105a1578063f9781033146105bf576101da565b8063c8067b6f146104c8578063d6a7e251146104e6578063d79b490e14610517578063d7dfa0dd14610549576101da565b80638ba47bdd116100de5780638ba47bdd1461045257806390ede5d514610470578063a67e38be1461048c578063ae5c1356146104aa576101da565b8063705dd6cd146103e6578063734692a914610404578063755f10fd14610422576101da565b806337c747791161017c578063481c6a751161014b578063481c6a751461037057806349bbc37a1461038e5780634ffdf11e146103ac5780635cd6925a146103ca576101da565b806337c74779146102d457806339febf0c1461030457806344c1dc781461032257806345baee5514610352576101da565b80631e20530a116101b85780631e20530a1461025057806322bfb7661461026c57806327764f7d1461029c57806335868ab7146102b8576101da565b806301fd1951146101df578063124a96c8146101fd5780631b7d40a51461021b575b600080fd5b6101e76105db565b6040516101f4919061442a565b60405180910390f35b6102056105e1565b604051610212919061442a565b60405180910390f35b61023560048036038101906102309190614476565b6105f2565b60405161024796959493929190614574565b60405180910390f35b61026a60048036038101906102659190614641565b610782565b005b61028660048036038101906102819190614681565b6108e6565b60405161029391906146c1565b60405180910390f35b6102b660048036038101906102b191906146dc565b610915565b005b6102d260048036038101906102cd9190614709565b610a76565b005b6102ee60048036038101906102e991906146dc565b610bdd565b6040516102fb919061442a565b60405180910390f35b61030c610bf5565b604051610319919061442a565b60405180910390f35b61033c60048036038101906103379190614681565b610bfa565b6040516103499190614c52565b60405180910390f35b61035a612018565b604051610367919061442a565b60405180910390f35b61037861201d565b6040516103859190614c83565b60405180910390f35b610396612043565b6040516103a3919061442a565b60405180910390f35b6103b4612054565b6040516103c1919061442a565b60405180910390f35b6103e460048036038101906103df91906146dc565b612059565b005b6103ee6121ba565b6040516103fb919061442a565b60405180910390f35b61040c6121bf565b604051610419919061442a565b60405180910390f35b61043c600480360381019061043791906146dc565b6121c4565b604051610449919061442a565b60405180910390f35b61045a6121dc565b6040516104679190614c83565b60405180910390f35b61048a600480360381019061048591906146dc565b612202565b005b610494612363565b6040516104a1919061442a565b60405180910390f35b6104b2612368565b6040516104bf919061442a565b60405180910390f35b6104d061236d565b6040516104dd919061442a565b60405180910390f35b61050060048036038101906104fb9190614c9e565b612372565b60405161050e929190614d05565b60405180910390f35b610531600480360381019061052c91906146dc565b61244a565b60405161054093929190614da5565b60405180910390f35b610551612481565b60405161055e9190614c83565b60405180910390f35b61056f6124a5565b60405161057c919061442a565b60405180910390f35b61059f600480360381019061059a91906146dc565b6124aa565b005b6105a9612932565b6040516105b6919061442a565b60405180910390f35b6105d960048036038101906105d491906146dc565b612937565b005b60025481565b600960026105ef9190614f3e565b81565b6008602052826000526040600020602052816000526040600020818154811061061a57600080fd5b9060005260206000209060080201600092509250505080600001805461063f90614fb8565b80601f016020809104026020016040519081016040528092919081815260200182805461066b90614fb8565b80156106b85780601f1061068d576101008083540402835291602001916106b8565b820191906000526020600020905b81548152906001019060200180831161069b57829003601f168201915b5050505050908060010180546106cd90614fb8565b80601f01602080910402602001604051908101604052809291908181526020018280546106f990614fb8565b80156107465780601f1061071b57610100808354040283529160200191610746565b820191906000526020600020905b81548152906001019060200180831161072957829003601f168201915b5050505050908060020154908060050160009054906101000a900460ff16908060060154908060070160009054906101000a900460ff16905086565b600080600a60009054906101000a900473ffffffffffffffffffffffffffffffffffffffff1673ffffffffffffffffffffffffffffffffffffffff1684846040516024016107d1929190614fe9565b6040516020818303038152906040527f1e20530a000000000000000000000000000000000000000000000000000000007bffffffffffffffffffffffffffffffffffffffffffffffffffffffff19166020820180517bffffffffffffffffffffffffffffffffffffffffffffffffffffffff838183161783525050505060405161085b919061504e565b600060405180830381855af49150503d8060008114610896576040519150601f19603f3d011682016040523d82523d6000602084013e61089b565b606091505b5091509150816108e0576040517f08c379a00000000000000000000000000000000000000000000000000000000081526004016108d7906150e8565b60405180910390fd5b50505050565b60096020528160005260406000206020528060005260406000206000915091509054906101000a900460ff1681565b600080600a60009054906101000a900473ffffffffffffffffffffffffffffffffffffffff1673ffffffffffffffffffffffffffffffffffffffff1683604051602401610962919061442a565b6040516020818303038152906040527f27764f7d000000000000000000000000000000000000000000000000000000007bffffffffffffffffffffffffffffffffffffffffffffffffffffffff19166020820180517bffffffffffffffffffffffffffffffffffffffffffffffffffffffff83818316178352505050506040516109ec919061504e565b600060405180830381855af49150503d8060008114610a27576040519150601f19603f3d011682016040523d82523d6000602084013e610a2c565b606091505b509150915081610a71576040517f08c379a0000000000000000000000000000000000000000000000000000000008152600401610a689061517a565b60405180910390fd5b505050565b600080600a60009054906101000a900473ffffffffffffffffffffffffffffffffffffffff1673ffffffffffffffffffffffffffffffffffffffff16858585604051602401610ac79392919061519a565b6040516020818303038152906040527f35868ab7000000000000000000000000000000000000000000000000000000007bffffffffffffffffffffffffffffffffffffffffffffffffffffffff19166020820180517bffffffffffffffffffffffffffffffffffffffffffffffffffffffff8381831617835250505050604051610b51919061504e565b600060405180830381855af49150503d8060008114610b8c576040519150601f19603f3d011682016040523d82523d6000602084013e610b91565b606091505b509150915081610bd6576040517f08c379a0000000000000000000000000000000000000000000000000000000008152600401610bcd90615243565b60405180910390fd5b5050505050565b60046020528060005260406000206000915090505481565b600581565b606060008060076000868152602001908152602001600020600085815260200190815260200160002090506000600760008781526020019081526020016000206000600187610c499190615263565b8152602001908152602001600020805480602002602001604051908101604052809291908181526020016000905b82821015610e08578382906000526020600020906006020160405180608001604052908160008201805480602002602001604051908101604052809291908181526020016000905b82821015610d0f5783829060005260206000209060030201604051806060016040529081600082015481526020016001820154815260200160028201548152505081526020019060010190610cbf565b505050508152602001600182016040518060600160405290816000820154815260200160018201548152602001600282015481525050815260200160048201805480602002602001604051908101604052809291908181526020018280548015610d9857602002820191906000526020600020905b815481526020019060010190808311610d84575b5050505050815260200160058201805480602002602001604051908101604052809291908181526020018280548015610df057602002820191906000526020600020905b815481526020019060010190808311610ddc575b50505050508152505081526020019060010190610c77565b505050509050600082805480602002602001604051908101604052809291908181526020016000905b82821015610fc2578382906000526020600020906006020160405180608001604052908160008201805480602002602001604051908101604052809291908181526020016000905b82821015610ec95783829060005260206000209060030201604051806060016040529081600082015481526020016001820154815260200160028201548152505081526020019060010190610e79565b505050508152602001600182016040518060600160405290816000820154815260200160018201548152602001600282015481525050815260200160048201805480602002602001604051908101604052809291908181526020018280548015610f5257602002820191906000526020600020905b815481526020019060010190808311610f3e575b5050505050815260200160058201805480602002602001604051908101604052809291908181526020018280548015610faa57602002820191906000526020600020905b815481526020019060010190808311610f96575b50505050508152505081526020019060010190610e31565b50505050905060005b600281101561121f57600a67ffffffffffffffff811115610fef57610fee615297565b5b60405190808252806020026020018201604052801561102857816020015b611015614344565b81526020019060019003908161100d5790505b5082828151811061103c5761103b6152c6565b5b60200260200101516000018190525060005b600a81101561120d5784828154811061106a576110696152c6565b5b9060005260206000209060060201600001818154811061108d5761108c6152c6565b5b906000526020600020906003020160405180606001604052908160008201548152602001600182015481526020016002820154815250508383815181106110d7576110d66152c6565b5b60200260200101516000015182815181106110f5576110f46152c6565b5b6020026020010181905250848281548110611113576111126152c6565b5b90600052602060002090600602016004018181548110611136576111356152c6565b5b9060005260206000200154838381518110611154576111536152c6565b5b6020026020010151604001518281518110611172576111716152c6565b5b602002602001018181525050848281548110611191576111906152c6565b5b906000526020600020906006020160050181815481106111b4576111b36152c6565b5b90600052602060002001548383815181106111d2576111d16152c6565b5b60200260200101516060015182815181106111f0576111ef6152c6565b5b60200260200101818152505080611206906152f5565b905061104e565b5080611218906152f5565b9050610fcb565b5060006008600089815260200190815260200160002060008881526020019081526020016000209050600081805480602002602001604051908101604052809291908181526020016000905b828210156114bc57838290600052602060002090600802016040518061010001604052908160008201805461129f90614fb8565b80601f01602080910402602001604051908101604052809291908181526020018280546112cb90614fb8565b80156113185780601f106112ed57610100808354040283529160200191611318565b820191906000526020600020905b8154815290600101906020018083116112fb57829003601f168201915b5050505050815260200160018201805461133190614fb8565b80601f016020809104026020016040519081016040528092919081815260200182805461135d90614fb8565b80156113aa5780601f1061137f576101008083540402835291602001916113aa565b820191906000526020600020905b81548152906001019060200180831161138d57829003601f168201915b50505050508152602001600282015481526020016003820180548060200260200160405190810160405280929190818152602001828054801561140c57602002820191906000526020600020905b8154815260200190600101908083116113f8575b505050505081526020016004820180548060200260200160405190810160405280929190818152602001828054801561146457602002820191906000526020600020905b815481526020019060010190808311611450575b505050505081526020016005820160009054906101000a900460ff16151515158152602001600682015481526020016007820160009054906101000a900460ff1615151515815250508152602001906001019061126b565b50505050905060005b60028110156115f95760005b600a8110156115e7578382815481106114ed576114ec6152c6565b5b906000526020600020906008020160030181815481106115105761150f6152c6565b5b906000526020600020015483838151811061152e5761152d6152c6565b5b602002602001015160600151828151811061154c5761154b6152c6565b5b60200260200101818152505083828154811061156b5761156a6152c6565b5b9060005260206000209060080201600401818154811061158e5761158d6152c6565b5b90600052602060002001548383815181106115ac576115ab6152c6565b5b60200260200101516080015182815181106115ca576115c96152c6565b5b602002602001018181525050806115e0906152f5565b90506114d1565b50806115f2906152f5565b90506114c5565b5060026007600561160a9190615263565b6116149190615263565b67ffffffffffffffff81111561162d5761162c615297565b5b60405190808252806020026020018201604052801561166657816020015b611653614365565b81526020019060019003908161164b5790505b50965060005b60026007600561167c9190615263565b6116869190615263565b811015611d8c5760008882815181106116a2576116a16152c6565b5b60200260200101519050600267ffffffffffffffff8111156116c7576116c6615297565b5b60405190808252806020026020018201604052801561170057816020015b6116ed6143e3565b8152602001906001900390816116e55790505b50816101c0018190525060005b600281101561184d576000826101c0015182815181106117305761172f6152c6565b5b60200260200101519050600a67ffffffffffffffff81111561175557611754615297565b5b60405190808252806020026020018201604052801561178e57816020015b61177b614344565b8152602001906001900390816117735790505b508160000181905250600a67ffffffffffffffff8111156117b2576117b1615297565b5b6040519080825280602002602001820160405280156117e05781602001602082028036833780820191505090505b508160400181905250600a67ffffffffffffffff81111561180457611803615297565b5b6040519080825280602002602001820160405280156118325781602001602082028036833780820191505090505b5081606001819052505080611846906152f5565b905061170d565b50600082036119375784816101c00181905250600660008c815260200190815260200160002060008b815260200190815260200160002060010154816040018181525050600660008c815260200190815260200160002060008b815260200190815260200160002060020154816060018181525050600660008c815260200190815260200160002060008b81526020019081526020016000206003015481610100018181525050600660008c815260200190815260200160002060008b8152602001908152602001600020600401548161012001818152505061192f81612a98565b905050611d7b565b600089600184611947919061533d565b81518110611958576119576152c6565b5b60200260200101519050806000015182600001818152505080602001518260200181815250508060400151826040018181525050806060015182606001818152505080608001518260800190151590811515815250508060a001518260a00181815250508060c001518260c00190151590811515815250508060e001518260e0018181525050806101000151826101000181815250508061012001518261012001818152505060005b6002811015611c3457600a67ffffffffffffffff811115611a2557611a24615297565b5b604051908082528060200260200182016040528015611a5e57816020015b611a4b614344565b815260200190600190039081611a435790505b50836101c001518281518110611a7757611a766152c6565b5b60200260200101516000018190525060005b600a811015611c2257826101c001518281518110611aaa57611aa96152c6565b5b6020026020010151600001518181518110611ac857611ac76152c6565b5b6020026020010151846101c001518381518110611ae857611ae76152c6565b5b6020026020010151600001518281518110611b0657611b056152c6565b5b6020026020010181905250826101c001518281518110611b2957611b286152c6565b5b6020026020010151604001518181518110611b4757611b466152c6565b5b6020026020010151846101c001518381518110611b6757611b666152c6565b5b6020026020010151604001518281518110611b8557611b846152c6565b5b602002602001018181525050826101c001518281518110611ba957611ba86152c6565b5b6020026020010151606001518181518110611bc757611bc66152c6565b5b6020026020010151846101c001518381518110611be757611be66152c6565b5b6020026020010151606001518281518110611c0557611c046152c6565b5b60200260200101818152505080611c1b906152f5565b9050611a89565b5080611c2d906152f5565b9050611a01565b506000151589151503611d78576005831015611cb25760005b6002811015611c965760005b600a811015611c8457611c718887848487898b612b2b565b935080611c7d906152f5565b9050611c59565b5080611c8f906152f5565b9050611c4d565b50611ca082612a98565b9150611cab82613348565b9150611d77565b60076005611cc09190615263565b831015611d7657600015158260c001511515148015611d01575089600081518110611cee57611ced6152c6565b5b6020026020010151604001518260400151145b15611d7557611d728a60016005611d18919061533d565b81518110611d2957611d286152c6565b5b60200260200101518b600081518110611d4557611d446152c6565b5b6020026020010151604001518684866005896001611d639190615263565b611d6d919061533d565b613417565b91505b5b5b5b50505b80611d85906152f5565b905061166c565b600088600260018b51611d9f919061533d565b611da9919061533d565b81518110611dba57611db96152c6565b5b6020026020010151905060008960028b51611dd5919061533d565b81518110611de657611de56152c6565b5b6020026020010151905060008a60018c51611e01919061533d565b81518110611e1257611e116152c6565b5b6020026020010151905084836040015181518110611e3357611e326152c6565b5b602002602001015160e00151156120085760018361014001901515908115158152505082604001516001611e67919061533d565b836101600181815250506000836040015114611e84576000611e93565b600a6002611e929190614f3e565b5b82610100018181525050600260096002611ead9190614f3e565b611eb791906153a0565b82610120018181525050611eca836139cf565b8161018001901515908115158152505082604001516001611eeb919061533d565b826040018181525081604001818152505080610180015115611f54576002600a6002611f179190614f3e565b611f2191906153a0565b81610100018181525050600260096002611f3b9190614f3e565b611f4591906153a0565b81610120018181525050612007565b806101c0015183604001516001611f6b919061533d565b81518110611f7c57611f7b6152c6565b5b602002602001015160400151600281518110611f9b57611f9a6152c6565b5b602002602001015181610100018181525050806101c0015183604001516001611fc4919061533d565b81518110611fd557611fd46152c6565b5b602002602001015160600151600281518110611ff457611ff36152c6565b5b6020026020010151816101200181815250505b5b5050505050505050505092915050565b600981565b600a60009054906101000a900473ffffffffffffffffffffffffffffffffffffffff1681565b600a60026120519190614f3e565b81565b600a81565b600080600a60009054906101000a900473ffffffffffffffffffffffffffffffffffffffff1673ffffffffffffffffffffffffffffffffffffffff16836040516024016120a6919061442a565b6040516020818303038152906040527f5cd6925a000000000000000000000000000000000000000000000000000000007bffffffffffffffffffffffffffffffffffffffffffffffffffffffff19166020820180517bffffffffffffffffffffffffffffffffffffffffffffffffffffffff8381831617835250505050604051612130919061504e565b600060405180830381855af49150503d806000811461216b576040519150601f19603f3d011682016040523d82523d6000602084013e612170565b606091505b5091509150816121b5576040517f08c379a00000000000000000000000000000000000000000000000000000000081526004016121ac90615443565b60405180910390fd5b505050565b600a81565b600781565b60056020528060005260406000206000915090505481565b600160009054906101000a900473ffffffffffffffffffffffffffffffffffffffff1681565b600080600a60009054906101000a900473ffffffffffffffffffffffffffffffffffffffff1673ffffffffffffffffffffffffffffffffffffffff168360405160240161224f919061442a565b6040516020818303038152906040527f90ede5d5000000000000000000000000000000000000000000000000000000007bffffffffffffffffffffffffffffffffffffffffffffffffffffffff19166020820180517bffffffffffffffffffffffffffffffffffffffffffffffffffffffff83818316178352505050506040516122d9919061504e565b600060405180830381855af49150503d8060008114612314576040519150601f19603f3d011682016040523d82523d6000602084013e612319565b606091505b50915091508161235e576040517f08c379a0000000000000000000000000000000000000000000000000000000008152600401612355906154d5565b60405180910390fd5b505050565b600281565b600a81565b601981565b60008060076000878152602001908152602001600020600086815260200190815260200160002084815481106123ab576123aa6152c6565b5b906000526020600020906006020160040183815481106123ce576123cd6152c6565b5b9060005260206000200154600760008881526020019081526020016000206000878152602001908152602001600020858154811061240f5761240e6152c6565b5b90600052602060002090600602016005018481548110612432576124316152c6565b5b90600052602060002001549150915094509492505050565b60036020528060005260406000206000915090508060000154908060030160009054906101000a900460ff16908060040154905083565b60008054906101000a900473ffffffffffffffffffffffffffffffffffffffff1681565b600281565b6000600360008381526020019081526020016000209050600060056000848152602001908152602001600020549050600060066000858152602001908152602001600020600083815260200190815260200160002090506008600a81111561251557612514614d2e565b5b8360030160009054906101000a900460ff16600a81111561253957612538614d2e565b5b14612579576040517f08c379a000000000000000000000000000000000000000000000000000000000815260040161257090615567565b60405180910390fd5b60006125858584610bfa565b905060008160018351612598919061533d565b815181106125a9576125a86152c6565b5b602002602001015190506125c9866001866125c49190615263565b613a83565b6000816101c00151905060006007600089815260200190815260200160002060006001886125f79190615263565b8152602001908152602001600020905060005b60028110156127da5760005b600a8110156127c857838281518110612632576126316152c6565b5b60200260200101516000015181815181106126505761264f6152c6565b5b602002602001015183838154811061266b5761266a6152c6565b5b9060005260206000209060060201600001828154811061268e5761268d6152c6565b5b90600052602060002090600302016000820151816000015560208201518160010155604082015181600201559050508382815181106126d0576126cf6152c6565b5b60200260200101516040015181815181106126ee576126ed6152c6565b5b6020026020010151838381548110612709576127086152c6565b5b9060005260206000209060060201600401828154811061272c5761272b6152c6565b5b906000526020600020018190555083828151811061274d5761274c6152c6565b5b602002602001015160600151818151811061276b5761276a6152c6565b5b6020026020010151838381548110612786576127856152c6565b5b906000526020600020906006020160050182815481106127a9576127a86152c6565b5b9060005260206000200181905550806127c1906152f5565b9050612616565b50806127d3906152f5565b905061260a565b508260400151856001018190555082606001518560020181905550826101000151856003018190555082610120015185600401819055508261014001518560050160006101000a81548160ff0219169083151502179055508261018001518560050160016101000a81548160ff0219169083151502179055508261014001511561288657826101800151156128845761287f8860018861287a9190615263565b613be7565b612885565b5b5b6001600560008a815260200190815260200160002060008282546128aa9190615263565b9250508190555060098760030160006101000a81548160ff0219169083600a8111156128d9576128d8614d2e565b5b02179055507f58d4562cf15d1052e816fd24f6af2c8a3a21416d6e4c01a9e11ef84ffe537e25888860030160009054906101000a900460ff16604051612920929190615587565b60405180910390a15050505050505050565b600281565b600080600a60009054906101000a900473ffffffffffffffffffffffffffffffffffffffff1673ffffffffffffffffffffffffffffffffffffffff1683604051602401612984919061442a565b6040516020818303038152906040527ff9781033000000000000000000000000000000000000000000000000000000007bffffffffffffffffffffffffffffffffffffffffffffffffffffffff19166020820180517bffffffffffffffffffffffffffffffffffffffffffffffffffffffff8381831617835250505050604051612a0e919061504e565b600060405180830381855af49150503d8060008114612a49576040519150601f19603f3d011682016040523d82523d6000602084013e612a4e565b606091505b509150915081612a93576040517f08c379a0000000000000000000000000000000000000000000000000000000008152600401612a8a90615622565b60405180910390fd5b505050565b612aa0614365565b6000826101c00151836040015181518110612abe57612abd6152c6565b5b602002602001015190508060400151836060015181518110612ae357612ae26152c6565b5b6020026020010151836101000181815250508060600151836060015181518110612b1057612b0f6152c6565b5b60200260200101518361012001818152505082915050919050565b612b33614365565b60006040518060400160405280898981518110612b5357612b526152c6565b5b6020026020010151606001518881518110612b7157612b706152c6565b5b60200260200101518152602001898981518110612b9157612b906152c6565b5b6020026020010151608001518881518110612baf57612bae6152c6565b5b60200260200101518152509050600060405180604001604052808b8a81518110612bdc57612bdb6152c6565b5b6020026020010151604001518981518110612bfa57612bf96152c6565b5b602002602001015181526020018b8a81518110612c1a57612c196152c6565b5b6020026020010151606001518981518110612c3857612c376152c6565b5b6020026020010151815250905060006040518060400160405280886101c001518b81518110612c6a57612c696152c6565b5b6020026020010151604001518a81518110612c8857612c876152c6565b5b60200260200101518152602001886101c001518b81518110612cad57612cac6152c6565b5b6020026020010151606001518a81518110612ccb57612cca6152c6565b5b6020026020010151815250905082600060028110612cec57612ceb6152c6565b5b602002015181600060028110612d0557612d046152c6565b5b6020020151148015612d46575080600160028110612d2657612d256152c6565b5b602002015181600160028110612d3f57612d3e6152c6565b5b6020020151145b15612d565785935050505061333d565b6000604051806040016040528084600060028110612d7757612d766152c6565b5b602002015186600060028110612d9057612d8f6152c6565b5b6020020151612d9f919061564c565b815260200184600160028110612db857612db76152c6565b5b602002015186600160028110612dd157612dd06152c6565b5b6020020151612de0919061564c565b8152509050600081600160028110612dfb57612dfa6152c6565b5b602002015182600160028110612e1457612e136152c6565b5b6020020151612e23919061568f565b82600060028110612e3757612e366152c6565b5b602002015183600060028110612e5057612e4f6152c6565b5b6020020151612e5f919061568f565b612e699190615707565b90506000896101c001518c81518110612e8557612e846152c6565b5b6020026020010151600001518b81518110612ea357612ea26152c6565b5b602002602001015190506001156133335760006040518060400160405280600086600060028110612ed757612ed66152c6565b5b602002015113612f5157600589600060028110612ef757612ef66152c6565b5b602002015189600060028110612f1057612f0f6152c6565b5b6020020151612f1f919061533d565b612f2991906153a0565b87600060028110612f3d57612f3c6152c6565b5b6020020151612f4c919061533d565b612fbd565b600588600060028110612f6757612f666152c6565b5b60200201518a600060028110612f8057612f7f6152c6565b5b6020020151612f8f919061533d565b612f9991906153a0565b87600060028110612fad57612fac6152c6565b5b6020020151612fbc9190615263565b5b8152602001600086600160028110612fd857612fd76152c6565b5b60200201511361305257600589600160028110612ff857612ff76152c6565b5b602002015189600160028110613011576130106152c6565b5b6020020151613020919061533d565b61302a91906153a0565b8760016002811061303e5761303d6152c6565b5b602002015161304d919061533d565b6130be565b600588600160028110613068576130676152c6565b5b60200201518a600160028110613081576130806152c6565b5b6020020151613090919061533d565b61309a91906153a0565b876001600281106130ae576130ad6152c6565b5b60200201516130bd9190615263565b5b81525090506005890361313857866000600281106130df576130de6152c6565b5b6020020151816000600281106130f8576130f76152c6565b5b60200201818152505086600160028110613115576131146152c6565b5b60200201518160016002811061312e5761312d6152c6565b5b6020020181815250505b600a60026131469190614f3e565b8160006002811061315a576131596152c6565b5b60200201511080156131905750600960026131759190614f3e565b81600160028110613189576131886152c6565b5b6020020151105b1561333157806000600281106131a9576131a86152c6565b5b60200201518a6101c001518e815181106131c6576131c56152c6565b5b6020026020010151604001518d815181106131e4576131e36152c6565b5b60200260200101818152505080600160028110613204576132036152c6565b5b60200201518a6101c001518e81518110613221576132206152c6565b5b6020026020010151606001518d8151811061323f5761323e6152c6565b5b60200260200101818152505060028a6101c001518e81518110613265576132646152c6565b5b6020026020010151600001518d81518110613283576132826152c6565b5b6020026020010151604001511161329b5760026132ea565b60028a6101c001518e815181106132b5576132b46152c6565b5b6020026020010151600001518d815181106132d3576132d26152c6565b5b6020026020010151604001516132e9919061533d565b5b8a6101c001518e81518110613302576133016152c6565b5b6020026020010151600001518d815181106133205761331f6152c6565b5b602002602001015160400181815250505b505b8896505050505050505b979650505050505050565b613350614365565b6000826040015190506000836060015190506000826001613371919061533d565b905060005b600a81101561340b57601961338e8786868686613d4b565b10156133fa576000806133a8888960400151878787613f81565b91509150876040015182146133f7576001886080019015159081151581525050838860a0018181525050808860600181815250508588600001818152505084886020018181525050505061340b565b50505b80613404906152f5565b9050613376565b50849350505050919050565b61341f614365565b60006040518060400160405280896101c001518981518110613444576134436152c6565b5b602002602001015160400151888a81518110613463576134626152c6565b5b602002602001015160c00151815181106134805761347f6152c6565b5b60200260200101518152602001896101c0015189815181106134a5576134a46152c6565b5b602002602001015160600151888a815181106134c4576134c36152c6565b5b602002602001015160c00151815181106134e1576134e06152c6565b5b60200260200101518152509050600060405180604001604052808a610100015181526020018a61012001518152509050600060405180604001604052808861010001518152602001886101200151815250905082600060028110613548576135476152c6565b5b602002015181600060028110613561576135606152c6565b5b60200201511480156135a2575080600160028110613582576135816152c6565b5b60200201518160016002811061359b5761359a6152c6565b5b6020020151145b156135f857826000600281106135bb576135ba6152c6565b5b602002015186610100018181525050826001600281106135de576135dd6152c6565b5b6020020151866101200181815250508593505050506139c5565b6000604051806040016040528084600060028110613619576136186152c6565b5b602002015186600060028110613632576136316152c6565b5b6020020151613641919061564c565b81526020018460016002811061365a576136596152c6565b5b602002015186600160028110613673576136726152c6565b5b6020020151613682919061564c565b8152509050600060405180604001604052806000846000600281106136aa576136a96152c6565b5b602002015113613724576007876000600281106136ca576136c96152c6565b5b6020020151876000600281106136e3576136e26152c6565b5b60200201516136f2919061533d565b6136fc91906153a0565b856000600281106137105761370f6152c6565b5b602002015161371f919061533d565b613790565b60078660006002811061373a576137396152c6565b5b602002015188600060028110613753576137526152c6565b5b6020020151613762919061533d565b61376c91906153a0565b856000600281106137805761377f6152c6565b5b602002015161378f9190615263565b5b81526020016000846001600281106137ab576137aa6152c6565b5b602002015113613825576007876001600281106137cb576137ca6152c6565b5b6020020151876001600281106137e4576137e36152c6565b5b60200201516137f3919061533d565b6137fd91906153a0565b85600160028110613811576138106152c6565b5b6020020151613820919061533d565b613891565b60078660016002811061383b5761383a6152c6565b5b602002015188600160028110613854576138536152c6565b5b6020020151613863919061533d565b61386d91906153a0565b85600160028110613881576138806152c6565b5b60200201516138909190615263565b5b81525090506007870361390b57846000600281106138b2576138b16152c6565b5b6020020151816000600281106138cb576138ca6152c6565b5b602002018181525050846001600281106138e8576138e76152c6565b5b602002015181600160028110613901576139006152c6565b5b6020020181815250505b600a60026139199190614f3e565b8160006002811061392d5761392c6152c6565b5b60200201511080156139635750600960026139489190614f3e565b8160016002811061395c5761395b6152c6565b5b6020020151105b156139af578060006002811061397c5761397b6152c6565b5b6020020151886101000181815250508060016002811061399f5761399e6152c6565b5b6020020151886101200181815250505b6139bd8c8c8c8c8c8c6140a0565b955050505050505b9695505050505050565b600080826101c001518360400151815181106139ee576139ed6152c6565b5b602002602001015160000151836060015181518110613a1057613a0f6152c6565b5b60200260200101516020015190506000836101c0015184604001516001613a37919061533d565b81518110613a4857613a476152c6565b5b60200260200101516020015160200151905060008183613a689190615263565b90506000613a746141c1565b90506001945050505050919050565b600080600a60009054906101000a900473ffffffffffffffffffffffffffffffffffffffff1673ffffffffffffffffffffffffffffffffffffffff168484604051602401613ad2929190614d05565b6040516020818303038152906040527f44256017000000000000000000000000000000000000000000000000000000007bffffffffffffffffffffffffffffffffffffffffffffffffffffffff19166020820180517bffffffffffffffffffffffffffffffffffffffffffffffffffffffff8381831617835250505050604051613b5c919061504e565b600060405180830381855af49150503d8060008114613b97576040519150601f19603f3d011682016040523d82523d6000602084013e613b9c565b606091505b509150915081613be1576040517f08c379a0000000000000000000000000000000000000000000000000000000008152600401613bd8906157ee565b60405180910390fd5b50505050565b600080600a60009054906101000a900473ffffffffffffffffffffffffffffffffffffffff1673ffffffffffffffffffffffffffffffffffffffff168484604051602401613c36929190614d05565b6040516020818303038152906040527f07ae2a9c000000000000000000000000000000000000000000000000000000007bffffffffffffffffffffffffffffffffffffffffffffffffffffffff19166020820180517bffffffffffffffffffffffffffffffffffffffffffffffffffffffff8381831617835250505050604051613cc0919061504e565b600060405180830381855af49150503d8060008114613cfb576040519150601f19603f3d011682016040523d82523d6000602084013e613d00565b606091505b509150915081613d45576040517f08c379a0000000000000000000000000000000000000000000000000000000008152600401613d3c90615880565b60405180910390fd5b50505050565b600080866101c001518681518110613d6657613d656152c6565b5b602002602001015190506000876101c001518581518110613d8a57613d896152c6565b5b60200260200101519050600081604001518581518110613dad57613dac6152c6565b5b602002602001015183604001518881518110613dcc57613dcb6152c6565b5b602002602001015111613e265782604001518781518110613df057613def6152c6565b5b602002602001015182604001518681518110613e0f57613e0e6152c6565b5b6020026020010151613e21919061533d565b613e6f565b81604001518581518110613e3d57613e3c6152c6565b5b602002602001015183604001518881518110613e5c57613e5b6152c6565b5b6020026020010151613e6e919061533d565b5b9050600082606001518681518110613e8a57613e896152c6565b5b602002602001015184606001518981518110613ea957613ea86152c6565b5b602002602001015111613f035783606001518881518110613ecd57613ecc6152c6565b5b602002602001015183606001518781518110613eec57613eeb6152c6565b5b6020026020010151613efe919061533d565b613f4c565b82606001518681518110613f1a57613f196152c6565b5b602002602001015184606001518981518110613f3957613f386152c6565b5b6020026020010151613f4b919061533d565b5b9050600281613f5b91906158ad565b600283613f6891906158ad565b613f729190615263565b94505050505095945050505050565b60008060006001886101c001518881518110613fa057613f9f6152c6565b5b6020026020010151600001518781518110613fbe57613fbd6152c6565b5b602002602001015160200151896101c001518981518110613fe257613fe16152c6565b5b602002602001015160000151888151811061400057613fff6152c6565b5b6020026020010151602001516140169190615263565b6140209190615263565b9050600061402c6141c1565b9050818161403a919061574b565b896101c001518981518110614052576140516152c6565b5b60200260200101516000015188815181106140705761406f6152c6565b5b602002602001015160200151101561408d57879350869250614094565b8593508492505b50509550959350505050565b6140a8614365565b6000876040015160016140bb919061533d565b905060005b600a8110156141655760196140d68684846141cb565b1015614154576000806140f48b8c604001518d602001518787613f81565b915091508a6040015182146141515760018760c0019015159081151581525050838760e00181815250508187604001818152505080876060018181525050898760000181815250508a602001518760200181815250505050614165565b50505b8061415e906152f5565b90506140c0565b50600015158460c001511515036141b35786846040018181525050858781518110614193576141926152c6565b5b602002602001015160c00151846060018181525050868460000181815250505b839150509695505050505050565b6000610515905090565b600080846101c0015184815181106141e6576141e56152c6565b5b60200260200101519050600081604001518481518110614209576142086152c6565b5b6020026020010151866101000151116142505785610100015182604001518581518110614239576142386152c6565b5b602002602001015161424b919061533d565b614280565b81604001518481518110614267576142666152c6565b5b602002602001015186610100015161427f919061533d565b5b905060008260600151858151811061429b5761429a6152c6565b5b6020026020010151876101200151116142e257866101200151836060015186815181106142cb576142ca6152c6565b5b60200260200101516142dd919061533d565b614312565b826060015185815181106142f9576142f86152c6565b5b6020026020010151876101200151614311919061533d565b5b905060028161432191906158ad565b60028361432e91906158ad565b6143389190615263565b93505050509392505050565b60405180606001604052806000815260200160008152602001600081525090565b604051806101e0016040528060008152602001600081526020016000815260200160008152602001600015158152602001600081526020016000151581526020016000815260200160008152602001600081526020016000151581526020016000815260200160001515815260200160008152602001606081525090565b6040518060800160405280606081526020016143fd614344565b815260200160608152602001606081525090565b6000819050919050565b61442481614411565b82525050565b600060208201905061443f600083018461441b565b92915050565b600080fd5b61445381614411565b811461445e57600080fd5b50565b6000813590506144708161444a565b92915050565b60008060006060848603121561448f5761448e614445565b5b600061449d86828701614461565b93505060206144ae86828701614461565b92505060406144bf86828701614461565b9150509250925092565b600081519050919050565b600082825260208201905092915050565b60005b838110156145035780820151818401526020810190506144e8565b60008484015250505050565b6000601f19601f8301169050919050565b600061452b826144c9565b61453581856144d4565b93506145458185602086016144e5565b61454e8161450f565b840191505092915050565b60008115159050919050565b61456e81614559565b82525050565b600060c082019050818103600083015261458e8189614520565b905081810360208301526145a28188614520565b90506145b1604083018761441b565b6145be6060830186614565565b6145cb608083018561441b565b6145d860a0830184614565565b979650505050505050565b600073ffffffffffffffffffffffffffffffffffffffff82169050919050565b600061460e826145e3565b9050919050565b61461e81614603565b811461462957600080fd5b50565b60008135905061463b81614615565b92915050565b6000806040838503121561465857614657614445565b5b60006146668582860161462c565b92505060206146778582860161462c565b9150509250929050565b6000806040838503121561469857614697614445565b5b60006146a685828601614461565b92505060206146b785828601614461565b9150509250929050565b60006020820190506146d66000830184614565565b92915050565b6000602082840312156146f2576146f1614445565b5b600061470084828501614461565b91505092915050565b60008060006060848603121561472257614721614445565b5b600061473086828701614461565b93505060206147418682870161462c565b92505060406147528682870161462c565b9150509250925092565b600081519050919050565b600082825260208201905092915050565b6000819050602082019050919050565b61479181614411565b82525050565b6147a081614559565b82525050565b600081519050919050565b600082825260208201905092915050565b6000819050602082019050919050565b600081519050919050565b600082825260208201905092915050565b6000819050602082019050919050565b6060820160008201516148146000850182614788565b5060208201516148276020850182614788565b50604082015161483a6040850182614788565b50505050565b600061484c83836147fe565b60608301905092915050565b6000602082019050919050565b6000614870826147d2565b61487a81856147dd565b9350614885836147ee565b8060005b838110156148b657815161489d8882614840565b97506148a883614858565b925050600181019050614889565b5085935050505092915050565b600081519050919050565b600082825260208201905092915050565b6000819050602082019050919050565b60006148fb8383614788565b60208301905092915050565b6000602082019050919050565b600061491f826148c3565b61492981856148ce565b9350614934836148df565b8060005b8381101561496557815161494c88826148ef565b975061495783614907565b925050600181019050614938565b5085935050505092915050565b600060c083016000830151848203600086015261498f8282614865565b91505060208301516149a460208601826147fe565b50604083015184820360808601526149bc8282614914565b915050606083015184820360a08601526149d68282614914565b9150508091505092915050565b60006149ef8383614972565b905092915050565b6000602082019050919050565b6000614a0f826147a6565b614a1981856147b1565b935083602082028501614a2b856147c2565b8060005b85811015614a675784840389528151614a4885826149e3565b9450614a53836149f7565b925060208a01995050600181019050614a2f565b50829750879550505050505092915050565b60006101e083016000830151614a926000860182614788565b506020830151614aa56020860182614788565b506040830151614ab86040860182614788565b506060830151614acb6060860182614788565b506080830151614ade6080860182614797565b5060a0830151614af160a0860182614788565b5060c0830151614b0460c0860182614797565b5060e0830151614b1760e0860182614788565b50610100830151614b2c610100860182614788565b50610120830151614b41610120860182614788565b50610140830151614b56610140860182614797565b50610160830151614b6b610160860182614788565b50610180830151614b80610180860182614797565b506101a0830151614b956101a0860182614788565b506101c08301518482036101c0860152614baf8282614a04565b9150508091505092915050565b6000614bc88383614a79565b905092915050565b6000602082019050919050565b6000614be88261475c565b614bf28185614767565b935083602082028501614c0485614778565b8060005b85811015614c405784840389528151614c218582614bbc565b9450614c2c83614bd0565b925060208a01995050600181019050614c08565b50829750879550505050505092915050565b60006020820190508181036000830152614c6c8184614bdd565b905092915050565b614c7d81614603565b82525050565b6000602082019050614c986000830184614c74565b92915050565b60008060008060808587031215614cb857614cb7614445565b5b6000614cc687828801614461565b9450506020614cd787828801614461565b9350506040614ce887828801614461565b9250506060614cf987828801614461565b91505092959194509250565b6000604082019050614d1a600083018561441b565b614d27602083018461441b565b9392505050565b7f4e487b7100000000000000000000000000000000000000000000000000000000600052602160045260246000fd5b600b8110614d6e57614d6d614d2e565b5b50565b6000819050614d7f82614d5d565b919050565b6000614d8f82614d71565b9050919050565b614d9f81614d84565b82525050565b6000606082019050614dba600083018661441b565b614dc76020830185614d96565b614dd4604083018461441b565b949350505050565b7f4e487b7100000000000000000000000000000000000000000000000000000000600052601160045260246000fd5b60008160011c9050919050565b6000808291508390505b6001851115614e6257808604811115614e3e57614e3d614ddc565b5b6001851615614e4d5780820291505b8081029050614e5b85614e0b565b9450614e22565b94509492505050565b600082614e7b5760019050614f37565b81614e895760009050614f37565b8160018114614e9f5760028114614ea957614ed8565b6001915050614f37565b60ff841115614ebb57614eba614ddc565b5b8360020a915084821115614ed257614ed1614ddc565b5b50614f37565b5060208310610133831016604e8410600b8410161715614f0d5782820a905083811115614f0857614f07614ddc565b5b614f37565b614f1a8484846001614e18565b92509050818404811115614f3157614f30614ddc565b5b81810290505b9392505050565b6000614f4982614411565b9150614f5483614411565b9250614f817fffffffffffffffffffffffffffffffffffffffffffffffffffffffffffffffff8484614e6b565b905092915050565b7f4e487b7100000000000000000000000000000000000000000000000000000000600052602260045260246000fd5b60006002820490506001821680614fd057607f821691505b602082108103614fe357614fe2614f89565b5b50919050565b6000604082019050614ffe6000830185614c74565b61500b6020830184614c74565b9392505050565b600081905092915050565b6000615028826144c9565b6150328185615012565b93506150428185602086016144e5565b80840191505092915050565b600061505a828461501d565b915081905092915050565b600082825260208201905092915050565b7f4552523a206372656174654d617463682044656c65676174652063616c6c206660008201527f61696c6564210000000000000000000000000000000000000000000000000000602082015250565b60006150d2602683615065565b91506150dd82615076565b604082019050919050565b60006020820190508181036000830152615101816150c5565b9050919050565b7f4552523a2075706461746552657665616c496e666f2044656c6567617465206360008201527f616c6c206661696c656421000000000000000000000000000000000000000000602082015250565b6000615164602b83615065565b915061516f82615108565b604082019050919050565b6000602082019050818103600083015261519381615157565b9050919050565b60006060820190506151af600083018661441b565b6151bc6020830185614c74565b6151c96040830184614c74565b949350505050565b7f4552523a206a6f696e4d617463682044656c65676174652063616c6c2066616960008201527f6c65642100000000000000000000000000000000000000000000000000000000602082015250565b600061522d602483615065565b9150615238826151d1565b604082019050919050565b6000602082019050818103600083015261525c81615220565b9050919050565b600061526e82614411565b915061527983614411565b925082820190508082111561529157615290614ddc565b5b92915050565b7f4e487b7100000000000000000000000000000000000000000000000000000000600052604160045260246000fd5b7f4e487b7100000000000000000000000000000000000000000000000000000000600052603260045260246000fd5b600061530082614411565b91507fffffffffffffffffffffffffffffffffffffffffffffffffffffffffffffffff820361533257615331614ddc565b5b600182019050919050565b600061534882614411565b915061535383614411565b925082820390508181111561536b5761536a614ddc565b5b92915050565b7f4e487b7100000000000000000000000000000000000000000000000000000000600052601260045260246000fd5b60006153ab82614411565b91506153b683614411565b9250826153c6576153c5615371565b5b828204905092915050565b7f4552523a20636f6d6d69746d656e745469636b2044656c65676174652063616c60008201527f6c206661696c6564210000000000000000000000000000000000000000000000602082015250565b600061542d602983615065565b9150615438826153d1565b604082019050919050565b6000602082019050818103600083015261545c81615420565b9050919050565b7f4552523a20757064617465436f6d6d69746d656e74496e666f2044656c65676160008201527f74652063616c6c206661696c6564210000000000000000000000000000000000602082015250565b60006154bf602f83615065565b91506154ca82615463565b604082019050919050565b600060208201905081810360008301526154ee816154b2565b9050919050565b7f4552523a204d61746368206e6f7420696e20636f72726563742073746167652060008201527f746f20706572666f726d20612053746174652075706461746521000000000000602082015250565b6000615551603a83615065565b915061555c826154f5565b604082019050919050565b6000602082019050818103600083015261558081615544565b9050919050565b600060408201905061559c600083018561441b565b6155a96020830184614d96565b9392505050565b7f4552523a2072657665616c5469636b2044656c65676174652063616c6c20666160008201527f696c656421000000000000000000000000000000000000000000000000000000602082015250565b600061560c602583615065565b9150615617826155b0565b604082019050919050565b6000602082019050818103600083015261563b816155ff565b9050919050565b6000819050919050565b600061565782615642565b915061566283615642565b925082820390508181126000841216828213600085121516171561568957615688614ddc565b5b92915050565b600061569a82615642565b91506156a583615642565b92508282026156b381615642565b91507f800000000000000000000000000000000000000000000000000000000000000084146000841216156156eb576156ea614ddc565b5b8282058414831517615700576156ff614ddc565b5b5092915050565b600061571282615642565b915061571d83615642565b92508282019050828112156000831216838212600084121516171561574557615744614ddc565b5b92915050565b600061575682614411565b915061576183614411565b92508261577157615770615371565b5b828206905092915050565b7f4552523a205f696e697453746f72616765466f724d617463682044656c65676160008201527f74652063616c6c206661696c6564210000000000000000000000000000000000602082015250565b60006157d8602f83615065565b91506157e38261577c565b604082019050919050565b60006020820190508181036000830152615807816157cb565b9050919050565b7f4552523a205f736574506c6179657273546f496e697469616c506f736974696f60008201527f6e732044656c65676174652063616c6c206661696c6564210000000000000000602082015250565b600061586a603883615065565b91506158758261580e565b604082019050919050565b600060208201905081810360008301526158998161585d565b9050919050565b600060ff82169050919050565b60006158b882614411565b91506158c3836158a0565b92506158f07fffffffffffffffffffffffffffffffffffffffffffffffffffffffffffffffff8484614e6b565b90509291505056fea26469706673582212201ff9e41595eccb8188180a6c02501dd17a3e7275b4ae37818c15bc936d20dee264736f6c6343000812003360806040523480156200001157600080fd5b50604051620039e0380380620039e08339818101604052810190620000379190620000e8565b806000806101000a81548173ffffffffffffffffffffffffffffffffffffffff021916908373ffffffffffffffffffffffffffffffffffffffff160217905550506200011a565b600080fd5b600073ffffffffffffffffffffffffffffffffffffffff82169050919050565b6000620000b08262000083565b9050919050565b620000c281620000a3565b8114620000ce57600080fd5b50565b600081519050620000e281620000b7565b92915050565b6000602082840312156200010157620001006200007e565b5b60006200011184828501620000d1565b91505092915050565b6138b6806200012a6000396000f3fe608060405234801561001057600080fd5b50600436106101c45760003560e01c80635cd6925a116100f9578063ae5c135611610097578063d7dfa0dd11610071578063d7dfa0dd146104ec578063e3c8bfb91461050a578063ef9923c614610528578063f978103314610546576101c4565b8063ae5c13561461047e578063c8067b6f1461049c578063d79b490e146104ba576101c4565b8063755f10fd116100d3578063755f10fd146103f65780638ba47bdd1461042657806390ede5d514610444578063a67e38be14610460576101c4565b80635cd6925a1461039e578063705dd6cd146103ba578063734692a9146103d8576101c4565b806335868ab7116101665780634425601711610140578063442560171461032857806345baee551461034457806349bbc37a146103625780634ffdf11e14610380576101c4565b806335868ab7146102be57806337c74779146102da57806339febf0c1461030a576101c4565b80631b7d40a5116101a25780631b7d40a5146102215780631e20530a1461025657806322bfb7661461027257806327764f7d146102a2576101c4565b806301fd1951146101c957806307ae2a9c146101e7578063124a96c814610203575b600080fd5b6101d1610562565b6040516101de919061265c565b60405180910390f35b61020160048036038101906101fc91906126b7565b610568565b005b61020b610b8e565b604051610218919061265c565b60405180910390f35b61023b600480360381019061023691906126f7565b610b9f565b60405161024d969594939291906127f5565b60405180910390f35b610270600480360381019061026b91906128c2565b610d2f565b005b61028c600480360381019061028791906126b7565b610eba565b6040516102999190612902565b60405180910390f35b6102bc60048036038101906102b7919061291d565b610ee9565b005b6102d860048036038101906102d3919061294a565b6111dd565b005b6102f460048036038101906102ef919061291d565b6113dd565b604051610301919061265c565b60405180910390f35b6103126113f5565b60405161031f919061265c565b60405180910390f35b610342600480360381019061033d91906126b7565b6113fa565b005b61034c611736565b604051610359919061265c565b60405180910390f35b61036a61173b565b604051610377919061265c565b60405180910390f35b61038861174c565b604051610395919061265c565b60405180910390f35b6103b860048036038101906103b3919061291d565b611751565b005b6103c26119a0565b6040516103cf919061265c565b60405180910390f35b6103e06119a5565b6040516103ed919061265c565b60405180910390f35b610410600480360381019061040b919061291d565b6119aa565b60405161041d919061265c565b60405180910390f35b61042e6119c2565b60405161043b91906129ac565b60405180910390f35b61045e6004803603810190610459919061291d565b6119e8565b005b610468611cdc565b604051610475919061265c565b60405180910390f35b610486611ce1565b604051610493919061265c565b60405180910390f35b6104a4611ce6565b6040516104b1919061265c565b60405180910390f35b6104d460048036038101906104cf919061291d565b611ceb565b6040516104e393929190612a3e565b60405180910390f35b6104f4611d22565b60405161050191906129ac565b60405180910390f35b610512611d46565b60405161051f919061265c565b60405180910390f35b610530611d4b565b60405161053d919061265c565b60405180910390f35b610560600480360381019061055b919061291d565b611d50565b005b60025481565b60008060076000858152602001908152602001600020600084815260200190815260200160002082815481106105a1576105a0612a75565b5b9060005260206000209060060201905060005b600a8110156108755760008103610646576002600a60026105d59190612c06565b6105df9190612c80565b8260040182815481106105f5576105f4612a75565b5b90600052602060002001819055506002600960026106139190612c06565b61061d9190612c80565b82600501828154811061063357610632612a75565b5b9060005260206000200181905550610864565b6000811180156106565750600481105b156106f3576008600a600261066b9190612c06565b6106759190612c80565b60036106819190612cb1565b82600401828154811061069757610696612a75565b5b90600052602060002001819055506004600960026106b59190612c06565b6106bf9190612c80565b816106ca9190612cb1565b8260050182815481106106e0576106df612a75565b5b9060005260206000200181905550610863565b6003811180156107035750600881105b156107ac576008600a60026107189190612c06565b6107229190612c80565b600261072e9190612cb1565b82600401828154811061074457610743612a75565b5b90600052602060002001819055506005600960026107629190612c06565b61076c9190612c80565b6003826107799190612cf3565b6107839190612cb1565b82600501828154811061079957610798612a75565b5b9060005260206000200181905550610862565b6007811180156107bc5750600a81105b15610861576008600a60026107d19190612c06565b6107db9190612c80565b60016107e79190612cb1565b8260040182815481106107fd576107fc612a75565b5b906000526020600020018190555060036009600261081b9190612c06565b6108259190612c80565b6007826108329190612cf3565b61083c9190612cb1565b82600501828154811061085257610851612a75565b5b90600052602060002001819055505b5b5b5b8061086e90612d27565b90506105b4565b5060019150600060076000868152602001908152602001600020600085815260200190815260200160002083815481106108b2576108b1612a75565b5b9060005260206000209060060201905060005b600a811015610b865760008103610957576002600a60026108e69190612c06565b6108f09190612c80565b82600401828154811061090657610905612a75565b5b90600052602060002001819055506002600960026109249190612c06565b61092e9190612c80565b82600501828154811061094457610943612a75565b5b9060005260206000200181905550610b75565b6000811180156109675750600481105b15610a04576008600a600261097c9190612c06565b6109869190612c80565b60056109929190612cb1565b8260040182815481106109a8576109a7612a75565b5b90600052602060002001819055506004600960026109c69190612c06565b6109d09190612c80565b816109db9190612cb1565b8260050182815481106109f1576109f0612a75565b5b9060005260206000200181905550610b74565b600381118015610a145750600881105b15610abd576008600a6002610a299190612c06565b610a339190612c80565b6006610a3f9190612cb1565b826004018281548110610a5557610a54612a75565b5b9060005260206000200181905550600560096002610a739190612c06565b610a7d9190612c80565b600382610a8a9190612cf3565b610a949190612cb1565b826005018281548110610aaa57610aa9612a75565b5b9060005260206000200181905550610b73565b600781118015610acd5750600a81105b15610b72576008600a6002610ae29190612c06565b610aec9190612c80565b6007610af89190612cb1565b826004018281548110610b0e57610b0d612a75565b5b9060005260206000200181905550600360096002610b2c9190612c06565b610b369190612c80565b600782610b439190612cf3565b610b4d9190612cb1565b826005018281548110610b6357610b62612a75565b5b90600052602060002001819055505b5b5b5b80610b7f90612d27565b90506108c5565b505050505050565b60096002610b9c9190612c06565b81565b60086020528260005260406000206020528160005260406000208181548110610bc757600080fd5b90600052602060002090600802016000925092505050806000018054610bec90612d9e565b80601f0160208091040260200160405190810160405280929190818152602001828054610c1890612d9e565b8015610c655780601f10610c3a57610100808354040283529160200191610c65565b820191906000526020600020905b815481529060010190602001808311610c4857829003601f168201915b505050505090806001018054610c7a90612d9e565b80601f0160208091040260200160405190810160405280929190818152602001828054610ca690612d9e565b8015610cf35780601f10610cc857610100808354040283529160200191610cf3565b820191906000526020600020905b815481529060010190602001808311610cd657829003601f168201915b5050505050908060020154908060050160009054906101000a900460ff16908060060154908060070160009054906101000a900460ff16905086565b60006002549050610d418160006113fa565b610d4c816000610568565b600060036000838152602001908152602001600020905060018160030160006101000a81548160ff0219169083600a811115610d8b57610d8a6129c7565b5b02179055508381600101600081548110610da857610da7612a75565b5b9060005260206000200160006101000a81548173ffffffffffffffffffffffffffffffffffffffff021916908373ffffffffffffffffffffffffffffffffffffffff1602179055508281600201600081548110610e0857610e07612a75565b5b9060005260206000200160006101000a81548173ffffffffffffffffffffffffffffffffffffffff021916908373ffffffffffffffffffffffffffffffffffffffff160217905550600160026000828254610e639190612dcf565b925050819055507f58d4562cf15d1052e816fd24f6af2c8a3a21416d6e4c01a9e11ef84ffe537e25828260030160009054906101000a900460ff16604051610eac929190612e03565b60405180910390a150505050565b60096020528160005260406000206020528060005260406000206000915091509054906101000a900460ff1681565b60006003600083815260200190815260200160002090506007600a811115610f1457610f136129c7565b5b8160030160009054906101000a900460ff16600a811115610f3857610f376129c7565b5b14610f78576040517f08c379a0000000000000000000000000000000000000000000000000000000008152600401610f6f90612eaf565b60405180910390fd5b60005b600281101561108357816002018181548110610f9a57610f99612a75565b5b9060005260206000200160009054906101000a900473ffffffffffffffffffffffffffffffffffffffff1673ffffffffffffffffffffffffffffffffffffffff1663cce710636040518163ffffffff1660e01b8152600401602060405180830381865afa15801561100f573d6000803e3d6000fd5b505050506040513d601f19601f820116820180604052508101906110339190612efb565b611072576040517f08c379a000000000000000000000000000000000000000000000000000000000815260040161106990612f9a565b60405180910390fd5b8061107c90612d27565b9050610f7b565b5060005b60028110156111615761115083828460020184815481106110ab576110aa612a75565b5b9060005260206000200160009054906101000a900473ffffffffffffffffffffffffffffffffffffffff1673ffffffffffffffffffffffffffffffffffffffff16632f703e086040518163ffffffff1660e01b81526004016000604051808303816000875af1158015611122573d6000803e3d6000fd5b505050506040513d6000823e3d601f19601f8201168201806040525081019061114b91906130e0565b611f18565b8061115a90612d27565b9050611087565b5060088160030160006101000a81548160ff0219169083600a81111561118a576111896129c7565b5b02179055507f58d4562cf15d1052e816fd24f6af2c8a3a21416d6e4c01a9e11ef84ffe537e25828260030160009054906101000a900460ff166040516111d1929190612e03565b60405180910390a15050565b60006003600085815260200190815260200160002090506001600a811115611208576112076129c7565b5b8160030160009054906101000a900460ff16600a81111561122c5761122b6129c7565b5b1461126c576040517f08c379a00000000000000000000000000000000000000000000000000000000081526004016112639061319b565b60405180910390fd5b828160010160018154811061128457611283612a75565b5b9060005260206000200160006101000a81548173ffffffffffffffffffffffffffffffffffffffff021916908373ffffffffffffffffffffffffffffffffffffffff16021790555081816002016001815481106112e4576112e3612a75565b5b9060005260206000200160006101000a81548173ffffffffffffffffffffffffffffffffffffffff021916908373ffffffffffffffffffffffffffffffffffffffff16021790555060028160030160006101000a81548160ff0219169083600a811115611354576113536129c7565b5b021790555061136284612190565b61138d6105157e2c499549a97345e6ecbdafe0734efcb95d518f4c7fb70bcae861729678e165612249565b7f58d4562cf15d1052e816fd24f6af2c8a3a21416d6e4c01a9e11ef84ffe537e25848260030160009054906101000a900460ff166040516113cf929190612e03565b60405180910390a150505050565b60046020528060005260406000206000915090505481565b600581565b61141c604051806060016040528060248152602001613824602491398261230b565b600081036114bb5760005b60028110156114b95760036000848152602001908152602001600020600101600181600181540180825580915050039060005260206000200160009054906101000a90505060036000848152602001908152602001600020600201600181600181540180825580915050039060005260206000200160009054906101000a905050806114b290612d27565b9050611427565b505b60006006600084815260200190815260200160002060008381526020019081526020016000209050600060076000858152602001908152602001600020600084815260200190815260200160002090506000600860008681526020019081526020016000206000858152602001908152602001600020905060005b600281101561172e578360000160009080600181540180825580915050600190039060005260206000200160009091909190915055826001816001815401808255809150500390600052602060002090505060005b600a811015611663578382815481106115a7576115a6612a75565b5b9060005260206000209060060201600001600181600181540180825580915050039060005260206000209050508382815481106115e7576115e6612a75565b5b906000526020600020906006020160040160018160018154018082558091505003906000526020600020505083828154811061162657611625612a75565b5b90600052602060002090600602016005016001816001815401808255809150500390600052602060002050508061165c90612d27565b905061158b565b50816001816001815401808255809150500390600052602060002090505060005b600a81101561171c578282815481106116a05761169f612a75565b5b90600052602060002090600802016003016001816001815401808255809150500390600052602060002050508282815481106116df576116de612a75565b5b90600052602060002090600802016004016001816001815401808255809150500390600052602060002050508061171590612d27565b9050611684565b508061172790612d27565b9050611536565b505050505050565b600981565b600a60026117499190612c06565b81565b600a81565b60006003600083815260200190815260200160002090506004600a81111561177c5761177b6129c7565b5b8160030160009054906101000a900460ff16600a8111156117a05761179f6129c7565b5b14806117e157506009600a8111156117bb576117ba6129c7565b5b8160030160009054906101000a900460ff16600a8111156117df576117de6129c7565b5b145b611820576040517f08c379a00000000000000000000000000000000000000000000000000000000081526004016118179061322d565b60405180910390fd5b6004600a811115611834576118336129c7565b5b8160030160009054906101000a900460ff16600a811115611858576118576129c7565b5b0361186757611866826123a7565b5b60005b60028110156119245781600101818154811061188957611888612a75565b5b9060005260206000200160009054906101000a900473ffffffffffffffffffffffffffffffffffffffff1673ffffffffffffffffffffffffffffffffffffffff1663606deecd6040518163ffffffff1660e01b8152600401600060405180830381600087803b1580156118fb57600080fd5b505af115801561190f573d6000803e3d6000fd5b505050508061191d90612d27565b905061186a565b5060058160030160006101000a81548160ff0219169083600a81111561194d5761194c6129c7565b5b02179055507f58d4562cf15d1052e816fd24f6af2c8a3a21416d6e4c01a9e11ef84ffe537e25828260030160009054906101000a900460ff16604051611994929190612e03565b60405180910390a15050565b600a81565b600781565b60056020528060005260406000206000915090505481565b600160009054906101000a900473ffffffffffffffffffffffffffffffffffffffff1681565b60006003600083815260200190815260200160002090506005600a811115611a1357611a126129c7565b5b8160030160009054906101000a900460ff16600a811115611a3757611a366129c7565b5b14611a77576040517f08c379a0000000000000000000000000000000000000000000000000000000008152600401611a6e906132bf565b60405180910390fd5b60005b6002811015611b8257816001018181548110611a9957611a98612a75565b5b9060005260206000200160009054906101000a900473ffffffffffffffffffffffffffffffffffffffff1673ffffffffffffffffffffffffffffffffffffffff1663cce710636040518163ffffffff1660e01b8152600401602060405180830381865afa158015611b0e573d6000803e3d6000fd5b505050506040513d601f19601f82011682018060405250810190611b329190612efb565b611b71576040517f08c379a0000000000000000000000000000000000000000000000000000000008152600401611b6890612f9a565b60405180910390fd5b80611b7b90612d27565b9050611a7a565b5060005b6002811015611c6057611c4f8382846001018481548110611baa57611ba9612a75565b5b9060005260206000200160009054906101000a900473ffffffffffffffffffffffffffffffffffffffff1673ffffffffffffffffffffffffffffffffffffffff16632f703e086040518163ffffffff1660e01b81526004016000604051808303816000875af1158015611c21573d6000803e3d6000fd5b505050506040513d6000823e3d601f19601f82011682018060405250810190611c4a91906130e0565b612572565b80611c5990612d27565b9050611b86565b5060068160030160006101000a81548160ff0219169083600a811115611c8957611c886129c7565b5b02179055507f58d4562cf15d1052e816fd24f6af2c8a3a21416d6e4c01a9e11ef84ffe537e25828260030160009054906101000a900460ff16604051611cd0929190612e03565b60405180910390a15050565b600281565b600a81565b601981565b60036020528060005260406000206000915090508060000154908060030160009054906101000a900460ff16908060040154905083565b60008054906101000a900473ffffffffffffffffffffffffffffffffffffffff1681565b600281565b600281565b60006003600083815260200190815260200160002090506006600a811115611d7b57611d7a6129c7565b5b8160030160009054906101000a900460ff16600a811115611d9f57611d9e6129c7565b5b14611ddf576040517f08c379a0000000000000000000000000000000000000000000000000000000008152600401611dd690613351565b60405180910390fd5b60005b6002811015611e9c57816002018181548110611e0157611e00612a75565b5b9060005260206000200160009054906101000a900473ffffffffffffffffffffffffffffffffffffffff1673ffffffffffffffffffffffffffffffffffffffff1663606deecd6040518163ffffffff1660e01b8152600401600060405180830381600087803b158015611e7357600080fd5b505af1158015611e87573d6000803e3d6000fd5b5050505080611e9590612d27565b9050611de2565b5060078160030160006101000a81548160ff0219169083600a811115611ec557611ec46129c7565b5b02179055507f58d4562cf15d1052e816fd24f6af2c8a3a21416d6e4c01a9e11ef84ffe537e25828260030160009054906101000a900460ff16604051611f0c929190612e03565b60405180910390a15050565b6000600860008581526020019081526020016000206000600560008781526020019081526020016000205481526020019081526020016000208381548110611f6357611f62612a75565b5b9060005260206000209060080201905060008280519060200120604051602001611f8d919061338a565b604051602081830303815290604052905081600001604051611faf9190613448565b6040518091039020818051906020012014611fff576040517f08c379a0000000000000000000000000000000000000000000000000000000008152600401611ff6906134d1565b60405180910390fd5b828260010190816120109190613688565b5060008084806020019051810190612028919061376f565b9150915081846002018190555060006009600a6120459190612dcf565b905060005b600a8110156120fc57600082826120619190612cb1565b84901c90506001600a60026120769190612c06565b6120809190612cf3565b600982901c1687600301838154811061209c5761209b612a75565b5b90600052602060002001819055506001600960026120ba9190612c06565b6120c49190612cf3565b81168760040183815481106120dc576120db612a75565b5b906000526020600020018190555050806120f590612d27565b905061204a565b5060018560070160006101000a81548160ff0219169083151502179055506001806001600a8461212c9190612cb1565b6121369190612dcf565b84901c16148560050160006101000a81548160ff0219169083151502179055506000600f6002600a846121699190612cb1565b6121739190612dcf565b84901c169050600781168660060181905550505050505050505050565b600060036000838152602001908152602001600020905081600460006105158152602001908152602001600020819055506003600a8111156121d5576121d46129c7565b5b8160030160009054906101000a900460ff16600a8111156121f9576121f86129c7565b5b50507f58d4562cf15d1052e816fd24f6af2c8a3a21416d6e4c01a9e11ef84ffe537e25828260030160009054906101000a900460ff1660405161223d929190612e03565b60405180910390a15050565b60006003600060046000868152602001908152602001600020548152602001908152602001600020905081816000018190555060048160030160006101000a81548160ff0219169083600a8111156122a4576122a36129c7565b5b02179055507f58d4562cf15d1052e816fd24f6af2c8a3a21416d6e4c01a9e11ef84ffe537e2560046000858152602001908152602001600020548260030160009054906101000a900460ff166040516122fe929190612e03565b60405180910390a1505050565b6123a382826040516024016123219291906137f3565b6040516020818303038152906040527fb60e72cc000000000000000000000000000000000000000000000000000000007bffffffffffffffffffffffffffffffffffffffffffffffffffffffff19166020820180517bffffffffffffffffffffffffffffffffffffffffffffffffffffffff838183161783525050505061261a565b5050565b60006003600083815260200190815260200160002060000154905060005b600281101561256d576000600760008581526020019081526020016000206000808152602001908152602001600020828154811061240657612405612a75565b5b9060005260206000209060060201905060005b600a8110156124f4576000600b828560016124349190612dcf565b61243e9190612cb1565b6124489190612cb1565b85901c9050607f811683600001838154811061246757612466612a75565b5b906000526020600020906003020160000181905550607f600782901c1683600001838154811061249a57612499612a75565b5b906000526020600020906003020160010181905550607f600e82901c168360000183815481106124cd576124cc612a75565b5b90600052602060002090600302016002018190555050806124ed90612d27565b9050612419565b50607f60006015846125069190612cb1565b85901c901c168160010160000181905550607f60076015846125289190612cb1565b85901c901c168160010160010181905550607f600e60158461254a9190612cb1565b85901c901c168160010160020181905550508061256690612d27565b90506123c5565b505050565b6125a760405180606001604052806039815260200161384860399139600560008681526020019081526020016000205461230b565b60006008600085815260200190815260200160002060006005600087815260200190815260200160002054815260200190815260200160002083815481106125f2576125f1612a75565b5b90600052602060002090600802019050818160000190816126139190613688565b5050505050565b60008151905060006a636f6e736f6c652e6c6f679050602083016000808483855afa5050505050565b6000819050919050565b61265681612643565b82525050565b6000602082019050612671600083018461264d565b92915050565b6000604051905090565b600080fd5b600080fd5b61269481612643565b811461269f57600080fd5b50565b6000813590506126b18161268b565b92915050565b600080604083850312156126ce576126cd612681565b5b60006126dc858286016126a2565b92505060206126ed858286016126a2565b9150509250929050565b6000806000606084860312156127105761270f612681565b5b600061271e868287016126a2565b935050602061272f868287016126a2565b9250506040612740868287016126a2565b9150509250925092565b600081519050919050565b600082825260208201905092915050565b60005b83811015612784578082015181840152602081019050612769565b60008484015250505050565b6000601f19601f8301169050919050565b60006127ac8261274a565b6127b68185612755565b93506127c6818560208601612766565b6127cf81612790565b840191505092915050565b60008115159050919050565b6127ef816127da565b82525050565b600060c082019050818103600083015261280f81896127a1565b9050818103602083015261282381886127a1565b9050612832604083018761264d565b61283f60608301866127e6565b61284c608083018561264d565b61285960a08301846127e6565b979650505050505050565b600073ffffffffffffffffffffffffffffffffffffffff82169050919050565b600061288f82612864565b9050919050565b61289f81612884565b81146128aa57600080fd5b50565b6000813590506128bc81612896565b92915050565b600080604083850312156128d9576128d8612681565b5b60006128e7858286016128ad565b92505060206128f8858286016128ad565b9150509250929050565b600060208201905061291760008301846127e6565b92915050565b60006020828403121561293357612932612681565b5b6000612941848285016126a2565b91505092915050565b60008060006060848603121561296357612962612681565b5b6000612971868287016126a2565b9350506020612982868287016128ad565b9250506040612993868287016128ad565b9150509250925092565b6129a681612884565b82525050565b60006020820190506129c1600083018461299d565b92915050565b7f4e487b7100000000000000000000000000000000000000000000000000000000600052602160045260246000fd5b600b8110612a0757612a066129c7565b5b50565b6000819050612a18826129f6565b919050565b6000612a2882612a0a565b9050919050565b612a3881612a1d565b82525050565b6000606082019050612a53600083018661264d565b612a606020830185612a2f565b612a6d604083018461264d565b949350505050565b7f4e487b7100000000000000000000000000000000000000000000000000000000600052603260045260246000fd5b7f4e487b7100000000000000000000000000000000000000000000000000000000600052601160045260246000fd5b60008160011c9050919050565b6000808291508390505b6001851115612b2a57808604811115612b0657612b05612aa4565b5b6001851615612b155780820291505b8081029050612b2385612ad3565b9450612aea565b94509492505050565b600082612b435760019050612bff565b81612b515760009050612bff565b8160018114612b675760028114612b7157612ba0565b6001915050612bff565b60ff841115612b8357612b82612aa4565b5b8360020a915084821115612b9a57612b99612aa4565b5b50612bff565b5060208310610133831016604e8410600b8410161715612bd55782820a905083811115612bd057612bcf612aa4565b5b612bff565b612be28484846001612ae0565b92509050818404811115612bf957612bf8612aa4565b5b81810290505b9392505050565b6000612c1182612643565b9150612c1c83612643565b9250612c497fffffffffffffffffffffffffffffffffffffffffffffffffffffffffffffffff8484612b33565b905092915050565b7f4e487b7100000000000000000000000000000000000000000000000000000000600052601260045260246000fd5b6000612c8b82612643565b9150612c9683612643565b925082612ca657612ca5612c51565b5b828204905092915050565b6000612cbc82612643565b9150612cc783612643565b9250828202612cd581612643565b91508282048414831517612cec57612ceb612aa4565b5b5092915050565b6000612cfe82612643565b9150612d0983612643565b9250828203905081811115612d2157612d20612aa4565b5b92915050565b6000612d3282612643565b91507fffffffffffffffffffffffffffffffffffffffffffffffffffffffffffffffff8203612d6457612d63612aa4565b5b600182019050919050565b7f4e487b7100000000000000000000000000000000000000000000000000000000600052602260045260246000fd5b60006002820490506001821680612db657607f821691505b602082108103612dc957612dc8612d6f565b5b50919050565b6000612dda82612643565b9150612de583612643565b9250828201905080821115612dfd57612dfc612aa4565b5b92915050565b6000604082019050612e18600083018561264d565b612e256020830184612a2f565b9392505050565b600082825260208201905092915050565b7f4552523a204d61746368206e6f7420696e20636f72726563742073746167652060008201527f746f20726563656976652052657665616c732100000000000000000000000000602082015250565b6000612e99603383612e2c565b9150612ea482612e3d565b604082019050919050565b60006020820190508181036000830152612ec881612e8c565b9050919050565b612ed8816127da565b8114612ee357600080fd5b50565b600081519050612ef581612ecf565b92915050565b600060208284031215612f1157612f10612681565b5b6000612f1f84828501612ee6565b91505092915050565b7f4552523a204e6f7420616c6c207465616d73206861766520697373756564206360008201527f6f6d6d69746d656e747321000000000000000000000000000000000000000000602082015250565b6000612f84602b83612e2c565b9150612f8f82612f28565b604082019050919050565b60006020820190508181036000830152612fb381612f77565b9050919050565b600080fd5b600080fd5b7f4e487b7100000000000000000000000000000000000000000000000000000000600052604160045260246000fd5b612ffc82612790565b810181811067ffffffffffffffff8211171561301b5761301a612fc4565b5b80604052505050565b600061302e612677565b905061303a8282612ff3565b919050565b600067ffffffffffffffff82111561305a57613059612fc4565b5b61306382612790565b9050602081019050919050565b600061308361307e8461303f565b613024565b90508281526020810184848401111561309f5761309e612fbf565b5b6130aa848285612766565b509392505050565b600082601f8301126130c7576130c6612fba565b5b81516130d7848260208601613070565b91505092915050565b6000602082840312156130f6576130f5612681565b5b600082015167ffffffffffffffff81111561311457613113612686565b5b613120848285016130b2565b91505092915050565b7f4552523a20596f752063616e206f6e6c79206a6f696e2061206e65776c79206360008201527f726561746564206d617463682100000000000000000000000000000000000000602082015250565b6000613185602d83612e2c565b915061319082613129565b604082019050919050565b600060208201905081810360008301526131b481613178565b9050919050565b7f4552523a204d61746368206e6f7420696e20636f72726563742073746167652060008201527f746f20666574636820436f6d6d69746d656e7473210000000000000000000000602082015250565b6000613217603583612e2c565b9150613222826131bb565b604082019050919050565b600060208201905081810360008301526132468161320a565b9050919050565b7f4552523a204d61746368206e6f7420696e20636f72726563742073746167652060008201527f746f207265636569766520436f6d6d69746d656e747321000000000000000000602082015250565b60006132a9603783612e2c565b91506132b48261324d565b604082019050919050565b600060208201905081810360008301526132d88161329c565b9050919050565b7f4552523a204d61746368206e6f7420696e20636f72726563742073746167652060008201527f746f206665746368205265617665616c73210000000000000000000000000000602082015250565b600061333b603283612e2c565b9150613346826132df565b604082019050919050565b6000602082019050818103600083015261336a8161332e565b9050919050565b6000819050919050565b61338481613371565b82525050565b600060208201905061339f600083018461337b565b92915050565b600081905092915050565b60008190508160005260206000209050919050565b600081546133d281612d9e565b6133dc81866133a5565b945060018216600081146133f7576001811461340c5761343f565b60ff198316865281151582028601935061343f565b613415856133b0565b60005b8381101561343757815481890152600182019150602081019050613418565b838801955050505b50505092915050565b600061345482846133c5565b915081905092915050565b7f4552523a2052657665616c20646f65736e277420636f72726573706f6e64207460008201527f6f2074686520436f6d6d69746d656e7400000000000000000000000000000000602082015250565b60006134bb603083612e2c565b91506134c68261345f565b604082019050919050565b600060208201905081810360008301526134ea816134ae565b9050919050565b60006020601f8301049050919050565b600082821b905092915050565b60006008830261353e7fffffffffffffffffffffffffffffffffffffffffffffffffffffffffffffffff82613501565b6135488683613501565b95508019841693508086168417925050509392505050565b6000819050919050565b600061358561358061357b84612643565b613560565b612643565b9050919050565b6000819050919050565b61359f8361356a565b6135b36135ab8261358c565b84845461350e565b825550505050565b600090565b6135c86135bb565b6135d3818484613596565b505050565b5b818110156135f7576135ec6000826135c0565b6001810190506135d9565b5050565b601f82111561363c5761360d816133b0565b613616846134f1565b81016020851015613625578190505b613639613631856134f1565b8301826135d8565b50505b505050565b600082821c905092915050565b600061365f60001984600802613641565b1980831691505092915050565b6000613678838361364e565b9150826002028217905092915050565b6136918261274a565b67ffffffffffffffff8111156136aa576136a9612fc4565b5b6136b48254612d9e565b6136bf8282856135fb565b600060209050601f8311600181146136f257600084156136e0578287015190505b6136ea858261366c565b865550613752565b601f198416613700866133b0565b60005b8281101561372857848901518255600182019150602085019450602081019050613703565b868310156137455784890151613741601f89168261364e565b8355505b6001600288020188555050505b505050505050565b6000815190506137698161268b565b92915050565b6000806040838503121561378657613785612681565b5b60006137948582860161375a565b92505060206137a58582860161375a565b9150509250929050565b600081519050919050565b60006137c5826137af565b6137cf8185612e2c565b93506137df818560208601612766565b6137e881612790565b840191505092915050565b6000604082019050818103600083015261380d81856137ba565b905061381c602083018461264d565b939250505056fe494e495449414c495a494e47462053544f5241474520464f522053544154454944202573757064617465436f6d6d69746d656e74496e666f2c206d617463684964546f4d61746368537461746549645b6d6174636849645d203a202573a264697066735822122015141fa60c48363bd9d4f792c198208bd90ea606782f63c235c43a9345c1c97f64736f6c63430008120033",
  "linkReferences": {},
  "deployedLinkReferences": {}
}