{
  "_format": "hh-sol-artifact-1",
  "contractName": "GameLogic",
  "sourceName": "contracts/GameLogic.sol",
  "abi": [
    {
      "inputs": [],
      "stateMutability": "nonpayable",
      "type": "constructor"
    },
    {
      "anonymous": false,
      "inputs": [
        {
          "indexed": false,
          "internalType": "uint256",
          "name": "matchId",
          "type": "uint256"
        },
        {
          "indexed": false,
          "internalType": "enum Types.MATCH_STAGE",
          "name": "stage",
          "type": "uint8"
        }
      ],
      "name": "MatchEnteredStage",
      "type": "event"
    },
    {
      "inputs": [],
      "name": "BALL_STEPS_PER_MOVE",
      "outputs": [
        {
          "internalType": "uint256",
          "name": "",
          "type": "uint256"
        }
      ],
      "stateMutability": "view",
      "type": "function"
    },
    {
      "inputs": [],
      "name": "BITS_PER_PLAYER_X_POS",
      "outputs": [
        {
          "internalType": "uint256",
          "name": "",
          "type": "uint256"
        }
      ],
      "stateMutability": "view",
      "type": "function"
    },
    {
      "inputs": [],
      "name": "BITS_PER_PLAYER_Y_POS",
      "outputs": [
        {
          "internalType": "uint256",
          "name": "",
          "type": "uint256"
        }
      ],
      "stateMutability": "view",
      "type": "function"
    },
    {
      "inputs": [],
      "name": "FIELD_H",
      "outputs": [
        {
          "internalType": "uint256",
          "name": "",
          "type": "uint256"
        }
      ],
      "stateMutability": "view",
      "type": "function"
    },
    {
      "inputs": [],
      "name": "FIELD_W",
      "outputs": [
        {
          "internalType": "uint256",
          "name": "",
          "type": "uint256"
        }
      ],
      "stateMutability": "view",
      "type": "function"
    },
    {
      "inputs": [],
      "name": "MAX_BALL_DISTANCE_REQUIRED",
      "outputs": [
        {
          "internalType": "uint256",
          "name": "",
          "type": "uint256"
        }
      ],
      "stateMutability": "view",
      "type": "function"
    },
    {
      "inputs": [],
      "name": "NUMBER_OF_PLAYERS_PER_TEAM",
      "outputs": [
        {
          "internalType": "uint256",
          "name": "",
          "type": "uint256"
        }
      ],
      "stateMutability": "view",
      "type": "function"
    },
    {
      "inputs": [],
      "name": "NUMBER_OF_TEAMS",
      "outputs": [
        {
          "internalType": "uint256",
          "name": "",
          "type": "uint256"
        }
      ],
      "stateMutability": "view",
      "type": "function"
    },
    {
      "inputs": [],
      "name": "PLAYER_STEPS_PER_MOVE",
      "outputs": [
        {
          "internalType": "uint256",
          "name": "",
          "type": "uint256"
        }
      ],
      "stateMutability": "view",
      "type": "function"
    },
    {
      "inputs": [],
      "name": "STAMINA_REQUIREMENT_FOR_ADVANCEMENT",
      "outputs": [
        {
          "internalType": "uint256",
          "name": "",
          "type": "uint256"
        }
      ],
      "stateMutability": "view",
      "type": "function"
    },
    {
      "inputs": [
        {
          "internalType": "uint256",
          "name": "matchId",
          "type": "uint256"
        }
      ],
      "name": "commitmentTick",
      "outputs": [],
      "stateMutability": "nonpayable",
      "type": "function"
    },
    {
      "inputs": [],
      "name": "constants",
      "outputs": [
        {
          "internalType": "contract Constants",
          "name": "",
          "type": "address"
        }
      ],
      "stateMutability": "view",
      "type": "function"
    },
    {
      "inputs": [
        {
          "internalType": "address",
          "name": "team1_commitmentChainlinkFunctionConsumer",
          "type": "address"
        },
        {
          "internalType": "address",
          "name": "team1_revealChainlinkFunctionConsumer",
          "type": "address"
        }
      ],
      "name": "createMatch",
      "outputs": [],
      "stateMutability": "nonpayable",
      "type": "function"
    },
    {
      "inputs": [
        {
          "internalType": "uint256",
          "name": "matchId",
          "type": "uint256"
        },
        {
          "internalType": "uint256",
          "name": "stateId",
          "type": "uint256"
        }
      ],
      "name": "getProgression",
      "outputs": [
        {
          "components": [
            {
              "internalType": "uint256",
              "name": "startingTeamIdWithTheBall",
              "type": "uint256"
            },
            {
              "internalType": "uint256",
              "name": "startingPlayerIdWithTheBall",
              "type": "uint256"
            },
            {
              "internalType": "uint256",
              "name": "teamIdWithTheBall",
              "type": "uint256"
            },
            {
              "internalType": "uint256",
              "name": "playerIdWithTheBall",
              "type": "uint256"
            },
            {
              "internalType": "bool",
              "name": "ballWasWon",
              "type": "bool"
            },
            {
              "internalType": "uint256",
              "name": "ballWasWonByTeam",
              "type": "uint256"
            },
            {
              "internalType": "bool",
              "name": "interceptionOccured",
              "type": "bool"
            },
            {
              "internalType": "uint256",
              "name": "interceptionAchievedByTeam",
              "type": "uint256"
            },
            {
              "internalType": "uint256",
              "name": "ballXPos",
              "type": "uint256"
            },
            {
              "internalType": "uint256",
              "name": "ballYPos",
              "type": "uint256"
            },
            {
              "internalType": "bool",
              "name": "goalWasScored",
              "type": "bool"
            },
            {
              "internalType": "uint256",
              "name": "goalWasScoredByTeam",
              "type": "uint256"
            },
            {
              "components": [
                {
                  "components": [
                    {
                      "internalType": "uint256",
                      "name": "speed",
                      "type": "uint256"
                    },
                    {
                      "internalType": "uint256",
                      "name": "skill",
                      "type": "uint256"
                    },
                    {
                      "internalType": "uint256",
                      "name": "stamina",
                      "type": "uint256"
                    }
                  ],
                  "internalType": "struct Types.PlayerStats[]",
                  "name": "playerStats",
                  "type": "tuple[]"
                },
                {
                  "internalType": "uint256[]",
                  "name": "xPos",
                  "type": "uint256[]"
                },
                {
                  "internalType": "uint256[]",
                  "name": "yPos",
                  "type": "uint256[]"
                }
              ],
              "internalType": "struct Types.TeamState[]",
              "name": "teamState",
              "type": "tuple[]"
            }
          ],
          "internalType": "struct Types.ProgressionState[]",
          "name": "progression",
          "type": "tuple[]"
        }
      ],
      "stateMutability": "view",
      "type": "function"
    },
    {
      "inputs": [
        {
          "internalType": "uint256",
          "name": "matchId",
          "type": "uint256"
        },
        {
          "internalType": "uint256",
          "name": "stateId",
          "type": "uint256"
        },
        {
          "internalType": "uint256",
          "name": "progressionStep",
          "type": "uint256"
        },
        {
          "internalType": "uint256",
          "name": "teamId",
          "type": "uint256"
        }
      ],
      "name": "getTeamStateProgression",
      "outputs": [
        {
          "internalType": "uint256[10]",
          "name": "x_pos",
          "type": "uint256[10]"
        }
      ],
      "stateMutability": "view",
      "type": "function"
    },
    {
      "inputs": [
        {
          "internalType": "uint256",
          "name": "matchId",
          "type": "uint256"
        },
        {
          "internalType": "address",
          "name": "team2_commitmentChainlinkFunctionConsumer",
          "type": "address"
        },
        {
          "internalType": "address",
          "name": "team2_revealChainlinkFunctionConsumer",
          "type": "address"
        }
      ],
      "name": "joinMatch",
      "outputs": [],
      "stateMutability": "nonpayable",
      "type": "function"
    },
    {
      "inputs": [],
      "name": "logic",
      "outputs": [
        {
          "internalType": "address",
          "name": "",
          "type": "address"
        }
      ],
      "stateMutability": "view",
      "type": "function"
    },
    {
      "inputs": [],
      "name": "manager",
      "outputs": [
        {
          "internalType": "address",
          "name": "",
          "type": "address"
        }
      ],
      "stateMutability": "view",
      "type": "function"
    },
    {
      "inputs": [],
      "name": "matchCounter",
      "outputs": [
        {
          "internalType": "uint256",
          "name": "",
          "type": "uint256"
        }
      ],
      "stateMutability": "view",
      "type": "function"
    },
    {
      "inputs": [
        {
          "internalType": "uint256",
          "name": "",
          "type": "uint256"
        }
      ],
      "name": "matchIdToMatchStateId",
      "outputs": [
        {
          "internalType": "uint256",
          "name": "",
          "type": "uint256"
        }
      ],
      "stateMutability": "view",
      "type": "function"
    },
    {
      "inputs": [
        {
          "internalType": "uint256",
          "name": "",
          "type": "uint256"
        }
      ],
      "name": "matchInfo",
      "outputs": [
        {
          "internalType": "uint256",
          "name": "seed",
          "type": "uint256"
        },
        {
          "internalType": "enum Types.MATCH_STAGE",
          "name": "stage",
          "type": "uint8"
        },
        {
          "internalType": "uint256",
          "name": "stateId",
          "type": "uint256"
        }
      ],
      "stateMutability": "view",
      "type": "function"
    },
    {
      "inputs": [
        {
          "internalType": "uint256",
          "name": "matchId",
          "type": "uint256"
        }
      ],
      "name": "revealTick",
      "outputs": [],
      "stateMutability": "nonpayable",
      "type": "function"
    },
    {
      "inputs": [
        {
          "internalType": "uint256",
          "name": "",
          "type": "uint256"
        }
      ],
      "name": "seedRequestIdMatchId",
      "outputs": [
        {
          "internalType": "uint256",
          "name": "",
          "type": "uint256"
        }
      ],
      "stateMutability": "view",
      "type": "function"
    },
    {
      "inputs": [
        {
          "internalType": "uint256",
          "name": "matchId",
          "type": "uint256"
        }
      ],
      "name": "stateUpdate",
      "outputs": [],
      "stateMutability": "nonpayable",
      "type": "function"
    },
    {
      "inputs": [
        {
          "internalType": "uint256",
          "name": "",
          "type": "uint256"
        },
        {
          "internalType": "uint256",
          "name": "",
          "type": "uint256"
        },
        {
          "internalType": "uint256",
          "name": "",
          "type": "uint256"
        }
      ],
      "name": "teamMove",
      "outputs": [
        {
          "internalType": "bytes",
          "name": "commitment",
          "type": "bytes"
        },
        {
          "internalType": "bytes",
          "name": "reveal",
          "type": "bytes"
        },
        {
          "internalType": "bool",
          "name": "wantToPass",
          "type": "bool"
        },
        {
          "internalType": "uint256",
          "name": "receivingPlayerId",
          "type": "uint256"
        },
        {
          "internalType": "bool",
          "name": "wantToShoot",
          "type": "bool"
        }
      ],
      "stateMutability": "view",
      "type": "function"
    },
    {
      "inputs": [],
      "name": "ticker",
      "outputs": [
        {
          "internalType": "address",
          "name": "",
          "type": "address"
        }
      ],
      "stateMutability": "view",
      "type": "function"
    },
    {
      "inputs": [
        {
          "internalType": "uint256",
          "name": "matchId",
          "type": "uint256"
        }
      ],
      "name": "updateCommitmentInfo",
      "outputs": [],
      "stateMutability": "nonpayable",
      "type": "function"
    },
    {
      "inputs": [
        {
          "internalType": "uint256",
          "name": "matchId",
          "type": "uint256"
        }
      ],
      "name": "updateRevealInfo",
      "outputs": [],
      "stateMutability": "nonpayable",
      "type": "function"
    }
  ],
  "bytecode": "0x60806040523480156200001157600080fd5b506040516200002090620000fc565b604051809103906000f0801580156200003d573d6000803e3d6000fd5b506000806101000a81548173ffffffffffffffffffffffffffffffffffffffff021916908373ffffffffffffffffffffffffffffffffffffffff160217905550306040516200008c906200010a565b6200009891906200015d565b604051809103906000f080158015620000b5573d6000803e3d6000fd5b50600a60006101000a81548173ffffffffffffffffffffffffffffffffffffffff021916908373ffffffffffffffffffffffffffffffffffffffff1602179055506200017a565b61028d8062004f6a83390190565b613de280620051f783390190565b600073ffffffffffffffffffffffffffffffffffffffff82169050919050565b6000620001458262000118565b9050919050565b620001578162000138565b82525050565b60006020820190506200017460008301846200014c565b92915050565b614de0806200018a6000396000f3fe608060405234801561001057600080fd5b50600436106101c45760003560e01c8063705dd6cd116100f9578063c8067b6f11610097578063d7dfa0dd11610071578063d7dfa0dd14610501578063e3c8bfb91461051f578063e5bcd4501461053d578063f978103314610559576101c4565b8063c8067b6f14610481578063d5792e351461049f578063d79b490e146104cf576101c4565b8063755f10fd116100d3578063755f10fd146103f95780638ba47bdd1461042957806390ede5d514610447578063ae5c135614610463576101c4565b8063705dd6cd1461039f57806372de5b2f146103bd578063734692a9146103db576101c4565b806339febf0c11610166578063481c6a7511610140578063481c6a751461032957806349bbc37a146103475780634ffdf11e146103655780635cd6925a14610383576101c4565b806339febf0c146102bd57806344c1dc78146102db57806345baee551461030b576101c4565b80631e20530a116101a25780631e20530a1461023957806327764f7d1461025557806335868ab71461027157806337c747791461028d576101c4565b806301fd1951146101c9578063124a96c8146101e75780631b7d40a514610205575b600080fd5b6101d1610575565b6040516101de91906139c0565b60405180910390f35b6101ef61057b565b6040516101fc91906139c0565b60405180910390f35b61021f600480360381019061021a9190613a0c565b610581565b604051610230959493929190613b0a565b60405180910390f35b610253600480360381019061024e9190613bc9565b61070b565b005b61026f600480360381019061026a9190613c09565b61086f565b005b61028b60048036038101906102869190613c36565b6109d0565b005b6102a760048036038101906102a29190613c09565b610b37565b6040516102b491906139c0565b60405180910390f35b6102c5610b4f565b6040516102d291906139c0565b60405180910390f35b6102f560048036038101906102f09190613c89565b610b54565b6040516103029190614182565b60405180910390f35b610313611b92565b60405161032091906139c0565b60405180910390f35b610331611b97565b60405161033e91906141b3565b60405180910390f35b61034f611bbd565b60405161035c91906139c0565b60405180910390f35b61036d611bc3565b60405161037a91906139c0565b60405180910390f35b61039d60048036038101906103989190613c09565b611bc8565b005b6103a7611d29565b6040516103b491906139c0565b60405180910390f35b6103c5611d2e565b6040516103d2919061422d565b60405180910390f35b6103e3611d52565b6040516103f091906139c0565b60405180910390f35b610413600480360381019061040e9190613c09565b611d57565b60405161042091906139c0565b60405180910390f35b610431611d6f565b60405161043e91906141b3565b60405180910390f35b610461600480360381019061045c9190613c09565b611d95565b005b61046b611ef6565b60405161047891906139c0565b60405180910390f35b610489611efb565b60405161049691906139c0565b60405180910390f35b6104b960048036038101906104b49190614248565b611f00565b6040516104c69190614333565b60405180910390f35b6104e960048036038101906104e49190613c09565b611fb1565b6040516104f8939291906143c6565b60405180910390f35b610509611fe8565b60405161051691906141b3565b60405180910390f35b61052761200e565b60405161053491906139c0565b60405180910390f35b61055760048036038101906105529190613c09565b612013565b005b610573600480360381019061056e9190613c09565b6123ab565b005b60035481565b6101f481565b600960205282600052604060002060205281600052604060002081815481106105a957600080fd5b906000526020600020906007020160009250925050508060000180546105ce9061442c565b80601f01602080910402602001604051908101604052809291908181526020018280546105fa9061442c565b80156106475780601f1061061c57610100808354040283529160200191610647565b820191906000526020600020905b81548152906001019060200180831161062a57829003601f168201915b50505050509080600101805461065c9061442c565b80601f01602080910402602001604051908101604052809291908181526020018280546106889061442c565b80156106d55780601f106106aa576101008083540402835291602001916106d5565b820191906000526020600020905b8154815290600101906020018083116106b857829003601f168201915b5050505050908060040160009054906101000a900460ff16908060050154908060060160009054906101000a900460ff16905085565b600080600a60009054906101000a900473ffffffffffffffffffffffffffffffffffffffff1673ffffffffffffffffffffffffffffffffffffffff16848460405160240161075a92919061445d565b6040516020818303038152906040527f1e20530a000000000000000000000000000000000000000000000000000000007bffffffffffffffffffffffffffffffffffffffffffffffffffffffff19166020820180517bffffffffffffffffffffffffffffffffffffffffffffffffffffffff83818316178352505050506040516107e491906144c2565b600060405180830381855af49150503d806000811461081f576040519150601f19603f3d011682016040523d82523d6000602084013e610824565b606091505b509150915081610869576040517f08c379a00000000000000000000000000000000000000000000000000000000081526004016108609061455c565b60405180910390fd5b50505050565b600080600a60009054906101000a900473ffffffffffffffffffffffffffffffffffffffff1673ffffffffffffffffffffffffffffffffffffffff16836040516024016108bc91906139c0565b6040516020818303038152906040527f27764f7d000000000000000000000000000000000000000000000000000000007bffffffffffffffffffffffffffffffffffffffffffffffffffffffff19166020820180517bffffffffffffffffffffffffffffffffffffffffffffffffffffffff838183161783525050505060405161094691906144c2565b600060405180830381855af49150503d8060008114610981576040519150601f19603f3d011682016040523d82523d6000602084013e610986565b606091505b5091509150816109cb576040517f08c379a00000000000000000000000000000000000000000000000000000000081526004016109c2906145ee565b60405180910390fd5b505050565b600080600a60009054906101000a900473ffffffffffffffffffffffffffffffffffffffff1673ffffffffffffffffffffffffffffffffffffffff16858585604051602401610a219392919061460e565b6040516020818303038152906040527f35868ab7000000000000000000000000000000000000000000000000000000007bffffffffffffffffffffffffffffffffffffffffffffffffffffffff19166020820180517bffffffffffffffffffffffffffffffffffffffffffffffffffffffff8381831617835250505050604051610aab91906144c2565b600060405180830381855af49150503d8060008114610ae6576040519150601f19603f3d011682016040523d82523d6000602084013e610aeb565b606091505b509150915081610b30576040517f08c379a0000000000000000000000000000000000000000000000000000000008152600401610b27906146b7565b60405180910390fd5b5050505050565b60056020528060005260406000206000915090505481565b600581565b606060006008600085815260200190815260200160002060008481526020019081526020016000209050600081805480602002602001604051908101604052809291908181526020016000905b82821015610d00578382906000526020600020906003020160405180606001604052908160008201805480602002602001604051908101604052809291908181526020016000905b82821015610c395783829060005260206000209060030201604051806060016040529081600082015481526020016001820154815260200160028201548152505081526020019060010190610be9565b50505050815260200160018201805480602002602001604051908101604052809291908181526020018280548015610c9057602002820191906000526020600020905b815481526020019060010190808311610c7c575b5050505050815260200160028201805480602002602001604051908101604052809291908181526020018280548015610ce857602002820191906000526020600020905b815481526020019060010190808311610cd4575b50505050508152505081526020019060010190610ba1565b50505050905060005b6002811015610f5d57600a67ffffffffffffffff811115610d2d57610d2c6146d7565b5b604051908082528060200260200182016040528015610d6657816020015b610d536138d4565b815260200190600190039081610d4b5790505b50828281518110610d7a57610d79614706565b5b60200260200101516000018190525060005b600a811015610f4b57838281548110610da857610da7614706565b5b90600052602060002090600302016000018181548110610dcb57610dca614706565b5b90600052602060002090600302016040518060600160405290816000820154815260200160018201548152602001600282015481525050838381518110610e1557610e14614706565b5b6020026020010151600001518281518110610e3357610e32614706565b5b6020026020010181905250838281548110610e5157610e50614706565b5b90600052602060002090600302016001018181548110610e7457610e73614706565b5b9060005260206000200154838381518110610e9257610e91614706565b5b6020026020010151602001518281518110610eb057610eaf614706565b5b602002602001018181525050838281548110610ecf57610ece614706565b5b90600052602060002090600302016002018181548110610ef257610ef1614706565b5b9060005260206000200154838381518110610f1057610f0f614706565b5b6020026020010151604001518281518110610f2e57610f2d614706565b5b60200260200101818152505080610f4490614764565b9050610d8c565b5080610f5690614764565b9050610d09565b5060006009600087815260200190815260200160002060008681526020019081526020016000209050600081805480602002602001604051908101604052809291908181526020016000905b828210156111ef57838290600052602060002090600702016040518060e0016040529081600082018054610fdc9061442c565b80601f01602080910402602001604051908101604052809291908181526020018280546110089061442c565b80156110555780601f1061102a57610100808354040283529160200191611055565b820191906000526020600020905b81548152906001019060200180831161103857829003601f168201915b5050505050815260200160018201805461106e9061442c565b80601f016020809104026020016040519081016040528092919081815260200182805461109a9061442c565b80156110e75780601f106110bc576101008083540402835291602001916110e7565b820191906000526020600020905b8154815290600101906020018083116110ca57829003601f168201915b505050505081526020016002820180548060200260200160405190810160405280929190818152602001828054801561113f57602002820191906000526020600020905b81548152602001906001019080831161112b575b505050505081526020016003820180548060200260200160405190810160405280929190818152602001828054801561119757602002820191906000526020600020905b815481526020019060010190808311611183575b505050505081526020016004820160009054906101000a900460ff16151515158152602001600582015481526020016006820160009054906101000a900460ff16151515158152505081526020019060010190610fa9565b50505050905060005b600281101561132c5760005b600a81101561131a578382815481106112205761121f614706565b5b9060005260206000209060070201600201818154811061124357611242614706565b5b906000526020600020015483838151811061126157611260614706565b5b602002602001015160400151828151811061127f5761127e614706565b5b60200260200101818152505083828154811061129e5761129d614706565b5b906000526020600020906007020160030181815481106112c1576112c0614706565b5b90600052602060002001548383815181106112df576112de614706565b5b60200260200101516060015182815181106112fd576112fc614706565b5b6020026020010181815250508061131390614764565b9050611204565b508061132590614764565b90506111f8565b506007600561133b91906147ac565b67ffffffffffffffff811115611354576113536146d7565b5b60405190808252806020026020018201604052801561138d57816020015b61137a6138f5565b8152602001906001900390816113725790505b50945060005b600760056113a191906147ac565b811015611b875760008682815181106113bd576113bc614706565b5b60200260200101519050600267ffffffffffffffff8111156113e2576113e16146d7565b5b60405190808252806020026020018201604052801561141b57816020015b611408613963565b8152602001906001900390816114005790505b5081610180018190525060005b6002811015611568576000826101800151828151811061144b5761144a614706565b5b60200260200101519050600a67ffffffffffffffff8111156114705761146f6146d7565b5b6040519080825280602002602001820160405280156114a957816020015b6114966138d4565b81526020019060019003908161148e5790505b508160000181905250600a67ffffffffffffffff8111156114cd576114cc6146d7565b5b6040519080825280602002602001820160405280156114fb5781602001602082028036833780820191505090505b508160200181905250600a67ffffffffffffffff81111561151f5761151e6146d7565b5b60405190808252806020026020018201604052801561154d5781602001602082028036833780820191505090505b508160400181905250508061156190614764565b9050611428565b50600082036115a6578481610180018190525061159f8760008151811061159257611591614706565b5b602002602001015161250c565b5050611b76565b866001836115b491906147e0565b815181106115c5576115c4614706565b5b60200260200101518783815181106115e0576115df614706565b5b602002602001018190525060005b60028110156118fb57600a67ffffffffffffffff811115611612576116116146d7565b5b60405190808252806020026020018201604052801561164b57816020015b6116386138d4565b8152602001906001900390816116305790505b5088848151811061165f5761165e614706565b5b60200260200101516101800151828151811061167e5761167d614706565b5b60200260200101516000018190525060005b600a8110156118e957886001856116a791906147e0565b815181106116b8576116b7614706565b5b6020026020010151610180015182815181106116d7576116d6614706565b5b60200260200101516000015181815181106116f5576116f4614706565b5b60200260200101518985815181106117105761170f614706565b5b60200260200101516101800151838151811061172f5761172e614706565b5b602002602001015160000151828151811061174d5761174c614706565b5b60200260200101819052508860018561176691906147e0565b8151811061177757611776614706565b5b60200260200101516101800151828151811061179657611795614706565b5b60200260200101516020015181815181106117b4576117b3614706565b5b60200260200101518985815181106117cf576117ce614706565b5b6020026020010151610180015183815181106117ee576117ed614706565b5b602002602001015160200151828151811061180c5761180b614706565b5b6020026020010181815250508860018561182691906147e0565b8151811061183757611836614706565b5b60200260200101516101800151828151811061185657611855614706565b5b602002602001015160400151818151811061187457611873614706565b5b602002602001015189858151811061188f5761188e614706565b5b6020026020010151610180015183815181106118ae576118ad614706565b5b60200260200101516040015182815181106118cc576118cb614706565b5b602002602001018181525050806118e290614764565b9050611690565b50806118f490614764565b90506115ee565b506005821015611a355760005b60028110156119ad5760005b600a81101561199b5761196c878684848d60018a61193291906147e0565b8151811061194357611942614706565b5b60200260200101518e8a8151811061195e5761195d614706565b5b60200260200101518a61259f565b89858151811061197f5761197e614706565b5b60200260200101819052508061199490614764565b9050611914565b50806119a690614764565b9050611908565b506119d18783815181106119c4576119c3614706565b5b602002602001015161250c565b8783815181106119e4576119e3614706565b5b6020026020010181905250611a12878381518110611a0557611a04614706565b5b6020026020010151612cc1565b878381518110611a2557611a24614706565b5b6020026020010181905250611b74565b60001515878381518110611a4c57611a4b614706565b5b602002602001015160c001511515148015611aa3575086600081518110611a7657611a75614706565b5b602002602001015160400151878381518110611a9557611a94614706565b5b602002602001015160400151145b15611b7357611b548760016005611aba91906147e0565b81518110611acb57611aca614706565b5b602002602001015188600081518110611ae757611ae6614706565b5b602002602001015160400151858a600187611b0291906147e0565b81518110611b1357611b12614706565b5b60200260200101518b8781518110611b2e57611b2d614706565b5b60200260200101516005886001611b4591906147ac565b611b4f91906147e0565b612d90565b878381518110611b6757611b66614706565b5b60200260200101819052505b5b505b80611b8090614764565b9050611393565b505050505092915050565b600981565b600a60009054906101000a900473ffffffffffffffffffffffffffffffffffffffff1681565b6103e881565b600a81565b600080600a60009054906101000a900473ffffffffffffffffffffffffffffffffffffffff1673ffffffffffffffffffffffffffffffffffffffff1683604051602401611c1591906139c0565b6040516020818303038152906040527f5cd6925a000000000000000000000000000000000000000000000000000000007bffffffffffffffffffffffffffffffffffffffffffffffffffffffff19166020820180517bffffffffffffffffffffffffffffffffffffffffffffffffffffffff8381831617835250505050604051611c9f91906144c2565b600060405180830381855af49150503d8060008114611cda576040519150601f19603f3d011682016040523d82523d6000602084013e611cdf565b606091505b509150915081611d24576040517f08c379a0000000000000000000000000000000000000000000000000000000008152600401611d1b90614886565b60405180910390fd5b505050565b600a81565b60008054906101000a900473ffffffffffffffffffffffffffffffffffffffff1681565b600781565b60066020528060005260406000206000915090505481565b600260009054906101000a900473ffffffffffffffffffffffffffffffffffffffff1681565b600080600a60009054906101000a900473ffffffffffffffffffffffffffffffffffffffff1673ffffffffffffffffffffffffffffffffffffffff1683604051602401611de291906139c0565b6040516020818303038152906040527f90ede5d5000000000000000000000000000000000000000000000000000000007bffffffffffffffffffffffffffffffffffffffffffffffffffffffff19166020820180517bffffffffffffffffffffffffffffffffffffffffffffffffffffffff8381831617835250505050604051611e6c91906144c2565b600060405180830381855af49150503d8060008114611ea7576040519150601f19603f3d011682016040523d82523d6000602084013e611eac565b606091505b509150915081611ef1576040517f08c379a0000000000000000000000000000000000000000000000000000000008152600401611ee890614918565b60405180910390fd5b505050565b600a81565b600581565b611f08613984565b6000611f148686610b54565b905060005b600a811015611fa757818581518110611f3557611f34614706565b5b602002602001015161018001518481518110611f5457611f53614706565b5b6020026020010151602001518181518110611f7257611f71614706565b5b60200260200101518382600a8110611f8d57611f8c614706565b5b60200201818152505080611fa090614764565b9050611f19565b5050949350505050565b60046020528060005260406000206000915090508060000154908060030160009054906101000a900460ff16908060040154905083565b600160009054906101000a900473ffffffffffffffffffffffffffffffffffffffff1681565b600281565b60006004600083815260200190815260200160002090506008600a81111561203e5761203d61434f565b5b8160030160009054906101000a900460ff16600a8111156120625761206161434f565b5b146120a2576040517f08c379a0000000000000000000000000000000000000000000000000000000008152600401612099906149aa565b60405180910390fd5b60006006600084815260200190815260200160002054905060006120c68483610b54565b9050600081600183516120d991906147e0565b815181106120ea576120e9614706565b5b602002602001015161018001519050600060086000878152602001908152602001600020600060018661211d91906147ac565b8152602001908152602001600020905060005b60028110156123005760005b600a8110156122ee5783828151811061215857612157614706565b5b602002602001015160000151818151811061217657612175614706565b5b602002602001015183838154811061219157612190614706565b5b906000526020600020906003020160000182815481106121b4576121b3614706565b5b90600052602060002090600302016000820151816000015560208201518160010155604082015181600201559050508382815181106121f6576121f5614706565b5b602002602001015160200151818151811061221457612213614706565b5b602002602001015183838154811061222f5761222e614706565b5b9060005260206000209060030201600101828154811061225257612251614706565b5b906000526020600020018190555083828151811061227357612272614706565b5b602002602001015160400151818151811061229157612290614706565b5b60200260200101518383815481106122ac576122ab614706565b5b906000526020600020906003020160020182815481106122cf576122ce614706565b5b9060005260206000200181905550806122e790614764565b905061213c565b50806122f990614764565b9050612130565b50600160066000888152602001908152602001600020600082825461232591906147ac565b9250508190555060098560030160006101000a81548160ff0219169083600a8111156123545761235361434f565b5b02179055507f58d4562cf15d1052e816fd24f6af2c8a3a21416d6e4c01a9e11ef84ffe537e25868660030160009054906101000a900460ff1660405161239b9291906149ca565b60405180910390a1505050505050565b600080600a60009054906101000a900473ffffffffffffffffffffffffffffffffffffffff1673ffffffffffffffffffffffffffffffffffffffff16836040516024016123f891906139c0565b6040516020818303038152906040527ff9781033000000000000000000000000000000000000000000000000000000007bffffffffffffffffffffffffffffffffffffffffffffffffffffffff19166020820180517bffffffffffffffffffffffffffffffffffffffffffffffffffffffff838183161783525050505060405161248291906144c2565b600060405180830381855af49150503d80600081146124bd576040519150601f19603f3d011682016040523d82523d6000602084013e6124c2565b606091505b509150915081612507576040517f08c379a00000000000000000000000000000000000000000000000000000000081526004016124fe90614a65565b60405180910390fd5b505050565b6125146138f5565b600082610180015183604001518151811061253257612531614706565b5b60200260200101519050806020015183606001518151811061255757612556614706565b5b602002602001015183610100018181525050806040015183606001518151811061258457612583614706565b5b60200260200101518361012001818152505082915050919050565b6125a76138f5565b600060405180604001604052808989815181106125c7576125c6614706565b5b60200260200101516040015188815181106125e5576125e4614706565b5b6020026020010151815260200189898151811061260557612604614706565b5b602002602001015160600151888151811061262357612622614706565b5b60200260200101518152509050600060405180604001604052808b8a815181106126505761264f614706565b5b602002602001015160200151898151811061266e5761266d614706565b5b602002602001015181526020018b8a8151811061268e5761268d614706565b5b60200260200101516040015189815181106126ac576126ab614706565b5b60200260200101518152509050600060405180604001604052808861018001518b815181106126de576126dd614706565b5b6020026020010151602001518a815181106126fc576126fb614706565b5b602002602001015181526020018861018001518b8151811061272157612720614706565b5b6020026020010151604001518a8151811061273f5761273e614706565b5b60200260200101518152509050826000600281106127605761275f614706565b5b60200201518160006002811061277957612778614706565b5b60200201511480156127ba57508060016002811061279a57612799614706565b5b6020020151816001600281106127b3576127b2614706565b5b6020020151145b156127ca57859350505050612cb6565b60006040518060400160405280846000600281106127eb576127ea614706565b5b60200201518660006002811061280457612803614706565b5b60200201516128139190614a8f565b81526020018460016002811061282c5761282b614706565b5b60200201518660016002811061284557612844614706565b5b60200201516128549190614a8f565b815250905060008160016002811061286f5761286e614706565b5b60200201518260016002811061288857612887614706565b5b60200201516128979190614ad2565b826000600281106128ab576128aa614706565b5b6020020151836000600281106128c4576128c3614706565b5b60200201516128d39190614ad2565b6128dd9190614b4a565b905060008961018001518c815181106128f9576128f8614706565b5b6020026020010151600001518b8151811061291757612916614706565b5b60200260200101519050600115612cac576000604051806040016040528060008660006002811061294b5761294a614706565b5b6020020151136129c55760058960006002811061296b5761296a614706565b5b60200201518960006002811061298457612983614706565b5b602002015161299391906147e0565b61299d9190614bbd565b876000600281106129b1576129b0614706565b5b60200201516129c091906147e0565b612a31565b6005886000600281106129db576129da614706565b5b60200201518a6000600281106129f4576129f3614706565b5b6020020151612a0391906147e0565b612a0d9190614bbd565b87600060028110612a2157612a20614706565b5b6020020151612a3091906147ac565b5b8152602001600086600160028110612a4c57612a4b614706565b5b602002015113612ac657600589600160028110612a6c57612a6b614706565b5b602002015189600160028110612a8557612a84614706565b5b6020020151612a9491906147e0565b612a9e9190614bbd565b87600160028110612ab257612ab1614706565b5b6020020151612ac191906147e0565b612b32565b600588600160028110612adc57612adb614706565b5b60200201518a600160028110612af557612af4614706565b5b6020020151612b0491906147e0565b612b0e9190614bbd565b87600160028110612b2257612b21614706565b5b6020020151612b3191906147ac565b5b815250905060058903612bac5786600060028110612b5357612b52614706565b5b602002015181600060028110612b6c57612b6b614706565b5b60200201818152505086600160028110612b8957612b88614706565b5b602002015181600160028110612ba257612ba1614706565b5b6020020181815250505b6103e881600060028110612bc357612bc2614706565b5b6020020151108015612bee57506101f481600060028110612be757612be6614706565b5b6020020151105b15612caa5780600060028110612c0757612c06614706565b5b60200201518a61018001518e81518110612c2457612c23614706565b5b6020026020010151602001518d81518110612c4257612c41614706565b5b60200260200101818152505080600160028110612c6257612c61614706565b5b60200201518a61018001518e81518110612c7f57612c7e614706565b5b6020026020010151604001518d81518110612c9d57612c9c614706565b5b6020026020010181815250505b505b8896505050505050505b979650505050505050565b612cc96138f5565b6000826040015190506000836060015190506000826001612cea91906147e0565b905060005b600a811015612d84576005612d078786868686613332565b1015612d7357600080612d21888960400151878787613568565b9150915087604001518214612d70576001886080019015159081151581525050838860a00181815250508088606001818152505085886000018181525050848860200181815250505050612d84565b50505b80612d7d90614764565b9050612cef565b50849350505050919050565b612d986138f5565b600060405180604001604052808961018001518981518110612dbd57612dbc614706565b5b602002602001015160200151888a81518110612ddc57612ddb614706565b5b602002602001015160a0015181518110612df957612df8614706565b5b602002602001015181526020018961018001518981518110612e1e57612e1d614706565b5b602002602001015160400151888a81518110612e3d57612e3c614706565b5b602002602001015160a0015181518110612e5a57612e59614706565b5b60200260200101518152509050600060405180604001604052808a610100015181526020018a61012001518152509050600060405180604001604052808861010001518152602001886101200151815250905082600060028110612ec157612ec0614706565b5b602002015181600060028110612eda57612ed9614706565b5b6020020151148015612f1b575080600160028110612efb57612efa614706565b5b602002015181600160028110612f1457612f13614706565b5b6020020151145b15612f715782600060028110612f3457612f33614706565b5b60200201518661010001818152505082600160028110612f5757612f56614706565b5b602002015186610120018181525050859350505050613328565b6000604051806040016040528084600060028110612f9257612f91614706565b5b602002015186600060028110612fab57612faa614706565b5b6020020151612fba9190614a8f565b815260200184600160028110612fd357612fd2614706565b5b602002015186600160028110612fec57612feb614706565b5b6020020151612ffb9190614a8f565b81525090506000604051806040016040528060008460006002811061302357613022614706565b5b60200201511361309d5760078760006002811061304357613042614706565b5b60200201518760006002811061305c5761305b614706565b5b602002015161306b91906147e0565b6130759190614bbd565b8560006002811061308957613088614706565b5b602002015161309891906147e0565b613109565b6007866000600281106130b3576130b2614706565b5b6020020151886000600281106130cc576130cb614706565b5b60200201516130db91906147e0565b6130e59190614bbd565b856000600281106130f9576130f8614706565b5b602002015161310891906147ac565b5b815260200160008460016002811061312457613123614706565b5b60200201511361319e5760078760016002811061314457613143614706565b5b60200201518760016002811061315d5761315c614706565b5b602002015161316c91906147e0565b6131769190614bbd565b8560016002811061318a57613189614706565b5b602002015161319991906147e0565b61320a565b6007866001600281106131b4576131b3614706565b5b6020020151886001600281106131cd576131cc614706565b5b60200201516131dc91906147e0565b6131e69190614bbd565b856001600281106131fa576131f9614706565b5b602002015161320991906147ac565b5b815250905060058703613284578460006002811061322b5761322a614706565b5b60200201518160006002811061324457613243614706565b5b6020020181815250508460016002811061326157613260614706565b5b60200201518160016002811061327a57613279614706565b5b6020020181815250505b6103e88160006002811061329b5761329a614706565b5b60200201511080156132c657506101f4816000600281106132bf576132be614706565b5b6020020151105b1561331257806000600281106132df576132de614706565b5b6020020151886101000181815250508060016002811061330257613301614706565b5b6020020151886101200181815250505b6133208c8c8c8c8c8c613687565b955050505050505b9695505050505050565b600080866101800151868151811061334d5761334c614706565b5b602002602001015190506000876101800151858151811061337157613370614706565b5b6020026020010151905060008160200151858151811061339457613393614706565b5b6020026020010151836020015188815181106133b3576133b2614706565b5b60200260200101511161340d57826020015187815181106133d7576133d6614706565b5b6020026020010151826020015186815181106133f6576133f5614706565b5b602002602001015161340891906147e0565b613456565b8160200151858151811061342457613423614706565b5b60200260200101518360200151888151811061344357613442614706565b5b602002602001015161345591906147e0565b5b905060008260400151868151811061347157613470614706565b5b6020026020010151846040015189815181106134905761348f614706565b5b6020026020010151116134ea57836040015188815181106134b4576134b3614706565b5b6020026020010151836040015187815181106134d3576134d2614706565b5b60200260200101516134e591906147e0565b613533565b8260400151868151811061350157613500614706565b5b6020026020010151846040015189815181106135205761351f614706565b5b602002602001015161353291906147e0565b5b90506002816135429190614d2e565b60028361354f9190614d2e565b61355991906147ac565b94505050505095945050505050565b60008060006001886101800151888151811061358757613586614706565b5b60200260200101516000015187815181106135a5576135a4614706565b5b60200260200101516020015189610180015189815181106135c9576135c8614706565b5b60200260200101516000015188815181106135e7576135e6614706565b5b6020026020010151602001516135fd91906147ac565b61360791906147ac565b90506000613613613751565b905081816136219190614d79565b896101800151898151811061363957613638614706565b5b602002602001015160000151888151811061365757613656614706565b5b60200260200101516020015110156136745787935086925061367b565b8593508492505b50509550959350505050565b61368f6138f5565b6000876040015160016136a291906147e0565b905060005b600a8110156137425760056136bd86848461375b565b1015613731576000806136db8b8c604001518d602001518787613568565b915091508a60400151821461372e576001876080019015159081151581525050838760a001818152505080876060018181525050898760000181815250508a602001518760200181815250505050613742565b50505b8061373b90614764565b90506136a7565b50839150509695505050505050565b6000610515905090565b600080846101800151848151811061377657613775614706565b5b6020026020010151905060008160200151848151811061379957613798614706565b5b6020026020010151866101000151116137e057856101000151826020015185815181106137c9576137c8614706565b5b60200260200101516137db91906147e0565b613810565b816020015184815181106137f7576137f6614706565b5b602002602001015186610100015161380f91906147e0565b5b905060008260400151858151811061382b5761382a614706565b5b602002602001015187610120015111613872578661012001518360400151868151811061385b5761385a614706565b5b602002602001015161386d91906147e0565b6138a2565b8260400151858151811061388957613888614706565b5b60200260200101518761012001516138a191906147e0565b5b90506002816138b19190614d2e565b6002836138be9190614d2e565b6138c891906147ac565b93505050509392505050565b60405180606001604052806000815260200160008152602001600081525090565b604051806101a00160405280600081526020016000815260200160008152602001600081526020016000151581526020016000815260200160001515815260200160008152602001600081526020016000815260200160001515815260200160008152602001606081525090565b60405180606001604052806060815260200160608152602001606081525090565b604051806101400160405280600a90602082028036833780820191505090505090565b6000819050919050565b6139ba816139a7565b82525050565b60006020820190506139d560008301846139b1565b92915050565b600080fd5b6139e9816139a7565b81146139f457600080fd5b50565b600081359050613a06816139e0565b92915050565b600080600060608486031215613a2557613a246139db565b5b6000613a33868287016139f7565b9350506020613a44868287016139f7565b9250506040613a55868287016139f7565b9150509250925092565b600081519050919050565b600082825260208201905092915050565b60005b83811015613a99578082015181840152602081019050613a7e565b60008484015250505050565b6000601f19601f8301169050919050565b6000613ac182613a5f565b613acb8185613a6a565b9350613adb818560208601613a7b565b613ae481613aa5565b840191505092915050565b60008115159050919050565b613b0481613aef565b82525050565b600060a0820190508181036000830152613b248188613ab6565b90508181036020830152613b388187613ab6565b9050613b476040830186613afb565b613b5460608301856139b1565b613b616080830184613afb565b9695505050505050565b600073ffffffffffffffffffffffffffffffffffffffff82169050919050565b6000613b9682613b6b565b9050919050565b613ba681613b8b565b8114613bb157600080fd5b50565b600081359050613bc381613b9d565b92915050565b60008060408385031215613be057613bdf6139db565b5b6000613bee85828601613bb4565b9250506020613bff85828601613bb4565b9150509250929050565b600060208284031215613c1f57613c1e6139db565b5b6000613c2d848285016139f7565b91505092915050565b600080600060608486031215613c4f57613c4e6139db565b5b6000613c5d868287016139f7565b9350506020613c6e86828701613bb4565b9250506040613c7f86828701613bb4565b9150509250925092565b60008060408385031215613ca057613c9f6139db565b5b6000613cae858286016139f7565b9250506020613cbf858286016139f7565b9150509250929050565b600081519050919050565b600082825260208201905092915050565b6000819050602082019050919050565b613cfe816139a7565b82525050565b613d0d81613aef565b82525050565b600081519050919050565b600082825260208201905092915050565b6000819050602082019050919050565b600081519050919050565b600082825260208201905092915050565b6000819050602082019050919050565b606082016000820151613d816000850182613cf5565b506020820151613d946020850182613cf5565b506040820151613da76040850182613cf5565b50505050565b6000613db98383613d6b565b60608301905092915050565b6000602082019050919050565b6000613ddd82613d3f565b613de78185613d4a565b9350613df283613d5b565b8060005b83811015613e23578151613e0a8882613dad565b9750613e1583613dc5565b925050600181019050613df6565b5085935050505092915050565b600081519050919050565b600082825260208201905092915050565b6000819050602082019050919050565b6000613e688383613cf5565b60208301905092915050565b6000602082019050919050565b6000613e8c82613e30565b613e968185613e3b565b9350613ea183613e4c565b8060005b83811015613ed2578151613eb98882613e5c565b9750613ec483613e74565b925050600181019050613ea5565b5085935050505092915050565b60006060830160008301518482036000860152613efc8282613dd2565b91505060208301518482036020860152613f168282613e81565b91505060408301518482036040860152613f308282613e81565b9150508091505092915050565b6000613f498383613edf565b905092915050565b6000602082019050919050565b6000613f6982613d13565b613f738185613d1e565b935083602082028501613f8585613d2f565b8060005b85811015613fc15784840389528151613fa28582613f3d565b9450613fad83613f51565b925060208a01995050600181019050613f89565b50829750879550505050505092915050565b60006101a083016000830151613fec6000860182613cf5565b506020830151613fff6020860182613cf5565b5060408301516140126040860182613cf5565b5060608301516140256060860182613cf5565b5060808301516140386080860182613d04565b5060a083015161404b60a0860182613cf5565b5060c083015161405e60c0860182613d04565b5060e083015161407160e0860182613cf5565b50610100830151614086610100860182613cf5565b5061012083015161409b610120860182613cf5565b506101408301516140b0610140860182613d04565b506101608301516140c5610160860182613cf5565b506101808301518482036101808601526140df8282613f5e565b9150508091505092915050565b60006140f88383613fd3565b905092915050565b6000602082019050919050565b600061411882613cc9565b6141228185613cd4565b93508360208202850161413485613ce5565b8060005b85811015614170578484038952815161415185826140ec565b945061415c83614100565b925060208a01995050600181019050614138565b50829750879550505050505092915050565b6000602082019050818103600083015261419c818461410d565b905092915050565b6141ad81613b8b565b82525050565b60006020820190506141c860008301846141a4565b92915050565b6000819050919050565b60006141f36141ee6141e984613b6b565b6141ce565b613b6b565b9050919050565b6000614205826141d8565b9050919050565b6000614217826141fa565b9050919050565b6142278161420c565b82525050565b6000602082019050614242600083018461421e565b92915050565b60008060008060808587031215614262576142616139db565b5b6000614270878288016139f7565b9450506020614281878288016139f7565b9350506040614292878288016139f7565b92505060606142a3878288016139f7565b91505092959194509250565b6000600a9050919050565b600081905092915050565b6000819050919050565b6000602082019050919050565b6142e5816142af565b6142ef81846142ba565b92506142fa826142c5565b8060005b8381101561432b5781516143128782613e5c565b965061431d836142cf565b9250506001810190506142fe565b505050505050565b60006101408201905061434960008301846142dc565b92915050565b7f4e487b7100000000000000000000000000000000000000000000000000000000600052602160045260246000fd5b600b811061438f5761438e61434f565b5b50565b60008190506143a08261437e565b919050565b60006143b082614392565b9050919050565b6143c0816143a5565b82525050565b60006060820190506143db60008301866139b1565b6143e860208301856143b7565b6143f560408301846139b1565b949350505050565b7f4e487b7100000000000000000000000000000000000000000000000000000000600052602260045260246000fd5b6000600282049050600182168061444457607f821691505b602082108103614457576144566143fd565b5b50919050565b600060408201905061447260008301856141a4565b61447f60208301846141a4565b9392505050565b600081905092915050565b600061449c82613a5f565b6144a68185614486565b93506144b6818560208601613a7b565b80840191505092915050565b60006144ce8284614491565b915081905092915050565b600082825260208201905092915050565b7f4552523a206372656174654d617463682044656c65676174652063616c6c206660008201527f61696c6564210000000000000000000000000000000000000000000000000000602082015250565b60006145466026836144d9565b9150614551826144ea565b604082019050919050565b6000602082019050818103600083015261457581614539565b9050919050565b7f4552523a2075706461746552657665616c496e666f2044656c6567617465206360008201527f616c6c206661696c656421000000000000000000000000000000000000000000602082015250565b60006145d8602b836144d9565b91506145e38261457c565b604082019050919050565b60006020820190508181036000830152614607816145cb565b9050919050565b600060608201905061462360008301866139b1565b61463060208301856141a4565b61463d60408301846141a4565b949350505050565b7f4552523a206a6f696e4d617463682044656c65676174652063616c6c2066616960008201527f6c65642100000000000000000000000000000000000000000000000000000000602082015250565b60006146a16024836144d9565b91506146ac82614645565b604082019050919050565b600060208201905081810360008301526146d081614694565b9050919050565b7f4e487b7100000000000000000000000000000000000000000000000000000000600052604160045260246000fd5b7f4e487b7100000000000000000000000000000000000000000000000000000000600052603260045260246000fd5b7f4e487b7100000000000000000000000000000000000000000000000000000000600052601160045260246000fd5b600061476f826139a7565b91507fffffffffffffffffffffffffffffffffffffffffffffffffffffffffffffffff82036147a1576147a0614735565b5b600182019050919050565b60006147b7826139a7565b91506147c2836139a7565b92508282019050808211156147da576147d9614735565b5b92915050565b60006147eb826139a7565b91506147f6836139a7565b925082820390508181111561480e5761480d614735565b5b92915050565b7f4552523a20636f6d6d69746d656e745469636b2044656c65676174652063616c60008201527f6c206661696c6564210000000000000000000000000000000000000000000000602082015250565b60006148706029836144d9565b915061487b82614814565b604082019050919050565b6000602082019050818103600083015261489f81614863565b9050919050565b7f4552523a20757064617465436f6d6d69746d656e74496e666f2044656c65676160008201527f74652063616c6c206661696c6564210000000000000000000000000000000000602082015250565b6000614902602f836144d9565b915061490d826148a6565b604082019050919050565b60006020820190508181036000830152614931816148f5565b9050919050565b7f4552523a204d61746368206e6f7420696e20636f72726563742073746167652060008201527f746f20706572666f726d20612053746174652075706461746521000000000000602082015250565b6000614994603a836144d9565b915061499f82614938565b604082019050919050565b600060208201905081810360008301526149c381614987565b9050919050565b60006040820190506149df60008301856139b1565b6149ec60208301846143b7565b9392505050565b7f4552523a2072657665616c5469636b2044656c65676174652063616c6c20666160008201527f696c656421000000000000000000000000000000000000000000000000000000602082015250565b6000614a4f6025836144d9565b9150614a5a826149f3565b604082019050919050565b60006020820190508181036000830152614a7e81614a42565b9050919050565b6000819050919050565b6000614a9a82614a85565b9150614aa583614a85565b9250828203905081811260008412168282136000851215161715614acc57614acb614735565b5b92915050565b6000614add82614a85565b9150614ae883614a85565b9250828202614af681614a85565b91507f80000000000000000000000000000000000000000000000000000000000000008414600084121615614b2e57614b2d614735565b5b8282058414831517614b4357614b42614735565b5b5092915050565b6000614b5582614a85565b9150614b6083614a85565b925082820190508281121560008312168382126000841215161715614b8857614b87614735565b5b92915050565b7f4e487b7100000000000000000000000000000000000000000000000000000000600052601260045260246000fd5b6000614bc8826139a7565b9150614bd3836139a7565b925082614be357614be2614b8e565b5b828204905092915050565b60008160011c9050919050565b6000808291508390505b6001851115614c4557808604811115614c2157614c20614735565b5b6001851615614c305780820291505b8081029050614c3e85614bee565b9450614c05565b94509492505050565b600082614c5e5760019050614d1a565b81614c6c5760009050614d1a565b8160018114614c825760028114614c8c57614cbb565b6001915050614d1a565b60ff841115614c9e57614c9d614735565b5b8360020a915084821115614cb557614cb4614735565b5b50614d1a565b5060208310610133831016604e8410600b8410161715614cf05782820a905083811115614ceb57614cea614735565b5b614d1a565b614cfd8484846001614bfb565b92509050818404811115614d1457614d13614735565b5b81810290505b9392505050565b600060ff82169050919050565b6000614d39826139a7565b9150614d4483614d21565b9250614d717fffffffffffffffffffffffffffffffffffffffffffffffffffffffffffffffff8484614c4e565b905092915050565b6000614d84826139a7565b9150614d8f836139a7565b925082614d9f57614d9e614b8e565b5b82820690509291505056fea264697066735822122092d2e330e8a7d88625274ce8f97d239ed05b9773c05b4f9d9cec686a5dce51c164736f6c63430008120033608060405234801561001057600080fd5b5061026d806100206000396000f3fe608060405234801561001057600080fd5b506004361061009e5760003560e01c8063705dd6cd11610066578063705dd6cd14610139578063734692a914610157578063ae5c135614610175578063c8067b6f14610193578063e3c8bfb9146101b15761009e565b8063124a96c8146100a357806339febf0c146100c157806345baee55146100df57806349bbc37a146100fd5780634ffdf11e1461011b575b600080fd5b6100ab6101cf565b6040516100b8919061021c565b60405180910390f35b6100c96101d5565b6040516100d6919061021c565b60405180910390f35b6100e76101da565b6040516100f4919061021c565b60405180910390f35b6101056101df565b604051610112919061021c565b60405180910390f35b6101236101e5565b604051610130919061021c565b60405180910390f35b6101416101ea565b60405161014e919061021c565b60405180910390f35b61015f6101ef565b60405161016c919061021c565b60405180910390f35b61017d6101f4565b60405161018a919061021c565b60405180910390f35b61019b6101f9565b6040516101a8919061021c565b60405180910390f35b6101b96101fe565b6040516101c6919061021c565b60405180910390f35b6101f481565b600581565b600781565b6103e881565b600681565b600a81565b600781565b600a81565b600581565b600281565b6000819050919050565b61021681610203565b82525050565b6000602082019050610231600083018461020d565b9291505056fea264697066735822122001d9d86b524b072c82851d2da1af568601b991b53f790e36a726e5478a595e9964736f6c6343000812003360806040523480156200001157600080fd5b5060405162003de238038062003de2833981810160405281019062000037919062000162565b6040516200004590620000ea565b604051809103906000f08015801562000062573d6000803e3d6000fd5b506000806101000a81548173ffffffffffffffffffffffffffffffffffffffff021916908373ffffffffffffffffffffffffffffffffffffffff16021790555080600160006101000a81548173ffffffffffffffffffffffffffffffffffffffff021916908373ffffffffffffffffffffffffffffffffffffffff1602179055505062000194565b61028d8062003b5583390190565b600080fd5b600073ffffffffffffffffffffffffffffffffffffffff82169050919050565b60006200012a82620000fd565b9050919050565b6200013c816200011d565b81146200014857600080fd5b50565b6000815190506200015c8162000131565b92915050565b6000602082840312156200017b576200017a620000f8565b5b60006200018b848285016200014b565b91505092915050565b6139b180620001a46000396000f3fe608060405234801561001057600080fd5b50600436106101585760003560e01c8063705dd6cd116100c3578063ae5c13561161007c578063ae5c1356146103a9578063c8067b6f146103c7578063d79b490e146103e5578063d7dfa0dd14610417578063e3c8bfb914610435578063f97810331461045357610158565b8063705dd6cd146102e557806372de5b2f14610303578063734692a914610321578063755f10fd1461033f5780638ba47bdd1461036f57806390ede5d51461038d57610158565b806337c747791161011557806337c747791461022157806339febf0c1461025157806345baee551461026f57806349bbc37a1461028d5780634ffdf11e146102ab5780635cd6925a146102c957610158565b806301fd19511461015d578063124a96c81461017b5780631b7d40a5146101995780631e20530a146101cd57806327764f7d146101e957806335868ab714610205575b600080fd5b61016561046f565b60405161017291906127c5565b60405180910390f35b610183610475565b60405161019091906127c5565b60405180910390f35b6101b360048036038101906101ae9190612820565b61047b565b6040516101c495949392919061291e565b60405180910390f35b6101e760048036038101906101e291906129dd565b610605565b005b61020360048036038101906101fe9190612a1d565b610785565b005b61021f600480360381019061021a9190612a4a565b610b93565b005b61023b60048036038101906102369190612a1d565b610d7c565b60405161024891906127c5565b60405180910390f35b610259610d94565b60405161026691906127c5565b60405180910390f35b610277610d99565b60405161028491906127c5565b60405180910390f35b610295610d9e565b6040516102a291906127c5565b60405180910390f35b6102b3610da4565b6040516102c091906127c5565b60405180910390f35b6102e360048036038101906102de9190612a1d565b610da9565b005b6102ed6110c6565b6040516102fa91906127c5565b60405180910390f35b61030b6110cb565b6040516103189190612afc565b60405180910390f35b6103296110ef565b60405161033691906127c5565b60405180910390f35b61035960048036038101906103549190612a1d565b6110f4565b60405161036691906127c5565b60405180910390f35b61037761110c565b6040516103849190612b26565b60405180910390f35b6103a760048036038101906103a29190612a1d565b611132565b005b6103b1611540565b6040516103be91906127c5565b60405180910390f35b6103cf611545565b6040516103dc91906127c5565b60405180910390f35b6103ff60048036038101906103fa9190612a1d565b61154a565b60405161040e93929190612bb8565b60405180910390f35b61041f611581565b60405161042c9190612b26565b60405180910390f35b61043d6115a7565b60405161044a91906127c5565b60405180910390f35b61046d60048036038101906104689190612a1d565b6115ac565b005b60035481565b6101f481565b600960205282600052604060002060205281600052604060002081815481106104a357600080fd5b906000526020600020906007020160009250925050508060000180546104c890612c1e565b80601f01602080910402602001604051908101604052809291908181526020018280546104f490612c1e565b80156105415780601f1061051657610100808354040283529160200191610541565b820191906000526020600020905b81548152906001019060200180831161052457829003601f168201915b50505050509080600101805461055690612c1e565b80601f016020809104026020016040519081016040528092919081815260200182805461058290612c1e565b80156105cf5780601f106105a4576101008083540402835291602001916105cf565b820191906000526020600020905b8154815290600101906020018083116105b257829003601f168201915b5050505050908060040160009054906101000a900460ff16908060050154908060060160009054906101000a900460ff16905085565b60006003549050610617816000611801565b600060046000838152602001908152602001600020905060018160030160006101000a81548160ff0219169083600a81111561065657610655612b41565b5b0217905550838160010160008154811061067357610672612c4f565b5b9060005260206000200160006101000a81548173ffffffffffffffffffffffffffffffffffffffff021916908373ffffffffffffffffffffffffffffffffffffffff16021790555082816002016000815481106106d3576106d2612c4f565b5b9060005260206000200160006101000a81548173ffffffffffffffffffffffffffffffffffffffff021916908373ffffffffffffffffffffffffffffffffffffffff16021790555060016003600082825461072e9190612cad565b925050819055507f58d4562cf15d1052e816fd24f6af2c8a3a21416d6e4c01a9e11ef84ffe537e25828260030160009054906101000a900460ff16604051610777929190612ce1565b60405180910390a150505050565b60006004600083815260200190815260200160002090506007600a8111156107b0576107af612b41565b5b8160030160009054906101000a900460ff16600a8111156107d4576107d3612b41565b5b14610814576040517f08c379a000000000000000000000000000000000000000000000000000000000815260040161080b90612d8d565b60405180910390fd5b60005b60008054906101000a900473ffffffffffffffffffffffffffffffffffffffff1673ffffffffffffffffffffffffffffffffffffffff1663e3c8bfb96040518163ffffffff1660e01b8152600401602060405180830381865afa158015610882573d6000803e3d6000fd5b505050506040513d601f19601f820116820180604052508101906108a69190612dc2565b8110156109ac578160020181815481106108c3576108c2612c4f565b5b9060005260206000200160009054906101000a900473ffffffffffffffffffffffffffffffffffffffff1673ffffffffffffffffffffffffffffffffffffffff1663cce710636040518163ffffffff1660e01b8152600401602060405180830381865afa158015610938573d6000803e3d6000fd5b505050506040513d601f19601f8201168201806040525081019061095c9190612e1b565b61099b576040517f08c379a000000000000000000000000000000000000000000000000000000000815260040161099290612eba565b60405180910390fd5b806109a590612eda565b9050610817565b5060005b60008054906101000a900473ffffffffffffffffffffffffffffffffffffffff1673ffffffffffffffffffffffffffffffffffffffff1663e3c8bfb96040518163ffffffff1660e01b8152600401602060405180830381865afa158015610a1b573d6000803e3d6000fd5b505050506040513d601f19601f82011682018060405250810190610a3f9190612dc2565b811015610b1757610b068382846002018481548110610a6157610a60612c4f565b5b9060005260206000200160009054906101000a900473ffffffffffffffffffffffffffffffffffffffff1673ffffffffffffffffffffffffffffffffffffffff16632f703e086040518163ffffffff1660e01b81526004016000604051808303816000875af1158015610ad8573d6000803e3d6000fd5b505050506040513d6000823e3d601f19601f82011682018060405250810190610b019190613048565b611d4f565b80610b1090612eda565b90506109b0565b5060088160030160006101000a81548160ff0219169083600a811115610b4057610b3f612b41565b5b02179055507f58d4562cf15d1052e816fd24f6af2c8a3a21416d6e4c01a9e11ef84ffe537e25828260030160009054906101000a900460ff16604051610b87929190612ce1565b60405180910390a15050565b60006004600085815260200190815260200160002090506001600a811115610bbe57610bbd612b41565b5b8160030160009054906101000a900460ff16600a811115610be257610be1612b41565b5b14610c22576040517f08c379a0000000000000000000000000000000000000000000000000000000008152600401610c1990613103565b60405180910390fd5b8281600101600181548110610c3a57610c39612c4f565b5b9060005260206000200160006101000a81548173ffffffffffffffffffffffffffffffffffffffff021916908373ffffffffffffffffffffffffffffffffffffffff1602179055508181600201600181548110610c9a57610c99612c4f565b5b9060005260206000200160006101000a81548173ffffffffffffffffffffffffffffffffffffffff021916908373ffffffffffffffffffffffffffffffffffffffff16021790555060028160030160006101000a81548160ff0219169083600a811115610d0a57610d09612b41565b5b0217905550610d18846124be565b610d2c610515670adbf78816ee7165612577565b7f58d4562cf15d1052e816fd24f6af2c8a3a21416d6e4c01a9e11ef84ffe537e25848260030160009054906101000a900460ff16604051610d6e929190612ce1565b60405180910390a150505050565b60056020528060005260406000206000915090505481565b600581565b600781565b6103e881565b600681565b6000600460008381526020019081526020016000209050610dfe6040518060400160405280601781526020017f636f6d6d69746d656e745469636b202d2063616c6c6564000000000000000000815250612677565b6004600a811115610e1257610e11612b41565b5b8160030160009054906101000a900460ff16600a811115610e3657610e35612b41565b5b1480610e7757506009600a811115610e5157610e50612b41565b5b8160030160009054906101000a900460ff16600a811115610e7557610e74612b41565b5b145b610eb6576040517f08c379a0000000000000000000000000000000000000000000000000000000008152600401610ead90613195565b60405180910390fd5b610edf8260016006600086815260200190815260200160002054610eda9190612cad565b611801565b610f0060405180606001604052806029815260200161395360299139612677565b60005b60008054906101000a900473ffffffffffffffffffffffffffffffffffffffff1673ffffffffffffffffffffffffffffffffffffffff1663e3c8bfb96040518163ffffffff1660e01b8152600401602060405180830381865afa158015610f6e573d6000803e3d6000fd5b505050506040513d601f19601f82011682018060405250810190610f929190612dc2565b81101561104a57816001018181548110610faf57610fae612c4f565b5b9060005260206000200160009054906101000a900473ffffffffffffffffffffffffffffffffffffffff1673ffffffffffffffffffffffffffffffffffffffff1663606deecd6040518163ffffffff1660e01b8152600401600060405180830381600087803b15801561102157600080fd5b505af1158015611035573d6000803e3d6000fd5b505050508061104390612eda565b9050610f03565b5060058160030160006101000a81548160ff0219169083600a81111561107357611072612b41565b5b02179055507f58d4562cf15d1052e816fd24f6af2c8a3a21416d6e4c01a9e11ef84ffe537e25828260030160009054906101000a900460ff166040516110ba929190612ce1565b60405180910390a15050565b600a81565b60008054906101000a900473ffffffffffffffffffffffffffffffffffffffff1681565b600781565b60066020528060005260406000206000915090505481565b600260009054906101000a900473ffffffffffffffffffffffffffffffffffffffff1681565b60006004600083815260200190815260200160002090506005600a81111561115d5761115c612b41565b5b8160030160009054906101000a900460ff16600a81111561118157611180612b41565b5b146111c1576040517f08c379a00000000000000000000000000000000000000000000000000000000081526004016111b890613227565b60405180910390fd5b60005b60008054906101000a900473ffffffffffffffffffffffffffffffffffffffff1673ffffffffffffffffffffffffffffffffffffffff1663e3c8bfb96040518163ffffffff1660e01b8152600401602060405180830381865afa15801561122f573d6000803e3d6000fd5b505050506040513d601f19601f820116820180604052508101906112539190612dc2565b811015611359578160010181815481106112705761126f612c4f565b5b9060005260206000200160009054906101000a900473ffffffffffffffffffffffffffffffffffffffff1673ffffffffffffffffffffffffffffffffffffffff1663cce710636040518163ffffffff1660e01b8152600401602060405180830381865afa1580156112e5573d6000803e3d6000fd5b505050506040513d601f19601f820116820180604052508101906113099190612e1b565b611348576040517f08c379a000000000000000000000000000000000000000000000000000000000815260040161133f90612eba565b60405180910390fd5b8061135290612eda565b90506111c4565b5060005b60008054906101000a900473ffffffffffffffffffffffffffffffffffffffff1673ffffffffffffffffffffffffffffffffffffffff1663e3c8bfb96040518163ffffffff1660e01b8152600401602060405180830381865afa1580156113c8573d6000803e3d6000fd5b505050506040513d601f19601f820116820180604052508101906113ec9190612dc2565b8110156114c4576114b3838284600101848154811061140e5761140d612c4f565b5b9060005260206000200160009054906101000a900473ffffffffffffffffffffffffffffffffffffffff1673ffffffffffffffffffffffffffffffffffffffff16632f703e086040518163ffffffff1660e01b81526004016000604051808303816000875af1158015611485573d6000803e3d6000fd5b505050506040513d6000823e3d601f19601f820116820180604052508101906114ae9190613048565b612710565b806114bd90612eda565b905061135d565b5060068160030160006101000a81548160ff0219169083600a8111156114ed576114ec612b41565b5b02179055507f58d4562cf15d1052e816fd24f6af2c8a3a21416d6e4c01a9e11ef84ffe537e25828260030160009054906101000a900460ff16604051611534929190612ce1565b60405180910390a15050565b600a81565b600581565b60046020528060005260406000206000915090508060000154908060030160009054906101000a900460ff16908060040154905083565b600160009054906101000a900473ffffffffffffffffffffffffffffffffffffffff1681565b600281565b60006004600083815260200190815260200160002090506006600a8111156115d7576115d6612b41565b5b8160030160009054906101000a900460ff16600a8111156115fb576115fa612b41565b5b1461163b576040517f08c379a0000000000000000000000000000000000000000000000000000000008152600401611632906132b9565b60405180910390fd5b60005b60008054906101000a900473ffffffffffffffffffffffffffffffffffffffff1673ffffffffffffffffffffffffffffffffffffffff1663e3c8bfb96040518163ffffffff1660e01b8152600401602060405180830381865afa1580156116a9573d6000803e3d6000fd5b505050506040513d601f19601f820116820180604052508101906116cd9190612dc2565b811015611785578160020181815481106116ea576116e9612c4f565b5b9060005260206000200160009054906101000a900473ffffffffffffffffffffffffffffffffffffffff1673ffffffffffffffffffffffffffffffffffffffff1663606deecd6040518163ffffffff1660e01b8152600401600060405180830381600087803b15801561175c57600080fd5b505af1158015611770573d6000803e3d6000fd5b505050508061177e90612eda565b905061163e565b5060078160030160006101000a81548160ff0219169083600a8111156117ae576117ad612b41565b5b02179055507f58d4562cf15d1052e816fd24f6af2c8a3a21416d6e4c01a9e11ef84ffe537e25828260030160009054906101000a900460ff166040516117f5929190612ce1565b60405180910390a15050565b6000810361192d5760005b60008054906101000a900473ffffffffffffffffffffffffffffffffffffffff1673ffffffffffffffffffffffffffffffffffffffff1663e3c8bfb96040518163ffffffff1660e01b8152600401602060405180830381865afa158015611877573d6000803e3d6000fd5b505050506040513d601f19601f8201168201806040525081019061189b9190612dc2565b81101561192b5760046000848152602001908152602001600020600101600181600181540180825580915050039060005260206000200160009054906101000a90505060046000848152602001908152602001600020600201600181600181540180825580915050039060005260206000200160009054906101000a9050508061192490612eda565b905061180c565b505b60006007600084815260200190815260200160002060008381526020019081526020016000209050600060086000858152602001908152602001600020600084815260200190815260200160002090506000600960008681526020019081526020016000206000858152602001908152602001600020905060005b60008054906101000a900473ffffffffffffffffffffffffffffffffffffffff1673ffffffffffffffffffffffffffffffffffffffff1663e3c8bfb96040518163ffffffff1660e01b8152600401602060405180830381865afa158015611a13573d6000803e3d6000fd5b505050506040513d601f19601f82011682018060405250810190611a379190612dc2565b811015611d47578360000160009080600181540180825580915050600190039060005260206000200160009091909190915055826001816001815401808255809150500390600052602060002090505060005b60008054906101000a900473ffffffffffffffffffffffffffffffffffffffff1673ffffffffffffffffffffffffffffffffffffffff1663ae5c13566040518163ffffffff1660e01b8152600401602060405180830381865afa158015611af5573d6000803e3d6000fd5b505050506040513d601f19601f82011682018060405250810190611b199190612dc2565b811015611bef57838281548110611b3357611b32612c4f565b5b906000526020600020906003020160000160018160018154018082558091505003906000526020600020905050838281548110611b7357611b72612c4f565b5b9060005260206000209060030201600101600181600181540180825580915050039060005260206000205050838281548110611bb257611bb1612c4f565b5b906000526020600020906003020160020160018160018154018082558091505003906000526020600020505080611be890612eda565b9050611a8a565b50816001816001815401808255809150500390600052602060002090505060005b60008054906101000a900473ffffffffffffffffffffffffffffffffffffffff1673ffffffffffffffffffffffffffffffffffffffff1663ae5c13566040518163ffffffff1660e01b8152600401602060405180830381865afa158015611c7b573d6000803e3d6000fd5b505050506040513d601f19601f82011682018060405250810190611c9f9190612dc2565b811015611d3557828281548110611cb957611cb8612c4f565b5b9060005260206000209060070201600201600181600181540180825580915050039060005260206000205050828281548110611cf857611cf7612c4f565b5b906000526020600020906007020160030160018160018154018082558091505003906000526020600020505080611d2e90612eda565b9050611c10565b5080611d4090612eda565b90506119a8565b505050505050565b6000600960008581526020019081526020016000206000600660008781526020019081526020016000205481526020019081526020016000208381548110611d9a57611d99612c4f565b5b9060005260206000209060070201905060008280519060200120604051602001611dc491906132f2565b604051602081830303815290604052905081600001604051611de691906133b0565b6040518091039020818051906020012014611e36576040517f08c379a0000000000000000000000000000000000000000000000000000000008152600401611e2d90613439565b60405180910390fd5b82826001019081611e4791906135e6565b5060008084806020019051810190611e5f91906136b8565b9150915060008060009054906101000a900473ffffffffffffffffffffffffffffffffffffffff1673ffffffffffffffffffffffffffffffffffffffff166345baee556040518163ffffffff1660e01b8152600401602060405180830381865afa158015611ed1573d6000803e3d6000fd5b505050506040513d601f19601f82011682018060405250810190611ef59190612dc2565b60008054906101000a900473ffffffffffffffffffffffffffffffffffffffff1673ffffffffffffffffffffffffffffffffffffffff16634ffdf11e6040518163ffffffff1660e01b8152600401602060405180830381865afa158015611f60573d6000803e3d6000fd5b505050506040513d601f19601f82011682018060405250810190611f849190612dc2565b611f8e9190612cad565b905060005b60008054906101000a900473ffffffffffffffffffffffffffffffffffffffff1673ffffffffffffffffffffffffffffffffffffffff1663ae5c13566040518163ffffffff1660e01b8152600401602060405180830381865afa158015611ffe573d6000803e3d6000fd5b505050506040513d601f19601f820116820180604052508101906120229190612dc2565b811015612279576000828261203791906136f8565b84901c9050600160008054906101000a900473ffffffffffffffffffffffffffffffffffffffff1673ffffffffffffffffffffffffffffffffffffffff16634ffdf11e6040518163ffffffff1660e01b8152600401602060405180830381865afa1580156120a9573d6000803e3d6000fd5b505050506040513d601f19601f820116820180604052508101906120cd9190612dc2565b60026120d9919061386d565b6120e391906138b8565b60008054906101000a900473ffffffffffffffffffffffffffffffffffffffff1673ffffffffffffffffffffffffffffffffffffffff166345baee556040518163ffffffff1660e01b8152600401602060405180830381865afa15801561214e573d6000803e3d6000fd5b505050506040513d601f19601f820116820180604052508101906121729190612dc2565b82901c1687600201838154811061218c5761218b612c4f565b5b9060005260206000200181905550600160008054906101000a900473ffffffffffffffffffffffffffffffffffffffff1673ffffffffffffffffffffffffffffffffffffffff166345baee556040518163ffffffff1660e01b8152600401602060405180830381865afa158015612207573d6000803e3d6000fd5b505050506040513d601f19601f8201168201806040525081019061222b9190612dc2565b6002612237919061386d565b61224191906138b8565b811687600301838154811061225957612258612c4f565b5b9060005260206000200181905550508061227290612eda565b9050611f93565b5060018060008054906101000a900473ffffffffffffffffffffffffffffffffffffffff1673ffffffffffffffffffffffffffffffffffffffff1663ae5c13566040518163ffffffff1660e01b8152600401602060405180830381865afa1580156122e8573d6000803e3d6000fd5b505050506040513d601f19601f8201168201806040525081019061230c9190612dc2565b8361231791906136f8565b84901c16148560060160006101000a81548160ff021916908315150217905550600180600160008054906101000a900473ffffffffffffffffffffffffffffffffffffffff1673ffffffffffffffffffffffffffffffffffffffff1663ae5c13566040518163ffffffff1660e01b8152600401602060405180830381865afa1580156123a7573d6000803e3d6000fd5b505050506040513d601f19601f820116820180604052508101906123cb9190612dc2565b846123d691906136f8565b6123e09190612cad565b84901c16148560040160006101000a81548160ff021916908315150217905550600f600260008054906101000a900473ffffffffffffffffffffffffffffffffffffffff1673ffffffffffffffffffffffffffffffffffffffff1663ae5c13566040518163ffffffff1660e01b8152600401602060405180830381865afa15801561246f573d6000803e3d6000fd5b505050506040513d601f19601f820116820180604052508101906124939190612dc2565b8361249e91906136f8565b6124a89190612cad565b83901c1685600501819055505050505050505050565b600060046000838152602001908152602001600020905081600560006105158152602001908152602001600020819055506003600a81111561250357612502612b41565b5b8160030160009054906101000a900460ff16600a81111561252757612526612b41565b5b50507f58d4562cf15d1052e816fd24f6af2c8a3a21416d6e4c01a9e11ef84ffe537e25828260030160009054906101000a900460ff1660405161256b929190612ce1565b60405180910390a15050565b60006004600060056000868152602001908152602001600020548152602001908152602001600020905081816000018190555060048160030160006101000a81548160ff0219169083600a8111156125d2576125d1612b41565b5b02179055506126156040518060400160405280601b81526020017f66756c6c66696c5365656452657175657374202d2063616c6c65640000000000815250612677565b7f58d4562cf15d1052e816fd24f6af2c8a3a21416d6e4c01a9e11ef84ffe537e2560056000858152602001908152602001600020548260030160009054906101000a900460ff1660405161266a929190612ce1565b60405180910390a1505050565b61270d8160405160240161268b9190613930565b6040516020818303038152906040527f41304fac000000000000000000000000000000000000000000000000000000007bffffffffffffffffffffffffffffffffffffffffffffffffffffffff19166020820180517bffffffffffffffffffffffffffffffffffffffffffffffffffffffff8381831617835250505050612783565b50565b600060096000858152602001908152602001600020600060066000878152602001908152602001600020548152602001908152602001600020838154811061275b5761275a612c4f565b5b906000526020600020906007020190508181600001908161277c91906135e6565b5050505050565b60008151905060006a636f6e736f6c652e6c6f679050602083016000808483855afa5050505050565b6000819050919050565b6127bf816127ac565b82525050565b60006020820190506127da60008301846127b6565b92915050565b6000604051905090565b600080fd5b600080fd5b6127fd816127ac565b811461280857600080fd5b50565b60008135905061281a816127f4565b92915050565b600080600060608486031215612839576128386127ea565b5b60006128478682870161280b565b93505060206128588682870161280b565b92505060406128698682870161280b565b9150509250925092565b600081519050919050565b600082825260208201905092915050565b60005b838110156128ad578082015181840152602081019050612892565b60008484015250505050565b6000601f19601f8301169050919050565b60006128d582612873565b6128df818561287e565b93506128ef81856020860161288f565b6128f8816128b9565b840191505092915050565b60008115159050919050565b61291881612903565b82525050565b600060a082019050818103600083015261293881886128ca565b9050818103602083015261294c81876128ca565b905061295b604083018661290f565b61296860608301856127b6565b612975608083018461290f565b9695505050505050565b600073ffffffffffffffffffffffffffffffffffffffff82169050919050565b60006129aa8261297f565b9050919050565b6129ba8161299f565b81146129c557600080fd5b50565b6000813590506129d7816129b1565b92915050565b600080604083850312156129f4576129f36127ea565b5b6000612a02858286016129c8565b9250506020612a13858286016129c8565b9150509250929050565b600060208284031215612a3357612a326127ea565b5b6000612a418482850161280b565b91505092915050565b600080600060608486031215612a6357612a626127ea565b5b6000612a718682870161280b565b9350506020612a82868287016129c8565b9250506040612a93868287016129c8565b9150509250925092565b6000819050919050565b6000612ac2612abd612ab88461297f565b612a9d565b61297f565b9050919050565b6000612ad482612aa7565b9050919050565b6000612ae682612ac9565b9050919050565b612af681612adb565b82525050565b6000602082019050612b116000830184612aed565b92915050565b612b208161299f565b82525050565b6000602082019050612b3b6000830184612b17565b92915050565b7f4e487b7100000000000000000000000000000000000000000000000000000000600052602160045260246000fd5b600b8110612b8157612b80612b41565b5b50565b6000819050612b9282612b70565b919050565b6000612ba282612b84565b9050919050565b612bb281612b97565b82525050565b6000606082019050612bcd60008301866127b6565b612bda6020830185612ba9565b612be760408301846127b6565b949350505050565b7f4e487b7100000000000000000000000000000000000000000000000000000000600052602260045260246000fd5b60006002820490506001821680612c3657607f821691505b602082108103612c4957612c48612bef565b5b50919050565b7f4e487b7100000000000000000000000000000000000000000000000000000000600052603260045260246000fd5b7f4e487b7100000000000000000000000000000000000000000000000000000000600052601160045260246000fd5b6000612cb8826127ac565b9150612cc3836127ac565b9250828201905080821115612cdb57612cda612c7e565b5b92915050565b6000604082019050612cf660008301856127b6565b612d036020830184612ba9565b9392505050565b600082825260208201905092915050565b7f4552523a204d61746368206e6f7420696e20636f72726563742073746167652060008201527f746f20726563656976652052657665616c732100000000000000000000000000602082015250565b6000612d77603383612d0a565b9150612d8282612d1b565b604082019050919050565b60006020820190508181036000830152612da681612d6a565b9050919050565b600081519050612dbc816127f4565b92915050565b600060208284031215612dd857612dd76127ea565b5b6000612de684828501612dad565b91505092915050565b612df881612903565b8114612e0357600080fd5b50565b600081519050612e1581612def565b92915050565b600060208284031215612e3157612e306127ea565b5b6000612e3f84828501612e06565b91505092915050565b7f4552523a204e6f7420616c6c207465616d73206861766520697373756564206360008201527f6f6d6d69746d656e747321000000000000000000000000000000000000000000602082015250565b6000612ea4602b83612d0a565b9150612eaf82612e48565b604082019050919050565b60006020820190508181036000830152612ed381612e97565b9050919050565b6000612ee5826127ac565b91507fffffffffffffffffffffffffffffffffffffffffffffffffffffffffffffffff8203612f1757612f16612c7e565b5b600182019050919050565b600080fd5b600080fd5b7f4e487b7100000000000000000000000000000000000000000000000000000000600052604160045260246000fd5b612f64826128b9565b810181811067ffffffffffffffff82111715612f8357612f82612f2c565b5b80604052505050565b6000612f966127e0565b9050612fa28282612f5b565b919050565b600067ffffffffffffffff821115612fc257612fc1612f2c565b5b612fcb826128b9565b9050602081019050919050565b6000612feb612fe684612fa7565b612f8c565b90508281526020810184848401111561300757613006612f27565b5b61301284828561288f565b509392505050565b600082601f83011261302f5761302e612f22565b5b815161303f848260208601612fd8565b91505092915050565b60006020828403121561305e5761305d6127ea565b5b600082015167ffffffffffffffff81111561307c5761307b6127ef565b5b6130888482850161301a565b91505092915050565b7f4552523a20596f752063616e206f6e6c79206a6f696e2061206e65776c79206360008201527f726561746564206d617463682100000000000000000000000000000000000000602082015250565b60006130ed602d83612d0a565b91506130f882613091565b604082019050919050565b6000602082019050818103600083015261311c816130e0565b9050919050565b7f4552523a204d61746368206e6f7420696e20636f72726563742073746167652060008201527f746f20666574636820436f6d6d69746d656e7473210000000000000000000000602082015250565b600061317f603583612d0a565b915061318a82613123565b604082019050919050565b600060208201905081810360008301526131ae81613172565b9050919050565b7f4552523a204d61746368206e6f7420696e20636f72726563742073746167652060008201527f746f207265636569766520436f6d6d69746d656e747321000000000000000000602082015250565b6000613211603783612d0a565b915061321c826131b5565b604082019050919050565b6000602082019050818103600083015261324081613204565b9050919050565b7f4552523a204d61746368206e6f7420696e20636f72726563742073746167652060008201527f746f206665746368205265617665616c73210000000000000000000000000000602082015250565b60006132a3603283612d0a565b91506132ae82613247565b604082019050919050565b600060208201905081810360008301526132d281613296565b9050919050565b6000819050919050565b6132ec816132d9565b82525050565b600060208201905061330760008301846132e3565b92915050565b600081905092915050565b60008190508160005260206000209050919050565b6000815461333a81612c1e565b613344818661330d565b9450600182166000811461335f5760018114613374576133a7565b60ff19831686528115158202860193506133a7565b61337d85613318565b60005b8381101561339f57815481890152600182019150602081019050613380565b838801955050505b50505092915050565b60006133bc828461332d565b915081905092915050565b7f4552523a2052657665616c20646f65736e277420636f72726573706f6e64207460008201527f6f2074686520436f6d6d69746d656e7400000000000000000000000000000000602082015250565b6000613423603083612d0a565b915061342e826133c7565b604082019050919050565b6000602082019050818103600083015261345281613416565b9050919050565b60006020601f8301049050919050565b600082821b905092915050565b6000600883026134a67fffffffffffffffffffffffffffffffffffffffffffffffffffffffffffffffff82613469565b6134b08683613469565b95508019841693508086168417925050509392505050565b60006134e36134de6134d9846127ac565b612a9d565b6127ac565b9050919050565b6000819050919050565b6134fd836134c8565b613511613509826134ea565b848454613476565b825550505050565b600090565b613526613519565b6135318184846134f4565b505050565b5b818110156135555761354a60008261351e565b600181019050613537565b5050565b601f82111561359a5761356b81613318565b61357484613459565b81016020851015613583578190505b61359761358f85613459565b830182613536565b50505b505050565b600082821c905092915050565b60006135bd6000198460080261359f565b1980831691505092915050565b60006135d683836135ac565b9150826002028217905092915050565b6135ef82612873565b67ffffffffffffffff81111561360857613607612f2c565b5b6136128254612c1e565b61361d828285613559565b600060209050601f831160018114613650576000841561363e578287015190505b61364885826135ca565b8655506136b0565b601f19841661365e86613318565b60005b8281101561368657848901518255600182019150602085019450602081019050613661565b868310156136a3578489015161369f601f8916826135ac565b8355505b6001600288020188555050505b505050505050565b600080604083850312156136cf576136ce6127ea565b5b60006136dd85828601612dad565b92505060206136ee85828601612dad565b9150509250929050565b6000613703826127ac565b915061370e836127ac565b925082820261371c816127ac565b9150828204841483151761373357613732612c7e565b5b5092915050565b60008160011c9050919050565b6000808291508390505b60018511156137915780860481111561376d5761376c612c7e565b5b600185161561377c5780820291505b808102905061378a8561373a565b9450613751565b94509492505050565b6000826137aa5760019050613866565b816137b85760009050613866565b81600181146137ce57600281146137d857613807565b6001915050613866565b60ff8411156137ea576137e9612c7e565b5b8360020a91508482111561380157613800612c7e565b5b50613866565b5060208310610133831016604e8410600b841016171561383c5782820a90508381111561383757613836612c7e565b5b613866565b6138498484846001613747565b925090508184048111156138605761385f612c7e565b5b81810290505b9392505050565b6000613878826127ac565b9150613883836127ac565b92506138b07fffffffffffffffffffffffffffffffffffffffffffffffffffffffffffffffff848461379a565b905092915050565b60006138c3826127ac565b91506138ce836127ac565b92508282039050818111156138e6576138e5612c7e565b5b92915050565b600081519050919050565b6000613902826138ec565b61390c8185612d0a565b935061391c81856020860161288f565b613925816128b9565b840191505092915050565b6000602082019050818103600083015261394a81846138f7565b90509291505056fe636f6d6d69746d656e745469636b43616c6c6564202d2070617373656420726571756972656d656e74a264697066735822122003a1ba659b25402a4354284623bfa9ccc9b92645d9ddb3d9f15afa9fdb5d17a464736f6c63430008120033608060405234801561001057600080fd5b5061026d806100206000396000f3fe608060405234801561001057600080fd5b506004361061009e5760003560e01c8063705dd6cd11610066578063705dd6cd14610139578063734692a914610157578063ae5c135614610175578063c8067b6f14610193578063e3c8bfb9146101b15761009e565b8063124a96c8146100a357806339febf0c146100c157806345baee55146100df57806349bbc37a146100fd5780634ffdf11e1461011b575b600080fd5b6100ab6101cf565b6040516100b8919061021c565b60405180910390f35b6100c96101d5565b6040516100d6919061021c565b60405180910390f35b6100e76101da565b6040516100f4919061021c565b60405180910390f35b6101056101df565b604051610112919061021c565b60405180910390f35b6101236101e5565b604051610130919061021c565b60405180910390f35b6101416101ea565b60405161014e919061021c565b60405180910390f35b61015f6101ef565b60405161016c919061021c565b60405180910390f35b61017d6101f4565b60405161018a919061021c565b60405180910390f35b61019b6101f9565b6040516101a8919061021c565b60405180910390f35b6101b96101fe565b6040516101c6919061021c565b60405180910390f35b6101f481565b600581565b600781565b6103e881565b600681565b600a81565b600781565b600a81565b600581565b600281565b6000819050919050565b61021681610203565b82525050565b6000602082019050610231600083018461020d565b9291505056fea264697066735822122001d9d86b524b072c82851d2da1af568601b991b53f790e36a726e5478a595e9964736f6c63430008120033",
  "linkReferences": {},
  "deployedLinkReferences": {}
}