{"contracts/GameLogic.sol":{"GameLogic":{"abi":[{"inputs":[],"stateMutability":"nonpayable","type":"constructor"},{"anonymous":false,"inputs":[{"indexed":false,"internalType":"uint256","name":"matchId","type":"uint256"},{"indexed":false,"internalType":"enum Types.MATCH_STAGE","name":"stage","type":"uint8"}],"name":"MatchEnteredStage","type":"event"},{"inputs":[{"internalType":"uint256","name":"matchId","type":"uint256"}],"name":"commitmentTick","outputs":[],"stateMutability":"nonpayable","type":"function"},{"inputs":[],"name":"constants","outputs":[{"internalType":"contract Constants","name":"","type":"address"}],"stateMutability":"view","type":"function"},{"inputs":[{"internalType":"address","name":"team1_commitmentChainlinkFunctionConsumer","type":"address"},{"internalType":"address","name":"team1_revealChainlinkFunctionConsumer","type":"address"}],"name":"createMatch","outputs":[],"stateMutability":"nonpayable","type":"function"},{"inputs":[{"internalType":"uint256","name":"matchId","type":"uint256"},{"internalType":"uint256","name":"stateId","type":"uint256"}],"name":"getProgression","outputs":[{"components":[{"internalType":"uint256","name":"startingTeamIdWithTheBall","type":"uint256"},{"internalType":"uint256","name":"startingPlayerIdWithTheBall","type":"uint256"},{"internalType":"uint256","name":"teamIdWithTheBall","type":"uint256"},{"internalType":"uint256","name":"playerIdWithTheBall","type":"uint256"},{"internalType":"bool","name":"ballWasWon","type":"bool"},{"internalType":"uint256","name":"ballWasWonByTeam","type":"uint256"},{"internalType":"bool","name":"interceptionOccured","type":"bool"},{"internalType":"uint256","name":"interceptionAchievedByTeam","type":"uint256"},{"internalType":"uint256","name":"ballXPos","type":"uint256"},{"internalType":"uint256","name":"ballYPos","type":"uint256"},{"internalType":"bool","name":"goalWasScored","type":"bool"},{"internalType":"uint256","name":"goalWasScoredByTeam","type":"uint256"},{"components":[{"components":[{"internalType":"uint256","name":"speed","type":"uint256"},{"internalType":"uint256","name":"skill","type":"uint256"},{"internalType":"uint256","name":"stamina","type":"uint256"}],"internalType":"struct Types.PlayerStats[]","name":"playerStats","type":"tuple[]"},{"internalType":"uint256[]","name":"xPos","type":"uint256[]"},{"internalType":"uint256[]","name":"yPos","type":"uint256[]"}],"internalType":"struct Types.TeamState[]","name":"teamState","type":"tuple[]"}],"internalType":"struct Types.ProgressionState[]","name":"progression","type":"tuple[]"}],"stateMutability":"view","type":"function"},{"inputs":[{"internalType":"uint256","name":"matchId","type":"uint256"},{"internalType":"uint256","name":"stateId","type":"uint256"},{"internalType":"uint256","name":"teamId","type":"uint256"}],"name":"getTeamStateProgression","outputs":[{"internalType":"uint256[10]","name":"x_pos","type":"uint256[10]"}],"stateMutability":"view","type":"function"},{"inputs":[{"internalType":"uint256","name":"matchId","type":"uint256"},{"internalType":"address","name":"team2_commitmentChainlinkFunctionConsumer","type":"address"},{"internalType":"address","name":"team2_revealChainlinkFunctionConsumer","type":"address"}],"name":"joinMatch","outputs":[],"stateMutability":"nonpayable","type":"function"},{"inputs":[],"name":"logic","outputs":[{"internalType":"address","name":"","type":"address"}],"stateMutability":"view","type":"function"},{"inputs":[],"name":"manager","outputs":[{"internalType":"address","name":"","type":"address"}],"stateMutability":"view","type":"function"},{"inputs":[],"name":"matchCounter","outputs":[{"internalType":"uint256","name":"","type":"uint256"}],"stateMutability":"view","type":"function"},{"inputs":[{"internalType":"uint256","name":"","type":"uint256"}],"name":"matchIdToMatchStateId","outputs":[{"internalType":"uint256","name":"","type":"uint256"}],"stateMutability":"view","type":"function"},{"inputs":[{"internalType":"uint256","name":"","type":"uint256"}],"name":"matchInfo","outputs":[{"internalType":"uint256","name":"seed","type":"uint256"},{"internalType":"enum Types.MATCH_STAGE","name":"stage","type":"uint8"},{"internalType":"uint256","name":"stateId","type":"uint256"}],"stateMutability":"view","type":"function"},{"inputs":[{"internalType":"uint256","name":"matchId","type":"uint256"}],"name":"revealTick","outputs":[],"stateMutability":"nonpayable","type":"function"},{"inputs":[{"internalType":"uint256","name":"","type":"uint256"}],"name":"seedRequestIdMatchId","outputs":[{"internalType":"uint256","name":"","type":"uint256"}],"stateMutability":"view","type":"function"},{"inputs":[{"internalType":"uint256","name":"matchId","type":"uint256"}],"name":"stateUpdate","outputs":[],"stateMutability":"nonpayable","type":"function"},{"inputs":[{"internalType":"uint256","name":"","type":"uint256"},{"internalType":"uint256","name":"","type":"uint256"},{"internalType":"uint256","name":"","type":"uint256"}],"name":"teamMove","outputs":[{"internalType":"bytes","name":"commitment","type":"bytes"},{"internalType":"bytes","name":"reveal","type":"bytes"},{"internalType":"bool","name":"wantToPass","type":"bool"},{"internalType":"uint256","name":"receivingPlayerId","type":"uint256"},{"internalType":"bool","name":"wantToShoot","type":"bool"}],"stateMutability":"view","type":"function"},{"inputs":[],"name":"ticker","outputs":[{"internalType":"address","name":"","type":"address"}],"stateMutability":"view","type":"function"},{"inputs":[{"internalType":"uint256","name":"matchId","type":"uint256"}],"name":"updateCommitmentInfo","outputs":[],"stateMutability":"nonpayable","type":"function"},{"inputs":[{"internalType":"uint256","name":"matchId","type":"uint256"}],"name":"updateRevealInfo","outputs":[],"stateMutability":"nonpayable","type":"function"}],"evm":{"bytecode":{"linkReferences":{},"object":"60806040523480156200001157600080fd5b506040516200002090620000fc565b604051809103906000f0801580156200003d573d6000803e3d6000fd5b506000806101000a81548173ffffffffffffffffffffffffffffffffffffffff021916908373ffffffffffffffffffffffffffffffffffffffff160217905550306040516200008c906200010a565b6200009891906200015d565b604051809103906000f080158015620000b5573d6000803e3d6000fd5b50600a60006101000a81548173ffffffffffffffffffffffffffffffffffffffff021916908373ffffffffffffffffffffffffffffffffffffffff1602179055506200017a565b61028d806200543683390190565b613c1480620056c383390190565b600073ffffffffffffffffffffffffffffffffffffffff82169050919050565b6000620001458262000118565b9050919050565b620001578162000138565b82525050565b60006020820190506200017460008301846200014c565b92915050565b6152ac806200018a6000396000f3fe608060405234801561001057600080fd5b50600436106101165760003560e01c806372de5b2f116100a2578063d63c8b2d11610071578063d63c8b2d146102e3578063d79b490e14610313578063d7dfa0dd14610345578063e5bcd45014610363578063f97810331461037f57610116565b806372de5b2f1461025b578063755f10fd146102795780638ba47bdd146102a957806390ede5d5146102c757610116565b806335868ab7116100e957806335868ab7146101a557806337c74779146101c157806344c1dc78146101f1578063481c6a75146102215780635cd6925a1461023f57610116565b806301fd19511461011b5780631b7d40a5146101395780631e20530a1461016d57806327764f7d14610189575b600080fd5b61012361039b565b6040516101309190613eb1565b60405180910390f35b610153600480360381019061014e9190613efd565b6103a1565b604051610164959493929190613ffb565b60405180910390f35b610187600480360381019061018291906140ba565b61052b565b005b6101a3600480360381019061019e91906140fa565b61068f565b005b6101bf60048036038101906101ba9190614127565b6107f0565b005b6101db60048036038101906101d691906140fa565b610957565b6040516101e89190613eb1565b60405180910390f35b61020b6004803603810190610206919061417a565b61096f565b6040516102189190614673565b60405180910390f35b6102296123a3565b60405161023691906146a4565b60405180910390f35b610259600480360381019061025491906140fa565b6123c9565b005b61026361252a565b604051610270919061471e565b60405180910390f35b610293600480360381019061028e91906140fa565b61254e565b6040516102a09190613eb1565b60405180910390f35b6102b1612566565b6040516102be91906146a4565b60405180910390f35b6102e160048036038101906102dc91906140fa565b61258c565b005b6102fd60048036038101906102f89190613efd565b6126ed565b60405161030a91906147bd565b60405180910390f35b61032d600480360381019061032891906140fa565b61282b565b60405161033c93929190614850565b60405180910390f35b61034d612862565b60405161035a91906146a4565b60405180910390f35b61037d600480360381019061037891906140fa565b612888565b005b610399600480360381019061039491906140fa565b612d3a565b005b60035481565b600960205282600052604060002060205281600052604060002081815481106103c957600080fd5b906000526020600020906007020160009250925050508060000180546103ee906148b6565b80601f016020809104026020016040519081016040528092919081815260200182805461041a906148b6565b80156104675780601f1061043c57610100808354040283529160200191610467565b820191906000526020600020905b81548152906001019060200180831161044a57829003601f168201915b50505050509080600101805461047c906148b6565b80601f01602080910402602001604051908101604052809291908181526020018280546104a8906148b6565b80156104f55780601f106104ca576101008083540402835291602001916104f5565b820191906000526020600020905b8154815290600101906020018083116104d857829003601f168201915b5050505050908060040160009054906101000a900460ff16908060050154908060060160009054906101000a900460ff16905085565b600080600a60009054906101000a900473ffffffffffffffffffffffffffffffffffffffff1673ffffffffffffffffffffffffffffffffffffffff16848460405160240161057a9291906148e7565b6040516020818303038152906040527f1e20530a000000000000000000000000000000000000000000000000000000007bffffffffffffffffffffffffffffffffffffffffffffffffffffffff19166020820180517bffffffffffffffffffffffffffffffffffffffffffffffffffffffff8381831617835250505050604051610604919061494c565b600060405180830381855af49150503d806000811461063f576040519150601f19603f3d011682016040523d82523d6000602084013e610644565b606091505b509150915081610689576040517f08c379a0000000000000000000000000000000000000000000000000000000008152600401610680906149e6565b60405180910390fd5b50505050565b600080600a60009054906101000a900473ffffffffffffffffffffffffffffffffffffffff1673ffffffffffffffffffffffffffffffffffffffff16836040516024016106dc9190613eb1565b6040516020818303038152906040527f27764f7d000000000000000000000000000000000000000000000000000000007bffffffffffffffffffffffffffffffffffffffffffffffffffffffff19166020820180517bffffffffffffffffffffffffffffffffffffffffffffffffffffffff8381831617835250505050604051610766919061494c565b600060405180830381855af49150503d80600081146107a1576040519150601f19603f3d011682016040523d82523d6000602084013e6107a6565b606091505b5091509150816107eb576040517f08c379a00000000000000000000000000000000000000000000000000000000081526004016107e290614a78565b60405180910390fd5b505050565b600080600a60009054906101000a900473ffffffffffffffffffffffffffffffffffffffff1673ffffffffffffffffffffffffffffffffffffffff1685858560405160240161084193929190614a98565b6040516020818303038152906040527f35868ab7000000000000000000000000000000000000000000000000000000007bffffffffffffffffffffffffffffffffffffffffffffffffffffffff19166020820180517bffffffffffffffffffffffffffffffffffffffffffffffffffffffff83818316178352505050506040516108cb919061494c565b600060405180830381855af49150503d8060008114610906576040519150601f19603f3d011682016040523d82523d6000602084013e61090b565b606091505b509150915081610950576040517f08c379a000000000000000000000000000000000000000000000000000000000815260040161094790614b41565b60405180910390fd5b5050505050565b60056020528060005260406000206000915090505481565b606060006008600085815260200190815260200160002060008481526020019081526020016000209050600081805480602002602001604051908101604052809291908181526020016000905b82821015610b1b578382906000526020600020906003020160405180606001604052908160008201805480602002602001604051908101604052809291908181526020016000905b82821015610a545783829060005260206000209060030201604051806060016040529081600082015481526020016001820154815260200160028201548152505081526020019060010190610a04565b50505050815260200160018201805480602002602001604051908101604052809291908181526020018280548015610aab57602002820191906000526020600020905b815481526020019060010190808311610a97575b5050505050815260200160028201805480602002602001604051908101604052809291908181526020018280548015610b0357602002820191906000526020600020905b815481526020019060010190808311610aef575b505050505081525050815260200190600101906109bc565b50505050905060005b60008054906101000a900473ffffffffffffffffffffffffffffffffffffffff1673ffffffffffffffffffffffffffffffffffffffff1663e3c8bfb96040518163ffffffff1660e01b8152600401602060405180830381865afa158015610b8f573d6000803e3d6000fd5b505050506040513d601f19601f82011682018060405250810190610bb39190614b76565b811015610f1f5760008054906101000a900473ffffffffffffffffffffffffffffffffffffffff1673ffffffffffffffffffffffffffffffffffffffff1663ae5c13566040518163ffffffff1660e01b8152600401602060405180830381865afa158015610c25573d6000803e3d6000fd5b505050506040513d601f19601f82011682018060405250810190610c499190614b76565b67ffffffffffffffff811115610c6257610c61614ba3565b5b604051908082528060200260200182016040528015610c9b57816020015b610c88613dc5565b815260200190600190039081610c805790505b50828281518110610caf57610cae614bd2565b5b60200260200101516000018190525060005b60008054906101000a900473ffffffffffffffffffffffffffffffffffffffff1673ffffffffffffffffffffffffffffffffffffffff1663ae5c13566040518163ffffffff1660e01b8152600401602060405180830381865afa158015610d2c573d6000803e3d6000fd5b505050506040513d601f19601f82011682018060405250810190610d509190614b76565b811015610f0d57838281548110610d6a57610d69614bd2565b5b90600052602060002090600302016000018181548110610d8d57610d8c614bd2565b5b90600052602060002090600302016040518060600160405290816000820154815260200160018201548152602001600282015481525050838381518110610dd757610dd6614bd2565b5b6020026020010151600001518281518110610df557610df4614bd2565b5b6020026020010181905250838281548110610e1357610e12614bd2565b5b90600052602060002090600302016001018181548110610e3657610e35614bd2565b5b9060005260206000200154838381518110610e5457610e53614bd2565b5b6020026020010151602001518281518110610e7257610e71614bd2565b5b602002602001018181525050838281548110610e9157610e90614bd2565b5b90600052602060002090600302016002018181548110610eb457610eb3614bd2565b5b9060005260206000200154838381518110610ed257610ed1614bd2565b5b6020026020010151604001518281518110610ef057610eef614bd2565b5b60200260200101818152505080610f0690614c30565b9050610cc1565b5080610f1890614c30565b9050610b24565b5060006009600087815260200190815260200160002060008681526020019081526020016000209050600081805480602002602001604051908101604052809291908181526020016000905b828210156111b157838290600052602060002090600702016040518060e0016040529081600082018054610f9e906148b6565b80601f0160208091040260200160405190810160405280929190818152602001828054610fca906148b6565b80156110175780601f10610fec57610100808354040283529160200191611017565b820191906000526020600020905b815481529060010190602001808311610ffa57829003601f168201915b50505050508152602001600182018054611030906148b6565b80601f016020809104026020016040519081016040528092919081815260200182805461105c906148b6565b80156110a95780601f1061107e576101008083540402835291602001916110a9565b820191906000526020600020905b81548152906001019060200180831161108c57829003601f168201915b505050505081526020016002820180548060200260200160405190810160405280929190818152602001828054801561110157602002820191906000526020600020905b8154815260200190600101908083116110ed575b505050505081526020016003820180548060200260200160405190810160405280929190818152602001828054801561115957602002820191906000526020600020905b815481526020019060010190808311611145575b505050505081526020016004820160009054906101000a900460ff16151515158152602001600582015481526020016006820160009054906101000a900460ff16151515158152505081526020019060010190610f6b565b50505050905060005b60008054906101000a900473ffffffffffffffffffffffffffffffffffffffff1673ffffffffffffffffffffffffffffffffffffffff1663e3c8bfb96040518163ffffffff1660e01b8152600401602060405180830381865afa158015611225573d6000803e3d6000fd5b505050506040513d601f19601f820116820180604052508101906112499190614b76565b8110156114085760005b60008054906101000a900473ffffffffffffffffffffffffffffffffffffffff1673ffffffffffffffffffffffffffffffffffffffff1663ae5c13566040518163ffffffff1660e01b8152600401602060405180830381865afa1580156112be573d6000803e3d6000fd5b505050506040513d601f19601f820116820180604052508101906112e29190614b76565b8110156113f6578382815481106112fc576112fb614bd2565b5b9060005260206000209060070201600201818154811061131f5761131e614bd2565b5b906000526020600020015483838151811061133d5761133c614bd2565b5b602002602001015160400151828151811061135b5761135a614bd2565b5b60200260200101818152505083828154811061137a57611379614bd2565b5b9060005260206000209060070201600301818154811061139d5761139c614bd2565b5b90600052602060002001548383815181106113bb576113ba614bd2565b5b60200260200101516060015182815181106113d9576113d8614bd2565b5b602002602001018181525050806113ef90614c30565b9050611253565b508061140190614c30565b90506111ba565b5060008054906101000a900473ffffffffffffffffffffffffffffffffffffffff1673ffffffffffffffffffffffffffffffffffffffff1663734692a96040518163ffffffff1660e01b8152600401602060405180830381865afa158015611474573d6000803e3d6000fd5b505050506040513d601f19601f820116820180604052508101906114989190614b76565b60008054906101000a900473ffffffffffffffffffffffffffffffffffffffff1673ffffffffffffffffffffffffffffffffffffffff166339febf0c6040518163ffffffff1660e01b8152600401602060405180830381865afa158015611503573d6000803e3d6000fd5b505050506040513d601f19601f820116820180604052508101906115279190614b76565b6115319190614c78565b67ffffffffffffffff81111561154a57611549614ba3565b5b60405190808252806020026020018201604052801561158357816020015b611570613de6565b8152602001906001900390816115685790505b50945060005b60008054906101000a900473ffffffffffffffffffffffffffffffffffffffff1673ffffffffffffffffffffffffffffffffffffffff1663734692a96040518163ffffffff1660e01b8152600401602060405180830381865afa1580156115f4573d6000803e3d6000fd5b505050506040513d601f19601f820116820180604052508101906116189190614b76565b60008054906101000a900473ffffffffffffffffffffffffffffffffffffffff1673ffffffffffffffffffffffffffffffffffffffff166339febf0c6040518163ffffffff1660e01b8152600401602060405180830381865afa158015611683573d6000803e3d6000fd5b505050506040513d601f19601f820116820180604052508101906116a79190614b76565b6116b19190614c78565b8110156123985760008682815181106116cd576116cc614bd2565b5b6020026020010151905060008054906101000a900473ffffffffffffffffffffffffffffffffffffffff1673ffffffffffffffffffffffffffffffffffffffff1663e3c8bfb96040518163ffffffff1660e01b8152600401602060405180830381865afa158015611742573d6000803e3d6000fd5b505050506040513d601f19601f820116820180604052508101906117669190614b76565b67ffffffffffffffff81111561177f5761177e614ba3565b5b6040519080825280602002602001820160405280156117b857816020015b6117a5613e54565b81526020019060019003908161179d5790505b5081610180018190525060005b60008054906101000a900473ffffffffffffffffffffffffffffffffffffffff1673ffffffffffffffffffffffffffffffffffffffff1663e3c8bfb96040518163ffffffff1660e01b8152600401602060405180830381865afa158015611830573d6000803e3d6000fd5b505050506040513d601f19601f820116820180604052508101906118549190614b76565b811015611b39576000826101800151828151811061187557611874614bd2565b5b6020026020010151905060008054906101000a900473ffffffffffffffffffffffffffffffffffffffff1673ffffffffffffffffffffffffffffffffffffffff1663ae5c13566040518163ffffffff1660e01b8152600401602060405180830381865afa1580156118ea573d6000803e3d6000fd5b505050506040513d601f19601f8201168201806040525081019061190e9190614b76565b67ffffffffffffffff81111561192757611926614ba3565b5b60405190808252806020026020018201604052801561196057816020015b61194d613dc5565b8152602001906001900390816119455790505b50816000018190525060008054906101000a900473ffffffffffffffffffffffffffffffffffffffff1673ffffffffffffffffffffffffffffffffffffffff1663ae5c13566040518163ffffffff1660e01b8152600401602060405180830381865afa1580156119d4573d6000803e3d6000fd5b505050506040513d601f19601f820116820180604052508101906119f89190614b76565b67ffffffffffffffff811115611a1157611a10614ba3565b5b604051908082528060200260200182016040528015611a3f5781602001602082028036833780820191505090505b50816020018190525060008054906101000a900473ffffffffffffffffffffffffffffffffffffffff1673ffffffffffffffffffffffffffffffffffffffff1663ae5c13566040518163ffffffff1660e01b8152600401602060405180830381865afa158015611ab3573d6000803e3d6000fd5b505050506040513d601f19601f82011682018060405250810190611ad79190614b76565b67ffffffffffffffff811115611af057611aef614ba3565b5b604051908082528060200260200182016040528015611b1e5781602001602082028036833780820191505090505b5081604001819052505080611b3290614c30565b90506117c5565b5060008203611b775784816101800181905250611b7087600081518110611b6357611b62614bd2565b5b6020026020010151612e9b565b5050612387565b86600183611b859190614cac565b81518110611b9657611b95614bd2565b5b6020026020010151878381518110611bb157611bb0614bd2565b5b602002602001018190525060005b60008054906101000a900473ffffffffffffffffffffffffffffffffffffffff1673ffffffffffffffffffffffffffffffffffffffff1663e3c8bfb96040518163ffffffff1660e01b8152600401602060405180830381865afa158015611c2a573d6000803e3d6000fd5b505050506040513d601f19601f82011682018060405250810190611c4e9190614b76565b8110156120735760008054906101000a900473ffffffffffffffffffffffffffffffffffffffff1673ffffffffffffffffffffffffffffffffffffffff1663ae5c13566040518163ffffffff1660e01b8152600401602060405180830381865afa158015611cc0573d6000803e3d6000fd5b505050506040513d601f19601f82011682018060405250810190611ce49190614b76565b67ffffffffffffffff811115611cfd57611cfc614ba3565b5b604051908082528060200260200182016040528015611d3657816020015b611d23613dc5565b815260200190600190039081611d1b5790505b50888481518110611d4a57611d49614bd2565b5b602002602001015161018001518281518110611d6957611d68614bd2565b5b60200260200101516000018190525060005b60008054906101000a900473ffffffffffffffffffffffffffffffffffffffff1673ffffffffffffffffffffffffffffffffffffffff1663ae5c13566040518163ffffffff1660e01b8152600401602060405180830381865afa158015611de6573d6000803e3d6000fd5b505050506040513d601f19601f82011682018060405250810190611e0a9190614b76565b8110156120615788600185611e1f9190614cac565b81518110611e3057611e2f614bd2565b5b602002602001015161018001518281518110611e4f57611e4e614bd2565b5b6020026020010151600001518181518110611e6d57611e6c614bd2565b5b6020026020010151898581518110611e8857611e87614bd2565b5b602002602001015161018001518381518110611ea757611ea6614bd2565b5b6020026020010151600001518281518110611ec557611ec4614bd2565b5b602002602001018190525088600185611ede9190614cac565b81518110611eef57611eee614bd2565b5b602002602001015161018001518281518110611f0e57611f0d614bd2565b5b6020026020010151602001518181518110611f2c57611f2b614bd2565b5b6020026020010151898581518110611f4757611f46614bd2565b5b602002602001015161018001518381518110611f6657611f65614bd2565b5b6020026020010151602001518281518110611f8457611f83614bd2565b5b60200260200101818152505088600185611f9e9190614cac565b81518110611faf57611fae614bd2565b5b602002602001015161018001518281518110611fce57611fcd614bd2565b5b6020026020010151604001518181518110611fec57611feb614bd2565b5b602002602001015189858151811061200757612006614bd2565b5b60200260200101516101800151838151811061202657612025614bd2565b5b602002602001015160400151828151811061204457612043614bd2565b5b6020026020010181815250508061205a90614c30565b9050611d7b565b508061206c90614c30565b9050611bbf565b5060008054906101000a900473ffffffffffffffffffffffffffffffffffffffff1673ffffffffffffffffffffffffffffffffffffffff166339febf0c6040518163ffffffff1660e01b8152600401602060405180830381865afa1580156120df573d6000803e3d6000fd5b505050506040513d601f19601f820116820180604052508101906121039190614b76565b82101561231a5760005b60008054906101000a900473ffffffffffffffffffffffffffffffffffffffff1673ffffffffffffffffffffffffffffffffffffffff1663e3c8bfb96040518163ffffffff1660e01b8152600401602060405180830381865afa158015612178573d6000803e3d6000fd5b505050506040513d601f19601f8201168201806040525081019061219c9190614b76565b8110156122cc5760005b60008054906101000a900473ffffffffffffffffffffffffffffffffffffffff1673ffffffffffffffffffffffffffffffffffffffff1663ae5c13566040518163ffffffff1660e01b8152600401602060405180830381865afa158015612211573d6000803e3d6000fd5b505050506040513d601f19601f820116820180604052508101906122359190614b76565b8110156122ba5761228b878684848d60018a6122519190614cac565b8151811061226257612261614bd2565b5b60200260200101518e8a8151811061227d5761227c614bd2565b5b60200260200101518a612f2e565b89858151811061229e5761229d614bd2565b5b6020026020010181905250806122b390614c30565b90506121a6565b50806122c590614c30565b905061210d565b506122f08783815181106122e3576122e2614bd2565b5b6020026020010151612e9b565b5061231487838151811061230757612306614bd2565b5b6020026020010151613927565b50612385565b61236685848960018661232d9190614cac565b8151811061233e5761233d614bd2565b5b60200260200101518a868151811061235957612358614bd2565b5b6020026020010151613b5a565b87838151811061237957612378614bd2565b5b60200260200101819052505b505b8061239190614c30565b9050611589565b505050505092915050565b600a60009054906101000a900473ffffffffffffffffffffffffffffffffffffffff1681565b600080600a60009054906101000a900473ffffffffffffffffffffffffffffffffffffffff1673ffffffffffffffffffffffffffffffffffffffff16836040516024016124169190613eb1565b6040516020818303038152906040527f5cd6925a000000000000000000000000000000000000000000000000000000007bffffffffffffffffffffffffffffffffffffffffffffffffffffffff19166020820180517bffffffffffffffffffffffffffffffffffffffffffffffffffffffff83818316178352505050506040516124a0919061494c565b600060405180830381855af49150503d80600081146124db576040519150601f19603f3d011682016040523d82523d6000602084013e6124e0565b606091505b509150915081612525576040517f08c379a000000000000000000000000000000000000000000000000000000000815260040161251c90614d52565b60405180910390fd5b505050565b60008054906101000a900473ffffffffffffffffffffffffffffffffffffffff1681565b60066020528060005260406000206000915090505481565b600260009054906101000a900473ffffffffffffffffffffffffffffffffffffffff1681565b600080600a60009054906101000a900473ffffffffffffffffffffffffffffffffffffffff1673ffffffffffffffffffffffffffffffffffffffff16836040516024016125d99190613eb1565b6040516020818303038152906040527f90ede5d5000000000000000000000000000000000000000000000000000000007bffffffffffffffffffffffffffffffffffffffffffffffffffffffff19166020820180517bffffffffffffffffffffffffffffffffffffffffffffffffffffffff8381831617835250505050604051612663919061494c565b600060405180830381855af49150503d806000811461269e576040519150601f19603f3d011682016040523d82523d6000602084013e6126a3565b606091505b5091509150816126e8576040517f08c379a00000000000000000000000000000000000000000000000000000000081526004016126df90614de4565b60405180910390fd5b505050565b6126f5613e75565b6000612701858561096f565b905060005b60008054906101000a900473ffffffffffffffffffffffffffffffffffffffff1673ffffffffffffffffffffffffffffffffffffffff1663ae5c13566040518163ffffffff1660e01b8152600401602060405180830381865afa158015612771573d6000803e3d6000fd5b505050506040513d601f19601f820116820180604052508101906127959190614b76565b81101561282257816002815181106127b0576127af614bd2565b5b6020026020010151610180015184815181106127cf576127ce614bd2565b5b60200260200101516020015181815181106127ed576127ec614bd2565b5b60200260200101518382600a811061280857612807614bd2565b5b6020020181815250508061281b90614c30565b9050612706565b50509392505050565b60046020528060005260406000206000915090508060000154908060030160009054906101000a900460ff16908060040154905083565b600160009054906101000a900473ffffffffffffffffffffffffffffffffffffffff1681565b60006004600083815260200190815260200160002090506008600a8111156128b3576128b26147d9565b5b8160030160009054906101000a900460ff16600a8111156128d7576128d66147d9565b5b14612917576040517f08c379a000000000000000000000000000000000000000000000000000000000815260040161290e90614e76565b60405180910390fd5b600060066000848152602001908152602001600020549050600061293b848361096f565b90506000816001835161294e9190614cac565b8151811061295f5761295e614bd2565b5b60200260200101516101800151905060006008600087815260200190815260200160002060006001866129929190614c78565b8152602001908152602001600020905060005b60008054906101000a900473ffffffffffffffffffffffffffffffffffffffff1673ffffffffffffffffffffffffffffffffffffffff1663e3c8bfb96040518163ffffffff1660e01b8152600401602060405180830381865afa158015612a10573d6000803e3d6000fd5b505050506040513d601f19601f82011682018060405250810190612a349190614b76565b811015612c8f5760005b60008054906101000a900473ffffffffffffffffffffffffffffffffffffffff1673ffffffffffffffffffffffffffffffffffffffff1663ae5c13566040518163ffffffff1660e01b8152600401602060405180830381865afa158015612aa9573d6000803e3d6000fd5b505050506040513d601f19601f82011682018060405250810190612acd9190614b76565b811015612c7d57838281518110612ae757612ae6614bd2565b5b6020026020010151600001518181518110612b0557612b04614bd2565b5b6020026020010151838381548110612b2057612b1f614bd2565b5b90600052602060002090600302016000018281548110612b4357612b42614bd2565b5b9060005260206000209060030201600082015181600001556020820151816001015560408201518160020155905050838281518110612b8557612b84614bd2565b5b6020026020010151602001518181518110612ba357612ba2614bd2565b5b6020026020010151838381548110612bbe57612bbd614bd2565b5b90600052602060002090600302016001018281548110612be157612be0614bd2565b5b9060005260206000200181905550838281518110612c0257612c01614bd2565b5b6020026020010151604001518181518110612c2057612c1f614bd2565b5b6020026020010151838381548110612c3b57612c3a614bd2565b5b90600052602060002090600302016002018281548110612c5e57612c5d614bd2565b5b906000526020600020018190555080612c7690614c30565b9050612a3e565b5080612c8890614c30565b90506129a5565b506001600660008881526020019081526020016000206000828254612cb49190614c78565b9250508190555060098560030160006101000a81548160ff0219169083600a811115612ce357612ce26147d9565b5b02179055507f58d4562cf15d1052e816fd24f6af2c8a3a21416d6e4c01a9e11ef84ffe537e25868660030160009054906101000a900460ff16604051612d2a929190614e96565b60405180910390a1505050505050565b600080600a60009054906101000a900473ffffffffffffffffffffffffffffffffffffffff1673ffffffffffffffffffffffffffffffffffffffff1683604051602401612d879190613eb1565b6040516020818303038152906040527ff9781033000000000000000000000000000000000000000000000000000000007bffffffffffffffffffffffffffffffffffffffffffffffffffffffff19166020820180517bffffffffffffffffffffffffffffffffffffffffffffffffffffffff8381831617835250505050604051612e11919061494c565b600060405180830381855af49150503d8060008114612e4c576040519150601f19603f3d011682016040523d82523d6000602084013e612e51565b606091505b509150915081612e96576040517f08c379a0000000000000000000000000000000000000000000000000000000008152600401612e8d90614f31565b60405180910390fd5b505050565b612ea3613de6565b6000826101800151836040015181518110612ec157612ec0614bd2565b5b602002602001015190508060200151836060015181518110612ee657612ee5614bd2565b5b6020026020010151836101000181815250508060400151836060015181518110612f1357612f12614bd2565b5b60200260200101518361012001818152505082915050919050565b612f36613de6565b60006040518060400160405280898981518110612f5657612f55614bd2565b5b6020026020010151604001518881518110612f7457612f73614bd2565b5b60200260200101518152602001898981518110612f9457612f93614bd2565b5b6020026020010151606001518881518110612fb257612fb1614bd2565b5b60200260200101518152509050600060405180604001604052808b8a81518110612fdf57612fde614bd2565b5b6020026020010151602001518981518110612ffd57612ffc614bd2565b5b602002602001015181526020018b8a8151811061301d5761301c614bd2565b5b602002602001015160400151898151811061303b5761303a614bd2565b5b60200260200101518152509050600060405180604001604052808861018001518b8151811061306d5761306c614bd2565b5b6020026020010151602001518a8151811061308b5761308a614bd2565b5b602002602001015181526020018861018001518b815181106130b0576130af614bd2565b5b6020026020010151604001518a815181106130ce576130cd614bd2565b5b60200260200101518152509050826000600281106130ef576130ee614bd2565b5b60200201518160006002811061310857613107614bd2565b5b602002015114801561314957508060016002811061312957613128614bd2565b5b60200201518160016002811061314257613141614bd2565b5b6020020151145b156131595785935050505061391c565b600060405180604001604052808460006002811061317a57613179614bd2565b5b60200201518660006002811061319357613192614bd2565b5b60200201516131a29190614f5b565b8152602001846001600281106131bb576131ba614bd2565b5b6020020151866001600281106131d4576131d3614bd2565b5b60200201516131e39190614f5b565b81525090506000816001600281106131fe576131fd614bd2565b5b60200201518260016002811061321757613216614bd2565b5b60200201516132269190614f9e565b8260006002811061323a57613239614bd2565b5b60200201518360006002811061325357613252614bd2565b5b60200201516132629190614f9e565b61326c9190615016565b905060008961018001518c8151811061328857613287614bd2565b5b6020026020010151600001518b815181106132a6576132a5614bd2565b5b6020026020010151905060011561391257600060405180604001604052806000866000600281106132da576132d9614bd2565b5b6020020151136133e15760008054906101000a900473ffffffffffffffffffffffffffffffffffffffff1673ffffffffffffffffffffffffffffffffffffffff166339febf0c6040518163ffffffff1660e01b8152600401602060405180830381865afa15801561334f573d6000803e3d6000fd5b505050506040513d601f19601f820116820180604052508101906133739190614b76565b8960006002811061338757613386614bd2565b5b6020020151896000600281106133a05761339f614bd2565b5b60200201516133af9190614cac565b6133b99190615089565b876000600281106133cd576133cc614bd2565b5b60200201516133dc9190614cac565b6134da565b60008054906101000a900473ffffffffffffffffffffffffffffffffffffffff1673ffffffffffffffffffffffffffffffffffffffff166339febf0c6040518163ffffffff1660e01b8152600401602060405180830381865afa15801561344c573d6000803e3d6000fd5b505050506040513d601f19601f820116820180604052508101906134709190614b76565b8860006002811061348457613483614bd2565b5b60200201518a60006002811061349d5761349c614bd2565b5b60200201516134ac9190614cac565b6134b69190615089565b876000600281106134ca576134c9614bd2565b5b60200201516134d99190614c78565b5b81526020016000866001600281106134f5576134f4614bd2565b5b6020020151136135fc5760008054906101000a900473ffffffffffffffffffffffffffffffffffffffff1673ffffffffffffffffffffffffffffffffffffffff166339febf0c6040518163ffffffff1660e01b8152600401602060405180830381865afa15801561356a573d6000803e3d6000fd5b505050506040513d601f19601f8201168201806040525081019061358e9190614b76565b896001600281106135a2576135a1614bd2565b5b6020020151896001600281106135bb576135ba614bd2565b5b60200201516135ca9190614cac565b6135d49190615089565b876001600281106135e8576135e7614bd2565b5b60200201516135f79190614cac565b6136f5565b60008054906101000a900473ffffffffffffffffffffffffffffffffffffffff1673ffffffffffffffffffffffffffffffffffffffff166339febf0c6040518163ffffffff1660e01b8152600401602060405180830381865afa158015613667573d6000803e3d6000fd5b505050506040513d601f19601f8201168201806040525081019061368b9190614b76565b8860016002811061369f5761369e614bd2565b5b60200201518a6001600281106136b8576136b7614bd2565b5b60200201516136c79190614cac565b6136d19190615089565b876001600281106136e5576136e4614bd2565b5b60200201516136f49190614c78565b5b815250905060008054906101000a900473ffffffffffffffffffffffffffffffffffffffff1673ffffffffffffffffffffffffffffffffffffffff166349bbc37a6040518163ffffffff1660e01b8152600401602060405180830381865afa158015613765573d6000803e3d6000fd5b505050506040513d601f19601f820116820180604052508101906137899190614b76565b8160006002811061379d5761379c614bd2565b5b6020020151108015613854575060008054906101000a900473ffffffffffffffffffffffffffffffffffffffff1673ffffffffffffffffffffffffffffffffffffffff1663124a96c86040518163ffffffff1660e01b8152600401602060405180830381865afa158015613815573d6000803e3d6000fd5b505050506040513d601f19601f820116820180604052508101906138399190614b76565b8160006002811061384d5761384c614bd2565b5b6020020151105b15613910578060006002811061386d5761386c614bd2565b5b60200201518a61018001518e8151811061388a57613889614bd2565b5b6020026020010151602001518d815181106138a8576138a7614bd2565b5b602002602001018181525050806001600281106138c8576138c7614bd2565b5b60200201518a61018001518e815181106138e5576138e4614bd2565b5b6020026020010151604001518d8151811061390357613902614bd2565b5b6020026020010181815250505b505b8896505050505050505b979650505050505050565b61392f613de6565b60008260400151905060008360600151905060008260016139509190614cac565b90506000856101800151848151811061396c5761396b614bd2565b5b60200260200101519050600086610180015183815181106139905761398f614bd2565b5b6020026020010151905060005b60008054906101000a900473ffffffffffffffffffffffffffffffffffffffff1673ffffffffffffffffffffffffffffffffffffffff1663ae5c13566040518163ffffffff1660e01b8152600401602060405180830381865afa158015613a08573d6000803e3d6000fd5b505050506040513d601f19601f82011682018060405250810190613a2c9190614b76565b811015613b4c5760008054906101000a900473ffffffffffffffffffffffffffffffffffffffff1673ffffffffffffffffffffffffffffffffffffffff1663c8067b6f6040518163ffffffff1660e01b8152600401602060405180830381865afa158015613a9e573d6000803e3d6000fd5b505050506040513d601f19601f82011682018060405250810190613ac29190614b76565b613acf8988888886613b6d565b1015613b3b57600080613ae98a8b60400151898987613ca8565b9150915089604001518214613b385760018a6080019015159081151581525050858a60a0018181525050808a6060018181525050878a6000018181525050868a60200181815250505050613b4c565b50505b80613b4590614c30565b905061399d565b508695505050505050919050565b613b62613de6565b819050949350505050565b600060028661018001518481518110613b8957613b88614bd2565b5b6020026020010151602001518381518110613ba757613ba6614bd2565b5b60200260200101518761018001518781518110613bc757613bc6614bd2565b5b6020026020010151602001518681518110613be557613be4614bd2565b5b6020026020010151613bf79190614f5b565b613c0191906151fa565b60028761018001518581518110613c1b57613c1a614bd2565b5b6020026020010151602001518481518110613c3957613c38614bd2565b5b60200260200101518861018001518881518110613c5957613c58614bd2565b5b6020026020010151602001518781518110613c7757613c76614bd2565b5b6020026020010151613c899190614f5b565b613c9391906151fa565b613c9d9190614c78565b905095945050505050565b60008060008761018001518781518110613cc557613cc4614bd2565b5b6020026020010151600001518681518110613ce357613ce2614bd2565b5b6020026020010151602001518861018001518881518110613d0757613d06614bd2565b5b6020026020010151600001518781518110613d2557613d24614bd2565b5b602002602001015160200151613d3b9190614c78565b90506000613d47613dbb565b90508181613d559190615245565b8961018001518981518110613d6d57613d6c614bd2565b5b6020026020010151600001518881518110613d8b57613d8a614bd2565b5b6020026020010151602001511015613da857879350869250613daf565b8593508492505b50509550959350505050565b6000610515905090565b60405180606001604052806000815260200160008152602001600081525090565b604051806101a00160405280600081526020016000815260200160008152602001600081526020016000151581526020016000815260200160001515815260200160008152602001600081526020016000815260200160001515815260200160008152602001606081525090565b60405180606001604052806060815260200160608152602001606081525090565b604051806101400160405280600a90602082028036833780820191505090505090565b6000819050919050565b613eab81613e98565b82525050565b6000602082019050613ec66000830184613ea2565b92915050565b600080fd5b613eda81613e98565b8114613ee557600080fd5b50565b600081359050613ef781613ed1565b92915050565b600080600060608486031215613f1657613f15613ecc565b5b6000613f2486828701613ee8565b9350506020613f3586828701613ee8565b9250506040613f4686828701613ee8565b9150509250925092565b600081519050919050565b600082825260208201905092915050565b60005b83811015613f8a578082015181840152602081019050613f6f565b60008484015250505050565b6000601f19601f8301169050919050565b6000613fb282613f50565b613fbc8185613f5b565b9350613fcc818560208601613f6c565b613fd581613f96565b840191505092915050565b60008115159050919050565b613ff581613fe0565b82525050565b600060a08201905081810360008301526140158188613fa7565b905081810360208301526140298187613fa7565b90506140386040830186613fec565b6140456060830185613ea2565b6140526080830184613fec565b9695505050505050565b600073ffffffffffffffffffffffffffffffffffffffff82169050919050565b60006140878261405c565b9050919050565b6140978161407c565b81146140a257600080fd5b50565b6000813590506140b48161408e565b92915050565b600080604083850312156140d1576140d0613ecc565b5b60006140df858286016140a5565b92505060206140f0858286016140a5565b9150509250929050565b6000602082840312156141105761410f613ecc565b5b600061411e84828501613ee8565b91505092915050565b6000806000606084860312156141405761413f613ecc565b5b600061414e86828701613ee8565b935050602061415f868287016140a5565b9250506040614170868287016140a5565b9150509250925092565b6000806040838503121561419157614190613ecc565b5b600061419f85828601613ee8565b92505060206141b085828601613ee8565b9150509250929050565b600081519050919050565b600082825260208201905092915050565b6000819050602082019050919050565b6141ef81613e98565b82525050565b6141fe81613fe0565b82525050565b600081519050919050565b600082825260208201905092915050565b6000819050602082019050919050565b600081519050919050565b600082825260208201905092915050565b6000819050602082019050919050565b60608201600082015161427260008501826141e6565b50602082015161428560208501826141e6565b50604082015161429860408501826141e6565b50505050565b60006142aa838361425c565b60608301905092915050565b6000602082019050919050565b60006142ce82614230565b6142d8818561423b565b93506142e38361424c565b8060005b838110156143145781516142fb888261429e565b9750614306836142b6565b9250506001810190506142e7565b5085935050505092915050565b600081519050919050565b600082825260208201905092915050565b6000819050602082019050919050565b600061435983836141e6565b60208301905092915050565b6000602082019050919050565b600061437d82614321565b614387818561432c565b93506143928361433d565b8060005b838110156143c35781516143aa888261434d565b97506143b583614365565b925050600181019050614396565b5085935050505092915050565b600060608301600083015184820360008601526143ed82826142c3565b915050602083015184820360208601526144078282614372565b915050604083015184820360408601526144218282614372565b9150508091505092915050565b600061443a83836143d0565b905092915050565b6000602082019050919050565b600061445a82614204565b614464818561420f565b93508360208202850161447685614220565b8060005b858110156144b25784840389528151614493858261442e565b945061449e83614442565b925060208a0199505060018101905061447a565b50829750879550505050505092915050565b60006101a0830160008301516144dd60008601826141e6565b5060208301516144f060208601826141e6565b50604083015161450360408601826141e6565b50606083015161451660608601826141e6565b50608083015161452960808601826141f5565b5060a083015161453c60a08601826141e6565b5060c083015161454f60c08601826141f5565b5060e083015161456260e08601826141e6565b506101008301516145776101008601826141e6565b5061012083015161458c6101208601826141e6565b506101408301516145a16101408601826141f5565b506101608301516145b66101608601826141e6565b506101808301518482036101808601526145d0828261444f565b9150508091505092915050565b60006145e983836144c4565b905092915050565b6000602082019050919050565b6000614609826141ba565b61461381856141c5565b935083602082028501614625856141d6565b8060005b85811015614661578484038952815161464285826145dd565b945061464d836145f1565b925060208a01995050600181019050614629565b50829750879550505050505092915050565b6000602082019050818103600083015261468d81846145fe565b905092915050565b61469e8161407c565b82525050565b60006020820190506146b96000830184614695565b92915050565b6000819050919050565b60006146e46146df6146da8461405c565b6146bf565b61405c565b9050919050565b60006146f6826146c9565b9050919050565b6000614708826146eb565b9050919050565b614718816146fd565b82525050565b6000602082019050614733600083018461470f565b92915050565b6000600a9050919050565b600081905092915050565b6000819050919050565b6000602082019050919050565b61476f81614739565b6147798184614744565b92506147848261474f565b8060005b838110156147b557815161479c878261434d565b96506147a783614759565b925050600181019050614788565b505050505050565b6000610140820190506147d36000830184614766565b92915050565b7f4e487b7100000000000000000000000000000000000000000000000000000000600052602160045260246000fd5b600b8110614819576148186147d9565b5b50565b600081905061482a82614808565b919050565b600061483a8261481c565b9050919050565b61484a8161482f565b82525050565b60006060820190506148656000830186613ea2565b6148726020830185614841565b61487f6040830184613ea2565b949350505050565b7f4e487b7100000000000000000000000000000000000000000000000000000000600052602260045260246000fd5b600060028204905060018216806148ce57607f821691505b6020821081036148e1576148e0614887565b5b50919050565b60006040820190506148fc6000830185614695565b6149096020830184614695565b9392505050565b600081905092915050565b600061492682613f50565b6149308185614910565b9350614940818560208601613f6c565b80840191505092915050565b6000614958828461491b565b915081905092915050565b600082825260208201905092915050565b7f4552523a206372656174654d617463682044656c65676174652063616c6c206660008201527f61696c6564210000000000000000000000000000000000000000000000000000602082015250565b60006149d0602683614963565b91506149db82614974565b604082019050919050565b600060208201905081810360008301526149ff816149c3565b9050919050565b7f4552523a2075706461746552657665616c496e666f2044656c6567617465206360008201527f616c6c206661696c656421000000000000000000000000000000000000000000602082015250565b6000614a62602b83614963565b9150614a6d82614a06565b604082019050919050565b60006020820190508181036000830152614a9181614a55565b9050919050565b6000606082019050614aad6000830186613ea2565b614aba6020830185614695565b614ac76040830184614695565b949350505050565b7f4552523a206a6f696e4d617463682044656c65676174652063616c6c2066616960008201527f6c65642100000000000000000000000000000000000000000000000000000000602082015250565b6000614b2b602483614963565b9150614b3682614acf565b604082019050919050565b60006020820190508181036000830152614b5a81614b1e565b9050919050565b600081519050614b7081613ed1565b92915050565b600060208284031215614b8c57614b8b613ecc565b5b6000614b9a84828501614b61565b91505092915050565b7f4e487b7100000000000000000000000000000000000000000000000000000000600052604160045260246000fd5b7f4e487b7100000000000000000000000000000000000000000000000000000000600052603260045260246000fd5b7f4e487b7100000000000000000000000000000000000000000000000000000000600052601160045260246000fd5b6000614c3b82613e98565b91507fffffffffffffffffffffffffffffffffffffffffffffffffffffffffffffffff8203614c6d57614c6c614c01565b5b600182019050919050565b6000614c8382613e98565b9150614c8e83613e98565b9250828201905080821115614ca657614ca5614c01565b5b92915050565b6000614cb782613e98565b9150614cc283613e98565b9250828203905081811115614cda57614cd9614c01565b5b92915050565b7f4552523a20636f6d6d69746d656e745469636b2044656c65676174652063616c60008201527f6c206661696c6564210000000000000000000000000000000000000000000000602082015250565b6000614d3c602983614963565b9150614d4782614ce0565b604082019050919050565b60006020820190508181036000830152614d6b81614d2f565b9050919050565b7f4552523a20757064617465436f6d6d69746d656e74496e666f2044656c65676160008201527f74652063616c6c206661696c6564210000000000000000000000000000000000602082015250565b6000614dce602f83614963565b9150614dd982614d72565b604082019050919050565b60006020820190508181036000830152614dfd81614dc1565b9050919050565b7f4552523a204d61746368206e6f7420696e20636f72726563742073746167652060008201527f746f20706572666f726d20612053746174652075706461746521000000000000602082015250565b6000614e60603a83614963565b9150614e6b82614e04565b604082019050919050565b60006020820190508181036000830152614e8f81614e53565b9050919050565b6000604082019050614eab6000830185613ea2565b614eb86020830184614841565b9392505050565b7f4552523a2072657665616c5469636b2044656c65676174652063616c6c20666160008201527f696c656421000000000000000000000000000000000000000000000000000000602082015250565b6000614f1b602583614963565b9150614f2682614ebf565b604082019050919050565b60006020820190508181036000830152614f4a81614f0e565b9050919050565b6000819050919050565b6000614f6682614f51565b9150614f7183614f51565b9250828203905081811260008412168282136000851215161715614f9857614f97614c01565b5b92915050565b6000614fa982614f51565b9150614fb483614f51565b9250828202614fc281614f51565b91507f80000000000000000000000000000000000000000000000000000000000000008414600084121615614ffa57614ff9614c01565b5b828205841483151761500f5761500e614c01565b5b5092915050565b600061502182614f51565b915061502c83614f51565b92508282019050828112156000831216838212600084121516171561505457615053614c01565b5b92915050565b7f4e487b7100000000000000000000000000000000000000000000000000000000600052601260045260246000fd5b600061509482613e98565b915061509f83613e98565b9250826150af576150ae61505a565b5b828204905092915050565b60008160011c9050919050565b6000808291508390505b6001851115615111578086048111156150ed576150ec614c01565b5b60018516156150fc5780820291505b808102905061510a856150ba565b94506150d1565b94509492505050565b60008261512a57600190506151e6565b8161513857600090506151e6565b816001811461514e576002811461515857615187565b60019150506151e6565b60ff84111561516a57615169614c01565b5b8360020a91508482111561518157615180614c01565b5b506151e6565b5060208310610133831016604e8410600b84101617156151bc5782820a9050838111156151b7576151b6614c01565b5b6151e6565b6151c984848460016150c7565b925090508184048111156151e0576151df614c01565b5b81810290505b9392505050565b600060ff82169050919050565b600061520582613e98565b9150615210836151ed565b925061523d7fffffffffffffffffffffffffffffffffffffffffffffffffffffffffffffffff848461511a565b905092915050565b600061525082613e98565b915061525b83613e98565b92508261526b5761526a61505a565b5b82820690509291505056fea2646970667358221220979118cba1d18ccc5260fb6bad78718d6cfed4739b5729d75b8119468a47fdf364736f6c63430008120033608060405234801561001057600080fd5b5061026d806100206000396000f3fe608060405234801561001057600080fd5b506004361061009e5760003560e01c8063705dd6cd11610066578063705dd6cd14610139578063734692a914610157578063ae5c135614610175578063c8067b6f14610193578063e3c8bfb9146101b15761009e565b8063124a96c8146100a357806339febf0c146100c157806345baee55146100df57806349bbc37a146100fd5780634ffdf11e1461011b575b600080fd5b6100ab6101cf565b6040516100b8919061021c565b60405180910390f35b6100c96101d5565b6040516100d6919061021c565b60405180910390f35b6100e76101da565b6040516100f4919061021c565b60405180910390f35b6101056101df565b604051610112919061021c565b60405180910390f35b6101236101e5565b604051610130919061021c565b60405180910390f35b6101416101ea565b60405161014e919061021c565b60405180910390f35b61015f6101ef565b60405161016c919061021c565b60405180910390f35b61017d6101f4565b60405161018a919061021c565b60405180910390f35b61019b6101f9565b6040516101a8919061021c565b60405180910390f35b6101b96101fe565b6040516101c6919061021c565b60405180910390f35b6101f481565b600581565b600781565b6103e881565b600681565b600a81565b600781565b600a81565b600581565b600281565b6000819050919050565b61021681610203565b82525050565b6000602082019050610231600083018461020d565b9291505056fea264697066735822122001d9d86b524b072c82851d2da1af568601b991b53f790e36a726e5478a595e9964736f6c6343000812003360806040523480156200001157600080fd5b5060405162003c1438038062003c14833981810160405281019062000037919062000162565b6040516200004590620000ea565b604051809103906000f08015801562000062573d6000803e3d6000fd5b506000806101000a81548173ffffffffffffffffffffffffffffffffffffffff021916908373ffffffffffffffffffffffffffffffffffffffff16021790555080600160006101000a81548173ffffffffffffffffffffffffffffffffffffffff021916908373ffffffffffffffffffffffffffffffffffffffff1602179055505062000194565b61028d806200398783390190565b600080fd5b600073ffffffffffffffffffffffffffffffffffffffff82169050919050565b60006200012a82620000fd565b9050919050565b6200013c816200011d565b81146200014857600080fd5b50565b6000815190506200015c8162000131565b92915050565b6000602082840312156200017b576200017a620000f8565b5b60006200018b848285016200014b565b91505092915050565b6137e380620001a46000396000f3fe608060405234801561001057600080fd5b50600436106100ea5760003560e01c806372de5b2f1161008c57806390ede5d51161006657806390ede5d51461024d578063d79b490e14610269578063d7dfa0dd1461029b578063f9781033146102b9576100ea565b806372de5b2f146101e1578063755f10fd146101ff5780638ba47bdd1461022f576100ea565b806327764f7d116100c857806327764f7d1461015d57806335868ab71461017957806337c74779146101955780635cd6925a146101c5576100ea565b806301fd1951146100ef5780631b7d40a51461010d5780631e20530a14610141575b600080fd5b6100f76102d5565b60405161010491906125f7565b60405180910390f35b61012760048036038101906101229190612652565b6102db565b604051610138959493929190612750565b60405180910390f35b61015b6004803603810190610156919061280f565b610465565b005b6101776004803603810190610172919061284f565b6105e5565b005b610193600480360381019061018e919061287c565b6109f3565b005b6101af60048036038101906101aa919061284f565b610bdc565b6040516101bc91906125f7565b60405180910390f35b6101df60048036038101906101da919061284f565b610bf4565b005b6101e9610f11565b6040516101f6919061292e565b60405180910390f35b6102196004803603810190610214919061284f565b610f35565b60405161022691906125f7565b60405180910390f35b610237610f4d565b6040516102449190612958565b60405180910390f35b6102676004803603810190610262919061284f565b610f73565b005b610283600480360381019061027e919061284f565b611381565b604051610292939291906129ea565b60405180910390f35b6102a36113b8565b6040516102b09190612958565b60405180910390f35b6102d360048036038101906102ce919061284f565b6113de565b005b60035481565b6009602052826000526040600020602052816000526040600020818154811061030357600080fd5b9060005260206000209060070201600092509250505080600001805461032890612a50565b80601f016020809104026020016040519081016040528092919081815260200182805461035490612a50565b80156103a15780601f10610376576101008083540402835291602001916103a1565b820191906000526020600020905b81548152906001019060200180831161038457829003601f168201915b5050505050908060010180546103b690612a50565b80601f01602080910402602001604051908101604052809291908181526020018280546103e290612a50565b801561042f5780601f106104045761010080835404028352916020019161042f565b820191906000526020600020905b81548152906001019060200180831161041257829003601f168201915b5050505050908060040160009054906101000a900460ff16908060050154908060060160009054906101000a900460ff16905085565b60006003549050610477816000611633565b600060046000838152602001908152602001600020905060018160030160006101000a81548160ff0219169083600a8111156104b6576104b5612973565b5b021790555083816001016000815481106104d3576104d2612a81565b5b9060005260206000200160006101000a81548173ffffffffffffffffffffffffffffffffffffffff021916908373ffffffffffffffffffffffffffffffffffffffff160217905550828160020160008154811061053357610532612a81565b5b9060005260206000200160006101000a81548173ffffffffffffffffffffffffffffffffffffffff021916908373ffffffffffffffffffffffffffffffffffffffff16021790555060016003600082825461058e9190612adf565b925050819055507f58d4562cf15d1052e816fd24f6af2c8a3a21416d6e4c01a9e11ef84ffe537e25828260030160009054906101000a900460ff166040516105d7929190612b13565b60405180910390a150505050565b60006004600083815260200190815260200160002090506007600a8111156106105761060f612973565b5b8160030160009054906101000a900460ff16600a81111561063457610633612973565b5b14610674576040517f08c379a000000000000000000000000000000000000000000000000000000000815260040161066b90612bbf565b60405180910390fd5b60005b60008054906101000a900473ffffffffffffffffffffffffffffffffffffffff1673ffffffffffffffffffffffffffffffffffffffff1663e3c8bfb96040518163ffffffff1660e01b8152600401602060405180830381865afa1580156106e2573d6000803e3d6000fd5b505050506040513d601f19601f820116820180604052508101906107069190612bf4565b81101561080c5781600201818154811061072357610722612a81565b5b9060005260206000200160009054906101000a900473ffffffffffffffffffffffffffffffffffffffff1673ffffffffffffffffffffffffffffffffffffffff1663cce710636040518163ffffffff1660e01b8152600401602060405180830381865afa158015610798573d6000803e3d6000fd5b505050506040513d601f19601f820116820180604052508101906107bc9190612c4d565b6107fb576040517f08c379a00000000000000000000000000000000000000000000000000000000081526004016107f290612cec565b60405180910390fd5b8061080590612d0c565b9050610677565b5060005b60008054906101000a900473ffffffffffffffffffffffffffffffffffffffff1673ffffffffffffffffffffffffffffffffffffffff1663e3c8bfb96040518163ffffffff1660e01b8152600401602060405180830381865afa15801561087b573d6000803e3d6000fd5b505050506040513d601f19601f8201168201806040525081019061089f9190612bf4565b8110156109775761096683828460020184815481106108c1576108c0612a81565b5b9060005260206000200160009054906101000a900473ffffffffffffffffffffffffffffffffffffffff1673ffffffffffffffffffffffffffffffffffffffff16632f703e086040518163ffffffff1660e01b81526004016000604051808303816000875af1158015610938573d6000803e3d6000fd5b505050506040513d6000823e3d601f19601f820116820180604052508101906109619190612e7a565b611b81565b8061097090612d0c565b9050610810565b5060088160030160006101000a81548160ff0219169083600a8111156109a05761099f612973565b5b02179055507f58d4562cf15d1052e816fd24f6af2c8a3a21416d6e4c01a9e11ef84ffe537e25828260030160009054906101000a900460ff166040516109e7929190612b13565b60405180910390a15050565b60006004600085815260200190815260200160002090506001600a811115610a1e57610a1d612973565b5b8160030160009054906101000a900460ff16600a811115610a4257610a41612973565b5b14610a82576040517f08c379a0000000000000000000000000000000000000000000000000000000008152600401610a7990612f35565b60405180910390fd5b8281600101600181548110610a9a57610a99612a81565b5b9060005260206000200160006101000a81548173ffffffffffffffffffffffffffffffffffffffff021916908373ffffffffffffffffffffffffffffffffffffffff1602179055508181600201600181548110610afa57610af9612a81565b5b9060005260206000200160006101000a81548173ffffffffffffffffffffffffffffffffffffffff021916908373ffffffffffffffffffffffffffffffffffffffff16021790555060028160030160006101000a81548160ff0219169083600a811115610b6a57610b69612973565b5b0217905550610b78846122f0565b610b8c610515670adbf78816ee71656123a9565b7f58d4562cf15d1052e816fd24f6af2c8a3a21416d6e4c01a9e11ef84ffe537e25848260030160009054906101000a900460ff16604051610bce929190612b13565b60405180910390a150505050565b60056020528060005260406000206000915090505481565b6000600460008381526020019081526020016000209050610c496040518060400160405280601781526020017f636f6d6d69746d656e745469636b202d2063616c6c65640000000000000000008152506124a9565b6004600a811115610c5d57610c5c612973565b5b8160030160009054906101000a900460ff16600a811115610c8157610c80612973565b5b1480610cc257506009600a811115610c9c57610c9b612973565b5b8160030160009054906101000a900460ff16600a811115610cc057610cbf612973565b5b145b610d01576040517f08c379a0000000000000000000000000000000000000000000000000000000008152600401610cf890612fc7565b60405180910390fd5b610d2a8260016006600086815260200190815260200160002054610d259190612adf565b611633565b610d4b604051806060016040528060298152602001613785602991396124a9565b60005b60008054906101000a900473ffffffffffffffffffffffffffffffffffffffff1673ffffffffffffffffffffffffffffffffffffffff1663e3c8bfb96040518163ffffffff1660e01b8152600401602060405180830381865afa158015610db9573d6000803e3d6000fd5b505050506040513d601f19601f82011682018060405250810190610ddd9190612bf4565b811015610e9557816001018181548110610dfa57610df9612a81565b5b9060005260206000200160009054906101000a900473ffffffffffffffffffffffffffffffffffffffff1673ffffffffffffffffffffffffffffffffffffffff1663606deecd6040518163ffffffff1660e01b8152600401600060405180830381600087803b158015610e6c57600080fd5b505af1158015610e80573d6000803e3d6000fd5b5050505080610e8e90612d0c565b9050610d4e565b5060058160030160006101000a81548160ff0219169083600a811115610ebe57610ebd612973565b5b02179055507f58d4562cf15d1052e816fd24f6af2c8a3a21416d6e4c01a9e11ef84ffe537e25828260030160009054906101000a900460ff16604051610f05929190612b13565b60405180910390a15050565b60008054906101000a900473ffffffffffffffffffffffffffffffffffffffff1681565b60066020528060005260406000206000915090505481565b600260009054906101000a900473ffffffffffffffffffffffffffffffffffffffff1681565b60006004600083815260200190815260200160002090506005600a811115610f9e57610f9d612973565b5b8160030160009054906101000a900460ff16600a811115610fc257610fc1612973565b5b14611002576040517f08c379a0000000000000000000000000000000000000000000000000000000008152600401610ff990613059565b60405180910390fd5b60005b60008054906101000a900473ffffffffffffffffffffffffffffffffffffffff1673ffffffffffffffffffffffffffffffffffffffff1663e3c8bfb96040518163ffffffff1660e01b8152600401602060405180830381865afa158015611070573d6000803e3d6000fd5b505050506040513d601f19601f820116820180604052508101906110949190612bf4565b81101561119a578160010181815481106110b1576110b0612a81565b5b9060005260206000200160009054906101000a900473ffffffffffffffffffffffffffffffffffffffff1673ffffffffffffffffffffffffffffffffffffffff1663cce710636040518163ffffffff1660e01b8152600401602060405180830381865afa158015611126573d6000803e3d6000fd5b505050506040513d601f19601f8201168201806040525081019061114a9190612c4d565b611189576040517f08c379a000000000000000000000000000000000000000000000000000000000815260040161118090612cec565b60405180910390fd5b8061119390612d0c565b9050611005565b5060005b60008054906101000a900473ffffffffffffffffffffffffffffffffffffffff1673ffffffffffffffffffffffffffffffffffffffff1663e3c8bfb96040518163ffffffff1660e01b8152600401602060405180830381865afa158015611209573d6000803e3d6000fd5b505050506040513d601f19601f8201168201806040525081019061122d9190612bf4565b811015611305576112f4838284600101848154811061124f5761124e612a81565b5b9060005260206000200160009054906101000a900473ffffffffffffffffffffffffffffffffffffffff1673ffffffffffffffffffffffffffffffffffffffff16632f703e086040518163ffffffff1660e01b81526004016000604051808303816000875af11580156112c6573d6000803e3d6000fd5b505050506040513d6000823e3d601f19601f820116820180604052508101906112ef9190612e7a565b612542565b806112fe90612d0c565b905061119e565b5060068160030160006101000a81548160ff0219169083600a81111561132e5761132d612973565b5b02179055507f58d4562cf15d1052e816fd24f6af2c8a3a21416d6e4c01a9e11ef84ffe537e25828260030160009054906101000a900460ff16604051611375929190612b13565b60405180910390a15050565b60046020528060005260406000206000915090508060000154908060030160009054906101000a900460ff16908060040154905083565b600160009054906101000a900473ffffffffffffffffffffffffffffffffffffffff1681565b60006004600083815260200190815260200160002090506006600a81111561140957611408612973565b5b8160030160009054906101000a900460ff16600a81111561142d5761142c612973565b5b1461146d576040517f08c379a0000000000000000000000000000000000000000000000000000000008152600401611464906130eb565b60405180910390fd5b60005b60008054906101000a900473ffffffffffffffffffffffffffffffffffffffff1673ffffffffffffffffffffffffffffffffffffffff1663e3c8bfb96040518163ffffffff1660e01b8152600401602060405180830381865afa1580156114db573d6000803e3d6000fd5b505050506040513d601f19601f820116820180604052508101906114ff9190612bf4565b8110156115b75781600201818154811061151c5761151b612a81565b5b9060005260206000200160009054906101000a900473ffffffffffffffffffffffffffffffffffffffff1673ffffffffffffffffffffffffffffffffffffffff1663606deecd6040518163ffffffff1660e01b8152600401600060405180830381600087803b15801561158e57600080fd5b505af11580156115a2573d6000803e3d6000fd5b50505050806115b090612d0c565b9050611470565b5060078160030160006101000a81548160ff0219169083600a8111156115e0576115df612973565b5b02179055507f58d4562cf15d1052e816fd24f6af2c8a3a21416d6e4c01a9e11ef84ffe537e25828260030160009054906101000a900460ff16604051611627929190612b13565b60405180910390a15050565b6000810361175f5760005b60008054906101000a900473ffffffffffffffffffffffffffffffffffffffff1673ffffffffffffffffffffffffffffffffffffffff1663e3c8bfb96040518163ffffffff1660e01b8152600401602060405180830381865afa1580156116a9573d6000803e3d6000fd5b505050506040513d601f19601f820116820180604052508101906116cd9190612bf4565b81101561175d5760046000848152602001908152602001600020600101600181600181540180825580915050039060005260206000200160009054906101000a90505060046000848152602001908152602001600020600201600181600181540180825580915050039060005260206000200160009054906101000a9050508061175690612d0c565b905061163e565b505b60006007600084815260200190815260200160002060008381526020019081526020016000209050600060086000858152602001908152602001600020600084815260200190815260200160002090506000600960008681526020019081526020016000206000858152602001908152602001600020905060005b60008054906101000a900473ffffffffffffffffffffffffffffffffffffffff1673ffffffffffffffffffffffffffffffffffffffff1663e3c8bfb96040518163ffffffff1660e01b8152600401602060405180830381865afa158015611845573d6000803e3d6000fd5b505050506040513d601f19601f820116820180604052508101906118699190612bf4565b811015611b79578360000160009080600181540180825580915050600190039060005260206000200160009091909190915055826001816001815401808255809150500390600052602060002090505060005b60008054906101000a900473ffffffffffffffffffffffffffffffffffffffff1673ffffffffffffffffffffffffffffffffffffffff1663ae5c13566040518163ffffffff1660e01b8152600401602060405180830381865afa158015611927573d6000803e3d6000fd5b505050506040513d601f19601f8201168201806040525081019061194b9190612bf4565b811015611a215783828154811061196557611964612a81565b5b9060005260206000209060030201600001600181600181540180825580915050039060005260206000209050508382815481106119a5576119a4612a81565b5b90600052602060002090600302016001016001816001815401808255809150500390600052602060002050508382815481106119e4576119e3612a81565b5b906000526020600020906003020160020160018160018154018082558091505003906000526020600020505080611a1a90612d0c565b90506118bc565b50816001816001815401808255809150500390600052602060002090505060005b60008054906101000a900473ffffffffffffffffffffffffffffffffffffffff1673ffffffffffffffffffffffffffffffffffffffff1663ae5c13566040518163ffffffff1660e01b8152600401602060405180830381865afa158015611aad573d6000803e3d6000fd5b505050506040513d601f19601f82011682018060405250810190611ad19190612bf4565b811015611b6757828281548110611aeb57611aea612a81565b5b9060005260206000209060070201600201600181600181540180825580915050039060005260206000205050828281548110611b2a57611b29612a81565b5b906000526020600020906007020160030160018160018154018082558091505003906000526020600020505080611b6090612d0c565b9050611a42565b5080611b7290612d0c565b90506117da565b505050505050565b6000600960008581526020019081526020016000206000600660008781526020019081526020016000205481526020019081526020016000208381548110611bcc57611bcb612a81565b5b9060005260206000209060070201905060008280519060200120604051602001611bf69190613124565b604051602081830303815290604052905081600001604051611c1891906131e2565b6040518091039020818051906020012014611c68576040517f08c379a0000000000000000000000000000000000000000000000000000000008152600401611c5f9061326b565b60405180910390fd5b82826001019081611c799190613418565b5060008084806020019051810190611c9191906134ea565b9150915060008060009054906101000a900473ffffffffffffffffffffffffffffffffffffffff1673ffffffffffffffffffffffffffffffffffffffff166345baee556040518163ffffffff1660e01b8152600401602060405180830381865afa158015611d03573d6000803e3d6000fd5b505050506040513d601f19601f82011682018060405250810190611d279190612bf4565b60008054906101000a900473ffffffffffffffffffffffffffffffffffffffff1673ffffffffffffffffffffffffffffffffffffffff16634ffdf11e6040518163ffffffff1660e01b8152600401602060405180830381865afa158015611d92573d6000803e3d6000fd5b505050506040513d601f19601f82011682018060405250810190611db69190612bf4565b611dc09190612adf565b905060005b60008054906101000a900473ffffffffffffffffffffffffffffffffffffffff1673ffffffffffffffffffffffffffffffffffffffff1663ae5c13566040518163ffffffff1660e01b8152600401602060405180830381865afa158015611e30573d6000803e3d6000fd5b505050506040513d601f19601f82011682018060405250810190611e549190612bf4565b8110156120ab5760008282611e69919061352a565b84901c9050600160008054906101000a900473ffffffffffffffffffffffffffffffffffffffff1673ffffffffffffffffffffffffffffffffffffffff16634ffdf11e6040518163ffffffff1660e01b8152600401602060405180830381865afa158015611edb573d6000803e3d6000fd5b505050506040513d601f19601f82011682018060405250810190611eff9190612bf4565b6002611f0b919061369f565b611f1591906136ea565b60008054906101000a900473ffffffffffffffffffffffffffffffffffffffff1673ffffffffffffffffffffffffffffffffffffffff166345baee556040518163ffffffff1660e01b8152600401602060405180830381865afa158015611f80573d6000803e3d6000fd5b505050506040513d601f19601f82011682018060405250810190611fa49190612bf4565b82901c16876002018381548110611fbe57611fbd612a81565b5b9060005260206000200181905550600160008054906101000a900473ffffffffffffffffffffffffffffffffffffffff1673ffffffffffffffffffffffffffffffffffffffff166345baee556040518163ffffffff1660e01b8152600401602060405180830381865afa158015612039573d6000803e3d6000fd5b505050506040513d601f19601f8201168201806040525081019061205d9190612bf4565b6002612069919061369f565b61207391906136ea565b811687600301838154811061208b5761208a612a81565b5b906000526020600020018190555050806120a490612d0c565b9050611dc5565b5060018060008054906101000a900473ffffffffffffffffffffffffffffffffffffffff1673ffffffffffffffffffffffffffffffffffffffff1663ae5c13566040518163ffffffff1660e01b8152600401602060405180830381865afa15801561211a573d6000803e3d6000fd5b505050506040513d601f19601f8201168201806040525081019061213e9190612bf4565b83612149919061352a565b84901c16148560060160006101000a81548160ff021916908315150217905550600180600160008054906101000a900473ffffffffffffffffffffffffffffffffffffffff1673ffffffffffffffffffffffffffffffffffffffff1663ae5c13566040518163ffffffff1660e01b8152600401602060405180830381865afa1580156121d9573d6000803e3d6000fd5b505050506040513d601f19601f820116820180604052508101906121fd9190612bf4565b84612208919061352a565b6122129190612adf565b84901c16148560040160006101000a81548160ff021916908315150217905550600f600260008054906101000a900473ffffffffffffffffffffffffffffffffffffffff1673ffffffffffffffffffffffffffffffffffffffff1663ae5c13566040518163ffffffff1660e01b8152600401602060405180830381865afa1580156122a1573d6000803e3d6000fd5b505050506040513d601f19601f820116820180604052508101906122c59190612bf4565b836122d0919061352a565b6122da9190612adf565b83901c1685600501819055505050505050505050565b600060046000838152602001908152602001600020905081600560006105158152602001908152602001600020819055506003600a81111561233557612334612973565b5b8160030160009054906101000a900460ff16600a81111561235957612358612973565b5b50507f58d4562cf15d1052e816fd24f6af2c8a3a21416d6e4c01a9e11ef84ffe537e25828260030160009054906101000a900460ff1660405161239d929190612b13565b60405180910390a15050565b60006004600060056000868152602001908152602001600020548152602001908152602001600020905081816000018190555060048160030160006101000a81548160ff0219169083600a81111561240457612403612973565b5b02179055506124476040518060400160405280601b81526020017f66756c6c66696c5365656452657175657374202d2063616c6c656400000000008152506124a9565b7f58d4562cf15d1052e816fd24f6af2c8a3a21416d6e4c01a9e11ef84ffe537e2560056000858152602001908152602001600020548260030160009054906101000a900460ff1660405161249c929190612b13565b60405180910390a1505050565b61253f816040516024016124bd9190613762565b6040516020818303038152906040527f41304fac000000000000000000000000000000000000000000000000000000007bffffffffffffffffffffffffffffffffffffffffffffffffffffffff19166020820180517bffffffffffffffffffffffffffffffffffffffffffffffffffffffff83818316178352505050506125b5565b50565b600060096000858152602001908152602001600020600060066000878152602001908152602001600020548152602001908152602001600020838154811061258d5761258c612a81565b5b90600052602060002090600702019050818160000190816125ae9190613418565b5050505050565b60008151905060006a636f6e736f6c652e6c6f679050602083016000808483855afa5050505050565b6000819050919050565b6125f1816125de565b82525050565b600060208201905061260c60008301846125e8565b92915050565b6000604051905090565b600080fd5b600080fd5b61262f816125de565b811461263a57600080fd5b50565b60008135905061264c81612626565b92915050565b60008060006060848603121561266b5761266a61261c565b5b60006126798682870161263d565b935050602061268a8682870161263d565b925050604061269b8682870161263d565b9150509250925092565b600081519050919050565b600082825260208201905092915050565b60005b838110156126df5780820151818401526020810190506126c4565b60008484015250505050565b6000601f19601f8301169050919050565b6000612707826126a5565b61271181856126b0565b93506127218185602086016126c1565b61272a816126eb565b840191505092915050565b60008115159050919050565b61274a81612735565b82525050565b600060a082019050818103600083015261276a81886126fc565b9050818103602083015261277e81876126fc565b905061278d6040830186612741565b61279a60608301856125e8565b6127a76080830184612741565b9695505050505050565b600073ffffffffffffffffffffffffffffffffffffffff82169050919050565b60006127dc826127b1565b9050919050565b6127ec816127d1565b81146127f757600080fd5b50565b600081359050612809816127e3565b92915050565b600080604083850312156128265761282561261c565b5b6000612834858286016127fa565b9250506020612845858286016127fa565b9150509250929050565b6000602082840312156128655761286461261c565b5b60006128738482850161263d565b91505092915050565b6000806000606084860312156128955761289461261c565b5b60006128a38682870161263d565b93505060206128b4868287016127fa565b92505060406128c5868287016127fa565b9150509250925092565b6000819050919050565b60006128f46128ef6128ea846127b1565b6128cf565b6127b1565b9050919050565b6000612906826128d9565b9050919050565b6000612918826128fb565b9050919050565b6129288161290d565b82525050565b6000602082019050612943600083018461291f565b92915050565b612952816127d1565b82525050565b600060208201905061296d6000830184612949565b92915050565b7f4e487b7100000000000000000000000000000000000000000000000000000000600052602160045260246000fd5b600b81106129b3576129b2612973565b5b50565b60008190506129c4826129a2565b919050565b60006129d4826129b6565b9050919050565b6129e4816129c9565b82525050565b60006060820190506129ff60008301866125e8565b612a0c60208301856129db565b612a1960408301846125e8565b949350505050565b7f4e487b7100000000000000000000000000000000000000000000000000000000600052602260045260246000fd5b60006002820490506001821680612a6857607f821691505b602082108103612a7b57612a7a612a21565b5b50919050565b7f4e487b7100000000000000000000000000000000000000000000000000000000600052603260045260246000fd5b7f4e487b7100000000000000000000000000000000000000000000000000000000600052601160045260246000fd5b6000612aea826125de565b9150612af5836125de565b9250828201905080821115612b0d57612b0c612ab0565b5b92915050565b6000604082019050612b2860008301856125e8565b612b3560208301846129db565b9392505050565b600082825260208201905092915050565b7f4552523a204d61746368206e6f7420696e20636f72726563742073746167652060008201527f746f20726563656976652052657665616c732100000000000000000000000000602082015250565b6000612ba9603383612b3c565b9150612bb482612b4d565b604082019050919050565b60006020820190508181036000830152612bd881612b9c565b9050919050565b600081519050612bee81612626565b92915050565b600060208284031215612c0a57612c0961261c565b5b6000612c1884828501612bdf565b91505092915050565b612c2a81612735565b8114612c3557600080fd5b50565b600081519050612c4781612c21565b92915050565b600060208284031215612c6357612c6261261c565b5b6000612c7184828501612c38565b91505092915050565b7f4552523a204e6f7420616c6c207465616d73206861766520697373756564206360008201527f6f6d6d69746d656e747321000000000000000000000000000000000000000000602082015250565b6000612cd6602b83612b3c565b9150612ce182612c7a565b604082019050919050565b60006020820190508181036000830152612d0581612cc9565b9050919050565b6000612d17826125de565b91507fffffffffffffffffffffffffffffffffffffffffffffffffffffffffffffffff8203612d4957612d48612ab0565b5b600182019050919050565b600080fd5b600080fd5b7f4e487b7100000000000000000000000000000000000000000000000000000000600052604160045260246000fd5b612d96826126eb565b810181811067ffffffffffffffff82111715612db557612db4612d5e565b5b80604052505050565b6000612dc8612612565b9050612dd48282612d8d565b919050565b600067ffffffffffffffff821115612df457612df3612d5e565b5b612dfd826126eb565b9050602081019050919050565b6000612e1d612e1884612dd9565b612dbe565b905082815260208101848484011115612e3957612e38612d59565b5b612e448482856126c1565b509392505050565b600082601f830112612e6157612e60612d54565b5b8151612e71848260208601612e0a565b91505092915050565b600060208284031215612e9057612e8f61261c565b5b600082015167ffffffffffffffff811115612eae57612ead612621565b5b612eba84828501612e4c565b91505092915050565b7f4552523a20596f752063616e206f6e6c79206a6f696e2061206e65776c79206360008201527f726561746564206d617463682100000000000000000000000000000000000000602082015250565b6000612f1f602d83612b3c565b9150612f2a82612ec3565b604082019050919050565b60006020820190508181036000830152612f4e81612f12565b9050919050565b7f4552523a204d61746368206e6f7420696e20636f72726563742073746167652060008201527f746f20666574636820436f6d6d69746d656e7473210000000000000000000000602082015250565b6000612fb1603583612b3c565b9150612fbc82612f55565b604082019050919050565b60006020820190508181036000830152612fe081612fa4565b9050919050565b7f4552523a204d61746368206e6f7420696e20636f72726563742073746167652060008201527f746f207265636569766520436f6d6d69746d656e747321000000000000000000602082015250565b6000613043603783612b3c565b915061304e82612fe7565b604082019050919050565b6000602082019050818103600083015261307281613036565b9050919050565b7f4552523a204d61746368206e6f7420696e20636f72726563742073746167652060008201527f746f206665746368205265617665616c73210000000000000000000000000000602082015250565b60006130d5603283612b3c565b91506130e082613079565b604082019050919050565b60006020820190508181036000830152613104816130c8565b9050919050565b6000819050919050565b61311e8161310b565b82525050565b60006020820190506131396000830184613115565b92915050565b600081905092915050565b60008190508160005260206000209050919050565b6000815461316c81612a50565b613176818661313f565b9450600182166000811461319157600181146131a6576131d9565b60ff19831686528115158202860193506131d9565b6131af8561314a565b60005b838110156131d1578154818901526001820191506020810190506131b2565b838801955050505b50505092915050565b60006131ee828461315f565b915081905092915050565b7f4552523a2052657665616c20646f65736e277420636f72726573706f6e64207460008201527f6f2074686520436f6d6d69746d656e7400000000000000000000000000000000602082015250565b6000613255603083612b3c565b9150613260826131f9565b604082019050919050565b6000602082019050818103600083015261328481613248565b9050919050565b60006020601f8301049050919050565b600082821b905092915050565b6000600883026132d87fffffffffffffffffffffffffffffffffffffffffffffffffffffffffffffffff8261329b565b6132e2868361329b565b95508019841693508086168417925050509392505050565b600061331561331061330b846125de565b6128cf565b6125de565b9050919050565b6000819050919050565b61332f836132fa565b61334361333b8261331c565b8484546132a8565b825550505050565b600090565b61335861334b565b613363818484613326565b505050565b5b818110156133875761337c600082613350565b600181019050613369565b5050565b601f8211156133cc5761339d8161314a565b6133a68461328b565b810160208510156133b5578190505b6133c96133c18561328b565b830182613368565b50505b505050565b600082821c905092915050565b60006133ef600019846008026133d1565b1980831691505092915050565b600061340883836133de565b9150826002028217905092915050565b613421826126a5565b67ffffffffffffffff81111561343a57613439612d5e565b5b6134448254612a50565b61344f82828561338b565b600060209050601f8311600181146134825760008415613470578287015190505b61347a85826133fc565b8655506134e2565b601f1984166134908661314a565b60005b828110156134b857848901518255600182019150602085019450602081019050613493565b868310156134d557848901516134d1601f8916826133de565b8355505b6001600288020188555050505b505050505050565b600080604083850312156135015761350061261c565b5b600061350f85828601612bdf565b925050602061352085828601612bdf565b9150509250929050565b6000613535826125de565b9150613540836125de565b925082820261354e816125de565b9150828204841483151761356557613564612ab0565b5b5092915050565b60008160011c9050919050565b6000808291508390505b60018511156135c35780860481111561359f5761359e612ab0565b5b60018516156135ae5780820291505b80810290506135bc8561356c565b9450613583565b94509492505050565b6000826135dc5760019050613698565b816135ea5760009050613698565b8160018114613600576002811461360a57613639565b6001915050613698565b60ff84111561361c5761361b612ab0565b5b8360020a91508482111561363357613632612ab0565b5b50613698565b5060208310610133831016604e8410600b841016171561366e5782820a90508381111561366957613668612ab0565b5b613698565b61367b8484846001613579565b9250905081840481111561369257613691612ab0565b5b81810290505b9392505050565b60006136aa826125de565b91506136b5836125de565b92506136e27fffffffffffffffffffffffffffffffffffffffffffffffffffffffffffffffff84846135cc565b905092915050565b60006136f5826125de565b9150613700836125de565b925082820390508181111561371857613717612ab0565b5b92915050565b600081519050919050565b60006137348261371e565b61373e8185612b3c565b935061374e8185602086016126c1565b613757816126eb565b840191505092915050565b6000602082019050818103600083015261377c8184613729565b90509291505056fe636f6d6d69746d656e745469636b43616c6c6564202d2070617373656420726571756972656d656e74a26469706673582212208cfc7a9fdbb086ed707707d4e2d76d7ade4b09987d4ff2c33faf78992469722f64736f6c63430008120033608060405234801561001057600080fd5b5061026d806100206000396000f3fe608060405234801561001057600080fd5b506004361061009e5760003560e01c8063705dd6cd11610066578063705dd6cd14610139578063734692a914610157578063ae5c135614610175578063c8067b6f14610193578063e3c8bfb9146101b15761009e565b8063124a96c8146100a357806339febf0c146100c157806345baee55146100df57806349bbc37a146100fd5780634ffdf11e1461011b575b600080fd5b6100ab6101cf565b6040516100b8919061021c565b60405180910390f35b6100c96101d5565b6040516100d6919061021c565b60405180910390f35b6100e76101da565b6040516100f4919061021c565b60405180910390f35b6101056101df565b604051610112919061021c565b60405180910390f35b6101236101e5565b604051610130919061021c565b60405180910390f35b6101416101ea565b60405161014e919061021c565b60405180910390f35b61015f6101ef565b60405161016c919061021c565b60405180910390f35b61017d6101f4565b60405161018a919061021c565b60405180910390f35b61019b6101f9565b6040516101a8919061021c565b60405180910390f35b6101b96101fe565b6040516101c6919061021c565b60405180910390f35b6101f481565b600581565b600781565b6103e881565b600681565b600a81565b600781565b600a81565b600581565b600281565b6000819050919050565b61021681610203565b82525050565b6000602082019050610231600083018461020d565b9291505056fea264697066735822122001d9d86b524b072c82851d2da1af568601b991b53f790e36a726e5478a595e9964736f6c63430008120033","opcodes":"PUSH1 0x80 PUSH1 0x40 MSTORE CALLVALUE DUP1 ISZERO PUSH3 0x11 JUMPI PUSH1 0x0 DUP1 REVERT JUMPDEST POP PUSH1 0x40 MLOAD PUSH3 0x20 SWAP1 PUSH3 0xFC JUMP JUMPDEST PUSH1 0x40 MLOAD DUP1 SWAP2 SUB SWAP1 PUSH1 0x0 CREATE DUP1 ISZERO DUP1 ISZERO PUSH3 0x3D JUMPI RETURNDATASIZE PUSH1 0x0 DUP1 RETURNDATACOPY RETURNDATASIZE PUSH1 0x0 REVERT JUMPDEST POP PUSH1 0x0 DUP1 PUSH2 0x100 EXP DUP2 SLOAD DUP2 PUSH20 0xFFFFFFFFFFFFFFFFFFFFFFFFFFFFFFFFFFFFFFFF MUL NOT AND SWAP1 DUP4 PUSH20 0xFFFFFFFFFFFFFFFFFFFFFFFFFFFFFFFFFFFFFFFF AND MUL OR SWAP1 SSTORE POP ADDRESS PUSH1 0x40 MLOAD PUSH3 0x8C SWAP1 PUSH3 0x10A JUMP JUMPDEST PUSH3 0x98 SWAP2 SWAP1 PUSH3 0x15D JUMP JUMPDEST PUSH1 0x40 MLOAD DUP1 SWAP2 SUB SWAP1 PUSH1 0x0 CREATE DUP1 ISZERO DUP1 ISZERO PUSH3 0xB5 JUMPI RETURNDATASIZE PUSH1 0x0 DUP1 RETURNDATACOPY RETURNDATASIZE PUSH1 0x0 REVERT JUMPDEST POP PUSH1 0xA PUSH1 0x0 PUSH2 0x100 EXP DUP2 SLOAD DUP2 PUSH20 0xFFFFFFFFFFFFFFFFFFFFFFFFFFFFFFFFFFFFFFFF MUL NOT AND SWAP1 DUP4 PUSH20 0xFFFFFFFFFFFFFFFFFFFFFFFFFFFFFFFFFFFFFFFF AND MUL OR SWAP1 SSTORE POP PUSH3 0x17A JUMP JUMPDEST PUSH2 0x28D DUP1 PUSH3 0x5436 DUP4 CODECOPY ADD SWAP1 JUMP JUMPDEST PUSH2 0x3C14 DUP1 PUSH3 0x56C3 DUP4 CODECOPY ADD SWAP1 JUMP JUMPDEST PUSH1 0x0 PUSH20 0xFFFFFFFFFFFFFFFFFFFFFFFFFFFFFFFFFFFFFFFF DUP3 AND SWAP1 POP SWAP2 SWAP1 POP JUMP JUMPDEST PUSH1 0x0 PUSH3 0x145 DUP3 PUSH3 0x118 JUMP JUMPDEST SWAP1 POP SWAP2 SWAP1 POP JUMP JUMPDEST PUSH3 0x157 DUP2 PUSH3 0x138 JUMP JUMPDEST DUP3 MSTORE POP POP JUMP JUMPDEST PUSH1 0x0 PUSH1 0x20 DUP3 ADD SWAP1 POP PUSH3 0x174 PUSH1 0x0 DUP4 ADD DUP5 PUSH3 0x14C JUMP JUMPDEST SWAP3 SWAP2 POP POP JUMP JUMPDEST PUSH2 0x52AC DUP1 PUSH3 0x18A PUSH1 0x0 CODECOPY PUSH1 0x0 RETURN INVALID PUSH1 0x80 PUSH1 0x40 MSTORE CALLVALUE DUP1 ISZERO PUSH2 0x10 JUMPI PUSH1 0x0 DUP1 REVERT JUMPDEST POP PUSH1 0x4 CALLDATASIZE LT PUSH2 0x116 JUMPI PUSH1 0x0 CALLDATALOAD PUSH1 0xE0 SHR DUP1 PUSH4 0x72DE5B2F GT PUSH2 0xA2 JUMPI DUP1 PUSH4 0xD63C8B2D GT PUSH2 0x71 JUMPI DUP1 PUSH4 0xD63C8B2D EQ PUSH2 0x2E3 JUMPI DUP1 PUSH4 0xD79B490E EQ PUSH2 0x313 JUMPI DUP1 PUSH4 0xD7DFA0DD EQ PUSH2 0x345 JUMPI DUP1 PUSH4 0xE5BCD450 EQ PUSH2 0x363 JUMPI DUP1 PUSH4 0xF9781033 EQ PUSH2 0x37F JUMPI PUSH2 0x116 JUMP JUMPDEST DUP1 PUSH4 0x72DE5B2F EQ PUSH2 0x25B JUMPI DUP1 PUSH4 0x755F10FD EQ PUSH2 0x279 JUMPI DUP1 PUSH4 0x8BA47BDD EQ PUSH2 0x2A9 JUMPI DUP1 PUSH4 0x90EDE5D5 EQ PUSH2 0x2C7 JUMPI PUSH2 0x116 JUMP JUMPDEST DUP1 PUSH4 0x35868AB7 GT PUSH2 0xE9 JUMPI DUP1 PUSH4 0x35868AB7 EQ PUSH2 0x1A5 JUMPI DUP1 PUSH4 0x37C74779 EQ PUSH2 0x1C1 JUMPI DUP1 PUSH4 0x44C1DC78 EQ PUSH2 0x1F1 JUMPI DUP1 PUSH4 0x481C6A75 EQ PUSH2 0x221 JUMPI DUP1 PUSH4 0x5CD6925A EQ PUSH2 0x23F JUMPI PUSH2 0x116 JUMP JUMPDEST DUP1 PUSH4 0x1FD1951 EQ PUSH2 0x11B JUMPI DUP1 PUSH4 0x1B7D40A5 EQ PUSH2 0x139 JUMPI DUP1 PUSH4 0x1E20530A EQ PUSH2 0x16D JUMPI DUP1 PUSH4 0x27764F7D EQ PUSH2 0x189 JUMPI JUMPDEST PUSH1 0x0 DUP1 REVERT JUMPDEST PUSH2 0x123 PUSH2 0x39B JUMP JUMPDEST PUSH1 0x40 MLOAD PUSH2 0x130 SWAP2 SWAP1 PUSH2 0x3EB1 JUMP JUMPDEST PUSH1 0x40 MLOAD DUP1 SWAP2 SUB SWAP1 RETURN JUMPDEST PUSH2 0x153 PUSH1 0x4 DUP1 CALLDATASIZE SUB DUP2 ADD SWAP1 PUSH2 0x14E SWAP2 SWAP1 PUSH2 0x3EFD JUMP JUMPDEST PUSH2 0x3A1 JUMP JUMPDEST PUSH1 0x40 MLOAD PUSH2 0x164 SWAP6 SWAP5 SWAP4 SWAP3 SWAP2 SWAP1 PUSH2 0x3FFB JUMP JUMPDEST PUSH1 0x40 MLOAD DUP1 SWAP2 SUB SWAP1 RETURN JUMPDEST PUSH2 0x187 PUSH1 0x4 DUP1 CALLDATASIZE SUB DUP2 ADD SWAP1 PUSH2 0x182 SWAP2 SWAP1 PUSH2 0x40BA JUMP JUMPDEST PUSH2 0x52B JUMP JUMPDEST STOP JUMPDEST PUSH2 0x1A3 PUSH1 0x4 DUP1 CALLDATASIZE SUB DUP2 ADD SWAP1 PUSH2 0x19E SWAP2 SWAP1 PUSH2 0x40FA JUMP JUMPDEST PUSH2 0x68F JUMP JUMPDEST STOP JUMPDEST PUSH2 0x1BF PUSH1 0x4 DUP1 CALLDATASIZE SUB DUP2 ADD SWAP1 PUSH2 0x1BA SWAP2 SWAP1 PUSH2 0x4127 JUMP JUMPDEST PUSH2 0x7F0 JUMP JUMPDEST STOP JUMPDEST PUSH2 0x1DB PUSH1 0x4 DUP1 CALLDATASIZE SUB DUP2 ADD SWAP1 PUSH2 0x1D6 SWAP2 SWAP1 PUSH2 0x40FA JUMP JUMPDEST PUSH2 0x957 JUMP JUMPDEST PUSH1 0x40 MLOAD PUSH2 0x1E8 SWAP2 SWAP1 PUSH2 0x3EB1 JUMP JUMPDEST PUSH1 0x40 MLOAD DUP1 SWAP2 SUB SWAP1 RETURN JUMPDEST PUSH2 0x20B PUSH1 0x4 DUP1 CALLDATASIZE SUB DUP2 ADD SWAP1 PUSH2 0x206 SWAP2 SWAP1 PUSH2 0x417A JUMP JUMPDEST PUSH2 0x96F JUMP JUMPDEST PUSH1 0x40 MLOAD PUSH2 0x218 SWAP2 SWAP1 PUSH2 0x4673 JUMP JUMPDEST PUSH1 0x40 MLOAD DUP1 SWAP2 SUB SWAP1 RETURN JUMPDEST PUSH2 0x229 PUSH2 0x23A3 JUMP JUMPDEST PUSH1 0x40 MLOAD PUSH2 0x236 SWAP2 SWAP1 PUSH2 0x46A4 JUMP JUMPDEST PUSH1 0x40 MLOAD DUP1 SWAP2 SUB SWAP1 RETURN JUMPDEST PUSH2 0x259 PUSH1 0x4 DUP1 CALLDATASIZE SUB DUP2 ADD SWAP1 PUSH2 0x254 SWAP2 SWAP1 PUSH2 0x40FA JUMP JUMPDEST PUSH2 0x23C9 JUMP JUMPDEST STOP JUMPDEST PUSH2 0x263 PUSH2 0x252A JUMP JUMPDEST PUSH1 0x40 MLOAD PUSH2 0x270 SWAP2 SWAP1 PUSH2 0x471E JUMP JUMPDEST PUSH1 0x40 MLOAD DUP1 SWAP2 SUB SWAP1 RETURN JUMPDEST PUSH2 0x293 PUSH1 0x4 DUP1 CALLDATASIZE SUB DUP2 ADD SWAP1 PUSH2 0x28E SWAP2 SWAP1 PUSH2 0x40FA JUMP JUMPDEST PUSH2 0x254E JUMP JUMPDEST PUSH1 0x40 MLOAD PUSH2 0x2A0 SWAP2 SWAP1 PUSH2 0x3EB1 JUMP JUMPDEST PUSH1 0x40 MLOAD DUP1 SWAP2 SUB SWAP1 RETURN JUMPDEST PUSH2 0x2B1 PUSH2 0x2566 JUMP JUMPDEST PUSH1 0x40 MLOAD PUSH2 0x2BE SWAP2 SWAP1 PUSH2 0x46A4 JUMP JUMPDEST PUSH1 0x40 MLOAD DUP1 SWAP2 SUB SWAP1 RETURN JUMPDEST PUSH2 0x2E1 PUSH1 0x4 DUP1 CALLDATASIZE SUB DUP2 ADD SWAP1 PUSH2 0x2DC SWAP2 SWAP1 PUSH2 0x40FA JUMP JUMPDEST PUSH2 0x258C JUMP JUMPDEST STOP JUMPDEST PUSH2 0x2FD PUSH1 0x4 DUP1 CALLDATASIZE SUB DUP2 ADD SWAP1 PUSH2 0x2F8 SWAP2 SWAP1 PUSH2 0x3EFD JUMP JUMPDEST PUSH2 0x26ED JUMP JUMPDEST PUSH1 0x40 MLOAD PUSH2 0x30A SWAP2 SWAP1 PUSH2 0x47BD JUMP JUMPDEST PUSH1 0x40 MLOAD DUP1 SWAP2 SUB SWAP1 RETURN JUMPDEST PUSH2 0x32D PUSH1 0x4 DUP1 CALLDATASIZE SUB DUP2 ADD SWAP1 PUSH2 0x328 SWAP2 SWAP1 PUSH2 0x40FA JUMP JUMPDEST PUSH2 0x282B JUMP JUMPDEST PUSH1 0x40 MLOAD PUSH2 0x33C SWAP4 SWAP3 SWAP2 SWAP1 PUSH2 0x4850 JUMP JUMPDEST PUSH1 0x40 MLOAD DUP1 SWAP2 SUB SWAP1 RETURN JUMPDEST PUSH2 0x34D PUSH2 0x2862 JUMP JUMPDEST PUSH1 0x40 MLOAD PUSH2 0x35A SWAP2 SWAP1 PUSH2 0x46A4 JUMP JUMPDEST PUSH1 0x40 MLOAD DUP1 SWAP2 SUB SWAP1 RETURN JUMPDEST PUSH2 0x37D PUSH1 0x4 DUP1 CALLDATASIZE SUB DUP2 ADD SWAP1 PUSH2 0x378 SWAP2 SWAP1 PUSH2 0x40FA JUMP JUMPDEST PUSH2 0x2888 JUMP JUMPDEST STOP JUMPDEST PUSH2 0x399 PUSH1 0x4 DUP1 CALLDATASIZE SUB DUP2 ADD SWAP1 PUSH2 0x394 SWAP2 SWAP1 PUSH2 0x40FA JUMP JUMPDEST PUSH2 0x2D3A JUMP JUMPDEST STOP JUMPDEST PUSH1 0x3 SLOAD DUP2 JUMP JUMPDEST PUSH1 0x9 PUSH1 0x20 MSTORE DUP3 PUSH1 0x0 MSTORE PUSH1 0x40 PUSH1 0x0 KECCAK256 PUSH1 0x20 MSTORE DUP2 PUSH1 0x0 MSTORE PUSH1 0x40 PUSH1 0x0 KECCAK256 DUP2 DUP2 SLOAD DUP2 LT PUSH2 0x3C9 JUMPI PUSH1 0x0 DUP1 REVERT JUMPDEST SWAP1 PUSH1 0x0 MSTORE PUSH1 0x20 PUSH1 0x0 KECCAK256 SWAP1 PUSH1 0x7 MUL ADD PUSH1 0x0 SWAP3 POP SWAP3 POP POP POP DUP1 PUSH1 0x0 ADD DUP1 SLOAD PUSH2 0x3EE SWAP1 PUSH2 0x48B6 JUMP JUMPDEST DUP1 PUSH1 0x1F ADD PUSH1 0x20 DUP1 SWAP2 DIV MUL PUSH1 0x20 ADD PUSH1 0x40 MLOAD SWAP1 DUP2 ADD PUSH1 0x40 MSTORE DUP1 SWAP3 SWAP2 SWAP1 DUP2 DUP2 MSTORE PUSH1 0x20 ADD DUP3 DUP1 SLOAD PUSH2 0x41A SWAP1 PUSH2 0x48B6 JUMP JUMPDEST DUP1 ISZERO PUSH2 0x467 JUMPI DUP1 PUSH1 0x1F LT PUSH2 0x43C JUMPI PUSH2 0x100 DUP1 DUP4 SLOAD DIV MUL DUP4 MSTORE SWAP2 PUSH1 0x20 ADD SWAP2 PUSH2 0x467 JUMP JUMPDEST DUP3 ADD SWAP2 SWAP1 PUSH1 0x0 MSTORE PUSH1 0x20 PUSH1 0x0 KECCAK256 SWAP1 JUMPDEST DUP2 SLOAD DUP2 MSTORE SWAP1 PUSH1 0x1 ADD SWAP1 PUSH1 0x20 ADD DUP1 DUP4 GT PUSH2 0x44A JUMPI DUP3 SWAP1 SUB PUSH1 0x1F AND DUP3 ADD SWAP2 JUMPDEST POP POP POP POP POP SWAP1 DUP1 PUSH1 0x1 ADD DUP1 SLOAD PUSH2 0x47C SWAP1 PUSH2 0x48B6 JUMP JUMPDEST DUP1 PUSH1 0x1F ADD PUSH1 0x20 DUP1 SWAP2 DIV MUL PUSH1 0x20 ADD PUSH1 0x40 MLOAD SWAP1 DUP2 ADD PUSH1 0x40 MSTORE DUP1 SWAP3 SWAP2 SWAP1 DUP2 DUP2 MSTORE PUSH1 0x20 ADD DUP3 DUP1 SLOAD PUSH2 0x4A8 SWAP1 PUSH2 0x48B6 JUMP JUMPDEST DUP1 ISZERO PUSH2 0x4F5 JUMPI DUP1 PUSH1 0x1F LT PUSH2 0x4CA JUMPI PUSH2 0x100 DUP1 DUP4 SLOAD DIV MUL DUP4 MSTORE SWAP2 PUSH1 0x20 ADD SWAP2 PUSH2 0x4F5 JUMP JUMPDEST DUP3 ADD SWAP2 SWAP1 PUSH1 0x0 MSTORE PUSH1 0x20 PUSH1 0x0 KECCAK256 SWAP1 JUMPDEST DUP2 SLOAD DUP2 MSTORE SWAP1 PUSH1 0x1 ADD SWAP1 PUSH1 0x20 ADD DUP1 DUP4 GT PUSH2 0x4D8 JUMPI DUP3 SWAP1 SUB PUSH1 0x1F AND DUP3 ADD SWAP2 JUMPDEST POP POP POP POP POP SWAP1 DUP1 PUSH1 0x4 ADD PUSH1 0x0 SWAP1 SLOAD SWAP1 PUSH2 0x100 EXP SWAP1 DIV PUSH1 0xFF AND SWAP1 DUP1 PUSH1 0x5 ADD SLOAD SWAP1 DUP1 PUSH1 0x6 ADD PUSH1 0x0 SWAP1 SLOAD SWAP1 PUSH2 0x100 EXP SWAP1 DIV PUSH1 0xFF AND SWAP1 POP DUP6 JUMP JUMPDEST PUSH1 0x0 DUP1 PUSH1 0xA PUSH1 0x0 SWAP1 SLOAD SWAP1 PUSH2 0x100 EXP SWAP1 DIV PUSH20 0xFFFFFFFFFFFFFFFFFFFFFFFFFFFFFFFFFFFFFFFF AND PUSH20 0xFFFFFFFFFFFFFFFFFFFFFFFFFFFFFFFFFFFFFFFF AND DUP5 DUP5 PUSH1 0x40 MLOAD PUSH1 0x24 ADD PUSH2 0x57A SWAP3 SWAP2 SWAP1 PUSH2 0x48E7 JUMP JUMPDEST PUSH1 0x40 MLOAD PUSH1 0x20 DUP2 DUP4 SUB SUB DUP2 MSTORE SWAP1 PUSH1 0x40 MSTORE PUSH32 0x1E20530A00000000000000000000000000000000000000000000000000000000 PUSH28 0xFFFFFFFFFFFFFFFFFFFFFFFFFFFFFFFFFFFFFFFFFFFFFFFFFFFFFFFF NOT AND PUSH1 0x20 DUP3 ADD DUP1 MLOAD PUSH28 0xFFFFFFFFFFFFFFFFFFFFFFFFFFFFFFFFFFFFFFFFFFFFFFFFFFFFFFFF DUP4 DUP2 DUP4 AND OR DUP4 MSTORE POP POP POP POP PUSH1 0x40 MLOAD PUSH2 0x604 SWAP2 SWAP1 PUSH2 0x494C JUMP JUMPDEST PUSH1 0x0 PUSH1 0x40 MLOAD DUP1 DUP4 SUB DUP2 DUP6 GAS DELEGATECALL SWAP2 POP POP RETURNDATASIZE DUP1 PUSH1 0x0 DUP2 EQ PUSH2 0x63F JUMPI PUSH1 0x40 MLOAD SWAP2 POP PUSH1 0x1F NOT PUSH1 0x3F RETURNDATASIZE ADD AND DUP3 ADD PUSH1 0x40 MSTORE RETURNDATASIZE DUP3 MSTORE RETURNDATASIZE PUSH1 0x0 PUSH1 0x20 DUP5 ADD RETURNDATACOPY PUSH2 0x644 JUMP JUMPDEST PUSH1 0x60 SWAP2 POP JUMPDEST POP SWAP2 POP SWAP2 POP DUP2 PUSH2 0x689 JUMPI PUSH1 0x40 MLOAD PUSH32 0x8C379A000000000000000000000000000000000000000000000000000000000 DUP2 MSTORE PUSH1 0x4 ADD PUSH2 0x680 SWAP1 PUSH2 0x49E6 JUMP JUMPDEST PUSH1 0x40 MLOAD DUP1 SWAP2 SUB SWAP1 REVERT JUMPDEST POP POP POP POP JUMP JUMPDEST PUSH1 0x0 DUP1 PUSH1 0xA PUSH1 0x0 SWAP1 SLOAD SWAP1 PUSH2 0x100 EXP SWAP1 DIV PUSH20 0xFFFFFFFFFFFFFFFFFFFFFFFFFFFFFFFFFFFFFFFF AND PUSH20 0xFFFFFFFFFFFFFFFFFFFFFFFFFFFFFFFFFFFFFFFF AND DUP4 PUSH1 0x40 MLOAD PUSH1 0x24 ADD PUSH2 0x6DC SWAP2 SWAP1 PUSH2 0x3EB1 JUMP JUMPDEST PUSH1 0x40 MLOAD PUSH1 0x20 DUP2 DUP4 SUB SUB DUP2 MSTORE SWAP1 PUSH1 0x40 MSTORE PUSH32 0x27764F7D00000000000000000000000000000000000000000000000000000000 PUSH28 0xFFFFFFFFFFFFFFFFFFFFFFFFFFFFFFFFFFFFFFFFFFFFFFFFFFFFFFFF NOT AND PUSH1 0x20 DUP3 ADD DUP1 MLOAD PUSH28 0xFFFFFFFFFFFFFFFFFFFFFFFFFFFFFFFFFFFFFFFFFFFFFFFFFFFFFFFF DUP4 DUP2 DUP4 AND OR DUP4 MSTORE POP POP POP POP PUSH1 0x40 MLOAD PUSH2 0x766 SWAP2 SWAP1 PUSH2 0x494C JUMP JUMPDEST PUSH1 0x0 PUSH1 0x40 MLOAD DUP1 DUP4 SUB DUP2 DUP6 GAS DELEGATECALL SWAP2 POP POP RETURNDATASIZE DUP1 PUSH1 0x0 DUP2 EQ PUSH2 0x7A1 JUMPI PUSH1 0x40 MLOAD SWAP2 POP PUSH1 0x1F NOT PUSH1 0x3F RETURNDATASIZE ADD AND DUP3 ADD PUSH1 0x40 MSTORE RETURNDATASIZE DUP3 MSTORE RETURNDATASIZE PUSH1 0x0 PUSH1 0x20 DUP5 ADD RETURNDATACOPY PUSH2 0x7A6 JUMP JUMPDEST PUSH1 0x60 SWAP2 POP JUMPDEST POP SWAP2 POP SWAP2 POP DUP2 PUSH2 0x7EB JUMPI PUSH1 0x40 MLOAD PUSH32 0x8C379A000000000000000000000000000000000000000000000000000000000 DUP2 MSTORE PUSH1 0x4 ADD PUSH2 0x7E2 SWAP1 PUSH2 0x4A78 JUMP JUMPDEST PUSH1 0x40 MLOAD DUP1 SWAP2 SUB SWAP1 REVERT JUMPDEST POP POP POP JUMP JUMPDEST PUSH1 0x0 DUP1 PUSH1 0xA PUSH1 0x0 SWAP1 SLOAD SWAP1 PUSH2 0x100 EXP SWAP1 DIV PUSH20 0xFFFFFFFFFFFFFFFFFFFFFFFFFFFFFFFFFFFFFFFF AND PUSH20 0xFFFFFFFFFFFFFFFFFFFFFFFFFFFFFFFFFFFFFFFF AND DUP6 DUP6 DUP6 PUSH1 0x40 MLOAD PUSH1 0x24 ADD PUSH2 0x841 SWAP4 SWAP3 SWAP2 SWAP1 PUSH2 0x4A98 JUMP JUMPDEST PUSH1 0x40 MLOAD PUSH1 0x20 DUP2 DUP4 SUB SUB DUP2 MSTORE SWAP1 PUSH1 0x40 MSTORE PUSH32 0x35868AB700000000000000000000000000000000000000000000000000000000 PUSH28 0xFFFFFFFFFFFFFFFFFFFFFFFFFFFFFFFFFFFFFFFFFFFFFFFFFFFFFFFF NOT AND PUSH1 0x20 DUP3 ADD DUP1 MLOAD PUSH28 0xFFFFFFFFFFFFFFFFFFFFFFFFFFFFFFFFFFFFFFFFFFFFFFFFFFFFFFFF DUP4 DUP2 DUP4 AND OR DUP4 MSTORE POP POP POP POP PUSH1 0x40 MLOAD PUSH2 0x8CB SWAP2 SWAP1 PUSH2 0x494C JUMP JUMPDEST PUSH1 0x0 PUSH1 0x40 MLOAD DUP1 DUP4 SUB DUP2 DUP6 GAS DELEGATECALL SWAP2 POP POP RETURNDATASIZE DUP1 PUSH1 0x0 DUP2 EQ PUSH2 0x906 JUMPI PUSH1 0x40 MLOAD SWAP2 POP PUSH1 0x1F NOT PUSH1 0x3F RETURNDATASIZE ADD AND DUP3 ADD PUSH1 0x40 MSTORE RETURNDATASIZE DUP3 MSTORE RETURNDATASIZE PUSH1 0x0 PUSH1 0x20 DUP5 ADD RETURNDATACOPY PUSH2 0x90B JUMP JUMPDEST PUSH1 0x60 SWAP2 POP JUMPDEST POP SWAP2 POP SWAP2 POP DUP2 PUSH2 0x950 JUMPI PUSH1 0x40 MLOAD PUSH32 0x8C379A000000000000000000000000000000000000000000000000000000000 DUP2 MSTORE PUSH1 0x4 ADD PUSH2 0x947 SWAP1 PUSH2 0x4B41 JUMP JUMPDEST PUSH1 0x40 MLOAD DUP1 SWAP2 SUB SWAP1 REVERT JUMPDEST POP POP POP POP POP JUMP JUMPDEST PUSH1 0x5 PUSH1 0x20 MSTORE DUP1 PUSH1 0x0 MSTORE PUSH1 0x40 PUSH1 0x0 KECCAK256 PUSH1 0x0 SWAP2 POP SWAP1 POP SLOAD DUP2 JUMP JUMPDEST PUSH1 0x60 PUSH1 0x0 PUSH1 0x8 PUSH1 0x0 DUP6 DUP2 MSTORE PUSH1 0x20 ADD SWAP1 DUP2 MSTORE PUSH1 0x20 ADD PUSH1 0x0 KECCAK256 PUSH1 0x0 DUP5 DUP2 MSTORE PUSH1 0x20 ADD SWAP1 DUP2 MSTORE PUSH1 0x20 ADD PUSH1 0x0 KECCAK256 SWAP1 POP PUSH1 0x0 DUP2 DUP1 SLOAD DUP1 PUSH1 0x20 MUL PUSH1 0x20 ADD PUSH1 0x40 MLOAD SWAP1 DUP2 ADD PUSH1 0x40 MSTORE DUP1 SWAP3 SWAP2 SWAP1 DUP2 DUP2 MSTORE PUSH1 0x20 ADD PUSH1 0x0 SWAP1 JUMPDEST DUP3 DUP3 LT ISZERO PUSH2 0xB1B JUMPI DUP4 DUP3 SWAP1 PUSH1 0x0 MSTORE PUSH1 0x20 PUSH1 0x0 KECCAK256 SWAP1 PUSH1 0x3 MUL ADD PUSH1 0x40 MLOAD DUP1 PUSH1 0x60 ADD PUSH1 0x40 MSTORE SWAP1 DUP2 PUSH1 0x0 DUP3 ADD DUP1 SLOAD DUP1 PUSH1 0x20 MUL PUSH1 0x20 ADD PUSH1 0x40 MLOAD SWAP1 DUP2 ADD PUSH1 0x40 MSTORE DUP1 SWAP3 SWAP2 SWAP1 DUP2 DUP2 MSTORE PUSH1 0x20 ADD PUSH1 0x0 SWAP1 JUMPDEST DUP3 DUP3 LT ISZERO PUSH2 0xA54 JUMPI DUP4 DUP3 SWAP1 PUSH1 0x0 MSTORE PUSH1 0x20 PUSH1 0x0 KECCAK256 SWAP1 PUSH1 0x3 MUL ADD PUSH1 0x40 MLOAD DUP1 PUSH1 0x60 ADD PUSH1 0x40 MSTORE SWAP1 DUP2 PUSH1 0x0 DUP3 ADD SLOAD DUP2 MSTORE PUSH1 0x20 ADD PUSH1 0x1 DUP3 ADD SLOAD DUP2 MSTORE PUSH1 0x20 ADD PUSH1 0x2 DUP3 ADD SLOAD DUP2 MSTORE POP POP DUP2 MSTORE PUSH1 0x20 ADD SWAP1 PUSH1 0x1 ADD SWAP1 PUSH2 0xA04 JUMP JUMPDEST POP POP POP POP DUP2 MSTORE PUSH1 0x20 ADD PUSH1 0x1 DUP3 ADD DUP1 SLOAD DUP1 PUSH1 0x20 MUL PUSH1 0x20 ADD PUSH1 0x40 MLOAD SWAP1 DUP2 ADD PUSH1 0x40 MSTORE DUP1 SWAP3 SWAP2 SWAP1 DUP2 DUP2 MSTORE PUSH1 0x20 ADD DUP3 DUP1 SLOAD DUP1 ISZERO PUSH2 0xAAB JUMPI PUSH1 0x20 MUL DUP3 ADD SWAP2 SWAP1 PUSH1 0x0 MSTORE PUSH1 0x20 PUSH1 0x0 KECCAK256 SWAP1 JUMPDEST DUP2 SLOAD DUP2 MSTORE PUSH1 0x20 ADD SWAP1 PUSH1 0x1 ADD SWAP1 DUP1 DUP4 GT PUSH2 0xA97 JUMPI JUMPDEST POP POP POP POP POP DUP2 MSTORE PUSH1 0x20 ADD PUSH1 0x2 DUP3 ADD DUP1 SLOAD DUP1 PUSH1 0x20 MUL PUSH1 0x20 ADD PUSH1 0x40 MLOAD SWAP1 DUP2 ADD PUSH1 0x40 MSTORE DUP1 SWAP3 SWAP2 SWAP1 DUP2 DUP2 MSTORE PUSH1 0x20 ADD DUP3 DUP1 SLOAD DUP1 ISZERO PUSH2 0xB03 JUMPI PUSH1 0x20 MUL DUP3 ADD SWAP2 SWAP1 PUSH1 0x0 MSTORE PUSH1 0x20 PUSH1 0x0 KECCAK256 SWAP1 JUMPDEST DUP2 SLOAD DUP2 MSTORE PUSH1 0x20 ADD SWAP1 PUSH1 0x1 ADD SWAP1 DUP1 DUP4 GT PUSH2 0xAEF JUMPI JUMPDEST POP POP POP POP POP DUP2 MSTORE POP POP DUP2 MSTORE PUSH1 0x20 ADD SWAP1 PUSH1 0x1 ADD SWAP1 PUSH2 0x9BC JUMP JUMPDEST POP POP POP POP SWAP1 POP PUSH1 0x0 JUMPDEST PUSH1 0x0 DUP1 SLOAD SWAP1 PUSH2 0x100 EXP SWAP1 DIV PUSH20 0xFFFFFFFFFFFFFFFFFFFFFFFFFFFFFFFFFFFFFFFF AND PUSH20 0xFFFFFFFFFFFFFFFFFFFFFFFFFFFFFFFFFFFFFFFF AND PUSH4 0xE3C8BFB9 PUSH1 0x40 MLOAD DUP2 PUSH4 0xFFFFFFFF AND PUSH1 0xE0 SHL DUP2 MSTORE PUSH1 0x4 ADD PUSH1 0x20 PUSH1 0x40 MLOAD DUP1 DUP4 SUB DUP2 DUP7 GAS STATICCALL ISZERO DUP1 ISZERO PUSH2 0xB8F JUMPI RETURNDATASIZE PUSH1 0x0 DUP1 RETURNDATACOPY RETURNDATASIZE PUSH1 0x0 REVERT JUMPDEST POP POP POP POP PUSH1 0x40 MLOAD RETURNDATASIZE PUSH1 0x1F NOT PUSH1 0x1F DUP3 ADD AND DUP3 ADD DUP1 PUSH1 0x40 MSTORE POP DUP2 ADD SWAP1 PUSH2 0xBB3 SWAP2 SWAP1 PUSH2 0x4B76 JUMP JUMPDEST DUP2 LT ISZERO PUSH2 0xF1F JUMPI PUSH1 0x0 DUP1 SLOAD SWAP1 PUSH2 0x100 EXP SWAP1 DIV PUSH20 0xFFFFFFFFFFFFFFFFFFFFFFFFFFFFFFFFFFFFFFFF AND PUSH20 0xFFFFFFFFFFFFFFFFFFFFFFFFFFFFFFFFFFFFFFFF AND PUSH4 0xAE5C1356 PUSH1 0x40 MLOAD DUP2 PUSH4 0xFFFFFFFF AND PUSH1 0xE0 SHL DUP2 MSTORE PUSH1 0x4 ADD PUSH1 0x20 PUSH1 0x40 MLOAD DUP1 DUP4 SUB DUP2 DUP7 GAS STATICCALL ISZERO DUP1 ISZERO PUSH2 0xC25 JUMPI RETURNDATASIZE PUSH1 0x0 DUP1 RETURNDATACOPY RETURNDATASIZE PUSH1 0x0 REVERT JUMPDEST POP POP POP POP PUSH1 0x40 MLOAD RETURNDATASIZE PUSH1 0x1F NOT PUSH1 0x1F DUP3 ADD AND DUP3 ADD DUP1 PUSH1 0x40 MSTORE POP DUP2 ADD SWAP1 PUSH2 0xC49 SWAP2 SWAP1 PUSH2 0x4B76 JUMP JUMPDEST PUSH8 0xFFFFFFFFFFFFFFFF DUP2 GT ISZERO PUSH2 0xC62 JUMPI PUSH2 0xC61 PUSH2 0x4BA3 JUMP JUMPDEST JUMPDEST PUSH1 0x40 MLOAD SWAP1 DUP1 DUP3 MSTORE DUP1 PUSH1 0x20 MUL PUSH1 0x20 ADD DUP3 ADD PUSH1 0x40 MSTORE DUP1 ISZERO PUSH2 0xC9B JUMPI DUP2 PUSH1 0x20 ADD JUMPDEST PUSH2 0xC88 PUSH2 0x3DC5 JUMP JUMPDEST DUP2 MSTORE PUSH1 0x20 ADD SWAP1 PUSH1 0x1 SWAP1 SUB SWAP1 DUP2 PUSH2 0xC80 JUMPI SWAP1 POP JUMPDEST POP DUP3 DUP3 DUP2 MLOAD DUP2 LT PUSH2 0xCAF JUMPI PUSH2 0xCAE PUSH2 0x4BD2 JUMP JUMPDEST JUMPDEST PUSH1 0x20 MUL PUSH1 0x20 ADD ADD MLOAD PUSH1 0x0 ADD DUP2 SWAP1 MSTORE POP PUSH1 0x0 JUMPDEST PUSH1 0x0 DUP1 SLOAD SWAP1 PUSH2 0x100 EXP SWAP1 DIV PUSH20 0xFFFFFFFFFFFFFFFFFFFFFFFFFFFFFFFFFFFFFFFF AND PUSH20 0xFFFFFFFFFFFFFFFFFFFFFFFFFFFFFFFFFFFFFFFF AND PUSH4 0xAE5C1356 PUSH1 0x40 MLOAD DUP2 PUSH4 0xFFFFFFFF AND PUSH1 0xE0 SHL DUP2 MSTORE PUSH1 0x4 ADD PUSH1 0x20 PUSH1 0x40 MLOAD DUP1 DUP4 SUB DUP2 DUP7 GAS STATICCALL ISZERO DUP1 ISZERO PUSH2 0xD2C JUMPI RETURNDATASIZE PUSH1 0x0 DUP1 RETURNDATACOPY RETURNDATASIZE PUSH1 0x0 REVERT JUMPDEST POP POP POP POP PUSH1 0x40 MLOAD RETURNDATASIZE PUSH1 0x1F NOT PUSH1 0x1F DUP3 ADD AND DUP3 ADD DUP1 PUSH1 0x40 MSTORE POP DUP2 ADD SWAP1 PUSH2 0xD50 SWAP2 SWAP1 PUSH2 0x4B76 JUMP JUMPDEST DUP2 LT ISZERO PUSH2 0xF0D JUMPI DUP4 DUP3 DUP2 SLOAD DUP2 LT PUSH2 0xD6A JUMPI PUSH2 0xD69 PUSH2 0x4BD2 JUMP JUMPDEST JUMPDEST SWAP1 PUSH1 0x0 MSTORE PUSH1 0x20 PUSH1 0x0 KECCAK256 SWAP1 PUSH1 0x3 MUL ADD PUSH1 0x0 ADD DUP2 DUP2 SLOAD DUP2 LT PUSH2 0xD8D JUMPI PUSH2 0xD8C PUSH2 0x4BD2 JUMP JUMPDEST JUMPDEST SWAP1 PUSH1 0x0 MSTORE PUSH1 0x20 PUSH1 0x0 KECCAK256 SWAP1 PUSH1 0x3 MUL ADD PUSH1 0x40 MLOAD DUP1 PUSH1 0x60 ADD PUSH1 0x40 MSTORE SWAP1 DUP2 PUSH1 0x0 DUP3 ADD SLOAD DUP2 MSTORE PUSH1 0x20 ADD PUSH1 0x1 DUP3 ADD SLOAD DUP2 MSTORE PUSH1 0x20 ADD PUSH1 0x2 DUP3 ADD SLOAD DUP2 MSTORE POP POP DUP4 DUP4 DUP2 MLOAD DUP2 LT PUSH2 0xDD7 JUMPI PUSH2 0xDD6 PUSH2 0x4BD2 JUMP JUMPDEST JUMPDEST PUSH1 0x20 MUL PUSH1 0x20 ADD ADD MLOAD PUSH1 0x0 ADD MLOAD DUP3 DUP2 MLOAD DUP2 LT PUSH2 0xDF5 JUMPI PUSH2 0xDF4 PUSH2 0x4BD2 JUMP JUMPDEST JUMPDEST PUSH1 0x20 MUL PUSH1 0x20 ADD ADD DUP2 SWAP1 MSTORE POP DUP4 DUP3 DUP2 SLOAD DUP2 LT PUSH2 0xE13 JUMPI PUSH2 0xE12 PUSH2 0x4BD2 JUMP JUMPDEST JUMPDEST SWAP1 PUSH1 0x0 MSTORE PUSH1 0x20 PUSH1 0x0 KECCAK256 SWAP1 PUSH1 0x3 MUL ADD PUSH1 0x1 ADD DUP2 DUP2 SLOAD DUP2 LT PUSH2 0xE36 JUMPI PUSH2 0xE35 PUSH2 0x4BD2 JUMP JUMPDEST JUMPDEST SWAP1 PUSH1 0x0 MSTORE PUSH1 0x20 PUSH1 0x0 KECCAK256 ADD SLOAD DUP4 DUP4 DUP2 MLOAD DUP2 LT PUSH2 0xE54 JUMPI PUSH2 0xE53 PUSH2 0x4BD2 JUMP JUMPDEST JUMPDEST PUSH1 0x20 MUL PUSH1 0x20 ADD ADD MLOAD PUSH1 0x20 ADD MLOAD DUP3 DUP2 MLOAD DUP2 LT PUSH2 0xE72 JUMPI PUSH2 0xE71 PUSH2 0x4BD2 JUMP JUMPDEST JUMPDEST PUSH1 0x20 MUL PUSH1 0x20 ADD ADD DUP2 DUP2 MSTORE POP POP DUP4 DUP3 DUP2 SLOAD DUP2 LT PUSH2 0xE91 JUMPI PUSH2 0xE90 PUSH2 0x4BD2 JUMP JUMPDEST JUMPDEST SWAP1 PUSH1 0x0 MSTORE PUSH1 0x20 PUSH1 0x0 KECCAK256 SWAP1 PUSH1 0x3 MUL ADD PUSH1 0x2 ADD DUP2 DUP2 SLOAD DUP2 LT PUSH2 0xEB4 JUMPI PUSH2 0xEB3 PUSH2 0x4BD2 JUMP JUMPDEST JUMPDEST SWAP1 PUSH1 0x0 MSTORE PUSH1 0x20 PUSH1 0x0 KECCAK256 ADD SLOAD DUP4 DUP4 DUP2 MLOAD DUP2 LT PUSH2 0xED2 JUMPI PUSH2 0xED1 PUSH2 0x4BD2 JUMP JUMPDEST JUMPDEST PUSH1 0x20 MUL PUSH1 0x20 ADD ADD MLOAD PUSH1 0x40 ADD MLOAD DUP3 DUP2 MLOAD DUP2 LT PUSH2 0xEF0 JUMPI PUSH2 0xEEF PUSH2 0x4BD2 JUMP JUMPDEST JUMPDEST PUSH1 0x20 MUL PUSH1 0x20 ADD ADD DUP2 DUP2 MSTORE POP POP DUP1 PUSH2 0xF06 SWAP1 PUSH2 0x4C30 JUMP JUMPDEST SWAP1 POP PUSH2 0xCC1 JUMP JUMPDEST POP DUP1 PUSH2 0xF18 SWAP1 PUSH2 0x4C30 JUMP JUMPDEST SWAP1 POP PUSH2 0xB24 JUMP JUMPDEST POP PUSH1 0x0 PUSH1 0x9 PUSH1 0x0 DUP8 DUP2 MSTORE PUSH1 0x20 ADD SWAP1 DUP2 MSTORE PUSH1 0x20 ADD PUSH1 0x0 KECCAK256 PUSH1 0x0 DUP7 DUP2 MSTORE PUSH1 0x20 ADD SWAP1 DUP2 MSTORE PUSH1 0x20 ADD PUSH1 0x0 KECCAK256 SWAP1 POP PUSH1 0x0 DUP2 DUP1 SLOAD DUP1 PUSH1 0x20 MUL PUSH1 0x20 ADD PUSH1 0x40 MLOAD SWAP1 DUP2 ADD PUSH1 0x40 MSTORE DUP1 SWAP3 SWAP2 SWAP1 DUP2 DUP2 MSTORE PUSH1 0x20 ADD PUSH1 0x0 SWAP1 JUMPDEST DUP3 DUP3 LT ISZERO PUSH2 0x11B1 JUMPI DUP4 DUP3 SWAP1 PUSH1 0x0 MSTORE PUSH1 0x20 PUSH1 0x0 KECCAK256 SWAP1 PUSH1 0x7 MUL ADD PUSH1 0x40 MLOAD DUP1 PUSH1 0xE0 ADD PUSH1 0x40 MSTORE SWAP1 DUP2 PUSH1 0x0 DUP3 ADD DUP1 SLOAD PUSH2 0xF9E SWAP1 PUSH2 0x48B6 JUMP JUMPDEST DUP1 PUSH1 0x1F ADD PUSH1 0x20 DUP1 SWAP2 DIV MUL PUSH1 0x20 ADD PUSH1 0x40 MLOAD SWAP1 DUP2 ADD PUSH1 0x40 MSTORE DUP1 SWAP3 SWAP2 SWAP1 DUP2 DUP2 MSTORE PUSH1 0x20 ADD DUP3 DUP1 SLOAD PUSH2 0xFCA SWAP1 PUSH2 0x48B6 JUMP JUMPDEST DUP1 ISZERO PUSH2 0x1017 JUMPI DUP1 PUSH1 0x1F LT PUSH2 0xFEC JUMPI PUSH2 0x100 DUP1 DUP4 SLOAD DIV MUL DUP4 MSTORE SWAP2 PUSH1 0x20 ADD SWAP2 PUSH2 0x1017 JUMP JUMPDEST DUP3 ADD SWAP2 SWAP1 PUSH1 0x0 MSTORE PUSH1 0x20 PUSH1 0x0 KECCAK256 SWAP1 JUMPDEST DUP2 SLOAD DUP2 MSTORE SWAP1 PUSH1 0x1 ADD SWAP1 PUSH1 0x20 ADD DUP1 DUP4 GT PUSH2 0xFFA JUMPI DUP3 SWAP1 SUB PUSH1 0x1F AND DUP3 ADD SWAP2 JUMPDEST POP POP POP POP POP DUP2 MSTORE PUSH1 0x20 ADD PUSH1 0x1 DUP3 ADD DUP1 SLOAD PUSH2 0x1030 SWAP1 PUSH2 0x48B6 JUMP JUMPDEST DUP1 PUSH1 0x1F ADD PUSH1 0x20 DUP1 SWAP2 DIV MUL PUSH1 0x20 ADD PUSH1 0x40 MLOAD SWAP1 DUP2 ADD PUSH1 0x40 MSTORE DUP1 SWAP3 SWAP2 SWAP1 DUP2 DUP2 MSTORE PUSH1 0x20 ADD DUP3 DUP1 SLOAD PUSH2 0x105C SWAP1 PUSH2 0x48B6 JUMP JUMPDEST DUP1 ISZERO PUSH2 0x10A9 JUMPI DUP1 PUSH1 0x1F LT PUSH2 0x107E JUMPI PUSH2 0x100 DUP1 DUP4 SLOAD DIV MUL DUP4 MSTORE SWAP2 PUSH1 0x20 ADD SWAP2 PUSH2 0x10A9 JUMP JUMPDEST DUP3 ADD SWAP2 SWAP1 PUSH1 0x0 MSTORE PUSH1 0x20 PUSH1 0x0 KECCAK256 SWAP1 JUMPDEST DUP2 SLOAD DUP2 MSTORE SWAP1 PUSH1 0x1 ADD SWAP1 PUSH1 0x20 ADD DUP1 DUP4 GT PUSH2 0x108C JUMPI DUP3 SWAP1 SUB PUSH1 0x1F AND DUP3 ADD SWAP2 JUMPDEST POP POP POP POP POP DUP2 MSTORE PUSH1 0x20 ADD PUSH1 0x2 DUP3 ADD DUP1 SLOAD DUP1 PUSH1 0x20 MUL PUSH1 0x20 ADD PUSH1 0x40 MLOAD SWAP1 DUP2 ADD PUSH1 0x40 MSTORE DUP1 SWAP3 SWAP2 SWAP1 DUP2 DUP2 MSTORE PUSH1 0x20 ADD DUP3 DUP1 SLOAD DUP1 ISZERO PUSH2 0x1101 JUMPI PUSH1 0x20 MUL DUP3 ADD SWAP2 SWAP1 PUSH1 0x0 MSTORE PUSH1 0x20 PUSH1 0x0 KECCAK256 SWAP1 JUMPDEST DUP2 SLOAD DUP2 MSTORE PUSH1 0x20 ADD SWAP1 PUSH1 0x1 ADD SWAP1 DUP1 DUP4 GT PUSH2 0x10ED JUMPI JUMPDEST POP POP POP POP POP DUP2 MSTORE PUSH1 0x20 ADD PUSH1 0x3 DUP3 ADD DUP1 SLOAD DUP1 PUSH1 0x20 MUL PUSH1 0x20 ADD PUSH1 0x40 MLOAD SWAP1 DUP2 ADD PUSH1 0x40 MSTORE DUP1 SWAP3 SWAP2 SWAP1 DUP2 DUP2 MSTORE PUSH1 0x20 ADD DUP3 DUP1 SLOAD DUP1 ISZERO PUSH2 0x1159 JUMPI PUSH1 0x20 MUL DUP3 ADD SWAP2 SWAP1 PUSH1 0x0 MSTORE PUSH1 0x20 PUSH1 0x0 KECCAK256 SWAP1 JUMPDEST DUP2 SLOAD DUP2 MSTORE PUSH1 0x20 ADD SWAP1 PUSH1 0x1 ADD SWAP1 DUP1 DUP4 GT PUSH2 0x1145 JUMPI JUMPDEST POP POP POP POP POP DUP2 MSTORE PUSH1 0x20 ADD PUSH1 0x4 DUP3 ADD PUSH1 0x0 SWAP1 SLOAD SWAP1 PUSH2 0x100 EXP SWAP1 DIV PUSH1 0xFF AND ISZERO ISZERO ISZERO ISZERO DUP2 MSTORE PUSH1 0x20 ADD PUSH1 0x5 DUP3 ADD SLOAD DUP2 MSTORE PUSH1 0x20 ADD PUSH1 0x6 DUP3 ADD PUSH1 0x0 SWAP1 SLOAD SWAP1 PUSH2 0x100 EXP SWAP1 DIV PUSH1 0xFF AND ISZERO ISZERO ISZERO ISZERO DUP2 MSTORE POP POP DUP2 MSTORE PUSH1 0x20 ADD SWAP1 PUSH1 0x1 ADD SWAP1 PUSH2 0xF6B JUMP JUMPDEST POP POP POP POP SWAP1 POP PUSH1 0x0 JUMPDEST PUSH1 0x0 DUP1 SLOAD SWAP1 PUSH2 0x100 EXP SWAP1 DIV PUSH20 0xFFFFFFFFFFFFFFFFFFFFFFFFFFFFFFFFFFFFFFFF AND PUSH20 0xFFFFFFFFFFFFFFFFFFFFFFFFFFFFFFFFFFFFFFFF AND PUSH4 0xE3C8BFB9 PUSH1 0x40 MLOAD DUP2 PUSH4 0xFFFFFFFF AND PUSH1 0xE0 SHL DUP2 MSTORE PUSH1 0x4 ADD PUSH1 0x20 PUSH1 0x40 MLOAD DUP1 DUP4 SUB DUP2 DUP7 GAS STATICCALL ISZERO DUP1 ISZERO PUSH2 0x1225 JUMPI RETURNDATASIZE PUSH1 0x0 DUP1 RETURNDATACOPY RETURNDATASIZE PUSH1 0x0 REVERT JUMPDEST POP POP POP POP PUSH1 0x40 MLOAD RETURNDATASIZE PUSH1 0x1F NOT PUSH1 0x1F DUP3 ADD AND DUP3 ADD DUP1 PUSH1 0x40 MSTORE POP DUP2 ADD SWAP1 PUSH2 0x1249 SWAP2 SWAP1 PUSH2 0x4B76 JUMP JUMPDEST DUP2 LT ISZERO PUSH2 0x1408 JUMPI PUSH1 0x0 JUMPDEST PUSH1 0x0 DUP1 SLOAD SWAP1 PUSH2 0x100 EXP SWAP1 DIV PUSH20 0xFFFFFFFFFFFFFFFFFFFFFFFFFFFFFFFFFFFFFFFF AND PUSH20 0xFFFFFFFFFFFFFFFFFFFFFFFFFFFFFFFFFFFFFFFF AND PUSH4 0xAE5C1356 PUSH1 0x40 MLOAD DUP2 PUSH4 0xFFFFFFFF AND PUSH1 0xE0 SHL DUP2 MSTORE PUSH1 0x4 ADD PUSH1 0x20 PUSH1 0x40 MLOAD DUP1 DUP4 SUB DUP2 DUP7 GAS STATICCALL ISZERO DUP1 ISZERO PUSH2 0x12BE JUMPI RETURNDATASIZE PUSH1 0x0 DUP1 RETURNDATACOPY RETURNDATASIZE PUSH1 0x0 REVERT JUMPDEST POP POP POP POP PUSH1 0x40 MLOAD RETURNDATASIZE PUSH1 0x1F NOT PUSH1 0x1F DUP3 ADD AND DUP3 ADD DUP1 PUSH1 0x40 MSTORE POP DUP2 ADD SWAP1 PUSH2 0x12E2 SWAP2 SWAP1 PUSH2 0x4B76 JUMP JUMPDEST DUP2 LT ISZERO PUSH2 0x13F6 JUMPI DUP4 DUP3 DUP2 SLOAD DUP2 LT PUSH2 0x12FC JUMPI PUSH2 0x12FB PUSH2 0x4BD2 JUMP JUMPDEST JUMPDEST SWAP1 PUSH1 0x0 MSTORE PUSH1 0x20 PUSH1 0x0 KECCAK256 SWAP1 PUSH1 0x7 MUL ADD PUSH1 0x2 ADD DUP2 DUP2 SLOAD DUP2 LT PUSH2 0x131F JUMPI PUSH2 0x131E PUSH2 0x4BD2 JUMP JUMPDEST JUMPDEST SWAP1 PUSH1 0x0 MSTORE PUSH1 0x20 PUSH1 0x0 KECCAK256 ADD SLOAD DUP4 DUP4 DUP2 MLOAD DUP2 LT PUSH2 0x133D JUMPI PUSH2 0x133C PUSH2 0x4BD2 JUMP JUMPDEST JUMPDEST PUSH1 0x20 MUL PUSH1 0x20 ADD ADD MLOAD PUSH1 0x40 ADD MLOAD DUP3 DUP2 MLOAD DUP2 LT PUSH2 0x135B JUMPI PUSH2 0x135A PUSH2 0x4BD2 JUMP JUMPDEST JUMPDEST PUSH1 0x20 MUL PUSH1 0x20 ADD ADD DUP2 DUP2 MSTORE POP POP DUP4 DUP3 DUP2 SLOAD DUP2 LT PUSH2 0x137A JUMPI PUSH2 0x1379 PUSH2 0x4BD2 JUMP JUMPDEST JUMPDEST SWAP1 PUSH1 0x0 MSTORE PUSH1 0x20 PUSH1 0x0 KECCAK256 SWAP1 PUSH1 0x7 MUL ADD PUSH1 0x3 ADD DUP2 DUP2 SLOAD DUP2 LT PUSH2 0x139D JUMPI PUSH2 0x139C PUSH2 0x4BD2 JUMP JUMPDEST JUMPDEST SWAP1 PUSH1 0x0 MSTORE PUSH1 0x20 PUSH1 0x0 KECCAK256 ADD SLOAD DUP4 DUP4 DUP2 MLOAD DUP2 LT PUSH2 0x13BB JUMPI PUSH2 0x13BA PUSH2 0x4BD2 JUMP JUMPDEST JUMPDEST PUSH1 0x20 MUL PUSH1 0x20 ADD ADD MLOAD PUSH1 0x60 ADD MLOAD DUP3 DUP2 MLOAD DUP2 LT PUSH2 0x13D9 JUMPI PUSH2 0x13D8 PUSH2 0x4BD2 JUMP JUMPDEST JUMPDEST PUSH1 0x20 MUL PUSH1 0x20 ADD ADD DUP2 DUP2 MSTORE POP POP DUP1 PUSH2 0x13EF SWAP1 PUSH2 0x4C30 JUMP JUMPDEST SWAP1 POP PUSH2 0x1253 JUMP JUMPDEST POP DUP1 PUSH2 0x1401 SWAP1 PUSH2 0x4C30 JUMP JUMPDEST SWAP1 POP PUSH2 0x11BA JUMP JUMPDEST POP PUSH1 0x0 DUP1 SLOAD SWAP1 PUSH2 0x100 EXP SWAP1 DIV PUSH20 0xFFFFFFFFFFFFFFFFFFFFFFFFFFFFFFFFFFFFFFFF AND PUSH20 0xFFFFFFFFFFFFFFFFFFFFFFFFFFFFFFFFFFFFFFFF AND PUSH4 0x734692A9 PUSH1 0x40 MLOAD DUP2 PUSH4 0xFFFFFFFF AND PUSH1 0xE0 SHL DUP2 MSTORE PUSH1 0x4 ADD PUSH1 0x20 PUSH1 0x40 MLOAD DUP1 DUP4 SUB DUP2 DUP7 GAS STATICCALL ISZERO DUP1 ISZERO PUSH2 0x1474 JUMPI RETURNDATASIZE PUSH1 0x0 DUP1 RETURNDATACOPY RETURNDATASIZE PUSH1 0x0 REVERT JUMPDEST POP POP POP POP PUSH1 0x40 MLOAD RETURNDATASIZE PUSH1 0x1F NOT PUSH1 0x1F DUP3 ADD AND DUP3 ADD DUP1 PUSH1 0x40 MSTORE POP DUP2 ADD SWAP1 PUSH2 0x1498 SWAP2 SWAP1 PUSH2 0x4B76 JUMP JUMPDEST PUSH1 0x0 DUP1 SLOAD SWAP1 PUSH2 0x100 EXP SWAP1 DIV PUSH20 0xFFFFFFFFFFFFFFFFFFFFFFFFFFFFFFFFFFFFFFFF AND PUSH20 0xFFFFFFFFFFFFFFFFFFFFFFFFFFFFFFFFFFFFFFFF AND PUSH4 0x39FEBF0C PUSH1 0x40 MLOAD DUP2 PUSH4 0xFFFFFFFF AND PUSH1 0xE0 SHL DUP2 MSTORE PUSH1 0x4 ADD PUSH1 0x20 PUSH1 0x40 MLOAD DUP1 DUP4 SUB DUP2 DUP7 GAS STATICCALL ISZERO DUP1 ISZERO PUSH2 0x1503 JUMPI RETURNDATASIZE PUSH1 0x0 DUP1 RETURNDATACOPY RETURNDATASIZE PUSH1 0x0 REVERT JUMPDEST POP POP POP POP PUSH1 0x40 MLOAD RETURNDATASIZE PUSH1 0x1F NOT PUSH1 0x1F DUP3 ADD AND DUP3 ADD DUP1 PUSH1 0x40 MSTORE POP DUP2 ADD SWAP1 PUSH2 0x1527 SWAP2 SWAP1 PUSH2 0x4B76 JUMP JUMPDEST PUSH2 0x1531 SWAP2 SWAP1 PUSH2 0x4C78 JUMP JUMPDEST PUSH8 0xFFFFFFFFFFFFFFFF DUP2 GT ISZERO PUSH2 0x154A JUMPI PUSH2 0x1549 PUSH2 0x4BA3 JUMP JUMPDEST JUMPDEST PUSH1 0x40 MLOAD SWAP1 DUP1 DUP3 MSTORE DUP1 PUSH1 0x20 MUL PUSH1 0x20 ADD DUP3 ADD PUSH1 0x40 MSTORE DUP1 ISZERO PUSH2 0x1583 JUMPI DUP2 PUSH1 0x20 ADD JUMPDEST PUSH2 0x1570 PUSH2 0x3DE6 JUMP JUMPDEST DUP2 MSTORE PUSH1 0x20 ADD SWAP1 PUSH1 0x1 SWAP1 SUB SWAP1 DUP2 PUSH2 0x1568 JUMPI SWAP1 POP JUMPDEST POP SWAP5 POP PUSH1 0x0 JUMPDEST PUSH1 0x0 DUP1 SLOAD SWAP1 PUSH2 0x100 EXP SWAP1 DIV PUSH20 0xFFFFFFFFFFFFFFFFFFFFFFFFFFFFFFFFFFFFFFFF AND PUSH20 0xFFFFFFFFFFFFFFFFFFFFFFFFFFFFFFFFFFFFFFFF AND PUSH4 0x734692A9 PUSH1 0x40 MLOAD DUP2 PUSH4 0xFFFFFFFF AND PUSH1 0xE0 SHL DUP2 MSTORE PUSH1 0x4 ADD PUSH1 0x20 PUSH1 0x40 MLOAD DUP1 DUP4 SUB DUP2 DUP7 GAS STATICCALL ISZERO DUP1 ISZERO PUSH2 0x15F4 JUMPI RETURNDATASIZE PUSH1 0x0 DUP1 RETURNDATACOPY RETURNDATASIZE PUSH1 0x0 REVERT JUMPDEST POP POP POP POP PUSH1 0x40 MLOAD RETURNDATASIZE PUSH1 0x1F NOT PUSH1 0x1F DUP3 ADD AND DUP3 ADD DUP1 PUSH1 0x40 MSTORE POP DUP2 ADD SWAP1 PUSH2 0x1618 SWAP2 SWAP1 PUSH2 0x4B76 JUMP JUMPDEST PUSH1 0x0 DUP1 SLOAD SWAP1 PUSH2 0x100 EXP SWAP1 DIV PUSH20 0xFFFFFFFFFFFFFFFFFFFFFFFFFFFFFFFFFFFFFFFF AND PUSH20 0xFFFFFFFFFFFFFFFFFFFFFFFFFFFFFFFFFFFFFFFF AND PUSH4 0x39FEBF0C PUSH1 0x40 MLOAD DUP2 PUSH4 0xFFFFFFFF AND PUSH1 0xE0 SHL DUP2 MSTORE PUSH1 0x4 ADD PUSH1 0x20 PUSH1 0x40 MLOAD DUP1 DUP4 SUB DUP2 DUP7 GAS STATICCALL ISZERO DUP1 ISZERO PUSH2 0x1683 JUMPI RETURNDATASIZE PUSH1 0x0 DUP1 RETURNDATACOPY RETURNDATASIZE PUSH1 0x0 REVERT JUMPDEST POP POP POP POP PUSH1 0x40 MLOAD RETURNDATASIZE PUSH1 0x1F NOT PUSH1 0x1F DUP3 ADD AND DUP3 ADD DUP1 PUSH1 0x40 MSTORE POP DUP2 ADD SWAP1 PUSH2 0x16A7 SWAP2 SWAP1 PUSH2 0x4B76 JUMP JUMPDEST PUSH2 0x16B1 SWAP2 SWAP1 PUSH2 0x4C78 JUMP JUMPDEST DUP2 LT ISZERO PUSH2 0x2398 JUMPI PUSH1 0x0 DUP7 DUP3 DUP2 MLOAD DUP2 LT PUSH2 0x16CD JUMPI PUSH2 0x16CC PUSH2 0x4BD2 JUMP JUMPDEST JUMPDEST PUSH1 0x20 MUL PUSH1 0x20 ADD ADD MLOAD SWAP1 POP PUSH1 0x0 DUP1 SLOAD SWAP1 PUSH2 0x100 EXP SWAP1 DIV PUSH20 0xFFFFFFFFFFFFFFFFFFFFFFFFFFFFFFFFFFFFFFFF AND PUSH20 0xFFFFFFFFFFFFFFFFFFFFFFFFFFFFFFFFFFFFFFFF AND PUSH4 0xE3C8BFB9 PUSH1 0x40 MLOAD DUP2 PUSH4 0xFFFFFFFF AND PUSH1 0xE0 SHL DUP2 MSTORE PUSH1 0x4 ADD PUSH1 0x20 PUSH1 0x40 MLOAD DUP1 DUP4 SUB DUP2 DUP7 GAS STATICCALL ISZERO DUP1 ISZERO PUSH2 0x1742 JUMPI RETURNDATASIZE PUSH1 0x0 DUP1 RETURNDATACOPY RETURNDATASIZE PUSH1 0x0 REVERT JUMPDEST POP POP POP POP PUSH1 0x40 MLOAD RETURNDATASIZE PUSH1 0x1F NOT PUSH1 0x1F DUP3 ADD AND DUP3 ADD DUP1 PUSH1 0x40 MSTORE POP DUP2 ADD SWAP1 PUSH2 0x1766 SWAP2 SWAP1 PUSH2 0x4B76 JUMP JUMPDEST PUSH8 0xFFFFFFFFFFFFFFFF DUP2 GT ISZERO PUSH2 0x177F JUMPI PUSH2 0x177E PUSH2 0x4BA3 JUMP JUMPDEST JUMPDEST PUSH1 0x40 MLOAD SWAP1 DUP1 DUP3 MSTORE DUP1 PUSH1 0x20 MUL PUSH1 0x20 ADD DUP3 ADD PUSH1 0x40 MSTORE DUP1 ISZERO PUSH2 0x17B8 JUMPI DUP2 PUSH1 0x20 ADD JUMPDEST PUSH2 0x17A5 PUSH2 0x3E54 JUMP JUMPDEST DUP2 MSTORE PUSH1 0x20 ADD SWAP1 PUSH1 0x1 SWAP1 SUB SWAP1 DUP2 PUSH2 0x179D JUMPI SWAP1 POP JUMPDEST POP DUP2 PUSH2 0x180 ADD DUP2 SWAP1 MSTORE POP PUSH1 0x0 JUMPDEST PUSH1 0x0 DUP1 SLOAD SWAP1 PUSH2 0x100 EXP SWAP1 DIV PUSH20 0xFFFFFFFFFFFFFFFFFFFFFFFFFFFFFFFFFFFFFFFF AND PUSH20 0xFFFFFFFFFFFFFFFFFFFFFFFFFFFFFFFFFFFFFFFF AND PUSH4 0xE3C8BFB9 PUSH1 0x40 MLOAD DUP2 PUSH4 0xFFFFFFFF AND PUSH1 0xE0 SHL DUP2 MSTORE PUSH1 0x4 ADD PUSH1 0x20 PUSH1 0x40 MLOAD DUP1 DUP4 SUB DUP2 DUP7 GAS STATICCALL ISZERO DUP1 ISZERO PUSH2 0x1830 JUMPI RETURNDATASIZE PUSH1 0x0 DUP1 RETURNDATACOPY RETURNDATASIZE PUSH1 0x0 REVERT JUMPDEST POP POP POP POP PUSH1 0x40 MLOAD RETURNDATASIZE PUSH1 0x1F NOT PUSH1 0x1F DUP3 ADD AND DUP3 ADD DUP1 PUSH1 0x40 MSTORE POP DUP2 ADD SWAP1 PUSH2 0x1854 SWAP2 SWAP1 PUSH2 0x4B76 JUMP JUMPDEST DUP2 LT ISZERO PUSH2 0x1B39 JUMPI PUSH1 0x0 DUP3 PUSH2 0x180 ADD MLOAD DUP3 DUP2 MLOAD DUP2 LT PUSH2 0x1875 JUMPI PUSH2 0x1874 PUSH2 0x4BD2 JUMP JUMPDEST JUMPDEST PUSH1 0x20 MUL PUSH1 0x20 ADD ADD MLOAD SWAP1 POP PUSH1 0x0 DUP1 SLOAD SWAP1 PUSH2 0x100 EXP SWAP1 DIV PUSH20 0xFFFFFFFFFFFFFFFFFFFFFFFFFFFFFFFFFFFFFFFF AND PUSH20 0xFFFFFFFFFFFFFFFFFFFFFFFFFFFFFFFFFFFFFFFF AND PUSH4 0xAE5C1356 PUSH1 0x40 MLOAD DUP2 PUSH4 0xFFFFFFFF AND PUSH1 0xE0 SHL DUP2 MSTORE PUSH1 0x4 ADD PUSH1 0x20 PUSH1 0x40 MLOAD DUP1 DUP4 SUB DUP2 DUP7 GAS STATICCALL ISZERO DUP1 ISZERO PUSH2 0x18EA JUMPI RETURNDATASIZE PUSH1 0x0 DUP1 RETURNDATACOPY RETURNDATASIZE PUSH1 0x0 REVERT JUMPDEST POP POP POP POP PUSH1 0x40 MLOAD RETURNDATASIZE PUSH1 0x1F NOT PUSH1 0x1F DUP3 ADD AND DUP3 ADD DUP1 PUSH1 0x40 MSTORE POP DUP2 ADD SWAP1 PUSH2 0x190E SWAP2 SWAP1 PUSH2 0x4B76 JUMP JUMPDEST PUSH8 0xFFFFFFFFFFFFFFFF DUP2 GT ISZERO PUSH2 0x1927 JUMPI PUSH2 0x1926 PUSH2 0x4BA3 JUMP JUMPDEST JUMPDEST PUSH1 0x40 MLOAD SWAP1 DUP1 DUP3 MSTORE DUP1 PUSH1 0x20 MUL PUSH1 0x20 ADD DUP3 ADD PUSH1 0x40 MSTORE DUP1 ISZERO PUSH2 0x1960 JUMPI DUP2 PUSH1 0x20 ADD JUMPDEST PUSH2 0x194D PUSH2 0x3DC5 JUMP JUMPDEST DUP2 MSTORE PUSH1 0x20 ADD SWAP1 PUSH1 0x1 SWAP1 SUB SWAP1 DUP2 PUSH2 0x1945 JUMPI SWAP1 POP JUMPDEST POP DUP2 PUSH1 0x0 ADD DUP2 SWAP1 MSTORE POP PUSH1 0x0 DUP1 SLOAD SWAP1 PUSH2 0x100 EXP SWAP1 DIV PUSH20 0xFFFFFFFFFFFFFFFFFFFFFFFFFFFFFFFFFFFFFFFF AND PUSH20 0xFFFFFFFFFFFFFFFFFFFFFFFFFFFFFFFFFFFFFFFF AND PUSH4 0xAE5C1356 PUSH1 0x40 MLOAD DUP2 PUSH4 0xFFFFFFFF AND PUSH1 0xE0 SHL DUP2 MSTORE PUSH1 0x4 ADD PUSH1 0x20 PUSH1 0x40 MLOAD DUP1 DUP4 SUB DUP2 DUP7 GAS STATICCALL ISZERO DUP1 ISZERO PUSH2 0x19D4 JUMPI RETURNDATASIZE PUSH1 0x0 DUP1 RETURNDATACOPY RETURNDATASIZE PUSH1 0x0 REVERT JUMPDEST POP POP POP POP PUSH1 0x40 MLOAD RETURNDATASIZE PUSH1 0x1F NOT PUSH1 0x1F DUP3 ADD AND DUP3 ADD DUP1 PUSH1 0x40 MSTORE POP DUP2 ADD SWAP1 PUSH2 0x19F8 SWAP2 SWAP1 PUSH2 0x4B76 JUMP JUMPDEST PUSH8 0xFFFFFFFFFFFFFFFF DUP2 GT ISZERO PUSH2 0x1A11 JUMPI PUSH2 0x1A10 PUSH2 0x4BA3 JUMP JUMPDEST JUMPDEST PUSH1 0x40 MLOAD SWAP1 DUP1 DUP3 MSTORE DUP1 PUSH1 0x20 MUL PUSH1 0x20 ADD DUP3 ADD PUSH1 0x40 MSTORE DUP1 ISZERO PUSH2 0x1A3F JUMPI DUP2 PUSH1 0x20 ADD PUSH1 0x20 DUP3 MUL DUP1 CALLDATASIZE DUP4 CALLDATACOPY DUP1 DUP3 ADD SWAP2 POP POP SWAP1 POP JUMPDEST POP DUP2 PUSH1 0x20 ADD DUP2 SWAP1 MSTORE POP PUSH1 0x0 DUP1 SLOAD SWAP1 PUSH2 0x100 EXP SWAP1 DIV PUSH20 0xFFFFFFFFFFFFFFFFFFFFFFFFFFFFFFFFFFFFFFFF AND PUSH20 0xFFFFFFFFFFFFFFFFFFFFFFFFFFFFFFFFFFFFFFFF AND PUSH4 0xAE5C1356 PUSH1 0x40 MLOAD DUP2 PUSH4 0xFFFFFFFF AND PUSH1 0xE0 SHL DUP2 MSTORE PUSH1 0x4 ADD PUSH1 0x20 PUSH1 0x40 MLOAD DUP1 DUP4 SUB DUP2 DUP7 GAS STATICCALL ISZERO DUP1 ISZERO PUSH2 0x1AB3 JUMPI RETURNDATASIZE PUSH1 0x0 DUP1 RETURNDATACOPY RETURNDATASIZE PUSH1 0x0 REVERT JUMPDEST POP POP POP POP PUSH1 0x40 MLOAD RETURNDATASIZE PUSH1 0x1F NOT PUSH1 0x1F DUP3 ADD AND DUP3 ADD DUP1 PUSH1 0x40 MSTORE POP DUP2 ADD SWAP1 PUSH2 0x1AD7 SWAP2 SWAP1 PUSH2 0x4B76 JUMP JUMPDEST PUSH8 0xFFFFFFFFFFFFFFFF DUP2 GT ISZERO PUSH2 0x1AF0 JUMPI PUSH2 0x1AEF PUSH2 0x4BA3 JUMP JUMPDEST JUMPDEST PUSH1 0x40 MLOAD SWAP1 DUP1 DUP3 MSTORE DUP1 PUSH1 0x20 MUL PUSH1 0x20 ADD DUP3 ADD PUSH1 0x40 MSTORE DUP1 ISZERO PUSH2 0x1B1E JUMPI DUP2 PUSH1 0x20 ADD PUSH1 0x20 DUP3 MUL DUP1 CALLDATASIZE DUP4 CALLDATACOPY DUP1 DUP3 ADD SWAP2 POP POP SWAP1 POP JUMPDEST POP DUP2 PUSH1 0x40 ADD DUP2 SWAP1 MSTORE POP POP DUP1 PUSH2 0x1B32 SWAP1 PUSH2 0x4C30 JUMP JUMPDEST SWAP1 POP PUSH2 0x17C5 JUMP JUMPDEST POP PUSH1 0x0 DUP3 SUB PUSH2 0x1B77 JUMPI DUP5 DUP2 PUSH2 0x180 ADD DUP2 SWAP1 MSTORE POP PUSH2 0x1B70 DUP8 PUSH1 0x0 DUP2 MLOAD DUP2 LT PUSH2 0x1B63 JUMPI PUSH2 0x1B62 PUSH2 0x4BD2 JUMP JUMPDEST JUMPDEST PUSH1 0x20 MUL PUSH1 0x20 ADD ADD MLOAD PUSH2 0x2E9B JUMP JUMPDEST POP POP PUSH2 0x2387 JUMP JUMPDEST DUP7 PUSH1 0x1 DUP4 PUSH2 0x1B85 SWAP2 SWAP1 PUSH2 0x4CAC JUMP JUMPDEST DUP2 MLOAD DUP2 LT PUSH2 0x1B96 JUMPI PUSH2 0x1B95 PUSH2 0x4BD2 JUMP JUMPDEST JUMPDEST PUSH1 0x20 MUL PUSH1 0x20 ADD ADD MLOAD DUP8 DUP4 DUP2 MLOAD DUP2 LT PUSH2 0x1BB1 JUMPI PUSH2 0x1BB0 PUSH2 0x4BD2 JUMP JUMPDEST JUMPDEST PUSH1 0x20 MUL PUSH1 0x20 ADD ADD DUP2 SWAP1 MSTORE POP PUSH1 0x0 JUMPDEST PUSH1 0x0 DUP1 SLOAD SWAP1 PUSH2 0x100 EXP SWAP1 DIV PUSH20 0xFFFFFFFFFFFFFFFFFFFFFFFFFFFFFFFFFFFFFFFF AND PUSH20 0xFFFFFFFFFFFFFFFFFFFFFFFFFFFFFFFFFFFFFFFF AND PUSH4 0xE3C8BFB9 PUSH1 0x40 MLOAD DUP2 PUSH4 0xFFFFFFFF AND PUSH1 0xE0 SHL DUP2 MSTORE PUSH1 0x4 ADD PUSH1 0x20 PUSH1 0x40 MLOAD DUP1 DUP4 SUB DUP2 DUP7 GAS STATICCALL ISZERO DUP1 ISZERO PUSH2 0x1C2A JUMPI RETURNDATASIZE PUSH1 0x0 DUP1 RETURNDATACOPY RETURNDATASIZE PUSH1 0x0 REVERT JUMPDEST POP POP POP POP PUSH1 0x40 MLOAD RETURNDATASIZE PUSH1 0x1F NOT PUSH1 0x1F DUP3 ADD AND DUP3 ADD DUP1 PUSH1 0x40 MSTORE POP DUP2 ADD SWAP1 PUSH2 0x1C4E SWAP2 SWAP1 PUSH2 0x4B76 JUMP JUMPDEST DUP2 LT ISZERO PUSH2 0x2073 JUMPI PUSH1 0x0 DUP1 SLOAD SWAP1 PUSH2 0x100 EXP SWAP1 DIV PUSH20 0xFFFFFFFFFFFFFFFFFFFFFFFFFFFFFFFFFFFFFFFF AND PUSH20 0xFFFFFFFFFFFFFFFFFFFFFFFFFFFFFFFFFFFFFFFF AND PUSH4 0xAE5C1356 PUSH1 0x40 MLOAD DUP2 PUSH4 0xFFFFFFFF AND PUSH1 0xE0 SHL DUP2 MSTORE PUSH1 0x4 ADD PUSH1 0x20 PUSH1 0x40 MLOAD DUP1 DUP4 SUB DUP2 DUP7 GAS STATICCALL ISZERO DUP1 ISZERO PUSH2 0x1CC0 JUMPI RETURNDATASIZE PUSH1 0x0 DUP1 RETURNDATACOPY RETURNDATASIZE PUSH1 0x0 REVERT JUMPDEST POP POP POP POP PUSH1 0x40 MLOAD RETURNDATASIZE PUSH1 0x1F NOT PUSH1 0x1F DUP3 ADD AND DUP3 ADD DUP1 PUSH1 0x40 MSTORE POP DUP2 ADD SWAP1 PUSH2 0x1CE4 SWAP2 SWAP1 PUSH2 0x4B76 JUMP JUMPDEST PUSH8 0xFFFFFFFFFFFFFFFF DUP2 GT ISZERO PUSH2 0x1CFD JUMPI PUSH2 0x1CFC PUSH2 0x4BA3 JUMP JUMPDEST JUMPDEST PUSH1 0x40 MLOAD SWAP1 DUP1 DUP3 MSTORE DUP1 PUSH1 0x20 MUL PUSH1 0x20 ADD DUP3 ADD PUSH1 0x40 MSTORE DUP1 ISZERO PUSH2 0x1D36 JUMPI DUP2 PUSH1 0x20 ADD JUMPDEST PUSH2 0x1D23 PUSH2 0x3DC5 JUMP JUMPDEST DUP2 MSTORE PUSH1 0x20 ADD SWAP1 PUSH1 0x1 SWAP1 SUB SWAP1 DUP2 PUSH2 0x1D1B JUMPI SWAP1 POP JUMPDEST POP DUP9 DUP5 DUP2 MLOAD DUP2 LT PUSH2 0x1D4A JUMPI PUSH2 0x1D49 PUSH2 0x4BD2 JUMP JUMPDEST JUMPDEST PUSH1 0x20 MUL PUSH1 0x20 ADD ADD MLOAD PUSH2 0x180 ADD MLOAD DUP3 DUP2 MLOAD DUP2 LT PUSH2 0x1D69 JUMPI PUSH2 0x1D68 PUSH2 0x4BD2 JUMP JUMPDEST JUMPDEST PUSH1 0x20 MUL PUSH1 0x20 ADD ADD MLOAD PUSH1 0x0 ADD DUP2 SWAP1 MSTORE POP PUSH1 0x0 JUMPDEST PUSH1 0x0 DUP1 SLOAD SWAP1 PUSH2 0x100 EXP SWAP1 DIV PUSH20 0xFFFFFFFFFFFFFFFFFFFFFFFFFFFFFFFFFFFFFFFF AND PUSH20 0xFFFFFFFFFFFFFFFFFFFFFFFFFFFFFFFFFFFFFFFF AND PUSH4 0xAE5C1356 PUSH1 0x40 MLOAD DUP2 PUSH4 0xFFFFFFFF AND PUSH1 0xE0 SHL DUP2 MSTORE PUSH1 0x4 ADD PUSH1 0x20 PUSH1 0x40 MLOAD DUP1 DUP4 SUB DUP2 DUP7 GAS STATICCALL ISZERO DUP1 ISZERO PUSH2 0x1DE6 JUMPI RETURNDATASIZE PUSH1 0x0 DUP1 RETURNDATACOPY RETURNDATASIZE PUSH1 0x0 REVERT JUMPDEST POP POP POP POP PUSH1 0x40 MLOAD RETURNDATASIZE PUSH1 0x1F NOT PUSH1 0x1F DUP3 ADD AND DUP3 ADD DUP1 PUSH1 0x40 MSTORE POP DUP2 ADD SWAP1 PUSH2 0x1E0A SWAP2 SWAP1 PUSH2 0x4B76 JUMP JUMPDEST DUP2 LT ISZERO PUSH2 0x2061 JUMPI DUP9 PUSH1 0x1 DUP6 PUSH2 0x1E1F SWAP2 SWAP1 PUSH2 0x4CAC JUMP JUMPDEST DUP2 MLOAD DUP2 LT PUSH2 0x1E30 JUMPI PUSH2 0x1E2F PUSH2 0x4BD2 JUMP JUMPDEST JUMPDEST PUSH1 0x20 MUL PUSH1 0x20 ADD ADD MLOAD PUSH2 0x180 ADD MLOAD DUP3 DUP2 MLOAD DUP2 LT PUSH2 0x1E4F JUMPI PUSH2 0x1E4E PUSH2 0x4BD2 JUMP JUMPDEST JUMPDEST PUSH1 0x20 MUL PUSH1 0x20 ADD ADD MLOAD PUSH1 0x0 ADD MLOAD DUP2 DUP2 MLOAD DUP2 LT PUSH2 0x1E6D JUMPI PUSH2 0x1E6C PUSH2 0x4BD2 JUMP JUMPDEST JUMPDEST PUSH1 0x20 MUL PUSH1 0x20 ADD ADD MLOAD DUP10 DUP6 DUP2 MLOAD DUP2 LT PUSH2 0x1E88 JUMPI PUSH2 0x1E87 PUSH2 0x4BD2 JUMP JUMPDEST JUMPDEST PUSH1 0x20 MUL PUSH1 0x20 ADD ADD MLOAD PUSH2 0x180 ADD MLOAD DUP4 DUP2 MLOAD DUP2 LT PUSH2 0x1EA7 JUMPI PUSH2 0x1EA6 PUSH2 0x4BD2 JUMP JUMPDEST JUMPDEST PUSH1 0x20 MUL PUSH1 0x20 ADD ADD MLOAD PUSH1 0x0 ADD MLOAD DUP3 DUP2 MLOAD DUP2 LT PUSH2 0x1EC5 JUMPI PUSH2 0x1EC4 PUSH2 0x4BD2 JUMP JUMPDEST JUMPDEST PUSH1 0x20 MUL PUSH1 0x20 ADD ADD DUP2 SWAP1 MSTORE POP DUP9 PUSH1 0x1 DUP6 PUSH2 0x1EDE SWAP2 SWAP1 PUSH2 0x4CAC JUMP JUMPDEST DUP2 MLOAD DUP2 LT PUSH2 0x1EEF JUMPI PUSH2 0x1EEE PUSH2 0x4BD2 JUMP JUMPDEST JUMPDEST PUSH1 0x20 MUL PUSH1 0x20 ADD ADD MLOAD PUSH2 0x180 ADD MLOAD DUP3 DUP2 MLOAD DUP2 LT PUSH2 0x1F0E JUMPI PUSH2 0x1F0D PUSH2 0x4BD2 JUMP JUMPDEST JUMPDEST PUSH1 0x20 MUL PUSH1 0x20 ADD ADD MLOAD PUSH1 0x20 ADD MLOAD DUP2 DUP2 MLOAD DUP2 LT PUSH2 0x1F2C JUMPI PUSH2 0x1F2B PUSH2 0x4BD2 JUMP JUMPDEST JUMPDEST PUSH1 0x20 MUL PUSH1 0x20 ADD ADD MLOAD DUP10 DUP6 DUP2 MLOAD DUP2 LT PUSH2 0x1F47 JUMPI PUSH2 0x1F46 PUSH2 0x4BD2 JUMP JUMPDEST JUMPDEST PUSH1 0x20 MUL PUSH1 0x20 ADD ADD MLOAD PUSH2 0x180 ADD MLOAD DUP4 DUP2 MLOAD DUP2 LT PUSH2 0x1F66 JUMPI PUSH2 0x1F65 PUSH2 0x4BD2 JUMP JUMPDEST JUMPDEST PUSH1 0x20 MUL PUSH1 0x20 ADD ADD MLOAD PUSH1 0x20 ADD MLOAD DUP3 DUP2 MLOAD DUP2 LT PUSH2 0x1F84 JUMPI PUSH2 0x1F83 PUSH2 0x4BD2 JUMP JUMPDEST JUMPDEST PUSH1 0x20 MUL PUSH1 0x20 ADD ADD DUP2 DUP2 MSTORE POP POP DUP9 PUSH1 0x1 DUP6 PUSH2 0x1F9E SWAP2 SWAP1 PUSH2 0x4CAC JUMP JUMPDEST DUP2 MLOAD DUP2 LT PUSH2 0x1FAF JUMPI PUSH2 0x1FAE PUSH2 0x4BD2 JUMP JUMPDEST JUMPDEST PUSH1 0x20 MUL PUSH1 0x20 ADD ADD MLOAD PUSH2 0x180 ADD MLOAD DUP3 DUP2 MLOAD DUP2 LT PUSH2 0x1FCE JUMPI PUSH2 0x1FCD PUSH2 0x4BD2 JUMP JUMPDEST JUMPDEST PUSH1 0x20 MUL PUSH1 0x20 ADD ADD MLOAD PUSH1 0x40 ADD MLOAD DUP2 DUP2 MLOAD DUP2 LT PUSH2 0x1FEC JUMPI PUSH2 0x1FEB PUSH2 0x4BD2 JUMP JUMPDEST JUMPDEST PUSH1 0x20 MUL PUSH1 0x20 ADD ADD MLOAD DUP10 DUP6 DUP2 MLOAD DUP2 LT PUSH2 0x2007 JUMPI PUSH2 0x2006 PUSH2 0x4BD2 JUMP JUMPDEST JUMPDEST PUSH1 0x20 MUL PUSH1 0x20 ADD ADD MLOAD PUSH2 0x180 ADD MLOAD DUP4 DUP2 MLOAD DUP2 LT PUSH2 0x2026 JUMPI PUSH2 0x2025 PUSH2 0x4BD2 JUMP JUMPDEST JUMPDEST PUSH1 0x20 MUL PUSH1 0x20 ADD ADD MLOAD PUSH1 0x40 ADD MLOAD DUP3 DUP2 MLOAD DUP2 LT PUSH2 0x2044 JUMPI PUSH2 0x2043 PUSH2 0x4BD2 JUMP JUMPDEST JUMPDEST PUSH1 0x20 MUL PUSH1 0x20 ADD ADD DUP2 DUP2 MSTORE POP POP DUP1 PUSH2 0x205A SWAP1 PUSH2 0x4C30 JUMP JUMPDEST SWAP1 POP PUSH2 0x1D7B JUMP JUMPDEST POP DUP1 PUSH2 0x206C SWAP1 PUSH2 0x4C30 JUMP JUMPDEST SWAP1 POP PUSH2 0x1BBF JUMP JUMPDEST POP PUSH1 0x0 DUP1 SLOAD SWAP1 PUSH2 0x100 EXP SWAP1 DIV PUSH20 0xFFFFFFFFFFFFFFFFFFFFFFFFFFFFFFFFFFFFFFFF AND PUSH20 0xFFFFFFFFFFFFFFFFFFFFFFFFFFFFFFFFFFFFFFFF AND PUSH4 0x39FEBF0C PUSH1 0x40 MLOAD DUP2 PUSH4 0xFFFFFFFF AND PUSH1 0xE0 SHL DUP2 MSTORE PUSH1 0x4 ADD PUSH1 0x20 PUSH1 0x40 MLOAD DUP1 DUP4 SUB DUP2 DUP7 GAS STATICCALL ISZERO DUP1 ISZERO PUSH2 0x20DF JUMPI RETURNDATASIZE PUSH1 0x0 DUP1 RETURNDATACOPY RETURNDATASIZE PUSH1 0x0 REVERT JUMPDEST POP POP POP POP PUSH1 0x40 MLOAD RETURNDATASIZE PUSH1 0x1F NOT PUSH1 0x1F DUP3 ADD AND DUP3 ADD DUP1 PUSH1 0x40 MSTORE POP DUP2 ADD SWAP1 PUSH2 0x2103 SWAP2 SWAP1 PUSH2 0x4B76 JUMP JUMPDEST DUP3 LT ISZERO PUSH2 0x231A JUMPI PUSH1 0x0 JUMPDEST PUSH1 0x0 DUP1 SLOAD SWAP1 PUSH2 0x100 EXP SWAP1 DIV PUSH20 0xFFFFFFFFFFFFFFFFFFFFFFFFFFFFFFFFFFFFFFFF AND PUSH20 0xFFFFFFFFFFFFFFFFFFFFFFFFFFFFFFFFFFFFFFFF AND PUSH4 0xE3C8BFB9 PUSH1 0x40 MLOAD DUP2 PUSH4 0xFFFFFFFF AND PUSH1 0xE0 SHL DUP2 MSTORE PUSH1 0x4 ADD PUSH1 0x20 PUSH1 0x40 MLOAD DUP1 DUP4 SUB DUP2 DUP7 GAS STATICCALL ISZERO DUP1 ISZERO PUSH2 0x2178 JUMPI RETURNDATASIZE PUSH1 0x0 DUP1 RETURNDATACOPY RETURNDATASIZE PUSH1 0x0 REVERT JUMPDEST POP POP POP POP PUSH1 0x40 MLOAD RETURNDATASIZE PUSH1 0x1F NOT PUSH1 0x1F DUP3 ADD AND DUP3 ADD DUP1 PUSH1 0x40 MSTORE POP DUP2 ADD SWAP1 PUSH2 0x219C SWAP2 SWAP1 PUSH2 0x4B76 JUMP JUMPDEST DUP2 LT ISZERO PUSH2 0x22CC JUMPI PUSH1 0x0 JUMPDEST PUSH1 0x0 DUP1 SLOAD SWAP1 PUSH2 0x100 EXP SWAP1 DIV PUSH20 0xFFFFFFFFFFFFFFFFFFFFFFFFFFFFFFFFFFFFFFFF AND PUSH20 0xFFFFFFFFFFFFFFFFFFFFFFFFFFFFFFFFFFFFFFFF AND PUSH4 0xAE5C1356 PUSH1 0x40 MLOAD DUP2 PUSH4 0xFFFFFFFF AND PUSH1 0xE0 SHL DUP2 MSTORE PUSH1 0x4 ADD PUSH1 0x20 PUSH1 0x40 MLOAD DUP1 DUP4 SUB DUP2 DUP7 GAS STATICCALL ISZERO DUP1 ISZERO PUSH2 0x2211 JUMPI RETURNDATASIZE PUSH1 0x0 DUP1 RETURNDATACOPY RETURNDATASIZE PUSH1 0x0 REVERT JUMPDEST POP POP POP POP PUSH1 0x40 MLOAD RETURNDATASIZE PUSH1 0x1F NOT PUSH1 0x1F DUP3 ADD AND DUP3 ADD DUP1 PUSH1 0x40 MSTORE POP DUP2 ADD SWAP1 PUSH2 0x2235 SWAP2 SWAP1 PUSH2 0x4B76 JUMP JUMPDEST DUP2 LT ISZERO PUSH2 0x22BA JUMPI PUSH2 0x228B DUP8 DUP7 DUP5 DUP5 DUP14 PUSH1 0x1 DUP11 PUSH2 0x2251 SWAP2 SWAP1 PUSH2 0x4CAC JUMP JUMPDEST DUP2 MLOAD DUP2 LT PUSH2 0x2262 JUMPI PUSH2 0x2261 PUSH2 0x4BD2 JUMP JUMPDEST JUMPDEST PUSH1 0x20 MUL PUSH1 0x20 ADD ADD MLOAD DUP15 DUP11 DUP2 MLOAD DUP2 LT PUSH2 0x227D JUMPI PUSH2 0x227C PUSH2 0x4BD2 JUMP JUMPDEST JUMPDEST PUSH1 0x20 MUL PUSH1 0x20 ADD ADD MLOAD DUP11 PUSH2 0x2F2E JUMP JUMPDEST DUP10 DUP6 DUP2 MLOAD DUP2 LT PUSH2 0x229E JUMPI PUSH2 0x229D PUSH2 0x4BD2 JUMP JUMPDEST JUMPDEST PUSH1 0x20 MUL PUSH1 0x20 ADD ADD DUP2 SWAP1 MSTORE POP DUP1 PUSH2 0x22B3 SWAP1 PUSH2 0x4C30 JUMP JUMPDEST SWAP1 POP PUSH2 0x21A6 JUMP JUMPDEST POP DUP1 PUSH2 0x22C5 SWAP1 PUSH2 0x4C30 JUMP JUMPDEST SWAP1 POP PUSH2 0x210D JUMP JUMPDEST POP PUSH2 0x22F0 DUP8 DUP4 DUP2 MLOAD DUP2 LT PUSH2 0x22E3 JUMPI PUSH2 0x22E2 PUSH2 0x4BD2 JUMP JUMPDEST JUMPDEST PUSH1 0x20 MUL PUSH1 0x20 ADD ADD MLOAD PUSH2 0x2E9B JUMP JUMPDEST POP PUSH2 0x2314 DUP8 DUP4 DUP2 MLOAD DUP2 LT PUSH2 0x2307 JUMPI PUSH2 0x2306 PUSH2 0x4BD2 JUMP JUMPDEST JUMPDEST PUSH1 0x20 MUL PUSH1 0x20 ADD ADD MLOAD PUSH2 0x3927 JUMP JUMPDEST POP PUSH2 0x2385 JUMP JUMPDEST PUSH2 0x2366 DUP6 DUP5 DUP10 PUSH1 0x1 DUP7 PUSH2 0x232D SWAP2 SWAP1 PUSH2 0x4CAC JUMP JUMPDEST DUP2 MLOAD DUP2 LT PUSH2 0x233E JUMPI PUSH2 0x233D PUSH2 0x4BD2 JUMP JUMPDEST JUMPDEST PUSH1 0x20 MUL PUSH1 0x20 ADD ADD MLOAD DUP11 DUP7 DUP2 MLOAD DUP2 LT PUSH2 0x2359 JUMPI PUSH2 0x2358 PUSH2 0x4BD2 JUMP JUMPDEST JUMPDEST PUSH1 0x20 MUL PUSH1 0x20 ADD ADD MLOAD PUSH2 0x3B5A JUMP JUMPDEST DUP8 DUP4 DUP2 MLOAD DUP2 LT PUSH2 0x2379 JUMPI PUSH2 0x2378 PUSH2 0x4BD2 JUMP JUMPDEST JUMPDEST PUSH1 0x20 MUL PUSH1 0x20 ADD ADD DUP2 SWAP1 MSTORE POP JUMPDEST POP JUMPDEST DUP1 PUSH2 0x2391 SWAP1 PUSH2 0x4C30 JUMP JUMPDEST SWAP1 POP PUSH2 0x1589 JUMP JUMPDEST POP POP POP POP POP SWAP3 SWAP2 POP POP JUMP JUMPDEST PUSH1 0xA PUSH1 0x0 SWAP1 SLOAD SWAP1 PUSH2 0x100 EXP SWAP1 DIV PUSH20 0xFFFFFFFFFFFFFFFFFFFFFFFFFFFFFFFFFFFFFFFF AND DUP2 JUMP JUMPDEST PUSH1 0x0 DUP1 PUSH1 0xA PUSH1 0x0 SWAP1 SLOAD SWAP1 PUSH2 0x100 EXP SWAP1 DIV PUSH20 0xFFFFFFFFFFFFFFFFFFFFFFFFFFFFFFFFFFFFFFFF AND PUSH20 0xFFFFFFFFFFFFFFFFFFFFFFFFFFFFFFFFFFFFFFFF AND DUP4 PUSH1 0x40 MLOAD PUSH1 0x24 ADD PUSH2 0x2416 SWAP2 SWAP1 PUSH2 0x3EB1 JUMP JUMPDEST PUSH1 0x40 MLOAD PUSH1 0x20 DUP2 DUP4 SUB SUB DUP2 MSTORE SWAP1 PUSH1 0x40 MSTORE PUSH32 0x5CD6925A00000000000000000000000000000000000000000000000000000000 PUSH28 0xFFFFFFFFFFFFFFFFFFFFFFFFFFFFFFFFFFFFFFFFFFFFFFFFFFFFFFFF NOT AND PUSH1 0x20 DUP3 ADD DUP1 MLOAD PUSH28 0xFFFFFFFFFFFFFFFFFFFFFFFFFFFFFFFFFFFFFFFFFFFFFFFFFFFFFFFF DUP4 DUP2 DUP4 AND OR DUP4 MSTORE POP POP POP POP PUSH1 0x40 MLOAD PUSH2 0x24A0 SWAP2 SWAP1 PUSH2 0x494C JUMP JUMPDEST PUSH1 0x0 PUSH1 0x40 MLOAD DUP1 DUP4 SUB DUP2 DUP6 GAS DELEGATECALL SWAP2 POP POP RETURNDATASIZE DUP1 PUSH1 0x0 DUP2 EQ PUSH2 0x24DB JUMPI PUSH1 0x40 MLOAD SWAP2 POP PUSH1 0x1F NOT PUSH1 0x3F RETURNDATASIZE ADD AND DUP3 ADD PUSH1 0x40 MSTORE RETURNDATASIZE DUP3 MSTORE RETURNDATASIZE PUSH1 0x0 PUSH1 0x20 DUP5 ADD RETURNDATACOPY PUSH2 0x24E0 JUMP JUMPDEST PUSH1 0x60 SWAP2 POP JUMPDEST POP SWAP2 POP SWAP2 POP DUP2 PUSH2 0x2525 JUMPI PUSH1 0x40 MLOAD PUSH32 0x8C379A000000000000000000000000000000000000000000000000000000000 DUP2 MSTORE PUSH1 0x4 ADD PUSH2 0x251C SWAP1 PUSH2 0x4D52 JUMP JUMPDEST PUSH1 0x40 MLOAD DUP1 SWAP2 SUB SWAP1 REVERT JUMPDEST POP POP POP JUMP JUMPDEST PUSH1 0x0 DUP1 SLOAD SWAP1 PUSH2 0x100 EXP SWAP1 DIV PUSH20 0xFFFFFFFFFFFFFFFFFFFFFFFFFFFFFFFFFFFFFFFF AND DUP2 JUMP JUMPDEST PUSH1 0x6 PUSH1 0x20 MSTORE DUP1 PUSH1 0x0 MSTORE PUSH1 0x40 PUSH1 0x0 KECCAK256 PUSH1 0x0 SWAP2 POP SWAP1 POP SLOAD DUP2 JUMP JUMPDEST PUSH1 0x2 PUSH1 0x0 SWAP1 SLOAD SWAP1 PUSH2 0x100 EXP SWAP1 DIV PUSH20 0xFFFFFFFFFFFFFFFFFFFFFFFFFFFFFFFFFFFFFFFF AND DUP2 JUMP JUMPDEST PUSH1 0x0 DUP1 PUSH1 0xA PUSH1 0x0 SWAP1 SLOAD SWAP1 PUSH2 0x100 EXP SWAP1 DIV PUSH20 0xFFFFFFFFFFFFFFFFFFFFFFFFFFFFFFFFFFFFFFFF AND PUSH20 0xFFFFFFFFFFFFFFFFFFFFFFFFFFFFFFFFFFFFFFFF AND DUP4 PUSH1 0x40 MLOAD PUSH1 0x24 ADD PUSH2 0x25D9 SWAP2 SWAP1 PUSH2 0x3EB1 JUMP JUMPDEST PUSH1 0x40 MLOAD PUSH1 0x20 DUP2 DUP4 SUB SUB DUP2 MSTORE SWAP1 PUSH1 0x40 MSTORE PUSH32 0x90EDE5D500000000000000000000000000000000000000000000000000000000 PUSH28 0xFFFFFFFFFFFFFFFFFFFFFFFFFFFFFFFFFFFFFFFFFFFFFFFFFFFFFFFF NOT AND PUSH1 0x20 DUP3 ADD DUP1 MLOAD PUSH28 0xFFFFFFFFFFFFFFFFFFFFFFFFFFFFFFFFFFFFFFFFFFFFFFFFFFFFFFFF DUP4 DUP2 DUP4 AND OR DUP4 MSTORE POP POP POP POP PUSH1 0x40 MLOAD PUSH2 0x2663 SWAP2 SWAP1 PUSH2 0x494C JUMP JUMPDEST PUSH1 0x0 PUSH1 0x40 MLOAD DUP1 DUP4 SUB DUP2 DUP6 GAS DELEGATECALL SWAP2 POP POP RETURNDATASIZE DUP1 PUSH1 0x0 DUP2 EQ PUSH2 0x269E JUMPI PUSH1 0x40 MLOAD SWAP2 POP PUSH1 0x1F NOT PUSH1 0x3F RETURNDATASIZE ADD AND DUP3 ADD PUSH1 0x40 MSTORE RETURNDATASIZE DUP3 MSTORE RETURNDATASIZE PUSH1 0x0 PUSH1 0x20 DUP5 ADD RETURNDATACOPY PUSH2 0x26A3 JUMP JUMPDEST PUSH1 0x60 SWAP2 POP JUMPDEST POP SWAP2 POP SWAP2 POP DUP2 PUSH2 0x26E8 JUMPI PUSH1 0x40 MLOAD PUSH32 0x8C379A000000000000000000000000000000000000000000000000000000000 DUP2 MSTORE PUSH1 0x4 ADD PUSH2 0x26DF SWAP1 PUSH2 0x4DE4 JUMP JUMPDEST PUSH1 0x40 MLOAD DUP1 SWAP2 SUB SWAP1 REVERT JUMPDEST POP POP POP JUMP JUMPDEST PUSH2 0x26F5 PUSH2 0x3E75 JUMP JUMPDEST PUSH1 0x0 PUSH2 0x2701 DUP6 DUP6 PUSH2 0x96F JUMP JUMPDEST SWAP1 POP PUSH1 0x0 JUMPDEST PUSH1 0x0 DUP1 SLOAD SWAP1 PUSH2 0x100 EXP SWAP1 DIV PUSH20 0xFFFFFFFFFFFFFFFFFFFFFFFFFFFFFFFFFFFFFFFF AND PUSH20 0xFFFFFFFFFFFFFFFFFFFFFFFFFFFFFFFFFFFFFFFF AND PUSH4 0xAE5C1356 PUSH1 0x40 MLOAD DUP2 PUSH4 0xFFFFFFFF AND PUSH1 0xE0 SHL DUP2 MSTORE PUSH1 0x4 ADD PUSH1 0x20 PUSH1 0x40 MLOAD DUP1 DUP4 SUB DUP2 DUP7 GAS STATICCALL ISZERO DUP1 ISZERO PUSH2 0x2771 JUMPI RETURNDATASIZE PUSH1 0x0 DUP1 RETURNDATACOPY RETURNDATASIZE PUSH1 0x0 REVERT JUMPDEST POP POP POP POP PUSH1 0x40 MLOAD RETURNDATASIZE PUSH1 0x1F NOT PUSH1 0x1F DUP3 ADD AND DUP3 ADD DUP1 PUSH1 0x40 MSTORE POP DUP2 ADD SWAP1 PUSH2 0x2795 SWAP2 SWAP1 PUSH2 0x4B76 JUMP JUMPDEST DUP2 LT ISZERO PUSH2 0x2822 JUMPI DUP2 PUSH1 0x2 DUP2 MLOAD DUP2 LT PUSH2 0x27B0 JUMPI PUSH2 0x27AF PUSH2 0x4BD2 JUMP JUMPDEST JUMPDEST PUSH1 0x20 MUL PUSH1 0x20 ADD ADD MLOAD PUSH2 0x180 ADD MLOAD DUP5 DUP2 MLOAD DUP2 LT PUSH2 0x27CF JUMPI PUSH2 0x27CE PUSH2 0x4BD2 JUMP JUMPDEST JUMPDEST PUSH1 0x20 MUL PUSH1 0x20 ADD ADD MLOAD PUSH1 0x20 ADD MLOAD DUP2 DUP2 MLOAD DUP2 LT PUSH2 0x27ED JUMPI PUSH2 0x27EC PUSH2 0x4BD2 JUMP JUMPDEST JUMPDEST PUSH1 0x20 MUL PUSH1 0x20 ADD ADD MLOAD DUP4 DUP3 PUSH1 0xA DUP2 LT PUSH2 0x2808 JUMPI PUSH2 0x2807 PUSH2 0x4BD2 JUMP JUMPDEST JUMPDEST PUSH1 0x20 MUL ADD DUP2 DUP2 MSTORE POP POP DUP1 PUSH2 0x281B SWAP1 PUSH2 0x4C30 JUMP JUMPDEST SWAP1 POP PUSH2 0x2706 JUMP JUMPDEST POP POP SWAP4 SWAP3 POP POP POP JUMP JUMPDEST PUSH1 0x4 PUSH1 0x20 MSTORE DUP1 PUSH1 0x0 MSTORE PUSH1 0x40 PUSH1 0x0 KECCAK256 PUSH1 0x0 SWAP2 POP SWAP1 POP DUP1 PUSH1 0x0 ADD SLOAD SWAP1 DUP1 PUSH1 0x3 ADD PUSH1 0x0 SWAP1 SLOAD SWAP1 PUSH2 0x100 EXP SWAP1 DIV PUSH1 0xFF AND SWAP1 DUP1 PUSH1 0x4 ADD SLOAD SWAP1 POP DUP4 JUMP JUMPDEST PUSH1 0x1 PUSH1 0x0 SWAP1 SLOAD SWAP1 PUSH2 0x100 EXP SWAP1 DIV PUSH20 0xFFFFFFFFFFFFFFFFFFFFFFFFFFFFFFFFFFFFFFFF AND DUP2 JUMP JUMPDEST PUSH1 0x0 PUSH1 0x4 PUSH1 0x0 DUP4 DUP2 MSTORE PUSH1 0x20 ADD SWAP1 DUP2 MSTORE PUSH1 0x20 ADD PUSH1 0x0 KECCAK256 SWAP1 POP PUSH1 0x8 PUSH1 0xA DUP2 GT ISZERO PUSH2 0x28B3 JUMPI PUSH2 0x28B2 PUSH2 0x47D9 JUMP JUMPDEST JUMPDEST DUP2 PUSH1 0x3 ADD PUSH1 0x0 SWAP1 SLOAD SWAP1 PUSH2 0x100 EXP SWAP1 DIV PUSH1 0xFF AND PUSH1 0xA DUP2 GT ISZERO PUSH2 0x28D7 JUMPI PUSH2 0x28D6 PUSH2 0x47D9 JUMP JUMPDEST JUMPDEST EQ PUSH2 0x2917 JUMPI PUSH1 0x40 MLOAD PUSH32 0x8C379A000000000000000000000000000000000000000000000000000000000 DUP2 MSTORE PUSH1 0x4 ADD PUSH2 0x290E SWAP1 PUSH2 0x4E76 JUMP JUMPDEST PUSH1 0x40 MLOAD DUP1 SWAP2 SUB SWAP1 REVERT JUMPDEST PUSH1 0x0 PUSH1 0x6 PUSH1 0x0 DUP5 DUP2 MSTORE PUSH1 0x20 ADD SWAP1 DUP2 MSTORE PUSH1 0x20 ADD PUSH1 0x0 KECCAK256 SLOAD SWAP1 POP PUSH1 0x0 PUSH2 0x293B DUP5 DUP4 PUSH2 0x96F JUMP JUMPDEST SWAP1 POP PUSH1 0x0 DUP2 PUSH1 0x1 DUP4 MLOAD PUSH2 0x294E SWAP2 SWAP1 PUSH2 0x4CAC JUMP JUMPDEST DUP2 MLOAD DUP2 LT PUSH2 0x295F JUMPI PUSH2 0x295E PUSH2 0x4BD2 JUMP JUMPDEST JUMPDEST PUSH1 0x20 MUL PUSH1 0x20 ADD ADD MLOAD PUSH2 0x180 ADD MLOAD SWAP1 POP PUSH1 0x0 PUSH1 0x8 PUSH1 0x0 DUP8 DUP2 MSTORE PUSH1 0x20 ADD SWAP1 DUP2 MSTORE PUSH1 0x20 ADD PUSH1 0x0 KECCAK256 PUSH1 0x0 PUSH1 0x1 DUP7 PUSH2 0x2992 SWAP2 SWAP1 PUSH2 0x4C78 JUMP JUMPDEST DUP2 MSTORE PUSH1 0x20 ADD SWAP1 DUP2 MSTORE PUSH1 0x20 ADD PUSH1 0x0 KECCAK256 SWAP1 POP PUSH1 0x0 JUMPDEST PUSH1 0x0 DUP1 SLOAD SWAP1 PUSH2 0x100 EXP SWAP1 DIV PUSH20 0xFFFFFFFFFFFFFFFFFFFFFFFFFFFFFFFFFFFFFFFF AND PUSH20 0xFFFFFFFFFFFFFFFFFFFFFFFFFFFFFFFFFFFFFFFF AND PUSH4 0xE3C8BFB9 PUSH1 0x40 MLOAD DUP2 PUSH4 0xFFFFFFFF AND PUSH1 0xE0 SHL DUP2 MSTORE PUSH1 0x4 ADD PUSH1 0x20 PUSH1 0x40 MLOAD DUP1 DUP4 SUB DUP2 DUP7 GAS STATICCALL ISZERO DUP1 ISZERO PUSH2 0x2A10 JUMPI RETURNDATASIZE PUSH1 0x0 DUP1 RETURNDATACOPY RETURNDATASIZE PUSH1 0x0 REVERT JUMPDEST POP POP POP POP PUSH1 0x40 MLOAD RETURNDATASIZE PUSH1 0x1F NOT PUSH1 0x1F DUP3 ADD AND DUP3 ADD DUP1 PUSH1 0x40 MSTORE POP DUP2 ADD SWAP1 PUSH2 0x2A34 SWAP2 SWAP1 PUSH2 0x4B76 JUMP JUMPDEST DUP2 LT ISZERO PUSH2 0x2C8F JUMPI PUSH1 0x0 JUMPDEST PUSH1 0x0 DUP1 SLOAD SWAP1 PUSH2 0x100 EXP SWAP1 DIV PUSH20 0xFFFFFFFFFFFFFFFFFFFFFFFFFFFFFFFFFFFFFFFF AND PUSH20 0xFFFFFFFFFFFFFFFFFFFFFFFFFFFFFFFFFFFFFFFF AND PUSH4 0xAE5C1356 PUSH1 0x40 MLOAD DUP2 PUSH4 0xFFFFFFFF AND PUSH1 0xE0 SHL DUP2 MSTORE PUSH1 0x4 ADD PUSH1 0x20 PUSH1 0x40 MLOAD DUP1 DUP4 SUB DUP2 DUP7 GAS STATICCALL ISZERO DUP1 ISZERO PUSH2 0x2AA9 JUMPI RETURNDATASIZE PUSH1 0x0 DUP1 RETURNDATACOPY RETURNDATASIZE PUSH1 0x0 REVERT JUMPDEST POP POP POP POP PUSH1 0x40 MLOAD RETURNDATASIZE PUSH1 0x1F NOT PUSH1 0x1F DUP3 ADD AND DUP3 ADD DUP1 PUSH1 0x40 MSTORE POP DUP2 ADD SWAP1 PUSH2 0x2ACD SWAP2 SWAP1 PUSH2 0x4B76 JUMP JUMPDEST DUP2 LT ISZERO PUSH2 0x2C7D JUMPI DUP4 DUP3 DUP2 MLOAD DUP2 LT PUSH2 0x2AE7 JUMPI PUSH2 0x2AE6 PUSH2 0x4BD2 JUMP JUMPDEST JUMPDEST PUSH1 0x20 MUL PUSH1 0x20 ADD ADD MLOAD PUSH1 0x0 ADD MLOAD DUP2 DUP2 MLOAD DUP2 LT PUSH2 0x2B05 JUMPI PUSH2 0x2B04 PUSH2 0x4BD2 JUMP JUMPDEST JUMPDEST PUSH1 0x20 MUL PUSH1 0x20 ADD ADD MLOAD DUP4 DUP4 DUP2 SLOAD DUP2 LT PUSH2 0x2B20 JUMPI PUSH2 0x2B1F PUSH2 0x4BD2 JUMP JUMPDEST JUMPDEST SWAP1 PUSH1 0x0 MSTORE PUSH1 0x20 PUSH1 0x0 KECCAK256 SWAP1 PUSH1 0x3 MUL ADD PUSH1 0x0 ADD DUP3 DUP2 SLOAD DUP2 LT PUSH2 0x2B43 JUMPI PUSH2 0x2B42 PUSH2 0x4BD2 JUMP JUMPDEST JUMPDEST SWAP1 PUSH1 0x0 MSTORE PUSH1 0x20 PUSH1 0x0 KECCAK256 SWAP1 PUSH1 0x3 MUL ADD PUSH1 0x0 DUP3 ADD MLOAD DUP2 PUSH1 0x0 ADD SSTORE PUSH1 0x20 DUP3 ADD MLOAD DUP2 PUSH1 0x1 ADD SSTORE PUSH1 0x40 DUP3 ADD MLOAD DUP2 PUSH1 0x2 ADD SSTORE SWAP1 POP POP DUP4 DUP3 DUP2 MLOAD DUP2 LT PUSH2 0x2B85 JUMPI PUSH2 0x2B84 PUSH2 0x4BD2 JUMP JUMPDEST JUMPDEST PUSH1 0x20 MUL PUSH1 0x20 ADD ADD MLOAD PUSH1 0x20 ADD MLOAD DUP2 DUP2 MLOAD DUP2 LT PUSH2 0x2BA3 JUMPI PUSH2 0x2BA2 PUSH2 0x4BD2 JUMP JUMPDEST JUMPDEST PUSH1 0x20 MUL PUSH1 0x20 ADD ADD MLOAD DUP4 DUP4 DUP2 SLOAD DUP2 LT PUSH2 0x2BBE JUMPI PUSH2 0x2BBD PUSH2 0x4BD2 JUMP JUMPDEST JUMPDEST SWAP1 PUSH1 0x0 MSTORE PUSH1 0x20 PUSH1 0x0 KECCAK256 SWAP1 PUSH1 0x3 MUL ADD PUSH1 0x1 ADD DUP3 DUP2 SLOAD DUP2 LT PUSH2 0x2BE1 JUMPI PUSH2 0x2BE0 PUSH2 0x4BD2 JUMP JUMPDEST JUMPDEST SWAP1 PUSH1 0x0 MSTORE PUSH1 0x20 PUSH1 0x0 KECCAK256 ADD DUP2 SWAP1 SSTORE POP DUP4 DUP3 DUP2 MLOAD DUP2 LT PUSH2 0x2C02 JUMPI PUSH2 0x2C01 PUSH2 0x4BD2 JUMP JUMPDEST JUMPDEST PUSH1 0x20 MUL PUSH1 0x20 ADD ADD MLOAD PUSH1 0x40 ADD MLOAD DUP2 DUP2 MLOAD DUP2 LT PUSH2 0x2C20 JUMPI PUSH2 0x2C1F PUSH2 0x4BD2 JUMP JUMPDEST JUMPDEST PUSH1 0x20 MUL PUSH1 0x20 ADD ADD MLOAD DUP4 DUP4 DUP2 SLOAD DUP2 LT PUSH2 0x2C3B JUMPI PUSH2 0x2C3A PUSH2 0x4BD2 JUMP JUMPDEST JUMPDEST SWAP1 PUSH1 0x0 MSTORE PUSH1 0x20 PUSH1 0x0 KECCAK256 SWAP1 PUSH1 0x3 MUL ADD PUSH1 0x2 ADD DUP3 DUP2 SLOAD DUP2 LT PUSH2 0x2C5E JUMPI PUSH2 0x2C5D PUSH2 0x4BD2 JUMP JUMPDEST JUMPDEST SWAP1 PUSH1 0x0 MSTORE PUSH1 0x20 PUSH1 0x0 KECCAK256 ADD DUP2 SWAP1 SSTORE POP DUP1 PUSH2 0x2C76 SWAP1 PUSH2 0x4C30 JUMP JUMPDEST SWAP1 POP PUSH2 0x2A3E JUMP JUMPDEST POP DUP1 PUSH2 0x2C88 SWAP1 PUSH2 0x4C30 JUMP JUMPDEST SWAP1 POP PUSH2 0x29A5 JUMP JUMPDEST POP PUSH1 0x1 PUSH1 0x6 PUSH1 0x0 DUP9 DUP2 MSTORE PUSH1 0x20 ADD SWAP1 DUP2 MSTORE PUSH1 0x20 ADD PUSH1 0x0 KECCAK256 PUSH1 0x0 DUP3 DUP3 SLOAD PUSH2 0x2CB4 SWAP2 SWAP1 PUSH2 0x4C78 JUMP JUMPDEST SWAP3 POP POP DUP2 SWAP1 SSTORE POP PUSH1 0x9 DUP6 PUSH1 0x3 ADD PUSH1 0x0 PUSH2 0x100 EXP DUP2 SLOAD DUP2 PUSH1 0xFF MUL NOT AND SWAP1 DUP4 PUSH1 0xA DUP2 GT ISZERO PUSH2 0x2CE3 JUMPI PUSH2 0x2CE2 PUSH2 0x47D9 JUMP JUMPDEST JUMPDEST MUL OR SWAP1 SSTORE POP PUSH32 0x58D4562CF15D1052E816FD24F6AF2C8A3A21416D6E4C01A9E11EF84FFE537E25 DUP7 DUP7 PUSH1 0x3 ADD PUSH1 0x0 SWAP1 SLOAD SWAP1 PUSH2 0x100 EXP SWAP1 DIV PUSH1 0xFF AND PUSH1 0x40 MLOAD PUSH2 0x2D2A SWAP3 SWAP2 SWAP1 PUSH2 0x4E96 JUMP JUMPDEST PUSH1 0x40 MLOAD DUP1 SWAP2 SUB SWAP1 LOG1 POP POP POP POP POP POP JUMP JUMPDEST PUSH1 0x0 DUP1 PUSH1 0xA PUSH1 0x0 SWAP1 SLOAD SWAP1 PUSH2 0x100 EXP SWAP1 DIV PUSH20 0xFFFFFFFFFFFFFFFFFFFFFFFFFFFFFFFFFFFFFFFF AND PUSH20 0xFFFFFFFFFFFFFFFFFFFFFFFFFFFFFFFFFFFFFFFF AND DUP4 PUSH1 0x40 MLOAD PUSH1 0x24 ADD PUSH2 0x2D87 SWAP2 SWAP1 PUSH2 0x3EB1 JUMP JUMPDEST PUSH1 0x40 MLOAD PUSH1 0x20 DUP2 DUP4 SUB SUB DUP2 MSTORE SWAP1 PUSH1 0x40 MSTORE PUSH32 0xF978103300000000000000000000000000000000000000000000000000000000 PUSH28 0xFFFFFFFFFFFFFFFFFFFFFFFFFFFFFFFFFFFFFFFFFFFFFFFFFFFFFFFF NOT AND PUSH1 0x20 DUP3 ADD DUP1 MLOAD PUSH28 0xFFFFFFFFFFFFFFFFFFFFFFFFFFFFFFFFFFFFFFFFFFFFFFFFFFFFFFFF DUP4 DUP2 DUP4 AND OR DUP4 MSTORE POP POP POP POP PUSH1 0x40 MLOAD PUSH2 0x2E11 SWAP2 SWAP1 PUSH2 0x494C JUMP JUMPDEST PUSH1 0x0 PUSH1 0x40 MLOAD DUP1 DUP4 SUB DUP2 DUP6 GAS DELEGATECALL SWAP2 POP POP RETURNDATASIZE DUP1 PUSH1 0x0 DUP2 EQ PUSH2 0x2E4C JUMPI PUSH1 0x40 MLOAD SWAP2 POP PUSH1 0x1F NOT PUSH1 0x3F RETURNDATASIZE ADD AND DUP3 ADD PUSH1 0x40 MSTORE RETURNDATASIZE DUP3 MSTORE RETURNDATASIZE PUSH1 0x0 PUSH1 0x20 DUP5 ADD RETURNDATACOPY PUSH2 0x2E51 JUMP JUMPDEST PUSH1 0x60 SWAP2 POP JUMPDEST POP SWAP2 POP SWAP2 POP DUP2 PUSH2 0x2E96 JUMPI PUSH1 0x40 MLOAD PUSH32 0x8C379A000000000000000000000000000000000000000000000000000000000 DUP2 MSTORE PUSH1 0x4 ADD PUSH2 0x2E8D SWAP1 PUSH2 0x4F31 JUMP JUMPDEST PUSH1 0x40 MLOAD DUP1 SWAP2 SUB SWAP1 REVERT JUMPDEST POP POP POP JUMP JUMPDEST PUSH2 0x2EA3 PUSH2 0x3DE6 JUMP JUMPDEST PUSH1 0x0 DUP3 PUSH2 0x180 ADD MLOAD DUP4 PUSH1 0x40 ADD MLOAD DUP2 MLOAD DUP2 LT PUSH2 0x2EC1 JUMPI PUSH2 0x2EC0 PUSH2 0x4BD2 JUMP JUMPDEST JUMPDEST PUSH1 0x20 MUL PUSH1 0x20 ADD ADD MLOAD SWAP1 POP DUP1 PUSH1 0x20 ADD MLOAD DUP4 PUSH1 0x60 ADD MLOAD DUP2 MLOAD DUP2 LT PUSH2 0x2EE6 JUMPI PUSH2 0x2EE5 PUSH2 0x4BD2 JUMP JUMPDEST JUMPDEST PUSH1 0x20 MUL PUSH1 0x20 ADD ADD MLOAD DUP4 PUSH2 0x100 ADD DUP2 DUP2 MSTORE POP POP DUP1 PUSH1 0x40 ADD MLOAD DUP4 PUSH1 0x60 ADD MLOAD DUP2 MLOAD DUP2 LT PUSH2 0x2F13 JUMPI PUSH2 0x2F12 PUSH2 0x4BD2 JUMP JUMPDEST JUMPDEST PUSH1 0x20 MUL PUSH1 0x20 ADD ADD MLOAD DUP4 PUSH2 0x120 ADD DUP2 DUP2 MSTORE POP POP DUP3 SWAP2 POP POP SWAP2 SWAP1 POP JUMP JUMPDEST PUSH2 0x2F36 PUSH2 0x3DE6 JUMP JUMPDEST PUSH1 0x0 PUSH1 0x40 MLOAD DUP1 PUSH1 0x40 ADD PUSH1 0x40 MSTORE DUP1 DUP10 DUP10 DUP2 MLOAD DUP2 LT PUSH2 0x2F56 JUMPI PUSH2 0x2F55 PUSH2 0x4BD2 JUMP JUMPDEST JUMPDEST PUSH1 0x20 MUL PUSH1 0x20 ADD ADD MLOAD PUSH1 0x40 ADD MLOAD DUP9 DUP2 MLOAD DUP2 LT PUSH2 0x2F74 JUMPI PUSH2 0x2F73 PUSH2 0x4BD2 JUMP JUMPDEST JUMPDEST PUSH1 0x20 MUL PUSH1 0x20 ADD ADD MLOAD DUP2 MSTORE PUSH1 0x20 ADD DUP10 DUP10 DUP2 MLOAD DUP2 LT PUSH2 0x2F94 JUMPI PUSH2 0x2F93 PUSH2 0x4BD2 JUMP JUMPDEST JUMPDEST PUSH1 0x20 MUL PUSH1 0x20 ADD ADD MLOAD PUSH1 0x60 ADD MLOAD DUP9 DUP2 MLOAD DUP2 LT PUSH2 0x2FB2 JUMPI PUSH2 0x2FB1 PUSH2 0x4BD2 JUMP JUMPDEST JUMPDEST PUSH1 0x20 MUL PUSH1 0x20 ADD ADD MLOAD DUP2 MSTORE POP SWAP1 POP PUSH1 0x0 PUSH1 0x40 MLOAD DUP1 PUSH1 0x40 ADD PUSH1 0x40 MSTORE DUP1 DUP12 DUP11 DUP2 MLOAD DUP2 LT PUSH2 0x2FDF JUMPI PUSH2 0x2FDE PUSH2 0x4BD2 JUMP JUMPDEST JUMPDEST PUSH1 0x20 MUL PUSH1 0x20 ADD ADD MLOAD PUSH1 0x20 ADD MLOAD DUP10 DUP2 MLOAD DUP2 LT PUSH2 0x2FFD JUMPI PUSH2 0x2FFC PUSH2 0x4BD2 JUMP JUMPDEST JUMPDEST PUSH1 0x20 MUL PUSH1 0x20 ADD ADD MLOAD DUP2 MSTORE PUSH1 0x20 ADD DUP12 DUP11 DUP2 MLOAD DUP2 LT PUSH2 0x301D JUMPI PUSH2 0x301C PUSH2 0x4BD2 JUMP JUMPDEST JUMPDEST PUSH1 0x20 MUL PUSH1 0x20 ADD ADD MLOAD PUSH1 0x40 ADD MLOAD DUP10 DUP2 MLOAD DUP2 LT PUSH2 0x303B JUMPI PUSH2 0x303A PUSH2 0x4BD2 JUMP JUMPDEST JUMPDEST PUSH1 0x20 MUL PUSH1 0x20 ADD ADD MLOAD DUP2 MSTORE POP SWAP1 POP PUSH1 0x0 PUSH1 0x40 MLOAD DUP1 PUSH1 0x40 ADD PUSH1 0x40 MSTORE DUP1 DUP9 PUSH2 0x180 ADD MLOAD DUP12 DUP2 MLOAD DUP2 LT PUSH2 0x306D JUMPI PUSH2 0x306C PUSH2 0x4BD2 JUMP JUMPDEST JUMPDEST PUSH1 0x20 MUL PUSH1 0x20 ADD ADD MLOAD PUSH1 0x20 ADD MLOAD DUP11 DUP2 MLOAD DUP2 LT PUSH2 0x308B JUMPI PUSH2 0x308A PUSH2 0x4BD2 JUMP JUMPDEST JUMPDEST PUSH1 0x20 MUL PUSH1 0x20 ADD ADD MLOAD DUP2 MSTORE PUSH1 0x20 ADD DUP9 PUSH2 0x180 ADD MLOAD DUP12 DUP2 MLOAD DUP2 LT PUSH2 0x30B0 JUMPI PUSH2 0x30AF PUSH2 0x4BD2 JUMP JUMPDEST JUMPDEST PUSH1 0x20 MUL PUSH1 0x20 ADD ADD MLOAD PUSH1 0x40 ADD MLOAD DUP11 DUP2 MLOAD DUP2 LT PUSH2 0x30CE JUMPI PUSH2 0x30CD PUSH2 0x4BD2 JUMP JUMPDEST JUMPDEST PUSH1 0x20 MUL PUSH1 0x20 ADD ADD MLOAD DUP2 MSTORE POP SWAP1 POP DUP3 PUSH1 0x0 PUSH1 0x2 DUP2 LT PUSH2 0x30EF JUMPI PUSH2 0x30EE PUSH2 0x4BD2 JUMP JUMPDEST JUMPDEST PUSH1 0x20 MUL ADD MLOAD DUP2 PUSH1 0x0 PUSH1 0x2 DUP2 LT PUSH2 0x3108 JUMPI PUSH2 0x3107 PUSH2 0x4BD2 JUMP JUMPDEST JUMPDEST PUSH1 0x20 MUL ADD MLOAD EQ DUP1 ISZERO PUSH2 0x3149 JUMPI POP DUP1 PUSH1 0x1 PUSH1 0x2 DUP2 LT PUSH2 0x3129 JUMPI PUSH2 0x3128 PUSH2 0x4BD2 JUMP JUMPDEST JUMPDEST PUSH1 0x20 MUL ADD MLOAD DUP2 PUSH1 0x1 PUSH1 0x2 DUP2 LT PUSH2 0x3142 JUMPI PUSH2 0x3141 PUSH2 0x4BD2 JUMP JUMPDEST JUMPDEST PUSH1 0x20 MUL ADD MLOAD EQ JUMPDEST ISZERO PUSH2 0x3159 JUMPI DUP6 SWAP4 POP POP POP POP PUSH2 0x391C JUMP JUMPDEST PUSH1 0x0 PUSH1 0x40 MLOAD DUP1 PUSH1 0x40 ADD PUSH1 0x40 MSTORE DUP1 DUP5 PUSH1 0x0 PUSH1 0x2 DUP2 LT PUSH2 0x317A JUMPI PUSH2 0x3179 PUSH2 0x4BD2 JUMP JUMPDEST JUMPDEST PUSH1 0x20 MUL ADD MLOAD DUP7 PUSH1 0x0 PUSH1 0x2 DUP2 LT PUSH2 0x3193 JUMPI PUSH2 0x3192 PUSH2 0x4BD2 JUMP JUMPDEST JUMPDEST PUSH1 0x20 MUL ADD MLOAD PUSH2 0x31A2 SWAP2 SWAP1 PUSH2 0x4F5B JUMP JUMPDEST DUP2 MSTORE PUSH1 0x20 ADD DUP5 PUSH1 0x1 PUSH1 0x2 DUP2 LT PUSH2 0x31BB JUMPI PUSH2 0x31BA PUSH2 0x4BD2 JUMP JUMPDEST JUMPDEST PUSH1 0x20 MUL ADD MLOAD DUP7 PUSH1 0x1 PUSH1 0x2 DUP2 LT PUSH2 0x31D4 JUMPI PUSH2 0x31D3 PUSH2 0x4BD2 JUMP JUMPDEST JUMPDEST PUSH1 0x20 MUL ADD MLOAD PUSH2 0x31E3 SWAP2 SWAP1 PUSH2 0x4F5B JUMP JUMPDEST DUP2 MSTORE POP SWAP1 POP PUSH1 0x0 DUP2 PUSH1 0x1 PUSH1 0x2 DUP2 LT PUSH2 0x31FE JUMPI PUSH2 0x31FD PUSH2 0x4BD2 JUMP JUMPDEST JUMPDEST PUSH1 0x20 MUL ADD MLOAD DUP3 PUSH1 0x1 PUSH1 0x2 DUP2 LT PUSH2 0x3217 JUMPI PUSH2 0x3216 PUSH2 0x4BD2 JUMP JUMPDEST JUMPDEST PUSH1 0x20 MUL ADD MLOAD PUSH2 0x3226 SWAP2 SWAP1 PUSH2 0x4F9E JUMP JUMPDEST DUP3 PUSH1 0x0 PUSH1 0x2 DUP2 LT PUSH2 0x323A JUMPI PUSH2 0x3239 PUSH2 0x4BD2 JUMP JUMPDEST JUMPDEST PUSH1 0x20 MUL ADD MLOAD DUP4 PUSH1 0x0 PUSH1 0x2 DUP2 LT PUSH2 0x3253 JUMPI PUSH2 0x3252 PUSH2 0x4BD2 JUMP JUMPDEST JUMPDEST PUSH1 0x20 MUL ADD MLOAD PUSH2 0x3262 SWAP2 SWAP1 PUSH2 0x4F9E JUMP JUMPDEST PUSH2 0x326C SWAP2 SWAP1 PUSH2 0x5016 JUMP JUMPDEST SWAP1 POP PUSH1 0x0 DUP10 PUSH2 0x180 ADD MLOAD DUP13 DUP2 MLOAD DUP2 LT PUSH2 0x3288 JUMPI PUSH2 0x3287 PUSH2 0x4BD2 JUMP JUMPDEST JUMPDEST PUSH1 0x20 MUL PUSH1 0x20 ADD ADD MLOAD PUSH1 0x0 ADD MLOAD DUP12 DUP2 MLOAD DUP2 LT PUSH2 0x32A6 JUMPI PUSH2 0x32A5 PUSH2 0x4BD2 JUMP JUMPDEST JUMPDEST PUSH1 0x20 MUL PUSH1 0x20 ADD ADD MLOAD SWAP1 POP PUSH1 0x1 ISZERO PUSH2 0x3912 JUMPI PUSH1 0x0 PUSH1 0x40 MLOAD DUP1 PUSH1 0x40 ADD PUSH1 0x40 MSTORE DUP1 PUSH1 0x0 DUP7 PUSH1 0x0 PUSH1 0x2 DUP2 LT PUSH2 0x32DA JUMPI PUSH2 0x32D9 PUSH2 0x4BD2 JUMP JUMPDEST JUMPDEST PUSH1 0x20 MUL ADD MLOAD SGT PUSH2 0x33E1 JUMPI PUSH1 0x0 DUP1 SLOAD SWAP1 PUSH2 0x100 EXP SWAP1 DIV PUSH20 0xFFFFFFFFFFFFFFFFFFFFFFFFFFFFFFFFFFFFFFFF AND PUSH20 0xFFFFFFFFFFFFFFFFFFFFFFFFFFFFFFFFFFFFFFFF AND PUSH4 0x39FEBF0C PUSH1 0x40 MLOAD DUP2 PUSH4 0xFFFFFFFF AND PUSH1 0xE0 SHL DUP2 MSTORE PUSH1 0x4 ADD PUSH1 0x20 PUSH1 0x40 MLOAD DUP1 DUP4 SUB DUP2 DUP7 GAS STATICCALL ISZERO DUP1 ISZERO PUSH2 0x334F JUMPI RETURNDATASIZE PUSH1 0x0 DUP1 RETURNDATACOPY RETURNDATASIZE PUSH1 0x0 REVERT JUMPDEST POP POP POP POP PUSH1 0x40 MLOAD RETURNDATASIZE PUSH1 0x1F NOT PUSH1 0x1F DUP3 ADD AND DUP3 ADD DUP1 PUSH1 0x40 MSTORE POP DUP2 ADD SWAP1 PUSH2 0x3373 SWAP2 SWAP1 PUSH2 0x4B76 JUMP JUMPDEST DUP10 PUSH1 0x0 PUSH1 0x2 DUP2 LT PUSH2 0x3387 JUMPI PUSH2 0x3386 PUSH2 0x4BD2 JUMP JUMPDEST JUMPDEST PUSH1 0x20 MUL ADD MLOAD DUP10 PUSH1 0x0 PUSH1 0x2 DUP2 LT PUSH2 0x33A0 JUMPI PUSH2 0x339F PUSH2 0x4BD2 JUMP JUMPDEST JUMPDEST PUSH1 0x20 MUL ADD MLOAD PUSH2 0x33AF SWAP2 SWAP1 PUSH2 0x4CAC JUMP JUMPDEST PUSH2 0x33B9 SWAP2 SWAP1 PUSH2 0x5089 JUMP JUMPDEST DUP8 PUSH1 0x0 PUSH1 0x2 DUP2 LT PUSH2 0x33CD JUMPI PUSH2 0x33CC PUSH2 0x4BD2 JUMP JUMPDEST JUMPDEST PUSH1 0x20 MUL ADD MLOAD PUSH2 0x33DC SWAP2 SWAP1 PUSH2 0x4CAC JUMP JUMPDEST PUSH2 0x34DA JUMP JUMPDEST PUSH1 0x0 DUP1 SLOAD SWAP1 PUSH2 0x100 EXP SWAP1 DIV PUSH20 0xFFFFFFFFFFFFFFFFFFFFFFFFFFFFFFFFFFFFFFFF AND PUSH20 0xFFFFFFFFFFFFFFFFFFFFFFFFFFFFFFFFFFFFFFFF AND PUSH4 0x39FEBF0C PUSH1 0x40 MLOAD DUP2 PUSH4 0xFFFFFFFF AND PUSH1 0xE0 SHL DUP2 MSTORE PUSH1 0x4 ADD PUSH1 0x20 PUSH1 0x40 MLOAD DUP1 DUP4 SUB DUP2 DUP7 GAS STATICCALL ISZERO DUP1 ISZERO PUSH2 0x344C JUMPI RETURNDATASIZE PUSH1 0x0 DUP1 RETURNDATACOPY RETURNDATASIZE PUSH1 0x0 REVERT JUMPDEST POP POP POP POP PUSH1 0x40 MLOAD RETURNDATASIZE PUSH1 0x1F NOT PUSH1 0x1F DUP3 ADD AND DUP3 ADD DUP1 PUSH1 0x40 MSTORE POP DUP2 ADD SWAP1 PUSH2 0x3470 SWAP2 SWAP1 PUSH2 0x4B76 JUMP JUMPDEST DUP9 PUSH1 0x0 PUSH1 0x2 DUP2 LT PUSH2 0x3484 JUMPI PUSH2 0x3483 PUSH2 0x4BD2 JUMP JUMPDEST JUMPDEST PUSH1 0x20 MUL ADD MLOAD DUP11 PUSH1 0x0 PUSH1 0x2 DUP2 LT PUSH2 0x349D JUMPI PUSH2 0x349C PUSH2 0x4BD2 JUMP JUMPDEST JUMPDEST PUSH1 0x20 MUL ADD MLOAD PUSH2 0x34AC SWAP2 SWAP1 PUSH2 0x4CAC JUMP JUMPDEST PUSH2 0x34B6 SWAP2 SWAP1 PUSH2 0x5089 JUMP JUMPDEST DUP8 PUSH1 0x0 PUSH1 0x2 DUP2 LT PUSH2 0x34CA JUMPI PUSH2 0x34C9 PUSH2 0x4BD2 JUMP JUMPDEST JUMPDEST PUSH1 0x20 MUL ADD MLOAD PUSH2 0x34D9 SWAP2 SWAP1 PUSH2 0x4C78 JUMP JUMPDEST JUMPDEST DUP2 MSTORE PUSH1 0x20 ADD PUSH1 0x0 DUP7 PUSH1 0x1 PUSH1 0x2 DUP2 LT PUSH2 0x34F5 JUMPI PUSH2 0x34F4 PUSH2 0x4BD2 JUMP JUMPDEST JUMPDEST PUSH1 0x20 MUL ADD MLOAD SGT PUSH2 0x35FC JUMPI PUSH1 0x0 DUP1 SLOAD SWAP1 PUSH2 0x100 EXP SWAP1 DIV PUSH20 0xFFFFFFFFFFFFFFFFFFFFFFFFFFFFFFFFFFFFFFFF AND PUSH20 0xFFFFFFFFFFFFFFFFFFFFFFFFFFFFFFFFFFFFFFFF AND PUSH4 0x39FEBF0C PUSH1 0x40 MLOAD DUP2 PUSH4 0xFFFFFFFF AND PUSH1 0xE0 SHL DUP2 MSTORE PUSH1 0x4 ADD PUSH1 0x20 PUSH1 0x40 MLOAD DUP1 DUP4 SUB DUP2 DUP7 GAS STATICCALL ISZERO DUP1 ISZERO PUSH2 0x356A JUMPI RETURNDATASIZE PUSH1 0x0 DUP1 RETURNDATACOPY RETURNDATASIZE PUSH1 0x0 REVERT JUMPDEST POP POP POP POP PUSH1 0x40 MLOAD RETURNDATASIZE PUSH1 0x1F NOT PUSH1 0x1F DUP3 ADD AND DUP3 ADD DUP1 PUSH1 0x40 MSTORE POP DUP2 ADD SWAP1 PUSH2 0x358E SWAP2 SWAP1 PUSH2 0x4B76 JUMP JUMPDEST DUP10 PUSH1 0x1 PUSH1 0x2 DUP2 LT PUSH2 0x35A2 JUMPI PUSH2 0x35A1 PUSH2 0x4BD2 JUMP JUMPDEST JUMPDEST PUSH1 0x20 MUL ADD MLOAD DUP10 PUSH1 0x1 PUSH1 0x2 DUP2 LT PUSH2 0x35BB JUMPI PUSH2 0x35BA PUSH2 0x4BD2 JUMP JUMPDEST JUMPDEST PUSH1 0x20 MUL ADD MLOAD PUSH2 0x35CA SWAP2 SWAP1 PUSH2 0x4CAC JUMP JUMPDEST PUSH2 0x35D4 SWAP2 SWAP1 PUSH2 0x5089 JUMP JUMPDEST DUP8 PUSH1 0x1 PUSH1 0x2 DUP2 LT PUSH2 0x35E8 JUMPI PUSH2 0x35E7 PUSH2 0x4BD2 JUMP JUMPDEST JUMPDEST PUSH1 0x20 MUL ADD MLOAD PUSH2 0x35F7 SWAP2 SWAP1 PUSH2 0x4CAC JUMP JUMPDEST PUSH2 0x36F5 JUMP JUMPDEST PUSH1 0x0 DUP1 SLOAD SWAP1 PUSH2 0x100 EXP SWAP1 DIV PUSH20 0xFFFFFFFFFFFFFFFFFFFFFFFFFFFFFFFFFFFFFFFF AND PUSH20 0xFFFFFFFFFFFFFFFFFFFFFFFFFFFFFFFFFFFFFFFF AND PUSH4 0x39FEBF0C PUSH1 0x40 MLOAD DUP2 PUSH4 0xFFFFFFFF AND PUSH1 0xE0 SHL DUP2 MSTORE PUSH1 0x4 ADD PUSH1 0x20 PUSH1 0x40 MLOAD DUP1 DUP4 SUB DUP2 DUP7 GAS STATICCALL ISZERO DUP1 ISZERO PUSH2 0x3667 JUMPI RETURNDATASIZE PUSH1 0x0 DUP1 RETURNDATACOPY RETURNDATASIZE PUSH1 0x0 REVERT JUMPDEST POP POP POP POP PUSH1 0x40 MLOAD RETURNDATASIZE PUSH1 0x1F NOT PUSH1 0x1F DUP3 ADD AND DUP3 ADD DUP1 PUSH1 0x40 MSTORE POP DUP2 ADD SWAP1 PUSH2 0x368B SWAP2 SWAP1 PUSH2 0x4B76 JUMP JUMPDEST DUP9 PUSH1 0x1 PUSH1 0x2 DUP2 LT PUSH2 0x369F JUMPI PUSH2 0x369E PUSH2 0x4BD2 JUMP JUMPDEST JUMPDEST PUSH1 0x20 MUL ADD MLOAD DUP11 PUSH1 0x1 PUSH1 0x2 DUP2 LT PUSH2 0x36B8 JUMPI PUSH2 0x36B7 PUSH2 0x4BD2 JUMP JUMPDEST JUMPDEST PUSH1 0x20 MUL ADD MLOAD PUSH2 0x36C7 SWAP2 SWAP1 PUSH2 0x4CAC JUMP JUMPDEST PUSH2 0x36D1 SWAP2 SWAP1 PUSH2 0x5089 JUMP JUMPDEST DUP8 PUSH1 0x1 PUSH1 0x2 DUP2 LT PUSH2 0x36E5 JUMPI PUSH2 0x36E4 PUSH2 0x4BD2 JUMP JUMPDEST JUMPDEST PUSH1 0x20 MUL ADD MLOAD PUSH2 0x36F4 SWAP2 SWAP1 PUSH2 0x4C78 JUMP JUMPDEST JUMPDEST DUP2 MSTORE POP SWAP1 POP PUSH1 0x0 DUP1 SLOAD SWAP1 PUSH2 0x100 EXP SWAP1 DIV PUSH20 0xFFFFFFFFFFFFFFFFFFFFFFFFFFFFFFFFFFFFFFFF AND PUSH20 0xFFFFFFFFFFFFFFFFFFFFFFFFFFFFFFFFFFFFFFFF AND PUSH4 0x49BBC37A PUSH1 0x40 MLOAD DUP2 PUSH4 0xFFFFFFFF AND PUSH1 0xE0 SHL DUP2 MSTORE PUSH1 0x4 ADD PUSH1 0x20 PUSH1 0x40 MLOAD DUP1 DUP4 SUB DUP2 DUP7 GAS STATICCALL ISZERO DUP1 ISZERO PUSH2 0x3765 JUMPI RETURNDATASIZE PUSH1 0x0 DUP1 RETURNDATACOPY RETURNDATASIZE PUSH1 0x0 REVERT JUMPDEST POP POP POP POP PUSH1 0x40 MLOAD RETURNDATASIZE PUSH1 0x1F NOT PUSH1 0x1F DUP3 ADD AND DUP3 ADD DUP1 PUSH1 0x40 MSTORE POP DUP2 ADD SWAP1 PUSH2 0x3789 SWAP2 SWAP1 PUSH2 0x4B76 JUMP JUMPDEST DUP2 PUSH1 0x0 PUSH1 0x2 DUP2 LT PUSH2 0x379D JUMPI PUSH2 0x379C PUSH2 0x4BD2 JUMP JUMPDEST JUMPDEST PUSH1 0x20 MUL ADD MLOAD LT DUP1 ISZERO PUSH2 0x3854 JUMPI POP PUSH1 0x0 DUP1 SLOAD SWAP1 PUSH2 0x100 EXP SWAP1 DIV PUSH20 0xFFFFFFFFFFFFFFFFFFFFFFFFFFFFFFFFFFFFFFFF AND PUSH20 0xFFFFFFFFFFFFFFFFFFFFFFFFFFFFFFFFFFFFFFFF AND PUSH4 0x124A96C8 PUSH1 0x40 MLOAD DUP2 PUSH4 0xFFFFFFFF AND PUSH1 0xE0 SHL DUP2 MSTORE PUSH1 0x4 ADD PUSH1 0x20 PUSH1 0x40 MLOAD DUP1 DUP4 SUB DUP2 DUP7 GAS STATICCALL ISZERO DUP1 ISZERO PUSH2 0x3815 JUMPI RETURNDATASIZE PUSH1 0x0 DUP1 RETURNDATACOPY RETURNDATASIZE PUSH1 0x0 REVERT JUMPDEST POP POP POP POP PUSH1 0x40 MLOAD RETURNDATASIZE PUSH1 0x1F NOT PUSH1 0x1F DUP3 ADD AND DUP3 ADD DUP1 PUSH1 0x40 MSTORE POP DUP2 ADD SWAP1 PUSH2 0x3839 SWAP2 SWAP1 PUSH2 0x4B76 JUMP JUMPDEST DUP2 PUSH1 0x0 PUSH1 0x2 DUP2 LT PUSH2 0x384D JUMPI PUSH2 0x384C PUSH2 0x4BD2 JUMP JUMPDEST JUMPDEST PUSH1 0x20 MUL ADD MLOAD LT JUMPDEST ISZERO PUSH2 0x3910 JUMPI DUP1 PUSH1 0x0 PUSH1 0x2 DUP2 LT PUSH2 0x386D JUMPI PUSH2 0x386C PUSH2 0x4BD2 JUMP JUMPDEST JUMPDEST PUSH1 0x20 MUL ADD MLOAD DUP11 PUSH2 0x180 ADD MLOAD DUP15 DUP2 MLOAD DUP2 LT PUSH2 0x388A JUMPI PUSH2 0x3889 PUSH2 0x4BD2 JUMP JUMPDEST JUMPDEST PUSH1 0x20 MUL PUSH1 0x20 ADD ADD MLOAD PUSH1 0x20 ADD MLOAD DUP14 DUP2 MLOAD DUP2 LT PUSH2 0x38A8 JUMPI PUSH2 0x38A7 PUSH2 0x4BD2 JUMP JUMPDEST JUMPDEST PUSH1 0x20 MUL PUSH1 0x20 ADD ADD DUP2 DUP2 MSTORE POP POP DUP1 PUSH1 0x1 PUSH1 0x2 DUP2 LT PUSH2 0x38C8 JUMPI PUSH2 0x38C7 PUSH2 0x4BD2 JUMP JUMPDEST JUMPDEST PUSH1 0x20 MUL ADD MLOAD DUP11 PUSH2 0x180 ADD MLOAD DUP15 DUP2 MLOAD DUP2 LT PUSH2 0x38E5 JUMPI PUSH2 0x38E4 PUSH2 0x4BD2 JUMP JUMPDEST JUMPDEST PUSH1 0x20 MUL PUSH1 0x20 ADD ADD MLOAD PUSH1 0x40 ADD MLOAD DUP14 DUP2 MLOAD DUP2 LT PUSH2 0x3903 JUMPI PUSH2 0x3902 PUSH2 0x4BD2 JUMP JUMPDEST JUMPDEST PUSH1 0x20 MUL PUSH1 0x20 ADD ADD DUP2 DUP2 MSTORE POP POP JUMPDEST POP JUMPDEST DUP9 SWAP7 POP POP POP POP POP POP POP JUMPDEST SWAP8 SWAP7 POP POP POP POP POP POP POP JUMP JUMPDEST PUSH2 0x392F PUSH2 0x3DE6 JUMP JUMPDEST PUSH1 0x0 DUP3 PUSH1 0x40 ADD MLOAD SWAP1 POP PUSH1 0x0 DUP4 PUSH1 0x60 ADD MLOAD SWAP1 POP PUSH1 0x0 DUP3 PUSH1 0x1 PUSH2 0x3950 SWAP2 SWAP1 PUSH2 0x4CAC JUMP JUMPDEST SWAP1 POP PUSH1 0x0 DUP6 PUSH2 0x180 ADD MLOAD DUP5 DUP2 MLOAD DUP2 LT PUSH2 0x396C JUMPI PUSH2 0x396B PUSH2 0x4BD2 JUMP JUMPDEST JUMPDEST PUSH1 0x20 MUL PUSH1 0x20 ADD ADD MLOAD SWAP1 POP PUSH1 0x0 DUP7 PUSH2 0x180 ADD MLOAD DUP4 DUP2 MLOAD DUP2 LT PUSH2 0x3990 JUMPI PUSH2 0x398F PUSH2 0x4BD2 JUMP JUMPDEST JUMPDEST PUSH1 0x20 MUL PUSH1 0x20 ADD ADD MLOAD SWAP1 POP PUSH1 0x0 JUMPDEST PUSH1 0x0 DUP1 SLOAD SWAP1 PUSH2 0x100 EXP SWAP1 DIV PUSH20 0xFFFFFFFFFFFFFFFFFFFFFFFFFFFFFFFFFFFFFFFF AND PUSH20 0xFFFFFFFFFFFFFFFFFFFFFFFFFFFFFFFFFFFFFFFF AND PUSH4 0xAE5C1356 PUSH1 0x40 MLOAD DUP2 PUSH4 0xFFFFFFFF AND PUSH1 0xE0 SHL DUP2 MSTORE PUSH1 0x4 ADD PUSH1 0x20 PUSH1 0x40 MLOAD DUP1 DUP4 SUB DUP2 DUP7 GAS STATICCALL ISZERO DUP1 ISZERO PUSH2 0x3A08 JUMPI RETURNDATASIZE PUSH1 0x0 DUP1 RETURNDATACOPY RETURNDATASIZE PUSH1 0x0 REVERT JUMPDEST POP POP POP POP PUSH1 0x40 MLOAD RETURNDATASIZE PUSH1 0x1F NOT PUSH1 0x1F DUP3 ADD AND DUP3 ADD DUP1 PUSH1 0x40 MSTORE POP DUP2 ADD SWAP1 PUSH2 0x3A2C SWAP2 SWAP1 PUSH2 0x4B76 JUMP JUMPDEST DUP2 LT ISZERO PUSH2 0x3B4C JUMPI PUSH1 0x0 DUP1 SLOAD SWAP1 PUSH2 0x100 EXP SWAP1 DIV PUSH20 0xFFFFFFFFFFFFFFFFFFFFFFFFFFFFFFFFFFFFFFFF AND PUSH20 0xFFFFFFFFFFFFFFFFFFFFFFFFFFFFFFFFFFFFFFFF AND PUSH4 0xC8067B6F PUSH1 0x40 MLOAD DUP2 PUSH4 0xFFFFFFFF AND PUSH1 0xE0 SHL DUP2 MSTORE PUSH1 0x4 ADD PUSH1 0x20 PUSH1 0x40 MLOAD DUP1 DUP4 SUB DUP2 DUP7 GAS STATICCALL ISZERO DUP1 ISZERO PUSH2 0x3A9E JUMPI RETURNDATASIZE PUSH1 0x0 DUP1 RETURNDATACOPY RETURNDATASIZE PUSH1 0x0 REVERT JUMPDEST POP POP POP POP PUSH1 0x40 MLOAD RETURNDATASIZE PUSH1 0x1F NOT PUSH1 0x1F DUP3 ADD AND DUP3 ADD DUP1 PUSH1 0x40 MSTORE POP DUP2 ADD SWAP1 PUSH2 0x3AC2 SWAP2 SWAP1 PUSH2 0x4B76 JUMP JUMPDEST PUSH2 0x3ACF DUP10 DUP9 DUP9 DUP9 DUP7 PUSH2 0x3B6D JUMP JUMPDEST LT ISZERO PUSH2 0x3B3B JUMPI PUSH1 0x0 DUP1 PUSH2 0x3AE9 DUP11 DUP12 PUSH1 0x40 ADD MLOAD DUP10 DUP10 DUP8 PUSH2 0x3CA8 JUMP JUMPDEST SWAP2 POP SWAP2 POP DUP10 PUSH1 0x40 ADD MLOAD DUP3 EQ PUSH2 0x3B38 JUMPI PUSH1 0x1 DUP11 PUSH1 0x80 ADD SWAP1 ISZERO ISZERO SWAP1 DUP2 ISZERO ISZERO DUP2 MSTORE POP POP DUP6 DUP11 PUSH1 0xA0 ADD DUP2 DUP2 MSTORE POP POP DUP1 DUP11 PUSH1 0x60 ADD DUP2 DUP2 MSTORE POP POP DUP8 DUP11 PUSH1 0x0 ADD DUP2 DUP2 MSTORE POP POP DUP7 DUP11 PUSH1 0x20 ADD DUP2 DUP2 MSTORE POP POP POP POP PUSH2 0x3B4C JUMP JUMPDEST POP POP JUMPDEST DUP1 PUSH2 0x3B45 SWAP1 PUSH2 0x4C30 JUMP JUMPDEST SWAP1 POP PUSH2 0x399D JUMP JUMPDEST POP DUP7 SWAP6 POP POP POP POP POP POP SWAP2 SWAP1 POP JUMP JUMPDEST PUSH2 0x3B62 PUSH2 0x3DE6 JUMP JUMPDEST DUP2 SWAP1 POP SWAP5 SWAP4 POP POP POP POP JUMP JUMPDEST PUSH1 0x0 PUSH1 0x2 DUP7 PUSH2 0x180 ADD MLOAD DUP5 DUP2 MLOAD DUP2 LT PUSH2 0x3B89 JUMPI PUSH2 0x3B88 PUSH2 0x4BD2 JUMP JUMPDEST JUMPDEST PUSH1 0x20 MUL PUSH1 0x20 ADD ADD MLOAD PUSH1 0x20 ADD MLOAD DUP4 DUP2 MLOAD DUP2 LT PUSH2 0x3BA7 JUMPI PUSH2 0x3BA6 PUSH2 0x4BD2 JUMP JUMPDEST JUMPDEST PUSH1 0x20 MUL PUSH1 0x20 ADD ADD MLOAD DUP8 PUSH2 0x180 ADD MLOAD DUP8 DUP2 MLOAD DUP2 LT PUSH2 0x3BC7 JUMPI PUSH2 0x3BC6 PUSH2 0x4BD2 JUMP JUMPDEST JUMPDEST PUSH1 0x20 MUL PUSH1 0x20 ADD ADD MLOAD PUSH1 0x20 ADD MLOAD DUP7 DUP2 MLOAD DUP2 LT PUSH2 0x3BE5 JUMPI PUSH2 0x3BE4 PUSH2 0x4BD2 JUMP JUMPDEST JUMPDEST PUSH1 0x20 MUL PUSH1 0x20 ADD ADD MLOAD PUSH2 0x3BF7 SWAP2 SWAP1 PUSH2 0x4F5B JUMP JUMPDEST PUSH2 0x3C01 SWAP2 SWAP1 PUSH2 0x51FA JUMP JUMPDEST PUSH1 0x2 DUP8 PUSH2 0x180 ADD MLOAD DUP6 DUP2 MLOAD DUP2 LT PUSH2 0x3C1B JUMPI PUSH2 0x3C1A PUSH2 0x4BD2 JUMP JUMPDEST JUMPDEST PUSH1 0x20 MUL PUSH1 0x20 ADD ADD MLOAD PUSH1 0x20 ADD MLOAD DUP5 DUP2 MLOAD DUP2 LT PUSH2 0x3C39 JUMPI PUSH2 0x3C38 PUSH2 0x4BD2 JUMP JUMPDEST JUMPDEST PUSH1 0x20 MUL PUSH1 0x20 ADD ADD MLOAD DUP9 PUSH2 0x180 ADD MLOAD DUP9 DUP2 MLOAD DUP2 LT PUSH2 0x3C59 JUMPI PUSH2 0x3C58 PUSH2 0x4BD2 JUMP JUMPDEST JUMPDEST PUSH1 0x20 MUL PUSH1 0x20 ADD ADD MLOAD PUSH1 0x20 ADD MLOAD DUP8 DUP2 MLOAD DUP2 LT PUSH2 0x3C77 JUMPI PUSH2 0x3C76 PUSH2 0x4BD2 JUMP JUMPDEST JUMPDEST PUSH1 0x20 MUL PUSH1 0x20 ADD ADD MLOAD PUSH2 0x3C89 SWAP2 SWAP1 PUSH2 0x4F5B JUMP JUMPDEST PUSH2 0x3C93 SWAP2 SWAP1 PUSH2 0x51FA JUMP JUMPDEST PUSH2 0x3C9D SWAP2 SWAP1 PUSH2 0x4C78 JUMP JUMPDEST SWAP1 POP SWAP6 SWAP5 POP POP POP POP POP JUMP JUMPDEST PUSH1 0x0 DUP1 PUSH1 0x0 DUP8 PUSH2 0x180 ADD MLOAD DUP8 DUP2 MLOAD DUP2 LT PUSH2 0x3CC5 JUMPI PUSH2 0x3CC4 PUSH2 0x4BD2 JUMP JUMPDEST JUMPDEST PUSH1 0x20 MUL PUSH1 0x20 ADD ADD MLOAD PUSH1 0x0 ADD MLOAD DUP7 DUP2 MLOAD DUP2 LT PUSH2 0x3CE3 JUMPI PUSH2 0x3CE2 PUSH2 0x4BD2 JUMP JUMPDEST JUMPDEST PUSH1 0x20 MUL PUSH1 0x20 ADD ADD MLOAD PUSH1 0x20 ADD MLOAD DUP9 PUSH2 0x180 ADD MLOAD DUP9 DUP2 MLOAD DUP2 LT PUSH2 0x3D07 JUMPI PUSH2 0x3D06 PUSH2 0x4BD2 JUMP JUMPDEST JUMPDEST PUSH1 0x20 MUL PUSH1 0x20 ADD ADD MLOAD PUSH1 0x0 ADD MLOAD DUP8 DUP2 MLOAD DUP2 LT PUSH2 0x3D25 JUMPI PUSH2 0x3D24 PUSH2 0x4BD2 JUMP JUMPDEST JUMPDEST PUSH1 0x20 MUL PUSH1 0x20 ADD ADD MLOAD PUSH1 0x20 ADD MLOAD PUSH2 0x3D3B SWAP2 SWAP1 PUSH2 0x4C78 JUMP JUMPDEST SWAP1 POP PUSH1 0x0 PUSH2 0x3D47 PUSH2 0x3DBB JUMP JUMPDEST SWAP1 POP DUP2 DUP2 PUSH2 0x3D55 SWAP2 SWAP1 PUSH2 0x5245 JUMP JUMPDEST DUP10 PUSH2 0x180 ADD MLOAD DUP10 DUP2 MLOAD DUP2 LT PUSH2 0x3D6D JUMPI PUSH2 0x3D6C PUSH2 0x4BD2 JUMP JUMPDEST JUMPDEST PUSH1 0x20 MUL PUSH1 0x20 ADD ADD MLOAD PUSH1 0x0 ADD MLOAD DUP9 DUP2 MLOAD DUP2 LT PUSH2 0x3D8B JUMPI PUSH2 0x3D8A PUSH2 0x4BD2 JUMP JUMPDEST JUMPDEST PUSH1 0x20 MUL PUSH1 0x20 ADD ADD MLOAD PUSH1 0x20 ADD MLOAD LT ISZERO PUSH2 0x3DA8 JUMPI DUP8 SWAP4 POP DUP7 SWAP3 POP PUSH2 0x3DAF JUMP JUMPDEST DUP6 SWAP4 POP DUP5 SWAP3 POP JUMPDEST POP POP SWAP6 POP SWAP6 SWAP4 POP POP POP POP JUMP JUMPDEST PUSH1 0x0 PUSH2 0x515 SWAP1 POP SWAP1 JUMP JUMPDEST PUSH1 0x40 MLOAD DUP1 PUSH1 0x60 ADD PUSH1 0x40 MSTORE DUP1 PUSH1 0x0 DUP2 MSTORE PUSH1 0x20 ADD PUSH1 0x0 DUP2 MSTORE PUSH1 0x20 ADD PUSH1 0x0 DUP2 MSTORE POP SWAP1 JUMP JUMPDEST PUSH1 0x40 MLOAD DUP1 PUSH2 0x1A0 ADD PUSH1 0x40 MSTORE DUP1 PUSH1 0x0 DUP2 MSTORE PUSH1 0x20 ADD PUSH1 0x0 DUP2 MSTORE PUSH1 0x20 ADD PUSH1 0x0 DUP2 MSTORE PUSH1 0x20 ADD PUSH1 0x0 DUP2 MSTORE PUSH1 0x20 ADD PUSH1 0x0 ISZERO ISZERO DUP2 MSTORE PUSH1 0x20 ADD PUSH1 0x0 DUP2 MSTORE PUSH1 0x20 ADD PUSH1 0x0 ISZERO ISZERO DUP2 MSTORE PUSH1 0x20 ADD PUSH1 0x0 DUP2 MSTORE PUSH1 0x20 ADD PUSH1 0x0 DUP2 MSTORE PUSH1 0x20 ADD PUSH1 0x0 DUP2 MSTORE PUSH1 0x20 ADD PUSH1 0x0 ISZERO ISZERO DUP2 MSTORE PUSH1 0x20 ADD PUSH1 0x0 DUP2 MSTORE PUSH1 0x20 ADD PUSH1 0x60 DUP2 MSTORE POP SWAP1 JUMP JUMPDEST PUSH1 0x40 MLOAD DUP1 PUSH1 0x60 ADD PUSH1 0x40 MSTORE DUP1 PUSH1 0x60 DUP2 MSTORE PUSH1 0x20 ADD PUSH1 0x60 DUP2 MSTORE PUSH1 0x20 ADD PUSH1 0x60 DUP2 MSTORE POP SWAP1 JUMP JUMPDEST PUSH1 0x40 MLOAD DUP1 PUSH2 0x140 ADD PUSH1 0x40 MSTORE DUP1 PUSH1 0xA SWAP1 PUSH1 0x20 DUP3 MUL DUP1 CALLDATASIZE DUP4 CALLDATACOPY DUP1 DUP3 ADD SWAP2 POP POP SWAP1 POP POP SWAP1 JUMP JUMPDEST PUSH1 0x0 DUP2 SWAP1 POP SWAP2 SWAP1 POP JUMP JUMPDEST PUSH2 0x3EAB DUP2 PUSH2 0x3E98 JUMP JUMPDEST DUP3 MSTORE POP POP JUMP JUMPDEST PUSH1 0x0 PUSH1 0x20 DUP3 ADD SWAP1 POP PUSH2 0x3EC6 PUSH1 0x0 DUP4 ADD DUP5 PUSH2 0x3EA2 JUMP JUMPDEST SWAP3 SWAP2 POP POP JUMP JUMPDEST PUSH1 0x0 DUP1 REVERT JUMPDEST PUSH2 0x3EDA DUP2 PUSH2 0x3E98 JUMP JUMPDEST DUP2 EQ PUSH2 0x3EE5 JUMPI PUSH1 0x0 DUP1 REVERT JUMPDEST POP JUMP JUMPDEST PUSH1 0x0 DUP2 CALLDATALOAD SWAP1 POP PUSH2 0x3EF7 DUP2 PUSH2 0x3ED1 JUMP JUMPDEST SWAP3 SWAP2 POP POP JUMP JUMPDEST PUSH1 0x0 DUP1 PUSH1 0x0 PUSH1 0x60 DUP5 DUP7 SUB SLT ISZERO PUSH2 0x3F16 JUMPI PUSH2 0x3F15 PUSH2 0x3ECC JUMP JUMPDEST JUMPDEST PUSH1 0x0 PUSH2 0x3F24 DUP7 DUP3 DUP8 ADD PUSH2 0x3EE8 JUMP JUMPDEST SWAP4 POP POP PUSH1 0x20 PUSH2 0x3F35 DUP7 DUP3 DUP8 ADD PUSH2 0x3EE8 JUMP JUMPDEST SWAP3 POP POP PUSH1 0x40 PUSH2 0x3F46 DUP7 DUP3 DUP8 ADD PUSH2 0x3EE8 JUMP JUMPDEST SWAP2 POP POP SWAP3 POP SWAP3 POP SWAP3 JUMP JUMPDEST PUSH1 0x0 DUP2 MLOAD SWAP1 POP SWAP2 SWAP1 POP JUMP JUMPDEST PUSH1 0x0 DUP3 DUP3 MSTORE PUSH1 0x20 DUP3 ADD SWAP1 POP SWAP3 SWAP2 POP POP JUMP JUMPDEST PUSH1 0x0 JUMPDEST DUP4 DUP2 LT ISZERO PUSH2 0x3F8A JUMPI DUP1 DUP3 ADD MLOAD DUP2 DUP5 ADD MSTORE PUSH1 0x20 DUP2 ADD SWAP1 POP PUSH2 0x3F6F JUMP JUMPDEST PUSH1 0x0 DUP5 DUP5 ADD MSTORE POP POP POP POP JUMP JUMPDEST PUSH1 0x0 PUSH1 0x1F NOT PUSH1 0x1F DUP4 ADD AND SWAP1 POP SWAP2 SWAP1 POP JUMP JUMPDEST PUSH1 0x0 PUSH2 0x3FB2 DUP3 PUSH2 0x3F50 JUMP JUMPDEST PUSH2 0x3FBC DUP2 DUP6 PUSH2 0x3F5B JUMP JUMPDEST SWAP4 POP PUSH2 0x3FCC DUP2 DUP6 PUSH1 0x20 DUP7 ADD PUSH2 0x3F6C JUMP JUMPDEST PUSH2 0x3FD5 DUP2 PUSH2 0x3F96 JUMP JUMPDEST DUP5 ADD SWAP2 POP POP SWAP3 SWAP2 POP POP JUMP JUMPDEST PUSH1 0x0 DUP2 ISZERO ISZERO SWAP1 POP SWAP2 SWAP1 POP JUMP JUMPDEST PUSH2 0x3FF5 DUP2 PUSH2 0x3FE0 JUMP JUMPDEST DUP3 MSTORE POP POP JUMP JUMPDEST PUSH1 0x0 PUSH1 0xA0 DUP3 ADD SWAP1 POP DUP2 DUP2 SUB PUSH1 0x0 DUP4 ADD MSTORE PUSH2 0x4015 DUP2 DUP9 PUSH2 0x3FA7 JUMP JUMPDEST SWAP1 POP DUP2 DUP2 SUB PUSH1 0x20 DUP4 ADD MSTORE PUSH2 0x4029 DUP2 DUP8 PUSH2 0x3FA7 JUMP JUMPDEST SWAP1 POP PUSH2 0x4038 PUSH1 0x40 DUP4 ADD DUP7 PUSH2 0x3FEC JUMP JUMPDEST PUSH2 0x4045 PUSH1 0x60 DUP4 ADD DUP6 PUSH2 0x3EA2 JUMP JUMPDEST PUSH2 0x4052 PUSH1 0x80 DUP4 ADD DUP5 PUSH2 0x3FEC JUMP JUMPDEST SWAP7 SWAP6 POP POP POP POP POP POP JUMP JUMPDEST PUSH1 0x0 PUSH20 0xFFFFFFFFFFFFFFFFFFFFFFFFFFFFFFFFFFFFFFFF DUP3 AND SWAP1 POP SWAP2 SWAP1 POP JUMP JUMPDEST PUSH1 0x0 PUSH2 0x4087 DUP3 PUSH2 0x405C JUMP JUMPDEST SWAP1 POP SWAP2 SWAP1 POP JUMP JUMPDEST PUSH2 0x4097 DUP2 PUSH2 0x407C JUMP JUMPDEST DUP2 EQ PUSH2 0x40A2 JUMPI PUSH1 0x0 DUP1 REVERT JUMPDEST POP JUMP JUMPDEST PUSH1 0x0 DUP2 CALLDATALOAD SWAP1 POP PUSH2 0x40B4 DUP2 PUSH2 0x408E JUMP JUMPDEST SWAP3 SWAP2 POP POP JUMP JUMPDEST PUSH1 0x0 DUP1 PUSH1 0x40 DUP4 DUP6 SUB SLT ISZERO PUSH2 0x40D1 JUMPI PUSH2 0x40D0 PUSH2 0x3ECC JUMP JUMPDEST JUMPDEST PUSH1 0x0 PUSH2 0x40DF DUP6 DUP3 DUP7 ADD PUSH2 0x40A5 JUMP JUMPDEST SWAP3 POP POP PUSH1 0x20 PUSH2 0x40F0 DUP6 DUP3 DUP7 ADD PUSH2 0x40A5 JUMP JUMPDEST SWAP2 POP POP SWAP3 POP SWAP3 SWAP1 POP JUMP JUMPDEST PUSH1 0x0 PUSH1 0x20 DUP3 DUP5 SUB SLT ISZERO PUSH2 0x4110 JUMPI PUSH2 0x410F PUSH2 0x3ECC JUMP JUMPDEST JUMPDEST PUSH1 0x0 PUSH2 0x411E DUP5 DUP3 DUP6 ADD PUSH2 0x3EE8 JUMP JUMPDEST SWAP2 POP POP SWAP3 SWAP2 POP POP JUMP JUMPDEST PUSH1 0x0 DUP1 PUSH1 0x0 PUSH1 0x60 DUP5 DUP7 SUB SLT ISZERO PUSH2 0x4140 JUMPI PUSH2 0x413F PUSH2 0x3ECC JUMP JUMPDEST JUMPDEST PUSH1 0x0 PUSH2 0x414E DUP7 DUP3 DUP8 ADD PUSH2 0x3EE8 JUMP JUMPDEST SWAP4 POP POP PUSH1 0x20 PUSH2 0x415F DUP7 DUP3 DUP8 ADD PUSH2 0x40A5 JUMP JUMPDEST SWAP3 POP POP PUSH1 0x40 PUSH2 0x4170 DUP7 DUP3 DUP8 ADD PUSH2 0x40A5 JUMP JUMPDEST SWAP2 POP POP SWAP3 POP SWAP3 POP SWAP3 JUMP JUMPDEST PUSH1 0x0 DUP1 PUSH1 0x40 DUP4 DUP6 SUB SLT ISZERO PUSH2 0x4191 JUMPI PUSH2 0x4190 PUSH2 0x3ECC JUMP JUMPDEST JUMPDEST PUSH1 0x0 PUSH2 0x419F DUP6 DUP3 DUP7 ADD PUSH2 0x3EE8 JUMP JUMPDEST SWAP3 POP POP PUSH1 0x20 PUSH2 0x41B0 DUP6 DUP3 DUP7 ADD PUSH2 0x3EE8 JUMP JUMPDEST SWAP2 POP POP SWAP3 POP SWAP3 SWAP1 POP JUMP JUMPDEST PUSH1 0x0 DUP2 MLOAD SWAP1 POP SWAP2 SWAP1 POP JUMP JUMPDEST PUSH1 0x0 DUP3 DUP3 MSTORE PUSH1 0x20 DUP3 ADD SWAP1 POP SWAP3 SWAP2 POP POP JUMP JUMPDEST PUSH1 0x0 DUP2 SWAP1 POP PUSH1 0x20 DUP3 ADD SWAP1 POP SWAP2 SWAP1 POP JUMP JUMPDEST PUSH2 0x41EF DUP2 PUSH2 0x3E98 JUMP JUMPDEST DUP3 MSTORE POP POP JUMP JUMPDEST PUSH2 0x41FE DUP2 PUSH2 0x3FE0 JUMP JUMPDEST DUP3 MSTORE POP POP JUMP JUMPDEST PUSH1 0x0 DUP2 MLOAD SWAP1 POP SWAP2 SWAP1 POP JUMP JUMPDEST PUSH1 0x0 DUP3 DUP3 MSTORE PUSH1 0x20 DUP3 ADD SWAP1 POP SWAP3 SWAP2 POP POP JUMP JUMPDEST PUSH1 0x0 DUP2 SWAP1 POP PUSH1 0x20 DUP3 ADD SWAP1 POP SWAP2 SWAP1 POP JUMP JUMPDEST PUSH1 0x0 DUP2 MLOAD SWAP1 POP SWAP2 SWAP1 POP JUMP JUMPDEST PUSH1 0x0 DUP3 DUP3 MSTORE PUSH1 0x20 DUP3 ADD SWAP1 POP SWAP3 SWAP2 POP POP JUMP JUMPDEST PUSH1 0x0 DUP2 SWAP1 POP PUSH1 0x20 DUP3 ADD SWAP1 POP SWAP2 SWAP1 POP JUMP JUMPDEST PUSH1 0x60 DUP3 ADD PUSH1 0x0 DUP3 ADD MLOAD PUSH2 0x4272 PUSH1 0x0 DUP6 ADD DUP3 PUSH2 0x41E6 JUMP JUMPDEST POP PUSH1 0x20 DUP3 ADD MLOAD PUSH2 0x4285 PUSH1 0x20 DUP6 ADD DUP3 PUSH2 0x41E6 JUMP JUMPDEST POP PUSH1 0x40 DUP3 ADD MLOAD PUSH2 0x4298 PUSH1 0x40 DUP6 ADD DUP3 PUSH2 0x41E6 JUMP JUMPDEST POP POP POP POP JUMP JUMPDEST PUSH1 0x0 PUSH2 0x42AA DUP4 DUP4 PUSH2 0x425C JUMP JUMPDEST PUSH1 0x60 DUP4 ADD SWAP1 POP SWAP3 SWAP2 POP POP JUMP JUMPDEST PUSH1 0x0 PUSH1 0x20 DUP3 ADD SWAP1 POP SWAP2 SWAP1 POP JUMP JUMPDEST PUSH1 0x0 PUSH2 0x42CE DUP3 PUSH2 0x4230 JUMP JUMPDEST PUSH2 0x42D8 DUP2 DUP6 PUSH2 0x423B JUMP JUMPDEST SWAP4 POP PUSH2 0x42E3 DUP4 PUSH2 0x424C JUMP JUMPDEST DUP1 PUSH1 0x0 JUMPDEST DUP4 DUP2 LT ISZERO PUSH2 0x4314 JUMPI DUP2 MLOAD PUSH2 0x42FB DUP9 DUP3 PUSH2 0x429E JUMP JUMPDEST SWAP8 POP PUSH2 0x4306 DUP4 PUSH2 0x42B6 JUMP JUMPDEST SWAP3 POP POP PUSH1 0x1 DUP2 ADD SWAP1 POP PUSH2 0x42E7 JUMP JUMPDEST POP DUP6 SWAP4 POP POP POP POP SWAP3 SWAP2 POP POP JUMP JUMPDEST PUSH1 0x0 DUP2 MLOAD SWAP1 POP SWAP2 SWAP1 POP JUMP JUMPDEST PUSH1 0x0 DUP3 DUP3 MSTORE PUSH1 0x20 DUP3 ADD SWAP1 POP SWAP3 SWAP2 POP POP JUMP JUMPDEST PUSH1 0x0 DUP2 SWAP1 POP PUSH1 0x20 DUP3 ADD SWAP1 POP SWAP2 SWAP1 POP JUMP JUMPDEST PUSH1 0x0 PUSH2 0x4359 DUP4 DUP4 PUSH2 0x41E6 JUMP JUMPDEST PUSH1 0x20 DUP4 ADD SWAP1 POP SWAP3 SWAP2 POP POP JUMP JUMPDEST PUSH1 0x0 PUSH1 0x20 DUP3 ADD SWAP1 POP SWAP2 SWAP1 POP JUMP JUMPDEST PUSH1 0x0 PUSH2 0x437D DUP3 PUSH2 0x4321 JUMP JUMPDEST PUSH2 0x4387 DUP2 DUP6 PUSH2 0x432C JUMP JUMPDEST SWAP4 POP PUSH2 0x4392 DUP4 PUSH2 0x433D JUMP JUMPDEST DUP1 PUSH1 0x0 JUMPDEST DUP4 DUP2 LT ISZERO PUSH2 0x43C3 JUMPI DUP2 MLOAD PUSH2 0x43AA DUP9 DUP3 PUSH2 0x434D JUMP JUMPDEST SWAP8 POP PUSH2 0x43B5 DUP4 PUSH2 0x4365 JUMP JUMPDEST SWAP3 POP POP PUSH1 0x1 DUP2 ADD SWAP1 POP PUSH2 0x4396 JUMP JUMPDEST POP DUP6 SWAP4 POP POP POP POP SWAP3 SWAP2 POP POP JUMP JUMPDEST PUSH1 0x0 PUSH1 0x60 DUP4 ADD PUSH1 0x0 DUP4 ADD MLOAD DUP5 DUP3 SUB PUSH1 0x0 DUP7 ADD MSTORE PUSH2 0x43ED DUP3 DUP3 PUSH2 0x42C3 JUMP JUMPDEST SWAP2 POP POP PUSH1 0x20 DUP4 ADD MLOAD DUP5 DUP3 SUB PUSH1 0x20 DUP7 ADD MSTORE PUSH2 0x4407 DUP3 DUP3 PUSH2 0x4372 JUMP JUMPDEST SWAP2 POP POP PUSH1 0x40 DUP4 ADD MLOAD DUP5 DUP3 SUB PUSH1 0x40 DUP7 ADD MSTORE PUSH2 0x4421 DUP3 DUP3 PUSH2 0x4372 JUMP JUMPDEST SWAP2 POP POP DUP1 SWAP2 POP POP SWAP3 SWAP2 POP POP JUMP JUMPDEST PUSH1 0x0 PUSH2 0x443A DUP4 DUP4 PUSH2 0x43D0 JUMP JUMPDEST SWAP1 POP SWAP3 SWAP2 POP POP JUMP JUMPDEST PUSH1 0x0 PUSH1 0x20 DUP3 ADD SWAP1 POP SWAP2 SWAP1 POP JUMP JUMPDEST PUSH1 0x0 PUSH2 0x445A DUP3 PUSH2 0x4204 JUMP JUMPDEST PUSH2 0x4464 DUP2 DUP6 PUSH2 0x420F JUMP JUMPDEST SWAP4 POP DUP4 PUSH1 0x20 DUP3 MUL DUP6 ADD PUSH2 0x4476 DUP6 PUSH2 0x4220 JUMP JUMPDEST DUP1 PUSH1 0x0 JUMPDEST DUP6 DUP2 LT ISZERO PUSH2 0x44B2 JUMPI DUP5 DUP5 SUB DUP10 MSTORE DUP2 MLOAD PUSH2 0x4493 DUP6 DUP3 PUSH2 0x442E JUMP JUMPDEST SWAP5 POP PUSH2 0x449E DUP4 PUSH2 0x4442 JUMP JUMPDEST SWAP3 POP PUSH1 0x20 DUP11 ADD SWAP10 POP POP PUSH1 0x1 DUP2 ADD SWAP1 POP PUSH2 0x447A JUMP JUMPDEST POP DUP3 SWAP8 POP DUP8 SWAP6 POP POP POP POP POP POP SWAP3 SWAP2 POP POP JUMP JUMPDEST PUSH1 0x0 PUSH2 0x1A0 DUP4 ADD PUSH1 0x0 DUP4 ADD MLOAD PUSH2 0x44DD PUSH1 0x0 DUP7 ADD DUP3 PUSH2 0x41E6 JUMP JUMPDEST POP PUSH1 0x20 DUP4 ADD MLOAD PUSH2 0x44F0 PUSH1 0x20 DUP7 ADD DUP3 PUSH2 0x41E6 JUMP JUMPDEST POP PUSH1 0x40 DUP4 ADD MLOAD PUSH2 0x4503 PUSH1 0x40 DUP7 ADD DUP3 PUSH2 0x41E6 JUMP JUMPDEST POP PUSH1 0x60 DUP4 ADD MLOAD PUSH2 0x4516 PUSH1 0x60 DUP7 ADD DUP3 PUSH2 0x41E6 JUMP JUMPDEST POP PUSH1 0x80 DUP4 ADD MLOAD PUSH2 0x4529 PUSH1 0x80 DUP7 ADD DUP3 PUSH2 0x41F5 JUMP JUMPDEST POP PUSH1 0xA0 DUP4 ADD MLOAD PUSH2 0x453C PUSH1 0xA0 DUP7 ADD DUP3 PUSH2 0x41E6 JUMP JUMPDEST POP PUSH1 0xC0 DUP4 ADD MLOAD PUSH2 0x454F PUSH1 0xC0 DUP7 ADD DUP3 PUSH2 0x41F5 JUMP JUMPDEST POP PUSH1 0xE0 DUP4 ADD MLOAD PUSH2 0x4562 PUSH1 0xE0 DUP7 ADD DUP3 PUSH2 0x41E6 JUMP JUMPDEST POP PUSH2 0x100 DUP4 ADD MLOAD PUSH2 0x4577 PUSH2 0x100 DUP7 ADD DUP3 PUSH2 0x41E6 JUMP JUMPDEST POP PUSH2 0x120 DUP4 ADD MLOAD PUSH2 0x458C PUSH2 0x120 DUP7 ADD DUP3 PUSH2 0x41E6 JUMP JUMPDEST POP PUSH2 0x140 DUP4 ADD MLOAD PUSH2 0x45A1 PUSH2 0x140 DUP7 ADD DUP3 PUSH2 0x41F5 JUMP JUMPDEST POP PUSH2 0x160 DUP4 ADD MLOAD PUSH2 0x45B6 PUSH2 0x160 DUP7 ADD DUP3 PUSH2 0x41E6 JUMP JUMPDEST POP PUSH2 0x180 DUP4 ADD MLOAD DUP5 DUP3 SUB PUSH2 0x180 DUP7 ADD MSTORE PUSH2 0x45D0 DUP3 DUP3 PUSH2 0x444F JUMP JUMPDEST SWAP2 POP POP DUP1 SWAP2 POP POP SWAP3 SWAP2 POP POP JUMP JUMPDEST PUSH1 0x0 PUSH2 0x45E9 DUP4 DUP4 PUSH2 0x44C4 JUMP JUMPDEST SWAP1 POP SWAP3 SWAP2 POP POP JUMP JUMPDEST PUSH1 0x0 PUSH1 0x20 DUP3 ADD SWAP1 POP SWAP2 SWAP1 POP JUMP JUMPDEST PUSH1 0x0 PUSH2 0x4609 DUP3 PUSH2 0x41BA JUMP JUMPDEST PUSH2 0x4613 DUP2 DUP6 PUSH2 0x41C5 JUMP JUMPDEST SWAP4 POP DUP4 PUSH1 0x20 DUP3 MUL DUP6 ADD PUSH2 0x4625 DUP6 PUSH2 0x41D6 JUMP JUMPDEST DUP1 PUSH1 0x0 JUMPDEST DUP6 DUP2 LT ISZERO PUSH2 0x4661 JUMPI DUP5 DUP5 SUB DUP10 MSTORE DUP2 MLOAD PUSH2 0x4642 DUP6 DUP3 PUSH2 0x45DD JUMP JUMPDEST SWAP5 POP PUSH2 0x464D DUP4 PUSH2 0x45F1 JUMP JUMPDEST SWAP3 POP PUSH1 0x20 DUP11 ADD SWAP10 POP POP PUSH1 0x1 DUP2 ADD SWAP1 POP PUSH2 0x4629 JUMP JUMPDEST POP DUP3 SWAP8 POP DUP8 SWAP6 POP POP POP POP POP POP SWAP3 SWAP2 POP POP JUMP JUMPDEST PUSH1 0x0 PUSH1 0x20 DUP3 ADD SWAP1 POP DUP2 DUP2 SUB PUSH1 0x0 DUP4 ADD MSTORE PUSH2 0x468D DUP2 DUP5 PUSH2 0x45FE JUMP JUMPDEST SWAP1 POP SWAP3 SWAP2 POP POP JUMP JUMPDEST PUSH2 0x469E DUP2 PUSH2 0x407C JUMP JUMPDEST DUP3 MSTORE POP POP JUMP JUMPDEST PUSH1 0x0 PUSH1 0x20 DUP3 ADD SWAP1 POP PUSH2 0x46B9 PUSH1 0x0 DUP4 ADD DUP5 PUSH2 0x4695 JUMP JUMPDEST SWAP3 SWAP2 POP POP JUMP JUMPDEST PUSH1 0x0 DUP2 SWAP1 POP SWAP2 SWAP1 POP JUMP JUMPDEST PUSH1 0x0 PUSH2 0x46E4 PUSH2 0x46DF PUSH2 0x46DA DUP5 PUSH2 0x405C JUMP JUMPDEST PUSH2 0x46BF JUMP JUMPDEST PUSH2 0x405C JUMP JUMPDEST SWAP1 POP SWAP2 SWAP1 POP JUMP JUMPDEST PUSH1 0x0 PUSH2 0x46F6 DUP3 PUSH2 0x46C9 JUMP JUMPDEST SWAP1 POP SWAP2 SWAP1 POP JUMP JUMPDEST PUSH1 0x0 PUSH2 0x4708 DUP3 PUSH2 0x46EB JUMP JUMPDEST SWAP1 POP SWAP2 SWAP1 POP JUMP JUMPDEST PUSH2 0x4718 DUP2 PUSH2 0x46FD JUMP JUMPDEST DUP3 MSTORE POP POP JUMP JUMPDEST PUSH1 0x0 PUSH1 0x20 DUP3 ADD SWAP1 POP PUSH2 0x4733 PUSH1 0x0 DUP4 ADD DUP5 PUSH2 0x470F JUMP JUMPDEST SWAP3 SWAP2 POP POP JUMP JUMPDEST PUSH1 0x0 PUSH1 0xA SWAP1 POP SWAP2 SWAP1 POP JUMP JUMPDEST PUSH1 0x0 DUP2 SWAP1 POP SWAP3 SWAP2 POP POP JUMP JUMPDEST PUSH1 0x0 DUP2 SWAP1 POP SWAP2 SWAP1 POP JUMP JUMPDEST PUSH1 0x0 PUSH1 0x20 DUP3 ADD SWAP1 POP SWAP2 SWAP1 POP JUMP JUMPDEST PUSH2 0x476F DUP2 PUSH2 0x4739 JUMP JUMPDEST PUSH2 0x4779 DUP2 DUP5 PUSH2 0x4744 JUMP JUMPDEST SWAP3 POP PUSH2 0x4784 DUP3 PUSH2 0x474F JUMP JUMPDEST DUP1 PUSH1 0x0 JUMPDEST DUP4 DUP2 LT ISZERO PUSH2 0x47B5 JUMPI DUP2 MLOAD PUSH2 0x479C DUP8 DUP3 PUSH2 0x434D JUMP JUMPDEST SWAP7 POP PUSH2 0x47A7 DUP4 PUSH2 0x4759 JUMP JUMPDEST SWAP3 POP POP PUSH1 0x1 DUP2 ADD SWAP1 POP PUSH2 0x4788 JUMP JUMPDEST POP POP POP POP POP POP JUMP JUMPDEST PUSH1 0x0 PUSH2 0x140 DUP3 ADD SWAP1 POP PUSH2 0x47D3 PUSH1 0x0 DUP4 ADD DUP5 PUSH2 0x4766 JUMP JUMPDEST SWAP3 SWAP2 POP POP JUMP JUMPDEST PUSH32 0x4E487B7100000000000000000000000000000000000000000000000000000000 PUSH1 0x0 MSTORE PUSH1 0x21 PUSH1 0x4 MSTORE PUSH1 0x24 PUSH1 0x0 REVERT JUMPDEST PUSH1 0xB DUP2 LT PUSH2 0x4819 JUMPI PUSH2 0x4818 PUSH2 0x47D9 JUMP JUMPDEST JUMPDEST POP JUMP JUMPDEST PUSH1 0x0 DUP2 SWAP1 POP PUSH2 0x482A DUP3 PUSH2 0x4808 JUMP JUMPDEST SWAP2 SWAP1 POP JUMP JUMPDEST PUSH1 0x0 PUSH2 0x483A DUP3 PUSH2 0x481C JUMP JUMPDEST SWAP1 POP SWAP2 SWAP1 POP JUMP JUMPDEST PUSH2 0x484A DUP2 PUSH2 0x482F JUMP JUMPDEST DUP3 MSTORE POP POP JUMP JUMPDEST PUSH1 0x0 PUSH1 0x60 DUP3 ADD SWAP1 POP PUSH2 0x4865 PUSH1 0x0 DUP4 ADD DUP7 PUSH2 0x3EA2 JUMP JUMPDEST PUSH2 0x4872 PUSH1 0x20 DUP4 ADD DUP6 PUSH2 0x4841 JUMP JUMPDEST PUSH2 0x487F PUSH1 0x40 DUP4 ADD DUP5 PUSH2 0x3EA2 JUMP JUMPDEST SWAP5 SWAP4 POP POP POP POP JUMP JUMPDEST PUSH32 0x4E487B7100000000000000000000000000000000000000000000000000000000 PUSH1 0x0 MSTORE PUSH1 0x22 PUSH1 0x4 MSTORE PUSH1 0x24 PUSH1 0x0 REVERT JUMPDEST PUSH1 0x0 PUSH1 0x2 DUP3 DIV SWAP1 POP PUSH1 0x1 DUP3 AND DUP1 PUSH2 0x48CE JUMPI PUSH1 0x7F DUP3 AND SWAP2 POP JUMPDEST PUSH1 0x20 DUP3 LT DUP2 SUB PUSH2 0x48E1 JUMPI PUSH2 0x48E0 PUSH2 0x4887 JUMP JUMPDEST JUMPDEST POP SWAP2 SWAP1 POP JUMP JUMPDEST PUSH1 0x0 PUSH1 0x40 DUP3 ADD SWAP1 POP PUSH2 0x48FC PUSH1 0x0 DUP4 ADD DUP6 PUSH2 0x4695 JUMP JUMPDEST PUSH2 0x4909 PUSH1 0x20 DUP4 ADD DUP5 PUSH2 0x4695 JUMP JUMPDEST SWAP4 SWAP3 POP POP POP JUMP JUMPDEST PUSH1 0x0 DUP2 SWAP1 POP SWAP3 SWAP2 POP POP JUMP JUMPDEST PUSH1 0x0 PUSH2 0x4926 DUP3 PUSH2 0x3F50 JUMP JUMPDEST PUSH2 0x4930 DUP2 DUP6 PUSH2 0x4910 JUMP JUMPDEST SWAP4 POP PUSH2 0x4940 DUP2 DUP6 PUSH1 0x20 DUP7 ADD PUSH2 0x3F6C JUMP JUMPDEST DUP1 DUP5 ADD SWAP2 POP POP SWAP3 SWAP2 POP POP JUMP JUMPDEST PUSH1 0x0 PUSH2 0x4958 DUP3 DUP5 PUSH2 0x491B JUMP JUMPDEST SWAP2 POP DUP2 SWAP1 POP SWAP3 SWAP2 POP POP JUMP JUMPDEST PUSH1 0x0 DUP3 DUP3 MSTORE PUSH1 0x20 DUP3 ADD SWAP1 POP SWAP3 SWAP2 POP POP JUMP JUMPDEST PUSH32 0x4552523A206372656174654D617463682044656C65676174652063616C6C2066 PUSH1 0x0 DUP3 ADD MSTORE PUSH32 0x61696C6564210000000000000000000000000000000000000000000000000000 PUSH1 0x20 DUP3 ADD MSTORE POP JUMP JUMPDEST PUSH1 0x0 PUSH2 0x49D0 PUSH1 0x26 DUP4 PUSH2 0x4963 JUMP JUMPDEST SWAP2 POP PUSH2 0x49DB DUP3 PUSH2 0x4974 JUMP JUMPDEST PUSH1 0x40 DUP3 ADD SWAP1 POP SWAP2 SWAP1 POP JUMP JUMPDEST PUSH1 0x0 PUSH1 0x20 DUP3 ADD SWAP1 POP DUP2 DUP2 SUB PUSH1 0x0 DUP4 ADD MSTORE PUSH2 0x49FF DUP2 PUSH2 0x49C3 JUMP JUMPDEST SWAP1 POP SWAP2 SWAP1 POP JUMP JUMPDEST PUSH32 0x4552523A2075706461746552657665616C496E666F2044656C65676174652063 PUSH1 0x0 DUP3 ADD MSTORE PUSH32 0x616C6C206661696C656421000000000000000000000000000000000000000000 PUSH1 0x20 DUP3 ADD MSTORE POP JUMP JUMPDEST PUSH1 0x0 PUSH2 0x4A62 PUSH1 0x2B DUP4 PUSH2 0x4963 JUMP JUMPDEST SWAP2 POP PUSH2 0x4A6D DUP3 PUSH2 0x4A06 JUMP JUMPDEST PUSH1 0x40 DUP3 ADD SWAP1 POP SWAP2 SWAP1 POP JUMP JUMPDEST PUSH1 0x0 PUSH1 0x20 DUP3 ADD SWAP1 POP DUP2 DUP2 SUB PUSH1 0x0 DUP4 ADD MSTORE PUSH2 0x4A91 DUP2 PUSH2 0x4A55 JUMP JUMPDEST SWAP1 POP SWAP2 SWAP1 POP JUMP JUMPDEST PUSH1 0x0 PUSH1 0x60 DUP3 ADD SWAP1 POP PUSH2 0x4AAD PUSH1 0x0 DUP4 ADD DUP7 PUSH2 0x3EA2 JUMP JUMPDEST PUSH2 0x4ABA PUSH1 0x20 DUP4 ADD DUP6 PUSH2 0x4695 JUMP JUMPDEST PUSH2 0x4AC7 PUSH1 0x40 DUP4 ADD DUP5 PUSH2 0x4695 JUMP JUMPDEST SWAP5 SWAP4 POP POP POP POP JUMP JUMPDEST PUSH32 0x4552523A206A6F696E4D617463682044656C65676174652063616C6C20666169 PUSH1 0x0 DUP3 ADD MSTORE PUSH32 0x6C65642100000000000000000000000000000000000000000000000000000000 PUSH1 0x20 DUP3 ADD MSTORE POP JUMP JUMPDEST PUSH1 0x0 PUSH2 0x4B2B PUSH1 0x24 DUP4 PUSH2 0x4963 JUMP JUMPDEST SWAP2 POP PUSH2 0x4B36 DUP3 PUSH2 0x4ACF JUMP JUMPDEST PUSH1 0x40 DUP3 ADD SWAP1 POP SWAP2 SWAP1 POP JUMP JUMPDEST PUSH1 0x0 PUSH1 0x20 DUP3 ADD SWAP1 POP DUP2 DUP2 SUB PUSH1 0x0 DUP4 ADD MSTORE PUSH2 0x4B5A DUP2 PUSH2 0x4B1E JUMP JUMPDEST SWAP1 POP SWAP2 SWAP1 POP JUMP JUMPDEST PUSH1 0x0 DUP2 MLOAD SWAP1 POP PUSH2 0x4B70 DUP2 PUSH2 0x3ED1 JUMP JUMPDEST SWAP3 SWAP2 POP POP JUMP JUMPDEST PUSH1 0x0 PUSH1 0x20 DUP3 DUP5 SUB SLT ISZERO PUSH2 0x4B8C JUMPI PUSH2 0x4B8B PUSH2 0x3ECC JUMP JUMPDEST JUMPDEST PUSH1 0x0 PUSH2 0x4B9A DUP5 DUP3 DUP6 ADD PUSH2 0x4B61 JUMP JUMPDEST SWAP2 POP POP SWAP3 SWAP2 POP POP JUMP JUMPDEST PUSH32 0x4E487B7100000000000000000000000000000000000000000000000000000000 PUSH1 0x0 MSTORE PUSH1 0x41 PUSH1 0x4 MSTORE PUSH1 0x24 PUSH1 0x0 REVERT JUMPDEST PUSH32 0x4E487B7100000000000000000000000000000000000000000000000000000000 PUSH1 0x0 MSTORE PUSH1 0x32 PUSH1 0x4 MSTORE PUSH1 0x24 PUSH1 0x0 REVERT JUMPDEST PUSH32 0x4E487B7100000000000000000000000000000000000000000000000000000000 PUSH1 0x0 MSTORE PUSH1 0x11 PUSH1 0x4 MSTORE PUSH1 0x24 PUSH1 0x0 REVERT JUMPDEST PUSH1 0x0 PUSH2 0x4C3B DUP3 PUSH2 0x3E98 JUMP JUMPDEST SWAP2 POP PUSH32 0xFFFFFFFFFFFFFFFFFFFFFFFFFFFFFFFFFFFFFFFFFFFFFFFFFFFFFFFFFFFFFFFF DUP3 SUB PUSH2 0x4C6D JUMPI PUSH2 0x4C6C PUSH2 0x4C01 JUMP JUMPDEST JUMPDEST PUSH1 0x1 DUP3 ADD SWAP1 POP SWAP2 SWAP1 POP JUMP JUMPDEST PUSH1 0x0 PUSH2 0x4C83 DUP3 PUSH2 0x3E98 JUMP JUMPDEST SWAP2 POP PUSH2 0x4C8E DUP4 PUSH2 0x3E98 JUMP JUMPDEST SWAP3 POP DUP3 DUP3 ADD SWAP1 POP DUP1 DUP3 GT ISZERO PUSH2 0x4CA6 JUMPI PUSH2 0x4CA5 PUSH2 0x4C01 JUMP JUMPDEST JUMPDEST SWAP3 SWAP2 POP POP JUMP JUMPDEST PUSH1 0x0 PUSH2 0x4CB7 DUP3 PUSH2 0x3E98 JUMP JUMPDEST SWAP2 POP PUSH2 0x4CC2 DUP4 PUSH2 0x3E98 JUMP JUMPDEST SWAP3 POP DUP3 DUP3 SUB SWAP1 POP DUP2 DUP2 GT ISZERO PUSH2 0x4CDA JUMPI PUSH2 0x4CD9 PUSH2 0x4C01 JUMP JUMPDEST JUMPDEST SWAP3 SWAP2 POP POP JUMP JUMPDEST PUSH32 0x4552523A20636F6D6D69746D656E745469636B2044656C65676174652063616C PUSH1 0x0 DUP3 ADD MSTORE PUSH32 0x6C206661696C6564210000000000000000000000000000000000000000000000 PUSH1 0x20 DUP3 ADD MSTORE POP JUMP JUMPDEST PUSH1 0x0 PUSH2 0x4D3C PUSH1 0x29 DUP4 PUSH2 0x4963 JUMP JUMPDEST SWAP2 POP PUSH2 0x4D47 DUP3 PUSH2 0x4CE0 JUMP JUMPDEST PUSH1 0x40 DUP3 ADD SWAP1 POP SWAP2 SWAP1 POP JUMP JUMPDEST PUSH1 0x0 PUSH1 0x20 DUP3 ADD SWAP1 POP DUP2 DUP2 SUB PUSH1 0x0 DUP4 ADD MSTORE PUSH2 0x4D6B DUP2 PUSH2 0x4D2F JUMP JUMPDEST SWAP1 POP SWAP2 SWAP1 POP JUMP JUMPDEST PUSH32 0x4552523A20757064617465436F6D6D69746D656E74496E666F2044656C656761 PUSH1 0x0 DUP3 ADD MSTORE PUSH32 0x74652063616C6C206661696C6564210000000000000000000000000000000000 PUSH1 0x20 DUP3 ADD MSTORE POP JUMP JUMPDEST PUSH1 0x0 PUSH2 0x4DCE PUSH1 0x2F DUP4 PUSH2 0x4963 JUMP JUMPDEST SWAP2 POP PUSH2 0x4DD9 DUP3 PUSH2 0x4D72 JUMP JUMPDEST PUSH1 0x40 DUP3 ADD SWAP1 POP SWAP2 SWAP1 POP JUMP JUMPDEST PUSH1 0x0 PUSH1 0x20 DUP3 ADD SWAP1 POP DUP2 DUP2 SUB PUSH1 0x0 DUP4 ADD MSTORE PUSH2 0x4DFD DUP2 PUSH2 0x4DC1 JUMP JUMPDEST SWAP1 POP SWAP2 SWAP1 POP JUMP JUMPDEST PUSH32 0x4552523A204D61746368206E6F7420696E20636F727265637420737461676520 PUSH1 0x0 DUP3 ADD MSTORE PUSH32 0x746F20706572666F726D20612053746174652075706461746521000000000000 PUSH1 0x20 DUP3 ADD MSTORE POP JUMP JUMPDEST PUSH1 0x0 PUSH2 0x4E60 PUSH1 0x3A DUP4 PUSH2 0x4963 JUMP JUMPDEST SWAP2 POP PUSH2 0x4E6B DUP3 PUSH2 0x4E04 JUMP JUMPDEST PUSH1 0x40 DUP3 ADD SWAP1 POP SWAP2 SWAP1 POP JUMP JUMPDEST PUSH1 0x0 PUSH1 0x20 DUP3 ADD SWAP1 POP DUP2 DUP2 SUB PUSH1 0x0 DUP4 ADD MSTORE PUSH2 0x4E8F DUP2 PUSH2 0x4E53 JUMP JUMPDEST SWAP1 POP SWAP2 SWAP1 POP JUMP JUMPDEST PUSH1 0x0 PUSH1 0x40 DUP3 ADD SWAP1 POP PUSH2 0x4EAB PUSH1 0x0 DUP4 ADD DUP6 PUSH2 0x3EA2 JUMP JUMPDEST PUSH2 0x4EB8 PUSH1 0x20 DUP4 ADD DUP5 PUSH2 0x4841 JUMP JUMPDEST SWAP4 SWAP3 POP POP POP JUMP JUMPDEST PUSH32 0x4552523A2072657665616C5469636B2044656C65676174652063616C6C206661 PUSH1 0x0 DUP3 ADD MSTORE PUSH32 0x696C656421000000000000000000000000000000000000000000000000000000 PUSH1 0x20 DUP3 ADD MSTORE POP JUMP JUMPDEST PUSH1 0x0 PUSH2 0x4F1B PUSH1 0x25 DUP4 PUSH2 0x4963 JUMP JUMPDEST SWAP2 POP PUSH2 0x4F26 DUP3 PUSH2 0x4EBF JUMP JUMPDEST PUSH1 0x40 DUP3 ADD SWAP1 POP SWAP2 SWAP1 POP JUMP JUMPDEST PUSH1 0x0 PUSH1 0x20 DUP3 ADD SWAP1 POP DUP2 DUP2 SUB PUSH1 0x0 DUP4 ADD MSTORE PUSH2 0x4F4A DUP2 PUSH2 0x4F0E JUMP JUMPDEST SWAP1 POP SWAP2 SWAP1 POP JUMP JUMPDEST PUSH1 0x0 DUP2 SWAP1 POP SWAP2 SWAP1 POP JUMP JUMPDEST PUSH1 0x0 PUSH2 0x4F66 DUP3 PUSH2 0x4F51 JUMP JUMPDEST SWAP2 POP PUSH2 0x4F71 DUP4 PUSH2 0x4F51 JUMP JUMPDEST SWAP3 POP DUP3 DUP3 SUB SWAP1 POP DUP2 DUP2 SLT PUSH1 0x0 DUP5 SLT AND DUP3 DUP3 SGT PUSH1 0x0 DUP6 SLT ISZERO AND OR ISZERO PUSH2 0x4F98 JUMPI PUSH2 0x4F97 PUSH2 0x4C01 JUMP JUMPDEST JUMPDEST SWAP3 SWAP2 POP POP JUMP JUMPDEST PUSH1 0x0 PUSH2 0x4FA9 DUP3 PUSH2 0x4F51 JUMP JUMPDEST SWAP2 POP PUSH2 0x4FB4 DUP4 PUSH2 0x4F51 JUMP JUMPDEST SWAP3 POP DUP3 DUP3 MUL PUSH2 0x4FC2 DUP2 PUSH2 0x4F51 JUMP JUMPDEST SWAP2 POP PUSH32 0x8000000000000000000000000000000000000000000000000000000000000000 DUP5 EQ PUSH1 0x0 DUP5 SLT AND ISZERO PUSH2 0x4FFA JUMPI PUSH2 0x4FF9 PUSH2 0x4C01 JUMP JUMPDEST JUMPDEST DUP3 DUP3 SDIV DUP5 EQ DUP4 ISZERO OR PUSH2 0x500F JUMPI PUSH2 0x500E PUSH2 0x4C01 JUMP JUMPDEST JUMPDEST POP SWAP3 SWAP2 POP POP JUMP JUMPDEST PUSH1 0x0 PUSH2 0x5021 DUP3 PUSH2 0x4F51 JUMP JUMPDEST SWAP2 POP PUSH2 0x502C DUP4 PUSH2 0x4F51 JUMP JUMPDEST SWAP3 POP DUP3 DUP3 ADD SWAP1 POP DUP3 DUP2 SLT ISZERO PUSH1 0x0 DUP4 SLT AND DUP4 DUP3 SLT PUSH1 0x0 DUP5 SLT ISZERO AND OR ISZERO PUSH2 0x5054 JUMPI PUSH2 0x5053 PUSH2 0x4C01 JUMP JUMPDEST JUMPDEST SWAP3 SWAP2 POP POP JUMP JUMPDEST PUSH32 0x4E487B7100000000000000000000000000000000000000000000000000000000 PUSH1 0x0 MSTORE PUSH1 0x12 PUSH1 0x4 MSTORE PUSH1 0x24 PUSH1 0x0 REVERT JUMPDEST PUSH1 0x0 PUSH2 0x5094 DUP3 PUSH2 0x3E98 JUMP JUMPDEST SWAP2 POP PUSH2 0x509F DUP4 PUSH2 0x3E98 JUMP JUMPDEST SWAP3 POP DUP3 PUSH2 0x50AF JUMPI PUSH2 0x50AE PUSH2 0x505A JUMP JUMPDEST JUMPDEST DUP3 DUP3 DIV SWAP1 POP SWAP3 SWAP2 POP POP JUMP JUMPDEST PUSH1 0x0 DUP2 PUSH1 0x1 SHR SWAP1 POP SWAP2 SWAP1 POP JUMP JUMPDEST PUSH1 0x0 DUP1 DUP3 SWAP2 POP DUP4 SWAP1 POP JUMPDEST PUSH1 0x1 DUP6 GT ISZERO PUSH2 0x5111 JUMPI DUP1 DUP7 DIV DUP2 GT ISZERO PUSH2 0x50ED JUMPI PUSH2 0x50EC PUSH2 0x4C01 JUMP JUMPDEST JUMPDEST PUSH1 0x1 DUP6 AND ISZERO PUSH2 0x50FC JUMPI DUP1 DUP3 MUL SWAP2 POP JUMPDEST DUP1 DUP2 MUL SWAP1 POP PUSH2 0x510A DUP6 PUSH2 0x50BA JUMP JUMPDEST SWAP5 POP PUSH2 0x50D1 JUMP JUMPDEST SWAP5 POP SWAP5 SWAP3 POP POP POP JUMP JUMPDEST PUSH1 0x0 DUP3 PUSH2 0x512A JUMPI PUSH1 0x1 SWAP1 POP PUSH2 0x51E6 JUMP JUMPDEST DUP2 PUSH2 0x5138 JUMPI PUSH1 0x0 SWAP1 POP PUSH2 0x51E6 JUMP JUMPDEST DUP2 PUSH1 0x1 DUP2 EQ PUSH2 0x514E JUMPI PUSH1 0x2 DUP2 EQ PUSH2 0x5158 JUMPI PUSH2 0x5187 JUMP JUMPDEST PUSH1 0x1 SWAP2 POP POP PUSH2 0x51E6 JUMP JUMPDEST PUSH1 0xFF DUP5 GT ISZERO PUSH2 0x516A JUMPI PUSH2 0x5169 PUSH2 0x4C01 JUMP JUMPDEST JUMPDEST DUP4 PUSH1 0x2 EXP SWAP2 POP DUP5 DUP3 GT ISZERO PUSH2 0x5181 JUMPI PUSH2 0x5180 PUSH2 0x4C01 JUMP JUMPDEST JUMPDEST POP PUSH2 0x51E6 JUMP JUMPDEST POP PUSH1 0x20 DUP4 LT PUSH2 0x133 DUP4 LT AND PUSH1 0x4E DUP5 LT PUSH1 0xB DUP5 LT AND OR ISZERO PUSH2 0x51BC JUMPI DUP3 DUP3 EXP SWAP1 POP DUP4 DUP2 GT ISZERO PUSH2 0x51B7 JUMPI PUSH2 0x51B6 PUSH2 0x4C01 JUMP JUMPDEST JUMPDEST PUSH2 0x51E6 JUMP JUMPDEST PUSH2 0x51C9 DUP5 DUP5 DUP5 PUSH1 0x1 PUSH2 0x50C7 JUMP JUMPDEST SWAP3 POP SWAP1 POP DUP2 DUP5 DIV DUP2 GT ISZERO PUSH2 0x51E0 JUMPI PUSH2 0x51DF PUSH2 0x4C01 JUMP JUMPDEST JUMPDEST DUP2 DUP2 MUL SWAP1 POP JUMPDEST SWAP4 SWAP3 POP POP POP JUMP JUMPDEST PUSH1 0x0 PUSH1 0xFF DUP3 AND SWAP1 POP SWAP2 SWAP1 POP JUMP JUMPDEST PUSH1 0x0 PUSH2 0x5205 DUP3 PUSH2 0x3E98 JUMP JUMPDEST SWAP2 POP PUSH2 0x5210 DUP4 PUSH2 0x51ED JUMP JUMPDEST SWAP3 POP PUSH2 0x523D PUSH32 0xFFFFFFFFFFFFFFFFFFFFFFFFFFFFFFFFFFFFFFFFFFFFFFFFFFFFFFFFFFFFFFFF DUP5 DUP5 PUSH2 0x511A JUMP JUMPDEST SWAP1 POP SWAP3 SWAP2 POP POP JUMP JUMPDEST PUSH1 0x0 PUSH2 0x5250 DUP3 PUSH2 0x3E98 JUMP JUMPDEST SWAP2 POP PUSH2 0x525B DUP4 PUSH2 0x3E98 JUMP JUMPDEST SWAP3 POP DUP3 PUSH2 0x526B JUMPI PUSH2 0x526A PUSH2 0x505A JUMP JUMPDEST JUMPDEST DUP3 DUP3 MOD SWAP1 POP SWAP3 SWAP2 POP POP JUMP INVALID LOG2 PUSH5 0x6970667358 0x22 SLT KECCAK256 SWAP8 SWAP2 XOR 0xCB LOG1 0xD1 DUP13 0xCC MSTORE PUSH1 0xFB PUSH12 0xAD78718D6CFED4739B5729D7 JUMPDEST DUP2 NOT CHAINID DUP11 SELFBALANCE REVERT RETURN PUSH5 0x736F6C6343 STOP ADDMOD SLT STOP CALLER PUSH1 0x80 PUSH1 0x40 MSTORE CALLVALUE DUP1 ISZERO PUSH2 0x10 JUMPI PUSH1 0x0 DUP1 REVERT JUMPDEST POP PUSH2 0x26D DUP1 PUSH2 0x20 PUSH1 0x0 CODECOPY PUSH1 0x0 RETURN INVALID PUSH1 0x80 PUSH1 0x40 MSTORE CALLVALUE DUP1 ISZERO PUSH2 0x10 JUMPI PUSH1 0x0 DUP1 REVERT JUMPDEST POP PUSH1 0x4 CALLDATASIZE LT PUSH2 0x9E JUMPI PUSH1 0x0 CALLDATALOAD PUSH1 0xE0 SHR DUP1 PUSH4 0x705DD6CD GT PUSH2 0x66 JUMPI DUP1 PUSH4 0x705DD6CD EQ PUSH2 0x139 JUMPI DUP1 PUSH4 0x734692A9 EQ PUSH2 0x157 JUMPI DUP1 PUSH4 0xAE5C1356 EQ PUSH2 0x175 JUMPI DUP1 PUSH4 0xC8067B6F EQ PUSH2 0x193 JUMPI DUP1 PUSH4 0xE3C8BFB9 EQ PUSH2 0x1B1 JUMPI PUSH2 0x9E JUMP JUMPDEST DUP1 PUSH4 0x124A96C8 EQ PUSH2 0xA3 JUMPI DUP1 PUSH4 0x39FEBF0C EQ PUSH2 0xC1 JUMPI DUP1 PUSH4 0x45BAEE55 EQ PUSH2 0xDF JUMPI DUP1 PUSH4 0x49BBC37A EQ PUSH2 0xFD JUMPI DUP1 PUSH4 0x4FFDF11E EQ PUSH2 0x11B JUMPI JUMPDEST PUSH1 0x0 DUP1 REVERT JUMPDEST PUSH2 0xAB PUSH2 0x1CF JUMP JUMPDEST PUSH1 0x40 MLOAD PUSH2 0xB8 SWAP2 SWAP1 PUSH2 0x21C JUMP JUMPDEST PUSH1 0x40 MLOAD DUP1 SWAP2 SUB SWAP1 RETURN JUMPDEST PUSH2 0xC9 PUSH2 0x1D5 JUMP JUMPDEST PUSH1 0x40 MLOAD PUSH2 0xD6 SWAP2 SWAP1 PUSH2 0x21C JUMP JUMPDEST PUSH1 0x40 MLOAD DUP1 SWAP2 SUB SWAP1 RETURN JUMPDEST PUSH2 0xE7 PUSH2 0x1DA JUMP JUMPDEST PUSH1 0x40 MLOAD PUSH2 0xF4 SWAP2 SWAP1 PUSH2 0x21C JUMP JUMPDEST PUSH1 0x40 MLOAD DUP1 SWAP2 SUB SWAP1 RETURN JUMPDEST PUSH2 0x105 PUSH2 0x1DF JUMP JUMPDEST PUSH1 0x40 MLOAD PUSH2 0x112 SWAP2 SWAP1 PUSH2 0x21C JUMP JUMPDEST PUSH1 0x40 MLOAD DUP1 SWAP2 SUB SWAP1 RETURN JUMPDEST PUSH2 0x123 PUSH2 0x1E5 JUMP JUMPDEST PUSH1 0x40 MLOAD PUSH2 0x130 SWAP2 SWAP1 PUSH2 0x21C JUMP JUMPDEST PUSH1 0x40 MLOAD DUP1 SWAP2 SUB SWAP1 RETURN JUMPDEST PUSH2 0x141 PUSH2 0x1EA JUMP JUMPDEST PUSH1 0x40 MLOAD PUSH2 0x14E SWAP2 SWAP1 PUSH2 0x21C JUMP JUMPDEST PUSH1 0x40 MLOAD DUP1 SWAP2 SUB SWAP1 RETURN JUMPDEST PUSH2 0x15F PUSH2 0x1EF JUMP JUMPDEST PUSH1 0x40 MLOAD PUSH2 0x16C SWAP2 SWAP1 PUSH2 0x21C JUMP JUMPDEST PUSH1 0x40 MLOAD DUP1 SWAP2 SUB SWAP1 RETURN JUMPDEST PUSH2 0x17D PUSH2 0x1F4 JUMP JUMPDEST PUSH1 0x40 MLOAD PUSH2 0x18A SWAP2 SWAP1 PUSH2 0x21C JUMP JUMPDEST PUSH1 0x40 MLOAD DUP1 SWAP2 SUB SWAP1 RETURN JUMPDEST PUSH2 0x19B PUSH2 0x1F9 JUMP JUMPDEST PUSH1 0x40 MLOAD PUSH2 0x1A8 SWAP2 SWAP1 PUSH2 0x21C JUMP JUMPDEST PUSH1 0x40 MLOAD DUP1 SWAP2 SUB SWAP1 RETURN JUMPDEST PUSH2 0x1B9 PUSH2 0x1FE JUMP JUMPDEST PUSH1 0x40 MLOAD PUSH2 0x1C6 SWAP2 SWAP1 PUSH2 0x21C JUMP JUMPDEST PUSH1 0x40 MLOAD DUP1 SWAP2 SUB SWAP1 RETURN JUMPDEST PUSH2 0x1F4 DUP2 JUMP JUMPDEST PUSH1 0x5 DUP2 JUMP JUMPDEST PUSH1 0x7 DUP2 JUMP JUMPDEST PUSH2 0x3E8 DUP2 JUMP JUMPDEST PUSH1 0x6 DUP2 JUMP JUMPDEST PUSH1 0xA DUP2 JUMP JUMPDEST PUSH1 0x7 DUP2 JUMP JUMPDEST PUSH1 0xA DUP2 JUMP JUMPDEST PUSH1 0x5 DUP2 JUMP JUMPDEST PUSH1 0x2 DUP2 JUMP JUMPDEST PUSH1 0x0 DUP2 SWAP1 POP SWAP2 SWAP1 POP JUMP JUMPDEST PUSH2 0x216 DUP2 PUSH2 0x203 JUMP JUMPDEST DUP3 MSTORE POP POP JUMP JUMPDEST PUSH1 0x0 PUSH1 0x20 DUP3 ADD SWAP1 POP PUSH2 0x231 PUSH1 0x0 DUP4 ADD DUP5 PUSH2 0x20D JUMP JUMPDEST SWAP3 SWAP2 POP POP JUMP INVALID LOG2 PUSH5 0x6970667358 0x22 SLT KECCAK256 ADD 0xD9 0xD8 PUSH12 0x524B072C82851D2DA1AF5686 ADD 0xB9 SWAP2 0xB5 EXTCODEHASH PUSH26 0xE36A726E5478A595E9964736F6C634300081200336080604052 CALLVALUE DUP1 ISZERO PUSH3 0x11 JUMPI PUSH1 0x0 DUP1 REVERT JUMPDEST POP PUSH1 0x40 MLOAD PUSH3 0x3C14 CODESIZE SUB DUP1 PUSH3 0x3C14 DUP4 CODECOPY DUP2 DUP2 ADD PUSH1 0x40 MSTORE DUP2 ADD SWAP1 PUSH3 0x37 SWAP2 SWAP1 PUSH3 0x162 JUMP JUMPDEST PUSH1 0x40 MLOAD PUSH3 0x45 SWAP1 PUSH3 0xEA JUMP JUMPDEST PUSH1 0x40 MLOAD DUP1 SWAP2 SUB SWAP1 PUSH1 0x0 CREATE DUP1 ISZERO DUP1 ISZERO PUSH3 0x62 JUMPI RETURNDATASIZE PUSH1 0x0 DUP1 RETURNDATACOPY RETURNDATASIZE PUSH1 0x0 REVERT JUMPDEST POP PUSH1 0x0 DUP1 PUSH2 0x100 EXP DUP2 SLOAD DUP2 PUSH20 0xFFFFFFFFFFFFFFFFFFFFFFFFFFFFFFFFFFFFFFFF MUL NOT AND SWAP1 DUP4 PUSH20 0xFFFFFFFFFFFFFFFFFFFFFFFFFFFFFFFFFFFFFFFF AND MUL OR SWAP1 SSTORE POP DUP1 PUSH1 0x1 PUSH1 0x0 PUSH2 0x100 EXP DUP2 SLOAD DUP2 PUSH20 0xFFFFFFFFFFFFFFFFFFFFFFFFFFFFFFFFFFFFFFFF MUL NOT AND SWAP1 DUP4 PUSH20 0xFFFFFFFFFFFFFFFFFFFFFFFFFFFFFFFFFFFFFFFF AND MUL OR SWAP1 SSTORE POP POP PUSH3 0x194 JUMP JUMPDEST PUSH2 0x28D DUP1 PUSH3 0x3987 DUP4 CODECOPY ADD SWAP1 JUMP JUMPDEST PUSH1 0x0 DUP1 REVERT JUMPDEST PUSH1 0x0 PUSH20 0xFFFFFFFFFFFFFFFFFFFFFFFFFFFFFFFFFFFFFFFF DUP3 AND SWAP1 POP SWAP2 SWAP1 POP JUMP JUMPDEST PUSH1 0x0 PUSH3 0x12A DUP3 PUSH3 0xFD JUMP JUMPDEST SWAP1 POP SWAP2 SWAP1 POP JUMP JUMPDEST PUSH3 0x13C DUP2 PUSH3 0x11D JUMP JUMPDEST DUP2 EQ PUSH3 0x148 JUMPI PUSH1 0x0 DUP1 REVERT JUMPDEST POP JUMP JUMPDEST PUSH1 0x0 DUP2 MLOAD SWAP1 POP PUSH3 0x15C DUP2 PUSH3 0x131 JUMP JUMPDEST SWAP3 SWAP2 POP POP JUMP JUMPDEST PUSH1 0x0 PUSH1 0x20 DUP3 DUP5 SUB SLT ISZERO PUSH3 0x17B JUMPI PUSH3 0x17A PUSH3 0xF8 JUMP JUMPDEST JUMPDEST PUSH1 0x0 PUSH3 0x18B DUP5 DUP3 DUP6 ADD PUSH3 0x14B JUMP JUMPDEST SWAP2 POP POP SWAP3 SWAP2 POP POP JUMP JUMPDEST PUSH2 0x37E3 DUP1 PUSH3 0x1A4 PUSH1 0x0 CODECOPY PUSH1 0x0 RETURN INVALID PUSH1 0x80 PUSH1 0x40 MSTORE CALLVALUE DUP1 ISZERO PUSH2 0x10 JUMPI PUSH1 0x0 DUP1 REVERT JUMPDEST POP PUSH1 0x4 CALLDATASIZE LT PUSH2 0xEA JUMPI PUSH1 0x0 CALLDATALOAD PUSH1 0xE0 SHR DUP1 PUSH4 0x72DE5B2F GT PUSH2 0x8C JUMPI DUP1 PUSH4 0x90EDE5D5 GT PUSH2 0x66 JUMPI DUP1 PUSH4 0x90EDE5D5 EQ PUSH2 0x24D JUMPI DUP1 PUSH4 0xD79B490E EQ PUSH2 0x269 JUMPI DUP1 PUSH4 0xD7DFA0DD EQ PUSH2 0x29B JUMPI DUP1 PUSH4 0xF9781033 EQ PUSH2 0x2B9 JUMPI PUSH2 0xEA JUMP JUMPDEST DUP1 PUSH4 0x72DE5B2F EQ PUSH2 0x1E1 JUMPI DUP1 PUSH4 0x755F10FD EQ PUSH2 0x1FF JUMPI DUP1 PUSH4 0x8BA47BDD EQ PUSH2 0x22F JUMPI PUSH2 0xEA JUMP JUMPDEST DUP1 PUSH4 0x27764F7D GT PUSH2 0xC8 JUMPI DUP1 PUSH4 0x27764F7D EQ PUSH2 0x15D JUMPI DUP1 PUSH4 0x35868AB7 EQ PUSH2 0x179 JUMPI DUP1 PUSH4 0x37C74779 EQ PUSH2 0x195 JUMPI DUP1 PUSH4 0x5CD6925A EQ PUSH2 0x1C5 JUMPI PUSH2 0xEA JUMP JUMPDEST DUP1 PUSH4 0x1FD1951 EQ PUSH2 0xEF JUMPI DUP1 PUSH4 0x1B7D40A5 EQ PUSH2 0x10D JUMPI DUP1 PUSH4 0x1E20530A EQ PUSH2 0x141 JUMPI JUMPDEST PUSH1 0x0 DUP1 REVERT JUMPDEST PUSH2 0xF7 PUSH2 0x2D5 JUMP JUMPDEST PUSH1 0x40 MLOAD PUSH2 0x104 SWAP2 SWAP1 PUSH2 0x25F7 JUMP JUMPDEST PUSH1 0x40 MLOAD DUP1 SWAP2 SUB SWAP1 RETURN JUMPDEST PUSH2 0x127 PUSH1 0x4 DUP1 CALLDATASIZE SUB DUP2 ADD SWAP1 PUSH2 0x122 SWAP2 SWAP1 PUSH2 0x2652 JUMP JUMPDEST PUSH2 0x2DB JUMP JUMPDEST PUSH1 0x40 MLOAD PUSH2 0x138 SWAP6 SWAP5 SWAP4 SWAP3 SWAP2 SWAP1 PUSH2 0x2750 JUMP JUMPDEST PUSH1 0x40 MLOAD DUP1 SWAP2 SUB SWAP1 RETURN JUMPDEST PUSH2 0x15B PUSH1 0x4 DUP1 CALLDATASIZE SUB DUP2 ADD SWAP1 PUSH2 0x156 SWAP2 SWAP1 PUSH2 0x280F JUMP JUMPDEST PUSH2 0x465 JUMP JUMPDEST STOP JUMPDEST PUSH2 0x177 PUSH1 0x4 DUP1 CALLDATASIZE SUB DUP2 ADD SWAP1 PUSH2 0x172 SWAP2 SWAP1 PUSH2 0x284F JUMP JUMPDEST PUSH2 0x5E5 JUMP JUMPDEST STOP JUMPDEST PUSH2 0x193 PUSH1 0x4 DUP1 CALLDATASIZE SUB DUP2 ADD SWAP1 PUSH2 0x18E SWAP2 SWAP1 PUSH2 0x287C JUMP JUMPDEST PUSH2 0x9F3 JUMP JUMPDEST STOP JUMPDEST PUSH2 0x1AF PUSH1 0x4 DUP1 CALLDATASIZE SUB DUP2 ADD SWAP1 PUSH2 0x1AA SWAP2 SWAP1 PUSH2 0x284F JUMP JUMPDEST PUSH2 0xBDC JUMP JUMPDEST PUSH1 0x40 MLOAD PUSH2 0x1BC SWAP2 SWAP1 PUSH2 0x25F7 JUMP JUMPDEST PUSH1 0x40 MLOAD DUP1 SWAP2 SUB SWAP1 RETURN JUMPDEST PUSH2 0x1DF PUSH1 0x4 DUP1 CALLDATASIZE SUB DUP2 ADD SWAP1 PUSH2 0x1DA SWAP2 SWAP1 PUSH2 0x284F JUMP JUMPDEST PUSH2 0xBF4 JUMP JUMPDEST STOP JUMPDEST PUSH2 0x1E9 PUSH2 0xF11 JUMP JUMPDEST PUSH1 0x40 MLOAD PUSH2 0x1F6 SWAP2 SWAP1 PUSH2 0x292E JUMP JUMPDEST PUSH1 0x40 MLOAD DUP1 SWAP2 SUB SWAP1 RETURN JUMPDEST PUSH2 0x219 PUSH1 0x4 DUP1 CALLDATASIZE SUB DUP2 ADD SWAP1 PUSH2 0x214 SWAP2 SWAP1 PUSH2 0x284F JUMP JUMPDEST PUSH2 0xF35 JUMP JUMPDEST PUSH1 0x40 MLOAD PUSH2 0x226 SWAP2 SWAP1 PUSH2 0x25F7 JUMP JUMPDEST PUSH1 0x40 MLOAD DUP1 SWAP2 SUB SWAP1 RETURN JUMPDEST PUSH2 0x237 PUSH2 0xF4D JUMP JUMPDEST PUSH1 0x40 MLOAD PUSH2 0x244 SWAP2 SWAP1 PUSH2 0x2958 JUMP JUMPDEST PUSH1 0x40 MLOAD DUP1 SWAP2 SUB SWAP1 RETURN JUMPDEST PUSH2 0x267 PUSH1 0x4 DUP1 CALLDATASIZE SUB DUP2 ADD SWAP1 PUSH2 0x262 SWAP2 SWAP1 PUSH2 0x284F JUMP JUMPDEST PUSH2 0xF73 JUMP JUMPDEST STOP JUMPDEST PUSH2 0x283 PUSH1 0x4 DUP1 CALLDATASIZE SUB DUP2 ADD SWAP1 PUSH2 0x27E SWAP2 SWAP1 PUSH2 0x284F JUMP JUMPDEST PUSH2 0x1381 JUMP JUMPDEST PUSH1 0x40 MLOAD PUSH2 0x292 SWAP4 SWAP3 SWAP2 SWAP1 PUSH2 0x29EA JUMP JUMPDEST PUSH1 0x40 MLOAD DUP1 SWAP2 SUB SWAP1 RETURN JUMPDEST PUSH2 0x2A3 PUSH2 0x13B8 JUMP JUMPDEST PUSH1 0x40 MLOAD PUSH2 0x2B0 SWAP2 SWAP1 PUSH2 0x2958 JUMP JUMPDEST PUSH1 0x40 MLOAD DUP1 SWAP2 SUB SWAP1 RETURN JUMPDEST PUSH2 0x2D3 PUSH1 0x4 DUP1 CALLDATASIZE SUB DUP2 ADD SWAP1 PUSH2 0x2CE SWAP2 SWAP1 PUSH2 0x284F JUMP JUMPDEST PUSH2 0x13DE JUMP JUMPDEST STOP JUMPDEST PUSH1 0x3 SLOAD DUP2 JUMP JUMPDEST PUSH1 0x9 PUSH1 0x20 MSTORE DUP3 PUSH1 0x0 MSTORE PUSH1 0x40 PUSH1 0x0 KECCAK256 PUSH1 0x20 MSTORE DUP2 PUSH1 0x0 MSTORE PUSH1 0x40 PUSH1 0x0 KECCAK256 DUP2 DUP2 SLOAD DUP2 LT PUSH2 0x303 JUMPI PUSH1 0x0 DUP1 REVERT JUMPDEST SWAP1 PUSH1 0x0 MSTORE PUSH1 0x20 PUSH1 0x0 KECCAK256 SWAP1 PUSH1 0x7 MUL ADD PUSH1 0x0 SWAP3 POP SWAP3 POP POP POP DUP1 PUSH1 0x0 ADD DUP1 SLOAD PUSH2 0x328 SWAP1 PUSH2 0x2A50 JUMP JUMPDEST DUP1 PUSH1 0x1F ADD PUSH1 0x20 DUP1 SWAP2 DIV MUL PUSH1 0x20 ADD PUSH1 0x40 MLOAD SWAP1 DUP2 ADD PUSH1 0x40 MSTORE DUP1 SWAP3 SWAP2 SWAP1 DUP2 DUP2 MSTORE PUSH1 0x20 ADD DUP3 DUP1 SLOAD PUSH2 0x354 SWAP1 PUSH2 0x2A50 JUMP JUMPDEST DUP1 ISZERO PUSH2 0x3A1 JUMPI DUP1 PUSH1 0x1F LT PUSH2 0x376 JUMPI PUSH2 0x100 DUP1 DUP4 SLOAD DIV MUL DUP4 MSTORE SWAP2 PUSH1 0x20 ADD SWAP2 PUSH2 0x3A1 JUMP JUMPDEST DUP3 ADD SWAP2 SWAP1 PUSH1 0x0 MSTORE PUSH1 0x20 PUSH1 0x0 KECCAK256 SWAP1 JUMPDEST DUP2 SLOAD DUP2 MSTORE SWAP1 PUSH1 0x1 ADD SWAP1 PUSH1 0x20 ADD DUP1 DUP4 GT PUSH2 0x384 JUMPI DUP3 SWAP1 SUB PUSH1 0x1F AND DUP3 ADD SWAP2 JUMPDEST POP POP POP POP POP SWAP1 DUP1 PUSH1 0x1 ADD DUP1 SLOAD PUSH2 0x3B6 SWAP1 PUSH2 0x2A50 JUMP JUMPDEST DUP1 PUSH1 0x1F ADD PUSH1 0x20 DUP1 SWAP2 DIV MUL PUSH1 0x20 ADD PUSH1 0x40 MLOAD SWAP1 DUP2 ADD PUSH1 0x40 MSTORE DUP1 SWAP3 SWAP2 SWAP1 DUP2 DUP2 MSTORE PUSH1 0x20 ADD DUP3 DUP1 SLOAD PUSH2 0x3E2 SWAP1 PUSH2 0x2A50 JUMP JUMPDEST DUP1 ISZERO PUSH2 0x42F JUMPI DUP1 PUSH1 0x1F LT PUSH2 0x404 JUMPI PUSH2 0x100 DUP1 DUP4 SLOAD DIV MUL DUP4 MSTORE SWAP2 PUSH1 0x20 ADD SWAP2 PUSH2 0x42F JUMP JUMPDEST DUP3 ADD SWAP2 SWAP1 PUSH1 0x0 MSTORE PUSH1 0x20 PUSH1 0x0 KECCAK256 SWAP1 JUMPDEST DUP2 SLOAD DUP2 MSTORE SWAP1 PUSH1 0x1 ADD SWAP1 PUSH1 0x20 ADD DUP1 DUP4 GT PUSH2 0x412 JUMPI DUP3 SWAP1 SUB PUSH1 0x1F AND DUP3 ADD SWAP2 JUMPDEST POP POP POP POP POP SWAP1 DUP1 PUSH1 0x4 ADD PUSH1 0x0 SWAP1 SLOAD SWAP1 PUSH2 0x100 EXP SWAP1 DIV PUSH1 0xFF AND SWAP1 DUP1 PUSH1 0x5 ADD SLOAD SWAP1 DUP1 PUSH1 0x6 ADD PUSH1 0x0 SWAP1 SLOAD SWAP1 PUSH2 0x100 EXP SWAP1 DIV PUSH1 0xFF AND SWAP1 POP DUP6 JUMP JUMPDEST PUSH1 0x0 PUSH1 0x3 SLOAD SWAP1 POP PUSH2 0x477 DUP2 PUSH1 0x0 PUSH2 0x1633 JUMP JUMPDEST PUSH1 0x0 PUSH1 0x4 PUSH1 0x0 DUP4 DUP2 MSTORE PUSH1 0x20 ADD SWAP1 DUP2 MSTORE PUSH1 0x20 ADD PUSH1 0x0 KECCAK256 SWAP1 POP PUSH1 0x1 DUP2 PUSH1 0x3 ADD PUSH1 0x0 PUSH2 0x100 EXP DUP2 SLOAD DUP2 PUSH1 0xFF MUL NOT AND SWAP1 DUP4 PUSH1 0xA DUP2 GT ISZERO PUSH2 0x4B6 JUMPI PUSH2 0x4B5 PUSH2 0x2973 JUMP JUMPDEST JUMPDEST MUL OR SWAP1 SSTORE POP DUP4 DUP2 PUSH1 0x1 ADD PUSH1 0x0 DUP2 SLOAD DUP2 LT PUSH2 0x4D3 JUMPI PUSH2 0x4D2 PUSH2 0x2A81 JUMP JUMPDEST JUMPDEST SWAP1 PUSH1 0x0 MSTORE PUSH1 0x20 PUSH1 0x0 KECCAK256 ADD PUSH1 0x0 PUSH2 0x100 EXP DUP2 SLOAD DUP2 PUSH20 0xFFFFFFFFFFFFFFFFFFFFFFFFFFFFFFFFFFFFFFFF MUL NOT AND SWAP1 DUP4 PUSH20 0xFFFFFFFFFFFFFFFFFFFFFFFFFFFFFFFFFFFFFFFF AND MUL OR SWAP1 SSTORE POP DUP3 DUP2 PUSH1 0x2 ADD PUSH1 0x0 DUP2 SLOAD DUP2 LT PUSH2 0x533 JUMPI PUSH2 0x532 PUSH2 0x2A81 JUMP JUMPDEST JUMPDEST SWAP1 PUSH1 0x0 MSTORE PUSH1 0x20 PUSH1 0x0 KECCAK256 ADD PUSH1 0x0 PUSH2 0x100 EXP DUP2 SLOAD DUP2 PUSH20 0xFFFFFFFFFFFFFFFFFFFFFFFFFFFFFFFFFFFFFFFF MUL NOT AND SWAP1 DUP4 PUSH20 0xFFFFFFFFFFFFFFFFFFFFFFFFFFFFFFFFFFFFFFFF AND MUL OR SWAP1 SSTORE POP PUSH1 0x1 PUSH1 0x3 PUSH1 0x0 DUP3 DUP3 SLOAD PUSH2 0x58E SWAP2 SWAP1 PUSH2 0x2ADF JUMP JUMPDEST SWAP3 POP POP DUP2 SWAP1 SSTORE POP PUSH32 0x58D4562CF15D1052E816FD24F6AF2C8A3A21416D6E4C01A9E11EF84FFE537E25 DUP3 DUP3 PUSH1 0x3 ADD PUSH1 0x0 SWAP1 SLOAD SWAP1 PUSH2 0x100 EXP SWAP1 DIV PUSH1 0xFF AND PUSH1 0x40 MLOAD PUSH2 0x5D7 SWAP3 SWAP2 SWAP1 PUSH2 0x2B13 JUMP JUMPDEST PUSH1 0x40 MLOAD DUP1 SWAP2 SUB SWAP1 LOG1 POP POP POP POP JUMP JUMPDEST PUSH1 0x0 PUSH1 0x4 PUSH1 0x0 DUP4 DUP2 MSTORE PUSH1 0x20 ADD SWAP1 DUP2 MSTORE PUSH1 0x20 ADD PUSH1 0x0 KECCAK256 SWAP1 POP PUSH1 0x7 PUSH1 0xA DUP2 GT ISZERO PUSH2 0x610 JUMPI PUSH2 0x60F PUSH2 0x2973 JUMP JUMPDEST JUMPDEST DUP2 PUSH1 0x3 ADD PUSH1 0x0 SWAP1 SLOAD SWAP1 PUSH2 0x100 EXP SWAP1 DIV PUSH1 0xFF AND PUSH1 0xA DUP2 GT ISZERO PUSH2 0x634 JUMPI PUSH2 0x633 PUSH2 0x2973 JUMP JUMPDEST JUMPDEST EQ PUSH2 0x674 JUMPI PUSH1 0x40 MLOAD PUSH32 0x8C379A000000000000000000000000000000000000000000000000000000000 DUP2 MSTORE PUSH1 0x4 ADD PUSH2 0x66B SWAP1 PUSH2 0x2BBF JUMP JUMPDEST PUSH1 0x40 MLOAD DUP1 SWAP2 SUB SWAP1 REVERT JUMPDEST PUSH1 0x0 JUMPDEST PUSH1 0x0 DUP1 SLOAD SWAP1 PUSH2 0x100 EXP SWAP1 DIV PUSH20 0xFFFFFFFFFFFFFFFFFFFFFFFFFFFFFFFFFFFFFFFF AND PUSH20 0xFFFFFFFFFFFFFFFFFFFFFFFFFFFFFFFFFFFFFFFF AND PUSH4 0xE3C8BFB9 PUSH1 0x40 MLOAD DUP2 PUSH4 0xFFFFFFFF AND PUSH1 0xE0 SHL DUP2 MSTORE PUSH1 0x4 ADD PUSH1 0x20 PUSH1 0x40 MLOAD DUP1 DUP4 SUB DUP2 DUP7 GAS STATICCALL ISZERO DUP1 ISZERO PUSH2 0x6E2 JUMPI RETURNDATASIZE PUSH1 0x0 DUP1 RETURNDATACOPY RETURNDATASIZE PUSH1 0x0 REVERT JUMPDEST POP POP POP POP PUSH1 0x40 MLOAD RETURNDATASIZE PUSH1 0x1F NOT PUSH1 0x1F DUP3 ADD AND DUP3 ADD DUP1 PUSH1 0x40 MSTORE POP DUP2 ADD SWAP1 PUSH2 0x706 SWAP2 SWAP1 PUSH2 0x2BF4 JUMP JUMPDEST DUP2 LT ISZERO PUSH2 0x80C JUMPI DUP2 PUSH1 0x2 ADD DUP2 DUP2 SLOAD DUP2 LT PUSH2 0x723 JUMPI PUSH2 0x722 PUSH2 0x2A81 JUMP JUMPDEST JUMPDEST SWAP1 PUSH1 0x0 MSTORE PUSH1 0x20 PUSH1 0x0 KECCAK256 ADD PUSH1 0x0 SWAP1 SLOAD SWAP1 PUSH2 0x100 EXP SWAP1 DIV PUSH20 0xFFFFFFFFFFFFFFFFFFFFFFFFFFFFFFFFFFFFFFFF AND PUSH20 0xFFFFFFFFFFFFFFFFFFFFFFFFFFFFFFFFFFFFFFFF AND PUSH4 0xCCE71063 PUSH1 0x40 MLOAD DUP2 PUSH4 0xFFFFFFFF AND PUSH1 0xE0 SHL DUP2 MSTORE PUSH1 0x4 ADD PUSH1 0x20 PUSH1 0x40 MLOAD DUP1 DUP4 SUB DUP2 DUP7 GAS STATICCALL ISZERO DUP1 ISZERO PUSH2 0x798 JUMPI RETURNDATASIZE PUSH1 0x0 DUP1 RETURNDATACOPY RETURNDATASIZE PUSH1 0x0 REVERT JUMPDEST POP POP POP POP PUSH1 0x40 MLOAD RETURNDATASIZE PUSH1 0x1F NOT PUSH1 0x1F DUP3 ADD AND DUP3 ADD DUP1 PUSH1 0x40 MSTORE POP DUP2 ADD SWAP1 PUSH2 0x7BC SWAP2 SWAP1 PUSH2 0x2C4D JUMP JUMPDEST PUSH2 0x7FB JUMPI PUSH1 0x40 MLOAD PUSH32 0x8C379A000000000000000000000000000000000000000000000000000000000 DUP2 MSTORE PUSH1 0x4 ADD PUSH2 0x7F2 SWAP1 PUSH2 0x2CEC JUMP JUMPDEST PUSH1 0x40 MLOAD DUP1 SWAP2 SUB SWAP1 REVERT JUMPDEST DUP1 PUSH2 0x805 SWAP1 PUSH2 0x2D0C JUMP JUMPDEST SWAP1 POP PUSH2 0x677 JUMP JUMPDEST POP PUSH1 0x0 JUMPDEST PUSH1 0x0 DUP1 SLOAD SWAP1 PUSH2 0x100 EXP SWAP1 DIV PUSH20 0xFFFFFFFFFFFFFFFFFFFFFFFFFFFFFFFFFFFFFFFF AND PUSH20 0xFFFFFFFFFFFFFFFFFFFFFFFFFFFFFFFFFFFFFFFF AND PUSH4 0xE3C8BFB9 PUSH1 0x40 MLOAD DUP2 PUSH4 0xFFFFFFFF AND PUSH1 0xE0 SHL DUP2 MSTORE PUSH1 0x4 ADD PUSH1 0x20 PUSH1 0x40 MLOAD DUP1 DUP4 SUB DUP2 DUP7 GAS STATICCALL ISZERO DUP1 ISZERO PUSH2 0x87B JUMPI RETURNDATASIZE PUSH1 0x0 DUP1 RETURNDATACOPY RETURNDATASIZE PUSH1 0x0 REVERT JUMPDEST POP POP POP POP PUSH1 0x40 MLOAD RETURNDATASIZE PUSH1 0x1F NOT PUSH1 0x1F DUP3 ADD AND DUP3 ADD DUP1 PUSH1 0x40 MSTORE POP DUP2 ADD SWAP1 PUSH2 0x89F SWAP2 SWAP1 PUSH2 0x2BF4 JUMP JUMPDEST DUP2 LT ISZERO PUSH2 0x977 JUMPI PUSH2 0x966 DUP4 DUP3 DUP5 PUSH1 0x2 ADD DUP5 DUP2 SLOAD DUP2 LT PUSH2 0x8C1 JUMPI PUSH2 0x8C0 PUSH2 0x2A81 JUMP JUMPDEST JUMPDEST SWAP1 PUSH1 0x0 MSTORE PUSH1 0x20 PUSH1 0x0 KECCAK256 ADD PUSH1 0x0 SWAP1 SLOAD SWAP1 PUSH2 0x100 EXP SWAP1 DIV PUSH20 0xFFFFFFFFFFFFFFFFFFFFFFFFFFFFFFFFFFFFFFFF AND PUSH20 0xFFFFFFFFFFFFFFFFFFFFFFFFFFFFFFFFFFFFFFFF AND PUSH4 0x2F703E08 PUSH1 0x40 MLOAD DUP2 PUSH4 0xFFFFFFFF AND PUSH1 0xE0 SHL DUP2 MSTORE PUSH1 0x4 ADD PUSH1 0x0 PUSH1 0x40 MLOAD DUP1 DUP4 SUB DUP2 PUSH1 0x0 DUP8 GAS CALL ISZERO DUP1 ISZERO PUSH2 0x938 JUMPI RETURNDATASIZE PUSH1 0x0 DUP1 RETURNDATACOPY RETURNDATASIZE PUSH1 0x0 REVERT JUMPDEST POP POP POP POP PUSH1 0x40 MLOAD RETURNDATASIZE PUSH1 0x0 DUP3 RETURNDATACOPY RETURNDATASIZE PUSH1 0x1F NOT PUSH1 0x1F DUP3 ADD AND DUP3 ADD DUP1 PUSH1 0x40 MSTORE POP DUP2 ADD SWAP1 PUSH2 0x961 SWAP2 SWAP1 PUSH2 0x2E7A JUMP JUMPDEST PUSH2 0x1B81 JUMP JUMPDEST DUP1 PUSH2 0x970 SWAP1 PUSH2 0x2D0C JUMP JUMPDEST SWAP1 POP PUSH2 0x810 JUMP JUMPDEST POP PUSH1 0x8 DUP2 PUSH1 0x3 ADD PUSH1 0x0 PUSH2 0x100 EXP DUP2 SLOAD DUP2 PUSH1 0xFF MUL NOT AND SWAP1 DUP4 PUSH1 0xA DUP2 GT ISZERO PUSH2 0x9A0 JUMPI PUSH2 0x99F PUSH2 0x2973 JUMP JUMPDEST JUMPDEST MUL OR SWAP1 SSTORE POP PUSH32 0x58D4562CF15D1052E816FD24F6AF2C8A3A21416D6E4C01A9E11EF84FFE537E25 DUP3 DUP3 PUSH1 0x3 ADD PUSH1 0x0 SWAP1 SLOAD SWAP1 PUSH2 0x100 EXP SWAP1 DIV PUSH1 0xFF AND PUSH1 0x40 MLOAD PUSH2 0x9E7 SWAP3 SWAP2 SWAP1 PUSH2 0x2B13 JUMP JUMPDEST PUSH1 0x40 MLOAD DUP1 SWAP2 SUB SWAP1 LOG1 POP POP JUMP JUMPDEST PUSH1 0x0 PUSH1 0x4 PUSH1 0x0 DUP6 DUP2 MSTORE PUSH1 0x20 ADD SWAP1 DUP2 MSTORE PUSH1 0x20 ADD PUSH1 0x0 KECCAK256 SWAP1 POP PUSH1 0x1 PUSH1 0xA DUP2 GT ISZERO PUSH2 0xA1E JUMPI PUSH2 0xA1D PUSH2 0x2973 JUMP JUMPDEST JUMPDEST DUP2 PUSH1 0x3 ADD PUSH1 0x0 SWAP1 SLOAD SWAP1 PUSH2 0x100 EXP SWAP1 DIV PUSH1 0xFF AND PUSH1 0xA DUP2 GT ISZERO PUSH2 0xA42 JUMPI PUSH2 0xA41 PUSH2 0x2973 JUMP JUMPDEST JUMPDEST EQ PUSH2 0xA82 JUMPI PUSH1 0x40 MLOAD PUSH32 0x8C379A000000000000000000000000000000000000000000000000000000000 DUP2 MSTORE PUSH1 0x4 ADD PUSH2 0xA79 SWAP1 PUSH2 0x2F35 JUMP JUMPDEST PUSH1 0x40 MLOAD DUP1 SWAP2 SUB SWAP1 REVERT JUMPDEST DUP3 DUP2 PUSH1 0x1 ADD PUSH1 0x1 DUP2 SLOAD DUP2 LT PUSH2 0xA9A JUMPI PUSH2 0xA99 PUSH2 0x2A81 JUMP JUMPDEST JUMPDEST SWAP1 PUSH1 0x0 MSTORE PUSH1 0x20 PUSH1 0x0 KECCAK256 ADD PUSH1 0x0 PUSH2 0x100 EXP DUP2 SLOAD DUP2 PUSH20 0xFFFFFFFFFFFFFFFFFFFFFFFFFFFFFFFFFFFFFFFF MUL NOT AND SWAP1 DUP4 PUSH20 0xFFFFFFFFFFFFFFFFFFFFFFFFFFFFFFFFFFFFFFFF AND MUL OR SWAP1 SSTORE POP DUP2 DUP2 PUSH1 0x2 ADD PUSH1 0x1 DUP2 SLOAD DUP2 LT PUSH2 0xAFA JUMPI PUSH2 0xAF9 PUSH2 0x2A81 JUMP JUMPDEST JUMPDEST SWAP1 PUSH1 0x0 MSTORE PUSH1 0x20 PUSH1 0x0 KECCAK256 ADD PUSH1 0x0 PUSH2 0x100 EXP DUP2 SLOAD DUP2 PUSH20 0xFFFFFFFFFFFFFFFFFFFFFFFFFFFFFFFFFFFFFFFF MUL NOT AND SWAP1 DUP4 PUSH20 0xFFFFFFFFFFFFFFFFFFFFFFFFFFFFFFFFFFFFFFFF AND MUL OR SWAP1 SSTORE POP PUSH1 0x2 DUP2 PUSH1 0x3 ADD PUSH1 0x0 PUSH2 0x100 EXP DUP2 SLOAD DUP2 PUSH1 0xFF MUL NOT AND SWAP1 DUP4 PUSH1 0xA DUP2 GT ISZERO PUSH2 0xB6A JUMPI PUSH2 0xB69 PUSH2 0x2973 JUMP JUMPDEST JUMPDEST MUL OR SWAP1 SSTORE POP PUSH2 0xB78 DUP5 PUSH2 0x22F0 JUMP JUMPDEST PUSH2 0xB8C PUSH2 0x515 PUSH8 0xADBF78816EE7165 PUSH2 0x23A9 JUMP JUMPDEST PUSH32 0x58D4562CF15D1052E816FD24F6AF2C8A3A21416D6E4C01A9E11EF84FFE537E25 DUP5 DUP3 PUSH1 0x3 ADD PUSH1 0x0 SWAP1 SLOAD SWAP1 PUSH2 0x100 EXP SWAP1 DIV PUSH1 0xFF AND PUSH1 0x40 MLOAD PUSH2 0xBCE SWAP3 SWAP2 SWAP1 PUSH2 0x2B13 JUMP JUMPDEST PUSH1 0x40 MLOAD DUP1 SWAP2 SUB SWAP1 LOG1 POP POP POP POP JUMP JUMPDEST PUSH1 0x5 PUSH1 0x20 MSTORE DUP1 PUSH1 0x0 MSTORE PUSH1 0x40 PUSH1 0x0 KECCAK256 PUSH1 0x0 SWAP2 POP SWAP1 POP SLOAD DUP2 JUMP JUMPDEST PUSH1 0x0 PUSH1 0x4 PUSH1 0x0 DUP4 DUP2 MSTORE PUSH1 0x20 ADD SWAP1 DUP2 MSTORE PUSH1 0x20 ADD PUSH1 0x0 KECCAK256 SWAP1 POP PUSH2 0xC49 PUSH1 0x40 MLOAD DUP1 PUSH1 0x40 ADD PUSH1 0x40 MSTORE DUP1 PUSH1 0x17 DUP2 MSTORE PUSH1 0x20 ADD PUSH32 0x636F6D6D69746D656E745469636B202D2063616C6C6564000000000000000000 DUP2 MSTORE POP PUSH2 0x24A9 JUMP JUMPDEST PUSH1 0x4 PUSH1 0xA DUP2 GT ISZERO PUSH2 0xC5D JUMPI PUSH2 0xC5C PUSH2 0x2973 JUMP JUMPDEST JUMPDEST DUP2 PUSH1 0x3 ADD PUSH1 0x0 SWAP1 SLOAD SWAP1 PUSH2 0x100 EXP SWAP1 DIV PUSH1 0xFF AND PUSH1 0xA DUP2 GT ISZERO PUSH2 0xC81 JUMPI PUSH2 0xC80 PUSH2 0x2973 JUMP JUMPDEST JUMPDEST EQ DUP1 PUSH2 0xCC2 JUMPI POP PUSH1 0x9 PUSH1 0xA DUP2 GT ISZERO PUSH2 0xC9C JUMPI PUSH2 0xC9B PUSH2 0x2973 JUMP JUMPDEST JUMPDEST DUP2 PUSH1 0x3 ADD PUSH1 0x0 SWAP1 SLOAD SWAP1 PUSH2 0x100 EXP SWAP1 DIV PUSH1 0xFF AND PUSH1 0xA DUP2 GT ISZERO PUSH2 0xCC0 JUMPI PUSH2 0xCBF PUSH2 0x2973 JUMP JUMPDEST JUMPDEST EQ JUMPDEST PUSH2 0xD01 JUMPI PUSH1 0x40 MLOAD PUSH32 0x8C379A000000000000000000000000000000000000000000000000000000000 DUP2 MSTORE PUSH1 0x4 ADD PUSH2 0xCF8 SWAP1 PUSH2 0x2FC7 JUMP JUMPDEST PUSH1 0x40 MLOAD DUP1 SWAP2 SUB SWAP1 REVERT JUMPDEST PUSH2 0xD2A DUP3 PUSH1 0x1 PUSH1 0x6 PUSH1 0x0 DUP7 DUP2 MSTORE PUSH1 0x20 ADD SWAP1 DUP2 MSTORE PUSH1 0x20 ADD PUSH1 0x0 KECCAK256 SLOAD PUSH2 0xD25 SWAP2 SWAP1 PUSH2 0x2ADF JUMP JUMPDEST PUSH2 0x1633 JUMP JUMPDEST PUSH2 0xD4B PUSH1 0x40 MLOAD DUP1 PUSH1 0x60 ADD PUSH1 0x40 MSTORE DUP1 PUSH1 0x29 DUP2 MSTORE PUSH1 0x20 ADD PUSH2 0x3785 PUSH1 0x29 SWAP2 CODECOPY PUSH2 0x24A9 JUMP JUMPDEST PUSH1 0x0 JUMPDEST PUSH1 0x0 DUP1 SLOAD SWAP1 PUSH2 0x100 EXP SWAP1 DIV PUSH20 0xFFFFFFFFFFFFFFFFFFFFFFFFFFFFFFFFFFFFFFFF AND PUSH20 0xFFFFFFFFFFFFFFFFFFFFFFFFFFFFFFFFFFFFFFFF AND PUSH4 0xE3C8BFB9 PUSH1 0x40 MLOAD DUP2 PUSH4 0xFFFFFFFF AND PUSH1 0xE0 SHL DUP2 MSTORE PUSH1 0x4 ADD PUSH1 0x20 PUSH1 0x40 MLOAD DUP1 DUP4 SUB DUP2 DUP7 GAS STATICCALL ISZERO DUP1 ISZERO PUSH2 0xDB9 JUMPI RETURNDATASIZE PUSH1 0x0 DUP1 RETURNDATACOPY RETURNDATASIZE PUSH1 0x0 REVERT JUMPDEST POP POP POP POP PUSH1 0x40 MLOAD RETURNDATASIZE PUSH1 0x1F NOT PUSH1 0x1F DUP3 ADD AND DUP3 ADD DUP1 PUSH1 0x40 MSTORE POP DUP2 ADD SWAP1 PUSH2 0xDDD SWAP2 SWAP1 PUSH2 0x2BF4 JUMP JUMPDEST DUP2 LT ISZERO PUSH2 0xE95 JUMPI DUP2 PUSH1 0x1 ADD DUP2 DUP2 SLOAD DUP2 LT PUSH2 0xDFA JUMPI PUSH2 0xDF9 PUSH2 0x2A81 JUMP JUMPDEST JUMPDEST SWAP1 PUSH1 0x0 MSTORE PUSH1 0x20 PUSH1 0x0 KECCAK256 ADD PUSH1 0x0 SWAP1 SLOAD SWAP1 PUSH2 0x100 EXP SWAP1 DIV PUSH20 0xFFFFFFFFFFFFFFFFFFFFFFFFFFFFFFFFFFFFFFFF AND PUSH20 0xFFFFFFFFFFFFFFFFFFFFFFFFFFFFFFFFFFFFFFFF AND PUSH4 0x606DEECD PUSH1 0x40 MLOAD DUP2 PUSH4 0xFFFFFFFF AND PUSH1 0xE0 SHL DUP2 MSTORE PUSH1 0x4 ADD PUSH1 0x0 PUSH1 0x40 MLOAD DUP1 DUP4 SUB DUP2 PUSH1 0x0 DUP8 DUP1 EXTCODESIZE ISZERO DUP1 ISZERO PUSH2 0xE6C JUMPI PUSH1 0x0 DUP1 REVERT JUMPDEST POP GAS CALL ISZERO DUP1 ISZERO PUSH2 0xE80 JUMPI RETURNDATASIZE PUSH1 0x0 DUP1 RETURNDATACOPY RETURNDATASIZE PUSH1 0x0 REVERT JUMPDEST POP POP POP POP DUP1 PUSH2 0xE8E SWAP1 PUSH2 0x2D0C JUMP JUMPDEST SWAP1 POP PUSH2 0xD4E JUMP JUMPDEST POP PUSH1 0x5 DUP2 PUSH1 0x3 ADD PUSH1 0x0 PUSH2 0x100 EXP DUP2 SLOAD DUP2 PUSH1 0xFF MUL NOT AND SWAP1 DUP4 PUSH1 0xA DUP2 GT ISZERO PUSH2 0xEBE JUMPI PUSH2 0xEBD PUSH2 0x2973 JUMP JUMPDEST JUMPDEST MUL OR SWAP1 SSTORE POP PUSH32 0x58D4562CF15D1052E816FD24F6AF2C8A3A21416D6E4C01A9E11EF84FFE537E25 DUP3 DUP3 PUSH1 0x3 ADD PUSH1 0x0 SWAP1 SLOAD SWAP1 PUSH2 0x100 EXP SWAP1 DIV PUSH1 0xFF AND PUSH1 0x40 MLOAD PUSH2 0xF05 SWAP3 SWAP2 SWAP1 PUSH2 0x2B13 JUMP JUMPDEST PUSH1 0x40 MLOAD DUP1 SWAP2 SUB SWAP1 LOG1 POP POP JUMP JUMPDEST PUSH1 0x0 DUP1 SLOAD SWAP1 PUSH2 0x100 EXP SWAP1 DIV PUSH20 0xFFFFFFFFFFFFFFFFFFFFFFFFFFFFFFFFFFFFFFFF AND DUP2 JUMP JUMPDEST PUSH1 0x6 PUSH1 0x20 MSTORE DUP1 PUSH1 0x0 MSTORE PUSH1 0x40 PUSH1 0x0 KECCAK256 PUSH1 0x0 SWAP2 POP SWAP1 POP SLOAD DUP2 JUMP JUMPDEST PUSH1 0x2 PUSH1 0x0 SWAP1 SLOAD SWAP1 PUSH2 0x100 EXP SWAP1 DIV PUSH20 0xFFFFFFFFFFFFFFFFFFFFFFFFFFFFFFFFFFFFFFFF AND DUP2 JUMP JUMPDEST PUSH1 0x0 PUSH1 0x4 PUSH1 0x0 DUP4 DUP2 MSTORE PUSH1 0x20 ADD SWAP1 DUP2 MSTORE PUSH1 0x20 ADD PUSH1 0x0 KECCAK256 SWAP1 POP PUSH1 0x5 PUSH1 0xA DUP2 GT ISZERO PUSH2 0xF9E JUMPI PUSH2 0xF9D PUSH2 0x2973 JUMP JUMPDEST JUMPDEST DUP2 PUSH1 0x3 ADD PUSH1 0x0 SWAP1 SLOAD SWAP1 PUSH2 0x100 EXP SWAP1 DIV PUSH1 0xFF AND PUSH1 0xA DUP2 GT ISZERO PUSH2 0xFC2 JUMPI PUSH2 0xFC1 PUSH2 0x2973 JUMP JUMPDEST JUMPDEST EQ PUSH2 0x1002 JUMPI PUSH1 0x40 MLOAD PUSH32 0x8C379A000000000000000000000000000000000000000000000000000000000 DUP2 MSTORE PUSH1 0x4 ADD PUSH2 0xFF9 SWAP1 PUSH2 0x3059 JUMP JUMPDEST PUSH1 0x40 MLOAD DUP1 SWAP2 SUB SWAP1 REVERT JUMPDEST PUSH1 0x0 JUMPDEST PUSH1 0x0 DUP1 SLOAD SWAP1 PUSH2 0x100 EXP SWAP1 DIV PUSH20 0xFFFFFFFFFFFFFFFFFFFFFFFFFFFFFFFFFFFFFFFF AND PUSH20 0xFFFFFFFFFFFFFFFFFFFFFFFFFFFFFFFFFFFFFFFF AND PUSH4 0xE3C8BFB9 PUSH1 0x40 MLOAD DUP2 PUSH4 0xFFFFFFFF AND PUSH1 0xE0 SHL DUP2 MSTORE PUSH1 0x4 ADD PUSH1 0x20 PUSH1 0x40 MLOAD DUP1 DUP4 SUB DUP2 DUP7 GAS STATICCALL ISZERO DUP1 ISZERO PUSH2 0x1070 JUMPI RETURNDATASIZE PUSH1 0x0 DUP1 RETURNDATACOPY RETURNDATASIZE PUSH1 0x0 REVERT JUMPDEST POP POP POP POP PUSH1 0x40 MLOAD RETURNDATASIZE PUSH1 0x1F NOT PUSH1 0x1F DUP3 ADD AND DUP3 ADD DUP1 PUSH1 0x40 MSTORE POP DUP2 ADD SWAP1 PUSH2 0x1094 SWAP2 SWAP1 PUSH2 0x2BF4 JUMP JUMPDEST DUP2 LT ISZERO PUSH2 0x119A JUMPI DUP2 PUSH1 0x1 ADD DUP2 DUP2 SLOAD DUP2 LT PUSH2 0x10B1 JUMPI PUSH2 0x10B0 PUSH2 0x2A81 JUMP JUMPDEST JUMPDEST SWAP1 PUSH1 0x0 MSTORE PUSH1 0x20 PUSH1 0x0 KECCAK256 ADD PUSH1 0x0 SWAP1 SLOAD SWAP1 PUSH2 0x100 EXP SWAP1 DIV PUSH20 0xFFFFFFFFFFFFFFFFFFFFFFFFFFFFFFFFFFFFFFFF AND PUSH20 0xFFFFFFFFFFFFFFFFFFFFFFFFFFFFFFFFFFFFFFFF AND PUSH4 0xCCE71063 PUSH1 0x40 MLOAD DUP2 PUSH4 0xFFFFFFFF AND PUSH1 0xE0 SHL DUP2 MSTORE PUSH1 0x4 ADD PUSH1 0x20 PUSH1 0x40 MLOAD DUP1 DUP4 SUB DUP2 DUP7 GAS STATICCALL ISZERO DUP1 ISZERO PUSH2 0x1126 JUMPI RETURNDATASIZE PUSH1 0x0 DUP1 RETURNDATACOPY RETURNDATASIZE PUSH1 0x0 REVERT JUMPDEST POP POP POP POP PUSH1 0x40 MLOAD RETURNDATASIZE PUSH1 0x1F NOT PUSH1 0x1F DUP3 ADD AND DUP3 ADD DUP1 PUSH1 0x40 MSTORE POP DUP2 ADD SWAP1 PUSH2 0x114A SWAP2 SWAP1 PUSH2 0x2C4D JUMP JUMPDEST PUSH2 0x1189 JUMPI PUSH1 0x40 MLOAD PUSH32 0x8C379A000000000000000000000000000000000000000000000000000000000 DUP2 MSTORE PUSH1 0x4 ADD PUSH2 0x1180 SWAP1 PUSH2 0x2CEC JUMP JUMPDEST PUSH1 0x40 MLOAD DUP1 SWAP2 SUB SWAP1 REVERT JUMPDEST DUP1 PUSH2 0x1193 SWAP1 PUSH2 0x2D0C JUMP JUMPDEST SWAP1 POP PUSH2 0x1005 JUMP JUMPDEST POP PUSH1 0x0 JUMPDEST PUSH1 0x0 DUP1 SLOAD SWAP1 PUSH2 0x100 EXP SWAP1 DIV PUSH20 0xFFFFFFFFFFFFFFFFFFFFFFFFFFFFFFFFFFFFFFFF AND PUSH20 0xFFFFFFFFFFFFFFFFFFFFFFFFFFFFFFFFFFFFFFFF AND PUSH4 0xE3C8BFB9 PUSH1 0x40 MLOAD DUP2 PUSH4 0xFFFFFFFF AND PUSH1 0xE0 SHL DUP2 MSTORE PUSH1 0x4 ADD PUSH1 0x20 PUSH1 0x40 MLOAD DUP1 DUP4 SUB DUP2 DUP7 GAS STATICCALL ISZERO DUP1 ISZERO PUSH2 0x1209 JUMPI RETURNDATASIZE PUSH1 0x0 DUP1 RETURNDATACOPY RETURNDATASIZE PUSH1 0x0 REVERT JUMPDEST POP POP POP POP PUSH1 0x40 MLOAD RETURNDATASIZE PUSH1 0x1F NOT PUSH1 0x1F DUP3 ADD AND DUP3 ADD DUP1 PUSH1 0x40 MSTORE POP DUP2 ADD SWAP1 PUSH2 0x122D SWAP2 SWAP1 PUSH2 0x2BF4 JUMP JUMPDEST DUP2 LT ISZERO PUSH2 0x1305 JUMPI PUSH2 0x12F4 DUP4 DUP3 DUP5 PUSH1 0x1 ADD DUP5 DUP2 SLOAD DUP2 LT PUSH2 0x124F JUMPI PUSH2 0x124E PUSH2 0x2A81 JUMP JUMPDEST JUMPDEST SWAP1 PUSH1 0x0 MSTORE PUSH1 0x20 PUSH1 0x0 KECCAK256 ADD PUSH1 0x0 SWAP1 SLOAD SWAP1 PUSH2 0x100 EXP SWAP1 DIV PUSH20 0xFFFFFFFFFFFFFFFFFFFFFFFFFFFFFFFFFFFFFFFF AND PUSH20 0xFFFFFFFFFFFFFFFFFFFFFFFFFFFFFFFFFFFFFFFF AND PUSH4 0x2F703E08 PUSH1 0x40 MLOAD DUP2 PUSH4 0xFFFFFFFF AND PUSH1 0xE0 SHL DUP2 MSTORE PUSH1 0x4 ADD PUSH1 0x0 PUSH1 0x40 MLOAD DUP1 DUP4 SUB DUP2 PUSH1 0x0 DUP8 GAS CALL ISZERO DUP1 ISZERO PUSH2 0x12C6 JUMPI RETURNDATASIZE PUSH1 0x0 DUP1 RETURNDATACOPY RETURNDATASIZE PUSH1 0x0 REVERT JUMPDEST POP POP POP POP PUSH1 0x40 MLOAD RETURNDATASIZE PUSH1 0x0 DUP3 RETURNDATACOPY RETURNDATASIZE PUSH1 0x1F NOT PUSH1 0x1F DUP3 ADD AND DUP3 ADD DUP1 PUSH1 0x40 MSTORE POP DUP2 ADD SWAP1 PUSH2 0x12EF SWAP2 SWAP1 PUSH2 0x2E7A JUMP JUMPDEST PUSH2 0x2542 JUMP JUMPDEST DUP1 PUSH2 0x12FE SWAP1 PUSH2 0x2D0C JUMP JUMPDEST SWAP1 POP PUSH2 0x119E JUMP JUMPDEST POP PUSH1 0x6 DUP2 PUSH1 0x3 ADD PUSH1 0x0 PUSH2 0x100 EXP DUP2 SLOAD DUP2 PUSH1 0xFF MUL NOT AND SWAP1 DUP4 PUSH1 0xA DUP2 GT ISZERO PUSH2 0x132E JUMPI PUSH2 0x132D PUSH2 0x2973 JUMP JUMPDEST JUMPDEST MUL OR SWAP1 SSTORE POP PUSH32 0x58D4562CF15D1052E816FD24F6AF2C8A3A21416D6E4C01A9E11EF84FFE537E25 DUP3 DUP3 PUSH1 0x3 ADD PUSH1 0x0 SWAP1 SLOAD SWAP1 PUSH2 0x100 EXP SWAP1 DIV PUSH1 0xFF AND PUSH1 0x40 MLOAD PUSH2 0x1375 SWAP3 SWAP2 SWAP1 PUSH2 0x2B13 JUMP JUMPDEST PUSH1 0x40 MLOAD DUP1 SWAP2 SUB SWAP1 LOG1 POP POP JUMP JUMPDEST PUSH1 0x4 PUSH1 0x20 MSTORE DUP1 PUSH1 0x0 MSTORE PUSH1 0x40 PUSH1 0x0 KECCAK256 PUSH1 0x0 SWAP2 POP SWAP1 POP DUP1 PUSH1 0x0 ADD SLOAD SWAP1 DUP1 PUSH1 0x3 ADD PUSH1 0x0 SWAP1 SLOAD SWAP1 PUSH2 0x100 EXP SWAP1 DIV PUSH1 0xFF AND SWAP1 DUP1 PUSH1 0x4 ADD SLOAD SWAP1 POP DUP4 JUMP JUMPDEST PUSH1 0x1 PUSH1 0x0 SWAP1 SLOAD SWAP1 PUSH2 0x100 EXP SWAP1 DIV PUSH20 0xFFFFFFFFFFFFFFFFFFFFFFFFFFFFFFFFFFFFFFFF AND DUP2 JUMP JUMPDEST PUSH1 0x0 PUSH1 0x4 PUSH1 0x0 DUP4 DUP2 MSTORE PUSH1 0x20 ADD SWAP1 DUP2 MSTORE PUSH1 0x20 ADD PUSH1 0x0 KECCAK256 SWAP1 POP PUSH1 0x6 PUSH1 0xA DUP2 GT ISZERO PUSH2 0x1409 JUMPI PUSH2 0x1408 PUSH2 0x2973 JUMP JUMPDEST JUMPDEST DUP2 PUSH1 0x3 ADD PUSH1 0x0 SWAP1 SLOAD SWAP1 PUSH2 0x100 EXP SWAP1 DIV PUSH1 0xFF AND PUSH1 0xA DUP2 GT ISZERO PUSH2 0x142D JUMPI PUSH2 0x142C PUSH2 0x2973 JUMP JUMPDEST JUMPDEST EQ PUSH2 0x146D JUMPI PUSH1 0x40 MLOAD PUSH32 0x8C379A000000000000000000000000000000000000000000000000000000000 DUP2 MSTORE PUSH1 0x4 ADD PUSH2 0x1464 SWAP1 PUSH2 0x30EB JUMP JUMPDEST PUSH1 0x40 MLOAD DUP1 SWAP2 SUB SWAP1 REVERT JUMPDEST PUSH1 0x0 JUMPDEST PUSH1 0x0 DUP1 SLOAD SWAP1 PUSH2 0x100 EXP SWAP1 DIV PUSH20 0xFFFFFFFFFFFFFFFFFFFFFFFFFFFFFFFFFFFFFFFF AND PUSH20 0xFFFFFFFFFFFFFFFFFFFFFFFFFFFFFFFFFFFFFFFF AND PUSH4 0xE3C8BFB9 PUSH1 0x40 MLOAD DUP2 PUSH4 0xFFFFFFFF AND PUSH1 0xE0 SHL DUP2 MSTORE PUSH1 0x4 ADD PUSH1 0x20 PUSH1 0x40 MLOAD DUP1 DUP4 SUB DUP2 DUP7 GAS STATICCALL ISZERO DUP1 ISZERO PUSH2 0x14DB JUMPI RETURNDATASIZE PUSH1 0x0 DUP1 RETURNDATACOPY RETURNDATASIZE PUSH1 0x0 REVERT JUMPDEST POP POP POP POP PUSH1 0x40 MLOAD RETURNDATASIZE PUSH1 0x1F NOT PUSH1 0x1F DUP3 ADD AND DUP3 ADD DUP1 PUSH1 0x40 MSTORE POP DUP2 ADD SWAP1 PUSH2 0x14FF SWAP2 SWAP1 PUSH2 0x2BF4 JUMP JUMPDEST DUP2 LT ISZERO PUSH2 0x15B7 JUMPI DUP2 PUSH1 0x2 ADD DUP2 DUP2 SLOAD DUP2 LT PUSH2 0x151C JUMPI PUSH2 0x151B PUSH2 0x2A81 JUMP JUMPDEST JUMPDEST SWAP1 PUSH1 0x0 MSTORE PUSH1 0x20 PUSH1 0x0 KECCAK256 ADD PUSH1 0x0 SWAP1 SLOAD SWAP1 PUSH2 0x100 EXP SWAP1 DIV PUSH20 0xFFFFFFFFFFFFFFFFFFFFFFFFFFFFFFFFFFFFFFFF AND PUSH20 0xFFFFFFFFFFFFFFFFFFFFFFFFFFFFFFFFFFFFFFFF AND PUSH4 0x606DEECD PUSH1 0x40 MLOAD DUP2 PUSH4 0xFFFFFFFF AND PUSH1 0xE0 SHL DUP2 MSTORE PUSH1 0x4 ADD PUSH1 0x0 PUSH1 0x40 MLOAD DUP1 DUP4 SUB DUP2 PUSH1 0x0 DUP8 DUP1 EXTCODESIZE ISZERO DUP1 ISZERO PUSH2 0x158E JUMPI PUSH1 0x0 DUP1 REVERT JUMPDEST POP GAS CALL ISZERO DUP1 ISZERO PUSH2 0x15A2 JUMPI RETURNDATASIZE PUSH1 0x0 DUP1 RETURNDATACOPY RETURNDATASIZE PUSH1 0x0 REVERT JUMPDEST POP POP POP POP DUP1 PUSH2 0x15B0 SWAP1 PUSH2 0x2D0C JUMP JUMPDEST SWAP1 POP PUSH2 0x1470 JUMP JUMPDEST POP PUSH1 0x7 DUP2 PUSH1 0x3 ADD PUSH1 0x0 PUSH2 0x100 EXP DUP2 SLOAD DUP2 PUSH1 0xFF MUL NOT AND SWAP1 DUP4 PUSH1 0xA DUP2 GT ISZERO PUSH2 0x15E0 JUMPI PUSH2 0x15DF PUSH2 0x2973 JUMP JUMPDEST JUMPDEST MUL OR SWAP1 SSTORE POP PUSH32 0x58D4562CF15D1052E816FD24F6AF2C8A3A21416D6E4C01A9E11EF84FFE537E25 DUP3 DUP3 PUSH1 0x3 ADD PUSH1 0x0 SWAP1 SLOAD SWAP1 PUSH2 0x100 EXP SWAP1 DIV PUSH1 0xFF AND PUSH1 0x40 MLOAD PUSH2 0x1627 SWAP3 SWAP2 SWAP1 PUSH2 0x2B13 JUMP JUMPDEST PUSH1 0x40 MLOAD DUP1 SWAP2 SUB SWAP1 LOG1 POP POP JUMP JUMPDEST PUSH1 0x0 DUP2 SUB PUSH2 0x175F JUMPI PUSH1 0x0 JUMPDEST PUSH1 0x0 DUP1 SLOAD SWAP1 PUSH2 0x100 EXP SWAP1 DIV PUSH20 0xFFFFFFFFFFFFFFFFFFFFFFFFFFFFFFFFFFFFFFFF AND PUSH20 0xFFFFFFFFFFFFFFFFFFFFFFFFFFFFFFFFFFFFFFFF AND PUSH4 0xE3C8BFB9 PUSH1 0x40 MLOAD DUP2 PUSH4 0xFFFFFFFF AND PUSH1 0xE0 SHL DUP2 MSTORE PUSH1 0x4 ADD PUSH1 0x20 PUSH1 0x40 MLOAD DUP1 DUP4 SUB DUP2 DUP7 GAS STATICCALL ISZERO DUP1 ISZERO PUSH2 0x16A9 JUMPI RETURNDATASIZE PUSH1 0x0 DUP1 RETURNDATACOPY RETURNDATASIZE PUSH1 0x0 REVERT JUMPDEST POP POP POP POP PUSH1 0x40 MLOAD RETURNDATASIZE PUSH1 0x1F NOT PUSH1 0x1F DUP3 ADD AND DUP3 ADD DUP1 PUSH1 0x40 MSTORE POP DUP2 ADD SWAP1 PUSH2 0x16CD SWAP2 SWAP1 PUSH2 0x2BF4 JUMP JUMPDEST DUP2 LT ISZERO PUSH2 0x175D JUMPI PUSH1 0x4 PUSH1 0x0 DUP5 DUP2 MSTORE PUSH1 0x20 ADD SWAP1 DUP2 MSTORE PUSH1 0x20 ADD PUSH1 0x0 KECCAK256 PUSH1 0x1 ADD PUSH1 0x1 DUP2 PUSH1 0x1 DUP2 SLOAD ADD DUP1 DUP3 SSTORE DUP1 SWAP2 POP POP SUB SWAP1 PUSH1 0x0 MSTORE PUSH1 0x20 PUSH1 0x0 KECCAK256 ADD PUSH1 0x0 SWAP1 SLOAD SWAP1 PUSH2 0x100 EXP SWAP1 POP POP PUSH1 0x4 PUSH1 0x0 DUP5 DUP2 MSTORE PUSH1 0x20 ADD SWAP1 DUP2 MSTORE PUSH1 0x20 ADD PUSH1 0x0 KECCAK256 PUSH1 0x2 ADD PUSH1 0x1 DUP2 PUSH1 0x1 DUP2 SLOAD ADD DUP1 DUP3 SSTORE DUP1 SWAP2 POP POP SUB SWAP1 PUSH1 0x0 MSTORE PUSH1 0x20 PUSH1 0x0 KECCAK256 ADD PUSH1 0x0 SWAP1 SLOAD SWAP1 PUSH2 0x100 EXP SWAP1 POP POP DUP1 PUSH2 0x1756 SWAP1 PUSH2 0x2D0C JUMP JUMPDEST SWAP1 POP PUSH2 0x163E JUMP JUMPDEST POP JUMPDEST PUSH1 0x0 PUSH1 0x7 PUSH1 0x0 DUP5 DUP2 MSTORE PUSH1 0x20 ADD SWAP1 DUP2 MSTORE PUSH1 0x20 ADD PUSH1 0x0 KECCAK256 PUSH1 0x0 DUP4 DUP2 MSTORE PUSH1 0x20 ADD SWAP1 DUP2 MSTORE PUSH1 0x20 ADD PUSH1 0x0 KECCAK256 SWAP1 POP PUSH1 0x0 PUSH1 0x8 PUSH1 0x0 DUP6 DUP2 MSTORE PUSH1 0x20 ADD SWAP1 DUP2 MSTORE PUSH1 0x20 ADD PUSH1 0x0 KECCAK256 PUSH1 0x0 DUP5 DUP2 MSTORE PUSH1 0x20 ADD SWAP1 DUP2 MSTORE PUSH1 0x20 ADD PUSH1 0x0 KECCAK256 SWAP1 POP PUSH1 0x0 PUSH1 0x9 PUSH1 0x0 DUP7 DUP2 MSTORE PUSH1 0x20 ADD SWAP1 DUP2 MSTORE PUSH1 0x20 ADD PUSH1 0x0 KECCAK256 PUSH1 0x0 DUP6 DUP2 MSTORE PUSH1 0x20 ADD SWAP1 DUP2 MSTORE PUSH1 0x20 ADD PUSH1 0x0 KECCAK256 SWAP1 POP PUSH1 0x0 JUMPDEST PUSH1 0x0 DUP1 SLOAD SWAP1 PUSH2 0x100 EXP SWAP1 DIV PUSH20 0xFFFFFFFFFFFFFFFFFFFFFFFFFFFFFFFFFFFFFFFF AND PUSH20 0xFFFFFFFFFFFFFFFFFFFFFFFFFFFFFFFFFFFFFFFF AND PUSH4 0xE3C8BFB9 PUSH1 0x40 MLOAD DUP2 PUSH4 0xFFFFFFFF AND PUSH1 0xE0 SHL DUP2 MSTORE PUSH1 0x4 ADD PUSH1 0x20 PUSH1 0x40 MLOAD DUP1 DUP4 SUB DUP2 DUP7 GAS STATICCALL ISZERO DUP1 ISZERO PUSH2 0x1845 JUMPI RETURNDATASIZE PUSH1 0x0 DUP1 RETURNDATACOPY RETURNDATASIZE PUSH1 0x0 REVERT JUMPDEST POP POP POP POP PUSH1 0x40 MLOAD RETURNDATASIZE PUSH1 0x1F NOT PUSH1 0x1F DUP3 ADD AND DUP3 ADD DUP1 PUSH1 0x40 MSTORE POP DUP2 ADD SWAP1 PUSH2 0x1869 SWAP2 SWAP1 PUSH2 0x2BF4 JUMP JUMPDEST DUP2 LT ISZERO PUSH2 0x1B79 JUMPI DUP4 PUSH1 0x0 ADD PUSH1 0x0 SWAP1 DUP1 PUSH1 0x1 DUP2 SLOAD ADD DUP1 DUP3 SSTORE DUP1 SWAP2 POP POP PUSH1 0x1 SWAP1 SUB SWAP1 PUSH1 0x0 MSTORE PUSH1 0x20 PUSH1 0x0 KECCAK256 ADD PUSH1 0x0 SWAP1 SWAP2 SWAP1 SWAP2 SWAP1 SWAP2 POP SSTORE DUP3 PUSH1 0x1 DUP2 PUSH1 0x1 DUP2 SLOAD ADD DUP1 DUP3 SSTORE DUP1 SWAP2 POP POP SUB SWAP1 PUSH1 0x0 MSTORE PUSH1 0x20 PUSH1 0x0 KECCAK256 SWAP1 POP POP PUSH1 0x0 JUMPDEST PUSH1 0x0 DUP1 SLOAD SWAP1 PUSH2 0x100 EXP SWAP1 DIV PUSH20 0xFFFFFFFFFFFFFFFFFFFFFFFFFFFFFFFFFFFFFFFF AND PUSH20 0xFFFFFFFFFFFFFFFFFFFFFFFFFFFFFFFFFFFFFFFF AND PUSH4 0xAE5C1356 PUSH1 0x40 MLOAD DUP2 PUSH4 0xFFFFFFFF AND PUSH1 0xE0 SHL DUP2 MSTORE PUSH1 0x4 ADD PUSH1 0x20 PUSH1 0x40 MLOAD DUP1 DUP4 SUB DUP2 DUP7 GAS STATICCALL ISZERO DUP1 ISZERO PUSH2 0x1927 JUMPI RETURNDATASIZE PUSH1 0x0 DUP1 RETURNDATACOPY RETURNDATASIZE PUSH1 0x0 REVERT JUMPDEST POP POP POP POP PUSH1 0x40 MLOAD RETURNDATASIZE PUSH1 0x1F NOT PUSH1 0x1F DUP3 ADD AND DUP3 ADD DUP1 PUSH1 0x40 MSTORE POP DUP2 ADD SWAP1 PUSH2 0x194B SWAP2 SWAP1 PUSH2 0x2BF4 JUMP JUMPDEST DUP2 LT ISZERO PUSH2 0x1A21 JUMPI DUP4 DUP3 DUP2 SLOAD DUP2 LT PUSH2 0x1965 JUMPI PUSH2 0x1964 PUSH2 0x2A81 JUMP JUMPDEST JUMPDEST SWAP1 PUSH1 0x0 MSTORE PUSH1 0x20 PUSH1 0x0 KECCAK256 SWAP1 PUSH1 0x3 MUL ADD PUSH1 0x0 ADD PUSH1 0x1 DUP2 PUSH1 0x1 DUP2 SLOAD ADD DUP1 DUP3 SSTORE DUP1 SWAP2 POP POP SUB SWAP1 PUSH1 0x0 MSTORE PUSH1 0x20 PUSH1 0x0 KECCAK256 SWAP1 POP POP DUP4 DUP3 DUP2 SLOAD DUP2 LT PUSH2 0x19A5 JUMPI PUSH2 0x19A4 PUSH2 0x2A81 JUMP JUMPDEST JUMPDEST SWAP1 PUSH1 0x0 MSTORE PUSH1 0x20 PUSH1 0x0 KECCAK256 SWAP1 PUSH1 0x3 MUL ADD PUSH1 0x1 ADD PUSH1 0x1 DUP2 PUSH1 0x1 DUP2 SLOAD ADD DUP1 DUP3 SSTORE DUP1 SWAP2 POP POP SUB SWAP1 PUSH1 0x0 MSTORE PUSH1 0x20 PUSH1 0x0 KECCAK256 POP POP DUP4 DUP3 DUP2 SLOAD DUP2 LT PUSH2 0x19E4 JUMPI PUSH2 0x19E3 PUSH2 0x2A81 JUMP JUMPDEST JUMPDEST SWAP1 PUSH1 0x0 MSTORE PUSH1 0x20 PUSH1 0x0 KECCAK256 SWAP1 PUSH1 0x3 MUL ADD PUSH1 0x2 ADD PUSH1 0x1 DUP2 PUSH1 0x1 DUP2 SLOAD ADD DUP1 DUP3 SSTORE DUP1 SWAP2 POP POP SUB SWAP1 PUSH1 0x0 MSTORE PUSH1 0x20 PUSH1 0x0 KECCAK256 POP POP DUP1 PUSH2 0x1A1A SWAP1 PUSH2 0x2D0C JUMP JUMPDEST SWAP1 POP PUSH2 0x18BC JUMP JUMPDEST POP DUP2 PUSH1 0x1 DUP2 PUSH1 0x1 DUP2 SLOAD ADD DUP1 DUP3 SSTORE DUP1 SWAP2 POP POP SUB SWAP1 PUSH1 0x0 MSTORE PUSH1 0x20 PUSH1 0x0 KECCAK256 SWAP1 POP POP PUSH1 0x0 JUMPDEST PUSH1 0x0 DUP1 SLOAD SWAP1 PUSH2 0x100 EXP SWAP1 DIV PUSH20 0xFFFFFFFFFFFFFFFFFFFFFFFFFFFFFFFFFFFFFFFF AND PUSH20 0xFFFFFFFFFFFFFFFFFFFFFFFFFFFFFFFFFFFFFFFF AND PUSH4 0xAE5C1356 PUSH1 0x40 MLOAD DUP2 PUSH4 0xFFFFFFFF AND PUSH1 0xE0 SHL DUP2 MSTORE PUSH1 0x4 ADD PUSH1 0x20 PUSH1 0x40 MLOAD DUP1 DUP4 SUB DUP2 DUP7 GAS STATICCALL ISZERO DUP1 ISZERO PUSH2 0x1AAD JUMPI RETURNDATASIZE PUSH1 0x0 DUP1 RETURNDATACOPY RETURNDATASIZE PUSH1 0x0 REVERT JUMPDEST POP POP POP POP PUSH1 0x40 MLOAD RETURNDATASIZE PUSH1 0x1F NOT PUSH1 0x1F DUP3 ADD AND DUP3 ADD DUP1 PUSH1 0x40 MSTORE POP DUP2 ADD SWAP1 PUSH2 0x1AD1 SWAP2 SWAP1 PUSH2 0x2BF4 JUMP JUMPDEST DUP2 LT ISZERO PUSH2 0x1B67 JUMPI DUP3 DUP3 DUP2 SLOAD DUP2 LT PUSH2 0x1AEB JUMPI PUSH2 0x1AEA PUSH2 0x2A81 JUMP JUMPDEST JUMPDEST SWAP1 PUSH1 0x0 MSTORE PUSH1 0x20 PUSH1 0x0 KECCAK256 SWAP1 PUSH1 0x7 MUL ADD PUSH1 0x2 ADD PUSH1 0x1 DUP2 PUSH1 0x1 DUP2 SLOAD ADD DUP1 DUP3 SSTORE DUP1 SWAP2 POP POP SUB SWAP1 PUSH1 0x0 MSTORE PUSH1 0x20 PUSH1 0x0 KECCAK256 POP POP DUP3 DUP3 DUP2 SLOAD DUP2 LT PUSH2 0x1B2A JUMPI PUSH2 0x1B29 PUSH2 0x2A81 JUMP JUMPDEST JUMPDEST SWAP1 PUSH1 0x0 MSTORE PUSH1 0x20 PUSH1 0x0 KECCAK256 SWAP1 PUSH1 0x7 MUL ADD PUSH1 0x3 ADD PUSH1 0x1 DUP2 PUSH1 0x1 DUP2 SLOAD ADD DUP1 DUP3 SSTORE DUP1 SWAP2 POP POP SUB SWAP1 PUSH1 0x0 MSTORE PUSH1 0x20 PUSH1 0x0 KECCAK256 POP POP DUP1 PUSH2 0x1B60 SWAP1 PUSH2 0x2D0C JUMP JUMPDEST SWAP1 POP PUSH2 0x1A42 JUMP JUMPDEST POP DUP1 PUSH2 0x1B72 SWAP1 PUSH2 0x2D0C JUMP JUMPDEST SWAP1 POP PUSH2 0x17DA JUMP JUMPDEST POP POP POP POP POP POP JUMP JUMPDEST PUSH1 0x0 PUSH1 0x9 PUSH1 0x0 DUP6 DUP2 MSTORE PUSH1 0x20 ADD SWAP1 DUP2 MSTORE PUSH1 0x20 ADD PUSH1 0x0 KECCAK256 PUSH1 0x0 PUSH1 0x6 PUSH1 0x0 DUP8 DUP2 MSTORE PUSH1 0x20 ADD SWAP1 DUP2 MSTORE PUSH1 0x20 ADD PUSH1 0x0 KECCAK256 SLOAD DUP2 MSTORE PUSH1 0x20 ADD SWAP1 DUP2 MSTORE PUSH1 0x20 ADD PUSH1 0x0 KECCAK256 DUP4 DUP2 SLOAD DUP2 LT PUSH2 0x1BCC JUMPI PUSH2 0x1BCB PUSH2 0x2A81 JUMP JUMPDEST JUMPDEST SWAP1 PUSH1 0x0 MSTORE PUSH1 0x20 PUSH1 0x0 KECCAK256 SWAP1 PUSH1 0x7 MUL ADD SWAP1 POP PUSH1 0x0 DUP3 DUP1 MLOAD SWAP1 PUSH1 0x20 ADD KECCAK256 PUSH1 0x40 MLOAD PUSH1 0x20 ADD PUSH2 0x1BF6 SWAP2 SWAP1 PUSH2 0x3124 JUMP JUMPDEST PUSH1 0x40 MLOAD PUSH1 0x20 DUP2 DUP4 SUB SUB DUP2 MSTORE SWAP1 PUSH1 0x40 MSTORE SWAP1 POP DUP2 PUSH1 0x0 ADD PUSH1 0x40 MLOAD PUSH2 0x1C18 SWAP2 SWAP1 PUSH2 0x31E2 JUMP JUMPDEST PUSH1 0x40 MLOAD DUP1 SWAP2 SUB SWAP1 KECCAK256 DUP2 DUP1 MLOAD SWAP1 PUSH1 0x20 ADD KECCAK256 EQ PUSH2 0x1C68 JUMPI PUSH1 0x40 MLOAD PUSH32 0x8C379A000000000000000000000000000000000000000000000000000000000 DUP2 MSTORE PUSH1 0x4 ADD PUSH2 0x1C5F SWAP1 PUSH2 0x326B JUMP JUMPDEST PUSH1 0x40 MLOAD DUP1 SWAP2 SUB SWAP1 REVERT JUMPDEST DUP3 DUP3 PUSH1 0x1 ADD SWAP1 DUP2 PUSH2 0x1C79 SWAP2 SWAP1 PUSH2 0x3418 JUMP JUMPDEST POP PUSH1 0x0 DUP1 DUP5 DUP1 PUSH1 0x20 ADD SWAP1 MLOAD DUP2 ADD SWAP1 PUSH2 0x1C91 SWAP2 SWAP1 PUSH2 0x34EA JUMP JUMPDEST SWAP2 POP SWAP2 POP PUSH1 0x0 DUP1 PUSH1 0x0 SWAP1 SLOAD SWAP1 PUSH2 0x100 EXP SWAP1 DIV PUSH20 0xFFFFFFFFFFFFFFFFFFFFFFFFFFFFFFFFFFFFFFFF AND PUSH20 0xFFFFFFFFFFFFFFFFFFFFFFFFFFFFFFFFFFFFFFFF AND PUSH4 0x45BAEE55 PUSH1 0x40 MLOAD DUP2 PUSH4 0xFFFFFFFF AND PUSH1 0xE0 SHL DUP2 MSTORE PUSH1 0x4 ADD PUSH1 0x20 PUSH1 0x40 MLOAD DUP1 DUP4 SUB DUP2 DUP7 GAS STATICCALL ISZERO DUP1 ISZERO PUSH2 0x1D03 JUMPI RETURNDATASIZE PUSH1 0x0 DUP1 RETURNDATACOPY RETURNDATASIZE PUSH1 0x0 REVERT JUMPDEST POP POP POP POP PUSH1 0x40 MLOAD RETURNDATASIZE PUSH1 0x1F NOT PUSH1 0x1F DUP3 ADD AND DUP3 ADD DUP1 PUSH1 0x40 MSTORE POP DUP2 ADD SWAP1 PUSH2 0x1D27 SWAP2 SWAP1 PUSH2 0x2BF4 JUMP JUMPDEST PUSH1 0x0 DUP1 SLOAD SWAP1 PUSH2 0x100 EXP SWAP1 DIV PUSH20 0xFFFFFFFFFFFFFFFFFFFFFFFFFFFFFFFFFFFFFFFF AND PUSH20 0xFFFFFFFFFFFFFFFFFFFFFFFFFFFFFFFFFFFFFFFF AND PUSH4 0x4FFDF11E PUSH1 0x40 MLOAD DUP2 PUSH4 0xFFFFFFFF AND PUSH1 0xE0 SHL DUP2 MSTORE PUSH1 0x4 ADD PUSH1 0x20 PUSH1 0x40 MLOAD DUP1 DUP4 SUB DUP2 DUP7 GAS STATICCALL ISZERO DUP1 ISZERO PUSH2 0x1D92 JUMPI RETURNDATASIZE PUSH1 0x0 DUP1 RETURNDATACOPY RETURNDATASIZE PUSH1 0x0 REVERT JUMPDEST POP POP POP POP PUSH1 0x40 MLOAD RETURNDATASIZE PUSH1 0x1F NOT PUSH1 0x1F DUP3 ADD AND DUP3 ADD DUP1 PUSH1 0x40 MSTORE POP DUP2 ADD SWAP1 PUSH2 0x1DB6 SWAP2 SWAP1 PUSH2 0x2BF4 JUMP JUMPDEST PUSH2 0x1DC0 SWAP2 SWAP1 PUSH2 0x2ADF JUMP JUMPDEST SWAP1 POP PUSH1 0x0 JUMPDEST PUSH1 0x0 DUP1 SLOAD SWAP1 PUSH2 0x100 EXP SWAP1 DIV PUSH20 0xFFFFFFFFFFFFFFFFFFFFFFFFFFFFFFFFFFFFFFFF AND PUSH20 0xFFFFFFFFFFFFFFFFFFFFFFFFFFFFFFFFFFFFFFFF AND PUSH4 0xAE5C1356 PUSH1 0x40 MLOAD DUP2 PUSH4 0xFFFFFFFF AND PUSH1 0xE0 SHL DUP2 MSTORE PUSH1 0x4 ADD PUSH1 0x20 PUSH1 0x40 MLOAD DUP1 DUP4 SUB DUP2 DUP7 GAS STATICCALL ISZERO DUP1 ISZERO PUSH2 0x1E30 JUMPI RETURNDATASIZE PUSH1 0x0 DUP1 RETURNDATACOPY RETURNDATASIZE PUSH1 0x0 REVERT JUMPDEST POP POP POP POP PUSH1 0x40 MLOAD RETURNDATASIZE PUSH1 0x1F NOT PUSH1 0x1F DUP3 ADD AND DUP3 ADD DUP1 PUSH1 0x40 MSTORE POP DUP2 ADD SWAP1 PUSH2 0x1E54 SWAP2 SWAP1 PUSH2 0x2BF4 JUMP JUMPDEST DUP2 LT ISZERO PUSH2 0x20AB JUMPI PUSH1 0x0 DUP3 DUP3 PUSH2 0x1E69 SWAP2 SWAP1 PUSH2 0x352A JUMP JUMPDEST DUP5 SWAP1 SHR SWAP1 POP PUSH1 0x1 PUSH1 0x0 DUP1 SLOAD SWAP1 PUSH2 0x100 EXP SWAP1 DIV PUSH20 0xFFFFFFFFFFFFFFFFFFFFFFFFFFFFFFFFFFFFFFFF AND PUSH20 0xFFFFFFFFFFFFFFFFFFFFFFFFFFFFFFFFFFFFFFFF AND PUSH4 0x4FFDF11E PUSH1 0x40 MLOAD DUP2 PUSH4 0xFFFFFFFF AND PUSH1 0xE0 SHL DUP2 MSTORE PUSH1 0x4 ADD PUSH1 0x20 PUSH1 0x40 MLOAD DUP1 DUP4 SUB DUP2 DUP7 GAS STATICCALL ISZERO DUP1 ISZERO PUSH2 0x1EDB JUMPI RETURNDATASIZE PUSH1 0x0 DUP1 RETURNDATACOPY RETURNDATASIZE PUSH1 0x0 REVERT JUMPDEST POP POP POP POP PUSH1 0x40 MLOAD RETURNDATASIZE PUSH1 0x1F NOT PUSH1 0x1F DUP3 ADD AND DUP3 ADD DUP1 PUSH1 0x40 MSTORE POP DUP2 ADD SWAP1 PUSH2 0x1EFF SWAP2 SWAP1 PUSH2 0x2BF4 JUMP JUMPDEST PUSH1 0x2 PUSH2 0x1F0B SWAP2 SWAP1 PUSH2 0x369F JUMP JUMPDEST PUSH2 0x1F15 SWAP2 SWAP1 PUSH2 0x36EA JUMP JUMPDEST PUSH1 0x0 DUP1 SLOAD SWAP1 PUSH2 0x100 EXP SWAP1 DIV PUSH20 0xFFFFFFFFFFFFFFFFFFFFFFFFFFFFFFFFFFFFFFFF AND PUSH20 0xFFFFFFFFFFFFFFFFFFFFFFFFFFFFFFFFFFFFFFFF AND PUSH4 0x45BAEE55 PUSH1 0x40 MLOAD DUP2 PUSH4 0xFFFFFFFF AND PUSH1 0xE0 SHL DUP2 MSTORE PUSH1 0x4 ADD PUSH1 0x20 PUSH1 0x40 MLOAD DUP1 DUP4 SUB DUP2 DUP7 GAS STATICCALL ISZERO DUP1 ISZERO PUSH2 0x1F80 JUMPI RETURNDATASIZE PUSH1 0x0 DUP1 RETURNDATACOPY RETURNDATASIZE PUSH1 0x0 REVERT JUMPDEST POP POP POP POP PUSH1 0x40 MLOAD RETURNDATASIZE PUSH1 0x1F NOT PUSH1 0x1F DUP3 ADD AND DUP3 ADD DUP1 PUSH1 0x40 MSTORE POP DUP2 ADD SWAP1 PUSH2 0x1FA4 SWAP2 SWAP1 PUSH2 0x2BF4 JUMP JUMPDEST DUP3 SWAP1 SHR AND DUP8 PUSH1 0x2 ADD DUP4 DUP2 SLOAD DUP2 LT PUSH2 0x1FBE JUMPI PUSH2 0x1FBD PUSH2 0x2A81 JUMP JUMPDEST JUMPDEST SWAP1 PUSH1 0x0 MSTORE PUSH1 0x20 PUSH1 0x0 KECCAK256 ADD DUP2 SWAP1 SSTORE POP PUSH1 0x1 PUSH1 0x0 DUP1 SLOAD SWAP1 PUSH2 0x100 EXP SWAP1 DIV PUSH20 0xFFFFFFFFFFFFFFFFFFFFFFFFFFFFFFFFFFFFFFFF AND PUSH20 0xFFFFFFFFFFFFFFFFFFFFFFFFFFFFFFFFFFFFFFFF AND PUSH4 0x45BAEE55 PUSH1 0x40 MLOAD DUP2 PUSH4 0xFFFFFFFF AND PUSH1 0xE0 SHL DUP2 MSTORE PUSH1 0x4 ADD PUSH1 0x20 PUSH1 0x40 MLOAD DUP1 DUP4 SUB DUP2 DUP7 GAS STATICCALL ISZERO DUP1 ISZERO PUSH2 0x2039 JUMPI RETURNDATASIZE PUSH1 0x0 DUP1 RETURNDATACOPY RETURNDATASIZE PUSH1 0x0 REVERT JUMPDEST POP POP POP POP PUSH1 0x40 MLOAD RETURNDATASIZE PUSH1 0x1F NOT PUSH1 0x1F DUP3 ADD AND DUP3 ADD DUP1 PUSH1 0x40 MSTORE POP DUP2 ADD SWAP1 PUSH2 0x205D SWAP2 SWAP1 PUSH2 0x2BF4 JUMP JUMPDEST PUSH1 0x2 PUSH2 0x2069 SWAP2 SWAP1 PUSH2 0x369F JUMP JUMPDEST PUSH2 0x2073 SWAP2 SWAP1 PUSH2 0x36EA JUMP JUMPDEST DUP2 AND DUP8 PUSH1 0x3 ADD DUP4 DUP2 SLOAD DUP2 LT PUSH2 0x208B JUMPI PUSH2 0x208A PUSH2 0x2A81 JUMP JUMPDEST JUMPDEST SWAP1 PUSH1 0x0 MSTORE PUSH1 0x20 PUSH1 0x0 KECCAK256 ADD DUP2 SWAP1 SSTORE POP POP DUP1 PUSH2 0x20A4 SWAP1 PUSH2 0x2D0C JUMP JUMPDEST SWAP1 POP PUSH2 0x1DC5 JUMP JUMPDEST POP PUSH1 0x1 DUP1 PUSH1 0x0 DUP1 SLOAD SWAP1 PUSH2 0x100 EXP SWAP1 DIV PUSH20 0xFFFFFFFFFFFFFFFFFFFFFFFFFFFFFFFFFFFFFFFF AND PUSH20 0xFFFFFFFFFFFFFFFFFFFFFFFFFFFFFFFFFFFFFFFF AND PUSH4 0xAE5C1356 PUSH1 0x40 MLOAD DUP2 PUSH4 0xFFFFFFFF AND PUSH1 0xE0 SHL DUP2 MSTORE PUSH1 0x4 ADD PUSH1 0x20 PUSH1 0x40 MLOAD DUP1 DUP4 SUB DUP2 DUP7 GAS STATICCALL ISZERO DUP1 ISZERO PUSH2 0x211A JUMPI RETURNDATASIZE PUSH1 0x0 DUP1 RETURNDATACOPY RETURNDATASIZE PUSH1 0x0 REVERT JUMPDEST POP POP POP POP PUSH1 0x40 MLOAD RETURNDATASIZE PUSH1 0x1F NOT PUSH1 0x1F DUP3 ADD AND DUP3 ADD DUP1 PUSH1 0x40 MSTORE POP DUP2 ADD SWAP1 PUSH2 0x213E SWAP2 SWAP1 PUSH2 0x2BF4 JUMP JUMPDEST DUP4 PUSH2 0x2149 SWAP2 SWAP1 PUSH2 0x352A JUMP JUMPDEST DUP5 SWAP1 SHR AND EQ DUP6 PUSH1 0x6 ADD PUSH1 0x0 PUSH2 0x100 EXP DUP2 SLOAD DUP2 PUSH1 0xFF MUL NOT AND SWAP1 DUP4 ISZERO ISZERO MUL OR SWAP1 SSTORE POP PUSH1 0x1 DUP1 PUSH1 0x1 PUSH1 0x0 DUP1 SLOAD SWAP1 PUSH2 0x100 EXP SWAP1 DIV PUSH20 0xFFFFFFFFFFFFFFFFFFFFFFFFFFFFFFFFFFFFFFFF AND PUSH20 0xFFFFFFFFFFFFFFFFFFFFFFFFFFFFFFFFFFFFFFFF AND PUSH4 0xAE5C1356 PUSH1 0x40 MLOAD DUP2 PUSH4 0xFFFFFFFF AND PUSH1 0xE0 SHL DUP2 MSTORE PUSH1 0x4 ADD PUSH1 0x20 PUSH1 0x40 MLOAD DUP1 DUP4 SUB DUP2 DUP7 GAS STATICCALL ISZERO DUP1 ISZERO PUSH2 0x21D9 JUMPI RETURNDATASIZE PUSH1 0x0 DUP1 RETURNDATACOPY RETURNDATASIZE PUSH1 0x0 REVERT JUMPDEST POP POP POP POP PUSH1 0x40 MLOAD RETURNDATASIZE PUSH1 0x1F NOT PUSH1 0x1F DUP3 ADD AND DUP3 ADD DUP1 PUSH1 0x40 MSTORE POP DUP2 ADD SWAP1 PUSH2 0x21FD SWAP2 SWAP1 PUSH2 0x2BF4 JUMP JUMPDEST DUP5 PUSH2 0x2208 SWAP2 SWAP1 PUSH2 0x352A JUMP JUMPDEST PUSH2 0x2212 SWAP2 SWAP1 PUSH2 0x2ADF JUMP JUMPDEST DUP5 SWAP1 SHR AND EQ DUP6 PUSH1 0x4 ADD PUSH1 0x0 PUSH2 0x100 EXP DUP2 SLOAD DUP2 PUSH1 0xFF MUL NOT AND SWAP1 DUP4 ISZERO ISZERO MUL OR SWAP1 SSTORE POP PUSH1 0xF PUSH1 0x2 PUSH1 0x0 DUP1 SLOAD SWAP1 PUSH2 0x100 EXP SWAP1 DIV PUSH20 0xFFFFFFFFFFFFFFFFFFFFFFFFFFFFFFFFFFFFFFFF AND PUSH20 0xFFFFFFFFFFFFFFFFFFFFFFFFFFFFFFFFFFFFFFFF AND PUSH4 0xAE5C1356 PUSH1 0x40 MLOAD DUP2 PUSH4 0xFFFFFFFF AND PUSH1 0xE0 SHL DUP2 MSTORE PUSH1 0x4 ADD PUSH1 0x20 PUSH1 0x40 MLOAD DUP1 DUP4 SUB DUP2 DUP7 GAS STATICCALL ISZERO DUP1 ISZERO PUSH2 0x22A1 JUMPI RETURNDATASIZE PUSH1 0x0 DUP1 RETURNDATACOPY RETURNDATASIZE PUSH1 0x0 REVERT JUMPDEST POP POP POP POP PUSH1 0x40 MLOAD RETURNDATASIZE PUSH1 0x1F NOT PUSH1 0x1F DUP3 ADD AND DUP3 ADD DUP1 PUSH1 0x40 MSTORE POP DUP2 ADD SWAP1 PUSH2 0x22C5 SWAP2 SWAP1 PUSH2 0x2BF4 JUMP JUMPDEST DUP4 PUSH2 0x22D0 SWAP2 SWAP1 PUSH2 0x352A JUMP JUMPDEST PUSH2 0x22DA SWAP2 SWAP1 PUSH2 0x2ADF JUMP JUMPDEST DUP4 SWAP1 SHR AND DUP6 PUSH1 0x5 ADD DUP2 SWAP1 SSTORE POP POP POP POP POP POP POP POP POP JUMP JUMPDEST PUSH1 0x0 PUSH1 0x4 PUSH1 0x0 DUP4 DUP2 MSTORE PUSH1 0x20 ADD SWAP1 DUP2 MSTORE PUSH1 0x20 ADD PUSH1 0x0 KECCAK256 SWAP1 POP DUP2 PUSH1 0x5 PUSH1 0x0 PUSH2 0x515 DUP2 MSTORE PUSH1 0x20 ADD SWAP1 DUP2 MSTORE PUSH1 0x20 ADD PUSH1 0x0 KECCAK256 DUP2 SWAP1 SSTORE POP PUSH1 0x3 PUSH1 0xA DUP2 GT ISZERO PUSH2 0x2335 JUMPI PUSH2 0x2334 PUSH2 0x2973 JUMP JUMPDEST JUMPDEST DUP2 PUSH1 0x3 ADD PUSH1 0x0 SWAP1 SLOAD SWAP1 PUSH2 0x100 EXP SWAP1 DIV PUSH1 0xFF AND PUSH1 0xA DUP2 GT ISZERO PUSH2 0x2359 JUMPI PUSH2 0x2358 PUSH2 0x2973 JUMP JUMPDEST JUMPDEST POP POP PUSH32 0x58D4562CF15D1052E816FD24F6AF2C8A3A21416D6E4C01A9E11EF84FFE537E25 DUP3 DUP3 PUSH1 0x3 ADD PUSH1 0x0 SWAP1 SLOAD SWAP1 PUSH2 0x100 EXP SWAP1 DIV PUSH1 0xFF AND PUSH1 0x40 MLOAD PUSH2 0x239D SWAP3 SWAP2 SWAP1 PUSH2 0x2B13 JUMP JUMPDEST PUSH1 0x40 MLOAD DUP1 SWAP2 SUB SWAP1 LOG1 POP POP JUMP JUMPDEST PUSH1 0x0 PUSH1 0x4 PUSH1 0x0 PUSH1 0x5 PUSH1 0x0 DUP7 DUP2 MSTORE PUSH1 0x20 ADD SWAP1 DUP2 MSTORE PUSH1 0x20 ADD PUSH1 0x0 KECCAK256 SLOAD DUP2 MSTORE PUSH1 0x20 ADD SWAP1 DUP2 MSTORE PUSH1 0x20 ADD PUSH1 0x0 KECCAK256 SWAP1 POP DUP2 DUP2 PUSH1 0x0 ADD DUP2 SWAP1 SSTORE POP PUSH1 0x4 DUP2 PUSH1 0x3 ADD PUSH1 0x0 PUSH2 0x100 EXP DUP2 SLOAD DUP2 PUSH1 0xFF MUL NOT AND SWAP1 DUP4 PUSH1 0xA DUP2 GT ISZERO PUSH2 0x2404 JUMPI PUSH2 0x2403 PUSH2 0x2973 JUMP JUMPDEST JUMPDEST MUL OR SWAP1 SSTORE POP PUSH2 0x2447 PUSH1 0x40 MLOAD DUP1 PUSH1 0x40 ADD PUSH1 0x40 MSTORE DUP1 PUSH1 0x1B DUP2 MSTORE PUSH1 0x20 ADD PUSH32 0x66756C6C66696C5365656452657175657374202D2063616C6C65640000000000 DUP2 MSTORE POP PUSH2 0x24A9 JUMP JUMPDEST PUSH32 0x58D4562CF15D1052E816FD24F6AF2C8A3A21416D6E4C01A9E11EF84FFE537E25 PUSH1 0x5 PUSH1 0x0 DUP6 DUP2 MSTORE PUSH1 0x20 ADD SWAP1 DUP2 MSTORE PUSH1 0x20 ADD PUSH1 0x0 KECCAK256 SLOAD DUP3 PUSH1 0x3 ADD PUSH1 0x0 SWAP1 SLOAD SWAP1 PUSH2 0x100 EXP SWAP1 DIV PUSH1 0xFF AND PUSH1 0x40 MLOAD PUSH2 0x249C SWAP3 SWAP2 SWAP1 PUSH2 0x2B13 JUMP JUMPDEST PUSH1 0x40 MLOAD DUP1 SWAP2 SUB SWAP1 LOG1 POP POP POP JUMP JUMPDEST PUSH2 0x253F DUP2 PUSH1 0x40 MLOAD PUSH1 0x24 ADD PUSH2 0x24BD SWAP2 SWAP1 PUSH2 0x3762 JUMP JUMPDEST PUSH1 0x40 MLOAD PUSH1 0x20 DUP2 DUP4 SUB SUB DUP2 MSTORE SWAP1 PUSH1 0x40 MSTORE PUSH32 0x41304FAC00000000000000000000000000000000000000000000000000000000 PUSH28 0xFFFFFFFFFFFFFFFFFFFFFFFFFFFFFFFFFFFFFFFFFFFFFFFFFFFFFFFF NOT AND PUSH1 0x20 DUP3 ADD DUP1 MLOAD PUSH28 0xFFFFFFFFFFFFFFFFFFFFFFFFFFFFFFFFFFFFFFFFFFFFFFFFFFFFFFFF DUP4 DUP2 DUP4 AND OR DUP4 MSTORE POP POP POP POP PUSH2 0x25B5 JUMP JUMPDEST POP JUMP JUMPDEST PUSH1 0x0 PUSH1 0x9 PUSH1 0x0 DUP6 DUP2 MSTORE PUSH1 0x20 ADD SWAP1 DUP2 MSTORE PUSH1 0x20 ADD PUSH1 0x0 KECCAK256 PUSH1 0x0 PUSH1 0x6 PUSH1 0x0 DUP8 DUP2 MSTORE PUSH1 0x20 ADD SWAP1 DUP2 MSTORE PUSH1 0x20 ADD PUSH1 0x0 KECCAK256 SLOAD DUP2 MSTORE PUSH1 0x20 ADD SWAP1 DUP2 MSTORE PUSH1 0x20 ADD PUSH1 0x0 KECCAK256 DUP4 DUP2 SLOAD DUP2 LT PUSH2 0x258D JUMPI PUSH2 0x258C PUSH2 0x2A81 JUMP JUMPDEST JUMPDEST SWAP1 PUSH1 0x0 MSTORE PUSH1 0x20 PUSH1 0x0 KECCAK256 SWAP1 PUSH1 0x7 MUL ADD SWAP1 POP DUP2 DUP2 PUSH1 0x0 ADD SWAP1 DUP2 PUSH2 0x25AE SWAP2 SWAP1 PUSH2 0x3418 JUMP JUMPDEST POP POP POP POP POP JUMP JUMPDEST PUSH1 0x0 DUP2 MLOAD SWAP1 POP PUSH1 0x0 PUSH11 0x636F6E736F6C652E6C6F67 SWAP1 POP PUSH1 0x20 DUP4 ADD PUSH1 0x0 DUP1 DUP5 DUP4 DUP6 GAS STATICCALL POP POP POP POP POP JUMP JUMPDEST PUSH1 0x0 DUP2 SWAP1 POP SWAP2 SWAP1 POP JUMP JUMPDEST PUSH2 0x25F1 DUP2 PUSH2 0x25DE JUMP JUMPDEST DUP3 MSTORE POP POP JUMP JUMPDEST PUSH1 0x0 PUSH1 0x20 DUP3 ADD SWAP1 POP PUSH2 0x260C PUSH1 0x0 DUP4 ADD DUP5 PUSH2 0x25E8 JUMP JUMPDEST SWAP3 SWAP2 POP POP JUMP JUMPDEST PUSH1 0x0 PUSH1 0x40 MLOAD SWAP1 POP SWAP1 JUMP JUMPDEST PUSH1 0x0 DUP1 REVERT JUMPDEST PUSH1 0x0 DUP1 REVERT JUMPDEST PUSH2 0x262F DUP2 PUSH2 0x25DE JUMP JUMPDEST DUP2 EQ PUSH2 0x263A JUMPI PUSH1 0x0 DUP1 REVERT JUMPDEST POP JUMP JUMPDEST PUSH1 0x0 DUP2 CALLDATALOAD SWAP1 POP PUSH2 0x264C DUP2 PUSH2 0x2626 JUMP JUMPDEST SWAP3 SWAP2 POP POP JUMP JUMPDEST PUSH1 0x0 DUP1 PUSH1 0x0 PUSH1 0x60 DUP5 DUP7 SUB SLT ISZERO PUSH2 0x266B JUMPI PUSH2 0x266A PUSH2 0x261C JUMP JUMPDEST JUMPDEST PUSH1 0x0 PUSH2 0x2679 DUP7 DUP3 DUP8 ADD PUSH2 0x263D JUMP JUMPDEST SWAP4 POP POP PUSH1 0x20 PUSH2 0x268A DUP7 DUP3 DUP8 ADD PUSH2 0x263D JUMP JUMPDEST SWAP3 POP POP PUSH1 0x40 PUSH2 0x269B DUP7 DUP3 DUP8 ADD PUSH2 0x263D JUMP JUMPDEST SWAP2 POP POP SWAP3 POP SWAP3 POP SWAP3 JUMP JUMPDEST PUSH1 0x0 DUP2 MLOAD SWAP1 POP SWAP2 SWAP1 POP JUMP JUMPDEST PUSH1 0x0 DUP3 DUP3 MSTORE PUSH1 0x20 DUP3 ADD SWAP1 POP SWAP3 SWAP2 POP POP JUMP JUMPDEST PUSH1 0x0 JUMPDEST DUP4 DUP2 LT ISZERO PUSH2 0x26DF JUMPI DUP1 DUP3 ADD MLOAD DUP2 DUP5 ADD MSTORE PUSH1 0x20 DUP2 ADD SWAP1 POP PUSH2 0x26C4 JUMP JUMPDEST PUSH1 0x0 DUP5 DUP5 ADD MSTORE POP POP POP POP JUMP JUMPDEST PUSH1 0x0 PUSH1 0x1F NOT PUSH1 0x1F DUP4 ADD AND SWAP1 POP SWAP2 SWAP1 POP JUMP JUMPDEST PUSH1 0x0 PUSH2 0x2707 DUP3 PUSH2 0x26A5 JUMP JUMPDEST PUSH2 0x2711 DUP2 DUP6 PUSH2 0x26B0 JUMP JUMPDEST SWAP4 POP PUSH2 0x2721 DUP2 DUP6 PUSH1 0x20 DUP7 ADD PUSH2 0x26C1 JUMP JUMPDEST PUSH2 0x272A DUP2 PUSH2 0x26EB JUMP JUMPDEST DUP5 ADD SWAP2 POP POP SWAP3 SWAP2 POP POP JUMP JUMPDEST PUSH1 0x0 DUP2 ISZERO ISZERO SWAP1 POP SWAP2 SWAP1 POP JUMP JUMPDEST PUSH2 0x274A DUP2 PUSH2 0x2735 JUMP JUMPDEST DUP3 MSTORE POP POP JUMP JUMPDEST PUSH1 0x0 PUSH1 0xA0 DUP3 ADD SWAP1 POP DUP2 DUP2 SUB PUSH1 0x0 DUP4 ADD MSTORE PUSH2 0x276A DUP2 DUP9 PUSH2 0x26FC JUMP JUMPDEST SWAP1 POP DUP2 DUP2 SUB PUSH1 0x20 DUP4 ADD MSTORE PUSH2 0x277E DUP2 DUP8 PUSH2 0x26FC JUMP JUMPDEST SWAP1 POP PUSH2 0x278D PUSH1 0x40 DUP4 ADD DUP7 PUSH2 0x2741 JUMP JUMPDEST PUSH2 0x279A PUSH1 0x60 DUP4 ADD DUP6 PUSH2 0x25E8 JUMP JUMPDEST PUSH2 0x27A7 PUSH1 0x80 DUP4 ADD DUP5 PUSH2 0x2741 JUMP JUMPDEST SWAP7 SWAP6 POP POP POP POP POP POP JUMP JUMPDEST PUSH1 0x0 PUSH20 0xFFFFFFFFFFFFFFFFFFFFFFFFFFFFFFFFFFFFFFFF DUP3 AND SWAP1 POP SWAP2 SWAP1 POP JUMP JUMPDEST PUSH1 0x0 PUSH2 0x27DC DUP3 PUSH2 0x27B1 JUMP JUMPDEST SWAP1 POP SWAP2 SWAP1 POP JUMP JUMPDEST PUSH2 0x27EC DUP2 PUSH2 0x27D1 JUMP JUMPDEST DUP2 EQ PUSH2 0x27F7 JUMPI PUSH1 0x0 DUP1 REVERT JUMPDEST POP JUMP JUMPDEST PUSH1 0x0 DUP2 CALLDATALOAD SWAP1 POP PUSH2 0x2809 DUP2 PUSH2 0x27E3 JUMP JUMPDEST SWAP3 SWAP2 POP POP JUMP JUMPDEST PUSH1 0x0 DUP1 PUSH1 0x40 DUP4 DUP6 SUB SLT ISZERO PUSH2 0x2826 JUMPI PUSH2 0x2825 PUSH2 0x261C JUMP JUMPDEST JUMPDEST PUSH1 0x0 PUSH2 0x2834 DUP6 DUP3 DUP7 ADD PUSH2 0x27FA JUMP JUMPDEST SWAP3 POP POP PUSH1 0x20 PUSH2 0x2845 DUP6 DUP3 DUP7 ADD PUSH2 0x27FA JUMP JUMPDEST SWAP2 POP POP SWAP3 POP SWAP3 SWAP1 POP JUMP JUMPDEST PUSH1 0x0 PUSH1 0x20 DUP3 DUP5 SUB SLT ISZERO PUSH2 0x2865 JUMPI PUSH2 0x2864 PUSH2 0x261C JUMP JUMPDEST JUMPDEST PUSH1 0x0 PUSH2 0x2873 DUP5 DUP3 DUP6 ADD PUSH2 0x263D JUMP JUMPDEST SWAP2 POP POP SWAP3 SWAP2 POP POP JUMP JUMPDEST PUSH1 0x0 DUP1 PUSH1 0x0 PUSH1 0x60 DUP5 DUP7 SUB SLT ISZERO PUSH2 0x2895 JUMPI PUSH2 0x2894 PUSH2 0x261C JUMP JUMPDEST JUMPDEST PUSH1 0x0 PUSH2 0x28A3 DUP7 DUP3 DUP8 ADD PUSH2 0x263D JUMP JUMPDEST SWAP4 POP POP PUSH1 0x20 PUSH2 0x28B4 DUP7 DUP3 DUP8 ADD PUSH2 0x27FA JUMP JUMPDEST SWAP3 POP POP PUSH1 0x40 PUSH2 0x28C5 DUP7 DUP3 DUP8 ADD PUSH2 0x27FA JUMP JUMPDEST SWAP2 POP POP SWAP3 POP SWAP3 POP SWAP3 JUMP JUMPDEST PUSH1 0x0 DUP2 SWAP1 POP SWAP2 SWAP1 POP JUMP JUMPDEST PUSH1 0x0 PUSH2 0x28F4 PUSH2 0x28EF PUSH2 0x28EA DUP5 PUSH2 0x27B1 JUMP JUMPDEST PUSH2 0x28CF JUMP JUMPDEST PUSH2 0x27B1 JUMP JUMPDEST SWAP1 POP SWAP2 SWAP1 POP JUMP JUMPDEST PUSH1 0x0 PUSH2 0x2906 DUP3 PUSH2 0x28D9 JUMP JUMPDEST SWAP1 POP SWAP2 SWAP1 POP JUMP JUMPDEST PUSH1 0x0 PUSH2 0x2918 DUP3 PUSH2 0x28FB JUMP JUMPDEST SWAP1 POP SWAP2 SWAP1 POP JUMP JUMPDEST PUSH2 0x2928 DUP2 PUSH2 0x290D JUMP JUMPDEST DUP3 MSTORE POP POP JUMP JUMPDEST PUSH1 0x0 PUSH1 0x20 DUP3 ADD SWAP1 POP PUSH2 0x2943 PUSH1 0x0 DUP4 ADD DUP5 PUSH2 0x291F JUMP JUMPDEST SWAP3 SWAP2 POP POP JUMP JUMPDEST PUSH2 0x2952 DUP2 PUSH2 0x27D1 JUMP JUMPDEST DUP3 MSTORE POP POP JUMP JUMPDEST PUSH1 0x0 PUSH1 0x20 DUP3 ADD SWAP1 POP PUSH2 0x296D PUSH1 0x0 DUP4 ADD DUP5 PUSH2 0x2949 JUMP JUMPDEST SWAP3 SWAP2 POP POP JUMP JUMPDEST PUSH32 0x4E487B7100000000000000000000000000000000000000000000000000000000 PUSH1 0x0 MSTORE PUSH1 0x21 PUSH1 0x4 MSTORE PUSH1 0x24 PUSH1 0x0 REVERT JUMPDEST PUSH1 0xB DUP2 LT PUSH2 0x29B3 JUMPI PUSH2 0x29B2 PUSH2 0x2973 JUMP JUMPDEST JUMPDEST POP JUMP JUMPDEST PUSH1 0x0 DUP2 SWAP1 POP PUSH2 0x29C4 DUP3 PUSH2 0x29A2 JUMP JUMPDEST SWAP2 SWAP1 POP JUMP JUMPDEST PUSH1 0x0 PUSH2 0x29D4 DUP3 PUSH2 0x29B6 JUMP JUMPDEST SWAP1 POP SWAP2 SWAP1 POP JUMP JUMPDEST PUSH2 0x29E4 DUP2 PUSH2 0x29C9 JUMP JUMPDEST DUP3 MSTORE POP POP JUMP JUMPDEST PUSH1 0x0 PUSH1 0x60 DUP3 ADD SWAP1 POP PUSH2 0x29FF PUSH1 0x0 DUP4 ADD DUP7 PUSH2 0x25E8 JUMP JUMPDEST PUSH2 0x2A0C PUSH1 0x20 DUP4 ADD DUP6 PUSH2 0x29DB JUMP JUMPDEST PUSH2 0x2A19 PUSH1 0x40 DUP4 ADD DUP5 PUSH2 0x25E8 JUMP JUMPDEST SWAP5 SWAP4 POP POP POP POP JUMP JUMPDEST PUSH32 0x4E487B7100000000000000000000000000000000000000000000000000000000 PUSH1 0x0 MSTORE PUSH1 0x22 PUSH1 0x4 MSTORE PUSH1 0x24 PUSH1 0x0 REVERT JUMPDEST PUSH1 0x0 PUSH1 0x2 DUP3 DIV SWAP1 POP PUSH1 0x1 DUP3 AND DUP1 PUSH2 0x2A68 JUMPI PUSH1 0x7F DUP3 AND SWAP2 POP JUMPDEST PUSH1 0x20 DUP3 LT DUP2 SUB PUSH2 0x2A7B JUMPI PUSH2 0x2A7A PUSH2 0x2A21 JUMP JUMPDEST JUMPDEST POP SWAP2 SWAP1 POP JUMP JUMPDEST PUSH32 0x4E487B7100000000000000000000000000000000000000000000000000000000 PUSH1 0x0 MSTORE PUSH1 0x32 PUSH1 0x4 MSTORE PUSH1 0x24 PUSH1 0x0 REVERT JUMPDEST PUSH32 0x4E487B7100000000000000000000000000000000000000000000000000000000 PUSH1 0x0 MSTORE PUSH1 0x11 PUSH1 0x4 MSTORE PUSH1 0x24 PUSH1 0x0 REVERT JUMPDEST PUSH1 0x0 PUSH2 0x2AEA DUP3 PUSH2 0x25DE JUMP JUMPDEST SWAP2 POP PUSH2 0x2AF5 DUP4 PUSH2 0x25DE JUMP JUMPDEST SWAP3 POP DUP3 DUP3 ADD SWAP1 POP DUP1 DUP3 GT ISZERO PUSH2 0x2B0D JUMPI PUSH2 0x2B0C PUSH2 0x2AB0 JUMP JUMPDEST JUMPDEST SWAP3 SWAP2 POP POP JUMP JUMPDEST PUSH1 0x0 PUSH1 0x40 DUP3 ADD SWAP1 POP PUSH2 0x2B28 PUSH1 0x0 DUP4 ADD DUP6 PUSH2 0x25E8 JUMP JUMPDEST PUSH2 0x2B35 PUSH1 0x20 DUP4 ADD DUP5 PUSH2 0x29DB JUMP JUMPDEST SWAP4 SWAP3 POP POP POP JUMP JUMPDEST PUSH1 0x0 DUP3 DUP3 MSTORE PUSH1 0x20 DUP3 ADD SWAP1 POP SWAP3 SWAP2 POP POP JUMP JUMPDEST PUSH32 0x4552523A204D61746368206E6F7420696E20636F727265637420737461676520 PUSH1 0x0 DUP3 ADD MSTORE PUSH32 0x746F20726563656976652052657665616C732100000000000000000000000000 PUSH1 0x20 DUP3 ADD MSTORE POP JUMP JUMPDEST PUSH1 0x0 PUSH2 0x2BA9 PUSH1 0x33 DUP4 PUSH2 0x2B3C JUMP JUMPDEST SWAP2 POP PUSH2 0x2BB4 DUP3 PUSH2 0x2B4D JUMP JUMPDEST PUSH1 0x40 DUP3 ADD SWAP1 POP SWAP2 SWAP1 POP JUMP JUMPDEST PUSH1 0x0 PUSH1 0x20 DUP3 ADD SWAP1 POP DUP2 DUP2 SUB PUSH1 0x0 DUP4 ADD MSTORE PUSH2 0x2BD8 DUP2 PUSH2 0x2B9C JUMP JUMPDEST SWAP1 POP SWAP2 SWAP1 POP JUMP JUMPDEST PUSH1 0x0 DUP2 MLOAD SWAP1 POP PUSH2 0x2BEE DUP2 PUSH2 0x2626 JUMP JUMPDEST SWAP3 SWAP2 POP POP JUMP JUMPDEST PUSH1 0x0 PUSH1 0x20 DUP3 DUP5 SUB SLT ISZERO PUSH2 0x2C0A JUMPI PUSH2 0x2C09 PUSH2 0x261C JUMP JUMPDEST JUMPDEST PUSH1 0x0 PUSH2 0x2C18 DUP5 DUP3 DUP6 ADD PUSH2 0x2BDF JUMP JUMPDEST SWAP2 POP POP SWAP3 SWAP2 POP POP JUMP JUMPDEST PUSH2 0x2C2A DUP2 PUSH2 0x2735 JUMP JUMPDEST DUP2 EQ PUSH2 0x2C35 JUMPI PUSH1 0x0 DUP1 REVERT JUMPDEST POP JUMP JUMPDEST PUSH1 0x0 DUP2 MLOAD SWAP1 POP PUSH2 0x2C47 DUP2 PUSH2 0x2C21 JUMP JUMPDEST SWAP3 SWAP2 POP POP JUMP JUMPDEST PUSH1 0x0 PUSH1 0x20 DUP3 DUP5 SUB SLT ISZERO PUSH2 0x2C63 JUMPI PUSH2 0x2C62 PUSH2 0x261C JUMP JUMPDEST JUMPDEST PUSH1 0x0 PUSH2 0x2C71 DUP5 DUP3 DUP6 ADD PUSH2 0x2C38 JUMP JUMPDEST SWAP2 POP POP SWAP3 SWAP2 POP POP JUMP JUMPDEST PUSH32 0x4552523A204E6F7420616C6C207465616D732068617665206973737565642063 PUSH1 0x0 DUP3 ADD MSTORE PUSH32 0x6F6D6D69746D656E747321000000000000000000000000000000000000000000 PUSH1 0x20 DUP3 ADD MSTORE POP JUMP JUMPDEST PUSH1 0x0 PUSH2 0x2CD6 PUSH1 0x2B DUP4 PUSH2 0x2B3C JUMP JUMPDEST SWAP2 POP PUSH2 0x2CE1 DUP3 PUSH2 0x2C7A JUMP JUMPDEST PUSH1 0x40 DUP3 ADD SWAP1 POP SWAP2 SWAP1 POP JUMP JUMPDEST PUSH1 0x0 PUSH1 0x20 DUP3 ADD SWAP1 POP DUP2 DUP2 SUB PUSH1 0x0 DUP4 ADD MSTORE PUSH2 0x2D05 DUP2 PUSH2 0x2CC9 JUMP JUMPDEST SWAP1 POP SWAP2 SWAP1 POP JUMP JUMPDEST PUSH1 0x0 PUSH2 0x2D17 DUP3 PUSH2 0x25DE JUMP JUMPDEST SWAP2 POP PUSH32 0xFFFFFFFFFFFFFFFFFFFFFFFFFFFFFFFFFFFFFFFFFFFFFFFFFFFFFFFFFFFFFFFF DUP3 SUB PUSH2 0x2D49 JUMPI PUSH2 0x2D48 PUSH2 0x2AB0 JUMP JUMPDEST JUMPDEST PUSH1 0x1 DUP3 ADD SWAP1 POP SWAP2 SWAP1 POP JUMP JUMPDEST PUSH1 0x0 DUP1 REVERT JUMPDEST PUSH1 0x0 DUP1 REVERT JUMPDEST PUSH32 0x4E487B7100000000000000000000000000000000000000000000000000000000 PUSH1 0x0 MSTORE PUSH1 0x41 PUSH1 0x4 MSTORE PUSH1 0x24 PUSH1 0x0 REVERT JUMPDEST PUSH2 0x2D96 DUP3 PUSH2 0x26EB JUMP JUMPDEST DUP2 ADD DUP2 DUP2 LT PUSH8 0xFFFFFFFFFFFFFFFF DUP3 GT OR ISZERO PUSH2 0x2DB5 JUMPI PUSH2 0x2DB4 PUSH2 0x2D5E JUMP JUMPDEST JUMPDEST DUP1 PUSH1 0x40 MSTORE POP POP POP JUMP JUMPDEST PUSH1 0x0 PUSH2 0x2DC8 PUSH2 0x2612 JUMP JUMPDEST SWAP1 POP PUSH2 0x2DD4 DUP3 DUP3 PUSH2 0x2D8D JUMP JUMPDEST SWAP2 SWAP1 POP JUMP JUMPDEST PUSH1 0x0 PUSH8 0xFFFFFFFFFFFFFFFF DUP3 GT ISZERO PUSH2 0x2DF4 JUMPI PUSH2 0x2DF3 PUSH2 0x2D5E JUMP JUMPDEST JUMPDEST PUSH2 0x2DFD DUP3 PUSH2 0x26EB JUMP JUMPDEST SWAP1 POP PUSH1 0x20 DUP2 ADD SWAP1 POP SWAP2 SWAP1 POP JUMP JUMPDEST PUSH1 0x0 PUSH2 0x2E1D PUSH2 0x2E18 DUP5 PUSH2 0x2DD9 JUMP JUMPDEST PUSH2 0x2DBE JUMP JUMPDEST SWAP1 POP DUP3 DUP2 MSTORE PUSH1 0x20 DUP2 ADD DUP5 DUP5 DUP5 ADD GT ISZERO PUSH2 0x2E39 JUMPI PUSH2 0x2E38 PUSH2 0x2D59 JUMP JUMPDEST JUMPDEST PUSH2 0x2E44 DUP5 DUP3 DUP6 PUSH2 0x26C1 JUMP JUMPDEST POP SWAP4 SWAP3 POP POP POP JUMP JUMPDEST PUSH1 0x0 DUP3 PUSH1 0x1F DUP4 ADD SLT PUSH2 0x2E61 JUMPI PUSH2 0x2E60 PUSH2 0x2D54 JUMP JUMPDEST JUMPDEST DUP2 MLOAD PUSH2 0x2E71 DUP5 DUP3 PUSH1 0x20 DUP7 ADD PUSH2 0x2E0A JUMP JUMPDEST SWAP2 POP POP SWAP3 SWAP2 POP POP JUMP JUMPDEST PUSH1 0x0 PUSH1 0x20 DUP3 DUP5 SUB SLT ISZERO PUSH2 0x2E90 JUMPI PUSH2 0x2E8F PUSH2 0x261C JUMP JUMPDEST JUMPDEST PUSH1 0x0 DUP3 ADD MLOAD PUSH8 0xFFFFFFFFFFFFFFFF DUP2 GT ISZERO PUSH2 0x2EAE JUMPI PUSH2 0x2EAD PUSH2 0x2621 JUMP JUMPDEST JUMPDEST PUSH2 0x2EBA DUP5 DUP3 DUP6 ADD PUSH2 0x2E4C JUMP JUMPDEST SWAP2 POP POP SWAP3 SWAP2 POP POP JUMP JUMPDEST PUSH32 0x4552523A20596F752063616E206F6E6C79206A6F696E2061206E65776C792063 PUSH1 0x0 DUP3 ADD MSTORE PUSH32 0x726561746564206D617463682100000000000000000000000000000000000000 PUSH1 0x20 DUP3 ADD MSTORE POP JUMP JUMPDEST PUSH1 0x0 PUSH2 0x2F1F PUSH1 0x2D DUP4 PUSH2 0x2B3C JUMP JUMPDEST SWAP2 POP PUSH2 0x2F2A DUP3 PUSH2 0x2EC3 JUMP JUMPDEST PUSH1 0x40 DUP3 ADD SWAP1 POP SWAP2 SWAP1 POP JUMP JUMPDEST PUSH1 0x0 PUSH1 0x20 DUP3 ADD SWAP1 POP DUP2 DUP2 SUB PUSH1 0x0 DUP4 ADD MSTORE PUSH2 0x2F4E DUP2 PUSH2 0x2F12 JUMP JUMPDEST SWAP1 POP SWAP2 SWAP1 POP JUMP JUMPDEST PUSH32 0x4552523A204D61746368206E6F7420696E20636F727265637420737461676520 PUSH1 0x0 DUP3 ADD MSTORE PUSH32 0x746F20666574636820436F6D6D69746D656E7473210000000000000000000000 PUSH1 0x20 DUP3 ADD MSTORE POP JUMP JUMPDEST PUSH1 0x0 PUSH2 0x2FB1 PUSH1 0x35 DUP4 PUSH2 0x2B3C JUMP JUMPDEST SWAP2 POP PUSH2 0x2FBC DUP3 PUSH2 0x2F55 JUMP JUMPDEST PUSH1 0x40 DUP3 ADD SWAP1 POP SWAP2 SWAP1 POP JUMP JUMPDEST PUSH1 0x0 PUSH1 0x20 DUP3 ADD SWAP1 POP DUP2 DUP2 SUB PUSH1 0x0 DUP4 ADD MSTORE PUSH2 0x2FE0 DUP2 PUSH2 0x2FA4 JUMP JUMPDEST SWAP1 POP SWAP2 SWAP1 POP JUMP JUMPDEST PUSH32 0x4552523A204D61746368206E6F7420696E20636F727265637420737461676520 PUSH1 0x0 DUP3 ADD MSTORE PUSH32 0x746F207265636569766520436F6D6D69746D656E747321000000000000000000 PUSH1 0x20 DUP3 ADD MSTORE POP JUMP JUMPDEST PUSH1 0x0 PUSH2 0x3043 PUSH1 0x37 DUP4 PUSH2 0x2B3C JUMP JUMPDEST SWAP2 POP PUSH2 0x304E DUP3 PUSH2 0x2FE7 JUMP JUMPDEST PUSH1 0x40 DUP3 ADD SWAP1 POP SWAP2 SWAP1 POP JUMP JUMPDEST PUSH1 0x0 PUSH1 0x20 DUP3 ADD SWAP1 POP DUP2 DUP2 SUB PUSH1 0x0 DUP4 ADD MSTORE PUSH2 0x3072 DUP2 PUSH2 0x3036 JUMP JUMPDEST SWAP1 POP SWAP2 SWAP1 POP JUMP JUMPDEST PUSH32 0x4552523A204D61746368206E6F7420696E20636F727265637420737461676520 PUSH1 0x0 DUP3 ADD MSTORE PUSH32 0x746F206665746368205265617665616C73210000000000000000000000000000 PUSH1 0x20 DUP3 ADD MSTORE POP JUMP JUMPDEST PUSH1 0x0 PUSH2 0x30D5 PUSH1 0x32 DUP4 PUSH2 0x2B3C JUMP JUMPDEST SWAP2 POP PUSH2 0x30E0 DUP3 PUSH2 0x3079 JUMP JUMPDEST PUSH1 0x40 DUP3 ADD SWAP1 POP SWAP2 SWAP1 POP JUMP JUMPDEST PUSH1 0x0 PUSH1 0x20 DUP3 ADD SWAP1 POP DUP2 DUP2 SUB PUSH1 0x0 DUP4 ADD MSTORE PUSH2 0x3104 DUP2 PUSH2 0x30C8 JUMP JUMPDEST SWAP1 POP SWAP2 SWAP1 POP JUMP JUMPDEST PUSH1 0x0 DUP2 SWAP1 POP SWAP2 SWAP1 POP JUMP JUMPDEST PUSH2 0x311E DUP2 PUSH2 0x310B JUMP JUMPDEST DUP3 MSTORE POP POP JUMP JUMPDEST PUSH1 0x0 PUSH1 0x20 DUP3 ADD SWAP1 POP PUSH2 0x3139 PUSH1 0x0 DUP4 ADD DUP5 PUSH2 0x3115 JUMP JUMPDEST SWAP3 SWAP2 POP POP JUMP JUMPDEST PUSH1 0x0 DUP2 SWAP1 POP SWAP3 SWAP2 POP POP JUMP JUMPDEST PUSH1 0x0 DUP2 SWAP1 POP DUP2 PUSH1 0x0 MSTORE PUSH1 0x20 PUSH1 0x0 KECCAK256 SWAP1 POP SWAP2 SWAP1 POP JUMP JUMPDEST PUSH1 0x0 DUP2 SLOAD PUSH2 0x316C DUP2 PUSH2 0x2A50 JUMP JUMPDEST PUSH2 0x3176 DUP2 DUP7 PUSH2 0x313F JUMP JUMPDEST SWAP5 POP PUSH1 0x1 DUP3 AND PUSH1 0x0 DUP2 EQ PUSH2 0x3191 JUMPI PUSH1 0x1 DUP2 EQ PUSH2 0x31A6 JUMPI PUSH2 0x31D9 JUMP JUMPDEST PUSH1 0xFF NOT DUP4 AND DUP7 MSTORE DUP2 ISZERO ISZERO DUP3 MUL DUP7 ADD SWAP4 POP PUSH2 0x31D9 JUMP JUMPDEST PUSH2 0x31AF DUP6 PUSH2 0x314A JUMP JUMPDEST PUSH1 0x0 JUMPDEST DUP4 DUP2 LT ISZERO PUSH2 0x31D1 JUMPI DUP2 SLOAD DUP2 DUP10 ADD MSTORE PUSH1 0x1 DUP3 ADD SWAP2 POP PUSH1 0x20 DUP2 ADD SWAP1 POP PUSH2 0x31B2 JUMP JUMPDEST DUP4 DUP9 ADD SWAP6 POP POP POP JUMPDEST POP POP POP SWAP3 SWAP2 POP POP JUMP JUMPDEST PUSH1 0x0 PUSH2 0x31EE DUP3 DUP5 PUSH2 0x315F JUMP JUMPDEST SWAP2 POP DUP2 SWAP1 POP SWAP3 SWAP2 POP POP JUMP JUMPDEST PUSH32 0x4552523A2052657665616C20646F65736E277420636F72726573706F6E642074 PUSH1 0x0 DUP3 ADD MSTORE PUSH32 0x6F2074686520436F6D6D69746D656E7400000000000000000000000000000000 PUSH1 0x20 DUP3 ADD MSTORE POP JUMP JUMPDEST PUSH1 0x0 PUSH2 0x3255 PUSH1 0x30 DUP4 PUSH2 0x2B3C JUMP JUMPDEST SWAP2 POP PUSH2 0x3260 DUP3 PUSH2 0x31F9 JUMP JUMPDEST PUSH1 0x40 DUP3 ADD SWAP1 POP SWAP2 SWAP1 POP JUMP JUMPDEST PUSH1 0x0 PUSH1 0x20 DUP3 ADD SWAP1 POP DUP2 DUP2 SUB PUSH1 0x0 DUP4 ADD MSTORE PUSH2 0x3284 DUP2 PUSH2 0x3248 JUMP JUMPDEST SWAP1 POP SWAP2 SWAP1 POP JUMP JUMPDEST PUSH1 0x0 PUSH1 0x20 PUSH1 0x1F DUP4 ADD DIV SWAP1 POP SWAP2 SWAP1 POP JUMP JUMPDEST PUSH1 0x0 DUP3 DUP3 SHL SWAP1 POP SWAP3 SWAP2 POP POP JUMP JUMPDEST PUSH1 0x0 PUSH1 0x8 DUP4 MUL PUSH2 0x32D8 PUSH32 0xFFFFFFFFFFFFFFFFFFFFFFFFFFFFFFFFFFFFFFFFFFFFFFFFFFFFFFFFFFFFFFFF DUP3 PUSH2 0x329B JUMP JUMPDEST PUSH2 0x32E2 DUP7 DUP4 PUSH2 0x329B JUMP JUMPDEST SWAP6 POP DUP1 NOT DUP5 AND SWAP4 POP DUP1 DUP7 AND DUP5 OR SWAP3 POP POP POP SWAP4 SWAP3 POP POP POP JUMP JUMPDEST PUSH1 0x0 PUSH2 0x3315 PUSH2 0x3310 PUSH2 0x330B DUP5 PUSH2 0x25DE JUMP JUMPDEST PUSH2 0x28CF JUMP JUMPDEST PUSH2 0x25DE JUMP JUMPDEST SWAP1 POP SWAP2 SWAP1 POP JUMP JUMPDEST PUSH1 0x0 DUP2 SWAP1 POP SWAP2 SWAP1 POP JUMP JUMPDEST PUSH2 0x332F DUP4 PUSH2 0x32FA JUMP JUMPDEST PUSH2 0x3343 PUSH2 0x333B DUP3 PUSH2 0x331C JUMP JUMPDEST DUP5 DUP5 SLOAD PUSH2 0x32A8 JUMP JUMPDEST DUP3 SSTORE POP POP POP POP JUMP JUMPDEST PUSH1 0x0 SWAP1 JUMP JUMPDEST PUSH2 0x3358 PUSH2 0x334B JUMP JUMPDEST PUSH2 0x3363 DUP2 DUP5 DUP5 PUSH2 0x3326 JUMP JUMPDEST POP POP POP JUMP JUMPDEST JUMPDEST DUP2 DUP2 LT ISZERO PUSH2 0x3387 JUMPI PUSH2 0x337C PUSH1 0x0 DUP3 PUSH2 0x3350 JUMP JUMPDEST PUSH1 0x1 DUP2 ADD SWAP1 POP PUSH2 0x3369 JUMP JUMPDEST POP POP JUMP JUMPDEST PUSH1 0x1F DUP3 GT ISZERO PUSH2 0x33CC JUMPI PUSH2 0x339D DUP2 PUSH2 0x314A JUMP JUMPDEST PUSH2 0x33A6 DUP5 PUSH2 0x328B JUMP JUMPDEST DUP2 ADD PUSH1 0x20 DUP6 LT ISZERO PUSH2 0x33B5 JUMPI DUP2 SWAP1 POP JUMPDEST PUSH2 0x33C9 PUSH2 0x33C1 DUP6 PUSH2 0x328B JUMP JUMPDEST DUP4 ADD DUP3 PUSH2 0x3368 JUMP JUMPDEST POP POP JUMPDEST POP POP POP JUMP JUMPDEST PUSH1 0x0 DUP3 DUP3 SHR SWAP1 POP SWAP3 SWAP2 POP POP JUMP JUMPDEST PUSH1 0x0 PUSH2 0x33EF PUSH1 0x0 NOT DUP5 PUSH1 0x8 MUL PUSH2 0x33D1 JUMP JUMPDEST NOT DUP1 DUP4 AND SWAP2 POP POP SWAP3 SWAP2 POP POP JUMP JUMPDEST PUSH1 0x0 PUSH2 0x3408 DUP4 DUP4 PUSH2 0x33DE JUMP JUMPDEST SWAP2 POP DUP3 PUSH1 0x2 MUL DUP3 OR SWAP1 POP SWAP3 SWAP2 POP POP JUMP JUMPDEST PUSH2 0x3421 DUP3 PUSH2 0x26A5 JUMP JUMPDEST PUSH8 0xFFFFFFFFFFFFFFFF DUP2 GT ISZERO PUSH2 0x343A JUMPI PUSH2 0x3439 PUSH2 0x2D5E JUMP JUMPDEST JUMPDEST PUSH2 0x3444 DUP3 SLOAD PUSH2 0x2A50 JUMP JUMPDEST PUSH2 0x344F DUP3 DUP3 DUP6 PUSH2 0x338B JUMP JUMPDEST PUSH1 0x0 PUSH1 0x20 SWAP1 POP PUSH1 0x1F DUP4 GT PUSH1 0x1 DUP2 EQ PUSH2 0x3482 JUMPI PUSH1 0x0 DUP5 ISZERO PUSH2 0x3470 JUMPI DUP3 DUP8 ADD MLOAD SWAP1 POP JUMPDEST PUSH2 0x347A DUP6 DUP3 PUSH2 0x33FC JUMP JUMPDEST DUP7 SSTORE POP PUSH2 0x34E2 JUMP JUMPDEST PUSH1 0x1F NOT DUP5 AND PUSH2 0x3490 DUP7 PUSH2 0x314A JUMP JUMPDEST PUSH1 0x0 JUMPDEST DUP3 DUP2 LT ISZERO PUSH2 0x34B8 JUMPI DUP5 DUP10 ADD MLOAD DUP3 SSTORE PUSH1 0x1 DUP3 ADD SWAP2 POP PUSH1 0x20 DUP6 ADD SWAP5 POP PUSH1 0x20 DUP2 ADD SWAP1 POP PUSH2 0x3493 JUMP JUMPDEST DUP7 DUP4 LT ISZERO PUSH2 0x34D5 JUMPI DUP5 DUP10 ADD MLOAD PUSH2 0x34D1 PUSH1 0x1F DUP10 AND DUP3 PUSH2 0x33DE JUMP JUMPDEST DUP4 SSTORE POP JUMPDEST PUSH1 0x1 PUSH1 0x2 DUP9 MUL ADD DUP9 SSTORE POP POP POP JUMPDEST POP POP POP POP POP POP JUMP JUMPDEST PUSH1 0x0 DUP1 PUSH1 0x40 DUP4 DUP6 SUB SLT ISZERO PUSH2 0x3501 JUMPI PUSH2 0x3500 PUSH2 0x261C JUMP JUMPDEST JUMPDEST PUSH1 0x0 PUSH2 0x350F DUP6 DUP3 DUP7 ADD PUSH2 0x2BDF JUMP JUMPDEST SWAP3 POP POP PUSH1 0x20 PUSH2 0x3520 DUP6 DUP3 DUP7 ADD PUSH2 0x2BDF JUMP JUMPDEST SWAP2 POP POP SWAP3 POP SWAP3 SWAP1 POP JUMP JUMPDEST PUSH1 0x0 PUSH2 0x3535 DUP3 PUSH2 0x25DE JUMP JUMPDEST SWAP2 POP PUSH2 0x3540 DUP4 PUSH2 0x25DE JUMP JUMPDEST SWAP3 POP DUP3 DUP3 MUL PUSH2 0x354E DUP2 PUSH2 0x25DE JUMP JUMPDEST SWAP2 POP DUP3 DUP3 DIV DUP5 EQ DUP4 ISZERO OR PUSH2 0x3565 JUMPI PUSH2 0x3564 PUSH2 0x2AB0 JUMP JUMPDEST JUMPDEST POP SWAP3 SWAP2 POP POP JUMP JUMPDEST PUSH1 0x0 DUP2 PUSH1 0x1 SHR SWAP1 POP SWAP2 SWAP1 POP JUMP JUMPDEST PUSH1 0x0 DUP1 DUP3 SWAP2 POP DUP4 SWAP1 POP JUMPDEST PUSH1 0x1 DUP6 GT ISZERO PUSH2 0x35C3 JUMPI DUP1 DUP7 DIV DUP2 GT ISZERO PUSH2 0x359F JUMPI PUSH2 0x359E PUSH2 0x2AB0 JUMP JUMPDEST JUMPDEST PUSH1 0x1 DUP6 AND ISZERO PUSH2 0x35AE JUMPI DUP1 DUP3 MUL SWAP2 POP JUMPDEST DUP1 DUP2 MUL SWAP1 POP PUSH2 0x35BC DUP6 PUSH2 0x356C JUMP JUMPDEST SWAP5 POP PUSH2 0x3583 JUMP JUMPDEST SWAP5 POP SWAP5 SWAP3 POP POP POP JUMP JUMPDEST PUSH1 0x0 DUP3 PUSH2 0x35DC JUMPI PUSH1 0x1 SWAP1 POP PUSH2 0x3698 JUMP JUMPDEST DUP2 PUSH2 0x35EA JUMPI PUSH1 0x0 SWAP1 POP PUSH2 0x3698 JUMP JUMPDEST DUP2 PUSH1 0x1 DUP2 EQ PUSH2 0x3600 JUMPI PUSH1 0x2 DUP2 EQ PUSH2 0x360A JUMPI PUSH2 0x3639 JUMP JUMPDEST PUSH1 0x1 SWAP2 POP POP PUSH2 0x3698 JUMP JUMPDEST PUSH1 0xFF DUP5 GT ISZERO PUSH2 0x361C JUMPI PUSH2 0x361B PUSH2 0x2AB0 JUMP JUMPDEST JUMPDEST DUP4 PUSH1 0x2 EXP SWAP2 POP DUP5 DUP3 GT ISZERO PUSH2 0x3633 JUMPI PUSH2 0x3632 PUSH2 0x2AB0 JUMP JUMPDEST JUMPDEST POP PUSH2 0x3698 JUMP JUMPDEST POP PUSH1 0x20 DUP4 LT PUSH2 0x133 DUP4 LT AND PUSH1 0x4E DUP5 LT PUSH1 0xB DUP5 LT AND OR ISZERO PUSH2 0x366E JUMPI DUP3 DUP3 EXP SWAP1 POP DUP4 DUP2 GT ISZERO PUSH2 0x3669 JUMPI PUSH2 0x3668 PUSH2 0x2AB0 JUMP JUMPDEST JUMPDEST PUSH2 0x3698 JUMP JUMPDEST PUSH2 0x367B DUP5 DUP5 DUP5 PUSH1 0x1 PUSH2 0x3579 JUMP JUMPDEST SWAP3 POP SWAP1 POP DUP2 DUP5 DIV DUP2 GT ISZERO PUSH2 0x3692 JUMPI PUSH2 0x3691 PUSH2 0x2AB0 JUMP JUMPDEST JUMPDEST DUP2 DUP2 MUL SWAP1 POP JUMPDEST SWAP4 SWAP3 POP POP POP JUMP JUMPDEST PUSH1 0x0 PUSH2 0x36AA DUP3 PUSH2 0x25DE JUMP JUMPDEST SWAP2 POP PUSH2 0x36B5 DUP4 PUSH2 0x25DE JUMP JUMPDEST SWAP3 POP PUSH2 0x36E2 PUSH32 0xFFFFFFFFFFFFFFFFFFFFFFFFFFFFFFFFFFFFFFFFFFFFFFFFFFFFFFFFFFFFFFFF DUP5 DUP5 PUSH2 0x35CC JUMP JUMPDEST SWAP1 POP SWAP3 SWAP2 POP POP JUMP JUMPDEST PUSH1 0x0 PUSH2 0x36F5 DUP3 PUSH2 0x25DE JUMP JUMPDEST SWAP2 POP PUSH2 0x3700 DUP4 PUSH2 0x25DE JUMP JUMPDEST SWAP3 POP DUP3 DUP3 SUB SWAP1 POP DUP2 DUP2 GT ISZERO PUSH2 0x3718 JUMPI PUSH2 0x3717 PUSH2 0x2AB0 JUMP JUMPDEST JUMPDEST SWAP3 SWAP2 POP POP JUMP JUMPDEST PUSH1 0x0 DUP2 MLOAD SWAP1 POP SWAP2 SWAP1 POP JUMP JUMPDEST PUSH1 0x0 PUSH2 0x3734 DUP3 PUSH2 0x371E JUMP JUMPDEST PUSH2 0x373E DUP2 DUP6 PUSH2 0x2B3C JUMP JUMPDEST SWAP4 POP PUSH2 0x374E DUP2 DUP6 PUSH1 0x20 DUP7 ADD PUSH2 0x26C1 JUMP JUMPDEST PUSH2 0x3757 DUP2 PUSH2 0x26EB JUMP JUMPDEST DUP5 ADD SWAP2 POP POP SWAP3 SWAP2 POP POP JUMP JUMPDEST PUSH1 0x0 PUSH1 0x20 DUP3 ADD SWAP1 POP DUP2 DUP2 SUB PUSH1 0x0 DUP4 ADD MSTORE PUSH2 0x377C DUP2 DUP5 PUSH2 0x3729 JUMP JUMPDEST SWAP1 POP SWAP3 SWAP2 POP POP JUMP INVALID PUSH4 0x6F6D6D69 PUSH21 0x6D656E745469636B43616C6C6564202D2070617373 PUSH6 0x642072657175 PUSH10 0x72656D656E74A2646970 PUSH7 0x73582212208CFC PUSH27 0x9FDBB086ED707707D4E2D76D7ADE4B09987D4FF2C33FAF78992469 PUSH19 0x2F64736F6C6343000812003360806040523480 ISZERO PUSH2 0x10 JUMPI PUSH1 0x0 DUP1 REVERT JUMPDEST POP PUSH2 0x26D DUP1 PUSH2 0x20 PUSH1 0x0 CODECOPY PUSH1 0x0 RETURN INVALID PUSH1 0x80 PUSH1 0x40 MSTORE CALLVALUE DUP1 ISZERO PUSH2 0x10 JUMPI PUSH1 0x0 DUP1 REVERT JUMPDEST POP PUSH1 0x4 CALLDATASIZE LT PUSH2 0x9E JUMPI PUSH1 0x0 CALLDATALOAD PUSH1 0xE0 SHR DUP1 PUSH4 0x705DD6CD GT PUSH2 0x66 JUMPI DUP1 PUSH4 0x705DD6CD EQ PUSH2 0x139 JUMPI DUP1 PUSH4 0x734692A9 EQ PUSH2 0x157 JUMPI DUP1 PUSH4 0xAE5C1356 EQ PUSH2 0x175 JUMPI DUP1 PUSH4 0xC8067B6F EQ PUSH2 0x193 JUMPI DUP1 PUSH4 0xE3C8BFB9 EQ PUSH2 0x1B1 JUMPI PUSH2 0x9E JUMP JUMPDEST DUP1 PUSH4 0x124A96C8 EQ PUSH2 0xA3 JUMPI DUP1 PUSH4 0x39FEBF0C EQ PUSH2 0xC1 JUMPI DUP1 PUSH4 0x45BAEE55 EQ PUSH2 0xDF JUMPI DUP1 PUSH4 0x49BBC37A EQ PUSH2 0xFD JUMPI DUP1 PUSH4 0x4FFDF11E EQ PUSH2 0x11B JUMPI JUMPDEST PUSH1 0x0 DUP1 REVERT JUMPDEST PUSH2 0xAB PUSH2 0x1CF JUMP JUMPDEST PUSH1 0x40 MLOAD PUSH2 0xB8 SWAP2 SWAP1 PUSH2 0x21C JUMP JUMPDEST PUSH1 0x40 MLOAD DUP1 SWAP2 SUB SWAP1 RETURN JUMPDEST PUSH2 0xC9 PUSH2 0x1D5 JUMP JUMPDEST PUSH1 0x40 MLOAD PUSH2 0xD6 SWAP2 SWAP1 PUSH2 0x21C JUMP JUMPDEST PUSH1 0x40 MLOAD DUP1 SWAP2 SUB SWAP1 RETURN JUMPDEST PUSH2 0xE7 PUSH2 0x1DA JUMP JUMPDEST PUSH1 0x40 MLOAD PUSH2 0xF4 SWAP2 SWAP1 PUSH2 0x21C JUMP JUMPDEST PUSH1 0x40 MLOAD DUP1 SWAP2 SUB SWAP1 RETURN JUMPDEST PUSH2 0x105 PUSH2 0x1DF JUMP JUMPDEST PUSH1 0x40 MLOAD PUSH2 0x112 SWAP2 SWAP1 PUSH2 0x21C JUMP JUMPDEST PUSH1 0x40 MLOAD DUP1 SWAP2 SUB SWAP1 RETURN JUMPDEST PUSH2 0x123 PUSH2 0x1E5 JUMP JUMPDEST PUSH1 0x40 MLOAD PUSH2 0x130 SWAP2 SWAP1 PUSH2 0x21C JUMP JUMPDEST PUSH1 0x40 MLOAD DUP1 SWAP2 SUB SWAP1 RETURN JUMPDEST PUSH2 0x141 PUSH2 0x1EA JUMP JUMPDEST PUSH1 0x40 MLOAD PUSH2 0x14E SWAP2 SWAP1 PUSH2 0x21C JUMP JUMPDEST PUSH1 0x40 MLOAD DUP1 SWAP2 SUB SWAP1 RETURN JUMPDEST PUSH2 0x15F PUSH2 0x1EF JUMP JUMPDEST PUSH1 0x40 MLOAD PUSH2 0x16C SWAP2 SWAP1 PUSH2 0x21C JUMP JUMPDEST PUSH1 0x40 MLOAD DUP1 SWAP2 SUB SWAP1 RETURN JUMPDEST PUSH2 0x17D PUSH2 0x1F4 JUMP JUMPDEST PUSH1 0x40 MLOAD PUSH2 0x18A SWAP2 SWAP1 PUSH2 0x21C JUMP JUMPDEST PUSH1 0x40 MLOAD DUP1 SWAP2 SUB SWAP1 RETURN JUMPDEST PUSH2 0x19B PUSH2 0x1F9 JUMP JUMPDEST PUSH1 0x40 MLOAD PUSH2 0x1A8 SWAP2 SWAP1 PUSH2 0x21C JUMP JUMPDEST PUSH1 0x40 MLOAD DUP1 SWAP2 SUB SWAP1 RETURN JUMPDEST PUSH2 0x1B9 PUSH2 0x1FE JUMP JUMPDEST PUSH1 0x40 MLOAD PUSH2 0x1C6 SWAP2 SWAP1 PUSH2 0x21C JUMP JUMPDEST PUSH1 0x40 MLOAD DUP1 SWAP2 SUB SWAP1 RETURN JUMPDEST PUSH2 0x1F4 DUP2 JUMP JUMPDEST PUSH1 0x5 DUP2 JUMP JUMPDEST PUSH1 0x7 DUP2 JUMP JUMPDEST PUSH2 0x3E8 DUP2 JUMP JUMPDEST PUSH1 0x6 DUP2 JUMP JUMPDEST PUSH1 0xA DUP2 JUMP JUMPDEST PUSH1 0x7 DUP2 JUMP JUMPDEST PUSH1 0xA DUP2 JUMP JUMPDEST PUSH1 0x5 DUP2 JUMP JUMPDEST PUSH1 0x2 DUP2 JUMP JUMPDEST PUSH1 0x0 DUP2 SWAP1 POP SWAP2 SWAP1 POP JUMP JUMPDEST PUSH2 0x216 DUP2 PUSH2 0x203 JUMP JUMPDEST DUP3 MSTORE POP POP JUMP JUMPDEST PUSH1 0x0 PUSH1 0x20 DUP3 ADD SWAP1 POP PUSH2 0x231 PUSH1 0x0 DUP4 ADD DUP5 PUSH2 0x20D JUMP JUMPDEST SWAP3 SWAP2 POP POP JUMP INVALID LOG2 PUSH5 0x6970667358 0x22 SLT KECCAK256 ADD 0xD9 0xD8 PUSH12 0x524B072C82851D2DA1AF5686 ADD 0xB9 SWAP2 0xB5 EXTCODEHASH PUSH26 0xE36A726E5478A595E9964736F6C634300081200330000000000 "},"methodIdentifiers":{"commitmentTick(uint256)":"5cd6925a","constants()":"72de5b2f","createMatch(address,address)":"1e20530a","getProgression(uint256,uint256)":"44c1dc78","getTeamStateProgression(uint256,uint256,uint256)":"d63c8b2d","joinMatch(uint256,address,address)":"35868ab7","logic()":"d7dfa0dd","manager()":"481c6a75","matchCounter()":"01fd1951","matchIdToMatchStateId(uint256)":"755f10fd","matchInfo(uint256)":"d79b490e","revealTick(uint256)":"f9781033","seedRequestIdMatchId(uint256)":"37c74779","stateUpdate(uint256)":"e5bcd450","teamMove(uint256,uint256,uint256)":"1b7d40a5","ticker()":"8ba47bdd","updateCommitmentInfo(uint256)":"90ede5d5","updateRevealInfo(uint256)":"27764f7d"}}}}}