{"contracts/mockups/RevealChainlinkFunctionConsumer.sol":{"RevealChainlinkFunctionConsumer":{"abi":[{"inputs":[],"stateMutability":"nonpayable","type":"constructor"},{"inputs":[],"name":"copyData","outputs":[{"internalType":"bytes","name":"","type":"bytes"}],"stateMutability":"nonpayable","type":"function"},{"inputs":[],"name":"dataHasBeenRead","outputs":[{"internalType":"bool","name":"","type":"bool"}],"stateMutability":"view","type":"function"},{"inputs":[],"name":"dataIsReady","outputs":[{"internalType":"bool","name":"","type":"bool"}],"stateMutability":"view","type":"function"},{"inputs":[],"name":"requestData","outputs":[],"stateMutability":"nonpayable","type":"function"},{"inputs":[{"internalType":"uint256","name":"seed","type":"uint256"}],"name":"updateData","outputs":[],"stateMutability":"nonpayable","type":"function"}],"evm":{"bytecode":{"linkReferences":{},"object":"60806040526000600260006101000a81548160ff0219169083151502179055506001600260016101000a81548160ff0219169083151502179055503480156200004757600080fd5b506200005a607b6200006060201b60201c565b62000729565b60006040518061014001604052806007846200007d919062000201565b60ff1660ff16815260200160478462000097919062000201565b60ff1660ff168152602001601184620000b1919062000201565b60ff1660ff168152602001600d84620000cb919062000201565b60ff1660ff168152602001603384620000e5919062000201565b60ff1660ff168152602001600c84620000ff919062000201565b60ff1660ff16815260200160398462000119919062000201565b60ff1660ff16815260200160338462000133919062000201565b60ff1660ff168152602001602a846200014d919062000201565b60ff1660ff16815260200160138462000167919062000201565b60ff1660ff1681525090508060405160200162000185919062000301565b60405160208183030381529060405260009081620001a491906200058f565b506000604051620001b6919062000710565b60405180910390206001819055505050565b6000819050919050565b7f4e487b7100000000000000000000000000000000000000000000000000000000600052601260045260246000fd5b60006200020e82620001c8565b91506200021b83620001c8565b9250826200022e576200022d620001d2565b5b828206905092915050565b6000600a9050919050565b600081905092915050565b6000819050919050565b600060ff82169050919050565b620002718162000259565b82525050565b600062000285838362000266565b60208301905092915050565b6000602082019050919050565b620002a98162000239565b620002b5818462000244565b9250620002c2826200024f565b8060005b83811015620002f9578151620002dd878262000277565b9650620002ea8362000291565b925050600181019050620002c6565b505050505050565b6000610140820190506200031960008301846200029e565b92915050565b600081519050919050565b7f4e487b7100000000000000000000000000000000000000000000000000000000600052604160045260246000fd5b7f4e487b7100000000000000000000000000000000000000000000000000000000600052602260045260246000fd5b60006002820490506001821680620003a157607f821691505b602082108103620003b757620003b662000359565b5b50919050565b60008190508160005260206000209050919050565b60006020601f8301049050919050565b600082821b905092915050565b600060088302620004217fffffffffffffffffffffffffffffffffffffffffffffffffffffffffffffffff82620003e2565b6200042d8683620003e2565b95508019841693508086168417925050509392505050565b6000819050919050565b6000620004706200046a6200046484620001c8565b62000445565b620001c8565b9050919050565b6000819050919050565b6200048c836200044f565b620004a46200049b8262000477565b848454620003ef565b825550505050565b600090565b620004bb620004ac565b620004c881848462000481565b505050565b5b81811015620004f057620004e4600082620004b1565b600181019050620004ce565b5050565b601f8211156200053f576200050981620003bd565b6200051484620003d2565b8101602085101562000524578190505b6200053c6200053385620003d2565b830182620004cd565b50505b505050565b600082821c905092915050565b6000620005646000198460080262000544565b1980831691505092915050565b60006200057f838362000551565b9150826002028217905092915050565b6200059a826200031f565b67ffffffffffffffff811115620005b657620005b56200032a565b5b620005c2825462000388565b620005cf828285620004f4565b600060209050601f831160018114620006075760008415620005f2578287015190505b620005fe858262000571565b8655506200066e565b601f1984166200061786620003bd565b60005b8281101562000641578489015182556001820191506020850194506020810190506200061a565b868310156200066157848901516200065d601f89168262000551565b8355505b6001600288020188555050505b505050505050565b600081905092915050565b60008154620006908162000388565b6200069c818662000676565b94506001821660008114620006ba5760018114620006d05762000707565b60ff198316865281151582028601935062000707565b620006db85620003bd565b60005b83811015620006ff57815481890152600182019150602081019050620006de565b838801955050505b50505092915050565b60006200071e828462000681565b915081905092915050565b610ab580620007396000396000f3fe608060405234801561001057600080fd5b50600436106100575760003560e01c8063036279591461005c57806309e960081461007a5780632f703e0814610096578063606deecd146100b4578063cce71063146100be575b600080fd5b6100646100dc565b60405161007191906103c1565b60405180910390f35b610094600480360381019061008f9190610417565b6100ef565b005b61009e61023d565b6040516100ab91906104d4565b60405180910390f35b6100bc610305565b005b6100c6610393565b6040516100d391906103c1565b60405180910390f35b600260019054906101000a900460ff1681565b600060405180610140016040528060078461010a9190610525565b60ff1660ff1681526020016047846101229190610525565b60ff1660ff16815260200160118461013a9190610525565b60ff1660ff168152602001600d846101529190610525565b60ff1660ff16815260200160338461016a9190610525565b60ff1660ff168152602001600c846101829190610525565b60ff1660ff16815260200160398461019a9190610525565b60ff1660ff1681526020016033846101b29190610525565b60ff1660ff168152602001602a846101ca9190610525565b60ff1660ff1681526020016013846101e29190610525565b60ff1660ff168152509050806040516020016101fe919061060e565b6040516020818303038152906040526000908161021b9190610865565b50600060405161022b91906109c5565b60405180910390206001819055505050565b60606001600260016101000a81548160ff0219169083151502179055506000600260006101000a81548160ff0219169083151502179055506000805461028290610688565b80601f01602080910402602001604051908101604052809291908181526020018280546102ae90610688565b80156102fb5780601f106102d0576101008083540402835291602001916102fb565b820191906000526020600020905b8154815290600101906020018083116102de57829003601f168201915b5050505050905090565b60011515600260019054906101000a900460ff1615151461035b576040517f08c379a000000000000000000000000000000000000000000000000000000000815260040161035290610a5f565b60405180910390fd5b6001600260006101000a81548160ff0219169083151502179055506000600260016101000a81548160ff021916908315150217905550565b600260009054906101000a900460ff1681565b60008115159050919050565b6103bb816103a6565b82525050565b60006020820190506103d660008301846103b2565b92915050565b600080fd5b6000819050919050565b6103f4816103e1565b81146103ff57600080fd5b50565b600081359050610411816103eb565b92915050565b60006020828403121561042d5761042c6103dc565b5b600061043b84828501610402565b91505092915050565b600081519050919050565b600082825260208201905092915050565b60005b8381101561047e578082015181840152602081019050610463565b60008484015250505050565b6000601f19601f8301169050919050565b60006104a682610444565b6104b0818561044f565b93506104c0818560208601610460565b6104c98161048a565b840191505092915050565b600060208201905081810360008301526104ee818461049b565b905092915050565b7f4e487b7100000000000000000000000000000000000000000000000000000000600052601260045260246000fd5b6000610530826103e1565b915061053b836103e1565b92508261054b5761054a6104f6565b5b828206905092915050565b6000600a9050919050565b600081905092915050565b6000819050919050565b600060ff82169050919050565b61058c81610576565b82525050565b600061059e8383610583565b60208301905092915050565b6000602082019050919050565b6105c081610556565b6105ca8184610561565b92506105d58261056c565b8060005b838110156106065781516105ed8782610592565b96506105f8836105aa565b9250506001810190506105d9565b505050505050565b60006101408201905061062460008301846105b7565b92915050565b7f4e487b7100000000000000000000000000000000000000000000000000000000600052604160045260246000fd5b7f4e487b7100000000000000000000000000000000000000000000000000000000600052602260045260246000fd5b600060028204905060018216806106a057607f821691505b6020821081036106b3576106b2610659565b5b50919050565b60008190508160005260206000209050919050565b60006020601f8301049050919050565b600082821b905092915050565b60006008830261071b7fffffffffffffffffffffffffffffffffffffffffffffffffffffffffffffffff826106de565b61072586836106de565b95508019841693508086168417925050509392505050565b6000819050919050565b600061076261075d610758846103e1565b61073d565b6103e1565b9050919050565b6000819050919050565b61077c83610747565b61079061078882610769565b8484546106eb565b825550505050565b600090565b6107a5610798565b6107b0818484610773565b505050565b5b818110156107d4576107c960008261079d565b6001810190506107b6565b5050565b601f821115610819576107ea816106b9565b6107f3846106ce565b81016020851015610802578190505b61081661080e856106ce565b8301826107b5565b50505b505050565b600082821c905092915050565b600061083c6000198460080261081e565b1980831691505092915050565b6000610855838361082b565b9150826002028217905092915050565b61086e82610444565b67ffffffffffffffff8111156108875761088661062a565b5b6108918254610688565b61089c8282856107d8565b600060209050601f8311600181146108cf57600084156108bd578287015190505b6108c78582610849565b86555061092f565b601f1984166108dd866106b9565b60005b82811015610905578489015182556001820191506020850194506020810190506108e0565b86831015610922578489015161091e601f89168261082b565b8355505b6001600288020188555050505b505050505050565b600081905092915050565b6000815461094f81610688565b6109598186610937565b945060018216600081146109745760018114610989576109bc565b60ff19831686528115158202860193506109bc565b610992856106b9565b60005b838110156109b457815481890152600182019150602081019050610995565b838801955050505b50505092915050565b60006109d18284610942565b915081905092915050565b600082825260208201905092915050565b7f4552523a2050726576696f7573206461746120686173206e6f74206265656e2060008201527f7265616421000000000000000000000000000000000000000000000000000000602082015250565b6000610a496025836109dc565b9150610a54826109ed565b604082019050919050565b60006020820190508181036000830152610a7881610a3c565b905091905056fea2646970667358221220b695d60830dff808e1542b5385d5ee18624b34c2295807b06bb4736b632dabbf64736f6c63430008120033","opcodes":"PUSH1 0x80 PUSH1 0x40 MSTORE PUSH1 0x0 PUSH1 0x2 PUSH1 0x0 PUSH2 0x100 EXP DUP2 SLOAD DUP2 PUSH1 0xFF MUL NOT AND SWAP1 DUP4 ISZERO ISZERO MUL OR SWAP1 SSTORE POP PUSH1 0x1 PUSH1 0x2 PUSH1 0x1 PUSH2 0x100 EXP DUP2 SLOAD DUP2 PUSH1 0xFF MUL NOT AND SWAP1 DUP4 ISZERO ISZERO MUL OR SWAP1 SSTORE POP CALLVALUE DUP1 ISZERO PUSH3 0x47 JUMPI PUSH1 0x0 DUP1 REVERT JUMPDEST POP PUSH3 0x5A PUSH1 0x7B PUSH3 0x60 PUSH1 0x20 SHL PUSH1 0x20 SHR JUMP JUMPDEST PUSH3 0x729 JUMP JUMPDEST PUSH1 0x0 PUSH1 0x40 MLOAD DUP1 PUSH2 0x140 ADD PUSH1 0x40 MSTORE DUP1 PUSH1 0x7 DUP5 PUSH3 0x7D SWAP2 SWAP1 PUSH3 0x201 JUMP JUMPDEST PUSH1 0xFF AND PUSH1 0xFF AND DUP2 MSTORE PUSH1 0x20 ADD PUSH1 0x47 DUP5 PUSH3 0x97 SWAP2 SWAP1 PUSH3 0x201 JUMP JUMPDEST PUSH1 0xFF AND PUSH1 0xFF AND DUP2 MSTORE PUSH1 0x20 ADD PUSH1 0x11 DUP5 PUSH3 0xB1 SWAP2 SWAP1 PUSH3 0x201 JUMP JUMPDEST PUSH1 0xFF AND PUSH1 0xFF AND DUP2 MSTORE PUSH1 0x20 ADD PUSH1 0xD DUP5 PUSH3 0xCB SWAP2 SWAP1 PUSH3 0x201 JUMP JUMPDEST PUSH1 0xFF AND PUSH1 0xFF AND DUP2 MSTORE PUSH1 0x20 ADD PUSH1 0x33 DUP5 PUSH3 0xE5 SWAP2 SWAP1 PUSH3 0x201 JUMP JUMPDEST PUSH1 0xFF AND PUSH1 0xFF AND DUP2 MSTORE PUSH1 0x20 ADD PUSH1 0xC DUP5 PUSH3 0xFF SWAP2 SWAP1 PUSH3 0x201 JUMP JUMPDEST PUSH1 0xFF AND PUSH1 0xFF AND DUP2 MSTORE PUSH1 0x20 ADD PUSH1 0x39 DUP5 PUSH3 0x119 SWAP2 SWAP1 PUSH3 0x201 JUMP JUMPDEST PUSH1 0xFF AND PUSH1 0xFF AND DUP2 MSTORE PUSH1 0x20 ADD PUSH1 0x33 DUP5 PUSH3 0x133 SWAP2 SWAP1 PUSH3 0x201 JUMP JUMPDEST PUSH1 0xFF AND PUSH1 0xFF AND DUP2 MSTORE PUSH1 0x20 ADD PUSH1 0x2A DUP5 PUSH3 0x14D SWAP2 SWAP1 PUSH3 0x201 JUMP JUMPDEST PUSH1 0xFF AND PUSH1 0xFF AND DUP2 MSTORE PUSH1 0x20 ADD PUSH1 0x13 DUP5 PUSH3 0x167 SWAP2 SWAP1 PUSH3 0x201 JUMP JUMPDEST PUSH1 0xFF AND PUSH1 0xFF AND DUP2 MSTORE POP SWAP1 POP DUP1 PUSH1 0x40 MLOAD PUSH1 0x20 ADD PUSH3 0x185 SWAP2 SWAP1 PUSH3 0x301 JUMP JUMPDEST PUSH1 0x40 MLOAD PUSH1 0x20 DUP2 DUP4 SUB SUB DUP2 MSTORE SWAP1 PUSH1 0x40 MSTORE PUSH1 0x0 SWAP1 DUP2 PUSH3 0x1A4 SWAP2 SWAP1 PUSH3 0x58F JUMP JUMPDEST POP PUSH1 0x0 PUSH1 0x40 MLOAD PUSH3 0x1B6 SWAP2 SWAP1 PUSH3 0x710 JUMP JUMPDEST PUSH1 0x40 MLOAD DUP1 SWAP2 SUB SWAP1 KECCAK256 PUSH1 0x1 DUP2 SWAP1 SSTORE POP POP POP JUMP JUMPDEST PUSH1 0x0 DUP2 SWAP1 POP SWAP2 SWAP1 POP JUMP JUMPDEST PUSH32 0x4E487B7100000000000000000000000000000000000000000000000000000000 PUSH1 0x0 MSTORE PUSH1 0x12 PUSH1 0x4 MSTORE PUSH1 0x24 PUSH1 0x0 REVERT JUMPDEST PUSH1 0x0 PUSH3 0x20E DUP3 PUSH3 0x1C8 JUMP JUMPDEST SWAP2 POP PUSH3 0x21B DUP4 PUSH3 0x1C8 JUMP JUMPDEST SWAP3 POP DUP3 PUSH3 0x22E JUMPI PUSH3 0x22D PUSH3 0x1D2 JUMP JUMPDEST JUMPDEST DUP3 DUP3 MOD SWAP1 POP SWAP3 SWAP2 POP POP JUMP JUMPDEST PUSH1 0x0 PUSH1 0xA SWAP1 POP SWAP2 SWAP1 POP JUMP JUMPDEST PUSH1 0x0 DUP2 SWAP1 POP SWAP3 SWAP2 POP POP JUMP JUMPDEST PUSH1 0x0 DUP2 SWAP1 POP SWAP2 SWAP1 POP JUMP JUMPDEST PUSH1 0x0 PUSH1 0xFF DUP3 AND SWAP1 POP SWAP2 SWAP1 POP JUMP JUMPDEST PUSH3 0x271 DUP2 PUSH3 0x259 JUMP JUMPDEST DUP3 MSTORE POP POP JUMP JUMPDEST PUSH1 0x0 PUSH3 0x285 DUP4 DUP4 PUSH3 0x266 JUMP JUMPDEST PUSH1 0x20 DUP4 ADD SWAP1 POP SWAP3 SWAP2 POP POP JUMP JUMPDEST PUSH1 0x0 PUSH1 0x20 DUP3 ADD SWAP1 POP SWAP2 SWAP1 POP JUMP JUMPDEST PUSH3 0x2A9 DUP2 PUSH3 0x239 JUMP JUMPDEST PUSH3 0x2B5 DUP2 DUP5 PUSH3 0x244 JUMP JUMPDEST SWAP3 POP PUSH3 0x2C2 DUP3 PUSH3 0x24F JUMP JUMPDEST DUP1 PUSH1 0x0 JUMPDEST DUP4 DUP2 LT ISZERO PUSH3 0x2F9 JUMPI DUP2 MLOAD PUSH3 0x2DD DUP8 DUP3 PUSH3 0x277 JUMP JUMPDEST SWAP7 POP PUSH3 0x2EA DUP4 PUSH3 0x291 JUMP JUMPDEST SWAP3 POP POP PUSH1 0x1 DUP2 ADD SWAP1 POP PUSH3 0x2C6 JUMP JUMPDEST POP POP POP POP POP POP JUMP JUMPDEST PUSH1 0x0 PUSH2 0x140 DUP3 ADD SWAP1 POP PUSH3 0x319 PUSH1 0x0 DUP4 ADD DUP5 PUSH3 0x29E JUMP JUMPDEST SWAP3 SWAP2 POP POP JUMP JUMPDEST PUSH1 0x0 DUP2 MLOAD SWAP1 POP SWAP2 SWAP1 POP JUMP JUMPDEST PUSH32 0x4E487B7100000000000000000000000000000000000000000000000000000000 PUSH1 0x0 MSTORE PUSH1 0x41 PUSH1 0x4 MSTORE PUSH1 0x24 PUSH1 0x0 REVERT JUMPDEST PUSH32 0x4E487B7100000000000000000000000000000000000000000000000000000000 PUSH1 0x0 MSTORE PUSH1 0x22 PUSH1 0x4 MSTORE PUSH1 0x24 PUSH1 0x0 REVERT JUMPDEST PUSH1 0x0 PUSH1 0x2 DUP3 DIV SWAP1 POP PUSH1 0x1 DUP3 AND DUP1 PUSH3 0x3A1 JUMPI PUSH1 0x7F DUP3 AND SWAP2 POP JUMPDEST PUSH1 0x20 DUP3 LT DUP2 SUB PUSH3 0x3B7 JUMPI PUSH3 0x3B6 PUSH3 0x359 JUMP JUMPDEST JUMPDEST POP SWAP2 SWAP1 POP JUMP JUMPDEST PUSH1 0x0 DUP2 SWAP1 POP DUP2 PUSH1 0x0 MSTORE PUSH1 0x20 PUSH1 0x0 KECCAK256 SWAP1 POP SWAP2 SWAP1 POP JUMP JUMPDEST PUSH1 0x0 PUSH1 0x20 PUSH1 0x1F DUP4 ADD DIV SWAP1 POP SWAP2 SWAP1 POP JUMP JUMPDEST PUSH1 0x0 DUP3 DUP3 SHL SWAP1 POP SWAP3 SWAP2 POP POP JUMP JUMPDEST PUSH1 0x0 PUSH1 0x8 DUP4 MUL PUSH3 0x421 PUSH32 0xFFFFFFFFFFFFFFFFFFFFFFFFFFFFFFFFFFFFFFFFFFFFFFFFFFFFFFFFFFFFFFFF DUP3 PUSH3 0x3E2 JUMP JUMPDEST PUSH3 0x42D DUP7 DUP4 PUSH3 0x3E2 JUMP JUMPDEST SWAP6 POP DUP1 NOT DUP5 AND SWAP4 POP DUP1 DUP7 AND DUP5 OR SWAP3 POP POP POP SWAP4 SWAP3 POP POP POP JUMP JUMPDEST PUSH1 0x0 DUP2 SWAP1 POP SWAP2 SWAP1 POP JUMP JUMPDEST PUSH1 0x0 PUSH3 0x470 PUSH3 0x46A PUSH3 0x464 DUP5 PUSH3 0x1C8 JUMP JUMPDEST PUSH3 0x445 JUMP JUMPDEST PUSH3 0x1C8 JUMP JUMPDEST SWAP1 POP SWAP2 SWAP1 POP JUMP JUMPDEST PUSH1 0x0 DUP2 SWAP1 POP SWAP2 SWAP1 POP JUMP JUMPDEST PUSH3 0x48C DUP4 PUSH3 0x44F JUMP JUMPDEST PUSH3 0x4A4 PUSH3 0x49B DUP3 PUSH3 0x477 JUMP JUMPDEST DUP5 DUP5 SLOAD PUSH3 0x3EF JUMP JUMPDEST DUP3 SSTORE POP POP POP POP JUMP JUMPDEST PUSH1 0x0 SWAP1 JUMP JUMPDEST PUSH3 0x4BB PUSH3 0x4AC JUMP JUMPDEST PUSH3 0x4C8 DUP2 DUP5 DUP5 PUSH3 0x481 JUMP JUMPDEST POP POP POP JUMP JUMPDEST JUMPDEST DUP2 DUP2 LT ISZERO PUSH3 0x4F0 JUMPI PUSH3 0x4E4 PUSH1 0x0 DUP3 PUSH3 0x4B1 JUMP JUMPDEST PUSH1 0x1 DUP2 ADD SWAP1 POP PUSH3 0x4CE JUMP JUMPDEST POP POP JUMP JUMPDEST PUSH1 0x1F DUP3 GT ISZERO PUSH3 0x53F JUMPI PUSH3 0x509 DUP2 PUSH3 0x3BD JUMP JUMPDEST PUSH3 0x514 DUP5 PUSH3 0x3D2 JUMP JUMPDEST DUP2 ADD PUSH1 0x20 DUP6 LT ISZERO PUSH3 0x524 JUMPI DUP2 SWAP1 POP JUMPDEST PUSH3 0x53C PUSH3 0x533 DUP6 PUSH3 0x3D2 JUMP JUMPDEST DUP4 ADD DUP3 PUSH3 0x4CD JUMP JUMPDEST POP POP JUMPDEST POP POP POP JUMP JUMPDEST PUSH1 0x0 DUP3 DUP3 SHR SWAP1 POP SWAP3 SWAP2 POP POP JUMP JUMPDEST PUSH1 0x0 PUSH3 0x564 PUSH1 0x0 NOT DUP5 PUSH1 0x8 MUL PUSH3 0x544 JUMP JUMPDEST NOT DUP1 DUP4 AND SWAP2 POP POP SWAP3 SWAP2 POP POP JUMP JUMPDEST PUSH1 0x0 PUSH3 0x57F DUP4 DUP4 PUSH3 0x551 JUMP JUMPDEST SWAP2 POP DUP3 PUSH1 0x2 MUL DUP3 OR SWAP1 POP SWAP3 SWAP2 POP POP JUMP JUMPDEST PUSH3 0x59A DUP3 PUSH3 0x31F JUMP JUMPDEST PUSH8 0xFFFFFFFFFFFFFFFF DUP2 GT ISZERO PUSH3 0x5B6 JUMPI PUSH3 0x5B5 PUSH3 0x32A JUMP JUMPDEST JUMPDEST PUSH3 0x5C2 DUP3 SLOAD PUSH3 0x388 JUMP JUMPDEST PUSH3 0x5CF DUP3 DUP3 DUP6 PUSH3 0x4F4 JUMP JUMPDEST PUSH1 0x0 PUSH1 0x20 SWAP1 POP PUSH1 0x1F DUP4 GT PUSH1 0x1 DUP2 EQ PUSH3 0x607 JUMPI PUSH1 0x0 DUP5 ISZERO PUSH3 0x5F2 JUMPI DUP3 DUP8 ADD MLOAD SWAP1 POP JUMPDEST PUSH3 0x5FE DUP6 DUP3 PUSH3 0x571 JUMP JUMPDEST DUP7 SSTORE POP PUSH3 0x66E JUMP JUMPDEST PUSH1 0x1F NOT DUP5 AND PUSH3 0x617 DUP7 PUSH3 0x3BD JUMP JUMPDEST PUSH1 0x0 JUMPDEST DUP3 DUP2 LT ISZERO PUSH3 0x641 JUMPI DUP5 DUP10 ADD MLOAD DUP3 SSTORE PUSH1 0x1 DUP3 ADD SWAP2 POP PUSH1 0x20 DUP6 ADD SWAP5 POP PUSH1 0x20 DUP2 ADD SWAP1 POP PUSH3 0x61A JUMP JUMPDEST DUP7 DUP4 LT ISZERO PUSH3 0x661 JUMPI DUP5 DUP10 ADD MLOAD PUSH3 0x65D PUSH1 0x1F DUP10 AND DUP3 PUSH3 0x551 JUMP JUMPDEST DUP4 SSTORE POP JUMPDEST PUSH1 0x1 PUSH1 0x2 DUP9 MUL ADD DUP9 SSTORE POP POP POP JUMPDEST POP POP POP POP POP POP JUMP JUMPDEST PUSH1 0x0 DUP2 SWAP1 POP SWAP3 SWAP2 POP POP JUMP JUMPDEST PUSH1 0x0 DUP2 SLOAD PUSH3 0x690 DUP2 PUSH3 0x388 JUMP JUMPDEST PUSH3 0x69C DUP2 DUP7 PUSH3 0x676 JUMP JUMPDEST SWAP5 POP PUSH1 0x1 DUP3 AND PUSH1 0x0 DUP2 EQ PUSH3 0x6BA JUMPI PUSH1 0x1 DUP2 EQ PUSH3 0x6D0 JUMPI PUSH3 0x707 JUMP JUMPDEST PUSH1 0xFF NOT DUP4 AND DUP7 MSTORE DUP2 ISZERO ISZERO DUP3 MUL DUP7 ADD SWAP4 POP PUSH3 0x707 JUMP JUMPDEST PUSH3 0x6DB DUP6 PUSH3 0x3BD JUMP JUMPDEST PUSH1 0x0 JUMPDEST DUP4 DUP2 LT ISZERO PUSH3 0x6FF JUMPI DUP2 SLOAD DUP2 DUP10 ADD MSTORE PUSH1 0x1 DUP3 ADD SWAP2 POP PUSH1 0x20 DUP2 ADD SWAP1 POP PUSH3 0x6DE JUMP JUMPDEST DUP4 DUP9 ADD SWAP6 POP POP POP JUMPDEST POP POP POP SWAP3 SWAP2 POP POP JUMP JUMPDEST PUSH1 0x0 PUSH3 0x71E DUP3 DUP5 PUSH3 0x681 JUMP JUMPDEST SWAP2 POP DUP2 SWAP1 POP SWAP3 SWAP2 POP POP JUMP JUMPDEST PUSH2 0xAB5 DUP1 PUSH3 0x739 PUSH1 0x0 CODECOPY PUSH1 0x0 RETURN INVALID PUSH1 0x80 PUSH1 0x40 MSTORE CALLVALUE DUP1 ISZERO PUSH2 0x10 JUMPI PUSH1 0x0 DUP1 REVERT JUMPDEST POP PUSH1 0x4 CALLDATASIZE LT PUSH2 0x57 JUMPI PUSH1 0x0 CALLDATALOAD PUSH1 0xE0 SHR DUP1 PUSH4 0x3627959 EQ PUSH2 0x5C JUMPI DUP1 PUSH4 0x9E96008 EQ PUSH2 0x7A JUMPI DUP1 PUSH4 0x2F703E08 EQ PUSH2 0x96 JUMPI DUP1 PUSH4 0x606DEECD EQ PUSH2 0xB4 JUMPI DUP1 PUSH4 0xCCE71063 EQ PUSH2 0xBE JUMPI JUMPDEST PUSH1 0x0 DUP1 REVERT JUMPDEST PUSH2 0x64 PUSH2 0xDC JUMP JUMPDEST PUSH1 0x40 MLOAD PUSH2 0x71 SWAP2 SWAP1 PUSH2 0x3C1 JUMP JUMPDEST PUSH1 0x40 MLOAD DUP1 SWAP2 SUB SWAP1 RETURN JUMPDEST PUSH2 0x94 PUSH1 0x4 DUP1 CALLDATASIZE SUB DUP2 ADD SWAP1 PUSH2 0x8F SWAP2 SWAP1 PUSH2 0x417 JUMP JUMPDEST PUSH2 0xEF JUMP JUMPDEST STOP JUMPDEST PUSH2 0x9E PUSH2 0x23D JUMP JUMPDEST PUSH1 0x40 MLOAD PUSH2 0xAB SWAP2 SWAP1 PUSH2 0x4D4 JUMP JUMPDEST PUSH1 0x40 MLOAD DUP1 SWAP2 SUB SWAP1 RETURN JUMPDEST PUSH2 0xBC PUSH2 0x305 JUMP JUMPDEST STOP JUMPDEST PUSH2 0xC6 PUSH2 0x393 JUMP JUMPDEST PUSH1 0x40 MLOAD PUSH2 0xD3 SWAP2 SWAP1 PUSH2 0x3C1 JUMP JUMPDEST PUSH1 0x40 MLOAD DUP1 SWAP2 SUB SWAP1 RETURN JUMPDEST PUSH1 0x2 PUSH1 0x1 SWAP1 SLOAD SWAP1 PUSH2 0x100 EXP SWAP1 DIV PUSH1 0xFF AND DUP2 JUMP JUMPDEST PUSH1 0x0 PUSH1 0x40 MLOAD DUP1 PUSH2 0x140 ADD PUSH1 0x40 MSTORE DUP1 PUSH1 0x7 DUP5 PUSH2 0x10A SWAP2 SWAP1 PUSH2 0x525 JUMP JUMPDEST PUSH1 0xFF AND PUSH1 0xFF AND DUP2 MSTORE PUSH1 0x20 ADD PUSH1 0x47 DUP5 PUSH2 0x122 SWAP2 SWAP1 PUSH2 0x525 JUMP JUMPDEST PUSH1 0xFF AND PUSH1 0xFF AND DUP2 MSTORE PUSH1 0x20 ADD PUSH1 0x11 DUP5 PUSH2 0x13A SWAP2 SWAP1 PUSH2 0x525 JUMP JUMPDEST PUSH1 0xFF AND PUSH1 0xFF AND DUP2 MSTORE PUSH1 0x20 ADD PUSH1 0xD DUP5 PUSH2 0x152 SWAP2 SWAP1 PUSH2 0x525 JUMP JUMPDEST PUSH1 0xFF AND PUSH1 0xFF AND DUP2 MSTORE PUSH1 0x20 ADD PUSH1 0x33 DUP5 PUSH2 0x16A SWAP2 SWAP1 PUSH2 0x525 JUMP JUMPDEST PUSH1 0xFF AND PUSH1 0xFF AND DUP2 MSTORE PUSH1 0x20 ADD PUSH1 0xC DUP5 PUSH2 0x182 SWAP2 SWAP1 PUSH2 0x525 JUMP JUMPDEST PUSH1 0xFF AND PUSH1 0xFF AND DUP2 MSTORE PUSH1 0x20 ADD PUSH1 0x39 DUP5 PUSH2 0x19A SWAP2 SWAP1 PUSH2 0x525 JUMP JUMPDEST PUSH1 0xFF AND PUSH1 0xFF AND DUP2 MSTORE PUSH1 0x20 ADD PUSH1 0x33 DUP5 PUSH2 0x1B2 SWAP2 SWAP1 PUSH2 0x525 JUMP JUMPDEST PUSH1 0xFF AND PUSH1 0xFF AND DUP2 MSTORE PUSH1 0x20 ADD PUSH1 0x2A DUP5 PUSH2 0x1CA SWAP2 SWAP1 PUSH2 0x525 JUMP JUMPDEST PUSH1 0xFF AND PUSH1 0xFF AND DUP2 MSTORE PUSH1 0x20 ADD PUSH1 0x13 DUP5 PUSH2 0x1E2 SWAP2 SWAP1 PUSH2 0x525 JUMP JUMPDEST PUSH1 0xFF AND PUSH1 0xFF AND DUP2 MSTORE POP SWAP1 POP DUP1 PUSH1 0x40 MLOAD PUSH1 0x20 ADD PUSH2 0x1FE SWAP2 SWAP1 PUSH2 0x60E JUMP JUMPDEST PUSH1 0x40 MLOAD PUSH1 0x20 DUP2 DUP4 SUB SUB DUP2 MSTORE SWAP1 PUSH1 0x40 MSTORE PUSH1 0x0 SWAP1 DUP2 PUSH2 0x21B SWAP2 SWAP1 PUSH2 0x865 JUMP JUMPDEST POP PUSH1 0x0 PUSH1 0x40 MLOAD PUSH2 0x22B SWAP2 SWAP1 PUSH2 0x9C5 JUMP JUMPDEST PUSH1 0x40 MLOAD DUP1 SWAP2 SUB SWAP1 KECCAK256 PUSH1 0x1 DUP2 SWAP1 SSTORE POP POP POP JUMP JUMPDEST PUSH1 0x60 PUSH1 0x1 PUSH1 0x2 PUSH1 0x1 PUSH2 0x100 EXP DUP2 SLOAD DUP2 PUSH1 0xFF MUL NOT AND SWAP1 DUP4 ISZERO ISZERO MUL OR SWAP1 SSTORE POP PUSH1 0x0 PUSH1 0x2 PUSH1 0x0 PUSH2 0x100 EXP DUP2 SLOAD DUP2 PUSH1 0xFF MUL NOT AND SWAP1 DUP4 ISZERO ISZERO MUL OR SWAP1 SSTORE POP PUSH1 0x0 DUP1 SLOAD PUSH2 0x282 SWAP1 PUSH2 0x688 JUMP JUMPDEST DUP1 PUSH1 0x1F ADD PUSH1 0x20 DUP1 SWAP2 DIV MUL PUSH1 0x20 ADD PUSH1 0x40 MLOAD SWAP1 DUP2 ADD PUSH1 0x40 MSTORE DUP1 SWAP3 SWAP2 SWAP1 DUP2 DUP2 MSTORE PUSH1 0x20 ADD DUP3 DUP1 SLOAD PUSH2 0x2AE SWAP1 PUSH2 0x688 JUMP JUMPDEST DUP1 ISZERO PUSH2 0x2FB JUMPI DUP1 PUSH1 0x1F LT PUSH2 0x2D0 JUMPI PUSH2 0x100 DUP1 DUP4 SLOAD DIV MUL DUP4 MSTORE SWAP2 PUSH1 0x20 ADD SWAP2 PUSH2 0x2FB JUMP JUMPDEST DUP3 ADD SWAP2 SWAP1 PUSH1 0x0 MSTORE PUSH1 0x20 PUSH1 0x0 KECCAK256 SWAP1 JUMPDEST DUP2 SLOAD DUP2 MSTORE SWAP1 PUSH1 0x1 ADD SWAP1 PUSH1 0x20 ADD DUP1 DUP4 GT PUSH2 0x2DE JUMPI DUP3 SWAP1 SUB PUSH1 0x1F AND DUP3 ADD SWAP2 JUMPDEST POP POP POP POP POP SWAP1 POP SWAP1 JUMP JUMPDEST PUSH1 0x1 ISZERO ISZERO PUSH1 0x2 PUSH1 0x1 SWAP1 SLOAD SWAP1 PUSH2 0x100 EXP SWAP1 DIV PUSH1 0xFF AND ISZERO ISZERO EQ PUSH2 0x35B JUMPI PUSH1 0x40 MLOAD PUSH32 0x8C379A000000000000000000000000000000000000000000000000000000000 DUP2 MSTORE PUSH1 0x4 ADD PUSH2 0x352 SWAP1 PUSH2 0xA5F JUMP JUMPDEST PUSH1 0x40 MLOAD DUP1 SWAP2 SUB SWAP1 REVERT JUMPDEST PUSH1 0x1 PUSH1 0x2 PUSH1 0x0 PUSH2 0x100 EXP DUP2 SLOAD DUP2 PUSH1 0xFF MUL NOT AND SWAP1 DUP4 ISZERO ISZERO MUL OR SWAP1 SSTORE POP PUSH1 0x0 PUSH1 0x2 PUSH1 0x1 PUSH2 0x100 EXP DUP2 SLOAD DUP2 PUSH1 0xFF MUL NOT AND SWAP1 DUP4 ISZERO ISZERO MUL OR SWAP1 SSTORE POP JUMP JUMPDEST PUSH1 0x2 PUSH1 0x0 SWAP1 SLOAD SWAP1 PUSH2 0x100 EXP SWAP1 DIV PUSH1 0xFF AND DUP2 JUMP JUMPDEST PUSH1 0x0 DUP2 ISZERO ISZERO SWAP1 POP SWAP2 SWAP1 POP JUMP JUMPDEST PUSH2 0x3BB DUP2 PUSH2 0x3A6 JUMP JUMPDEST DUP3 MSTORE POP POP JUMP JUMPDEST PUSH1 0x0 PUSH1 0x20 DUP3 ADD SWAP1 POP PUSH2 0x3D6 PUSH1 0x0 DUP4 ADD DUP5 PUSH2 0x3B2 JUMP JUMPDEST SWAP3 SWAP2 POP POP JUMP JUMPDEST PUSH1 0x0 DUP1 REVERT JUMPDEST PUSH1 0x0 DUP2 SWAP1 POP SWAP2 SWAP1 POP JUMP JUMPDEST PUSH2 0x3F4 DUP2 PUSH2 0x3E1 JUMP JUMPDEST DUP2 EQ PUSH2 0x3FF JUMPI PUSH1 0x0 DUP1 REVERT JUMPDEST POP JUMP JUMPDEST PUSH1 0x0 DUP2 CALLDATALOAD SWAP1 POP PUSH2 0x411 DUP2 PUSH2 0x3EB JUMP JUMPDEST SWAP3 SWAP2 POP POP JUMP JUMPDEST PUSH1 0x0 PUSH1 0x20 DUP3 DUP5 SUB SLT ISZERO PUSH2 0x42D JUMPI PUSH2 0x42C PUSH2 0x3DC JUMP JUMPDEST JUMPDEST PUSH1 0x0 PUSH2 0x43B DUP5 DUP3 DUP6 ADD PUSH2 0x402 JUMP JUMPDEST SWAP2 POP POP SWAP3 SWAP2 POP POP JUMP JUMPDEST PUSH1 0x0 DUP2 MLOAD SWAP1 POP SWAP2 SWAP1 POP JUMP JUMPDEST PUSH1 0x0 DUP3 DUP3 MSTORE PUSH1 0x20 DUP3 ADD SWAP1 POP SWAP3 SWAP2 POP POP JUMP JUMPDEST PUSH1 0x0 JUMPDEST DUP4 DUP2 LT ISZERO PUSH2 0x47E JUMPI DUP1 DUP3 ADD MLOAD DUP2 DUP5 ADD MSTORE PUSH1 0x20 DUP2 ADD SWAP1 POP PUSH2 0x463 JUMP JUMPDEST PUSH1 0x0 DUP5 DUP5 ADD MSTORE POP POP POP POP JUMP JUMPDEST PUSH1 0x0 PUSH1 0x1F NOT PUSH1 0x1F DUP4 ADD AND SWAP1 POP SWAP2 SWAP1 POP JUMP JUMPDEST PUSH1 0x0 PUSH2 0x4A6 DUP3 PUSH2 0x444 JUMP JUMPDEST PUSH2 0x4B0 DUP2 DUP6 PUSH2 0x44F JUMP JUMPDEST SWAP4 POP PUSH2 0x4C0 DUP2 DUP6 PUSH1 0x20 DUP7 ADD PUSH2 0x460 JUMP JUMPDEST PUSH2 0x4C9 DUP2 PUSH2 0x48A JUMP JUMPDEST DUP5 ADD SWAP2 POP POP SWAP3 SWAP2 POP POP JUMP JUMPDEST PUSH1 0x0 PUSH1 0x20 DUP3 ADD SWAP1 POP DUP2 DUP2 SUB PUSH1 0x0 DUP4 ADD MSTORE PUSH2 0x4EE DUP2 DUP5 PUSH2 0x49B JUMP JUMPDEST SWAP1 POP SWAP3 SWAP2 POP POP JUMP JUMPDEST PUSH32 0x4E487B7100000000000000000000000000000000000000000000000000000000 PUSH1 0x0 MSTORE PUSH1 0x12 PUSH1 0x4 MSTORE PUSH1 0x24 PUSH1 0x0 REVERT JUMPDEST PUSH1 0x0 PUSH2 0x530 DUP3 PUSH2 0x3E1 JUMP JUMPDEST SWAP2 POP PUSH2 0x53B DUP4 PUSH2 0x3E1 JUMP JUMPDEST SWAP3 POP DUP3 PUSH2 0x54B JUMPI PUSH2 0x54A PUSH2 0x4F6 JUMP JUMPDEST JUMPDEST DUP3 DUP3 MOD SWAP1 POP SWAP3 SWAP2 POP POP JUMP JUMPDEST PUSH1 0x0 PUSH1 0xA SWAP1 POP SWAP2 SWAP1 POP JUMP JUMPDEST PUSH1 0x0 DUP2 SWAP1 POP SWAP3 SWAP2 POP POP JUMP JUMPDEST PUSH1 0x0 DUP2 SWAP1 POP SWAP2 SWAP1 POP JUMP JUMPDEST PUSH1 0x0 PUSH1 0xFF DUP3 AND SWAP1 POP SWAP2 SWAP1 POP JUMP JUMPDEST PUSH2 0x58C DUP2 PUSH2 0x576 JUMP JUMPDEST DUP3 MSTORE POP POP JUMP JUMPDEST PUSH1 0x0 PUSH2 0x59E DUP4 DUP4 PUSH2 0x583 JUMP JUMPDEST PUSH1 0x20 DUP4 ADD SWAP1 POP SWAP3 SWAP2 POP POP JUMP JUMPDEST PUSH1 0x0 PUSH1 0x20 DUP3 ADD SWAP1 POP SWAP2 SWAP1 POP JUMP JUMPDEST PUSH2 0x5C0 DUP2 PUSH2 0x556 JUMP JUMPDEST PUSH2 0x5CA DUP2 DUP5 PUSH2 0x561 JUMP JUMPDEST SWAP3 POP PUSH2 0x5D5 DUP3 PUSH2 0x56C JUMP JUMPDEST DUP1 PUSH1 0x0 JUMPDEST DUP4 DUP2 LT ISZERO PUSH2 0x606 JUMPI DUP2 MLOAD PUSH2 0x5ED DUP8 DUP3 PUSH2 0x592 JUMP JUMPDEST SWAP7 POP PUSH2 0x5F8 DUP4 PUSH2 0x5AA JUMP JUMPDEST SWAP3 POP POP PUSH1 0x1 DUP2 ADD SWAP1 POP PUSH2 0x5D9 JUMP JUMPDEST POP POP POP POP POP POP JUMP JUMPDEST PUSH1 0x0 PUSH2 0x140 DUP3 ADD SWAP1 POP PUSH2 0x624 PUSH1 0x0 DUP4 ADD DUP5 PUSH2 0x5B7 JUMP JUMPDEST SWAP3 SWAP2 POP POP JUMP JUMPDEST PUSH32 0x4E487B7100000000000000000000000000000000000000000000000000000000 PUSH1 0x0 MSTORE PUSH1 0x41 PUSH1 0x4 MSTORE PUSH1 0x24 PUSH1 0x0 REVERT JUMPDEST PUSH32 0x4E487B7100000000000000000000000000000000000000000000000000000000 PUSH1 0x0 MSTORE PUSH1 0x22 PUSH1 0x4 MSTORE PUSH1 0x24 PUSH1 0x0 REVERT JUMPDEST PUSH1 0x0 PUSH1 0x2 DUP3 DIV SWAP1 POP PUSH1 0x1 DUP3 AND DUP1 PUSH2 0x6A0 JUMPI PUSH1 0x7F DUP3 AND SWAP2 POP JUMPDEST PUSH1 0x20 DUP3 LT DUP2 SUB PUSH2 0x6B3 JUMPI PUSH2 0x6B2 PUSH2 0x659 JUMP JUMPDEST JUMPDEST POP SWAP2 SWAP1 POP JUMP JUMPDEST PUSH1 0x0 DUP2 SWAP1 POP DUP2 PUSH1 0x0 MSTORE PUSH1 0x20 PUSH1 0x0 KECCAK256 SWAP1 POP SWAP2 SWAP1 POP JUMP JUMPDEST PUSH1 0x0 PUSH1 0x20 PUSH1 0x1F DUP4 ADD DIV SWAP1 POP SWAP2 SWAP1 POP JUMP JUMPDEST PUSH1 0x0 DUP3 DUP3 SHL SWAP1 POP SWAP3 SWAP2 POP POP JUMP JUMPDEST PUSH1 0x0 PUSH1 0x8 DUP4 MUL PUSH2 0x71B PUSH32 0xFFFFFFFFFFFFFFFFFFFFFFFFFFFFFFFFFFFFFFFFFFFFFFFFFFFFFFFFFFFFFFFF DUP3 PUSH2 0x6DE JUMP JUMPDEST PUSH2 0x725 DUP7 DUP4 PUSH2 0x6DE JUMP JUMPDEST SWAP6 POP DUP1 NOT DUP5 AND SWAP4 POP DUP1 DUP7 AND DUP5 OR SWAP3 POP POP POP SWAP4 SWAP3 POP POP POP JUMP JUMPDEST PUSH1 0x0 DUP2 SWAP1 POP SWAP2 SWAP1 POP JUMP JUMPDEST PUSH1 0x0 PUSH2 0x762 PUSH2 0x75D PUSH2 0x758 DUP5 PUSH2 0x3E1 JUMP JUMPDEST PUSH2 0x73D JUMP JUMPDEST PUSH2 0x3E1 JUMP JUMPDEST SWAP1 POP SWAP2 SWAP1 POP JUMP JUMPDEST PUSH1 0x0 DUP2 SWAP1 POP SWAP2 SWAP1 POP JUMP JUMPDEST PUSH2 0x77C DUP4 PUSH2 0x747 JUMP JUMPDEST PUSH2 0x790 PUSH2 0x788 DUP3 PUSH2 0x769 JUMP JUMPDEST DUP5 DUP5 SLOAD PUSH2 0x6EB JUMP JUMPDEST DUP3 SSTORE POP POP POP POP JUMP JUMPDEST PUSH1 0x0 SWAP1 JUMP JUMPDEST PUSH2 0x7A5 PUSH2 0x798 JUMP JUMPDEST PUSH2 0x7B0 DUP2 DUP5 DUP5 PUSH2 0x773 JUMP JUMPDEST POP POP POP JUMP JUMPDEST JUMPDEST DUP2 DUP2 LT ISZERO PUSH2 0x7D4 JUMPI PUSH2 0x7C9 PUSH1 0x0 DUP3 PUSH2 0x79D JUMP JUMPDEST PUSH1 0x1 DUP2 ADD SWAP1 POP PUSH2 0x7B6 JUMP JUMPDEST POP POP JUMP JUMPDEST PUSH1 0x1F DUP3 GT ISZERO PUSH2 0x819 JUMPI PUSH2 0x7EA DUP2 PUSH2 0x6B9 JUMP JUMPDEST PUSH2 0x7F3 DUP5 PUSH2 0x6CE JUMP JUMPDEST DUP2 ADD PUSH1 0x20 DUP6 LT ISZERO PUSH2 0x802 JUMPI DUP2 SWAP1 POP JUMPDEST PUSH2 0x816 PUSH2 0x80E DUP6 PUSH2 0x6CE JUMP JUMPDEST DUP4 ADD DUP3 PUSH2 0x7B5 JUMP JUMPDEST POP POP JUMPDEST POP POP POP JUMP JUMPDEST PUSH1 0x0 DUP3 DUP3 SHR SWAP1 POP SWAP3 SWAP2 POP POP JUMP JUMPDEST PUSH1 0x0 PUSH2 0x83C PUSH1 0x0 NOT DUP5 PUSH1 0x8 MUL PUSH2 0x81E JUMP JUMPDEST NOT DUP1 DUP4 AND SWAP2 POP POP SWAP3 SWAP2 POP POP JUMP JUMPDEST PUSH1 0x0 PUSH2 0x855 DUP4 DUP4 PUSH2 0x82B JUMP JUMPDEST SWAP2 POP DUP3 PUSH1 0x2 MUL DUP3 OR SWAP1 POP SWAP3 SWAP2 POP POP JUMP JUMPDEST PUSH2 0x86E DUP3 PUSH2 0x444 JUMP JUMPDEST PUSH8 0xFFFFFFFFFFFFFFFF DUP2 GT ISZERO PUSH2 0x887 JUMPI PUSH2 0x886 PUSH2 0x62A JUMP JUMPDEST JUMPDEST PUSH2 0x891 DUP3 SLOAD PUSH2 0x688 JUMP JUMPDEST PUSH2 0x89C DUP3 DUP3 DUP6 PUSH2 0x7D8 JUMP JUMPDEST PUSH1 0x0 PUSH1 0x20 SWAP1 POP PUSH1 0x1F DUP4 GT PUSH1 0x1 DUP2 EQ PUSH2 0x8CF JUMPI PUSH1 0x0 DUP5 ISZERO PUSH2 0x8BD JUMPI DUP3 DUP8 ADD MLOAD SWAP1 POP JUMPDEST PUSH2 0x8C7 DUP6 DUP3 PUSH2 0x849 JUMP JUMPDEST DUP7 SSTORE POP PUSH2 0x92F JUMP JUMPDEST PUSH1 0x1F NOT DUP5 AND PUSH2 0x8DD DUP7 PUSH2 0x6B9 JUMP JUMPDEST PUSH1 0x0 JUMPDEST DUP3 DUP2 LT ISZERO PUSH2 0x905 JUMPI DUP5 DUP10 ADD MLOAD DUP3 SSTORE PUSH1 0x1 DUP3 ADD SWAP2 POP PUSH1 0x20 DUP6 ADD SWAP5 POP PUSH1 0x20 DUP2 ADD SWAP1 POP PUSH2 0x8E0 JUMP JUMPDEST DUP7 DUP4 LT ISZERO PUSH2 0x922 JUMPI DUP5 DUP10 ADD MLOAD PUSH2 0x91E PUSH1 0x1F DUP10 AND DUP3 PUSH2 0x82B JUMP JUMPDEST DUP4 SSTORE POP JUMPDEST PUSH1 0x1 PUSH1 0x2 DUP9 MUL ADD DUP9 SSTORE POP POP POP JUMPDEST POP POP POP POP POP POP JUMP JUMPDEST PUSH1 0x0 DUP2 SWAP1 POP SWAP3 SWAP2 POP POP JUMP JUMPDEST PUSH1 0x0 DUP2 SLOAD PUSH2 0x94F DUP2 PUSH2 0x688 JUMP JUMPDEST PUSH2 0x959 DUP2 DUP7 PUSH2 0x937 JUMP JUMPDEST SWAP5 POP PUSH1 0x1 DUP3 AND PUSH1 0x0 DUP2 EQ PUSH2 0x974 JUMPI PUSH1 0x1 DUP2 EQ PUSH2 0x989 JUMPI PUSH2 0x9BC JUMP JUMPDEST PUSH1 0xFF NOT DUP4 AND DUP7 MSTORE DUP2 ISZERO ISZERO DUP3 MUL DUP7 ADD SWAP4 POP PUSH2 0x9BC JUMP JUMPDEST PUSH2 0x992 DUP6 PUSH2 0x6B9 JUMP JUMPDEST PUSH1 0x0 JUMPDEST DUP4 DUP2 LT ISZERO PUSH2 0x9B4 JUMPI DUP2 SLOAD DUP2 DUP10 ADD MSTORE PUSH1 0x1 DUP3 ADD SWAP2 POP PUSH1 0x20 DUP2 ADD SWAP1 POP PUSH2 0x995 JUMP JUMPDEST DUP4 DUP9 ADD SWAP6 POP POP POP JUMPDEST POP POP POP SWAP3 SWAP2 POP POP JUMP JUMPDEST PUSH1 0x0 PUSH2 0x9D1 DUP3 DUP5 PUSH2 0x942 JUMP JUMPDEST SWAP2 POP DUP2 SWAP1 POP SWAP3 SWAP2 POP POP JUMP JUMPDEST PUSH1 0x0 DUP3 DUP3 MSTORE PUSH1 0x20 DUP3 ADD SWAP1 POP SWAP3 SWAP2 POP POP JUMP JUMPDEST PUSH32 0x4552523A2050726576696F7573206461746120686173206E6F74206265656E20 PUSH1 0x0 DUP3 ADD MSTORE PUSH32 0x7265616421000000000000000000000000000000000000000000000000000000 PUSH1 0x20 DUP3 ADD MSTORE POP JUMP JUMPDEST PUSH1 0x0 PUSH2 0xA49 PUSH1 0x25 DUP4 PUSH2 0x9DC JUMP JUMPDEST SWAP2 POP PUSH2 0xA54 DUP3 PUSH2 0x9ED JUMP JUMPDEST PUSH1 0x40 DUP3 ADD SWAP1 POP SWAP2 SWAP1 POP JUMP JUMPDEST PUSH1 0x0 PUSH1 0x20 DUP3 ADD SWAP1 POP DUP2 DUP2 SUB PUSH1 0x0 DUP4 ADD MSTORE PUSH2 0xA78 DUP2 PUSH2 0xA3C JUMP JUMPDEST SWAP1 POP SWAP2 SWAP1 POP JUMP INVALID LOG2 PUSH5 0x6970667358 0x22 SLT KECCAK256 0xB6 SWAP6 0xD6 ADDMOD ADDRESS 0xDF 0xF8 ADDMOD 0xE1 SLOAD 0x2B MSTORE8 DUP6 0xD5 0xEE XOR PUSH3 0x4B34C2 0x29 PC SMOD 0xB0 PUSH12 0xB4736B632DABBF64736F6C63 NUMBER STOP ADDMOD SLT STOP CALLER "},"methodIdentifiers":{"copyData()":"2f703e08","dataHasBeenRead()":"03627959","dataIsReady()":"cce71063","requestData()":"606deecd","updateData(uint256)":"09e96008"}}}}}