{"contracts/Game.sol":{"Game":{"abi":[{"inputs":[],"stateMutability":"nonpayable","type":"constructor"},{"inputs":[],"name":"commitmentTick","outputs":[],"stateMutability":"nonpayable","type":"function"},{"inputs":[],"name":"createMatch","outputs":[],"stateMutability":"nonpayable","type":"function"},{"inputs":[],"name":"dispute","outputs":[],"stateMutability":"nonpayable","type":"function"},{"inputs":[],"name":"joinMatch","outputs":[],"stateMutability":"nonpayable","type":"function"},{"inputs":[],"name":"matchCounter","outputs":[{"internalType":"uint256","name":"","type":"uint256"}],"stateMutability":"view","type":"function"},{"inputs":[{"internalType":"uint256","name":"","type":"uint256"}],"name":"matchIdToMoveId","outputs":[{"internalType":"uint256","name":"","type":"uint256"}],"stateMutability":"view","type":"function"},{"inputs":[{"internalType":"uint256","name":"","type":"uint256"},{"internalType":"uint256","name":"","type":"uint256"}],"name":"matchProgression","outputs":[{"internalType":"uint256","name":"team1_seed","type":"uint256"},{"internalType":"uint256","name":"team2_seed","type":"uint256"},{"internalType":"uint256","name":"team_with_the_ball","type":"uint256"},{"internalType":"uint256","name":"player_id_with_the_ball","type":"uint256"}],"stateMutability":"view","type":"function"},{"inputs":[{"internalType":"uint256","name":"","type":"uint256"}],"name":"matches","outputs":[{"internalType":"uint256","name":"seed","type":"uint256"},{"internalType":"address","name":"team1_commitmentChainlinkFunctionConsumer","type":"address"},{"internalType":"address","name":"team2_commitmentChainlinkFunctionConsumer","type":"address"},{"internalType":"address","name":"team1_revealChainlinkFunctionConsumer","type":"address"},{"internalType":"address","name":"team2_revealmentChainlinkFunctionConsumer","type":"address"}],"stateMutability":"view","type":"function"},{"inputs":[{"internalType":"uint256","name":"matchId","type":"uint256"},{"internalType":"uint256","name":"previousMoveId","type":"uint256"}],"name":"playout","outputs":[{"components":[{"components":[{"internalType":"uint256","name":"speed","type":"uint256"},{"internalType":"uint256","name":"skill","type":"uint256"},{"internalType":"uint256","name":"stamina","type":"uint256"}],"internalType":"struct Game.PlayerStats[10]","name":"team1_playerStats","type":"tuple[10]"},{"components":[{"internalType":"uint256","name":"speed","type":"uint256"},{"internalType":"uint256","name":"skill","type":"uint256"},{"internalType":"uint256","name":"stamina","type":"uint256"}],"internalType":"struct Game.PlayerStats[10]","name":"team2_playerStats","type":"tuple[10]"},{"internalType":"uint256[10]","name":"team1_x_positions","type":"uint256[10]"},{"internalType":"uint256[10]","name":"team2_x_positions","type":"uint256[10]"},{"internalType":"uint256[10]","name":"team1_y_positions","type":"uint256[10]"},{"internalType":"uint256[10]","name":"team2_y_positions","type":"uint256[10]"},{"internalType":"uint256","name":"team1_seed","type":"uint256"},{"internalType":"uint256","name":"team2_seed","type":"uint256"},{"internalType":"uint256","name":"team_with_the_ball","type":"uint256"},{"internalType":"uint256","name":"player_id_with_the_ball","type":"uint256"}],"internalType":"struct Game.MoveInfo","name":"move","type":"tuple"}],"stateMutability":"view","type":"function"},{"inputs":[],"name":"revealTick","outputs":[],"stateMutability":"nonpayable","type":"function"},{"inputs":[{"internalType":"uint256","name":"matchId","type":"uint256"},{"components":[{"components":[{"internalType":"uint256","name":"speed","type":"uint256"},{"internalType":"uint256","name":"skill","type":"uint256"},{"internalType":"uint256","name":"stamina","type":"uint256"}],"internalType":"struct Game.PlayerStats[10]","name":"team1_playerStats","type":"tuple[10]"},{"components":[{"internalType":"uint256","name":"speed","type":"uint256"},{"internalType":"uint256","name":"skill","type":"uint256"},{"internalType":"uint256","name":"stamina","type":"uint256"}],"internalType":"struct Game.PlayerStats[10]","name":"team2_playerStats","type":"tuple[10]"},{"internalType":"uint256[10]","name":"team1_x_positions","type":"uint256[10]"},{"internalType":"uint256[10]","name":"team2_x_positions","type":"uint256[10]"},{"internalType":"uint256[10]","name":"team1_y_positions","type":"uint256[10]"},{"internalType":"uint256[10]","name":"team2_y_positions","type":"uint256[10]"},{"internalType":"uint256","name":"team1_seed","type":"uint256"},{"internalType":"uint256","name":"team2_seed","type":"uint256"},{"internalType":"uint256","name":"team_with_the_ball","type":"uint256"},{"internalType":"uint256","name":"player_id_with_the_ball","type":"uint256"}],"internalType":"struct Game.MoveInfo","name":"reportedMoveInfo","type":"tuple"}],"name":"stateUpdateTick","outputs":[],"stateMutability":"nonpayable","type":"function"},{"inputs":[],"name":"ticker","outputs":[{"internalType":"address","name":"","type":"address"}],"stateMutability":"view","type":"function"}],"evm":{"bytecode":{"linkReferences":{},"object":"60806040523480156200001157600080fd5b50604051806101400160405280600a60ff168152602001601460ff168152602001601e60ff168152602001600b60ff168152602001600e60ff168152602001600f60ff168152602001601060ff168152602001600c60ff168152602001601160ff168152602001600b60ff168152506004600060015481526020019081526020016000206000808152602001908152602001600020603c0190600a620000b992919062000577565b50604051806101400160405280600a60ff168152602001601460ff168152602001601e60ff168152602001600b60ff168152602001600360ff168152602001600f60ff168152602001601060ff168152602001600c60ff168152602001601160ff168152602001600b60ff16815250600460006001548152602001908152602001600020600080815260200190815260200160002060500190600a6200016192919062000577565b50604051806101400160405280600a60ff168152602001601460ff168152602001600260ff168152602001600b60ff168152602001600460ff168152602001600f60ff168152602001600960ff168152602001600c60ff168152602001601160ff168152602001600b60ff16815250600460006001548152602001908152602001600020600080815260200190815260200160002060460190600a6200020992919062000577565b50604051806101400160405280600a60ff168152602001601e60ff168152602001601e60ff168152602001600b60ff168152602001600e60ff168152602001600160ff168152602001601060ff168152602001600c60ff168152602001600160ff168152602001600b60ff168152506004600060015481526020019081526020016000206000808152602001908152602001600020605a0190600a620002b192919062000577565b50604051806101400160405280600160ff168152602001600460ff168152602001601e60ff168152602001600560ff168152602001600e60ff168152602001600160ff168152602001601060ff168152602001600c60ff168152602001601160ff168152602001600b60ff16815250600460006001548152602001908152602001600020600060018152602001908152602001600020603c0190600a6200035a92919062000577565b50604051806101400160405280600a60ff168152602001600560ff168152602001601e60ff168152602001600260ff168152602001600360ff168152602001600f60ff168152602001600560ff168152602001600c60ff168152602001601160ff168152602001600b60ff1681525060046000600154815260200190815260200160002060006001815260200190815260200160002060500190600a6200040392919062000577565b50604051806101400160405280600a60ff168152602001601460ff168152602001600260ff168152602001600160ff168152602001600e60ff168152602001600f60ff168152602001600960ff168152602001600c60ff168152602001601160ff168152602001602160ff1681525060046000600154815260200190815260200160002060006001815260200190815260200160002060460190600a620004ac92919062000577565b50604051806101400160405280600160ff168152602001601e60ff168152602001600160ff168152602001600b60ff168152602001600e60ff168152602001600160ff168152602001600360ff168152602001600c60ff168152602001600c60ff168152602001600b60ff16815250600460006001548152602001908152602001600020600060018152602001908152602001600020605a0190600a6200055592919062000577565b5060018060008282546200056a919062000619565b9250508190555062000654565b82600a8101928215620005ae579160200282015b82811115620005ad578251829060ff169055916020019190600101906200058b565b5b509050620005bd9190620005c1565b5090565b5b80821115620005dc576000816000905550600101620005c2565b5090565b6000819050919050565b7f4e487b7100000000000000000000000000000000000000000000000000000000600052601160045260246000fd5b60006200062682620005e0565b91506200063383620005e0565b92508282019050808211156200064e576200064d620005ea565b5b92915050565b611b5880620006646000396000f3fe608060405234801561001057600080fd5b50600436106100b45760003560e01c8063502d475511610071578063502d47551461016b5780638ba47bdd1461019b578063a0cc641a146101b9578063ea302bdb146101c3578063f1a18266146101f6578063f240f7c314610200576100b4565b806301fd1951146100b957806302c0cdc4146100d757806328866592146100e15780632db146cf146100fd5780634768d4ef1461012d5780634b46db9514610161575b600080fd5b6100c161020a565b6040516100ce9190610f97565b60405180910390f35b6100df610210565b005b6100fb60048036038101906100f6919061134b565b610212565b005b6101176004803603810190610112919061138c565b6103d6565b6040516101249190611628565b60405180910390f35b61014760048036038101906101429190611644565b610958565b6040516101589594939291906116b2565b60405180910390f35b610169610a0e565b005b61018560048036038101906101809190611644565b610a10565b6040516101929190610f97565b60405180910390f35b6101a3610a28565b6040516101b09190611705565b60405180910390f35b6101c1610a4c565b005b6101dd60048036038101906101d8919061138c565b610a4e565b6040516101ed9493929190611720565b60405180910390f35b6101fe610a8b565b005b610208610a8d565b005b60015481565b565b806040015160046000848152602001908152602001600020600060036000868152602001908152602001600020548152602001908152602001600020603c0190600a61025f929190610e38565b5080606001516004600084815260200190815260200160002060006003600086815260200190815260200160002054815260200190815260200160002060460190600a6102ad929190610e38565b5080608001516004600084815260200190815260200160002060006003600086815260200190815260200160002054815260200190815260200160002060500190600a6102fb929190610e38565b508060a0015160046000848152602001908152602001600020600060036000868152602001908152602001600020548152602001908152602001600020605a0190600a610349929190610e38565b50806101000151600460008481526020019081526020016000206000600360008681526020019081526020016000205481526020019081526020016000206066018190555080610120015160046000848152602001908152602001600020600060036000868152602001908152602001600020548152602001908152602001600020606701819055505050565b6103de610e78565b60006004600085815260200190815260200160002060008481526020019081526020016000206040518061014001604052908160008201600a80602002604051908101604052809291906000905b828210156104725783826003020160405180606001604052908160008201548152602001600182015481526020016002820154815250508152602001906001019061042c565b505050508152602001601e8201600a80602002604051908101604052809291906000905b828210156104dc57838260030201604051806060016040529081600082015481526020016001820154815260200160028201548152505081526020019060010190610496565b505050508152602001603c8201600a806020026040519081016040528092919082600a8015610520576020028201915b81548152602001906001019080831161050c575b5050505050815260200160468201600a806020026040519081016040528092919082600a8015610565576020028201915b815481526020019060010190808311610551575b5050505050815260200160508201600a806020026040519081016040528092919082600a80156105aa576020028201915b815481526020019060010190808311610596575b50505050508152602001605a8201600a806020026040519081016040528092919082600a80156105ef576020028201915b8154815260200190600101908083116105db575b50505050508152602001606482015481526020016065820154815260200160668201548152602001606782015481525050905060006004600086815260200190815260200160002060006001866106469190611794565b81526020019081526020016000206040518061014001604052908160008201600a80602002604051908101604052809291906000905b828210156106c25783826003020160405180606001604052908160008201548152602001600182015481526020016002820154815250508152602001906001019061067c565b505050508152602001601e8201600a80602002604051908101604052809291906000905b8282101561072c578382600302016040518060600160405290816000820154815260200160018201548152602001600282015481525050815260200190600101906106e6565b505050508152602001603c8201600a806020026040519081016040528092919082600a8015610770576020028201915b81548152602001906001019080831161075c575b5050505050815260200160468201600a806020026040519081016040528092919082600a80156107b5576020028201915b8154815260200190600101908083116107a1575b5050505050815260200160508201600a806020026040519081016040528092919082600a80156107fa576020028201915b8154815260200190600101908083116107e6575b50505050508152602001605a8201600a806020026040519081016040528092919082600a801561083f576020028201915b81548152602001906001019080831161082b575b5050505050815260200160648201548152602001606582015481526020016066820154815260200160678201548152505090506000600590505b600081111561094f5760005b600a81101561093b576000836040015182600a81106108a7576108a66117c8565b5b602002015190506000846080015183600a81106108c7576108c66117c8565b5b602002015190506000806108e08b60018787878b610a8f565b9150915081896040015186600a81106108fc576108fb6117c8565b5b60200201818152505080896080015186600a811061091d5761091c6117c8565b5b6020020181815250505050505080610934906117f7565b9050610885565b5080806109479061183f565b915050610879565b50505092915050565b600260205280600052604060002060009150905080600001549080603d0160009054906101000a900473ffffffffffffffffffffffffffffffffffffffff169080603e0160009054906101000a900473ffffffffffffffffffffffffffffffffffffffff169080603f0160009054906101000a900473ffffffffffffffffffffffffffffffffffffffff16908060400160009054906101000a900473ffffffffffffffffffffffffffffffffffffffff16905085565b565b60036020528060005260406000206000915090505481565b60008054906101000a900473ffffffffffffffffffffffffffffffffffffffff1681565b565b6004602052816000526040600020602052806000526040600020600091509150508060640154908060650154908060660154908060670154905084565b565b565b6000806000600460008a81526020019081526020016000206000600360008c8152602001908152602001600020548152602001908152602001600020603c0187600a8110610ae057610adf6117c8565b5b015490506000600460008b81526020019081526020016000206000600360008d815260200190815260200160002054815260200190815260200160002060500188600a8110610b3257610b316117c8565b5b0154905060008503610b4b578181935093505050610d68565b60028903610bf457600460008b81526020019081526020016000206000600360008d815260200190815260200160002054815260200190815260200160002060460188600a8110610b9f57610b9e6117c8565b5b01549150600460008b81526020019081526020016000206000600360008d8152602001908152602001600020548152602001908152602001600020605a0188600a8110610bef57610bee6117c8565b5b015490505b60008288610c029190611872565b905060008288610c129190611872565b9050610c536040518060400160405280600a81526020017f4469666658203a2025730000000000000000000000000000000000000000000081525083610d73565b6000821315610c94576103e887836103e8610c6e91906118b5565b610c78919061195c565b610c8291906119c6565b86610c8d9190611794565b9550610cdb565b6000821215610cda576103e88783610cab906119f7565b6103e8610cb891906118b5565b610cc2919061195c565b610ccc91906119c6565b86610cd79190611a3f565b95505b5b6000811315610d1c576103e887826103e8610cf691906118b5565b610d00919061195c565b610d0a91906119c6565b85610d159190611794565b9450610d63565b6000821215610d62576103e88782610d33906119f7565b6103e8610d4091906118b5565b610d4a919061195c565b610d54919061195c565b85610d5f9190611a3f565b94505b5b505050505b965096945050505050565b610e0b8282604051602401610d89929190611af2565b6040516020818303038152906040527fb60e72cc000000000000000000000000000000000000000000000000000000007bffffffffffffffffffffffffffffffffffffffffffffffffffffffff19166020820180517bffffffffffffffffffffffffffffffffffffffffffffffffffffffff8381831617835250505050610e0f565b5050565b60008151905060006a636f6e736f6c652e6c6f679050602083016000808483855afa5050505050565b82600a8101928215610e67579160200282015b82811115610e66578251825591602001919060010190610e4b565b5b509050610e749190610eef565b5090565b604051806101400160405280610e8c610f0c565b8152602001610e99610f0c565b8152602001610ea6610f3a565b8152602001610eb3610f3a565b8152602001610ec0610f3a565b8152602001610ecd610f3a565b8152602001600081526020016000815260200160008152602001600081525090565b5b80821115610f08576000816000905550600101610ef0565b5090565b604051806101400160405280600a905b610f24610f5d565b815260200190600190039081610f1c5790505090565b604051806101400160405280600a90602082028036833780820191505090505090565b60405180606001604052806000815260200160008152602001600081525090565b6000819050919050565b610f9181610f7e565b82525050565b6000602082019050610fac6000830184610f88565b92915050565b6000604051905090565b600080fd5b610fca81610f7e565b8114610fd557600080fd5b50565b600081359050610fe781610fc1565b92915050565b600080fd5b6000601f19601f8301169050919050565b7f4e487b7100000000000000000000000000000000000000000000000000000000600052604160045260246000fd5b61103b82610ff2565b810181811067ffffffffffffffff8211171561105a57611059611003565b5b80604052505050565b600061106d610fb2565b90506110798282611032565b919050565b600080fd5b600067ffffffffffffffff82111561109e5761109d611003565b5b602082029050919050565b600080fd5b6000606082840312156110c4576110c3610fed565b5b6110ce6060611063565b905060006110de84828501610fd8565b60008301525060206110f284828501610fd8565b602083015250604061110684828501610fd8565b60408301525092915050565b600061112561112084611083565b611063565b9050806060840283018581111561113f5761113e6110a9565b5b835b81811015611168578061115488826110ae565b845260208401935050606081019050611141565b5050509392505050565b600082601f8301126111875761118661107e565b5b600a611194848285611112565b91505092915050565b600067ffffffffffffffff8211156111b8576111b7611003565b5b602082029050919050565b60006111d66111d18461119d565b611063565b905080602084028301858111156111f0576111ef6110a9565b5b835b8181101561121957806112058882610fd8565b8452602084019350506020810190506111f2565b5050509392505050565b600082601f8301126112385761123761107e565b5b600a6112458482856111c3565b91505092915050565b6000610d00828403121561126557611264610fed565b5b611270610140611063565b9050600061128084828501611172565b6000830152506103c061129584828501611172565b6020830152506107806112aa84828501611223565b6040830152506108c06112bf84828501611223565b606083015250610a006112d484828501611223565b608083015250610b406112e984828501611223565b60a083015250610c806112fe84828501610fd8565b60c083015250610ca061131384828501610fd8565b60e083015250610cc061132884828501610fd8565b61010083015250610ce061133e84828501610fd8565b6101208301525092915050565b600080610d20838503121561136357611362610fbc565b5b600061137185828601610fd8565b92505060206113828582860161124e565b9150509250929050565b600080604083850312156113a3576113a2610fbc565b5b60006113b185828601610fd8565b92505060206113c285828601610fd8565b9150509250929050565b6000600a9050919050565b600081905092915050565b6000819050919050565b6113f581610f7e565b82525050565b60608201600082015161141160008501826113ec565b50602082015161142460208501826113ec565b50604082015161143760408501826113ec565b50505050565b600061144983836113fb565b60608301905092915050565b6000602082019050919050565b61146b816113cc565b61147581846113d7565b9250611480826113e2565b8060005b838110156114b1578151611498878261143d565b96506114a383611455565b925050600181019050611484565b505050505050565b6000600a9050919050565b600081905092915050565b6000819050919050565b60006114e583836113ec565b60208301905092915050565b6000602082019050919050565b611507816114b9565b61151181846114c4565b925061151c826114cf565b8060005b8381101561154d57815161153487826114d9565b965061153f836114f1565b925050600181019050611520565b505050505050565b610d008201600082015161156c6000850182611462565b5060208201516115806103c0850182611462565b5060408201516115946107808501826114fe565b5060608201516115a86108c08501826114fe565b5060808201516115bc610a008501826114fe565b5060a08201516115d0610b408501826114fe565b5060c08201516115e4610c808501826113ec565b5060e08201516115f8610ca08501826113ec565b5061010082015161160d610cc08501826113ec565b50610120820151611622610ce08501826113ec565b50505050565b6000610d008201905061163e6000830184611555565b92915050565b60006020828403121561165a57611659610fbc565b5b600061166884828501610fd8565b91505092915050565b600073ffffffffffffffffffffffffffffffffffffffff82169050919050565b600061169c82611671565b9050919050565b6116ac81611691565b82525050565b600060a0820190506116c76000830188610f88565b6116d460208301876116a3565b6116e160408301866116a3565b6116ee60608301856116a3565b6116fb60808301846116a3565b9695505050505050565b600060208201905061171a60008301846116a3565b92915050565b60006080820190506117356000830187610f88565b6117426020830186610f88565b61174f6040830185610f88565b61175c6060830184610f88565b95945050505050565b7f4e487b7100000000000000000000000000000000000000000000000000000000600052601160045260246000fd5b600061179f82610f7e565b91506117aa83610f7e565b92508282019050808211156117c2576117c1611765565b5b92915050565b7f4e487b7100000000000000000000000000000000000000000000000000000000600052603260045260246000fd5b600061180282610f7e565b91507fffffffffffffffffffffffffffffffffffffffffffffffffffffffffffffffff820361183457611833611765565b5b600182019050919050565b600061184a82610f7e565b91506000820361185d5761185c611765565b5b600182039050919050565b6000819050919050565b600061187d82611868565b915061188883611868565b92508282039050818112600084121682821360008512151617156118af576118ae611765565b5b92915050565b60006118c082611868565b91506118cb83611868565b92508282026118d981611868565b91507f8000000000000000000000000000000000000000000000000000000000000000841460008412161561191157611910611765565b5b828205841483151761192657611925611765565b5b5092915050565b7f4e487b7100000000000000000000000000000000000000000000000000000000600052601260045260246000fd5b600061196782611868565b915061197283611868565b9250826119825761198161192d565b5b600160000383147f8000000000000000000000000000000000000000000000000000000000000000831416156119bb576119ba611765565b5b828205905092915050565b60006119d182610f7e565b91506119dc83610f7e565b9250826119ec576119eb61192d565b5b828204905092915050565b6000611a0282611868565b91507f80000000000000000000000000000000000000000000000000000000000000008203611a3457611a33611765565b5b816000039050919050565b6000611a4a82610f7e565b9150611a5583610f7e565b9250828203905081811115611a6d57611a6c611765565b5b92915050565b600081519050919050565b600082825260208201905092915050565b60005b83811015611aad578082015181840152602081019050611a92565b60008484015250505050565b6000611ac482611a73565b611ace8185611a7e565b9350611ade818560208601611a8f565b611ae781610ff2565b840191505092915050565b60006040820190508181036000830152611b0c8185611ab9565b9050611b1b6020830184610f88565b939250505056fea2646970667358221220e67f87eeed9c71d04de0170a03ea70cdccc65b3e4a7154c7b8b46512f483073164736f6c63430008120033","opcodes":"PUSH1 0x80 PUSH1 0x40 MSTORE CALLVALUE DUP1 ISZERO PUSH3 0x11 JUMPI PUSH1 0x0 DUP1 REVERT JUMPDEST POP PUSH1 0x40 MLOAD DUP1 PUSH2 0x140 ADD PUSH1 0x40 MSTORE DUP1 PUSH1 0xA PUSH1 0xFF AND DUP2 MSTORE PUSH1 0x20 ADD PUSH1 0x14 PUSH1 0xFF AND DUP2 MSTORE PUSH1 0x20 ADD PUSH1 0x1E PUSH1 0xFF AND DUP2 MSTORE PUSH1 0x20 ADD PUSH1 0xB PUSH1 0xFF AND DUP2 MSTORE PUSH1 0x20 ADD PUSH1 0xE PUSH1 0xFF AND DUP2 MSTORE PUSH1 0x20 ADD PUSH1 0xF PUSH1 0xFF AND DUP2 MSTORE PUSH1 0x20 ADD PUSH1 0x10 PUSH1 0xFF AND DUP2 MSTORE PUSH1 0x20 ADD PUSH1 0xC PUSH1 0xFF AND DUP2 MSTORE PUSH1 0x20 ADD PUSH1 0x11 PUSH1 0xFF AND DUP2 MSTORE PUSH1 0x20 ADD PUSH1 0xB PUSH1 0xFF AND DUP2 MSTORE POP PUSH1 0x4 PUSH1 0x0 PUSH1 0x1 SLOAD DUP2 MSTORE PUSH1 0x20 ADD SWAP1 DUP2 MSTORE PUSH1 0x20 ADD PUSH1 0x0 KECCAK256 PUSH1 0x0 DUP1 DUP2 MSTORE PUSH1 0x20 ADD SWAP1 DUP2 MSTORE PUSH1 0x20 ADD PUSH1 0x0 KECCAK256 PUSH1 0x3C ADD SWAP1 PUSH1 0xA PUSH3 0xB9 SWAP3 SWAP2 SWAP1 PUSH3 0x577 JUMP JUMPDEST POP PUSH1 0x40 MLOAD DUP1 PUSH2 0x140 ADD PUSH1 0x40 MSTORE DUP1 PUSH1 0xA PUSH1 0xFF AND DUP2 MSTORE PUSH1 0x20 ADD PUSH1 0x14 PUSH1 0xFF AND DUP2 MSTORE PUSH1 0x20 ADD PUSH1 0x1E PUSH1 0xFF AND DUP2 MSTORE PUSH1 0x20 ADD PUSH1 0xB PUSH1 0xFF AND DUP2 MSTORE PUSH1 0x20 ADD PUSH1 0x3 PUSH1 0xFF AND DUP2 MSTORE PUSH1 0x20 ADD PUSH1 0xF PUSH1 0xFF AND DUP2 MSTORE PUSH1 0x20 ADD PUSH1 0x10 PUSH1 0xFF AND DUP2 MSTORE PUSH1 0x20 ADD PUSH1 0xC PUSH1 0xFF AND DUP2 MSTORE PUSH1 0x20 ADD PUSH1 0x11 PUSH1 0xFF AND DUP2 MSTORE PUSH1 0x20 ADD PUSH1 0xB PUSH1 0xFF AND DUP2 MSTORE POP PUSH1 0x4 PUSH1 0x0 PUSH1 0x1 SLOAD DUP2 MSTORE PUSH1 0x20 ADD SWAP1 DUP2 MSTORE PUSH1 0x20 ADD PUSH1 0x0 KECCAK256 PUSH1 0x0 DUP1 DUP2 MSTORE PUSH1 0x20 ADD SWAP1 DUP2 MSTORE PUSH1 0x20 ADD PUSH1 0x0 KECCAK256 PUSH1 0x50 ADD SWAP1 PUSH1 0xA PUSH3 0x161 SWAP3 SWAP2 SWAP1 PUSH3 0x577 JUMP JUMPDEST POP PUSH1 0x40 MLOAD DUP1 PUSH2 0x140 ADD PUSH1 0x40 MSTORE DUP1 PUSH1 0xA PUSH1 0xFF AND DUP2 MSTORE PUSH1 0x20 ADD PUSH1 0x14 PUSH1 0xFF AND DUP2 MSTORE PUSH1 0x20 ADD PUSH1 0x2 PUSH1 0xFF AND DUP2 MSTORE PUSH1 0x20 ADD PUSH1 0xB PUSH1 0xFF AND DUP2 MSTORE PUSH1 0x20 ADD PUSH1 0x4 PUSH1 0xFF AND DUP2 MSTORE PUSH1 0x20 ADD PUSH1 0xF PUSH1 0xFF AND DUP2 MSTORE PUSH1 0x20 ADD PUSH1 0x9 PUSH1 0xFF AND DUP2 MSTORE PUSH1 0x20 ADD PUSH1 0xC PUSH1 0xFF AND DUP2 MSTORE PUSH1 0x20 ADD PUSH1 0x11 PUSH1 0xFF AND DUP2 MSTORE PUSH1 0x20 ADD PUSH1 0xB PUSH1 0xFF AND DUP2 MSTORE POP PUSH1 0x4 PUSH1 0x0 PUSH1 0x1 SLOAD DUP2 MSTORE PUSH1 0x20 ADD SWAP1 DUP2 MSTORE PUSH1 0x20 ADD PUSH1 0x0 KECCAK256 PUSH1 0x0 DUP1 DUP2 MSTORE PUSH1 0x20 ADD SWAP1 DUP2 MSTORE PUSH1 0x20 ADD PUSH1 0x0 KECCAK256 PUSH1 0x46 ADD SWAP1 PUSH1 0xA PUSH3 0x209 SWAP3 SWAP2 SWAP1 PUSH3 0x577 JUMP JUMPDEST POP PUSH1 0x40 MLOAD DUP1 PUSH2 0x140 ADD PUSH1 0x40 MSTORE DUP1 PUSH1 0xA PUSH1 0xFF AND DUP2 MSTORE PUSH1 0x20 ADD PUSH1 0x1E PUSH1 0xFF AND DUP2 MSTORE PUSH1 0x20 ADD PUSH1 0x1E PUSH1 0xFF AND DUP2 MSTORE PUSH1 0x20 ADD PUSH1 0xB PUSH1 0xFF AND DUP2 MSTORE PUSH1 0x20 ADD PUSH1 0xE PUSH1 0xFF AND DUP2 MSTORE PUSH1 0x20 ADD PUSH1 0x1 PUSH1 0xFF AND DUP2 MSTORE PUSH1 0x20 ADD PUSH1 0x10 PUSH1 0xFF AND DUP2 MSTORE PUSH1 0x20 ADD PUSH1 0xC PUSH1 0xFF AND DUP2 MSTORE PUSH1 0x20 ADD PUSH1 0x1 PUSH1 0xFF AND DUP2 MSTORE PUSH1 0x20 ADD PUSH1 0xB PUSH1 0xFF AND DUP2 MSTORE POP PUSH1 0x4 PUSH1 0x0 PUSH1 0x1 SLOAD DUP2 MSTORE PUSH1 0x20 ADD SWAP1 DUP2 MSTORE PUSH1 0x20 ADD PUSH1 0x0 KECCAK256 PUSH1 0x0 DUP1 DUP2 MSTORE PUSH1 0x20 ADD SWAP1 DUP2 MSTORE PUSH1 0x20 ADD PUSH1 0x0 KECCAK256 PUSH1 0x5A ADD SWAP1 PUSH1 0xA PUSH3 0x2B1 SWAP3 SWAP2 SWAP1 PUSH3 0x577 JUMP JUMPDEST POP PUSH1 0x40 MLOAD DUP1 PUSH2 0x140 ADD PUSH1 0x40 MSTORE DUP1 PUSH1 0x1 PUSH1 0xFF AND DUP2 MSTORE PUSH1 0x20 ADD PUSH1 0x4 PUSH1 0xFF AND DUP2 MSTORE PUSH1 0x20 ADD PUSH1 0x1E PUSH1 0xFF AND DUP2 MSTORE PUSH1 0x20 ADD PUSH1 0x5 PUSH1 0xFF AND DUP2 MSTORE PUSH1 0x20 ADD PUSH1 0xE PUSH1 0xFF AND DUP2 MSTORE PUSH1 0x20 ADD PUSH1 0x1 PUSH1 0xFF AND DUP2 MSTORE PUSH1 0x20 ADD PUSH1 0x10 PUSH1 0xFF AND DUP2 MSTORE PUSH1 0x20 ADD PUSH1 0xC PUSH1 0xFF AND DUP2 MSTORE PUSH1 0x20 ADD PUSH1 0x11 PUSH1 0xFF AND DUP2 MSTORE PUSH1 0x20 ADD PUSH1 0xB PUSH1 0xFF AND DUP2 MSTORE POP PUSH1 0x4 PUSH1 0x0 PUSH1 0x1 SLOAD DUP2 MSTORE PUSH1 0x20 ADD SWAP1 DUP2 MSTORE PUSH1 0x20 ADD PUSH1 0x0 KECCAK256 PUSH1 0x0 PUSH1 0x1 DUP2 MSTORE PUSH1 0x20 ADD SWAP1 DUP2 MSTORE PUSH1 0x20 ADD PUSH1 0x0 KECCAK256 PUSH1 0x3C ADD SWAP1 PUSH1 0xA PUSH3 0x35A SWAP3 SWAP2 SWAP1 PUSH3 0x577 JUMP JUMPDEST POP PUSH1 0x40 MLOAD DUP1 PUSH2 0x140 ADD PUSH1 0x40 MSTORE DUP1 PUSH1 0xA PUSH1 0xFF AND DUP2 MSTORE PUSH1 0x20 ADD PUSH1 0x5 PUSH1 0xFF AND DUP2 MSTORE PUSH1 0x20 ADD PUSH1 0x1E PUSH1 0xFF AND DUP2 MSTORE PUSH1 0x20 ADD PUSH1 0x2 PUSH1 0xFF AND DUP2 MSTORE PUSH1 0x20 ADD PUSH1 0x3 PUSH1 0xFF AND DUP2 MSTORE PUSH1 0x20 ADD PUSH1 0xF PUSH1 0xFF AND DUP2 MSTORE PUSH1 0x20 ADD PUSH1 0x5 PUSH1 0xFF AND DUP2 MSTORE PUSH1 0x20 ADD PUSH1 0xC PUSH1 0xFF AND DUP2 MSTORE PUSH1 0x20 ADD PUSH1 0x11 PUSH1 0xFF AND DUP2 MSTORE PUSH1 0x20 ADD PUSH1 0xB PUSH1 0xFF AND DUP2 MSTORE POP PUSH1 0x4 PUSH1 0x0 PUSH1 0x1 SLOAD DUP2 MSTORE PUSH1 0x20 ADD SWAP1 DUP2 MSTORE PUSH1 0x20 ADD PUSH1 0x0 KECCAK256 PUSH1 0x0 PUSH1 0x1 DUP2 MSTORE PUSH1 0x20 ADD SWAP1 DUP2 MSTORE PUSH1 0x20 ADD PUSH1 0x0 KECCAK256 PUSH1 0x50 ADD SWAP1 PUSH1 0xA PUSH3 0x403 SWAP3 SWAP2 SWAP1 PUSH3 0x577 JUMP JUMPDEST POP PUSH1 0x40 MLOAD DUP1 PUSH2 0x140 ADD PUSH1 0x40 MSTORE DUP1 PUSH1 0xA PUSH1 0xFF AND DUP2 MSTORE PUSH1 0x20 ADD PUSH1 0x14 PUSH1 0xFF AND DUP2 MSTORE PUSH1 0x20 ADD PUSH1 0x2 PUSH1 0xFF AND DUP2 MSTORE PUSH1 0x20 ADD PUSH1 0x1 PUSH1 0xFF AND DUP2 MSTORE PUSH1 0x20 ADD PUSH1 0xE PUSH1 0xFF AND DUP2 MSTORE PUSH1 0x20 ADD PUSH1 0xF PUSH1 0xFF AND DUP2 MSTORE PUSH1 0x20 ADD PUSH1 0x9 PUSH1 0xFF AND DUP2 MSTORE PUSH1 0x20 ADD PUSH1 0xC PUSH1 0xFF AND DUP2 MSTORE PUSH1 0x20 ADD PUSH1 0x11 PUSH1 0xFF AND DUP2 MSTORE PUSH1 0x20 ADD PUSH1 0x21 PUSH1 0xFF AND DUP2 MSTORE POP PUSH1 0x4 PUSH1 0x0 PUSH1 0x1 SLOAD DUP2 MSTORE PUSH1 0x20 ADD SWAP1 DUP2 MSTORE PUSH1 0x20 ADD PUSH1 0x0 KECCAK256 PUSH1 0x0 PUSH1 0x1 DUP2 MSTORE PUSH1 0x20 ADD SWAP1 DUP2 MSTORE PUSH1 0x20 ADD PUSH1 0x0 KECCAK256 PUSH1 0x46 ADD SWAP1 PUSH1 0xA PUSH3 0x4AC SWAP3 SWAP2 SWAP1 PUSH3 0x577 JUMP JUMPDEST POP PUSH1 0x40 MLOAD DUP1 PUSH2 0x140 ADD PUSH1 0x40 MSTORE DUP1 PUSH1 0x1 PUSH1 0xFF AND DUP2 MSTORE PUSH1 0x20 ADD PUSH1 0x1E PUSH1 0xFF AND DUP2 MSTORE PUSH1 0x20 ADD PUSH1 0x1 PUSH1 0xFF AND DUP2 MSTORE PUSH1 0x20 ADD PUSH1 0xB PUSH1 0xFF AND DUP2 MSTORE PUSH1 0x20 ADD PUSH1 0xE PUSH1 0xFF AND DUP2 MSTORE PUSH1 0x20 ADD PUSH1 0x1 PUSH1 0xFF AND DUP2 MSTORE PUSH1 0x20 ADD PUSH1 0x3 PUSH1 0xFF AND DUP2 MSTORE PUSH1 0x20 ADD PUSH1 0xC PUSH1 0xFF AND DUP2 MSTORE PUSH1 0x20 ADD PUSH1 0xC PUSH1 0xFF AND DUP2 MSTORE PUSH1 0x20 ADD PUSH1 0xB PUSH1 0xFF AND DUP2 MSTORE POP PUSH1 0x4 PUSH1 0x0 PUSH1 0x1 SLOAD DUP2 MSTORE PUSH1 0x20 ADD SWAP1 DUP2 MSTORE PUSH1 0x20 ADD PUSH1 0x0 KECCAK256 PUSH1 0x0 PUSH1 0x1 DUP2 MSTORE PUSH1 0x20 ADD SWAP1 DUP2 MSTORE PUSH1 0x20 ADD PUSH1 0x0 KECCAK256 PUSH1 0x5A ADD SWAP1 PUSH1 0xA PUSH3 0x555 SWAP3 SWAP2 SWAP1 PUSH3 0x577 JUMP JUMPDEST POP PUSH1 0x1 DUP1 PUSH1 0x0 DUP3 DUP3 SLOAD PUSH3 0x56A SWAP2 SWAP1 PUSH3 0x619 JUMP JUMPDEST SWAP3 POP POP DUP2 SWAP1 SSTORE POP PUSH3 0x654 JUMP JUMPDEST DUP3 PUSH1 0xA DUP2 ADD SWAP3 DUP3 ISZERO PUSH3 0x5AE JUMPI SWAP2 PUSH1 0x20 MUL DUP3 ADD JUMPDEST DUP3 DUP2 GT ISZERO PUSH3 0x5AD JUMPI DUP3 MLOAD DUP3 SWAP1 PUSH1 0xFF AND SWAP1 SSTORE SWAP2 PUSH1 0x20 ADD SWAP2 SWAP1 PUSH1 0x1 ADD SWAP1 PUSH3 0x58B JUMP JUMPDEST JUMPDEST POP SWAP1 POP PUSH3 0x5BD SWAP2 SWAP1 PUSH3 0x5C1 JUMP JUMPDEST POP SWAP1 JUMP JUMPDEST JUMPDEST DUP1 DUP3 GT ISZERO PUSH3 0x5DC JUMPI PUSH1 0x0 DUP2 PUSH1 0x0 SWAP1 SSTORE POP PUSH1 0x1 ADD PUSH3 0x5C2 JUMP JUMPDEST POP SWAP1 JUMP JUMPDEST PUSH1 0x0 DUP2 SWAP1 POP SWAP2 SWAP1 POP JUMP JUMPDEST PUSH32 0x4E487B7100000000000000000000000000000000000000000000000000000000 PUSH1 0x0 MSTORE PUSH1 0x11 PUSH1 0x4 MSTORE PUSH1 0x24 PUSH1 0x0 REVERT JUMPDEST PUSH1 0x0 PUSH3 0x626 DUP3 PUSH3 0x5E0 JUMP JUMPDEST SWAP2 POP PUSH3 0x633 DUP4 PUSH3 0x5E0 JUMP JUMPDEST SWAP3 POP DUP3 DUP3 ADD SWAP1 POP DUP1 DUP3 GT ISZERO PUSH3 0x64E JUMPI PUSH3 0x64D PUSH3 0x5EA JUMP JUMPDEST JUMPDEST SWAP3 SWAP2 POP POP JUMP JUMPDEST PUSH2 0x1B58 DUP1 PUSH3 0x664 PUSH1 0x0 CODECOPY PUSH1 0x0 RETURN INVALID PUSH1 0x80 PUSH1 0x40 MSTORE CALLVALUE DUP1 ISZERO PUSH2 0x10 JUMPI PUSH1 0x0 DUP1 REVERT JUMPDEST POP PUSH1 0x4 CALLDATASIZE LT PUSH2 0xB4 JUMPI PUSH1 0x0 CALLDATALOAD PUSH1 0xE0 SHR DUP1 PUSH4 0x502D4755 GT PUSH2 0x71 JUMPI DUP1 PUSH4 0x502D4755 EQ PUSH2 0x16B JUMPI DUP1 PUSH4 0x8BA47BDD EQ PUSH2 0x19B JUMPI DUP1 PUSH4 0xA0CC641A EQ PUSH2 0x1B9 JUMPI DUP1 PUSH4 0xEA302BDB EQ PUSH2 0x1C3 JUMPI DUP1 PUSH4 0xF1A18266 EQ PUSH2 0x1F6 JUMPI DUP1 PUSH4 0xF240F7C3 EQ PUSH2 0x200 JUMPI PUSH2 0xB4 JUMP JUMPDEST DUP1 PUSH4 0x1FD1951 EQ PUSH2 0xB9 JUMPI DUP1 PUSH4 0x2C0CDC4 EQ PUSH2 0xD7 JUMPI DUP1 PUSH4 0x28866592 EQ PUSH2 0xE1 JUMPI DUP1 PUSH4 0x2DB146CF EQ PUSH2 0xFD JUMPI DUP1 PUSH4 0x4768D4EF EQ PUSH2 0x12D JUMPI DUP1 PUSH4 0x4B46DB95 EQ PUSH2 0x161 JUMPI JUMPDEST PUSH1 0x0 DUP1 REVERT JUMPDEST PUSH2 0xC1 PUSH2 0x20A JUMP JUMPDEST PUSH1 0x40 MLOAD PUSH2 0xCE SWAP2 SWAP1 PUSH2 0xF97 JUMP JUMPDEST PUSH1 0x40 MLOAD DUP1 SWAP2 SUB SWAP1 RETURN JUMPDEST PUSH2 0xDF PUSH2 0x210 JUMP JUMPDEST STOP JUMPDEST PUSH2 0xFB PUSH1 0x4 DUP1 CALLDATASIZE SUB DUP2 ADD SWAP1 PUSH2 0xF6 SWAP2 SWAP1 PUSH2 0x134B JUMP JUMPDEST PUSH2 0x212 JUMP JUMPDEST STOP JUMPDEST PUSH2 0x117 PUSH1 0x4 DUP1 CALLDATASIZE SUB DUP2 ADD SWAP1 PUSH2 0x112 SWAP2 SWAP1 PUSH2 0x138C JUMP JUMPDEST PUSH2 0x3D6 JUMP JUMPDEST PUSH1 0x40 MLOAD PUSH2 0x124 SWAP2 SWAP1 PUSH2 0x1628 JUMP JUMPDEST PUSH1 0x40 MLOAD DUP1 SWAP2 SUB SWAP1 RETURN JUMPDEST PUSH2 0x147 PUSH1 0x4 DUP1 CALLDATASIZE SUB DUP2 ADD SWAP1 PUSH2 0x142 SWAP2 SWAP1 PUSH2 0x1644 JUMP JUMPDEST PUSH2 0x958 JUMP JUMPDEST PUSH1 0x40 MLOAD PUSH2 0x158 SWAP6 SWAP5 SWAP4 SWAP3 SWAP2 SWAP1 PUSH2 0x16B2 JUMP JUMPDEST PUSH1 0x40 MLOAD DUP1 SWAP2 SUB SWAP1 RETURN JUMPDEST PUSH2 0x169 PUSH2 0xA0E JUMP JUMPDEST STOP JUMPDEST PUSH2 0x185 PUSH1 0x4 DUP1 CALLDATASIZE SUB DUP2 ADD SWAP1 PUSH2 0x180 SWAP2 SWAP1 PUSH2 0x1644 JUMP JUMPDEST PUSH2 0xA10 JUMP JUMPDEST PUSH1 0x40 MLOAD PUSH2 0x192 SWAP2 SWAP1 PUSH2 0xF97 JUMP JUMPDEST PUSH1 0x40 MLOAD DUP1 SWAP2 SUB SWAP1 RETURN JUMPDEST PUSH2 0x1A3 PUSH2 0xA28 JUMP JUMPDEST PUSH1 0x40 MLOAD PUSH2 0x1B0 SWAP2 SWAP1 PUSH2 0x1705 JUMP JUMPDEST PUSH1 0x40 MLOAD DUP1 SWAP2 SUB SWAP1 RETURN JUMPDEST PUSH2 0x1C1 PUSH2 0xA4C JUMP JUMPDEST STOP JUMPDEST PUSH2 0x1DD PUSH1 0x4 DUP1 CALLDATASIZE SUB DUP2 ADD SWAP1 PUSH2 0x1D8 SWAP2 SWAP1 PUSH2 0x138C JUMP JUMPDEST PUSH2 0xA4E JUMP JUMPDEST PUSH1 0x40 MLOAD PUSH2 0x1ED SWAP5 SWAP4 SWAP3 SWAP2 SWAP1 PUSH2 0x1720 JUMP JUMPDEST PUSH1 0x40 MLOAD DUP1 SWAP2 SUB SWAP1 RETURN JUMPDEST PUSH2 0x1FE PUSH2 0xA8B JUMP JUMPDEST STOP JUMPDEST PUSH2 0x208 PUSH2 0xA8D JUMP JUMPDEST STOP JUMPDEST PUSH1 0x1 SLOAD DUP2 JUMP JUMPDEST JUMP JUMPDEST DUP1 PUSH1 0x40 ADD MLOAD PUSH1 0x4 PUSH1 0x0 DUP5 DUP2 MSTORE PUSH1 0x20 ADD SWAP1 DUP2 MSTORE PUSH1 0x20 ADD PUSH1 0x0 KECCAK256 PUSH1 0x0 PUSH1 0x3 PUSH1 0x0 DUP7 DUP2 MSTORE PUSH1 0x20 ADD SWAP1 DUP2 MSTORE PUSH1 0x20 ADD PUSH1 0x0 KECCAK256 SLOAD DUP2 MSTORE PUSH1 0x20 ADD SWAP1 DUP2 MSTORE PUSH1 0x20 ADD PUSH1 0x0 KECCAK256 PUSH1 0x3C ADD SWAP1 PUSH1 0xA PUSH2 0x25F SWAP3 SWAP2 SWAP1 PUSH2 0xE38 JUMP JUMPDEST POP DUP1 PUSH1 0x60 ADD MLOAD PUSH1 0x4 PUSH1 0x0 DUP5 DUP2 MSTORE PUSH1 0x20 ADD SWAP1 DUP2 MSTORE PUSH1 0x20 ADD PUSH1 0x0 KECCAK256 PUSH1 0x0 PUSH1 0x3 PUSH1 0x0 DUP7 DUP2 MSTORE PUSH1 0x20 ADD SWAP1 DUP2 MSTORE PUSH1 0x20 ADD PUSH1 0x0 KECCAK256 SLOAD DUP2 MSTORE PUSH1 0x20 ADD SWAP1 DUP2 MSTORE PUSH1 0x20 ADD PUSH1 0x0 KECCAK256 PUSH1 0x46 ADD SWAP1 PUSH1 0xA PUSH2 0x2AD SWAP3 SWAP2 SWAP1 PUSH2 0xE38 JUMP JUMPDEST POP DUP1 PUSH1 0x80 ADD MLOAD PUSH1 0x4 PUSH1 0x0 DUP5 DUP2 MSTORE PUSH1 0x20 ADD SWAP1 DUP2 MSTORE PUSH1 0x20 ADD PUSH1 0x0 KECCAK256 PUSH1 0x0 PUSH1 0x3 PUSH1 0x0 DUP7 DUP2 MSTORE PUSH1 0x20 ADD SWAP1 DUP2 MSTORE PUSH1 0x20 ADD PUSH1 0x0 KECCAK256 SLOAD DUP2 MSTORE PUSH1 0x20 ADD SWAP1 DUP2 MSTORE PUSH1 0x20 ADD PUSH1 0x0 KECCAK256 PUSH1 0x50 ADD SWAP1 PUSH1 0xA PUSH2 0x2FB SWAP3 SWAP2 SWAP1 PUSH2 0xE38 JUMP JUMPDEST POP DUP1 PUSH1 0xA0 ADD MLOAD PUSH1 0x4 PUSH1 0x0 DUP5 DUP2 MSTORE PUSH1 0x20 ADD SWAP1 DUP2 MSTORE PUSH1 0x20 ADD PUSH1 0x0 KECCAK256 PUSH1 0x0 PUSH1 0x3 PUSH1 0x0 DUP7 DUP2 MSTORE PUSH1 0x20 ADD SWAP1 DUP2 MSTORE PUSH1 0x20 ADD PUSH1 0x0 KECCAK256 SLOAD DUP2 MSTORE PUSH1 0x20 ADD SWAP1 DUP2 MSTORE PUSH1 0x20 ADD PUSH1 0x0 KECCAK256 PUSH1 0x5A ADD SWAP1 PUSH1 0xA PUSH2 0x349 SWAP3 SWAP2 SWAP1 PUSH2 0xE38 JUMP JUMPDEST POP DUP1 PUSH2 0x100 ADD MLOAD PUSH1 0x4 PUSH1 0x0 DUP5 DUP2 MSTORE PUSH1 0x20 ADD SWAP1 DUP2 MSTORE PUSH1 0x20 ADD PUSH1 0x0 KECCAK256 PUSH1 0x0 PUSH1 0x3 PUSH1 0x0 DUP7 DUP2 MSTORE PUSH1 0x20 ADD SWAP1 DUP2 MSTORE PUSH1 0x20 ADD PUSH1 0x0 KECCAK256 SLOAD DUP2 MSTORE PUSH1 0x20 ADD SWAP1 DUP2 MSTORE PUSH1 0x20 ADD PUSH1 0x0 KECCAK256 PUSH1 0x66 ADD DUP2 SWAP1 SSTORE POP DUP1 PUSH2 0x120 ADD MLOAD PUSH1 0x4 PUSH1 0x0 DUP5 DUP2 MSTORE PUSH1 0x20 ADD SWAP1 DUP2 MSTORE PUSH1 0x20 ADD PUSH1 0x0 KECCAK256 PUSH1 0x0 PUSH1 0x3 PUSH1 0x0 DUP7 DUP2 MSTORE PUSH1 0x20 ADD SWAP1 DUP2 MSTORE PUSH1 0x20 ADD PUSH1 0x0 KECCAK256 SLOAD DUP2 MSTORE PUSH1 0x20 ADD SWAP1 DUP2 MSTORE PUSH1 0x20 ADD PUSH1 0x0 KECCAK256 PUSH1 0x67 ADD DUP2 SWAP1 SSTORE POP POP POP JUMP JUMPDEST PUSH2 0x3DE PUSH2 0xE78 JUMP JUMPDEST PUSH1 0x0 PUSH1 0x4 PUSH1 0x0 DUP6 DUP2 MSTORE PUSH1 0x20 ADD SWAP1 DUP2 MSTORE PUSH1 0x20 ADD PUSH1 0x0 KECCAK256 PUSH1 0x0 DUP5 DUP2 MSTORE PUSH1 0x20 ADD SWAP1 DUP2 MSTORE PUSH1 0x20 ADD PUSH1 0x0 KECCAK256 PUSH1 0x40 MLOAD DUP1 PUSH2 0x140 ADD PUSH1 0x40 MSTORE SWAP1 DUP2 PUSH1 0x0 DUP3 ADD PUSH1 0xA DUP1 PUSH1 0x20 MUL PUSH1 0x40 MLOAD SWAP1 DUP2 ADD PUSH1 0x40 MSTORE DUP1 SWAP3 SWAP2 SWAP1 PUSH1 0x0 SWAP1 JUMPDEST DUP3 DUP3 LT ISZERO PUSH2 0x472 JUMPI DUP4 DUP3 PUSH1 0x3 MUL ADD PUSH1 0x40 MLOAD DUP1 PUSH1 0x60 ADD PUSH1 0x40 MSTORE SWAP1 DUP2 PUSH1 0x0 DUP3 ADD SLOAD DUP2 MSTORE PUSH1 0x20 ADD PUSH1 0x1 DUP3 ADD SLOAD DUP2 MSTORE PUSH1 0x20 ADD PUSH1 0x2 DUP3 ADD SLOAD DUP2 MSTORE POP POP DUP2 MSTORE PUSH1 0x20 ADD SWAP1 PUSH1 0x1 ADD SWAP1 PUSH2 0x42C JUMP JUMPDEST POP POP POP POP DUP2 MSTORE PUSH1 0x20 ADD PUSH1 0x1E DUP3 ADD PUSH1 0xA DUP1 PUSH1 0x20 MUL PUSH1 0x40 MLOAD SWAP1 DUP2 ADD PUSH1 0x40 MSTORE DUP1 SWAP3 SWAP2 SWAP1 PUSH1 0x0 SWAP1 JUMPDEST DUP3 DUP3 LT ISZERO PUSH2 0x4DC JUMPI DUP4 DUP3 PUSH1 0x3 MUL ADD PUSH1 0x40 MLOAD DUP1 PUSH1 0x60 ADD PUSH1 0x40 MSTORE SWAP1 DUP2 PUSH1 0x0 DUP3 ADD SLOAD DUP2 MSTORE PUSH1 0x20 ADD PUSH1 0x1 DUP3 ADD SLOAD DUP2 MSTORE PUSH1 0x20 ADD PUSH1 0x2 DUP3 ADD SLOAD DUP2 MSTORE POP POP DUP2 MSTORE PUSH1 0x20 ADD SWAP1 PUSH1 0x1 ADD SWAP1 PUSH2 0x496 JUMP JUMPDEST POP POP POP POP DUP2 MSTORE PUSH1 0x20 ADD PUSH1 0x3C DUP3 ADD PUSH1 0xA DUP1 PUSH1 0x20 MUL PUSH1 0x40 MLOAD SWAP1 DUP2 ADD PUSH1 0x40 MSTORE DUP1 SWAP3 SWAP2 SWAP1 DUP3 PUSH1 0xA DUP1 ISZERO PUSH2 0x520 JUMPI PUSH1 0x20 MUL DUP3 ADD SWAP2 JUMPDEST DUP2 SLOAD DUP2 MSTORE PUSH1 0x20 ADD SWAP1 PUSH1 0x1 ADD SWAP1 DUP1 DUP4 GT PUSH2 0x50C JUMPI JUMPDEST POP POP POP POP POP DUP2 MSTORE PUSH1 0x20 ADD PUSH1 0x46 DUP3 ADD PUSH1 0xA DUP1 PUSH1 0x20 MUL PUSH1 0x40 MLOAD SWAP1 DUP2 ADD PUSH1 0x40 MSTORE DUP1 SWAP3 SWAP2 SWAP1 DUP3 PUSH1 0xA DUP1 ISZERO PUSH2 0x565 JUMPI PUSH1 0x20 MUL DUP3 ADD SWAP2 JUMPDEST DUP2 SLOAD DUP2 MSTORE PUSH1 0x20 ADD SWAP1 PUSH1 0x1 ADD SWAP1 DUP1 DUP4 GT PUSH2 0x551 JUMPI JUMPDEST POP POP POP POP POP DUP2 MSTORE PUSH1 0x20 ADD PUSH1 0x50 DUP3 ADD PUSH1 0xA DUP1 PUSH1 0x20 MUL PUSH1 0x40 MLOAD SWAP1 DUP2 ADD PUSH1 0x40 MSTORE DUP1 SWAP3 SWAP2 SWAP1 DUP3 PUSH1 0xA DUP1 ISZERO PUSH2 0x5AA JUMPI PUSH1 0x20 MUL DUP3 ADD SWAP2 JUMPDEST DUP2 SLOAD DUP2 MSTORE PUSH1 0x20 ADD SWAP1 PUSH1 0x1 ADD SWAP1 DUP1 DUP4 GT PUSH2 0x596 JUMPI JUMPDEST POP POP POP POP POP DUP2 MSTORE PUSH1 0x20 ADD PUSH1 0x5A DUP3 ADD PUSH1 0xA DUP1 PUSH1 0x20 MUL PUSH1 0x40 MLOAD SWAP1 DUP2 ADD PUSH1 0x40 MSTORE DUP1 SWAP3 SWAP2 SWAP1 DUP3 PUSH1 0xA DUP1 ISZERO PUSH2 0x5EF JUMPI PUSH1 0x20 MUL DUP3 ADD SWAP2 JUMPDEST DUP2 SLOAD DUP2 MSTORE PUSH1 0x20 ADD SWAP1 PUSH1 0x1 ADD SWAP1 DUP1 DUP4 GT PUSH2 0x5DB JUMPI JUMPDEST POP POP POP POP POP DUP2 MSTORE PUSH1 0x20 ADD PUSH1 0x64 DUP3 ADD SLOAD DUP2 MSTORE PUSH1 0x20 ADD PUSH1 0x65 DUP3 ADD SLOAD DUP2 MSTORE PUSH1 0x20 ADD PUSH1 0x66 DUP3 ADD SLOAD DUP2 MSTORE PUSH1 0x20 ADD PUSH1 0x67 DUP3 ADD SLOAD DUP2 MSTORE POP POP SWAP1 POP PUSH1 0x0 PUSH1 0x4 PUSH1 0x0 DUP7 DUP2 MSTORE PUSH1 0x20 ADD SWAP1 DUP2 MSTORE PUSH1 0x20 ADD PUSH1 0x0 KECCAK256 PUSH1 0x0 PUSH1 0x1 DUP7 PUSH2 0x646 SWAP2 SWAP1 PUSH2 0x1794 JUMP JUMPDEST DUP2 MSTORE PUSH1 0x20 ADD SWAP1 DUP2 MSTORE PUSH1 0x20 ADD PUSH1 0x0 KECCAK256 PUSH1 0x40 MLOAD DUP1 PUSH2 0x140 ADD PUSH1 0x40 MSTORE SWAP1 DUP2 PUSH1 0x0 DUP3 ADD PUSH1 0xA DUP1 PUSH1 0x20 MUL PUSH1 0x40 MLOAD SWAP1 DUP2 ADD PUSH1 0x40 MSTORE DUP1 SWAP3 SWAP2 SWAP1 PUSH1 0x0 SWAP1 JUMPDEST DUP3 DUP3 LT ISZERO PUSH2 0x6C2 JUMPI DUP4 DUP3 PUSH1 0x3 MUL ADD PUSH1 0x40 MLOAD DUP1 PUSH1 0x60 ADD PUSH1 0x40 MSTORE SWAP1 DUP2 PUSH1 0x0 DUP3 ADD SLOAD DUP2 MSTORE PUSH1 0x20 ADD PUSH1 0x1 DUP3 ADD SLOAD DUP2 MSTORE PUSH1 0x20 ADD PUSH1 0x2 DUP3 ADD SLOAD DUP2 MSTORE POP POP DUP2 MSTORE PUSH1 0x20 ADD SWAP1 PUSH1 0x1 ADD SWAP1 PUSH2 0x67C JUMP JUMPDEST POP POP POP POP DUP2 MSTORE PUSH1 0x20 ADD PUSH1 0x1E DUP3 ADD PUSH1 0xA DUP1 PUSH1 0x20 MUL PUSH1 0x40 MLOAD SWAP1 DUP2 ADD PUSH1 0x40 MSTORE DUP1 SWAP3 SWAP2 SWAP1 PUSH1 0x0 SWAP1 JUMPDEST DUP3 DUP3 LT ISZERO PUSH2 0x72C JUMPI DUP4 DUP3 PUSH1 0x3 MUL ADD PUSH1 0x40 MLOAD DUP1 PUSH1 0x60 ADD PUSH1 0x40 MSTORE SWAP1 DUP2 PUSH1 0x0 DUP3 ADD SLOAD DUP2 MSTORE PUSH1 0x20 ADD PUSH1 0x1 DUP3 ADD SLOAD DUP2 MSTORE PUSH1 0x20 ADD PUSH1 0x2 DUP3 ADD SLOAD DUP2 MSTORE POP POP DUP2 MSTORE PUSH1 0x20 ADD SWAP1 PUSH1 0x1 ADD SWAP1 PUSH2 0x6E6 JUMP JUMPDEST POP POP POP POP DUP2 MSTORE PUSH1 0x20 ADD PUSH1 0x3C DUP3 ADD PUSH1 0xA DUP1 PUSH1 0x20 MUL PUSH1 0x40 MLOAD SWAP1 DUP2 ADD PUSH1 0x40 MSTORE DUP1 SWAP3 SWAP2 SWAP1 DUP3 PUSH1 0xA DUP1 ISZERO PUSH2 0x770 JUMPI PUSH1 0x20 MUL DUP3 ADD SWAP2 JUMPDEST DUP2 SLOAD DUP2 MSTORE PUSH1 0x20 ADD SWAP1 PUSH1 0x1 ADD SWAP1 DUP1 DUP4 GT PUSH2 0x75C JUMPI JUMPDEST POP POP POP POP POP DUP2 MSTORE PUSH1 0x20 ADD PUSH1 0x46 DUP3 ADD PUSH1 0xA DUP1 PUSH1 0x20 MUL PUSH1 0x40 MLOAD SWAP1 DUP2 ADD PUSH1 0x40 MSTORE DUP1 SWAP3 SWAP2 SWAP1 DUP3 PUSH1 0xA DUP1 ISZERO PUSH2 0x7B5 JUMPI PUSH1 0x20 MUL DUP3 ADD SWAP2 JUMPDEST DUP2 SLOAD DUP2 MSTORE PUSH1 0x20 ADD SWAP1 PUSH1 0x1 ADD SWAP1 DUP1 DUP4 GT PUSH2 0x7A1 JUMPI JUMPDEST POP POP POP POP POP DUP2 MSTORE PUSH1 0x20 ADD PUSH1 0x50 DUP3 ADD PUSH1 0xA DUP1 PUSH1 0x20 MUL PUSH1 0x40 MLOAD SWAP1 DUP2 ADD PUSH1 0x40 MSTORE DUP1 SWAP3 SWAP2 SWAP1 DUP3 PUSH1 0xA DUP1 ISZERO PUSH2 0x7FA JUMPI PUSH1 0x20 MUL DUP3 ADD SWAP2 JUMPDEST DUP2 SLOAD DUP2 MSTORE PUSH1 0x20 ADD SWAP1 PUSH1 0x1 ADD SWAP1 DUP1 DUP4 GT PUSH2 0x7E6 JUMPI JUMPDEST POP POP POP POP POP DUP2 MSTORE PUSH1 0x20 ADD PUSH1 0x5A DUP3 ADD PUSH1 0xA DUP1 PUSH1 0x20 MUL PUSH1 0x40 MLOAD SWAP1 DUP2 ADD PUSH1 0x40 MSTORE DUP1 SWAP3 SWAP2 SWAP1 DUP3 PUSH1 0xA DUP1 ISZERO PUSH2 0x83F JUMPI PUSH1 0x20 MUL DUP3 ADD SWAP2 JUMPDEST DUP2 SLOAD DUP2 MSTORE PUSH1 0x20 ADD SWAP1 PUSH1 0x1 ADD SWAP1 DUP1 DUP4 GT PUSH2 0x82B JUMPI JUMPDEST POP POP POP POP POP DUP2 MSTORE PUSH1 0x20 ADD PUSH1 0x64 DUP3 ADD SLOAD DUP2 MSTORE PUSH1 0x20 ADD PUSH1 0x65 DUP3 ADD SLOAD DUP2 MSTORE PUSH1 0x20 ADD PUSH1 0x66 DUP3 ADD SLOAD DUP2 MSTORE PUSH1 0x20 ADD PUSH1 0x67 DUP3 ADD SLOAD DUP2 MSTORE POP POP SWAP1 POP PUSH1 0x0 PUSH1 0x5 SWAP1 POP JUMPDEST PUSH1 0x0 DUP2 GT ISZERO PUSH2 0x94F JUMPI PUSH1 0x0 JUMPDEST PUSH1 0xA DUP2 LT ISZERO PUSH2 0x93B JUMPI PUSH1 0x0 DUP4 PUSH1 0x40 ADD MLOAD DUP3 PUSH1 0xA DUP2 LT PUSH2 0x8A7 JUMPI PUSH2 0x8A6 PUSH2 0x17C8 JUMP JUMPDEST JUMPDEST PUSH1 0x20 MUL ADD MLOAD SWAP1 POP PUSH1 0x0 DUP5 PUSH1 0x80 ADD MLOAD DUP4 PUSH1 0xA DUP2 LT PUSH2 0x8C7 JUMPI PUSH2 0x8C6 PUSH2 0x17C8 JUMP JUMPDEST JUMPDEST PUSH1 0x20 MUL ADD MLOAD SWAP1 POP PUSH1 0x0 DUP1 PUSH2 0x8E0 DUP12 PUSH1 0x1 DUP8 DUP8 DUP8 DUP12 PUSH2 0xA8F JUMP JUMPDEST SWAP2 POP SWAP2 POP DUP2 DUP10 PUSH1 0x40 ADD MLOAD DUP7 PUSH1 0xA DUP2 LT PUSH2 0x8FC JUMPI PUSH2 0x8FB PUSH2 0x17C8 JUMP JUMPDEST JUMPDEST PUSH1 0x20 MUL ADD DUP2 DUP2 MSTORE POP POP DUP1 DUP10 PUSH1 0x80 ADD MLOAD DUP7 PUSH1 0xA DUP2 LT PUSH2 0x91D JUMPI PUSH2 0x91C PUSH2 0x17C8 JUMP JUMPDEST JUMPDEST PUSH1 0x20 MUL ADD DUP2 DUP2 MSTORE POP POP POP POP POP POP DUP1 PUSH2 0x934 SWAP1 PUSH2 0x17F7 JUMP JUMPDEST SWAP1 POP PUSH2 0x885 JUMP JUMPDEST POP DUP1 DUP1 PUSH2 0x947 SWAP1 PUSH2 0x183F JUMP JUMPDEST SWAP2 POP POP PUSH2 0x879 JUMP JUMPDEST POP POP POP SWAP3 SWAP2 POP POP JUMP JUMPDEST PUSH1 0x2 PUSH1 0x20 MSTORE DUP1 PUSH1 0x0 MSTORE PUSH1 0x40 PUSH1 0x0 KECCAK256 PUSH1 0x0 SWAP2 POP SWAP1 POP DUP1 PUSH1 0x0 ADD SLOAD SWAP1 DUP1 PUSH1 0x3D ADD PUSH1 0x0 SWAP1 SLOAD SWAP1 PUSH2 0x100 EXP SWAP1 DIV PUSH20 0xFFFFFFFFFFFFFFFFFFFFFFFFFFFFFFFFFFFFFFFF AND SWAP1 DUP1 PUSH1 0x3E ADD PUSH1 0x0 SWAP1 SLOAD SWAP1 PUSH2 0x100 EXP SWAP1 DIV PUSH20 0xFFFFFFFFFFFFFFFFFFFFFFFFFFFFFFFFFFFFFFFF AND SWAP1 DUP1 PUSH1 0x3F ADD PUSH1 0x0 SWAP1 SLOAD SWAP1 PUSH2 0x100 EXP SWAP1 DIV PUSH20 0xFFFFFFFFFFFFFFFFFFFFFFFFFFFFFFFFFFFFFFFF AND SWAP1 DUP1 PUSH1 0x40 ADD PUSH1 0x0 SWAP1 SLOAD SWAP1 PUSH2 0x100 EXP SWAP1 DIV PUSH20 0xFFFFFFFFFFFFFFFFFFFFFFFFFFFFFFFFFFFFFFFF AND SWAP1 POP DUP6 JUMP JUMPDEST JUMP JUMPDEST PUSH1 0x3 PUSH1 0x20 MSTORE DUP1 PUSH1 0x0 MSTORE PUSH1 0x40 PUSH1 0x0 KECCAK256 PUSH1 0x0 SWAP2 POP SWAP1 POP SLOAD DUP2 JUMP JUMPDEST PUSH1 0x0 DUP1 SLOAD SWAP1 PUSH2 0x100 EXP SWAP1 DIV PUSH20 0xFFFFFFFFFFFFFFFFFFFFFFFFFFFFFFFFFFFFFFFF AND DUP2 JUMP JUMPDEST JUMP JUMPDEST PUSH1 0x4 PUSH1 0x20 MSTORE DUP2 PUSH1 0x0 MSTORE PUSH1 0x40 PUSH1 0x0 KECCAK256 PUSH1 0x20 MSTORE DUP1 PUSH1 0x0 MSTORE PUSH1 0x40 PUSH1 0x0 KECCAK256 PUSH1 0x0 SWAP2 POP SWAP2 POP POP DUP1 PUSH1 0x64 ADD SLOAD SWAP1 DUP1 PUSH1 0x65 ADD SLOAD SWAP1 DUP1 PUSH1 0x66 ADD SLOAD SWAP1 DUP1 PUSH1 0x67 ADD SLOAD SWAP1 POP DUP5 JUMP JUMPDEST JUMP JUMPDEST JUMP JUMPDEST PUSH1 0x0 DUP1 PUSH1 0x0 PUSH1 0x4 PUSH1 0x0 DUP11 DUP2 MSTORE PUSH1 0x20 ADD SWAP1 DUP2 MSTORE PUSH1 0x20 ADD PUSH1 0x0 KECCAK256 PUSH1 0x0 PUSH1 0x3 PUSH1 0x0 DUP13 DUP2 MSTORE PUSH1 0x20 ADD SWAP1 DUP2 MSTORE PUSH1 0x20 ADD PUSH1 0x0 KECCAK256 SLOAD DUP2 MSTORE PUSH1 0x20 ADD SWAP1 DUP2 MSTORE PUSH1 0x20 ADD PUSH1 0x0 KECCAK256 PUSH1 0x3C ADD DUP8 PUSH1 0xA DUP2 LT PUSH2 0xAE0 JUMPI PUSH2 0xADF PUSH2 0x17C8 JUMP JUMPDEST JUMPDEST ADD SLOAD SWAP1 POP PUSH1 0x0 PUSH1 0x4 PUSH1 0x0 DUP12 DUP2 MSTORE PUSH1 0x20 ADD SWAP1 DUP2 MSTORE PUSH1 0x20 ADD PUSH1 0x0 KECCAK256 PUSH1 0x0 PUSH1 0x3 PUSH1 0x0 DUP14 DUP2 MSTORE PUSH1 0x20 ADD SWAP1 DUP2 MSTORE PUSH1 0x20 ADD PUSH1 0x0 KECCAK256 SLOAD DUP2 MSTORE PUSH1 0x20 ADD SWAP1 DUP2 MSTORE PUSH1 0x20 ADD PUSH1 0x0 KECCAK256 PUSH1 0x50 ADD DUP9 PUSH1 0xA DUP2 LT PUSH2 0xB32 JUMPI PUSH2 0xB31 PUSH2 0x17C8 JUMP JUMPDEST JUMPDEST ADD SLOAD SWAP1 POP PUSH1 0x0 DUP6 SUB PUSH2 0xB4B JUMPI DUP2 DUP2 SWAP4 POP SWAP4 POP POP POP PUSH2 0xD68 JUMP JUMPDEST PUSH1 0x2 DUP10 SUB PUSH2 0xBF4 JUMPI PUSH1 0x4 PUSH1 0x0 DUP12 DUP2 MSTORE PUSH1 0x20 ADD SWAP1 DUP2 MSTORE PUSH1 0x20 ADD PUSH1 0x0 KECCAK256 PUSH1 0x0 PUSH1 0x3 PUSH1 0x0 DUP14 DUP2 MSTORE PUSH1 0x20 ADD SWAP1 DUP2 MSTORE PUSH1 0x20 ADD PUSH1 0x0 KECCAK256 SLOAD DUP2 MSTORE PUSH1 0x20 ADD SWAP1 DUP2 MSTORE PUSH1 0x20 ADD PUSH1 0x0 KECCAK256 PUSH1 0x46 ADD DUP9 PUSH1 0xA DUP2 LT PUSH2 0xB9F JUMPI PUSH2 0xB9E PUSH2 0x17C8 JUMP JUMPDEST JUMPDEST ADD SLOAD SWAP2 POP PUSH1 0x4 PUSH1 0x0 DUP12 DUP2 MSTORE PUSH1 0x20 ADD SWAP1 DUP2 MSTORE PUSH1 0x20 ADD PUSH1 0x0 KECCAK256 PUSH1 0x0 PUSH1 0x3 PUSH1 0x0 DUP14 DUP2 MSTORE PUSH1 0x20 ADD SWAP1 DUP2 MSTORE PUSH1 0x20 ADD PUSH1 0x0 KECCAK256 SLOAD DUP2 MSTORE PUSH1 0x20 ADD SWAP1 DUP2 MSTORE PUSH1 0x20 ADD PUSH1 0x0 KECCAK256 PUSH1 0x5A ADD DUP9 PUSH1 0xA DUP2 LT PUSH2 0xBEF JUMPI PUSH2 0xBEE PUSH2 0x17C8 JUMP JUMPDEST JUMPDEST ADD SLOAD SWAP1 POP JUMPDEST PUSH1 0x0 DUP3 DUP9 PUSH2 0xC02 SWAP2 SWAP1 PUSH2 0x1872 JUMP JUMPDEST SWAP1 POP PUSH1 0x0 DUP3 DUP9 PUSH2 0xC12 SWAP2 SWAP1 PUSH2 0x1872 JUMP JUMPDEST SWAP1 POP PUSH2 0xC53 PUSH1 0x40 MLOAD DUP1 PUSH1 0x40 ADD PUSH1 0x40 MSTORE DUP1 PUSH1 0xA DUP2 MSTORE PUSH1 0x20 ADD PUSH32 0x4469666658203A20257300000000000000000000000000000000000000000000 DUP2 MSTORE POP DUP4 PUSH2 0xD73 JUMP JUMPDEST PUSH1 0x0 DUP3 SGT ISZERO PUSH2 0xC94 JUMPI PUSH2 0x3E8 DUP8 DUP4 PUSH2 0x3E8 PUSH2 0xC6E SWAP2 SWAP1 PUSH2 0x18B5 JUMP JUMPDEST PUSH2 0xC78 SWAP2 SWAP1 PUSH2 0x195C JUMP JUMPDEST PUSH2 0xC82 SWAP2 SWAP1 PUSH2 0x19C6 JUMP JUMPDEST DUP7 PUSH2 0xC8D SWAP2 SWAP1 PUSH2 0x1794 JUMP JUMPDEST SWAP6 POP PUSH2 0xCDB JUMP JUMPDEST PUSH1 0x0 DUP3 SLT ISZERO PUSH2 0xCDA JUMPI PUSH2 0x3E8 DUP8 DUP4 PUSH2 0xCAB SWAP1 PUSH2 0x19F7 JUMP JUMPDEST PUSH2 0x3E8 PUSH2 0xCB8 SWAP2 SWAP1 PUSH2 0x18B5 JUMP JUMPDEST PUSH2 0xCC2 SWAP2 SWAP1 PUSH2 0x195C JUMP JUMPDEST PUSH2 0xCCC SWAP2 SWAP1 PUSH2 0x19C6 JUMP JUMPDEST DUP7 PUSH2 0xCD7 SWAP2 SWAP1 PUSH2 0x1A3F JUMP JUMPDEST SWAP6 POP JUMPDEST JUMPDEST PUSH1 0x0 DUP2 SGT ISZERO PUSH2 0xD1C JUMPI PUSH2 0x3E8 DUP8 DUP3 PUSH2 0x3E8 PUSH2 0xCF6 SWAP2 SWAP1 PUSH2 0x18B5 JUMP JUMPDEST PUSH2 0xD00 SWAP2 SWAP1 PUSH2 0x195C JUMP JUMPDEST PUSH2 0xD0A SWAP2 SWAP1 PUSH2 0x19C6 JUMP JUMPDEST DUP6 PUSH2 0xD15 SWAP2 SWAP1 PUSH2 0x1794 JUMP JUMPDEST SWAP5 POP PUSH2 0xD63 JUMP JUMPDEST PUSH1 0x0 DUP3 SLT ISZERO PUSH2 0xD62 JUMPI PUSH2 0x3E8 DUP8 DUP3 PUSH2 0xD33 SWAP1 PUSH2 0x19F7 JUMP JUMPDEST PUSH2 0x3E8 PUSH2 0xD40 SWAP2 SWAP1 PUSH2 0x18B5 JUMP JUMPDEST PUSH2 0xD4A SWAP2 SWAP1 PUSH2 0x195C JUMP JUMPDEST PUSH2 0xD54 SWAP2 SWAP1 PUSH2 0x195C JUMP JUMPDEST DUP6 PUSH2 0xD5F SWAP2 SWAP1 PUSH2 0x1A3F JUMP JUMPDEST SWAP5 POP JUMPDEST JUMPDEST POP POP POP POP JUMPDEST SWAP7 POP SWAP7 SWAP5 POP POP POP POP POP JUMP JUMPDEST PUSH2 0xE0B DUP3 DUP3 PUSH1 0x40 MLOAD PUSH1 0x24 ADD PUSH2 0xD89 SWAP3 SWAP2 SWAP1 PUSH2 0x1AF2 JUMP JUMPDEST PUSH1 0x40 MLOAD PUSH1 0x20 DUP2 DUP4 SUB SUB DUP2 MSTORE SWAP1 PUSH1 0x40 MSTORE PUSH32 0xB60E72CC00000000000000000000000000000000000000000000000000000000 PUSH28 0xFFFFFFFFFFFFFFFFFFFFFFFFFFFFFFFFFFFFFFFFFFFFFFFFFFFFFFFF NOT AND PUSH1 0x20 DUP3 ADD DUP1 MLOAD PUSH28 0xFFFFFFFFFFFFFFFFFFFFFFFFFFFFFFFFFFFFFFFFFFFFFFFFFFFFFFFF DUP4 DUP2 DUP4 AND OR DUP4 MSTORE POP POP POP POP PUSH2 0xE0F JUMP JUMPDEST POP POP JUMP JUMPDEST PUSH1 0x0 DUP2 MLOAD SWAP1 POP PUSH1 0x0 PUSH11 0x636F6E736F6C652E6C6F67 SWAP1 POP PUSH1 0x20 DUP4 ADD PUSH1 0x0 DUP1 DUP5 DUP4 DUP6 GAS STATICCALL POP POP POP POP POP JUMP JUMPDEST DUP3 PUSH1 0xA DUP2 ADD SWAP3 DUP3 ISZERO PUSH2 0xE67 JUMPI SWAP2 PUSH1 0x20 MUL DUP3 ADD JUMPDEST DUP3 DUP2 GT ISZERO PUSH2 0xE66 JUMPI DUP3 MLOAD DUP3 SSTORE SWAP2 PUSH1 0x20 ADD SWAP2 SWAP1 PUSH1 0x1 ADD SWAP1 PUSH2 0xE4B JUMP JUMPDEST JUMPDEST POP SWAP1 POP PUSH2 0xE74 SWAP2 SWAP1 PUSH2 0xEEF JUMP JUMPDEST POP SWAP1 JUMP JUMPDEST PUSH1 0x40 MLOAD DUP1 PUSH2 0x140 ADD PUSH1 0x40 MSTORE DUP1 PUSH2 0xE8C PUSH2 0xF0C JUMP JUMPDEST DUP2 MSTORE PUSH1 0x20 ADD PUSH2 0xE99 PUSH2 0xF0C JUMP JUMPDEST DUP2 MSTORE PUSH1 0x20 ADD PUSH2 0xEA6 PUSH2 0xF3A JUMP JUMPDEST DUP2 MSTORE PUSH1 0x20 ADD PUSH2 0xEB3 PUSH2 0xF3A JUMP JUMPDEST DUP2 MSTORE PUSH1 0x20 ADD PUSH2 0xEC0 PUSH2 0xF3A JUMP JUMPDEST DUP2 MSTORE PUSH1 0x20 ADD PUSH2 0xECD PUSH2 0xF3A JUMP JUMPDEST DUP2 MSTORE PUSH1 0x20 ADD PUSH1 0x0 DUP2 MSTORE PUSH1 0x20 ADD PUSH1 0x0 DUP2 MSTORE PUSH1 0x20 ADD PUSH1 0x0 DUP2 MSTORE PUSH1 0x20 ADD PUSH1 0x0 DUP2 MSTORE POP SWAP1 JUMP JUMPDEST JUMPDEST DUP1 DUP3 GT ISZERO PUSH2 0xF08 JUMPI PUSH1 0x0 DUP2 PUSH1 0x0 SWAP1 SSTORE POP PUSH1 0x1 ADD PUSH2 0xEF0 JUMP JUMPDEST POP SWAP1 JUMP JUMPDEST PUSH1 0x40 MLOAD DUP1 PUSH2 0x140 ADD PUSH1 0x40 MSTORE DUP1 PUSH1 0xA SWAP1 JUMPDEST PUSH2 0xF24 PUSH2 0xF5D JUMP JUMPDEST DUP2 MSTORE PUSH1 0x20 ADD SWAP1 PUSH1 0x1 SWAP1 SUB SWAP1 DUP2 PUSH2 0xF1C JUMPI SWAP1 POP POP SWAP1 JUMP JUMPDEST PUSH1 0x40 MLOAD DUP1 PUSH2 0x140 ADD PUSH1 0x40 MSTORE DUP1 PUSH1 0xA SWAP1 PUSH1 0x20 DUP3 MUL DUP1 CALLDATASIZE DUP4 CALLDATACOPY DUP1 DUP3 ADD SWAP2 POP POP SWAP1 POP POP SWAP1 JUMP JUMPDEST PUSH1 0x40 MLOAD DUP1 PUSH1 0x60 ADD PUSH1 0x40 MSTORE DUP1 PUSH1 0x0 DUP2 MSTORE PUSH1 0x20 ADD PUSH1 0x0 DUP2 MSTORE PUSH1 0x20 ADD PUSH1 0x0 DUP2 MSTORE POP SWAP1 JUMP JUMPDEST PUSH1 0x0 DUP2 SWAP1 POP SWAP2 SWAP1 POP JUMP JUMPDEST PUSH2 0xF91 DUP2 PUSH2 0xF7E JUMP JUMPDEST DUP3 MSTORE POP POP JUMP JUMPDEST PUSH1 0x0 PUSH1 0x20 DUP3 ADD SWAP1 POP PUSH2 0xFAC PUSH1 0x0 DUP4 ADD DUP5 PUSH2 0xF88 JUMP JUMPDEST SWAP3 SWAP2 POP POP JUMP JUMPDEST PUSH1 0x0 PUSH1 0x40 MLOAD SWAP1 POP SWAP1 JUMP JUMPDEST PUSH1 0x0 DUP1 REVERT JUMPDEST PUSH2 0xFCA DUP2 PUSH2 0xF7E JUMP JUMPDEST DUP2 EQ PUSH2 0xFD5 JUMPI PUSH1 0x0 DUP1 REVERT JUMPDEST POP JUMP JUMPDEST PUSH1 0x0 DUP2 CALLDATALOAD SWAP1 POP PUSH2 0xFE7 DUP2 PUSH2 0xFC1 JUMP JUMPDEST SWAP3 SWAP2 POP POP JUMP JUMPDEST PUSH1 0x0 DUP1 REVERT JUMPDEST PUSH1 0x0 PUSH1 0x1F NOT PUSH1 0x1F DUP4 ADD AND SWAP1 POP SWAP2 SWAP1 POP JUMP JUMPDEST PUSH32 0x4E487B7100000000000000000000000000000000000000000000000000000000 PUSH1 0x0 MSTORE PUSH1 0x41 PUSH1 0x4 MSTORE PUSH1 0x24 PUSH1 0x0 REVERT JUMPDEST PUSH2 0x103B DUP3 PUSH2 0xFF2 JUMP JUMPDEST DUP2 ADD DUP2 DUP2 LT PUSH8 0xFFFFFFFFFFFFFFFF DUP3 GT OR ISZERO PUSH2 0x105A JUMPI PUSH2 0x1059 PUSH2 0x1003 JUMP JUMPDEST JUMPDEST DUP1 PUSH1 0x40 MSTORE POP POP POP JUMP JUMPDEST PUSH1 0x0 PUSH2 0x106D PUSH2 0xFB2 JUMP JUMPDEST SWAP1 POP PUSH2 0x1079 DUP3 DUP3 PUSH2 0x1032 JUMP JUMPDEST SWAP2 SWAP1 POP JUMP JUMPDEST PUSH1 0x0 DUP1 REVERT JUMPDEST PUSH1 0x0 PUSH8 0xFFFFFFFFFFFFFFFF DUP3 GT ISZERO PUSH2 0x109E JUMPI PUSH2 0x109D PUSH2 0x1003 JUMP JUMPDEST JUMPDEST PUSH1 0x20 DUP3 MUL SWAP1 POP SWAP2 SWAP1 POP JUMP JUMPDEST PUSH1 0x0 DUP1 REVERT JUMPDEST PUSH1 0x0 PUSH1 0x60 DUP3 DUP5 SUB SLT ISZERO PUSH2 0x10C4 JUMPI PUSH2 0x10C3 PUSH2 0xFED JUMP JUMPDEST JUMPDEST PUSH2 0x10CE PUSH1 0x60 PUSH2 0x1063 JUMP JUMPDEST SWAP1 POP PUSH1 0x0 PUSH2 0x10DE DUP5 DUP3 DUP6 ADD PUSH2 0xFD8 JUMP JUMPDEST PUSH1 0x0 DUP4 ADD MSTORE POP PUSH1 0x20 PUSH2 0x10F2 DUP5 DUP3 DUP6 ADD PUSH2 0xFD8 JUMP JUMPDEST PUSH1 0x20 DUP4 ADD MSTORE POP PUSH1 0x40 PUSH2 0x1106 DUP5 DUP3 DUP6 ADD PUSH2 0xFD8 JUMP JUMPDEST PUSH1 0x40 DUP4 ADD MSTORE POP SWAP3 SWAP2 POP POP JUMP JUMPDEST PUSH1 0x0 PUSH2 0x1125 PUSH2 0x1120 DUP5 PUSH2 0x1083 JUMP JUMPDEST PUSH2 0x1063 JUMP JUMPDEST SWAP1 POP DUP1 PUSH1 0x60 DUP5 MUL DUP4 ADD DUP6 DUP2 GT ISZERO PUSH2 0x113F JUMPI PUSH2 0x113E PUSH2 0x10A9 JUMP JUMPDEST JUMPDEST DUP4 JUMPDEST DUP2 DUP2 LT ISZERO PUSH2 0x1168 JUMPI DUP1 PUSH2 0x1154 DUP9 DUP3 PUSH2 0x10AE JUMP JUMPDEST DUP5 MSTORE PUSH1 0x20 DUP5 ADD SWAP4 POP POP PUSH1 0x60 DUP2 ADD SWAP1 POP PUSH2 0x1141 JUMP JUMPDEST POP POP POP SWAP4 SWAP3 POP POP POP JUMP JUMPDEST PUSH1 0x0 DUP3 PUSH1 0x1F DUP4 ADD SLT PUSH2 0x1187 JUMPI PUSH2 0x1186 PUSH2 0x107E JUMP JUMPDEST JUMPDEST PUSH1 0xA PUSH2 0x1194 DUP5 DUP3 DUP6 PUSH2 0x1112 JUMP JUMPDEST SWAP2 POP POP SWAP3 SWAP2 POP POP JUMP JUMPDEST PUSH1 0x0 PUSH8 0xFFFFFFFFFFFFFFFF DUP3 GT ISZERO PUSH2 0x11B8 JUMPI PUSH2 0x11B7 PUSH2 0x1003 JUMP JUMPDEST JUMPDEST PUSH1 0x20 DUP3 MUL SWAP1 POP SWAP2 SWAP1 POP JUMP JUMPDEST PUSH1 0x0 PUSH2 0x11D6 PUSH2 0x11D1 DUP5 PUSH2 0x119D JUMP JUMPDEST PUSH2 0x1063 JUMP JUMPDEST SWAP1 POP DUP1 PUSH1 0x20 DUP5 MUL DUP4 ADD DUP6 DUP2 GT ISZERO PUSH2 0x11F0 JUMPI PUSH2 0x11EF PUSH2 0x10A9 JUMP JUMPDEST JUMPDEST DUP4 JUMPDEST DUP2 DUP2 LT ISZERO PUSH2 0x1219 JUMPI DUP1 PUSH2 0x1205 DUP9 DUP3 PUSH2 0xFD8 JUMP JUMPDEST DUP5 MSTORE PUSH1 0x20 DUP5 ADD SWAP4 POP POP PUSH1 0x20 DUP2 ADD SWAP1 POP PUSH2 0x11F2 JUMP JUMPDEST POP POP POP SWAP4 SWAP3 POP POP POP JUMP JUMPDEST PUSH1 0x0 DUP3 PUSH1 0x1F DUP4 ADD SLT PUSH2 0x1238 JUMPI PUSH2 0x1237 PUSH2 0x107E JUMP JUMPDEST JUMPDEST PUSH1 0xA PUSH2 0x1245 DUP5 DUP3 DUP6 PUSH2 0x11C3 JUMP JUMPDEST SWAP2 POP POP SWAP3 SWAP2 POP POP JUMP JUMPDEST PUSH1 0x0 PUSH2 0xD00 DUP3 DUP5 SUB SLT ISZERO PUSH2 0x1265 JUMPI PUSH2 0x1264 PUSH2 0xFED JUMP JUMPDEST JUMPDEST PUSH2 0x1270 PUSH2 0x140 PUSH2 0x1063 JUMP JUMPDEST SWAP1 POP PUSH1 0x0 PUSH2 0x1280 DUP5 DUP3 DUP6 ADD PUSH2 0x1172 JUMP JUMPDEST PUSH1 0x0 DUP4 ADD MSTORE POP PUSH2 0x3C0 PUSH2 0x1295 DUP5 DUP3 DUP6 ADD PUSH2 0x1172 JUMP JUMPDEST PUSH1 0x20 DUP4 ADD MSTORE POP PUSH2 0x780 PUSH2 0x12AA DUP5 DUP3 DUP6 ADD PUSH2 0x1223 JUMP JUMPDEST PUSH1 0x40 DUP4 ADD MSTORE POP PUSH2 0x8C0 PUSH2 0x12BF DUP5 DUP3 DUP6 ADD PUSH2 0x1223 JUMP JUMPDEST PUSH1 0x60 DUP4 ADD MSTORE POP PUSH2 0xA00 PUSH2 0x12D4 DUP5 DUP3 DUP6 ADD PUSH2 0x1223 JUMP JUMPDEST PUSH1 0x80 DUP4 ADD MSTORE POP PUSH2 0xB40 PUSH2 0x12E9 DUP5 DUP3 DUP6 ADD PUSH2 0x1223 JUMP JUMPDEST PUSH1 0xA0 DUP4 ADD MSTORE POP PUSH2 0xC80 PUSH2 0x12FE DUP5 DUP3 DUP6 ADD PUSH2 0xFD8 JUMP JUMPDEST PUSH1 0xC0 DUP4 ADD MSTORE POP PUSH2 0xCA0 PUSH2 0x1313 DUP5 DUP3 DUP6 ADD PUSH2 0xFD8 JUMP JUMPDEST PUSH1 0xE0 DUP4 ADD MSTORE POP PUSH2 0xCC0 PUSH2 0x1328 DUP5 DUP3 DUP6 ADD PUSH2 0xFD8 JUMP JUMPDEST PUSH2 0x100 DUP4 ADD MSTORE POP PUSH2 0xCE0 PUSH2 0x133E DUP5 DUP3 DUP6 ADD PUSH2 0xFD8 JUMP JUMPDEST PUSH2 0x120 DUP4 ADD MSTORE POP SWAP3 SWAP2 POP POP JUMP JUMPDEST PUSH1 0x0 DUP1 PUSH2 0xD20 DUP4 DUP6 SUB SLT ISZERO PUSH2 0x1363 JUMPI PUSH2 0x1362 PUSH2 0xFBC JUMP JUMPDEST JUMPDEST PUSH1 0x0 PUSH2 0x1371 DUP6 DUP3 DUP7 ADD PUSH2 0xFD8 JUMP JUMPDEST SWAP3 POP POP PUSH1 0x20 PUSH2 0x1382 DUP6 DUP3 DUP7 ADD PUSH2 0x124E JUMP JUMPDEST SWAP2 POP POP SWAP3 POP SWAP3 SWAP1 POP JUMP JUMPDEST PUSH1 0x0 DUP1 PUSH1 0x40 DUP4 DUP6 SUB SLT ISZERO PUSH2 0x13A3 JUMPI PUSH2 0x13A2 PUSH2 0xFBC JUMP JUMPDEST JUMPDEST PUSH1 0x0 PUSH2 0x13B1 DUP6 DUP3 DUP7 ADD PUSH2 0xFD8 JUMP JUMPDEST SWAP3 POP POP PUSH1 0x20 PUSH2 0x13C2 DUP6 DUP3 DUP7 ADD PUSH2 0xFD8 JUMP JUMPDEST SWAP2 POP POP SWAP3 POP SWAP3 SWAP1 POP JUMP JUMPDEST PUSH1 0x0 PUSH1 0xA SWAP1 POP SWAP2 SWAP1 POP JUMP JUMPDEST PUSH1 0x0 DUP2 SWAP1 POP SWAP3 SWAP2 POP POP JUMP JUMPDEST PUSH1 0x0 DUP2 SWAP1 POP SWAP2 SWAP1 POP JUMP JUMPDEST PUSH2 0x13F5 DUP2 PUSH2 0xF7E JUMP JUMPDEST DUP3 MSTORE POP POP JUMP JUMPDEST PUSH1 0x60 DUP3 ADD PUSH1 0x0 DUP3 ADD MLOAD PUSH2 0x1411 PUSH1 0x0 DUP6 ADD DUP3 PUSH2 0x13EC JUMP JUMPDEST POP PUSH1 0x20 DUP3 ADD MLOAD PUSH2 0x1424 PUSH1 0x20 DUP6 ADD DUP3 PUSH2 0x13EC JUMP JUMPDEST POP PUSH1 0x40 DUP3 ADD MLOAD PUSH2 0x1437 PUSH1 0x40 DUP6 ADD DUP3 PUSH2 0x13EC JUMP JUMPDEST POP POP POP POP JUMP JUMPDEST PUSH1 0x0 PUSH2 0x1449 DUP4 DUP4 PUSH2 0x13FB JUMP JUMPDEST PUSH1 0x60 DUP4 ADD SWAP1 POP SWAP3 SWAP2 POP POP JUMP JUMPDEST PUSH1 0x0 PUSH1 0x20 DUP3 ADD SWAP1 POP SWAP2 SWAP1 POP JUMP JUMPDEST PUSH2 0x146B DUP2 PUSH2 0x13CC JUMP JUMPDEST PUSH2 0x1475 DUP2 DUP5 PUSH2 0x13D7 JUMP JUMPDEST SWAP3 POP PUSH2 0x1480 DUP3 PUSH2 0x13E2 JUMP JUMPDEST DUP1 PUSH1 0x0 JUMPDEST DUP4 DUP2 LT ISZERO PUSH2 0x14B1 JUMPI DUP2 MLOAD PUSH2 0x1498 DUP8 DUP3 PUSH2 0x143D JUMP JUMPDEST SWAP7 POP PUSH2 0x14A3 DUP4 PUSH2 0x1455 JUMP JUMPDEST SWAP3 POP POP PUSH1 0x1 DUP2 ADD SWAP1 POP PUSH2 0x1484 JUMP JUMPDEST POP POP POP POP POP POP JUMP JUMPDEST PUSH1 0x0 PUSH1 0xA SWAP1 POP SWAP2 SWAP1 POP JUMP JUMPDEST PUSH1 0x0 DUP2 SWAP1 POP SWAP3 SWAP2 POP POP JUMP JUMPDEST PUSH1 0x0 DUP2 SWAP1 POP SWAP2 SWAP1 POP JUMP JUMPDEST PUSH1 0x0 PUSH2 0x14E5 DUP4 DUP4 PUSH2 0x13EC JUMP JUMPDEST PUSH1 0x20 DUP4 ADD SWAP1 POP SWAP3 SWAP2 POP POP JUMP JUMPDEST PUSH1 0x0 PUSH1 0x20 DUP3 ADD SWAP1 POP SWAP2 SWAP1 POP JUMP JUMPDEST PUSH2 0x1507 DUP2 PUSH2 0x14B9 JUMP JUMPDEST PUSH2 0x1511 DUP2 DUP5 PUSH2 0x14C4 JUMP JUMPDEST SWAP3 POP PUSH2 0x151C DUP3 PUSH2 0x14CF JUMP JUMPDEST DUP1 PUSH1 0x0 JUMPDEST DUP4 DUP2 LT ISZERO PUSH2 0x154D JUMPI DUP2 MLOAD PUSH2 0x1534 DUP8 DUP3 PUSH2 0x14D9 JUMP JUMPDEST SWAP7 POP PUSH2 0x153F DUP4 PUSH2 0x14F1 JUMP JUMPDEST SWAP3 POP POP PUSH1 0x1 DUP2 ADD SWAP1 POP PUSH2 0x1520 JUMP JUMPDEST POP POP POP POP POP POP JUMP JUMPDEST PUSH2 0xD00 DUP3 ADD PUSH1 0x0 DUP3 ADD MLOAD PUSH2 0x156C PUSH1 0x0 DUP6 ADD DUP3 PUSH2 0x1462 JUMP JUMPDEST POP PUSH1 0x20 DUP3 ADD MLOAD PUSH2 0x1580 PUSH2 0x3C0 DUP6 ADD DUP3 PUSH2 0x1462 JUMP JUMPDEST POP PUSH1 0x40 DUP3 ADD MLOAD PUSH2 0x1594 PUSH2 0x780 DUP6 ADD DUP3 PUSH2 0x14FE JUMP JUMPDEST POP PUSH1 0x60 DUP3 ADD MLOAD PUSH2 0x15A8 PUSH2 0x8C0 DUP6 ADD DUP3 PUSH2 0x14FE JUMP JUMPDEST POP PUSH1 0x80 DUP3 ADD MLOAD PUSH2 0x15BC PUSH2 0xA00 DUP6 ADD DUP3 PUSH2 0x14FE JUMP JUMPDEST POP PUSH1 0xA0 DUP3 ADD MLOAD PUSH2 0x15D0 PUSH2 0xB40 DUP6 ADD DUP3 PUSH2 0x14FE JUMP JUMPDEST POP PUSH1 0xC0 DUP3 ADD MLOAD PUSH2 0x15E4 PUSH2 0xC80 DUP6 ADD DUP3 PUSH2 0x13EC JUMP JUMPDEST POP PUSH1 0xE0 DUP3 ADD MLOAD PUSH2 0x15F8 PUSH2 0xCA0 DUP6 ADD DUP3 PUSH2 0x13EC JUMP JUMPDEST POP PUSH2 0x100 DUP3 ADD MLOAD PUSH2 0x160D PUSH2 0xCC0 DUP6 ADD DUP3 PUSH2 0x13EC JUMP JUMPDEST POP PUSH2 0x120 DUP3 ADD MLOAD PUSH2 0x1622 PUSH2 0xCE0 DUP6 ADD DUP3 PUSH2 0x13EC JUMP JUMPDEST POP POP POP POP JUMP JUMPDEST PUSH1 0x0 PUSH2 0xD00 DUP3 ADD SWAP1 POP PUSH2 0x163E PUSH1 0x0 DUP4 ADD DUP5 PUSH2 0x1555 JUMP JUMPDEST SWAP3 SWAP2 POP POP JUMP JUMPDEST PUSH1 0x0 PUSH1 0x20 DUP3 DUP5 SUB SLT ISZERO PUSH2 0x165A JUMPI PUSH2 0x1659 PUSH2 0xFBC JUMP JUMPDEST JUMPDEST PUSH1 0x0 PUSH2 0x1668 DUP5 DUP3 DUP6 ADD PUSH2 0xFD8 JUMP JUMPDEST SWAP2 POP POP SWAP3 SWAP2 POP POP JUMP JUMPDEST PUSH1 0x0 PUSH20 0xFFFFFFFFFFFFFFFFFFFFFFFFFFFFFFFFFFFFFFFF DUP3 AND SWAP1 POP SWAP2 SWAP1 POP JUMP JUMPDEST PUSH1 0x0 PUSH2 0x169C DUP3 PUSH2 0x1671 JUMP JUMPDEST SWAP1 POP SWAP2 SWAP1 POP JUMP JUMPDEST PUSH2 0x16AC DUP2 PUSH2 0x1691 JUMP JUMPDEST DUP3 MSTORE POP POP JUMP JUMPDEST PUSH1 0x0 PUSH1 0xA0 DUP3 ADD SWAP1 POP PUSH2 0x16C7 PUSH1 0x0 DUP4 ADD DUP9 PUSH2 0xF88 JUMP JUMPDEST PUSH2 0x16D4 PUSH1 0x20 DUP4 ADD DUP8 PUSH2 0x16A3 JUMP JUMPDEST PUSH2 0x16E1 PUSH1 0x40 DUP4 ADD DUP7 PUSH2 0x16A3 JUMP JUMPDEST PUSH2 0x16EE PUSH1 0x60 DUP4 ADD DUP6 PUSH2 0x16A3 JUMP JUMPDEST PUSH2 0x16FB PUSH1 0x80 DUP4 ADD DUP5 PUSH2 0x16A3 JUMP JUMPDEST SWAP7 SWAP6 POP POP POP POP POP POP JUMP JUMPDEST PUSH1 0x0 PUSH1 0x20 DUP3 ADD SWAP1 POP PUSH2 0x171A PUSH1 0x0 DUP4 ADD DUP5 PUSH2 0x16A3 JUMP JUMPDEST SWAP3 SWAP2 POP POP JUMP JUMPDEST PUSH1 0x0 PUSH1 0x80 DUP3 ADD SWAP1 POP PUSH2 0x1735 PUSH1 0x0 DUP4 ADD DUP8 PUSH2 0xF88 JUMP JUMPDEST PUSH2 0x1742 PUSH1 0x20 DUP4 ADD DUP7 PUSH2 0xF88 JUMP JUMPDEST PUSH2 0x174F PUSH1 0x40 DUP4 ADD DUP6 PUSH2 0xF88 JUMP JUMPDEST PUSH2 0x175C PUSH1 0x60 DUP4 ADD DUP5 PUSH2 0xF88 JUMP JUMPDEST SWAP6 SWAP5 POP POP POP POP POP JUMP JUMPDEST PUSH32 0x4E487B7100000000000000000000000000000000000000000000000000000000 PUSH1 0x0 MSTORE PUSH1 0x11 PUSH1 0x4 MSTORE PUSH1 0x24 PUSH1 0x0 REVERT JUMPDEST PUSH1 0x0 PUSH2 0x179F DUP3 PUSH2 0xF7E JUMP JUMPDEST SWAP2 POP PUSH2 0x17AA DUP4 PUSH2 0xF7E JUMP JUMPDEST SWAP3 POP DUP3 DUP3 ADD SWAP1 POP DUP1 DUP3 GT ISZERO PUSH2 0x17C2 JUMPI PUSH2 0x17C1 PUSH2 0x1765 JUMP JUMPDEST JUMPDEST SWAP3 SWAP2 POP POP JUMP JUMPDEST PUSH32 0x4E487B7100000000000000000000000000000000000000000000000000000000 PUSH1 0x0 MSTORE PUSH1 0x32 PUSH1 0x4 MSTORE PUSH1 0x24 PUSH1 0x0 REVERT JUMPDEST PUSH1 0x0 PUSH2 0x1802 DUP3 PUSH2 0xF7E JUMP JUMPDEST SWAP2 POP PUSH32 0xFFFFFFFFFFFFFFFFFFFFFFFFFFFFFFFFFFFFFFFFFFFFFFFFFFFFFFFFFFFFFFFF DUP3 SUB PUSH2 0x1834 JUMPI PUSH2 0x1833 PUSH2 0x1765 JUMP JUMPDEST JUMPDEST PUSH1 0x1 DUP3 ADD SWAP1 POP SWAP2 SWAP1 POP JUMP JUMPDEST PUSH1 0x0 PUSH2 0x184A DUP3 PUSH2 0xF7E JUMP JUMPDEST SWAP2 POP PUSH1 0x0 DUP3 SUB PUSH2 0x185D JUMPI PUSH2 0x185C PUSH2 0x1765 JUMP JUMPDEST JUMPDEST PUSH1 0x1 DUP3 SUB SWAP1 POP SWAP2 SWAP1 POP JUMP JUMPDEST PUSH1 0x0 DUP2 SWAP1 POP SWAP2 SWAP1 POP JUMP JUMPDEST PUSH1 0x0 PUSH2 0x187D DUP3 PUSH2 0x1868 JUMP JUMPDEST SWAP2 POP PUSH2 0x1888 DUP4 PUSH2 0x1868 JUMP JUMPDEST SWAP3 POP DUP3 DUP3 SUB SWAP1 POP DUP2 DUP2 SLT PUSH1 0x0 DUP5 SLT AND DUP3 DUP3 SGT PUSH1 0x0 DUP6 SLT ISZERO AND OR ISZERO PUSH2 0x18AF JUMPI PUSH2 0x18AE PUSH2 0x1765 JUMP JUMPDEST JUMPDEST SWAP3 SWAP2 POP POP JUMP JUMPDEST PUSH1 0x0 PUSH2 0x18C0 DUP3 PUSH2 0x1868 JUMP JUMPDEST SWAP2 POP PUSH2 0x18CB DUP4 PUSH2 0x1868 JUMP JUMPDEST SWAP3 POP DUP3 DUP3 MUL PUSH2 0x18D9 DUP2 PUSH2 0x1868 JUMP JUMPDEST SWAP2 POP PUSH32 0x8000000000000000000000000000000000000000000000000000000000000000 DUP5 EQ PUSH1 0x0 DUP5 SLT AND ISZERO PUSH2 0x1911 JUMPI PUSH2 0x1910 PUSH2 0x1765 JUMP JUMPDEST JUMPDEST DUP3 DUP3 SDIV DUP5 EQ DUP4 ISZERO OR PUSH2 0x1926 JUMPI PUSH2 0x1925 PUSH2 0x1765 JUMP JUMPDEST JUMPDEST POP SWAP3 SWAP2 POP POP JUMP JUMPDEST PUSH32 0x4E487B7100000000000000000000000000000000000000000000000000000000 PUSH1 0x0 MSTORE PUSH1 0x12 PUSH1 0x4 MSTORE PUSH1 0x24 PUSH1 0x0 REVERT JUMPDEST PUSH1 0x0 PUSH2 0x1967 DUP3 PUSH2 0x1868 JUMP JUMPDEST SWAP2 POP PUSH2 0x1972 DUP4 PUSH2 0x1868 JUMP JUMPDEST SWAP3 POP DUP3 PUSH2 0x1982 JUMPI PUSH2 0x1981 PUSH2 0x192D JUMP JUMPDEST JUMPDEST PUSH1 0x1 PUSH1 0x0 SUB DUP4 EQ PUSH32 0x8000000000000000000000000000000000000000000000000000000000000000 DUP4 EQ AND ISZERO PUSH2 0x19BB JUMPI PUSH2 0x19BA PUSH2 0x1765 JUMP JUMPDEST JUMPDEST DUP3 DUP3 SDIV SWAP1 POP SWAP3 SWAP2 POP POP JUMP JUMPDEST PUSH1 0x0 PUSH2 0x19D1 DUP3 PUSH2 0xF7E JUMP JUMPDEST SWAP2 POP PUSH2 0x19DC DUP4 PUSH2 0xF7E JUMP JUMPDEST SWAP3 POP DUP3 PUSH2 0x19EC JUMPI PUSH2 0x19EB PUSH2 0x192D JUMP JUMPDEST JUMPDEST DUP3 DUP3 DIV SWAP1 POP SWAP3 SWAP2 POP POP JUMP JUMPDEST PUSH1 0x0 PUSH2 0x1A02 DUP3 PUSH2 0x1868 JUMP JUMPDEST SWAP2 POP PUSH32 0x8000000000000000000000000000000000000000000000000000000000000000 DUP3 SUB PUSH2 0x1A34 JUMPI PUSH2 0x1A33 PUSH2 0x1765 JUMP JUMPDEST JUMPDEST DUP2 PUSH1 0x0 SUB SWAP1 POP SWAP2 SWAP1 POP JUMP JUMPDEST PUSH1 0x0 PUSH2 0x1A4A DUP3 PUSH2 0xF7E JUMP JUMPDEST SWAP2 POP PUSH2 0x1A55 DUP4 PUSH2 0xF7E JUMP JUMPDEST SWAP3 POP DUP3 DUP3 SUB SWAP1 POP DUP2 DUP2 GT ISZERO PUSH2 0x1A6D JUMPI PUSH2 0x1A6C PUSH2 0x1765 JUMP JUMPDEST JUMPDEST SWAP3 SWAP2 POP POP JUMP JUMPDEST PUSH1 0x0 DUP2 MLOAD SWAP1 POP SWAP2 SWAP1 POP JUMP JUMPDEST PUSH1 0x0 DUP3 DUP3 MSTORE PUSH1 0x20 DUP3 ADD SWAP1 POP SWAP3 SWAP2 POP POP JUMP JUMPDEST PUSH1 0x0 JUMPDEST DUP4 DUP2 LT ISZERO PUSH2 0x1AAD JUMPI DUP1 DUP3 ADD MLOAD DUP2 DUP5 ADD MSTORE PUSH1 0x20 DUP2 ADD SWAP1 POP PUSH2 0x1A92 JUMP JUMPDEST PUSH1 0x0 DUP5 DUP5 ADD MSTORE POP POP POP POP JUMP JUMPDEST PUSH1 0x0 PUSH2 0x1AC4 DUP3 PUSH2 0x1A73 JUMP JUMPDEST PUSH2 0x1ACE DUP2 DUP6 PUSH2 0x1A7E JUMP JUMPDEST SWAP4 POP PUSH2 0x1ADE DUP2 DUP6 PUSH1 0x20 DUP7 ADD PUSH2 0x1A8F JUMP JUMPDEST PUSH2 0x1AE7 DUP2 PUSH2 0xFF2 JUMP JUMPDEST DUP5 ADD SWAP2 POP POP SWAP3 SWAP2 POP POP JUMP JUMPDEST PUSH1 0x0 PUSH1 0x40 DUP3 ADD SWAP1 POP DUP2 DUP2 SUB PUSH1 0x0 DUP4 ADD MSTORE PUSH2 0x1B0C DUP2 DUP6 PUSH2 0x1AB9 JUMP JUMPDEST SWAP1 POP PUSH2 0x1B1B PUSH1 0x20 DUP4 ADD DUP5 PUSH2 0xF88 JUMP JUMPDEST SWAP4 SWAP3 POP POP POP JUMP INVALID LOG2 PUSH5 0x6970667358 0x22 SLT KECCAK256 0xE6 PUSH32 0x87EEED9C71D04DE0170A03EA70CDCCC65B3E4A7154C7B8B46512F48307316473 PUSH16 0x6C634300081200330000000000000000 "},"methodIdentifiers":{"commitmentTick()":"f1a18266","createMatch()":"a0cc641a","dispute()":"f240f7c3","joinMatch()":"02c0cdc4","matchCounter()":"01fd1951","matchIdToMoveId(uint256)":"502d4755","matchProgression(uint256,uint256)":"ea302bdb","matches(uint256)":"4768d4ef","playout(uint256,uint256)":"2db146cf","revealTick()":"4b46db95","stateUpdateTick(uint256,((uint256,uint256,uint256)[10],(uint256,uint256,uint256)[10],uint256[10],uint256[10],uint256[10],uint256[10],uint256,uint256,uint256,uint256))":"28866592","ticker()":"8ba47bdd"}}}}}