{"contracts/Game.sol":{"Game":{"abi":[{"inputs":[],"stateMutability":"nonpayable","type":"constructor"},{"inputs":[],"name":"BALL_STEPS_PER_MOVE","outputs":[{"internalType":"uint256","name":"","type":"uint256"}],"stateMutability":"view","type":"function"},{"inputs":[],"name":"FIELD_H","outputs":[{"internalType":"uint256","name":"","type":"uint256"}],"stateMutability":"view","type":"function"},{"inputs":[],"name":"FIELD_W","outputs":[{"internalType":"uint256","name":"","type":"uint256"}],"stateMutability":"view","type":"function"},{"inputs":[],"name":"PLAYER_STEPS_PER_MOVE","outputs":[{"internalType":"uint256","name":"","type":"uint256"}],"stateMutability":"view","type":"function"},{"inputs":[],"name":"commitmentTick","outputs":[],"stateMutability":"nonpayable","type":"function"},{"inputs":[],"name":"createMatch","outputs":[],"stateMutability":"nonpayable","type":"function"},{"inputs":[],"name":"dispute","outputs":[],"stateMutability":"nonpayable","type":"function"},{"inputs":[],"name":"joinMatch","outputs":[],"stateMutability":"nonpayable","type":"function"},{"inputs":[],"name":"matchCounter","outputs":[{"internalType":"uint256","name":"","type":"uint256"}],"stateMutability":"view","type":"function"},{"inputs":[{"internalType":"uint256","name":"","type":"uint256"}],"name":"matchIdToMoveId","outputs":[{"internalType":"uint256","name":"","type":"uint256"}],"stateMutability":"view","type":"function"},{"inputs":[{"internalType":"uint256","name":"","type":"uint256"},{"internalType":"uint256","name":"","type":"uint256"}],"name":"matchProgression","outputs":[{"internalType":"uint256","name":"team1_seed","type":"uint256"},{"internalType":"uint256","name":"team2_seed","type":"uint256"},{"internalType":"uint256","name":"team_with_the_ball","type":"uint256"},{"internalType":"uint256","name":"player_id_with_the_ball","type":"uint256"},{"internalType":"bool","name":"pass","type":"bool"},{"internalType":"uint256","name":"receiving_player_id","type":"uint256"},{"internalType":"bool","name":"interceptionOcurred","type":"bool"},{"internalType":"bool","name":"shoot","type":"bool"}],"stateMutability":"view","type":"function"},{"inputs":[{"internalType":"uint256","name":"","type":"uint256"}],"name":"matches","outputs":[{"internalType":"uint256","name":"seed","type":"uint256"},{"internalType":"address","name":"team1_commitmentChainlinkFunctionConsumer","type":"address"},{"internalType":"address","name":"team2_commitmentChainlinkFunctionConsumer","type":"address"},{"internalType":"address","name":"team1_revealChainlinkFunctionConsumer","type":"address"},{"internalType":"address","name":"team2_revealmentChainlinkFunctionConsumer","type":"address"}],"stateMutability":"view","type":"function"},{"inputs":[{"internalType":"uint256","name":"matchId","type":"uint256"},{"internalType":"uint256","name":"previousMoveId","type":"uint256"}],"name":"playout","outputs":[{"components":[{"components":[{"internalType":"uint256","name":"speed","type":"uint256"},{"internalType":"uint256","name":"skill","type":"uint256"},{"internalType":"uint256","name":"stamina","type":"uint256"}],"internalType":"struct IGame.PlayerStats[10]","name":"team1_playerStats","type":"tuple[10]"},{"components":[{"internalType":"uint256","name":"speed","type":"uint256"},{"internalType":"uint256","name":"skill","type":"uint256"},{"internalType":"uint256","name":"stamina","type":"uint256"}],"internalType":"struct IGame.PlayerStats[10]","name":"team2_playerStats","type":"tuple[10]"},{"internalType":"uint256[]","name":"team1_x_positions","type":"uint256[]"},{"internalType":"uint256[]","name":"team2_x_positions","type":"uint256[]"},{"internalType":"uint256[]","name":"team1_y_positions","type":"uint256[]"},{"internalType":"uint256[]","name":"team2_y_positions","type":"uint256[]"},{"internalType":"uint256","name":"team1_seed","type":"uint256"},{"internalType":"uint256","name":"team2_seed","type":"uint256"},{"internalType":"uint256","name":"team_with_the_ball","type":"uint256"},{"internalType":"uint256","name":"player_id_with_the_ball","type":"uint256"},{"internalType":"bool","name":"pass","type":"bool"},{"internalType":"uint256[]","name":"pass_ball_x_positions","type":"uint256[]"},{"internalType":"uint256[]","name":"pass_ball_y_positions","type":"uint256[]"},{"internalType":"uint256","name":"receiving_player_id","type":"uint256"},{"internalType":"bool","name":"interceptionOcurred","type":"bool"},{"internalType":"bool","name":"shoot","type":"bool"}],"internalType":"struct IGame.MoveInfo","name":"move","type":"tuple"},{"components":[{"components":[{"internalType":"uint256","name":"speed","type":"uint256"},{"internalType":"uint256","name":"skill","type":"uint256"},{"internalType":"uint256","name":"stamina","type":"uint256"}],"internalType":"struct IGame.PlayerStats[10]","name":"team1_playerStats","type":"tuple[10]"},{"components":[{"internalType":"uint256","name":"speed","type":"uint256"},{"internalType":"uint256","name":"skill","type":"uint256"},{"internalType":"uint256","name":"stamina","type":"uint256"}],"internalType":"struct IGame.PlayerStats[10]","name":"team2_playerStats","type":"tuple[10]"},{"internalType":"uint256[]","name":"team1_x_positions","type":"uint256[]"},{"internalType":"uint256[]","name":"team2_x_positions","type":"uint256[]"},{"internalType":"uint256[]","name":"team1_y_positions","type":"uint256[]"},{"internalType":"uint256[]","name":"team2_y_positions","type":"uint256[]"},{"internalType":"uint256","name":"team1_seed","type":"uint256"},{"internalType":"uint256","name":"team2_seed","type":"uint256"},{"internalType":"uint256","name":"team_with_the_ball","type":"uint256"},{"internalType":"uint256","name":"player_id_with_the_ball","type":"uint256"},{"internalType":"bool","name":"pass","type":"bool"},{"internalType":"uint256[]","name":"pass_ball_x_positions","type":"uint256[]"},{"internalType":"uint256[]","name":"pass_ball_y_positions","type":"uint256[]"},{"internalType":"uint256","name":"receiving_player_id","type":"uint256"},{"internalType":"bool","name":"interceptionOcurred","type":"bool"},{"internalType":"bool","name":"shoot","type":"bool"}],"internalType":"struct IGame.MoveInfo[5]","name":"moveProgression","type":"tuple[5]"}],"stateMutability":"view","type":"function"},{"inputs":[],"name":"revealTick","outputs":[],"stateMutability":"nonpayable","type":"function"},{"inputs":[{"internalType":"uint256","name":"matchId","type":"uint256"},{"components":[{"components":[{"internalType":"uint256","name":"speed","type":"uint256"},{"internalType":"uint256","name":"skill","type":"uint256"},{"internalType":"uint256","name":"stamina","type":"uint256"}],"internalType":"struct IGame.PlayerStats[10]","name":"team1_playerStats","type":"tuple[10]"},{"components":[{"internalType":"uint256","name":"speed","type":"uint256"},{"internalType":"uint256","name":"skill","type":"uint256"},{"internalType":"uint256","name":"stamina","type":"uint256"}],"internalType":"struct IGame.PlayerStats[10]","name":"team2_playerStats","type":"tuple[10]"},{"internalType":"uint256[]","name":"team1_x_positions","type":"uint256[]"},{"internalType":"uint256[]","name":"team2_x_positions","type":"uint256[]"},{"internalType":"uint256[]","name":"team1_y_positions","type":"uint256[]"},{"internalType":"uint256[]","name":"team2_y_positions","type":"uint256[]"},{"internalType":"uint256","name":"team1_seed","type":"uint256"},{"internalType":"uint256","name":"team2_seed","type":"uint256"},{"internalType":"uint256","name":"team_with_the_ball","type":"uint256"},{"internalType":"uint256","name":"player_id_with_the_ball","type":"uint256"},{"internalType":"bool","name":"pass","type":"bool"},{"internalType":"uint256[]","name":"pass_ball_x_positions","type":"uint256[]"},{"internalType":"uint256[]","name":"pass_ball_y_positions","type":"uint256[]"},{"internalType":"uint256","name":"receiving_player_id","type":"uint256"},{"internalType":"bool","name":"interceptionOcurred","type":"bool"},{"internalType":"bool","name":"shoot","type":"bool"}],"internalType":"struct IGame.MoveInfo","name":"reportedMoveInfo","type":"tuple"}],"name":"stateUpdateTick","outputs":[],"stateMutability":"nonpayable","type":"function"},{"inputs":[],"name":"ticker","outputs":[{"internalType":"address","name":"","type":"address"}],"stateMutability":"view","type":"function"},{"inputs":[{"internalType":"uint256","name":"matchId","type":"uint256"},{"internalType":"bytes","name":"commitment","type":"bytes"}],"name":"updateCommitmentInfo","outputs":[],"stateMutability":"nonpayable","type":"function"},{"inputs":[{"internalType":"uint256","name":"matchId","type":"uint256"},{"internalType":"bytes","name":"commitment","type":"bytes"}],"name":"updateRevealInfo","outputs":[],"stateMutability":"nonpayable","type":"function"}],"evm":{"bytecode":{"linkReferences":{},"object":"60806040523480156200001157600080fd5b506000600a905060005b81811015620006b657600a67ffffffffffffffff81111562000042576200004162000764565b5b604051908082528060200260200182016040528015620000715781602001602082028036833780820191505090505b506004600060015481526020019081526020016000206000838152602001908152602001600020603c019080519060200190620000b0929190620006f3565b50600a67ffffffffffffffff811115620000cf57620000ce62000764565b5b604051908082528060200260200182016040528015620000fe5781602001602082028036833780820191505090505b506004600060015481526020019081526020016000206000838152602001908152602001600020603d0190805190602001906200013d929190620006f3565b50600a67ffffffffffffffff8111156200015c576200015b62000764565b5b6040519080825280602002602001820160405280156200018b5781602001602082028036833780820191505090505b506004600060015481526020019081526020016000206000838152602001908152602001600020603e019080519060200190620001ca929190620006f3565b50600a67ffffffffffffffff811115620001e957620001e862000764565b5b604051908082528060200260200182016040528015620002185781602001602082028036833780820191505090505b506004600060015481526020019081526020016000206000838152602001908152602001600020603f01908051906020019062000257929190620006f3565b50600767ffffffffffffffff81111562000276576200027562000764565b5b604051908082528060200260200182016040528015620002a55781602001602082028036833780820191505090505b5060046000600154815260200190815260200160002060008381526020019081526020016000206045019080519060200190620002e4929190620006f3565b50600767ffffffffffffffff81111562000303576200030262000764565b5b604051908082528060200260200182016040528015620003325781602001602082028036833780820191505090505b506004600060015481526020019081526020016000206000838152602001908152602001600020604601908051906020019062000371929190620006f3565b5060005b600a811015620005aa576103e861332d836005846200039591906200092d565b620003a191906200097e565b620003ad9190620009c9565b620003b9919062000a33565b6004600060015481526020019081526020016000206000848152602001908152602001600020603c018281548110620003f757620003f662000a6b565b5b90600052602060002001819055506103e8610c2783606f846200041b91906200097e565b6200042791906200097e565b620004339190620009c9565b6200043f919062000a33565b6004600060015481526020019081526020016000206000848152602001908152602001600020603d0182815481106200047d576200047c62000a6b565b5b90600052602060002001819055506101f460218360de84620004a091906200097e565b620004ac91906200097e565b620004b89190620009c9565b620004c4919062000a33565b6004600060015481526020019081526020016000206000848152602001908152602001600020603e01828154811062000502576200050162000a6b565b5b90600052602060002001819055506101f4601f83610515846200052691906200097e565b6200053291906200097e565b6200053e9190620009c9565b6200054a919062000a33565b6004600060015481526020019081526020016000206000848152602001908152602001600020603f01828154811062000588576200058762000a6b565b5b906000526020600020018190555080620005a29062000a9a565b905062000375565b506001600460006001548152602001908152602001600020600083815260200190815260200160002060440160006101000a81548160ff0219169083151502179055506001600460006001548152602001908152602001600020600083815260200190815260200160002060420181905550600a816200062b919062000a33565b6004600060015481526020019081526020016000206000838152602001908152602001600020604301819055506008816001620006699190620009c9565b62000675919062000a33565b60046000600154815260200190815260200160002060008381526020019081526020016000206047018190555080620006ae9062000a9a565b90506200001b565b5080600360006001548152602001908152602001600020819055506001806000828254620006e59190620009c9565b925050819055505062000ae7565b82805482825590600052602060002090810192821562000732579160200282015b828111156200073157825182559160200191906001019062000714565b5b50905062000741919062000745565b5090565b5b808211156200076057600081600090555060010162000746565b5090565b7f4e487b7100000000000000000000000000000000000000000000000000000000600052604160045260246000fd5b7f4e487b7100000000000000000000000000000000000000000000000000000000600052601160045260246000fd5b60008160011c9050919050565b6000808291508390505b60018511156200082157808604811115620007f957620007f862000793565b5b6001851615620008095780820291505b80810290506200081985620007c2565b9450620007d9565b94509492505050565b6000826200083c57600190506200090f565b816200084c57600090506200090f565b81600181146200086557600281146200087057620008a6565b60019150506200090f565b60ff84111562000885576200088462000793565b5b8360020a9150848211156200089f576200089e62000793565b5b506200090f565b5060208310610133831016604e8410600b8410161715620008e05782820a905083811115620008da57620008d962000793565b5b6200090f565b620008ef8484846001620007cf565b9250905081840481111562000909576200090862000793565b5b81810290505b9392505050565b6000819050919050565b600060ff82169050919050565b60006200093a8262000916565b9150620009478362000920565b9250620009767fffffffffffffffffffffffffffffffffffffffffffffffffffffffffffffffff84846200082a565b905092915050565b60006200098b8262000916565b9150620009988362000916565b9250828202620009a88162000916565b91508282048414831517620009c257620009c162000793565b5b5092915050565b6000620009d68262000916565b9150620009e38362000916565b9250828201905080821115620009fe57620009fd62000793565b5b92915050565b7f4e487b7100000000000000000000000000000000000000000000000000000000600052601260045260246000fd5b600062000a408262000916565b915062000a4d8362000916565b92508262000a605762000a5f62000a04565b5b828206905092915050565b7f4e487b7100000000000000000000000000000000000000000000000000000000600052603260045260246000fd5b600062000aa78262000916565b91507fffffffffffffffffffffffffffffffffffffffffffffffffffffffffffffffff820362000adc5762000adb62000793565b5b600182019050919050565b6133468062000af76000396000f3fe608060405234801561001057600080fd5b50600436106101165760003560e01c8063502d4755116100a2578063a0cc641a11610071578063a0cc641a146102b0578063acb20101146102ba578063ea302bdb146102d6578063f1a182661461030d578063f240f7c31461031757610116565b8063502d475514610228578063734692a9146102585780638ba47bdd14610276578063960c68d01461029457610116565b806339febf0c116100e957806339febf0c1461019257806341ba6321146101b05780634768d4ef146101cc57806349bbc37a146102005780634b46db951461021e57610116565b806301fd19511461011b57806302c0cdc414610139578063124a96c8146101435780632db146cf14610161575b600080fd5b610123610321565b6040516101309190612109565b60405180910390f35b610141610327565b005b61014b610329565b6040516101589190612109565b60405180910390f35b61017b60048036038101906101769190612164565b61032f565b604051610189929190612715565b60405180910390f35b61019a61188f565b6040516101a79190612109565b60405180910390f35b6101ca60048036038101906101c59190612892565b611894565b005b6101e660048036038101906101e191906128ee565b611898565b6040516101f795949392919061295c565b60405180910390f35b61020861194e565b6040516102159190612109565b60405180910390f35b610226611954565b005b610242600480360381019061023d91906128ee565b611956565b60405161024f9190612109565b60405180910390f35b61026061196e565b60405161026d9190612109565b60405180910390f35b61027e611973565b60405161028b91906129af565b60405180910390f35b6102ae60048036038101906102a99190612892565b611997565b005b6102b861199b565b005b6102d460048036038101906102cf9190612e06565b61199d565b005b6102f060048036038101906102eb9190612164565b6119a1565b604051610304989796959493929190612e71565b60405180910390f35b610315611a1d565b005b61031f611a1f565b005b60015481565b565b6101f481565b610337611fe5565b61033f612074565b6004600085815260200190815260200160002060008481526020019081526020016000206040518061020001604052908160008201600a80602002604051908101604052809291906000905b828210156103d15783826003020160405180606001604052908160008201548152602001600182015481526020016002820154815250508152602001906001019061038b565b505050508152602001601e8201600a80602002604051908101604052809291906000905b8282101561043b578382600302016040518060600160405290816000820154815260200160018201548152602001600282015481525050815260200190600101906103f5565b505050508152602001603c820180548060200260200160405190810160405280929190818152602001828054801561049257602002820191906000526020600020905b81548152602001906001019080831161047e575b50505050508152602001603d82018054806020026020016040519081016040528092919081815260200182805480156104ea57602002820191906000526020600020905b8154815260200190600101908083116104d6575b50505050508152602001603e820180548060200260200160405190810160405280929190818152602001828054801561054257602002820191906000526020600020905b81548152602001906001019080831161052e575b50505050508152602001603f820180548060200260200160405190810160405280929190818152602001828054801561059a57602002820191906000526020600020905b815481526020019060010190808311610586575b50505050508152602001604082015481526020016041820154815260200160428201548152602001604382015481526020016044820160009054906101000a900460ff161515151581526020016045820180548060200260200160405190810160405280929190818152602001828054801561063557602002820191906000526020600020905b815481526020019060010190808311610621575b505050505081526020016046820180548060200260200160405190810160405280929190818152602001828054801561068d57602002820191906000526020600020905b815481526020019060010190808311610679575b50505050508152602001604782015481526020016048820160009054906101000a900460ff161515151581526020016048820160019054906101000a900460ff161515151581525050915061071c6040518060400160405280601481526020017f506c617965722077697468207468652062616c6c000000000000000000000000815250836101200151611a21565b600a67ffffffffffffffff81111561073757610736612767565b5b6040519080825280602002602001820160405280156107655781602001602082028036833780820191505090505b508260400181905250600a67ffffffffffffffff81111561078957610788612767565b5b6040519080825280602002602001820160405280156107b75781602001602082028036833780820191505090505b508260400181905250600a67ffffffffffffffff8111156107db576107da612767565b5b6040519080825280602002602001820160405280156108095781602001602082028036833780820191505090505b508260600181905250600a67ffffffffffffffff81111561082d5761082c612767565b5b60405190808252806020026020018201604052801561085b5781602001602082028036833780820191505090505b508260800181905250600a67ffffffffffffffff81111561087f5761087e612767565b5b6040519080825280602002602001820160405280156108ad5781602001602082028036833780820191505090505b508260a00181905250600767ffffffffffffffff8111156108d1576108d0612767565b5b6040519080825280602002602001820160405280156108ff5781602001602082028036833780820191505090505b50826101600181905250600767ffffffffffffffff81111561092457610923612767565b5b6040519080825280602002602001820160405280156109525781602001602082028036833780820191505090505b5082610180018190525060005b600a8110156109e057600460008681526020019081526020016000206000858152602001908152602001600020603c0181815481106109a1576109a0612eef565b5b9060005260206000200154836040015182815181106109c3576109c2612eef565b5b602002602001018181525050806109d990612f4d565b905061095f565b506000600460008681526020019081526020016000206000600186610a059190612f95565b815260200190815260200160002090506000600590505b600081111561125d5760005b600a811015610aee57600083603c018281548110610a4957610a48612eef565b5b90600052602060002001549050600084603e018381548110610a6e57610a6d612eef565b5b90600052602060002001549050600080610a8d8960018787878b611abd565b915091508189604001518681518110610aa957610aa8612eef565b5b6020026020010181815250508089608001518681518110610acd57610acc612eef565b5b6020026020010181815250505050505080610ae790612f4d565b9050610a28565b5060005b600a811015610bb857600083603d018281548110610b1357610b12612eef565b5b90600052602060002001549050600084603f018381548110610b3857610b37612eef565b5b90600052602060002001549050600080610b578960028787878b611abd565b915091508189606001518681518110610b7357610b72612eef565b5b602002602001018181525050808960a001518681518110610b9757610b96612eef565b5b6020026020010181815250505050505080610bb190612f4d565b9050610af2565b50600a67ffffffffffffffff811115610bd457610bd3612767565b5b604051908082528060200260200182016040528015610c025781602001602082028036833780820191505090505b5083826005610c119190612fc9565b60058110610c2257610c21612eef565b5b602002015160400181905250600a67ffffffffffffffff811115610c4957610c48612767565b5b604051908082528060200260200182016040528015610c775781602001602082028036833780820191505090505b5083826005610c869190612fc9565b60058110610c9757610c96612eef565b5b602002015160400181905250600a67ffffffffffffffff811115610cbe57610cbd612767565b5b604051908082528060200260200182016040528015610cec5781602001602082028036833780820191505090505b5083826005610cfb9190612fc9565b60058110610d0c57610d0b612eef565b5b602002015160600181905250600a67ffffffffffffffff811115610d3357610d32612767565b5b604051908082528060200260200182016040528015610d615781602001602082028036833780820191505090505b5083826005610d709190612fc9565b60058110610d8157610d80612eef565b5b602002015160800181905250600a67ffffffffffffffff811115610da857610da7612767565b5b604051908082528060200260200182016040528015610dd65781602001602082028036833780820191505090505b5083826005610de59190612fc9565b60058110610df657610df5612eef565b5b602002015160a00181905250600767ffffffffffffffff811115610e1d57610e1c612767565b5b604051908082528060200260200182016040528015610e4b5781602001602082028036833780820191505090505b5083826005610e5a9190612fc9565b60058110610e6b57610e6a612eef565b5b60200201516101600181905250600767ffffffffffffffff811115610e9357610e92612767565b5b604051908082528060200260200182016040528015610ec15781602001602082028036833780820191505090505b5083826005610ed09190612fc9565b60058110610ee157610ee0612eef565b5b6020020151610180018190525083610140015183826005610f029190612fc9565b60058110610f1357610f12612eef565b5b602002015161014001901515908115158152505083610120015183826005610f3b9190612fc9565b60058110610f4c57610f4b612eef565b5b602002015161012001818152505083610100015183826005610f6e9190612fc9565b60058110610f7f57610f7e612eef565b5b6020020151610100018181525050836101a0015183826005610fa19190612fc9565b60058110610fb257610fb1612eef565b5b60200201516101a001818152505060005b600a8110156112495784604001518181518110610fe357610fe2612eef565b5b602002602001015184836005610ff99190612fc9565b6005811061100a57611009612eef565b5b602002015160400151828151811061102557611024612eef565b5b6020026020010181815250508460800151818151811061104857611047612eef565b5b60200260200101518483600561105e9190612fc9565b6005811061106f5761106e612eef565b5b602002015160800151828151811061108a57611089612eef565b5b602002602001018181525050846060015181815181106110ad576110ac612eef565b5b6020026020010151848360056110c39190612fc9565b600581106110d4576110d3612eef565b5b60200201516060015182815181106110ef576110ee612eef565b5b6020026020010181815250508460a00151818151811061111257611111612eef565b5b6020026020010151848360056111289190612fc9565b6005811061113957611138612eef565b5b602002015160a00151828151811061115457611153612eef565b5b602002602001018181525050600781101561123857846101600151818151811061118157611180612eef565b5b6020026020010151848360056111979190612fc9565b600581106111a8576111a7612eef565b5b6020020151610160015182815181106111c4576111c3612eef565b5b60200260200101818152505084610180015181815181106111e8576111e7612eef565b5b6020026020010151848360056111fe9190612fc9565b6005811061120f5761120e612eef565b5b60200201516101800151828151811061122b5761122a612eef565b5b6020026020010181815250505b8061124290612f4d565b9050610fc3565b50808061125590612ffd565b915050610a1c565b50600115158361014001511515148015611280575060001515836101c001511515145b1561152157600083610120015190506000846101a00151905060008060018761010001510361137857866040015184815181106112c0576112bf612eef565b5b60200260200101518761016001516000815181106112e1576112e0612eef565b5b6020026020010181815250508660800151848151811061130457611303612eef565b5b602002602001015187610180015160008151811061132557611324612eef565b5b6020026020010181815250508660400151838151811061134857611347612eef565b5b602002602001015191508660800151838151811061136957611368612eef565b5b60200260200101519050611443565b8660600151848151811061138f5761138e612eef565b5b60200260200101518761016001516000815181106113b0576113af612eef565b5b6020026020010181815250508660a0015184815181106113d3576113d2612eef565b5b60200260200101518761018001516000815181106113f4576113f3612eef565b5b6020026020010181815250508660600151838151811061141757611416612eef565b5b602002602001015191508660a00151838151811061143857611437612eef565b5b602002602001015190505b6000600190505b600781108015611463575060001515886101c001511515145b1561151b576000806114b88a610160015160008151811061148757611486612eef565b5b60200260200101518b61018001516000815181106114a8576114a7612eef565b5b6020026020010151878787611d04565b91509150818a610160015184815181106114d5576114d4612eef565b5b602002602001018181525050808a610180015184815181106114fa576114f9612eef565b5b6020026020010181815250505050808061151390612f4d565b91505061144a565b50505050505b82610140015182600160056115369190612fc9565b6005811061154757611546612eef565b5b602002015161014001901515908115158152505082610120015182600160056115709190612fc9565b6005811061158157611580612eef565b5b602002015161012001818152505082610100015182600160056115a49190612fc9565b600581106115b5576115b4612eef565b5b6020020151610100018181525050826101a0015182600160056115d89190612fc9565b600581106115e9576115e8612eef565b5b60200201516101a001818152505060005b600a811015611886578360400151818151811061161a57611619612eef565b5b602002602001015183600160056116319190612fc9565b6005811061164257611641612eef565b5b602002015160400151828151811061165d5761165c612eef565b5b602002602001018181525050836080015181815181106116805761167f612eef565b5b602002602001015183600160056116979190612fc9565b600581106116a8576116a7612eef565b5b60200201516080015182815181106116c3576116c2612eef565b5b602002602001018181525050836060015181815181106116e6576116e5612eef565b5b602002602001015183600160056116fd9190612fc9565b6005811061170e5761170d612eef565b5b602002015160600151828151811061172957611728612eef565b5b6020026020010181815250508360a00151818151811061174c5761174b612eef565b5b602002602001015183600160056117639190612fc9565b6005811061177457611773612eef565b5b602002015160a00151828151811061178f5761178e612eef565b5b60200260200101818152505060078110156118755783610160015181815181106117bc576117bb612eef565b5b602002602001015183600160056117d39190612fc9565b600581106117e4576117e3612eef565b5b602002015161016001518281518110611800576117ff612eef565b5b602002602001018181525050836101800151818151811061182457611823612eef565b5b6020026020010151836001600561183b9190612fc9565b6005811061184c5761184b612eef565b5b60200201516101800151828151811061186857611867612eef565b5b6020026020010181815250505b8061187f90612f4d565b90506115fa565b50509250929050565b600581565b5050565b600260205280600052604060002060009150905080600001549080603d0160009054906101000a900473ffffffffffffffffffffffffffffffffffffffff169080603e0160009054906101000a900473ffffffffffffffffffffffffffffffffffffffff169080603f0160009054906101000a900473ffffffffffffffffffffffffffffffffffffffff16908060400160009054906101000a900473ffffffffffffffffffffffffffffffffffffffff16905085565b6103e881565b565b60036020528060005260406000206000915090505481565b600781565b60008054906101000a900473ffffffffffffffffffffffffffffffffffffffff1681565b5050565b565b5050565b6004602052816000526040600020602052806000526040600020600091509150508060400154908060410154908060420154908060430154908060440160009054906101000a900460ff16908060470154908060480160009054906101000a900460ff16908060480160019054906101000a900460ff16905088565b565b565b611ab98282604051602401611a379291906130a5565b6040516020818303038152906040527fb60e72cc000000000000000000000000000000000000000000000000000000007bffffffffffffffffffffffffffffffffffffffffffffffffffffffff19166020820180517bffffffffffffffffffffffffffffffffffffffffffffffffffffffff8381831617835250505050611f07565b5050565b600080600088604001518781518110611ad957611ad8612eef565b5b60200260200101519050600089608001518881518110611afc57611afb612eef565b5b6020026020010151905060028903611b515789606001518881518110611b2557611b24612eef565b5b602002602001015191508960a001518881518110611b4657611b45612eef565b5b602002602001015190505b8682148015611b5f57508581145b15611b71578181935093505050611cf9565b6000851480611b8d575060001515611b898888611f30565b1515145b15611b9f578181935093505050611cf9565b60018503611bb4578686935093505050611cf9565b60008288611bc291906130df565b905060008288611bd291906130df565b90506000821315611c15576103e887836103e8611bef9190613122565b611bf991906131c9565b611c039190613233565b84611c0e9190612f95565b9550611c64565b6000821215611c5f576103e88783611c2c90613264565b6103e8611c399190613122565b611c4391906131c9565b611c4d9190613233565b84611c589190612fc9565b9550611c63565b8895505b5b6000811315611ca5576103e887826103e8611c7f9190613122565b611c8991906131c9565b611c939190613233565b83611c9e9190612f95565b9450611cf4565b6000811215611cef576103e88782611cbc90613264565b6103e8611cc99190613122565b611cd391906131c9565b611cdd91906131c9565b83611ce89190612fc9565b9450611cf3565b8794505b5b505050505b965096945050505050565b600080611d456040518060400160405280600e81526020017f414456414e43494e472042414c4c000000000000000000000000000000000000815250611f4c565b6000836007611d549190612fc9565b905060018103611d6957859250849150611efc565b60008887611d7791906130df565b905060008887611d8791906130df565b90506000821315611de2576103e860016007611da39190612fc9565b836103e8611db19190613122565b611dbb91906131c9565b87611dc691906132ac565b611dd09190613233565b8a611ddb9190612f95565b9450611e41565b6000821215611e40576103e860016007611dfc9190612fc9565b83611e0690613264565b6103e8611e139190613122565b611e1d91906131c9565b87611e2891906132ac565b611e329190613233565b8a611e3d9190612fc9565b94505b5b6000811315611e9a576103e860016007611e5b9190612fc9565b826103e8611e699190613122565b611e7391906131c9565b87611e7e91906132ac565b611e889190613233565b89611e939190612f95565b9350611ef9565b6000811215611ef8576103e860016007611eb49190612fc9565b82611ebe90613264565b6103e8611ecb9190613122565b611ed591906131c9565b611edf91906131c9565b86611eea91906132ac565b89611ef59190612fc9565b93505b5b50505b509550959350505050565b60008151905060006a636f6e736f6c652e6c6f679050602083016000808483855afa5050505050565b60006103e883108015611f4457506101f482105b905092915050565b611fe281604051602401611f6091906132ee565b6040516020818303038152906040527f41304fac000000000000000000000000000000000000000000000000000000007bffffffffffffffffffffffffffffffffffffffffffffffffffffffff19166020820180517bffffffffffffffffffffffffffffffffffffffffffffffffffffffff8381831617835250505050611f07565b50565b604051806102000160405280611ff96120a1565b81526020016120066120a1565b815260200160608152602001606081526020016060815260200160608152602001600081526020016000815260200160008152602001600081526020016000151581526020016060815260200160608152602001600081526020016000151581526020016000151581525090565b6040518060a001604052806005905b61208b611fe5565b8152602001906001900390816120835790505090565b604051806101400160405280600a905b6120b96120cf565b8152602001906001900390816120b15790505090565b60405180606001604052806000815260200160008152602001600081525090565b6000819050919050565b612103816120f0565b82525050565b600060208201905061211e60008301846120fa565b92915050565b6000604051905090565b600080fd5b600080fd5b612141816120f0565b811461214c57600080fd5b50565b60008135905061215e81612138565b92915050565b6000806040838503121561217b5761217a61212e565b5b60006121898582860161214f565b925050602061219a8582860161214f565b9150509250929050565b6000600a9050919050565b600081905092915050565b6000819050919050565b6121cd816120f0565b82525050565b6060820160008201516121e960008501826121c4565b5060208201516121fc60208501826121c4565b50604082015161220f60408501826121c4565b50505050565b600061222183836121d3565b60608301905092915050565b6000602082019050919050565b612243816121a4565b61224d81846121af565b9250612258826121ba565b8060005b838110156122895781516122708782612215565b965061227b8361222d565b92505060018101905061225c565b505050505050565b600081519050919050565b600082825260208201905092915050565b6000819050602082019050919050565b60006122c983836121c4565b60208301905092915050565b6000602082019050919050565b60006122ed82612291565b6122f7818561229c565b9350612302836122ad565b8060005b8381101561233357815161231a88826122bd565b9750612325836122d5565b925050600181019050612306565b5085935050505092915050565b60008115159050919050565b61235581612340565b82525050565b600061094083016000830151612374600086018261223a565b5060208301516123886103c086018261223a565b5060408301518482036107808601526123a182826122e2565b91505060608301518482036107a08601526123bc82826122e2565b91505060808301518482036107c08601526123d782826122e2565b91505060a08301518482036107e08601526123f282826122e2565b91505060c08301516124086108008601826121c4565b5060e083015161241c6108208601826121c4565b506101008301516124316108408601826121c4565b506101208301516124466108608601826121c4565b5061014083015161245b61088086018261234c565b506101608301518482036108a086015261247582826122e2565b9150506101808301518482036108c086015261249182826122e2565b9150506101a08301516124a86108e08601826121c4565b506101c08301516124bd61090086018261234c565b506101e08301516124d261092086018261234c565b508091505092915050565b600060059050919050565b600081905092915050565b6000819050919050565b600061094083016000830151612516600086018261223a565b50602083015161252a6103c086018261223a565b50604083015184820361078086015261254382826122e2565b91505060608301518482036107a086015261255e82826122e2565b91505060808301518482036107c086015261257982826122e2565b91505060a08301518482036107e086015261259482826122e2565b91505060c08301516125aa6108008601826121c4565b5060e08301516125be6108208601826121c4565b506101008301516125d36108408601826121c4565b506101208301516125e86108608601826121c4565b506101408301516125fd61088086018261234c565b506101608301518482036108a086015261261782826122e2565b9150506101808301518482036108c086015261263382826122e2565b9150506101a083015161264a6108e08601826121c4565b506101c083015161265f61090086018261234c565b506101e083015161267461092086018261234c565b508091505092915050565b600061268b83836124fd565b905092915050565b6000602082019050919050565b60006126ab826124dd565b6126b581856124e8565b9350836020820285016126c7856124f3565b8060005b8581101561270357848403895281516126e4858261267f565b94506126ef83612693565b925060208a019950506001810190506126cb565b50829750879550505050505092915050565b6000604082019050818103600083015261272f818561235b565b9050818103602083015261274381846126a0565b90509392505050565b600080fd5b600080fd5b6000601f19601f8301169050919050565b7f4e487b7100000000000000000000000000000000000000000000000000000000600052604160045260246000fd5b61279f82612756565b810181811067ffffffffffffffff821117156127be576127bd612767565b5b80604052505050565b60006127d1612124565b90506127dd8282612796565b919050565b600067ffffffffffffffff8211156127fd576127fc612767565b5b61280682612756565b9050602081019050919050565b82818337600083830152505050565b6000612835612830846127e2565b6127c7565b90508281526020810184848401111561285157612850612751565b5b61285c848285612813565b509392505050565b600082601f8301126128795761287861274c565b5b8135612889848260208601612822565b91505092915050565b600080604083850312156128a9576128a861212e565b5b60006128b78582860161214f565b925050602083013567ffffffffffffffff8111156128d8576128d7612133565b5b6128e485828601612864565b9150509250929050565b6000602082840312156129045761290361212e565b5b60006129128482850161214f565b91505092915050565b600073ffffffffffffffffffffffffffffffffffffffff82169050919050565b60006129468261291b565b9050919050565b6129568161293b565b82525050565b600060a08201905061297160008301886120fa565b61297e602083018761294d565b61298b604083018661294d565b612998606083018561294d565b6129a5608083018461294d565b9695505050505050565b60006020820190506129c4600083018461294d565b92915050565b600080fd5b600080fd5b600067ffffffffffffffff8211156129ef576129ee612767565b5b602082029050919050565b600080fd5b600060608284031215612a1557612a146129ca565b5b612a1f60606127c7565b90506000612a2f8482850161214f565b6000830152506020612a438482850161214f565b6020830152506040612a578482850161214f565b60408301525092915050565b6000612a76612a71846129d4565b6127c7565b90508060608402830185811115612a9057612a8f6129fa565b5b835b81811015612ab95780612aa588826129ff565b845260208401935050606081019050612a92565b5050509392505050565b600082601f830112612ad857612ad761274c565b5b600a612ae5848285612a63565b91505092915050565b600067ffffffffffffffff821115612b0957612b08612767565b5b602082029050602081019050919050565b6000612b2d612b2884612aee565b6127c7565b90508083825260208201905060208402830185811115612b5057612b4f6129fa565b5b835b81811015612b795780612b65888261214f565b845260208401935050602081019050612b52565b5050509392505050565b600082601f830112612b9857612b9761274c565b5b8135612ba8848260208601612b1a565b91505092915050565b612bba81612340565b8114612bc557600080fd5b50565b600081359050612bd781612bb1565b92915050565b60006109408284031215612bf457612bf36129ca565b5b612bff6102006127c7565b90506000612c0f84828501612ac3565b6000830152506103c0612c2484828501612ac3565b60208301525061078082013567ffffffffffffffff811115612c4957612c486129cf565b5b612c5584828501612b83565b6040830152506107a082013567ffffffffffffffff811115612c7a57612c796129cf565b5b612c8684828501612b83565b6060830152506107c082013567ffffffffffffffff811115612cab57612caa6129cf565b5b612cb784828501612b83565b6080830152506107e082013567ffffffffffffffff811115612cdc57612cdb6129cf565b5b612ce884828501612b83565b60a083015250610800612cfd8482850161214f565b60c083015250610820612d128482850161214f565b60e083015250610840612d278482850161214f565b61010083015250610860612d3d8482850161214f565b61012083015250610880612d5384828501612bc8565b610140830152506108a082013567ffffffffffffffff811115612d7957612d786129cf565b5b612d8584828501612b83565b610160830152506108c082013567ffffffffffffffff811115612dab57612daa6129cf565b5b612db784828501612b83565b610180830152506108e0612dcd8482850161214f565b6101a083015250610900612de384828501612bc8565b6101c083015250610920612df984828501612bc8565b6101e08301525092915050565b60008060408385031215612e1d57612e1c61212e565b5b6000612e2b8582860161214f565b925050602083013567ffffffffffffffff811115612e4c57612e4b612133565b5b612e5885828601612bdd565b9150509250929050565b612e6b81612340565b82525050565b600061010082019050612e87600083018b6120fa565b612e94602083018a6120fa565b612ea160408301896120fa565b612eae60608301886120fa565b612ebb6080830187612e62565b612ec860a08301866120fa565b612ed560c0830185612e62565b612ee260e0830184612e62565b9998505050505050505050565b7f4e487b7100000000000000000000000000000000000000000000000000000000600052603260045260246000fd5b7f4e487b7100000000000000000000000000000000000000000000000000000000600052601160045260246000fd5b6000612f58826120f0565b91507fffffffffffffffffffffffffffffffffffffffffffffffffffffffffffffffff8203612f8a57612f89612f1e565b5b600182019050919050565b6000612fa0826120f0565b9150612fab836120f0565b9250828201905080821115612fc357612fc2612f1e565b5b92915050565b6000612fd4826120f0565b9150612fdf836120f0565b9250828203905081811115612ff757612ff6612f1e565b5b92915050565b6000613008826120f0565b91506000820361301b5761301a612f1e565b5b600182039050919050565b600081519050919050565b600082825260208201905092915050565b60005b83811015613060578082015181840152602081019050613045565b60008484015250505050565b600061307782613026565b6130818185613031565b9350613091818560208601613042565b61309a81612756565b840191505092915050565b600060408201905081810360008301526130bf818561306c565b90506130ce60208301846120fa565b9392505050565b6000819050919050565b60006130ea826130d5565b91506130f5836130d5565b925082820390508181126000841216828213600085121516171561311c5761311b612f1e565b5b92915050565b600061312d826130d5565b9150613138836130d5565b9250828202613146816130d5565b91507f8000000000000000000000000000000000000000000000000000000000000000841460008412161561317e5761317d612f1e565b5b828205841483151761319357613192612f1e565b5b5092915050565b7f4e487b7100000000000000000000000000000000000000000000000000000000600052601260045260246000fd5b60006131d4826130d5565b91506131df836130d5565b9250826131ef576131ee61319a565b5b600160000383147f80000000000000000000000000000000000000000000000000000000000000008314161561322857613227612f1e565b5b828205905092915050565b600061323e826120f0565b9150613249836120f0565b9250826132595761325861319a565b5b828204905092915050565b600061326f826130d5565b91507f800000000000000000000000000000000000000000000000000000000000000082036132a1576132a0612f1e565b5b816000039050919050565b60006132b7826120f0565b91506132c2836120f0565b92508282026132d0816120f0565b915082820484148315176132e7576132e6612f1e565b5b5092915050565b60006020820190508181036000830152613308818461306c565b90509291505056fea264697066735822122015ab1fdda79ad9c027ac761115483d5d5f69364f4345437ed87684fda5cffe9264736f6c63430008120033","opcodes":"PUSH1 0x80 PUSH1 0x40 MSTORE CALLVALUE DUP1 ISZERO PUSH3 0x11 JUMPI PUSH1 0x0 DUP1 REVERT JUMPDEST POP PUSH1 0x0 PUSH1 0xA SWAP1 POP PUSH1 0x0 JUMPDEST DUP2 DUP2 LT ISZERO PUSH3 0x6B6 JUMPI PUSH1 0xA PUSH8 0xFFFFFFFFFFFFFFFF DUP2 GT ISZERO PUSH3 0x42 JUMPI PUSH3 0x41 PUSH3 0x764 JUMP JUMPDEST JUMPDEST PUSH1 0x40 MLOAD SWAP1 DUP1 DUP3 MSTORE DUP1 PUSH1 0x20 MUL PUSH1 0x20 ADD DUP3 ADD PUSH1 0x40 MSTORE DUP1 ISZERO PUSH3 0x71 JUMPI DUP2 PUSH1 0x20 ADD PUSH1 0x20 DUP3 MUL DUP1 CALLDATASIZE DUP4 CALLDATACOPY DUP1 DUP3 ADD SWAP2 POP POP SWAP1 POP JUMPDEST POP PUSH1 0x4 PUSH1 0x0 PUSH1 0x1 SLOAD DUP2 MSTORE PUSH1 0x20 ADD SWAP1 DUP2 MSTORE PUSH1 0x20 ADD PUSH1 0x0 KECCAK256 PUSH1 0x0 DUP4 DUP2 MSTORE PUSH1 0x20 ADD SWAP1 DUP2 MSTORE PUSH1 0x20 ADD PUSH1 0x0 KECCAK256 PUSH1 0x3C ADD SWAP1 DUP1 MLOAD SWAP1 PUSH1 0x20 ADD SWAP1 PUSH3 0xB0 SWAP3 SWAP2 SWAP1 PUSH3 0x6F3 JUMP JUMPDEST POP PUSH1 0xA PUSH8 0xFFFFFFFFFFFFFFFF DUP2 GT ISZERO PUSH3 0xCF JUMPI PUSH3 0xCE PUSH3 0x764 JUMP JUMPDEST JUMPDEST PUSH1 0x40 MLOAD SWAP1 DUP1 DUP3 MSTORE DUP1 PUSH1 0x20 MUL PUSH1 0x20 ADD DUP3 ADD PUSH1 0x40 MSTORE DUP1 ISZERO PUSH3 0xFE JUMPI DUP2 PUSH1 0x20 ADD PUSH1 0x20 DUP3 MUL DUP1 CALLDATASIZE DUP4 CALLDATACOPY DUP1 DUP3 ADD SWAP2 POP POP SWAP1 POP JUMPDEST POP PUSH1 0x4 PUSH1 0x0 PUSH1 0x1 SLOAD DUP2 MSTORE PUSH1 0x20 ADD SWAP1 DUP2 MSTORE PUSH1 0x20 ADD PUSH1 0x0 KECCAK256 PUSH1 0x0 DUP4 DUP2 MSTORE PUSH1 0x20 ADD SWAP1 DUP2 MSTORE PUSH1 0x20 ADD PUSH1 0x0 KECCAK256 PUSH1 0x3D ADD SWAP1 DUP1 MLOAD SWAP1 PUSH1 0x20 ADD SWAP1 PUSH3 0x13D SWAP3 SWAP2 SWAP1 PUSH3 0x6F3 JUMP JUMPDEST POP PUSH1 0xA PUSH8 0xFFFFFFFFFFFFFFFF DUP2 GT ISZERO PUSH3 0x15C JUMPI PUSH3 0x15B PUSH3 0x764 JUMP JUMPDEST JUMPDEST PUSH1 0x40 MLOAD SWAP1 DUP1 DUP3 MSTORE DUP1 PUSH1 0x20 MUL PUSH1 0x20 ADD DUP3 ADD PUSH1 0x40 MSTORE DUP1 ISZERO PUSH3 0x18B JUMPI DUP2 PUSH1 0x20 ADD PUSH1 0x20 DUP3 MUL DUP1 CALLDATASIZE DUP4 CALLDATACOPY DUP1 DUP3 ADD SWAP2 POP POP SWAP1 POP JUMPDEST POP PUSH1 0x4 PUSH1 0x0 PUSH1 0x1 SLOAD DUP2 MSTORE PUSH1 0x20 ADD SWAP1 DUP2 MSTORE PUSH1 0x20 ADD PUSH1 0x0 KECCAK256 PUSH1 0x0 DUP4 DUP2 MSTORE PUSH1 0x20 ADD SWAP1 DUP2 MSTORE PUSH1 0x20 ADD PUSH1 0x0 KECCAK256 PUSH1 0x3E ADD SWAP1 DUP1 MLOAD SWAP1 PUSH1 0x20 ADD SWAP1 PUSH3 0x1CA SWAP3 SWAP2 SWAP1 PUSH3 0x6F3 JUMP JUMPDEST POP PUSH1 0xA PUSH8 0xFFFFFFFFFFFFFFFF DUP2 GT ISZERO PUSH3 0x1E9 JUMPI PUSH3 0x1E8 PUSH3 0x764 JUMP JUMPDEST JUMPDEST PUSH1 0x40 MLOAD SWAP1 DUP1 DUP3 MSTORE DUP1 PUSH1 0x20 MUL PUSH1 0x20 ADD DUP3 ADD PUSH1 0x40 MSTORE DUP1 ISZERO PUSH3 0x218 JUMPI DUP2 PUSH1 0x20 ADD PUSH1 0x20 DUP3 MUL DUP1 CALLDATASIZE DUP4 CALLDATACOPY DUP1 DUP3 ADD SWAP2 POP POP SWAP1 POP JUMPDEST POP PUSH1 0x4 PUSH1 0x0 PUSH1 0x1 SLOAD DUP2 MSTORE PUSH1 0x20 ADD SWAP1 DUP2 MSTORE PUSH1 0x20 ADD PUSH1 0x0 KECCAK256 PUSH1 0x0 DUP4 DUP2 MSTORE PUSH1 0x20 ADD SWAP1 DUP2 MSTORE PUSH1 0x20 ADD PUSH1 0x0 KECCAK256 PUSH1 0x3F ADD SWAP1 DUP1 MLOAD SWAP1 PUSH1 0x20 ADD SWAP1 PUSH3 0x257 SWAP3 SWAP2 SWAP1 PUSH3 0x6F3 JUMP JUMPDEST POP PUSH1 0x7 PUSH8 0xFFFFFFFFFFFFFFFF DUP2 GT ISZERO PUSH3 0x276 JUMPI PUSH3 0x275 PUSH3 0x764 JUMP JUMPDEST JUMPDEST PUSH1 0x40 MLOAD SWAP1 DUP1 DUP3 MSTORE DUP1 PUSH1 0x20 MUL PUSH1 0x20 ADD DUP3 ADD PUSH1 0x40 MSTORE DUP1 ISZERO PUSH3 0x2A5 JUMPI DUP2 PUSH1 0x20 ADD PUSH1 0x20 DUP3 MUL DUP1 CALLDATASIZE DUP4 CALLDATACOPY DUP1 DUP3 ADD SWAP2 POP POP SWAP1 POP JUMPDEST POP PUSH1 0x4 PUSH1 0x0 PUSH1 0x1 SLOAD DUP2 MSTORE PUSH1 0x20 ADD SWAP1 DUP2 MSTORE PUSH1 0x20 ADD PUSH1 0x0 KECCAK256 PUSH1 0x0 DUP4 DUP2 MSTORE PUSH1 0x20 ADD SWAP1 DUP2 MSTORE PUSH1 0x20 ADD PUSH1 0x0 KECCAK256 PUSH1 0x45 ADD SWAP1 DUP1 MLOAD SWAP1 PUSH1 0x20 ADD SWAP1 PUSH3 0x2E4 SWAP3 SWAP2 SWAP1 PUSH3 0x6F3 JUMP JUMPDEST POP PUSH1 0x7 PUSH8 0xFFFFFFFFFFFFFFFF DUP2 GT ISZERO PUSH3 0x303 JUMPI PUSH3 0x302 PUSH3 0x764 JUMP JUMPDEST JUMPDEST PUSH1 0x40 MLOAD SWAP1 DUP1 DUP3 MSTORE DUP1 PUSH1 0x20 MUL PUSH1 0x20 ADD DUP3 ADD PUSH1 0x40 MSTORE DUP1 ISZERO PUSH3 0x332 JUMPI DUP2 PUSH1 0x20 ADD PUSH1 0x20 DUP3 MUL DUP1 CALLDATASIZE DUP4 CALLDATACOPY DUP1 DUP3 ADD SWAP2 POP POP SWAP1 POP JUMPDEST POP PUSH1 0x4 PUSH1 0x0 PUSH1 0x1 SLOAD DUP2 MSTORE PUSH1 0x20 ADD SWAP1 DUP2 MSTORE PUSH1 0x20 ADD PUSH1 0x0 KECCAK256 PUSH1 0x0 DUP4 DUP2 MSTORE PUSH1 0x20 ADD SWAP1 DUP2 MSTORE PUSH1 0x20 ADD PUSH1 0x0 KECCAK256 PUSH1 0x46 ADD SWAP1 DUP1 MLOAD SWAP1 PUSH1 0x20 ADD SWAP1 PUSH3 0x371 SWAP3 SWAP2 SWAP1 PUSH3 0x6F3 JUMP JUMPDEST POP PUSH1 0x0 JUMPDEST PUSH1 0xA DUP2 LT ISZERO PUSH3 0x5AA JUMPI PUSH2 0x3E8 PUSH2 0x332D DUP4 PUSH1 0x5 DUP5 PUSH3 0x395 SWAP2 SWAP1 PUSH3 0x92D JUMP JUMPDEST PUSH3 0x3A1 SWAP2 SWAP1 PUSH3 0x97E JUMP JUMPDEST PUSH3 0x3AD SWAP2 SWAP1 PUSH3 0x9C9 JUMP JUMPDEST PUSH3 0x3B9 SWAP2 SWAP1 PUSH3 0xA33 JUMP JUMPDEST PUSH1 0x4 PUSH1 0x0 PUSH1 0x1 SLOAD DUP2 MSTORE PUSH1 0x20 ADD SWAP1 DUP2 MSTORE PUSH1 0x20 ADD PUSH1 0x0 KECCAK256 PUSH1 0x0 DUP5 DUP2 MSTORE PUSH1 0x20 ADD SWAP1 DUP2 MSTORE PUSH1 0x20 ADD PUSH1 0x0 KECCAK256 PUSH1 0x3C ADD DUP3 DUP2 SLOAD DUP2 LT PUSH3 0x3F7 JUMPI PUSH3 0x3F6 PUSH3 0xA6B JUMP JUMPDEST JUMPDEST SWAP1 PUSH1 0x0 MSTORE PUSH1 0x20 PUSH1 0x0 KECCAK256 ADD DUP2 SWAP1 SSTORE POP PUSH2 0x3E8 PUSH2 0xC27 DUP4 PUSH1 0x6F DUP5 PUSH3 0x41B SWAP2 SWAP1 PUSH3 0x97E JUMP JUMPDEST PUSH3 0x427 SWAP2 SWAP1 PUSH3 0x97E JUMP JUMPDEST PUSH3 0x433 SWAP2 SWAP1 PUSH3 0x9C9 JUMP JUMPDEST PUSH3 0x43F SWAP2 SWAP1 PUSH3 0xA33 JUMP JUMPDEST PUSH1 0x4 PUSH1 0x0 PUSH1 0x1 SLOAD DUP2 MSTORE PUSH1 0x20 ADD SWAP1 DUP2 MSTORE PUSH1 0x20 ADD PUSH1 0x0 KECCAK256 PUSH1 0x0 DUP5 DUP2 MSTORE PUSH1 0x20 ADD SWAP1 DUP2 MSTORE PUSH1 0x20 ADD PUSH1 0x0 KECCAK256 PUSH1 0x3D ADD DUP3 DUP2 SLOAD DUP2 LT PUSH3 0x47D JUMPI PUSH3 0x47C PUSH3 0xA6B JUMP JUMPDEST JUMPDEST SWAP1 PUSH1 0x0 MSTORE PUSH1 0x20 PUSH1 0x0 KECCAK256 ADD DUP2 SWAP1 SSTORE POP PUSH2 0x1F4 PUSH1 0x21 DUP4 PUSH1 0xDE DUP5 PUSH3 0x4A0 SWAP2 SWAP1 PUSH3 0x97E JUMP JUMPDEST PUSH3 0x4AC SWAP2 SWAP1 PUSH3 0x97E JUMP JUMPDEST PUSH3 0x4B8 SWAP2 SWAP1 PUSH3 0x9C9 JUMP JUMPDEST PUSH3 0x4C4 SWAP2 SWAP1 PUSH3 0xA33 JUMP JUMPDEST PUSH1 0x4 PUSH1 0x0 PUSH1 0x1 SLOAD DUP2 MSTORE PUSH1 0x20 ADD SWAP1 DUP2 MSTORE PUSH1 0x20 ADD PUSH1 0x0 KECCAK256 PUSH1 0x0 DUP5 DUP2 MSTORE PUSH1 0x20 ADD SWAP1 DUP2 MSTORE PUSH1 0x20 ADD PUSH1 0x0 KECCAK256 PUSH1 0x3E ADD DUP3 DUP2 SLOAD DUP2 LT PUSH3 0x502 JUMPI PUSH3 0x501 PUSH3 0xA6B JUMP JUMPDEST JUMPDEST SWAP1 PUSH1 0x0 MSTORE PUSH1 0x20 PUSH1 0x0 KECCAK256 ADD DUP2 SWAP1 SSTORE POP PUSH2 0x1F4 PUSH1 0x1F DUP4 PUSH2 0x515 DUP5 PUSH3 0x526 SWAP2 SWAP1 PUSH3 0x97E JUMP JUMPDEST PUSH3 0x532 SWAP2 SWAP1 PUSH3 0x97E JUMP JUMPDEST PUSH3 0x53E SWAP2 SWAP1 PUSH3 0x9C9 JUMP JUMPDEST PUSH3 0x54A SWAP2 SWAP1 PUSH3 0xA33 JUMP JUMPDEST PUSH1 0x4 PUSH1 0x0 PUSH1 0x1 SLOAD DUP2 MSTORE PUSH1 0x20 ADD SWAP1 DUP2 MSTORE PUSH1 0x20 ADD PUSH1 0x0 KECCAK256 PUSH1 0x0 DUP5 DUP2 MSTORE PUSH1 0x20 ADD SWAP1 DUP2 MSTORE PUSH1 0x20 ADD PUSH1 0x0 KECCAK256 PUSH1 0x3F ADD DUP3 DUP2 SLOAD DUP2 LT PUSH3 0x588 JUMPI PUSH3 0x587 PUSH3 0xA6B JUMP JUMPDEST JUMPDEST SWAP1 PUSH1 0x0 MSTORE PUSH1 0x20 PUSH1 0x0 KECCAK256 ADD DUP2 SWAP1 SSTORE POP DUP1 PUSH3 0x5A2 SWAP1 PUSH3 0xA9A JUMP JUMPDEST SWAP1 POP PUSH3 0x375 JUMP JUMPDEST POP PUSH1 0x1 PUSH1 0x4 PUSH1 0x0 PUSH1 0x1 SLOAD DUP2 MSTORE PUSH1 0x20 ADD SWAP1 DUP2 MSTORE PUSH1 0x20 ADD PUSH1 0x0 KECCAK256 PUSH1 0x0 DUP4 DUP2 MSTORE PUSH1 0x20 ADD SWAP1 DUP2 MSTORE PUSH1 0x20 ADD PUSH1 0x0 KECCAK256 PUSH1 0x44 ADD PUSH1 0x0 PUSH2 0x100 EXP DUP2 SLOAD DUP2 PUSH1 0xFF MUL NOT AND SWAP1 DUP4 ISZERO ISZERO MUL OR SWAP1 SSTORE POP PUSH1 0x1 PUSH1 0x4 PUSH1 0x0 PUSH1 0x1 SLOAD DUP2 MSTORE PUSH1 0x20 ADD SWAP1 DUP2 MSTORE PUSH1 0x20 ADD PUSH1 0x0 KECCAK256 PUSH1 0x0 DUP4 DUP2 MSTORE PUSH1 0x20 ADD SWAP1 DUP2 MSTORE PUSH1 0x20 ADD PUSH1 0x0 KECCAK256 PUSH1 0x42 ADD DUP2 SWAP1 SSTORE POP PUSH1 0xA DUP2 PUSH3 0x62B SWAP2 SWAP1 PUSH3 0xA33 JUMP JUMPDEST PUSH1 0x4 PUSH1 0x0 PUSH1 0x1 SLOAD DUP2 MSTORE PUSH1 0x20 ADD SWAP1 DUP2 MSTORE PUSH1 0x20 ADD PUSH1 0x0 KECCAK256 PUSH1 0x0 DUP4 DUP2 MSTORE PUSH1 0x20 ADD SWAP1 DUP2 MSTORE PUSH1 0x20 ADD PUSH1 0x0 KECCAK256 PUSH1 0x43 ADD DUP2 SWAP1 SSTORE POP PUSH1 0x8 DUP2 PUSH1 0x1 PUSH3 0x669 SWAP2 SWAP1 PUSH3 0x9C9 JUMP JUMPDEST PUSH3 0x675 SWAP2 SWAP1 PUSH3 0xA33 JUMP JUMPDEST PUSH1 0x4 PUSH1 0x0 PUSH1 0x1 SLOAD DUP2 MSTORE PUSH1 0x20 ADD SWAP1 DUP2 MSTORE PUSH1 0x20 ADD PUSH1 0x0 KECCAK256 PUSH1 0x0 DUP4 DUP2 MSTORE PUSH1 0x20 ADD SWAP1 DUP2 MSTORE PUSH1 0x20 ADD PUSH1 0x0 KECCAK256 PUSH1 0x47 ADD DUP2 SWAP1 SSTORE POP DUP1 PUSH3 0x6AE SWAP1 PUSH3 0xA9A JUMP JUMPDEST SWAP1 POP PUSH3 0x1B JUMP JUMPDEST POP DUP1 PUSH1 0x3 PUSH1 0x0 PUSH1 0x1 SLOAD DUP2 MSTORE PUSH1 0x20 ADD SWAP1 DUP2 MSTORE PUSH1 0x20 ADD PUSH1 0x0 KECCAK256 DUP2 SWAP1 SSTORE POP PUSH1 0x1 DUP1 PUSH1 0x0 DUP3 DUP3 SLOAD PUSH3 0x6E5 SWAP2 SWAP1 PUSH3 0x9C9 JUMP JUMPDEST SWAP3 POP POP DUP2 SWAP1 SSTORE POP POP PUSH3 0xAE7 JUMP JUMPDEST DUP3 DUP1 SLOAD DUP3 DUP3 SSTORE SWAP1 PUSH1 0x0 MSTORE PUSH1 0x20 PUSH1 0x0 KECCAK256 SWAP1 DUP2 ADD SWAP3 DUP3 ISZERO PUSH3 0x732 JUMPI SWAP2 PUSH1 0x20 MUL DUP3 ADD JUMPDEST DUP3 DUP2 GT ISZERO PUSH3 0x731 JUMPI DUP3 MLOAD DUP3 SSTORE SWAP2 PUSH1 0x20 ADD SWAP2 SWAP1 PUSH1 0x1 ADD SWAP1 PUSH3 0x714 JUMP JUMPDEST JUMPDEST POP SWAP1 POP PUSH3 0x741 SWAP2 SWAP1 PUSH3 0x745 JUMP JUMPDEST POP SWAP1 JUMP JUMPDEST JUMPDEST DUP1 DUP3 GT ISZERO PUSH3 0x760 JUMPI PUSH1 0x0 DUP2 PUSH1 0x0 SWAP1 SSTORE POP PUSH1 0x1 ADD PUSH3 0x746 JUMP JUMPDEST POP SWAP1 JUMP JUMPDEST PUSH32 0x4E487B7100000000000000000000000000000000000000000000000000000000 PUSH1 0x0 MSTORE PUSH1 0x41 PUSH1 0x4 MSTORE PUSH1 0x24 PUSH1 0x0 REVERT JUMPDEST PUSH32 0x4E487B7100000000000000000000000000000000000000000000000000000000 PUSH1 0x0 MSTORE PUSH1 0x11 PUSH1 0x4 MSTORE PUSH1 0x24 PUSH1 0x0 REVERT JUMPDEST PUSH1 0x0 DUP2 PUSH1 0x1 SHR SWAP1 POP SWAP2 SWAP1 POP JUMP JUMPDEST PUSH1 0x0 DUP1 DUP3 SWAP2 POP DUP4 SWAP1 POP JUMPDEST PUSH1 0x1 DUP6 GT ISZERO PUSH3 0x821 JUMPI DUP1 DUP7 DIV DUP2 GT ISZERO PUSH3 0x7F9 JUMPI PUSH3 0x7F8 PUSH3 0x793 JUMP JUMPDEST JUMPDEST PUSH1 0x1 DUP6 AND ISZERO PUSH3 0x809 JUMPI DUP1 DUP3 MUL SWAP2 POP JUMPDEST DUP1 DUP2 MUL SWAP1 POP PUSH3 0x819 DUP6 PUSH3 0x7C2 JUMP JUMPDEST SWAP5 POP PUSH3 0x7D9 JUMP JUMPDEST SWAP5 POP SWAP5 SWAP3 POP POP POP JUMP JUMPDEST PUSH1 0x0 DUP3 PUSH3 0x83C JUMPI PUSH1 0x1 SWAP1 POP PUSH3 0x90F JUMP JUMPDEST DUP2 PUSH3 0x84C JUMPI PUSH1 0x0 SWAP1 POP PUSH3 0x90F JUMP JUMPDEST DUP2 PUSH1 0x1 DUP2 EQ PUSH3 0x865 JUMPI PUSH1 0x2 DUP2 EQ PUSH3 0x870 JUMPI PUSH3 0x8A6 JUMP JUMPDEST PUSH1 0x1 SWAP2 POP POP PUSH3 0x90F JUMP JUMPDEST PUSH1 0xFF DUP5 GT ISZERO PUSH3 0x885 JUMPI PUSH3 0x884 PUSH3 0x793 JUMP JUMPDEST JUMPDEST DUP4 PUSH1 0x2 EXP SWAP2 POP DUP5 DUP3 GT ISZERO PUSH3 0x89F JUMPI PUSH3 0x89E PUSH3 0x793 JUMP JUMPDEST JUMPDEST POP PUSH3 0x90F JUMP JUMPDEST POP PUSH1 0x20 DUP4 LT PUSH2 0x133 DUP4 LT AND PUSH1 0x4E DUP5 LT PUSH1 0xB DUP5 LT AND OR ISZERO PUSH3 0x8E0 JUMPI DUP3 DUP3 EXP SWAP1 POP DUP4 DUP2 GT ISZERO PUSH3 0x8DA JUMPI PUSH3 0x8D9 PUSH3 0x793 JUMP JUMPDEST JUMPDEST PUSH3 0x90F JUMP JUMPDEST PUSH3 0x8EF DUP5 DUP5 DUP5 PUSH1 0x1 PUSH3 0x7CF JUMP JUMPDEST SWAP3 POP SWAP1 POP DUP2 DUP5 DIV DUP2 GT ISZERO PUSH3 0x909 JUMPI PUSH3 0x908 PUSH3 0x793 JUMP JUMPDEST JUMPDEST DUP2 DUP2 MUL SWAP1 POP JUMPDEST SWAP4 SWAP3 POP POP POP JUMP JUMPDEST PUSH1 0x0 DUP2 SWAP1 POP SWAP2 SWAP1 POP JUMP JUMPDEST PUSH1 0x0 PUSH1 0xFF DUP3 AND SWAP1 POP SWAP2 SWAP1 POP JUMP JUMPDEST PUSH1 0x0 PUSH3 0x93A DUP3 PUSH3 0x916 JUMP JUMPDEST SWAP2 POP PUSH3 0x947 DUP4 PUSH3 0x920 JUMP JUMPDEST SWAP3 POP PUSH3 0x976 PUSH32 0xFFFFFFFFFFFFFFFFFFFFFFFFFFFFFFFFFFFFFFFFFFFFFFFFFFFFFFFFFFFFFFFF DUP5 DUP5 PUSH3 0x82A JUMP JUMPDEST SWAP1 POP SWAP3 SWAP2 POP POP JUMP JUMPDEST PUSH1 0x0 PUSH3 0x98B DUP3 PUSH3 0x916 JUMP JUMPDEST SWAP2 POP PUSH3 0x998 DUP4 PUSH3 0x916 JUMP JUMPDEST SWAP3 POP DUP3 DUP3 MUL PUSH3 0x9A8 DUP2 PUSH3 0x916 JUMP JUMPDEST SWAP2 POP DUP3 DUP3 DIV DUP5 EQ DUP4 ISZERO OR PUSH3 0x9C2 JUMPI PUSH3 0x9C1 PUSH3 0x793 JUMP JUMPDEST JUMPDEST POP SWAP3 SWAP2 POP POP JUMP JUMPDEST PUSH1 0x0 PUSH3 0x9D6 DUP3 PUSH3 0x916 JUMP JUMPDEST SWAP2 POP PUSH3 0x9E3 DUP4 PUSH3 0x916 JUMP JUMPDEST SWAP3 POP DUP3 DUP3 ADD SWAP1 POP DUP1 DUP3 GT ISZERO PUSH3 0x9FE JUMPI PUSH3 0x9FD PUSH3 0x793 JUMP JUMPDEST JUMPDEST SWAP3 SWAP2 POP POP JUMP JUMPDEST PUSH32 0x4E487B7100000000000000000000000000000000000000000000000000000000 PUSH1 0x0 MSTORE PUSH1 0x12 PUSH1 0x4 MSTORE PUSH1 0x24 PUSH1 0x0 REVERT JUMPDEST PUSH1 0x0 PUSH3 0xA40 DUP3 PUSH3 0x916 JUMP JUMPDEST SWAP2 POP PUSH3 0xA4D DUP4 PUSH3 0x916 JUMP JUMPDEST SWAP3 POP DUP3 PUSH3 0xA60 JUMPI PUSH3 0xA5F PUSH3 0xA04 JUMP JUMPDEST JUMPDEST DUP3 DUP3 MOD SWAP1 POP SWAP3 SWAP2 POP POP JUMP JUMPDEST PUSH32 0x4E487B7100000000000000000000000000000000000000000000000000000000 PUSH1 0x0 MSTORE PUSH1 0x32 PUSH1 0x4 MSTORE PUSH1 0x24 PUSH1 0x0 REVERT JUMPDEST PUSH1 0x0 PUSH3 0xAA7 DUP3 PUSH3 0x916 JUMP JUMPDEST SWAP2 POP PUSH32 0xFFFFFFFFFFFFFFFFFFFFFFFFFFFFFFFFFFFFFFFFFFFFFFFFFFFFFFFFFFFFFFFF DUP3 SUB PUSH3 0xADC JUMPI PUSH3 0xADB PUSH3 0x793 JUMP JUMPDEST JUMPDEST PUSH1 0x1 DUP3 ADD SWAP1 POP SWAP2 SWAP1 POP JUMP JUMPDEST PUSH2 0x3346 DUP1 PUSH3 0xAF7 PUSH1 0x0 CODECOPY PUSH1 0x0 RETURN INVALID PUSH1 0x80 PUSH1 0x40 MSTORE CALLVALUE DUP1 ISZERO PUSH2 0x10 JUMPI PUSH1 0x0 DUP1 REVERT JUMPDEST POP PUSH1 0x4 CALLDATASIZE LT PUSH2 0x116 JUMPI PUSH1 0x0 CALLDATALOAD PUSH1 0xE0 SHR DUP1 PUSH4 0x502D4755 GT PUSH2 0xA2 JUMPI DUP1 PUSH4 0xA0CC641A GT PUSH2 0x71 JUMPI DUP1 PUSH4 0xA0CC641A EQ PUSH2 0x2B0 JUMPI DUP1 PUSH4 0xACB20101 EQ PUSH2 0x2BA JUMPI DUP1 PUSH4 0xEA302BDB EQ PUSH2 0x2D6 JUMPI DUP1 PUSH4 0xF1A18266 EQ PUSH2 0x30D JUMPI DUP1 PUSH4 0xF240F7C3 EQ PUSH2 0x317 JUMPI PUSH2 0x116 JUMP JUMPDEST DUP1 PUSH4 0x502D4755 EQ PUSH2 0x228 JUMPI DUP1 PUSH4 0x734692A9 EQ PUSH2 0x258 JUMPI DUP1 PUSH4 0x8BA47BDD EQ PUSH2 0x276 JUMPI DUP1 PUSH4 0x960C68D0 EQ PUSH2 0x294 JUMPI PUSH2 0x116 JUMP JUMPDEST DUP1 PUSH4 0x39FEBF0C GT PUSH2 0xE9 JUMPI DUP1 PUSH4 0x39FEBF0C EQ PUSH2 0x192 JUMPI DUP1 PUSH4 0x41BA6321 EQ PUSH2 0x1B0 JUMPI DUP1 PUSH4 0x4768D4EF EQ PUSH2 0x1CC JUMPI DUP1 PUSH4 0x49BBC37A EQ PUSH2 0x200 JUMPI DUP1 PUSH4 0x4B46DB95 EQ PUSH2 0x21E JUMPI PUSH2 0x116 JUMP JUMPDEST DUP1 PUSH4 0x1FD1951 EQ PUSH2 0x11B JUMPI DUP1 PUSH4 0x2C0CDC4 EQ PUSH2 0x139 JUMPI DUP1 PUSH4 0x124A96C8 EQ PUSH2 0x143 JUMPI DUP1 PUSH4 0x2DB146CF EQ PUSH2 0x161 JUMPI JUMPDEST PUSH1 0x0 DUP1 REVERT JUMPDEST PUSH2 0x123 PUSH2 0x321 JUMP JUMPDEST PUSH1 0x40 MLOAD PUSH2 0x130 SWAP2 SWAP1 PUSH2 0x2109 JUMP JUMPDEST PUSH1 0x40 MLOAD DUP1 SWAP2 SUB SWAP1 RETURN JUMPDEST PUSH2 0x141 PUSH2 0x327 JUMP JUMPDEST STOP JUMPDEST PUSH2 0x14B PUSH2 0x329 JUMP JUMPDEST PUSH1 0x40 MLOAD PUSH2 0x158 SWAP2 SWAP1 PUSH2 0x2109 JUMP JUMPDEST PUSH1 0x40 MLOAD DUP1 SWAP2 SUB SWAP1 RETURN JUMPDEST PUSH2 0x17B PUSH1 0x4 DUP1 CALLDATASIZE SUB DUP2 ADD SWAP1 PUSH2 0x176 SWAP2 SWAP1 PUSH2 0x2164 JUMP JUMPDEST PUSH2 0x32F JUMP JUMPDEST PUSH1 0x40 MLOAD PUSH2 0x189 SWAP3 SWAP2 SWAP1 PUSH2 0x2715 JUMP JUMPDEST PUSH1 0x40 MLOAD DUP1 SWAP2 SUB SWAP1 RETURN JUMPDEST PUSH2 0x19A PUSH2 0x188F JUMP JUMPDEST PUSH1 0x40 MLOAD PUSH2 0x1A7 SWAP2 SWAP1 PUSH2 0x2109 JUMP JUMPDEST PUSH1 0x40 MLOAD DUP1 SWAP2 SUB SWAP1 RETURN JUMPDEST PUSH2 0x1CA PUSH1 0x4 DUP1 CALLDATASIZE SUB DUP2 ADD SWAP1 PUSH2 0x1C5 SWAP2 SWAP1 PUSH2 0x2892 JUMP JUMPDEST PUSH2 0x1894 JUMP JUMPDEST STOP JUMPDEST PUSH2 0x1E6 PUSH1 0x4 DUP1 CALLDATASIZE SUB DUP2 ADD SWAP1 PUSH2 0x1E1 SWAP2 SWAP1 PUSH2 0x28EE JUMP JUMPDEST PUSH2 0x1898 JUMP JUMPDEST PUSH1 0x40 MLOAD PUSH2 0x1F7 SWAP6 SWAP5 SWAP4 SWAP3 SWAP2 SWAP1 PUSH2 0x295C JUMP JUMPDEST PUSH1 0x40 MLOAD DUP1 SWAP2 SUB SWAP1 RETURN JUMPDEST PUSH2 0x208 PUSH2 0x194E JUMP JUMPDEST PUSH1 0x40 MLOAD PUSH2 0x215 SWAP2 SWAP1 PUSH2 0x2109 JUMP JUMPDEST PUSH1 0x40 MLOAD DUP1 SWAP2 SUB SWAP1 RETURN JUMPDEST PUSH2 0x226 PUSH2 0x1954 JUMP JUMPDEST STOP JUMPDEST PUSH2 0x242 PUSH1 0x4 DUP1 CALLDATASIZE SUB DUP2 ADD SWAP1 PUSH2 0x23D SWAP2 SWAP1 PUSH2 0x28EE JUMP JUMPDEST PUSH2 0x1956 JUMP JUMPDEST PUSH1 0x40 MLOAD PUSH2 0x24F SWAP2 SWAP1 PUSH2 0x2109 JUMP JUMPDEST PUSH1 0x40 MLOAD DUP1 SWAP2 SUB SWAP1 RETURN JUMPDEST PUSH2 0x260 PUSH2 0x196E JUMP JUMPDEST PUSH1 0x40 MLOAD PUSH2 0x26D SWAP2 SWAP1 PUSH2 0x2109 JUMP JUMPDEST PUSH1 0x40 MLOAD DUP1 SWAP2 SUB SWAP1 RETURN JUMPDEST PUSH2 0x27E PUSH2 0x1973 JUMP JUMPDEST PUSH1 0x40 MLOAD PUSH2 0x28B SWAP2 SWAP1 PUSH2 0x29AF JUMP JUMPDEST PUSH1 0x40 MLOAD DUP1 SWAP2 SUB SWAP1 RETURN JUMPDEST PUSH2 0x2AE PUSH1 0x4 DUP1 CALLDATASIZE SUB DUP2 ADD SWAP1 PUSH2 0x2A9 SWAP2 SWAP1 PUSH2 0x2892 JUMP JUMPDEST PUSH2 0x1997 JUMP JUMPDEST STOP JUMPDEST PUSH2 0x2B8 PUSH2 0x199B JUMP JUMPDEST STOP JUMPDEST PUSH2 0x2D4 PUSH1 0x4 DUP1 CALLDATASIZE SUB DUP2 ADD SWAP1 PUSH2 0x2CF SWAP2 SWAP1 PUSH2 0x2E06 JUMP JUMPDEST PUSH2 0x199D JUMP JUMPDEST STOP JUMPDEST PUSH2 0x2F0 PUSH1 0x4 DUP1 CALLDATASIZE SUB DUP2 ADD SWAP1 PUSH2 0x2EB SWAP2 SWAP1 PUSH2 0x2164 JUMP JUMPDEST PUSH2 0x19A1 JUMP JUMPDEST PUSH1 0x40 MLOAD PUSH2 0x304 SWAP9 SWAP8 SWAP7 SWAP6 SWAP5 SWAP4 SWAP3 SWAP2 SWAP1 PUSH2 0x2E71 JUMP JUMPDEST PUSH1 0x40 MLOAD DUP1 SWAP2 SUB SWAP1 RETURN JUMPDEST PUSH2 0x315 PUSH2 0x1A1D JUMP JUMPDEST STOP JUMPDEST PUSH2 0x31F PUSH2 0x1A1F JUMP JUMPDEST STOP JUMPDEST PUSH1 0x1 SLOAD DUP2 JUMP JUMPDEST JUMP JUMPDEST PUSH2 0x1F4 DUP2 JUMP JUMPDEST PUSH2 0x337 PUSH2 0x1FE5 JUMP JUMPDEST PUSH2 0x33F PUSH2 0x2074 JUMP JUMPDEST PUSH1 0x4 PUSH1 0x0 DUP6 DUP2 MSTORE PUSH1 0x20 ADD SWAP1 DUP2 MSTORE PUSH1 0x20 ADD PUSH1 0x0 KECCAK256 PUSH1 0x0 DUP5 DUP2 MSTORE PUSH1 0x20 ADD SWAP1 DUP2 MSTORE PUSH1 0x20 ADD PUSH1 0x0 KECCAK256 PUSH1 0x40 MLOAD DUP1 PUSH2 0x200 ADD PUSH1 0x40 MSTORE SWAP1 DUP2 PUSH1 0x0 DUP3 ADD PUSH1 0xA DUP1 PUSH1 0x20 MUL PUSH1 0x40 MLOAD SWAP1 DUP2 ADD PUSH1 0x40 MSTORE DUP1 SWAP3 SWAP2 SWAP1 PUSH1 0x0 SWAP1 JUMPDEST DUP3 DUP3 LT ISZERO PUSH2 0x3D1 JUMPI DUP4 DUP3 PUSH1 0x3 MUL ADD PUSH1 0x40 MLOAD DUP1 PUSH1 0x60 ADD PUSH1 0x40 MSTORE SWAP1 DUP2 PUSH1 0x0 DUP3 ADD SLOAD DUP2 MSTORE PUSH1 0x20 ADD PUSH1 0x1 DUP3 ADD SLOAD DUP2 MSTORE PUSH1 0x20 ADD PUSH1 0x2 DUP3 ADD SLOAD DUP2 MSTORE POP POP DUP2 MSTORE PUSH1 0x20 ADD SWAP1 PUSH1 0x1 ADD SWAP1 PUSH2 0x38B JUMP JUMPDEST POP POP POP POP DUP2 MSTORE PUSH1 0x20 ADD PUSH1 0x1E DUP3 ADD PUSH1 0xA DUP1 PUSH1 0x20 MUL PUSH1 0x40 MLOAD SWAP1 DUP2 ADD PUSH1 0x40 MSTORE DUP1 SWAP3 SWAP2 SWAP1 PUSH1 0x0 SWAP1 JUMPDEST DUP3 DUP3 LT ISZERO PUSH2 0x43B JUMPI DUP4 DUP3 PUSH1 0x3 MUL ADD PUSH1 0x40 MLOAD DUP1 PUSH1 0x60 ADD PUSH1 0x40 MSTORE SWAP1 DUP2 PUSH1 0x0 DUP3 ADD SLOAD DUP2 MSTORE PUSH1 0x20 ADD PUSH1 0x1 DUP3 ADD SLOAD DUP2 MSTORE PUSH1 0x20 ADD PUSH1 0x2 DUP3 ADD SLOAD DUP2 MSTORE POP POP DUP2 MSTORE PUSH1 0x20 ADD SWAP1 PUSH1 0x1 ADD SWAP1 PUSH2 0x3F5 JUMP JUMPDEST POP POP POP POP DUP2 MSTORE PUSH1 0x20 ADD PUSH1 0x3C DUP3 ADD DUP1 SLOAD DUP1 PUSH1 0x20 MUL PUSH1 0x20 ADD PUSH1 0x40 MLOAD SWAP1 DUP2 ADD PUSH1 0x40 MSTORE DUP1 SWAP3 SWAP2 SWAP1 DUP2 DUP2 MSTORE PUSH1 0x20 ADD DUP3 DUP1 SLOAD DUP1 ISZERO PUSH2 0x492 JUMPI PUSH1 0x20 MUL DUP3 ADD SWAP2 SWAP1 PUSH1 0x0 MSTORE PUSH1 0x20 PUSH1 0x0 KECCAK256 SWAP1 JUMPDEST DUP2 SLOAD DUP2 MSTORE PUSH1 0x20 ADD SWAP1 PUSH1 0x1 ADD SWAP1 DUP1 DUP4 GT PUSH2 0x47E JUMPI JUMPDEST POP POP POP POP POP DUP2 MSTORE PUSH1 0x20 ADD PUSH1 0x3D DUP3 ADD DUP1 SLOAD DUP1 PUSH1 0x20 MUL PUSH1 0x20 ADD PUSH1 0x40 MLOAD SWAP1 DUP2 ADD PUSH1 0x40 MSTORE DUP1 SWAP3 SWAP2 SWAP1 DUP2 DUP2 MSTORE PUSH1 0x20 ADD DUP3 DUP1 SLOAD DUP1 ISZERO PUSH2 0x4EA JUMPI PUSH1 0x20 MUL DUP3 ADD SWAP2 SWAP1 PUSH1 0x0 MSTORE PUSH1 0x20 PUSH1 0x0 KECCAK256 SWAP1 JUMPDEST DUP2 SLOAD DUP2 MSTORE PUSH1 0x20 ADD SWAP1 PUSH1 0x1 ADD SWAP1 DUP1 DUP4 GT PUSH2 0x4D6 JUMPI JUMPDEST POP POP POP POP POP DUP2 MSTORE PUSH1 0x20 ADD PUSH1 0x3E DUP3 ADD DUP1 SLOAD DUP1 PUSH1 0x20 MUL PUSH1 0x20 ADD PUSH1 0x40 MLOAD SWAP1 DUP2 ADD PUSH1 0x40 MSTORE DUP1 SWAP3 SWAP2 SWAP1 DUP2 DUP2 MSTORE PUSH1 0x20 ADD DUP3 DUP1 SLOAD DUP1 ISZERO PUSH2 0x542 JUMPI PUSH1 0x20 MUL DUP3 ADD SWAP2 SWAP1 PUSH1 0x0 MSTORE PUSH1 0x20 PUSH1 0x0 KECCAK256 SWAP1 JUMPDEST DUP2 SLOAD DUP2 MSTORE PUSH1 0x20 ADD SWAP1 PUSH1 0x1 ADD SWAP1 DUP1 DUP4 GT PUSH2 0x52E JUMPI JUMPDEST POP POP POP POP POP DUP2 MSTORE PUSH1 0x20 ADD PUSH1 0x3F DUP3 ADD DUP1 SLOAD DUP1 PUSH1 0x20 MUL PUSH1 0x20 ADD PUSH1 0x40 MLOAD SWAP1 DUP2 ADD PUSH1 0x40 MSTORE DUP1 SWAP3 SWAP2 SWAP1 DUP2 DUP2 MSTORE PUSH1 0x20 ADD DUP3 DUP1 SLOAD DUP1 ISZERO PUSH2 0x59A JUMPI PUSH1 0x20 MUL DUP3 ADD SWAP2 SWAP1 PUSH1 0x0 MSTORE PUSH1 0x20 PUSH1 0x0 KECCAK256 SWAP1 JUMPDEST DUP2 SLOAD DUP2 MSTORE PUSH1 0x20 ADD SWAP1 PUSH1 0x1 ADD SWAP1 DUP1 DUP4 GT PUSH2 0x586 JUMPI JUMPDEST POP POP POP POP POP DUP2 MSTORE PUSH1 0x20 ADD PUSH1 0x40 DUP3 ADD SLOAD DUP2 MSTORE PUSH1 0x20 ADD PUSH1 0x41 DUP3 ADD SLOAD DUP2 MSTORE PUSH1 0x20 ADD PUSH1 0x42 DUP3 ADD SLOAD DUP2 MSTORE PUSH1 0x20 ADD PUSH1 0x43 DUP3 ADD SLOAD DUP2 MSTORE PUSH1 0x20 ADD PUSH1 0x44 DUP3 ADD PUSH1 0x0 SWAP1 SLOAD SWAP1 PUSH2 0x100 EXP SWAP1 DIV PUSH1 0xFF AND ISZERO ISZERO ISZERO ISZERO DUP2 MSTORE PUSH1 0x20 ADD PUSH1 0x45 DUP3 ADD DUP1 SLOAD DUP1 PUSH1 0x20 MUL PUSH1 0x20 ADD PUSH1 0x40 MLOAD SWAP1 DUP2 ADD PUSH1 0x40 MSTORE DUP1 SWAP3 SWAP2 SWAP1 DUP2 DUP2 MSTORE PUSH1 0x20 ADD DUP3 DUP1 SLOAD DUP1 ISZERO PUSH2 0x635 JUMPI PUSH1 0x20 MUL DUP3 ADD SWAP2 SWAP1 PUSH1 0x0 MSTORE PUSH1 0x20 PUSH1 0x0 KECCAK256 SWAP1 JUMPDEST DUP2 SLOAD DUP2 MSTORE PUSH1 0x20 ADD SWAP1 PUSH1 0x1 ADD SWAP1 DUP1 DUP4 GT PUSH2 0x621 JUMPI JUMPDEST POP POP POP POP POP DUP2 MSTORE PUSH1 0x20 ADD PUSH1 0x46 DUP3 ADD DUP1 SLOAD DUP1 PUSH1 0x20 MUL PUSH1 0x20 ADD PUSH1 0x40 MLOAD SWAP1 DUP2 ADD PUSH1 0x40 MSTORE DUP1 SWAP3 SWAP2 SWAP1 DUP2 DUP2 MSTORE PUSH1 0x20 ADD DUP3 DUP1 SLOAD DUP1 ISZERO PUSH2 0x68D JUMPI PUSH1 0x20 MUL DUP3 ADD SWAP2 SWAP1 PUSH1 0x0 MSTORE PUSH1 0x20 PUSH1 0x0 KECCAK256 SWAP1 JUMPDEST DUP2 SLOAD DUP2 MSTORE PUSH1 0x20 ADD SWAP1 PUSH1 0x1 ADD SWAP1 DUP1 DUP4 GT PUSH2 0x679 JUMPI JUMPDEST POP POP POP POP POP DUP2 MSTORE PUSH1 0x20 ADD PUSH1 0x47 DUP3 ADD SLOAD DUP2 MSTORE PUSH1 0x20 ADD PUSH1 0x48 DUP3 ADD PUSH1 0x0 SWAP1 SLOAD SWAP1 PUSH2 0x100 EXP SWAP1 DIV PUSH1 0xFF AND ISZERO ISZERO ISZERO ISZERO DUP2 MSTORE PUSH1 0x20 ADD PUSH1 0x48 DUP3 ADD PUSH1 0x1 SWAP1 SLOAD SWAP1 PUSH2 0x100 EXP SWAP1 DIV PUSH1 0xFF AND ISZERO ISZERO ISZERO ISZERO DUP2 MSTORE POP POP SWAP2 POP PUSH2 0x71C PUSH1 0x40 MLOAD DUP1 PUSH1 0x40 ADD PUSH1 0x40 MSTORE DUP1 PUSH1 0x14 DUP2 MSTORE PUSH1 0x20 ADD PUSH32 0x506C617965722077697468207468652062616C6C000000000000000000000000 DUP2 MSTORE POP DUP4 PUSH2 0x120 ADD MLOAD PUSH2 0x1A21 JUMP JUMPDEST PUSH1 0xA PUSH8 0xFFFFFFFFFFFFFFFF DUP2 GT ISZERO PUSH2 0x737 JUMPI PUSH2 0x736 PUSH2 0x2767 JUMP JUMPDEST JUMPDEST PUSH1 0x40 MLOAD SWAP1 DUP1 DUP3 MSTORE DUP1 PUSH1 0x20 MUL PUSH1 0x20 ADD DUP3 ADD PUSH1 0x40 MSTORE DUP1 ISZERO PUSH2 0x765 JUMPI DUP2 PUSH1 0x20 ADD PUSH1 0x20 DUP3 MUL DUP1 CALLDATASIZE DUP4 CALLDATACOPY DUP1 DUP3 ADD SWAP2 POP POP SWAP1 POP JUMPDEST POP DUP3 PUSH1 0x40 ADD DUP2 SWAP1 MSTORE POP PUSH1 0xA PUSH8 0xFFFFFFFFFFFFFFFF DUP2 GT ISZERO PUSH2 0x789 JUMPI PUSH2 0x788 PUSH2 0x2767 JUMP JUMPDEST JUMPDEST PUSH1 0x40 MLOAD SWAP1 DUP1 DUP3 MSTORE DUP1 PUSH1 0x20 MUL PUSH1 0x20 ADD DUP3 ADD PUSH1 0x40 MSTORE DUP1 ISZERO PUSH2 0x7B7 JUMPI DUP2 PUSH1 0x20 ADD PUSH1 0x20 DUP3 MUL DUP1 CALLDATASIZE DUP4 CALLDATACOPY DUP1 DUP3 ADD SWAP2 POP POP SWAP1 POP JUMPDEST POP DUP3 PUSH1 0x40 ADD DUP2 SWAP1 MSTORE POP PUSH1 0xA PUSH8 0xFFFFFFFFFFFFFFFF DUP2 GT ISZERO PUSH2 0x7DB JUMPI PUSH2 0x7DA PUSH2 0x2767 JUMP JUMPDEST JUMPDEST PUSH1 0x40 MLOAD SWAP1 DUP1 DUP3 MSTORE DUP1 PUSH1 0x20 MUL PUSH1 0x20 ADD DUP3 ADD PUSH1 0x40 MSTORE DUP1 ISZERO PUSH2 0x809 JUMPI DUP2 PUSH1 0x20 ADD PUSH1 0x20 DUP3 MUL DUP1 CALLDATASIZE DUP4 CALLDATACOPY DUP1 DUP3 ADD SWAP2 POP POP SWAP1 POP JUMPDEST POP DUP3 PUSH1 0x60 ADD DUP2 SWAP1 MSTORE POP PUSH1 0xA PUSH8 0xFFFFFFFFFFFFFFFF DUP2 GT ISZERO PUSH2 0x82D JUMPI PUSH2 0x82C PUSH2 0x2767 JUMP JUMPDEST JUMPDEST PUSH1 0x40 MLOAD SWAP1 DUP1 DUP3 MSTORE DUP1 PUSH1 0x20 MUL PUSH1 0x20 ADD DUP3 ADD PUSH1 0x40 MSTORE DUP1 ISZERO PUSH2 0x85B JUMPI DUP2 PUSH1 0x20 ADD PUSH1 0x20 DUP3 MUL DUP1 CALLDATASIZE DUP4 CALLDATACOPY DUP1 DUP3 ADD SWAP2 POP POP SWAP1 POP JUMPDEST POP DUP3 PUSH1 0x80 ADD DUP2 SWAP1 MSTORE POP PUSH1 0xA PUSH8 0xFFFFFFFFFFFFFFFF DUP2 GT ISZERO PUSH2 0x87F JUMPI PUSH2 0x87E PUSH2 0x2767 JUMP JUMPDEST JUMPDEST PUSH1 0x40 MLOAD SWAP1 DUP1 DUP3 MSTORE DUP1 PUSH1 0x20 MUL PUSH1 0x20 ADD DUP3 ADD PUSH1 0x40 MSTORE DUP1 ISZERO PUSH2 0x8AD JUMPI DUP2 PUSH1 0x20 ADD PUSH1 0x20 DUP3 MUL DUP1 CALLDATASIZE DUP4 CALLDATACOPY DUP1 DUP3 ADD SWAP2 POP POP SWAP1 POP JUMPDEST POP DUP3 PUSH1 0xA0 ADD DUP2 SWAP1 MSTORE POP PUSH1 0x7 PUSH8 0xFFFFFFFFFFFFFFFF DUP2 GT ISZERO PUSH2 0x8D1 JUMPI PUSH2 0x8D0 PUSH2 0x2767 JUMP JUMPDEST JUMPDEST PUSH1 0x40 MLOAD SWAP1 DUP1 DUP3 MSTORE DUP1 PUSH1 0x20 MUL PUSH1 0x20 ADD DUP3 ADD PUSH1 0x40 MSTORE DUP1 ISZERO PUSH2 0x8FF JUMPI DUP2 PUSH1 0x20 ADD PUSH1 0x20 DUP3 MUL DUP1 CALLDATASIZE DUP4 CALLDATACOPY DUP1 DUP3 ADD SWAP2 POP POP SWAP1 POP JUMPDEST POP DUP3 PUSH2 0x160 ADD DUP2 SWAP1 MSTORE POP PUSH1 0x7 PUSH8 0xFFFFFFFFFFFFFFFF DUP2 GT ISZERO PUSH2 0x924 JUMPI PUSH2 0x923 PUSH2 0x2767 JUMP JUMPDEST JUMPDEST PUSH1 0x40 MLOAD SWAP1 DUP1 DUP3 MSTORE DUP1 PUSH1 0x20 MUL PUSH1 0x20 ADD DUP3 ADD PUSH1 0x40 MSTORE DUP1 ISZERO PUSH2 0x952 JUMPI DUP2 PUSH1 0x20 ADD PUSH1 0x20 DUP3 MUL DUP1 CALLDATASIZE DUP4 CALLDATACOPY DUP1 DUP3 ADD SWAP2 POP POP SWAP1 POP JUMPDEST POP DUP3 PUSH2 0x180 ADD DUP2 SWAP1 MSTORE POP PUSH1 0x0 JUMPDEST PUSH1 0xA DUP2 LT ISZERO PUSH2 0x9E0 JUMPI PUSH1 0x4 PUSH1 0x0 DUP7 DUP2 MSTORE PUSH1 0x20 ADD SWAP1 DUP2 MSTORE PUSH1 0x20 ADD PUSH1 0x0 KECCAK256 PUSH1 0x0 DUP6 DUP2 MSTORE PUSH1 0x20 ADD SWAP1 DUP2 MSTORE PUSH1 0x20 ADD PUSH1 0x0 KECCAK256 PUSH1 0x3C ADD DUP2 DUP2 SLOAD DUP2 LT PUSH2 0x9A1 JUMPI PUSH2 0x9A0 PUSH2 0x2EEF JUMP JUMPDEST JUMPDEST SWAP1 PUSH1 0x0 MSTORE PUSH1 0x20 PUSH1 0x0 KECCAK256 ADD SLOAD DUP4 PUSH1 0x40 ADD MLOAD DUP3 DUP2 MLOAD DUP2 LT PUSH2 0x9C3 JUMPI PUSH2 0x9C2 PUSH2 0x2EEF JUMP JUMPDEST JUMPDEST PUSH1 0x20 MUL PUSH1 0x20 ADD ADD DUP2 DUP2 MSTORE POP POP DUP1 PUSH2 0x9D9 SWAP1 PUSH2 0x2F4D JUMP JUMPDEST SWAP1 POP PUSH2 0x95F JUMP JUMPDEST POP PUSH1 0x0 PUSH1 0x4 PUSH1 0x0 DUP7 DUP2 MSTORE PUSH1 0x20 ADD SWAP1 DUP2 MSTORE PUSH1 0x20 ADD PUSH1 0x0 KECCAK256 PUSH1 0x0 PUSH1 0x1 DUP7 PUSH2 0xA05 SWAP2 SWAP1 PUSH2 0x2F95 JUMP JUMPDEST DUP2 MSTORE PUSH1 0x20 ADD SWAP1 DUP2 MSTORE PUSH1 0x20 ADD PUSH1 0x0 KECCAK256 SWAP1 POP PUSH1 0x0 PUSH1 0x5 SWAP1 POP JUMPDEST PUSH1 0x0 DUP2 GT ISZERO PUSH2 0x125D JUMPI PUSH1 0x0 JUMPDEST PUSH1 0xA DUP2 LT ISZERO PUSH2 0xAEE JUMPI PUSH1 0x0 DUP4 PUSH1 0x3C ADD DUP3 DUP2 SLOAD DUP2 LT PUSH2 0xA49 JUMPI PUSH2 0xA48 PUSH2 0x2EEF JUMP JUMPDEST JUMPDEST SWAP1 PUSH1 0x0 MSTORE PUSH1 0x20 PUSH1 0x0 KECCAK256 ADD SLOAD SWAP1 POP PUSH1 0x0 DUP5 PUSH1 0x3E ADD DUP4 DUP2 SLOAD DUP2 LT PUSH2 0xA6E JUMPI PUSH2 0xA6D PUSH2 0x2EEF JUMP JUMPDEST JUMPDEST SWAP1 PUSH1 0x0 MSTORE PUSH1 0x20 PUSH1 0x0 KECCAK256 ADD SLOAD SWAP1 POP PUSH1 0x0 DUP1 PUSH2 0xA8D DUP10 PUSH1 0x1 DUP8 DUP8 DUP8 DUP12 PUSH2 0x1ABD JUMP JUMPDEST SWAP2 POP SWAP2 POP DUP2 DUP10 PUSH1 0x40 ADD MLOAD DUP7 DUP2 MLOAD DUP2 LT PUSH2 0xAA9 JUMPI PUSH2 0xAA8 PUSH2 0x2EEF JUMP JUMPDEST JUMPDEST PUSH1 0x20 MUL PUSH1 0x20 ADD ADD DUP2 DUP2 MSTORE POP POP DUP1 DUP10 PUSH1 0x80 ADD MLOAD DUP7 DUP2 MLOAD DUP2 LT PUSH2 0xACD JUMPI PUSH2 0xACC PUSH2 0x2EEF JUMP JUMPDEST JUMPDEST PUSH1 0x20 MUL PUSH1 0x20 ADD ADD DUP2 DUP2 MSTORE POP POP POP POP POP POP DUP1 PUSH2 0xAE7 SWAP1 PUSH2 0x2F4D JUMP JUMPDEST SWAP1 POP PUSH2 0xA28 JUMP JUMPDEST POP PUSH1 0x0 JUMPDEST PUSH1 0xA DUP2 LT ISZERO PUSH2 0xBB8 JUMPI PUSH1 0x0 DUP4 PUSH1 0x3D ADD DUP3 DUP2 SLOAD DUP2 LT PUSH2 0xB13 JUMPI PUSH2 0xB12 PUSH2 0x2EEF JUMP JUMPDEST JUMPDEST SWAP1 PUSH1 0x0 MSTORE PUSH1 0x20 PUSH1 0x0 KECCAK256 ADD SLOAD SWAP1 POP PUSH1 0x0 DUP5 PUSH1 0x3F ADD DUP4 DUP2 SLOAD DUP2 LT PUSH2 0xB38 JUMPI PUSH2 0xB37 PUSH2 0x2EEF JUMP JUMPDEST JUMPDEST SWAP1 PUSH1 0x0 MSTORE PUSH1 0x20 PUSH1 0x0 KECCAK256 ADD SLOAD SWAP1 POP PUSH1 0x0 DUP1 PUSH2 0xB57 DUP10 PUSH1 0x2 DUP8 DUP8 DUP8 DUP12 PUSH2 0x1ABD JUMP JUMPDEST SWAP2 POP SWAP2 POP DUP2 DUP10 PUSH1 0x60 ADD MLOAD DUP7 DUP2 MLOAD DUP2 LT PUSH2 0xB73 JUMPI PUSH2 0xB72 PUSH2 0x2EEF JUMP JUMPDEST JUMPDEST PUSH1 0x20 MUL PUSH1 0x20 ADD ADD DUP2 DUP2 MSTORE POP POP DUP1 DUP10 PUSH1 0xA0 ADD MLOAD DUP7 DUP2 MLOAD DUP2 LT PUSH2 0xB97 JUMPI PUSH2 0xB96 PUSH2 0x2EEF JUMP JUMPDEST JUMPDEST PUSH1 0x20 MUL PUSH1 0x20 ADD ADD DUP2 DUP2 MSTORE POP POP POP POP POP POP DUP1 PUSH2 0xBB1 SWAP1 PUSH2 0x2F4D JUMP JUMPDEST SWAP1 POP PUSH2 0xAF2 JUMP JUMPDEST POP PUSH1 0xA PUSH8 0xFFFFFFFFFFFFFFFF DUP2 GT ISZERO PUSH2 0xBD4 JUMPI PUSH2 0xBD3 PUSH2 0x2767 JUMP JUMPDEST JUMPDEST PUSH1 0x40 MLOAD SWAP1 DUP1 DUP3 MSTORE DUP1 PUSH1 0x20 MUL PUSH1 0x20 ADD DUP3 ADD PUSH1 0x40 MSTORE DUP1 ISZERO PUSH2 0xC02 JUMPI DUP2 PUSH1 0x20 ADD PUSH1 0x20 DUP3 MUL DUP1 CALLDATASIZE DUP4 CALLDATACOPY DUP1 DUP3 ADD SWAP2 POP POP SWAP1 POP JUMPDEST POP DUP4 DUP3 PUSH1 0x5 PUSH2 0xC11 SWAP2 SWAP1 PUSH2 0x2FC9 JUMP JUMPDEST PUSH1 0x5 DUP2 LT PUSH2 0xC22 JUMPI PUSH2 0xC21 PUSH2 0x2EEF JUMP JUMPDEST JUMPDEST PUSH1 0x20 MUL ADD MLOAD PUSH1 0x40 ADD DUP2 SWAP1 MSTORE POP PUSH1 0xA PUSH8 0xFFFFFFFFFFFFFFFF DUP2 GT ISZERO PUSH2 0xC49 JUMPI PUSH2 0xC48 PUSH2 0x2767 JUMP JUMPDEST JUMPDEST PUSH1 0x40 MLOAD SWAP1 DUP1 DUP3 MSTORE DUP1 PUSH1 0x20 MUL PUSH1 0x20 ADD DUP3 ADD PUSH1 0x40 MSTORE DUP1 ISZERO PUSH2 0xC77 JUMPI DUP2 PUSH1 0x20 ADD PUSH1 0x20 DUP3 MUL DUP1 CALLDATASIZE DUP4 CALLDATACOPY DUP1 DUP3 ADD SWAP2 POP POP SWAP1 POP JUMPDEST POP DUP4 DUP3 PUSH1 0x5 PUSH2 0xC86 SWAP2 SWAP1 PUSH2 0x2FC9 JUMP JUMPDEST PUSH1 0x5 DUP2 LT PUSH2 0xC97 JUMPI PUSH2 0xC96 PUSH2 0x2EEF JUMP JUMPDEST JUMPDEST PUSH1 0x20 MUL ADD MLOAD PUSH1 0x40 ADD DUP2 SWAP1 MSTORE POP PUSH1 0xA PUSH8 0xFFFFFFFFFFFFFFFF DUP2 GT ISZERO PUSH2 0xCBE JUMPI PUSH2 0xCBD PUSH2 0x2767 JUMP JUMPDEST JUMPDEST PUSH1 0x40 MLOAD SWAP1 DUP1 DUP3 MSTORE DUP1 PUSH1 0x20 MUL PUSH1 0x20 ADD DUP3 ADD PUSH1 0x40 MSTORE DUP1 ISZERO PUSH2 0xCEC JUMPI DUP2 PUSH1 0x20 ADD PUSH1 0x20 DUP3 MUL DUP1 CALLDATASIZE DUP4 CALLDATACOPY DUP1 DUP3 ADD SWAP2 POP POP SWAP1 POP JUMPDEST POP DUP4 DUP3 PUSH1 0x5 PUSH2 0xCFB SWAP2 SWAP1 PUSH2 0x2FC9 JUMP JUMPDEST PUSH1 0x5 DUP2 LT PUSH2 0xD0C JUMPI PUSH2 0xD0B PUSH2 0x2EEF JUMP JUMPDEST JUMPDEST PUSH1 0x20 MUL ADD MLOAD PUSH1 0x60 ADD DUP2 SWAP1 MSTORE POP PUSH1 0xA PUSH8 0xFFFFFFFFFFFFFFFF DUP2 GT ISZERO PUSH2 0xD33 JUMPI PUSH2 0xD32 PUSH2 0x2767 JUMP JUMPDEST JUMPDEST PUSH1 0x40 MLOAD SWAP1 DUP1 DUP3 MSTORE DUP1 PUSH1 0x20 MUL PUSH1 0x20 ADD DUP3 ADD PUSH1 0x40 MSTORE DUP1 ISZERO PUSH2 0xD61 JUMPI DUP2 PUSH1 0x20 ADD PUSH1 0x20 DUP3 MUL DUP1 CALLDATASIZE DUP4 CALLDATACOPY DUP1 DUP3 ADD SWAP2 POP POP SWAP1 POP JUMPDEST POP DUP4 DUP3 PUSH1 0x5 PUSH2 0xD70 SWAP2 SWAP1 PUSH2 0x2FC9 JUMP JUMPDEST PUSH1 0x5 DUP2 LT PUSH2 0xD81 JUMPI PUSH2 0xD80 PUSH2 0x2EEF JUMP JUMPDEST JUMPDEST PUSH1 0x20 MUL ADD MLOAD PUSH1 0x80 ADD DUP2 SWAP1 MSTORE POP PUSH1 0xA PUSH8 0xFFFFFFFFFFFFFFFF DUP2 GT ISZERO PUSH2 0xDA8 JUMPI PUSH2 0xDA7 PUSH2 0x2767 JUMP JUMPDEST JUMPDEST PUSH1 0x40 MLOAD SWAP1 DUP1 DUP3 MSTORE DUP1 PUSH1 0x20 MUL PUSH1 0x20 ADD DUP3 ADD PUSH1 0x40 MSTORE DUP1 ISZERO PUSH2 0xDD6 JUMPI DUP2 PUSH1 0x20 ADD PUSH1 0x20 DUP3 MUL DUP1 CALLDATASIZE DUP4 CALLDATACOPY DUP1 DUP3 ADD SWAP2 POP POP SWAP1 POP JUMPDEST POP DUP4 DUP3 PUSH1 0x5 PUSH2 0xDE5 SWAP2 SWAP1 PUSH2 0x2FC9 JUMP JUMPDEST PUSH1 0x5 DUP2 LT PUSH2 0xDF6 JUMPI PUSH2 0xDF5 PUSH2 0x2EEF JUMP JUMPDEST JUMPDEST PUSH1 0x20 MUL ADD MLOAD PUSH1 0xA0 ADD DUP2 SWAP1 MSTORE POP PUSH1 0x7 PUSH8 0xFFFFFFFFFFFFFFFF DUP2 GT ISZERO PUSH2 0xE1D JUMPI PUSH2 0xE1C PUSH2 0x2767 JUMP JUMPDEST JUMPDEST PUSH1 0x40 MLOAD SWAP1 DUP1 DUP3 MSTORE DUP1 PUSH1 0x20 MUL PUSH1 0x20 ADD DUP3 ADD PUSH1 0x40 MSTORE DUP1 ISZERO PUSH2 0xE4B JUMPI DUP2 PUSH1 0x20 ADD PUSH1 0x20 DUP3 MUL DUP1 CALLDATASIZE DUP4 CALLDATACOPY DUP1 DUP3 ADD SWAP2 POP POP SWAP1 POP JUMPDEST POP DUP4 DUP3 PUSH1 0x5 PUSH2 0xE5A SWAP2 SWAP1 PUSH2 0x2FC9 JUMP JUMPDEST PUSH1 0x5 DUP2 LT PUSH2 0xE6B JUMPI PUSH2 0xE6A PUSH2 0x2EEF JUMP JUMPDEST JUMPDEST PUSH1 0x20 MUL ADD MLOAD PUSH2 0x160 ADD DUP2 SWAP1 MSTORE POP PUSH1 0x7 PUSH8 0xFFFFFFFFFFFFFFFF DUP2 GT ISZERO PUSH2 0xE93 JUMPI PUSH2 0xE92 PUSH2 0x2767 JUMP JUMPDEST JUMPDEST PUSH1 0x40 MLOAD SWAP1 DUP1 DUP3 MSTORE DUP1 PUSH1 0x20 MUL PUSH1 0x20 ADD DUP3 ADD PUSH1 0x40 MSTORE DUP1 ISZERO PUSH2 0xEC1 JUMPI DUP2 PUSH1 0x20 ADD PUSH1 0x20 DUP3 MUL DUP1 CALLDATASIZE DUP4 CALLDATACOPY DUP1 DUP3 ADD SWAP2 POP POP SWAP1 POP JUMPDEST POP DUP4 DUP3 PUSH1 0x5 PUSH2 0xED0 SWAP2 SWAP1 PUSH2 0x2FC9 JUMP JUMPDEST PUSH1 0x5 DUP2 LT PUSH2 0xEE1 JUMPI PUSH2 0xEE0 PUSH2 0x2EEF JUMP JUMPDEST JUMPDEST PUSH1 0x20 MUL ADD MLOAD PUSH2 0x180 ADD DUP2 SWAP1 MSTORE POP DUP4 PUSH2 0x140 ADD MLOAD DUP4 DUP3 PUSH1 0x5 PUSH2 0xF02 SWAP2 SWAP1 PUSH2 0x2FC9 JUMP JUMPDEST PUSH1 0x5 DUP2 LT PUSH2 0xF13 JUMPI PUSH2 0xF12 PUSH2 0x2EEF JUMP JUMPDEST JUMPDEST PUSH1 0x20 MUL ADD MLOAD PUSH2 0x140 ADD SWAP1 ISZERO ISZERO SWAP1 DUP2 ISZERO ISZERO DUP2 MSTORE POP POP DUP4 PUSH2 0x120 ADD MLOAD DUP4 DUP3 PUSH1 0x5 PUSH2 0xF3B SWAP2 SWAP1 PUSH2 0x2FC9 JUMP JUMPDEST PUSH1 0x5 DUP2 LT PUSH2 0xF4C JUMPI PUSH2 0xF4B PUSH2 0x2EEF JUMP JUMPDEST JUMPDEST PUSH1 0x20 MUL ADD MLOAD PUSH2 0x120 ADD DUP2 DUP2 MSTORE POP POP DUP4 PUSH2 0x100 ADD MLOAD DUP4 DUP3 PUSH1 0x5 PUSH2 0xF6E SWAP2 SWAP1 PUSH2 0x2FC9 JUMP JUMPDEST PUSH1 0x5 DUP2 LT PUSH2 0xF7F JUMPI PUSH2 0xF7E PUSH2 0x2EEF JUMP JUMPDEST JUMPDEST PUSH1 0x20 MUL ADD MLOAD PUSH2 0x100 ADD DUP2 DUP2 MSTORE POP POP DUP4 PUSH2 0x1A0 ADD MLOAD DUP4 DUP3 PUSH1 0x5 PUSH2 0xFA1 SWAP2 SWAP1 PUSH2 0x2FC9 JUMP JUMPDEST PUSH1 0x5 DUP2 LT PUSH2 0xFB2 JUMPI PUSH2 0xFB1 PUSH2 0x2EEF JUMP JUMPDEST JUMPDEST PUSH1 0x20 MUL ADD MLOAD PUSH2 0x1A0 ADD DUP2 DUP2 MSTORE POP POP PUSH1 0x0 JUMPDEST PUSH1 0xA DUP2 LT ISZERO PUSH2 0x1249 JUMPI DUP5 PUSH1 0x40 ADD MLOAD DUP2 DUP2 MLOAD DUP2 LT PUSH2 0xFE3 JUMPI PUSH2 0xFE2 PUSH2 0x2EEF JUMP JUMPDEST JUMPDEST PUSH1 0x20 MUL PUSH1 0x20 ADD ADD MLOAD DUP5 DUP4 PUSH1 0x5 PUSH2 0xFF9 SWAP2 SWAP1 PUSH2 0x2FC9 JUMP JUMPDEST PUSH1 0x5 DUP2 LT PUSH2 0x100A JUMPI PUSH2 0x1009 PUSH2 0x2EEF JUMP JUMPDEST JUMPDEST PUSH1 0x20 MUL ADD MLOAD PUSH1 0x40 ADD MLOAD DUP3 DUP2 MLOAD DUP2 LT PUSH2 0x1025 JUMPI PUSH2 0x1024 PUSH2 0x2EEF JUMP JUMPDEST JUMPDEST PUSH1 0x20 MUL PUSH1 0x20 ADD ADD DUP2 DUP2 MSTORE POP POP DUP5 PUSH1 0x80 ADD MLOAD DUP2 DUP2 MLOAD DUP2 LT PUSH2 0x1048 JUMPI PUSH2 0x1047 PUSH2 0x2EEF JUMP JUMPDEST JUMPDEST PUSH1 0x20 MUL PUSH1 0x20 ADD ADD MLOAD DUP5 DUP4 PUSH1 0x5 PUSH2 0x105E SWAP2 SWAP1 PUSH2 0x2FC9 JUMP JUMPDEST PUSH1 0x5 DUP2 LT PUSH2 0x106F JUMPI PUSH2 0x106E PUSH2 0x2EEF JUMP JUMPDEST JUMPDEST PUSH1 0x20 MUL ADD MLOAD PUSH1 0x80 ADD MLOAD DUP3 DUP2 MLOAD DUP2 LT PUSH2 0x108A JUMPI PUSH2 0x1089 PUSH2 0x2EEF JUMP JUMPDEST JUMPDEST PUSH1 0x20 MUL PUSH1 0x20 ADD ADD DUP2 DUP2 MSTORE POP POP DUP5 PUSH1 0x60 ADD MLOAD DUP2 DUP2 MLOAD DUP2 LT PUSH2 0x10AD JUMPI PUSH2 0x10AC PUSH2 0x2EEF JUMP JUMPDEST JUMPDEST PUSH1 0x20 MUL PUSH1 0x20 ADD ADD MLOAD DUP5 DUP4 PUSH1 0x5 PUSH2 0x10C3 SWAP2 SWAP1 PUSH2 0x2FC9 JUMP JUMPDEST PUSH1 0x5 DUP2 LT PUSH2 0x10D4 JUMPI PUSH2 0x10D3 PUSH2 0x2EEF JUMP JUMPDEST JUMPDEST PUSH1 0x20 MUL ADD MLOAD PUSH1 0x60 ADD MLOAD DUP3 DUP2 MLOAD DUP2 LT PUSH2 0x10EF JUMPI PUSH2 0x10EE PUSH2 0x2EEF JUMP JUMPDEST JUMPDEST PUSH1 0x20 MUL PUSH1 0x20 ADD ADD DUP2 DUP2 MSTORE POP POP DUP5 PUSH1 0xA0 ADD MLOAD DUP2 DUP2 MLOAD DUP2 LT PUSH2 0x1112 JUMPI PUSH2 0x1111 PUSH2 0x2EEF JUMP JUMPDEST JUMPDEST PUSH1 0x20 MUL PUSH1 0x20 ADD ADD MLOAD DUP5 DUP4 PUSH1 0x5 PUSH2 0x1128 SWAP2 SWAP1 PUSH2 0x2FC9 JUMP JUMPDEST PUSH1 0x5 DUP2 LT PUSH2 0x1139 JUMPI PUSH2 0x1138 PUSH2 0x2EEF JUMP JUMPDEST JUMPDEST PUSH1 0x20 MUL ADD MLOAD PUSH1 0xA0 ADD MLOAD DUP3 DUP2 MLOAD DUP2 LT PUSH2 0x1154 JUMPI PUSH2 0x1153 PUSH2 0x2EEF JUMP JUMPDEST JUMPDEST PUSH1 0x20 MUL PUSH1 0x20 ADD ADD DUP2 DUP2 MSTORE POP POP PUSH1 0x7 DUP2 LT ISZERO PUSH2 0x1238 JUMPI DUP5 PUSH2 0x160 ADD MLOAD DUP2 DUP2 MLOAD DUP2 LT PUSH2 0x1181 JUMPI PUSH2 0x1180 PUSH2 0x2EEF JUMP JUMPDEST JUMPDEST PUSH1 0x20 MUL PUSH1 0x20 ADD ADD MLOAD DUP5 DUP4 PUSH1 0x5 PUSH2 0x1197 SWAP2 SWAP1 PUSH2 0x2FC9 JUMP JUMPDEST PUSH1 0x5 DUP2 LT PUSH2 0x11A8 JUMPI PUSH2 0x11A7 PUSH2 0x2EEF JUMP JUMPDEST JUMPDEST PUSH1 0x20 MUL ADD MLOAD PUSH2 0x160 ADD MLOAD DUP3 DUP2 MLOAD DUP2 LT PUSH2 0x11C4 JUMPI PUSH2 0x11C3 PUSH2 0x2EEF JUMP JUMPDEST JUMPDEST PUSH1 0x20 MUL PUSH1 0x20 ADD ADD DUP2 DUP2 MSTORE POP POP DUP5 PUSH2 0x180 ADD MLOAD DUP2 DUP2 MLOAD DUP2 LT PUSH2 0x11E8 JUMPI PUSH2 0x11E7 PUSH2 0x2EEF JUMP JUMPDEST JUMPDEST PUSH1 0x20 MUL PUSH1 0x20 ADD ADD MLOAD DUP5 DUP4 PUSH1 0x5 PUSH2 0x11FE SWAP2 SWAP1 PUSH2 0x2FC9 JUMP JUMPDEST PUSH1 0x5 DUP2 LT PUSH2 0x120F JUMPI PUSH2 0x120E PUSH2 0x2EEF JUMP JUMPDEST JUMPDEST PUSH1 0x20 MUL ADD MLOAD PUSH2 0x180 ADD MLOAD DUP3 DUP2 MLOAD DUP2 LT PUSH2 0x122B JUMPI PUSH2 0x122A PUSH2 0x2EEF JUMP JUMPDEST JUMPDEST PUSH1 0x20 MUL PUSH1 0x20 ADD ADD DUP2 DUP2 MSTORE POP POP JUMPDEST DUP1 PUSH2 0x1242 SWAP1 PUSH2 0x2F4D JUMP JUMPDEST SWAP1 POP PUSH2 0xFC3 JUMP JUMPDEST POP DUP1 DUP1 PUSH2 0x1255 SWAP1 PUSH2 0x2FFD JUMP JUMPDEST SWAP2 POP POP PUSH2 0xA1C JUMP JUMPDEST POP PUSH1 0x1 ISZERO ISZERO DUP4 PUSH2 0x140 ADD MLOAD ISZERO ISZERO EQ DUP1 ISZERO PUSH2 0x1280 JUMPI POP PUSH1 0x0 ISZERO ISZERO DUP4 PUSH2 0x1C0 ADD MLOAD ISZERO ISZERO EQ JUMPDEST ISZERO PUSH2 0x1521 JUMPI PUSH1 0x0 DUP4 PUSH2 0x120 ADD MLOAD SWAP1 POP PUSH1 0x0 DUP5 PUSH2 0x1A0 ADD MLOAD SWAP1 POP PUSH1 0x0 DUP1 PUSH1 0x1 DUP8 PUSH2 0x100 ADD MLOAD SUB PUSH2 0x1378 JUMPI DUP7 PUSH1 0x40 ADD MLOAD DUP5 DUP2 MLOAD DUP2 LT PUSH2 0x12C0 JUMPI PUSH2 0x12BF PUSH2 0x2EEF JUMP JUMPDEST JUMPDEST PUSH1 0x20 MUL PUSH1 0x20 ADD ADD MLOAD DUP8 PUSH2 0x160 ADD MLOAD PUSH1 0x0 DUP2 MLOAD DUP2 LT PUSH2 0x12E1 JUMPI PUSH2 0x12E0 PUSH2 0x2EEF JUMP JUMPDEST JUMPDEST PUSH1 0x20 MUL PUSH1 0x20 ADD ADD DUP2 DUP2 MSTORE POP POP DUP7 PUSH1 0x80 ADD MLOAD DUP5 DUP2 MLOAD DUP2 LT PUSH2 0x1304 JUMPI PUSH2 0x1303 PUSH2 0x2EEF JUMP JUMPDEST JUMPDEST PUSH1 0x20 MUL PUSH1 0x20 ADD ADD MLOAD DUP8 PUSH2 0x180 ADD MLOAD PUSH1 0x0 DUP2 MLOAD DUP2 LT PUSH2 0x1325 JUMPI PUSH2 0x1324 PUSH2 0x2EEF JUMP JUMPDEST JUMPDEST PUSH1 0x20 MUL PUSH1 0x20 ADD ADD DUP2 DUP2 MSTORE POP POP DUP7 PUSH1 0x40 ADD MLOAD DUP4 DUP2 MLOAD DUP2 LT PUSH2 0x1348 JUMPI PUSH2 0x1347 PUSH2 0x2EEF JUMP JUMPDEST JUMPDEST PUSH1 0x20 MUL PUSH1 0x20 ADD ADD MLOAD SWAP2 POP DUP7 PUSH1 0x80 ADD MLOAD DUP4 DUP2 MLOAD DUP2 LT PUSH2 0x1369 JUMPI PUSH2 0x1368 PUSH2 0x2EEF JUMP JUMPDEST JUMPDEST PUSH1 0x20 MUL PUSH1 0x20 ADD ADD MLOAD SWAP1 POP PUSH2 0x1443 JUMP JUMPDEST DUP7 PUSH1 0x60 ADD MLOAD DUP5 DUP2 MLOAD DUP2 LT PUSH2 0x138F JUMPI PUSH2 0x138E PUSH2 0x2EEF JUMP JUMPDEST JUMPDEST PUSH1 0x20 MUL PUSH1 0x20 ADD ADD MLOAD DUP8 PUSH2 0x160 ADD MLOAD PUSH1 0x0 DUP2 MLOAD DUP2 LT PUSH2 0x13B0 JUMPI PUSH2 0x13AF PUSH2 0x2EEF JUMP JUMPDEST JUMPDEST PUSH1 0x20 MUL PUSH1 0x20 ADD ADD DUP2 DUP2 MSTORE POP POP DUP7 PUSH1 0xA0 ADD MLOAD DUP5 DUP2 MLOAD DUP2 LT PUSH2 0x13D3 JUMPI PUSH2 0x13D2 PUSH2 0x2EEF JUMP JUMPDEST JUMPDEST PUSH1 0x20 MUL PUSH1 0x20 ADD ADD MLOAD DUP8 PUSH2 0x180 ADD MLOAD PUSH1 0x0 DUP2 MLOAD DUP2 LT PUSH2 0x13F4 JUMPI PUSH2 0x13F3 PUSH2 0x2EEF JUMP JUMPDEST JUMPDEST PUSH1 0x20 MUL PUSH1 0x20 ADD ADD DUP2 DUP2 MSTORE POP POP DUP7 PUSH1 0x60 ADD MLOAD DUP4 DUP2 MLOAD DUP2 LT PUSH2 0x1417 JUMPI PUSH2 0x1416 PUSH2 0x2EEF JUMP JUMPDEST JUMPDEST PUSH1 0x20 MUL PUSH1 0x20 ADD ADD MLOAD SWAP2 POP DUP7 PUSH1 0xA0 ADD MLOAD DUP4 DUP2 MLOAD DUP2 LT PUSH2 0x1438 JUMPI PUSH2 0x1437 PUSH2 0x2EEF JUMP JUMPDEST JUMPDEST PUSH1 0x20 MUL PUSH1 0x20 ADD ADD MLOAD SWAP1 POP JUMPDEST PUSH1 0x0 PUSH1 0x1 SWAP1 POP JUMPDEST PUSH1 0x7 DUP2 LT DUP1 ISZERO PUSH2 0x1463 JUMPI POP PUSH1 0x0 ISZERO ISZERO DUP9 PUSH2 0x1C0 ADD MLOAD ISZERO ISZERO EQ JUMPDEST ISZERO PUSH2 0x151B JUMPI PUSH1 0x0 DUP1 PUSH2 0x14B8 DUP11 PUSH2 0x160 ADD MLOAD PUSH1 0x0 DUP2 MLOAD DUP2 LT PUSH2 0x1487 JUMPI PUSH2 0x1486 PUSH2 0x2EEF JUMP JUMPDEST JUMPDEST PUSH1 0x20 MUL PUSH1 0x20 ADD ADD MLOAD DUP12 PUSH2 0x180 ADD MLOAD PUSH1 0x0 DUP2 MLOAD DUP2 LT PUSH2 0x14A8 JUMPI PUSH2 0x14A7 PUSH2 0x2EEF JUMP JUMPDEST JUMPDEST PUSH1 0x20 MUL PUSH1 0x20 ADD ADD MLOAD DUP8 DUP8 DUP8 PUSH2 0x1D04 JUMP JUMPDEST SWAP2 POP SWAP2 POP DUP2 DUP11 PUSH2 0x160 ADD MLOAD DUP5 DUP2 MLOAD DUP2 LT PUSH2 0x14D5 JUMPI PUSH2 0x14D4 PUSH2 0x2EEF JUMP JUMPDEST JUMPDEST PUSH1 0x20 MUL PUSH1 0x20 ADD ADD DUP2 DUP2 MSTORE POP POP DUP1 DUP11 PUSH2 0x180 ADD MLOAD DUP5 DUP2 MLOAD DUP2 LT PUSH2 0x14FA JUMPI PUSH2 0x14F9 PUSH2 0x2EEF JUMP JUMPDEST JUMPDEST PUSH1 0x20 MUL PUSH1 0x20 ADD ADD DUP2 DUP2 MSTORE POP POP POP POP DUP1 DUP1 PUSH2 0x1513 SWAP1 PUSH2 0x2F4D JUMP JUMPDEST SWAP2 POP POP PUSH2 0x144A JUMP JUMPDEST POP POP POP POP POP JUMPDEST DUP3 PUSH2 0x140 ADD MLOAD DUP3 PUSH1 0x1 PUSH1 0x5 PUSH2 0x1536 SWAP2 SWAP1 PUSH2 0x2FC9 JUMP JUMPDEST PUSH1 0x5 DUP2 LT PUSH2 0x1547 JUMPI PUSH2 0x1546 PUSH2 0x2EEF JUMP JUMPDEST JUMPDEST PUSH1 0x20 MUL ADD MLOAD PUSH2 0x140 ADD SWAP1 ISZERO ISZERO SWAP1 DUP2 ISZERO ISZERO DUP2 MSTORE POP POP DUP3 PUSH2 0x120 ADD MLOAD DUP3 PUSH1 0x1 PUSH1 0x5 PUSH2 0x1570 SWAP2 SWAP1 PUSH2 0x2FC9 JUMP JUMPDEST PUSH1 0x5 DUP2 LT PUSH2 0x1581 JUMPI PUSH2 0x1580 PUSH2 0x2EEF JUMP JUMPDEST JUMPDEST PUSH1 0x20 MUL ADD MLOAD PUSH2 0x120 ADD DUP2 DUP2 MSTORE POP POP DUP3 PUSH2 0x100 ADD MLOAD DUP3 PUSH1 0x1 PUSH1 0x5 PUSH2 0x15A4 SWAP2 SWAP1 PUSH2 0x2FC9 JUMP JUMPDEST PUSH1 0x5 DUP2 LT PUSH2 0x15B5 JUMPI PUSH2 0x15B4 PUSH2 0x2EEF JUMP JUMPDEST JUMPDEST PUSH1 0x20 MUL ADD MLOAD PUSH2 0x100 ADD DUP2 DUP2 MSTORE POP POP DUP3 PUSH2 0x1A0 ADD MLOAD DUP3 PUSH1 0x1 PUSH1 0x5 PUSH2 0x15D8 SWAP2 SWAP1 PUSH2 0x2FC9 JUMP JUMPDEST PUSH1 0x5 DUP2 LT PUSH2 0x15E9 JUMPI PUSH2 0x15E8 PUSH2 0x2EEF JUMP JUMPDEST JUMPDEST PUSH1 0x20 MUL ADD MLOAD PUSH2 0x1A0 ADD DUP2 DUP2 MSTORE POP POP PUSH1 0x0 JUMPDEST PUSH1 0xA DUP2 LT ISZERO PUSH2 0x1886 JUMPI DUP4 PUSH1 0x40 ADD MLOAD DUP2 DUP2 MLOAD DUP2 LT PUSH2 0x161A JUMPI PUSH2 0x1619 PUSH2 0x2EEF JUMP JUMPDEST JUMPDEST PUSH1 0x20 MUL PUSH1 0x20 ADD ADD MLOAD DUP4 PUSH1 0x1 PUSH1 0x5 PUSH2 0x1631 SWAP2 SWAP1 PUSH2 0x2FC9 JUMP JUMPDEST PUSH1 0x5 DUP2 LT PUSH2 0x1642 JUMPI PUSH2 0x1641 PUSH2 0x2EEF JUMP JUMPDEST JUMPDEST PUSH1 0x20 MUL ADD MLOAD PUSH1 0x40 ADD MLOAD DUP3 DUP2 MLOAD DUP2 LT PUSH2 0x165D JUMPI PUSH2 0x165C PUSH2 0x2EEF JUMP JUMPDEST JUMPDEST PUSH1 0x20 MUL PUSH1 0x20 ADD ADD DUP2 DUP2 MSTORE POP POP DUP4 PUSH1 0x80 ADD MLOAD DUP2 DUP2 MLOAD DUP2 LT PUSH2 0x1680 JUMPI PUSH2 0x167F PUSH2 0x2EEF JUMP JUMPDEST JUMPDEST PUSH1 0x20 MUL PUSH1 0x20 ADD ADD MLOAD DUP4 PUSH1 0x1 PUSH1 0x5 PUSH2 0x1697 SWAP2 SWAP1 PUSH2 0x2FC9 JUMP JUMPDEST PUSH1 0x5 DUP2 LT PUSH2 0x16A8 JUMPI PUSH2 0x16A7 PUSH2 0x2EEF JUMP JUMPDEST JUMPDEST PUSH1 0x20 MUL ADD MLOAD PUSH1 0x80 ADD MLOAD DUP3 DUP2 MLOAD DUP2 LT PUSH2 0x16C3 JUMPI PUSH2 0x16C2 PUSH2 0x2EEF JUMP JUMPDEST JUMPDEST PUSH1 0x20 MUL PUSH1 0x20 ADD ADD DUP2 DUP2 MSTORE POP POP DUP4 PUSH1 0x60 ADD MLOAD DUP2 DUP2 MLOAD DUP2 LT PUSH2 0x16E6 JUMPI PUSH2 0x16E5 PUSH2 0x2EEF JUMP JUMPDEST JUMPDEST PUSH1 0x20 MUL PUSH1 0x20 ADD ADD MLOAD DUP4 PUSH1 0x1 PUSH1 0x5 PUSH2 0x16FD SWAP2 SWAP1 PUSH2 0x2FC9 JUMP JUMPDEST PUSH1 0x5 DUP2 LT PUSH2 0x170E JUMPI PUSH2 0x170D PUSH2 0x2EEF JUMP JUMPDEST JUMPDEST PUSH1 0x20 MUL ADD MLOAD PUSH1 0x60 ADD MLOAD DUP3 DUP2 MLOAD DUP2 LT PUSH2 0x1729 JUMPI PUSH2 0x1728 PUSH2 0x2EEF JUMP JUMPDEST JUMPDEST PUSH1 0x20 MUL PUSH1 0x20 ADD ADD DUP2 DUP2 MSTORE POP POP DUP4 PUSH1 0xA0 ADD MLOAD DUP2 DUP2 MLOAD DUP2 LT PUSH2 0x174C JUMPI PUSH2 0x174B PUSH2 0x2EEF JUMP JUMPDEST JUMPDEST PUSH1 0x20 MUL PUSH1 0x20 ADD ADD MLOAD DUP4 PUSH1 0x1 PUSH1 0x5 PUSH2 0x1763 SWAP2 SWAP1 PUSH2 0x2FC9 JUMP JUMPDEST PUSH1 0x5 DUP2 LT PUSH2 0x1774 JUMPI PUSH2 0x1773 PUSH2 0x2EEF JUMP JUMPDEST JUMPDEST PUSH1 0x20 MUL ADD MLOAD PUSH1 0xA0 ADD MLOAD DUP3 DUP2 MLOAD DUP2 LT PUSH2 0x178F JUMPI PUSH2 0x178E PUSH2 0x2EEF JUMP JUMPDEST JUMPDEST PUSH1 0x20 MUL PUSH1 0x20 ADD ADD DUP2 DUP2 MSTORE POP POP PUSH1 0x7 DUP2 LT ISZERO PUSH2 0x1875 JUMPI DUP4 PUSH2 0x160 ADD MLOAD DUP2 DUP2 MLOAD DUP2 LT PUSH2 0x17BC JUMPI PUSH2 0x17BB PUSH2 0x2EEF JUMP JUMPDEST JUMPDEST PUSH1 0x20 MUL PUSH1 0x20 ADD ADD MLOAD DUP4 PUSH1 0x1 PUSH1 0x5 PUSH2 0x17D3 SWAP2 SWAP1 PUSH2 0x2FC9 JUMP JUMPDEST PUSH1 0x5 DUP2 LT PUSH2 0x17E4 JUMPI PUSH2 0x17E3 PUSH2 0x2EEF JUMP JUMPDEST JUMPDEST PUSH1 0x20 MUL ADD MLOAD PUSH2 0x160 ADD MLOAD DUP3 DUP2 MLOAD DUP2 LT PUSH2 0x1800 JUMPI PUSH2 0x17FF PUSH2 0x2EEF JUMP JUMPDEST JUMPDEST PUSH1 0x20 MUL PUSH1 0x20 ADD ADD DUP2 DUP2 MSTORE POP POP DUP4 PUSH2 0x180 ADD MLOAD DUP2 DUP2 MLOAD DUP2 LT PUSH2 0x1824 JUMPI PUSH2 0x1823 PUSH2 0x2EEF JUMP JUMPDEST JUMPDEST PUSH1 0x20 MUL PUSH1 0x20 ADD ADD MLOAD DUP4 PUSH1 0x1 PUSH1 0x5 PUSH2 0x183B SWAP2 SWAP1 PUSH2 0x2FC9 JUMP JUMPDEST PUSH1 0x5 DUP2 LT PUSH2 0x184C JUMPI PUSH2 0x184B PUSH2 0x2EEF JUMP JUMPDEST JUMPDEST PUSH1 0x20 MUL ADD MLOAD PUSH2 0x180 ADD MLOAD DUP3 DUP2 MLOAD DUP2 LT PUSH2 0x1868 JUMPI PUSH2 0x1867 PUSH2 0x2EEF JUMP JUMPDEST JUMPDEST PUSH1 0x20 MUL PUSH1 0x20 ADD ADD DUP2 DUP2 MSTORE POP POP JUMPDEST DUP1 PUSH2 0x187F SWAP1 PUSH2 0x2F4D JUMP JUMPDEST SWAP1 POP PUSH2 0x15FA JUMP JUMPDEST POP POP SWAP3 POP SWAP3 SWAP1 POP JUMP JUMPDEST PUSH1 0x5 DUP2 JUMP JUMPDEST POP POP JUMP JUMPDEST PUSH1 0x2 PUSH1 0x20 MSTORE DUP1 PUSH1 0x0 MSTORE PUSH1 0x40 PUSH1 0x0 KECCAK256 PUSH1 0x0 SWAP2 POP SWAP1 POP DUP1 PUSH1 0x0 ADD SLOAD SWAP1 DUP1 PUSH1 0x3D ADD PUSH1 0x0 SWAP1 SLOAD SWAP1 PUSH2 0x100 EXP SWAP1 DIV PUSH20 0xFFFFFFFFFFFFFFFFFFFFFFFFFFFFFFFFFFFFFFFF AND SWAP1 DUP1 PUSH1 0x3E ADD PUSH1 0x0 SWAP1 SLOAD SWAP1 PUSH2 0x100 EXP SWAP1 DIV PUSH20 0xFFFFFFFFFFFFFFFFFFFFFFFFFFFFFFFFFFFFFFFF AND SWAP1 DUP1 PUSH1 0x3F ADD PUSH1 0x0 SWAP1 SLOAD SWAP1 PUSH2 0x100 EXP SWAP1 DIV PUSH20 0xFFFFFFFFFFFFFFFFFFFFFFFFFFFFFFFFFFFFFFFF AND SWAP1 DUP1 PUSH1 0x40 ADD PUSH1 0x0 SWAP1 SLOAD SWAP1 PUSH2 0x100 EXP SWAP1 DIV PUSH20 0xFFFFFFFFFFFFFFFFFFFFFFFFFFFFFFFFFFFFFFFF AND SWAP1 POP DUP6 JUMP JUMPDEST PUSH2 0x3E8 DUP2 JUMP JUMPDEST JUMP JUMPDEST PUSH1 0x3 PUSH1 0x20 MSTORE DUP1 PUSH1 0x0 MSTORE PUSH1 0x40 PUSH1 0x0 KECCAK256 PUSH1 0x0 SWAP2 POP SWAP1 POP SLOAD DUP2 JUMP JUMPDEST PUSH1 0x7 DUP2 JUMP JUMPDEST PUSH1 0x0 DUP1 SLOAD SWAP1 PUSH2 0x100 EXP SWAP1 DIV PUSH20 0xFFFFFFFFFFFFFFFFFFFFFFFFFFFFFFFFFFFFFFFF AND DUP2 JUMP JUMPDEST POP POP JUMP JUMPDEST JUMP JUMPDEST POP POP JUMP JUMPDEST PUSH1 0x4 PUSH1 0x20 MSTORE DUP2 PUSH1 0x0 MSTORE PUSH1 0x40 PUSH1 0x0 KECCAK256 PUSH1 0x20 MSTORE DUP1 PUSH1 0x0 MSTORE PUSH1 0x40 PUSH1 0x0 KECCAK256 PUSH1 0x0 SWAP2 POP SWAP2 POP POP DUP1 PUSH1 0x40 ADD SLOAD SWAP1 DUP1 PUSH1 0x41 ADD SLOAD SWAP1 DUP1 PUSH1 0x42 ADD SLOAD SWAP1 DUP1 PUSH1 0x43 ADD SLOAD SWAP1 DUP1 PUSH1 0x44 ADD PUSH1 0x0 SWAP1 SLOAD SWAP1 PUSH2 0x100 EXP SWAP1 DIV PUSH1 0xFF AND SWAP1 DUP1 PUSH1 0x47 ADD SLOAD SWAP1 DUP1 PUSH1 0x48 ADD PUSH1 0x0 SWAP1 SLOAD SWAP1 PUSH2 0x100 EXP SWAP1 DIV PUSH1 0xFF AND SWAP1 DUP1 PUSH1 0x48 ADD PUSH1 0x1 SWAP1 SLOAD SWAP1 PUSH2 0x100 EXP SWAP1 DIV PUSH1 0xFF AND SWAP1 POP DUP9 JUMP JUMPDEST JUMP JUMPDEST JUMP JUMPDEST PUSH2 0x1AB9 DUP3 DUP3 PUSH1 0x40 MLOAD PUSH1 0x24 ADD PUSH2 0x1A37 SWAP3 SWAP2 SWAP1 PUSH2 0x30A5 JUMP JUMPDEST PUSH1 0x40 MLOAD PUSH1 0x20 DUP2 DUP4 SUB SUB DUP2 MSTORE SWAP1 PUSH1 0x40 MSTORE PUSH32 0xB60E72CC00000000000000000000000000000000000000000000000000000000 PUSH28 0xFFFFFFFFFFFFFFFFFFFFFFFFFFFFFFFFFFFFFFFFFFFFFFFFFFFFFFFF NOT AND PUSH1 0x20 DUP3 ADD DUP1 MLOAD PUSH28 0xFFFFFFFFFFFFFFFFFFFFFFFFFFFFFFFFFFFFFFFFFFFFFFFFFFFFFFFF DUP4 DUP2 DUP4 AND OR DUP4 MSTORE POP POP POP POP PUSH2 0x1F07 JUMP JUMPDEST POP POP JUMP JUMPDEST PUSH1 0x0 DUP1 PUSH1 0x0 DUP9 PUSH1 0x40 ADD MLOAD DUP8 DUP2 MLOAD DUP2 LT PUSH2 0x1AD9 JUMPI PUSH2 0x1AD8 PUSH2 0x2EEF JUMP JUMPDEST JUMPDEST PUSH1 0x20 MUL PUSH1 0x20 ADD ADD MLOAD SWAP1 POP PUSH1 0x0 DUP10 PUSH1 0x80 ADD MLOAD DUP9 DUP2 MLOAD DUP2 LT PUSH2 0x1AFC JUMPI PUSH2 0x1AFB PUSH2 0x2EEF JUMP JUMPDEST JUMPDEST PUSH1 0x20 MUL PUSH1 0x20 ADD ADD MLOAD SWAP1 POP PUSH1 0x2 DUP10 SUB PUSH2 0x1B51 JUMPI DUP10 PUSH1 0x60 ADD MLOAD DUP9 DUP2 MLOAD DUP2 LT PUSH2 0x1B25 JUMPI PUSH2 0x1B24 PUSH2 0x2EEF JUMP JUMPDEST JUMPDEST PUSH1 0x20 MUL PUSH1 0x20 ADD ADD MLOAD SWAP2 POP DUP10 PUSH1 0xA0 ADD MLOAD DUP9 DUP2 MLOAD DUP2 LT PUSH2 0x1B46 JUMPI PUSH2 0x1B45 PUSH2 0x2EEF JUMP JUMPDEST JUMPDEST PUSH1 0x20 MUL PUSH1 0x20 ADD ADD MLOAD SWAP1 POP JUMPDEST DUP7 DUP3 EQ DUP1 ISZERO PUSH2 0x1B5F JUMPI POP DUP6 DUP2 EQ JUMPDEST ISZERO PUSH2 0x1B71 JUMPI DUP2 DUP2 SWAP4 POP SWAP4 POP POP POP PUSH2 0x1CF9 JUMP JUMPDEST PUSH1 0x0 DUP6 EQ DUP1 PUSH2 0x1B8D JUMPI POP PUSH1 0x0 ISZERO ISZERO PUSH2 0x1B89 DUP9 DUP9 PUSH2 0x1F30 JUMP JUMPDEST ISZERO ISZERO EQ JUMPDEST ISZERO PUSH2 0x1B9F JUMPI DUP2 DUP2 SWAP4 POP SWAP4 POP POP POP PUSH2 0x1CF9 JUMP JUMPDEST PUSH1 0x1 DUP6 SUB PUSH2 0x1BB4 JUMPI DUP7 DUP7 SWAP4 POP SWAP4 POP POP POP PUSH2 0x1CF9 JUMP JUMPDEST PUSH1 0x0 DUP3 DUP9 PUSH2 0x1BC2 SWAP2 SWAP1 PUSH2 0x30DF JUMP JUMPDEST SWAP1 POP PUSH1 0x0 DUP3 DUP9 PUSH2 0x1BD2 SWAP2 SWAP1 PUSH2 0x30DF JUMP JUMPDEST SWAP1 POP PUSH1 0x0 DUP3 SGT ISZERO PUSH2 0x1C15 JUMPI PUSH2 0x3E8 DUP8 DUP4 PUSH2 0x3E8 PUSH2 0x1BEF SWAP2 SWAP1 PUSH2 0x3122 JUMP JUMPDEST PUSH2 0x1BF9 SWAP2 SWAP1 PUSH2 0x31C9 JUMP JUMPDEST PUSH2 0x1C03 SWAP2 SWAP1 PUSH2 0x3233 JUMP JUMPDEST DUP5 PUSH2 0x1C0E SWAP2 SWAP1 PUSH2 0x2F95 JUMP JUMPDEST SWAP6 POP PUSH2 0x1C64 JUMP JUMPDEST PUSH1 0x0 DUP3 SLT ISZERO PUSH2 0x1C5F JUMPI PUSH2 0x3E8 DUP8 DUP4 PUSH2 0x1C2C SWAP1 PUSH2 0x3264 JUMP JUMPDEST PUSH2 0x3E8 PUSH2 0x1C39 SWAP2 SWAP1 PUSH2 0x3122 JUMP JUMPDEST PUSH2 0x1C43 SWAP2 SWAP1 PUSH2 0x31C9 JUMP JUMPDEST PUSH2 0x1C4D SWAP2 SWAP1 PUSH2 0x3233 JUMP JUMPDEST DUP5 PUSH2 0x1C58 SWAP2 SWAP1 PUSH2 0x2FC9 JUMP JUMPDEST SWAP6 POP PUSH2 0x1C63 JUMP JUMPDEST DUP9 SWAP6 POP JUMPDEST JUMPDEST PUSH1 0x0 DUP2 SGT ISZERO PUSH2 0x1CA5 JUMPI PUSH2 0x3E8 DUP8 DUP3 PUSH2 0x3E8 PUSH2 0x1C7F SWAP2 SWAP1 PUSH2 0x3122 JUMP JUMPDEST PUSH2 0x1C89 SWAP2 SWAP1 PUSH2 0x31C9 JUMP JUMPDEST PUSH2 0x1C93 SWAP2 SWAP1 PUSH2 0x3233 JUMP JUMPDEST DUP4 PUSH2 0x1C9E SWAP2 SWAP1 PUSH2 0x2F95 JUMP JUMPDEST SWAP5 POP PUSH2 0x1CF4 JUMP JUMPDEST PUSH1 0x0 DUP2 SLT ISZERO PUSH2 0x1CEF JUMPI PUSH2 0x3E8 DUP8 DUP3 PUSH2 0x1CBC SWAP1 PUSH2 0x3264 JUMP JUMPDEST PUSH2 0x3E8 PUSH2 0x1CC9 SWAP2 SWAP1 PUSH2 0x3122 JUMP JUMPDEST PUSH2 0x1CD3 SWAP2 SWAP1 PUSH2 0x31C9 JUMP JUMPDEST PUSH2 0x1CDD SWAP2 SWAP1 PUSH2 0x31C9 JUMP JUMPDEST DUP4 PUSH2 0x1CE8 SWAP2 SWAP1 PUSH2 0x2FC9 JUMP JUMPDEST SWAP5 POP PUSH2 0x1CF3 JUMP JUMPDEST DUP8 SWAP5 POP JUMPDEST JUMPDEST POP POP POP POP JUMPDEST SWAP7 POP SWAP7 SWAP5 POP POP POP POP POP JUMP JUMPDEST PUSH1 0x0 DUP1 PUSH2 0x1D45 PUSH1 0x40 MLOAD DUP1 PUSH1 0x40 ADD PUSH1 0x40 MSTORE DUP1 PUSH1 0xE DUP2 MSTORE PUSH1 0x20 ADD PUSH32 0x414456414E43494E472042414C4C000000000000000000000000000000000000 DUP2 MSTORE POP PUSH2 0x1F4C JUMP JUMPDEST PUSH1 0x0 DUP4 PUSH1 0x7 PUSH2 0x1D54 SWAP2 SWAP1 PUSH2 0x2FC9 JUMP JUMPDEST SWAP1 POP PUSH1 0x1 DUP2 SUB PUSH2 0x1D69 JUMPI DUP6 SWAP3 POP DUP5 SWAP2 POP PUSH2 0x1EFC JUMP JUMPDEST PUSH1 0x0 DUP9 DUP8 PUSH2 0x1D77 SWAP2 SWAP1 PUSH2 0x30DF JUMP JUMPDEST SWAP1 POP PUSH1 0x0 DUP9 DUP8 PUSH2 0x1D87 SWAP2 SWAP1 PUSH2 0x30DF JUMP JUMPDEST SWAP1 POP PUSH1 0x0 DUP3 SGT ISZERO PUSH2 0x1DE2 JUMPI PUSH2 0x3E8 PUSH1 0x1 PUSH1 0x7 PUSH2 0x1DA3 SWAP2 SWAP1 PUSH2 0x2FC9 JUMP JUMPDEST DUP4 PUSH2 0x3E8 PUSH2 0x1DB1 SWAP2 SWAP1 PUSH2 0x3122 JUMP JUMPDEST PUSH2 0x1DBB SWAP2 SWAP1 PUSH2 0x31C9 JUMP JUMPDEST DUP8 PUSH2 0x1DC6 SWAP2 SWAP1 PUSH2 0x32AC JUMP JUMPDEST PUSH2 0x1DD0 SWAP2 SWAP1 PUSH2 0x3233 JUMP JUMPDEST DUP11 PUSH2 0x1DDB SWAP2 SWAP1 PUSH2 0x2F95 JUMP JUMPDEST SWAP5 POP PUSH2 0x1E41 JUMP JUMPDEST PUSH1 0x0 DUP3 SLT ISZERO PUSH2 0x1E40 JUMPI PUSH2 0x3E8 PUSH1 0x1 PUSH1 0x7 PUSH2 0x1DFC SWAP2 SWAP1 PUSH2 0x2FC9 JUMP JUMPDEST DUP4 PUSH2 0x1E06 SWAP1 PUSH2 0x3264 JUMP JUMPDEST PUSH2 0x3E8 PUSH2 0x1E13 SWAP2 SWAP1 PUSH2 0x3122 JUMP JUMPDEST PUSH2 0x1E1D SWAP2 SWAP1 PUSH2 0x31C9 JUMP JUMPDEST DUP8 PUSH2 0x1E28 SWAP2 SWAP1 PUSH2 0x32AC JUMP JUMPDEST PUSH2 0x1E32 SWAP2 SWAP1 PUSH2 0x3233 JUMP JUMPDEST DUP11 PUSH2 0x1E3D SWAP2 SWAP1 PUSH2 0x2FC9 JUMP JUMPDEST SWAP5 POP JUMPDEST JUMPDEST PUSH1 0x0 DUP2 SGT ISZERO PUSH2 0x1E9A JUMPI PUSH2 0x3E8 PUSH1 0x1 PUSH1 0x7 PUSH2 0x1E5B SWAP2 SWAP1 PUSH2 0x2FC9 JUMP JUMPDEST DUP3 PUSH2 0x3E8 PUSH2 0x1E69 SWAP2 SWAP1 PUSH2 0x3122 JUMP JUMPDEST PUSH2 0x1E73 SWAP2 SWAP1 PUSH2 0x31C9 JUMP JUMPDEST DUP8 PUSH2 0x1E7E SWAP2 SWAP1 PUSH2 0x32AC JUMP JUMPDEST PUSH2 0x1E88 SWAP2 SWAP1 PUSH2 0x3233 JUMP JUMPDEST DUP10 PUSH2 0x1E93 SWAP2 SWAP1 PUSH2 0x2F95 JUMP JUMPDEST SWAP4 POP PUSH2 0x1EF9 JUMP JUMPDEST PUSH1 0x0 DUP2 SLT ISZERO PUSH2 0x1EF8 JUMPI PUSH2 0x3E8 PUSH1 0x1 PUSH1 0x7 PUSH2 0x1EB4 SWAP2 SWAP1 PUSH2 0x2FC9 JUMP JUMPDEST DUP3 PUSH2 0x1EBE SWAP1 PUSH2 0x3264 JUMP JUMPDEST PUSH2 0x3E8 PUSH2 0x1ECB SWAP2 SWAP1 PUSH2 0x3122 JUMP JUMPDEST PUSH2 0x1ED5 SWAP2 SWAP1 PUSH2 0x31C9 JUMP JUMPDEST PUSH2 0x1EDF SWAP2 SWAP1 PUSH2 0x31C9 JUMP JUMPDEST DUP7 PUSH2 0x1EEA SWAP2 SWAP1 PUSH2 0x32AC JUMP JUMPDEST DUP10 PUSH2 0x1EF5 SWAP2 SWAP1 PUSH2 0x2FC9 JUMP JUMPDEST SWAP4 POP JUMPDEST JUMPDEST POP POP JUMPDEST POP SWAP6 POP SWAP6 SWAP4 POP POP POP POP JUMP JUMPDEST PUSH1 0x0 DUP2 MLOAD SWAP1 POP PUSH1 0x0 PUSH11 0x636F6E736F6C652E6C6F67 SWAP1 POP PUSH1 0x20 DUP4 ADD PUSH1 0x0 DUP1 DUP5 DUP4 DUP6 GAS STATICCALL POP POP POP POP POP JUMP JUMPDEST PUSH1 0x0 PUSH2 0x3E8 DUP4 LT DUP1 ISZERO PUSH2 0x1F44 JUMPI POP PUSH2 0x1F4 DUP3 LT JUMPDEST SWAP1 POP SWAP3 SWAP2 POP POP JUMP JUMPDEST PUSH2 0x1FE2 DUP2 PUSH1 0x40 MLOAD PUSH1 0x24 ADD PUSH2 0x1F60 SWAP2 SWAP1 PUSH2 0x32EE JUMP JUMPDEST PUSH1 0x40 MLOAD PUSH1 0x20 DUP2 DUP4 SUB SUB DUP2 MSTORE SWAP1 PUSH1 0x40 MSTORE PUSH32 0x41304FAC00000000000000000000000000000000000000000000000000000000 PUSH28 0xFFFFFFFFFFFFFFFFFFFFFFFFFFFFFFFFFFFFFFFFFFFFFFFFFFFFFFFF NOT AND PUSH1 0x20 DUP3 ADD DUP1 MLOAD PUSH28 0xFFFFFFFFFFFFFFFFFFFFFFFFFFFFFFFFFFFFFFFFFFFFFFFFFFFFFFFF DUP4 DUP2 DUP4 AND OR DUP4 MSTORE POP POP POP POP PUSH2 0x1F07 JUMP JUMPDEST POP JUMP JUMPDEST PUSH1 0x40 MLOAD DUP1 PUSH2 0x200 ADD PUSH1 0x40 MSTORE DUP1 PUSH2 0x1FF9 PUSH2 0x20A1 JUMP JUMPDEST DUP2 MSTORE PUSH1 0x20 ADD PUSH2 0x2006 PUSH2 0x20A1 JUMP JUMPDEST DUP2 MSTORE PUSH1 0x20 ADD PUSH1 0x60 DUP2 MSTORE PUSH1 0x20 ADD PUSH1 0x60 DUP2 MSTORE PUSH1 0x20 ADD PUSH1 0x60 DUP2 MSTORE PUSH1 0x20 ADD PUSH1 0x60 DUP2 MSTORE PUSH1 0x20 ADD PUSH1 0x0 DUP2 MSTORE PUSH1 0x20 ADD PUSH1 0x0 DUP2 MSTORE PUSH1 0x20 ADD PUSH1 0x0 DUP2 MSTORE PUSH1 0x20 ADD PUSH1 0x0 DUP2 MSTORE PUSH1 0x20 ADD PUSH1 0x0 ISZERO ISZERO DUP2 MSTORE PUSH1 0x20 ADD PUSH1 0x60 DUP2 MSTORE PUSH1 0x20 ADD PUSH1 0x60 DUP2 MSTORE PUSH1 0x20 ADD PUSH1 0x0 DUP2 MSTORE PUSH1 0x20 ADD PUSH1 0x0 ISZERO ISZERO DUP2 MSTORE PUSH1 0x20 ADD PUSH1 0x0 ISZERO ISZERO DUP2 MSTORE POP SWAP1 JUMP JUMPDEST PUSH1 0x40 MLOAD DUP1 PUSH1 0xA0 ADD PUSH1 0x40 MSTORE DUP1 PUSH1 0x5 SWAP1 JUMPDEST PUSH2 0x208B PUSH2 0x1FE5 JUMP JUMPDEST DUP2 MSTORE PUSH1 0x20 ADD SWAP1 PUSH1 0x1 SWAP1 SUB SWAP1 DUP2 PUSH2 0x2083 JUMPI SWAP1 POP POP SWAP1 JUMP JUMPDEST PUSH1 0x40 MLOAD DUP1 PUSH2 0x140 ADD PUSH1 0x40 MSTORE DUP1 PUSH1 0xA SWAP1 JUMPDEST PUSH2 0x20B9 PUSH2 0x20CF JUMP JUMPDEST DUP2 MSTORE PUSH1 0x20 ADD SWAP1 PUSH1 0x1 SWAP1 SUB SWAP1 DUP2 PUSH2 0x20B1 JUMPI SWAP1 POP POP SWAP1 JUMP JUMPDEST PUSH1 0x40 MLOAD DUP1 PUSH1 0x60 ADD PUSH1 0x40 MSTORE DUP1 PUSH1 0x0 DUP2 MSTORE PUSH1 0x20 ADD PUSH1 0x0 DUP2 MSTORE PUSH1 0x20 ADD PUSH1 0x0 DUP2 MSTORE POP SWAP1 JUMP JUMPDEST PUSH1 0x0 DUP2 SWAP1 POP SWAP2 SWAP1 POP JUMP JUMPDEST PUSH2 0x2103 DUP2 PUSH2 0x20F0 JUMP JUMPDEST DUP3 MSTORE POP POP JUMP JUMPDEST PUSH1 0x0 PUSH1 0x20 DUP3 ADD SWAP1 POP PUSH2 0x211E PUSH1 0x0 DUP4 ADD DUP5 PUSH2 0x20FA JUMP JUMPDEST SWAP3 SWAP2 POP POP JUMP JUMPDEST PUSH1 0x0 PUSH1 0x40 MLOAD SWAP1 POP SWAP1 JUMP JUMPDEST PUSH1 0x0 DUP1 REVERT JUMPDEST PUSH1 0x0 DUP1 REVERT JUMPDEST PUSH2 0x2141 DUP2 PUSH2 0x20F0 JUMP JUMPDEST DUP2 EQ PUSH2 0x214C JUMPI PUSH1 0x0 DUP1 REVERT JUMPDEST POP JUMP JUMPDEST PUSH1 0x0 DUP2 CALLDATALOAD SWAP1 POP PUSH2 0x215E DUP2 PUSH2 0x2138 JUMP JUMPDEST SWAP3 SWAP2 POP POP JUMP JUMPDEST PUSH1 0x0 DUP1 PUSH1 0x40 DUP4 DUP6 SUB SLT ISZERO PUSH2 0x217B JUMPI PUSH2 0x217A PUSH2 0x212E JUMP JUMPDEST JUMPDEST PUSH1 0x0 PUSH2 0x2189 DUP6 DUP3 DUP7 ADD PUSH2 0x214F JUMP JUMPDEST SWAP3 POP POP PUSH1 0x20 PUSH2 0x219A DUP6 DUP3 DUP7 ADD PUSH2 0x214F JUMP JUMPDEST SWAP2 POP POP SWAP3 POP SWAP3 SWAP1 POP JUMP JUMPDEST PUSH1 0x0 PUSH1 0xA SWAP1 POP SWAP2 SWAP1 POP JUMP JUMPDEST PUSH1 0x0 DUP2 SWAP1 POP SWAP3 SWAP2 POP POP JUMP JUMPDEST PUSH1 0x0 DUP2 SWAP1 POP SWAP2 SWAP1 POP JUMP JUMPDEST PUSH2 0x21CD DUP2 PUSH2 0x20F0 JUMP JUMPDEST DUP3 MSTORE POP POP JUMP JUMPDEST PUSH1 0x60 DUP3 ADD PUSH1 0x0 DUP3 ADD MLOAD PUSH2 0x21E9 PUSH1 0x0 DUP6 ADD DUP3 PUSH2 0x21C4 JUMP JUMPDEST POP PUSH1 0x20 DUP3 ADD MLOAD PUSH2 0x21FC PUSH1 0x20 DUP6 ADD DUP3 PUSH2 0x21C4 JUMP JUMPDEST POP PUSH1 0x40 DUP3 ADD MLOAD PUSH2 0x220F PUSH1 0x40 DUP6 ADD DUP3 PUSH2 0x21C4 JUMP JUMPDEST POP POP POP POP JUMP JUMPDEST PUSH1 0x0 PUSH2 0x2221 DUP4 DUP4 PUSH2 0x21D3 JUMP JUMPDEST PUSH1 0x60 DUP4 ADD SWAP1 POP SWAP3 SWAP2 POP POP JUMP JUMPDEST PUSH1 0x0 PUSH1 0x20 DUP3 ADD SWAP1 POP SWAP2 SWAP1 POP JUMP JUMPDEST PUSH2 0x2243 DUP2 PUSH2 0x21A4 JUMP JUMPDEST PUSH2 0x224D DUP2 DUP5 PUSH2 0x21AF JUMP JUMPDEST SWAP3 POP PUSH2 0x2258 DUP3 PUSH2 0x21BA JUMP JUMPDEST DUP1 PUSH1 0x0 JUMPDEST DUP4 DUP2 LT ISZERO PUSH2 0x2289 JUMPI DUP2 MLOAD PUSH2 0x2270 DUP8 DUP3 PUSH2 0x2215 JUMP JUMPDEST SWAP7 POP PUSH2 0x227B DUP4 PUSH2 0x222D JUMP JUMPDEST SWAP3 POP POP PUSH1 0x1 DUP2 ADD SWAP1 POP PUSH2 0x225C JUMP JUMPDEST POP POP POP POP POP POP JUMP JUMPDEST PUSH1 0x0 DUP2 MLOAD SWAP1 POP SWAP2 SWAP1 POP JUMP JUMPDEST PUSH1 0x0 DUP3 DUP3 MSTORE PUSH1 0x20 DUP3 ADD SWAP1 POP SWAP3 SWAP2 POP POP JUMP JUMPDEST PUSH1 0x0 DUP2 SWAP1 POP PUSH1 0x20 DUP3 ADD SWAP1 POP SWAP2 SWAP1 POP JUMP JUMPDEST PUSH1 0x0 PUSH2 0x22C9 DUP4 DUP4 PUSH2 0x21C4 JUMP JUMPDEST PUSH1 0x20 DUP4 ADD SWAP1 POP SWAP3 SWAP2 POP POP JUMP JUMPDEST PUSH1 0x0 PUSH1 0x20 DUP3 ADD SWAP1 POP SWAP2 SWAP1 POP JUMP JUMPDEST PUSH1 0x0 PUSH2 0x22ED DUP3 PUSH2 0x2291 JUMP JUMPDEST PUSH2 0x22F7 DUP2 DUP6 PUSH2 0x229C JUMP JUMPDEST SWAP4 POP PUSH2 0x2302 DUP4 PUSH2 0x22AD JUMP JUMPDEST DUP1 PUSH1 0x0 JUMPDEST DUP4 DUP2 LT ISZERO PUSH2 0x2333 JUMPI DUP2 MLOAD PUSH2 0x231A DUP9 DUP3 PUSH2 0x22BD JUMP JUMPDEST SWAP8 POP PUSH2 0x2325 DUP4 PUSH2 0x22D5 JUMP JUMPDEST SWAP3 POP POP PUSH1 0x1 DUP2 ADD SWAP1 POP PUSH2 0x2306 JUMP JUMPDEST POP DUP6 SWAP4 POP POP POP POP SWAP3 SWAP2 POP POP JUMP JUMPDEST PUSH1 0x0 DUP2 ISZERO ISZERO SWAP1 POP SWAP2 SWAP1 POP JUMP JUMPDEST PUSH2 0x2355 DUP2 PUSH2 0x2340 JUMP JUMPDEST DUP3 MSTORE POP POP JUMP JUMPDEST PUSH1 0x0 PUSH2 0x940 DUP4 ADD PUSH1 0x0 DUP4 ADD MLOAD PUSH2 0x2374 PUSH1 0x0 DUP7 ADD DUP3 PUSH2 0x223A JUMP JUMPDEST POP PUSH1 0x20 DUP4 ADD MLOAD PUSH2 0x2388 PUSH2 0x3C0 DUP7 ADD DUP3 PUSH2 0x223A JUMP JUMPDEST POP PUSH1 0x40 DUP4 ADD MLOAD DUP5 DUP3 SUB PUSH2 0x780 DUP7 ADD MSTORE PUSH2 0x23A1 DUP3 DUP3 PUSH2 0x22E2 JUMP JUMPDEST SWAP2 POP POP PUSH1 0x60 DUP4 ADD MLOAD DUP5 DUP3 SUB PUSH2 0x7A0 DUP7 ADD MSTORE PUSH2 0x23BC DUP3 DUP3 PUSH2 0x22E2 JUMP JUMPDEST SWAP2 POP POP PUSH1 0x80 DUP4 ADD MLOAD DUP5 DUP3 SUB PUSH2 0x7C0 DUP7 ADD MSTORE PUSH2 0x23D7 DUP3 DUP3 PUSH2 0x22E2 JUMP JUMPDEST SWAP2 POP POP PUSH1 0xA0 DUP4 ADD MLOAD DUP5 DUP3 SUB PUSH2 0x7E0 DUP7 ADD MSTORE PUSH2 0x23F2 DUP3 DUP3 PUSH2 0x22E2 JUMP JUMPDEST SWAP2 POP POP PUSH1 0xC0 DUP4 ADD MLOAD PUSH2 0x2408 PUSH2 0x800 DUP7 ADD DUP3 PUSH2 0x21C4 JUMP JUMPDEST POP PUSH1 0xE0 DUP4 ADD MLOAD PUSH2 0x241C PUSH2 0x820 DUP7 ADD DUP3 PUSH2 0x21C4 JUMP JUMPDEST POP PUSH2 0x100 DUP4 ADD MLOAD PUSH2 0x2431 PUSH2 0x840 DUP7 ADD DUP3 PUSH2 0x21C4 JUMP JUMPDEST POP PUSH2 0x120 DUP4 ADD MLOAD PUSH2 0x2446 PUSH2 0x860 DUP7 ADD DUP3 PUSH2 0x21C4 JUMP JUMPDEST POP PUSH2 0x140 DUP4 ADD MLOAD PUSH2 0x245B PUSH2 0x880 DUP7 ADD DUP3 PUSH2 0x234C JUMP JUMPDEST POP PUSH2 0x160 DUP4 ADD MLOAD DUP5 DUP3 SUB PUSH2 0x8A0 DUP7 ADD MSTORE PUSH2 0x2475 DUP3 DUP3 PUSH2 0x22E2 JUMP JUMPDEST SWAP2 POP POP PUSH2 0x180 DUP4 ADD MLOAD DUP5 DUP3 SUB PUSH2 0x8C0 DUP7 ADD MSTORE PUSH2 0x2491 DUP3 DUP3 PUSH2 0x22E2 JUMP JUMPDEST SWAP2 POP POP PUSH2 0x1A0 DUP4 ADD MLOAD PUSH2 0x24A8 PUSH2 0x8E0 DUP7 ADD DUP3 PUSH2 0x21C4 JUMP JUMPDEST POP PUSH2 0x1C0 DUP4 ADD MLOAD PUSH2 0x24BD PUSH2 0x900 DUP7 ADD DUP3 PUSH2 0x234C JUMP JUMPDEST POP PUSH2 0x1E0 DUP4 ADD MLOAD PUSH2 0x24D2 PUSH2 0x920 DUP7 ADD DUP3 PUSH2 0x234C JUMP JUMPDEST POP DUP1 SWAP2 POP POP SWAP3 SWAP2 POP POP JUMP JUMPDEST PUSH1 0x0 PUSH1 0x5 SWAP1 POP SWAP2 SWAP1 POP JUMP JUMPDEST PUSH1 0x0 DUP2 SWAP1 POP SWAP3 SWAP2 POP POP JUMP JUMPDEST PUSH1 0x0 DUP2 SWAP1 POP SWAP2 SWAP1 POP JUMP JUMPDEST PUSH1 0x0 PUSH2 0x940 DUP4 ADD PUSH1 0x0 DUP4 ADD MLOAD PUSH2 0x2516 PUSH1 0x0 DUP7 ADD DUP3 PUSH2 0x223A JUMP JUMPDEST POP PUSH1 0x20 DUP4 ADD MLOAD PUSH2 0x252A PUSH2 0x3C0 DUP7 ADD DUP3 PUSH2 0x223A JUMP JUMPDEST POP PUSH1 0x40 DUP4 ADD MLOAD DUP5 DUP3 SUB PUSH2 0x780 DUP7 ADD MSTORE PUSH2 0x2543 DUP3 DUP3 PUSH2 0x22E2 JUMP JUMPDEST SWAP2 POP POP PUSH1 0x60 DUP4 ADD MLOAD DUP5 DUP3 SUB PUSH2 0x7A0 DUP7 ADD MSTORE PUSH2 0x255E DUP3 DUP3 PUSH2 0x22E2 JUMP JUMPDEST SWAP2 POP POP PUSH1 0x80 DUP4 ADD MLOAD DUP5 DUP3 SUB PUSH2 0x7C0 DUP7 ADD MSTORE PUSH2 0x2579 DUP3 DUP3 PUSH2 0x22E2 JUMP JUMPDEST SWAP2 POP POP PUSH1 0xA0 DUP4 ADD MLOAD DUP5 DUP3 SUB PUSH2 0x7E0 DUP7 ADD MSTORE PUSH2 0x2594 DUP3 DUP3 PUSH2 0x22E2 JUMP JUMPDEST SWAP2 POP POP PUSH1 0xC0 DUP4 ADD MLOAD PUSH2 0x25AA PUSH2 0x800 DUP7 ADD DUP3 PUSH2 0x21C4 JUMP JUMPDEST POP PUSH1 0xE0 DUP4 ADD MLOAD PUSH2 0x25BE PUSH2 0x820 DUP7 ADD DUP3 PUSH2 0x21C4 JUMP JUMPDEST POP PUSH2 0x100 DUP4 ADD MLOAD PUSH2 0x25D3 PUSH2 0x840 DUP7 ADD DUP3 PUSH2 0x21C4 JUMP JUMPDEST POP PUSH2 0x120 DUP4 ADD MLOAD PUSH2 0x25E8 PUSH2 0x860 DUP7 ADD DUP3 PUSH2 0x21C4 JUMP JUMPDEST POP PUSH2 0x140 DUP4 ADD MLOAD PUSH2 0x25FD PUSH2 0x880 DUP7 ADD DUP3 PUSH2 0x234C JUMP JUMPDEST POP PUSH2 0x160 DUP4 ADD MLOAD DUP5 DUP3 SUB PUSH2 0x8A0 DUP7 ADD MSTORE PUSH2 0x2617 DUP3 DUP3 PUSH2 0x22E2 JUMP JUMPDEST SWAP2 POP POP PUSH2 0x180 DUP4 ADD MLOAD DUP5 DUP3 SUB PUSH2 0x8C0 DUP7 ADD MSTORE PUSH2 0x2633 DUP3 DUP3 PUSH2 0x22E2 JUMP JUMPDEST SWAP2 POP POP PUSH2 0x1A0 DUP4 ADD MLOAD PUSH2 0x264A PUSH2 0x8E0 DUP7 ADD DUP3 PUSH2 0x21C4 JUMP JUMPDEST POP PUSH2 0x1C0 DUP4 ADD MLOAD PUSH2 0x265F PUSH2 0x900 DUP7 ADD DUP3 PUSH2 0x234C JUMP JUMPDEST POP PUSH2 0x1E0 DUP4 ADD MLOAD PUSH2 0x2674 PUSH2 0x920 DUP7 ADD DUP3 PUSH2 0x234C JUMP JUMPDEST POP DUP1 SWAP2 POP POP SWAP3 SWAP2 POP POP JUMP JUMPDEST PUSH1 0x0 PUSH2 0x268B DUP4 DUP4 PUSH2 0x24FD JUMP JUMPDEST SWAP1 POP SWAP3 SWAP2 POP POP JUMP JUMPDEST PUSH1 0x0 PUSH1 0x20 DUP3 ADD SWAP1 POP SWAP2 SWAP1 POP JUMP JUMPDEST PUSH1 0x0 PUSH2 0x26AB DUP3 PUSH2 0x24DD JUMP JUMPDEST PUSH2 0x26B5 DUP2 DUP6 PUSH2 0x24E8 JUMP JUMPDEST SWAP4 POP DUP4 PUSH1 0x20 DUP3 MUL DUP6 ADD PUSH2 0x26C7 DUP6 PUSH2 0x24F3 JUMP JUMPDEST DUP1 PUSH1 0x0 JUMPDEST DUP6 DUP2 LT ISZERO PUSH2 0x2703 JUMPI DUP5 DUP5 SUB DUP10 MSTORE DUP2 MLOAD PUSH2 0x26E4 DUP6 DUP3 PUSH2 0x267F JUMP JUMPDEST SWAP5 POP PUSH2 0x26EF DUP4 PUSH2 0x2693 JUMP JUMPDEST SWAP3 POP PUSH1 0x20 DUP11 ADD SWAP10 POP POP PUSH1 0x1 DUP2 ADD SWAP1 POP PUSH2 0x26CB JUMP JUMPDEST POP DUP3 SWAP8 POP DUP8 SWAP6 POP POP POP POP POP POP SWAP3 SWAP2 POP POP JUMP JUMPDEST PUSH1 0x0 PUSH1 0x40 DUP3 ADD SWAP1 POP DUP2 DUP2 SUB PUSH1 0x0 DUP4 ADD MSTORE PUSH2 0x272F DUP2 DUP6 PUSH2 0x235B JUMP JUMPDEST SWAP1 POP DUP2 DUP2 SUB PUSH1 0x20 DUP4 ADD MSTORE PUSH2 0x2743 DUP2 DUP5 PUSH2 0x26A0 JUMP JUMPDEST SWAP1 POP SWAP4 SWAP3 POP POP POP JUMP JUMPDEST PUSH1 0x0 DUP1 REVERT JUMPDEST PUSH1 0x0 DUP1 REVERT JUMPDEST PUSH1 0x0 PUSH1 0x1F NOT PUSH1 0x1F DUP4 ADD AND SWAP1 POP SWAP2 SWAP1 POP JUMP JUMPDEST PUSH32 0x4E487B7100000000000000000000000000000000000000000000000000000000 PUSH1 0x0 MSTORE PUSH1 0x41 PUSH1 0x4 MSTORE PUSH1 0x24 PUSH1 0x0 REVERT JUMPDEST PUSH2 0x279F DUP3 PUSH2 0x2756 JUMP JUMPDEST DUP2 ADD DUP2 DUP2 LT PUSH8 0xFFFFFFFFFFFFFFFF DUP3 GT OR ISZERO PUSH2 0x27BE JUMPI PUSH2 0x27BD PUSH2 0x2767 JUMP JUMPDEST JUMPDEST DUP1 PUSH1 0x40 MSTORE POP POP POP JUMP JUMPDEST PUSH1 0x0 PUSH2 0x27D1 PUSH2 0x2124 JUMP JUMPDEST SWAP1 POP PUSH2 0x27DD DUP3 DUP3 PUSH2 0x2796 JUMP JUMPDEST SWAP2 SWAP1 POP JUMP JUMPDEST PUSH1 0x0 PUSH8 0xFFFFFFFFFFFFFFFF DUP3 GT ISZERO PUSH2 0x27FD JUMPI PUSH2 0x27FC PUSH2 0x2767 JUMP JUMPDEST JUMPDEST PUSH2 0x2806 DUP3 PUSH2 0x2756 JUMP JUMPDEST SWAP1 POP PUSH1 0x20 DUP2 ADD SWAP1 POP SWAP2 SWAP1 POP JUMP JUMPDEST DUP3 DUP2 DUP4 CALLDATACOPY PUSH1 0x0 DUP4 DUP4 ADD MSTORE POP POP POP JUMP JUMPDEST PUSH1 0x0 PUSH2 0x2835 PUSH2 0x2830 DUP5 PUSH2 0x27E2 JUMP JUMPDEST PUSH2 0x27C7 JUMP JUMPDEST SWAP1 POP DUP3 DUP2 MSTORE PUSH1 0x20 DUP2 ADD DUP5 DUP5 DUP5 ADD GT ISZERO PUSH2 0x2851 JUMPI PUSH2 0x2850 PUSH2 0x2751 JUMP JUMPDEST JUMPDEST PUSH2 0x285C DUP5 DUP3 DUP6 PUSH2 0x2813 JUMP JUMPDEST POP SWAP4 SWAP3 POP POP POP JUMP JUMPDEST PUSH1 0x0 DUP3 PUSH1 0x1F DUP4 ADD SLT PUSH2 0x2879 JUMPI PUSH2 0x2878 PUSH2 0x274C JUMP JUMPDEST JUMPDEST DUP2 CALLDATALOAD PUSH2 0x2889 DUP5 DUP3 PUSH1 0x20 DUP7 ADD PUSH2 0x2822 JUMP JUMPDEST SWAP2 POP POP SWAP3 SWAP2 POP POP JUMP JUMPDEST PUSH1 0x0 DUP1 PUSH1 0x40 DUP4 DUP6 SUB SLT ISZERO PUSH2 0x28A9 JUMPI PUSH2 0x28A8 PUSH2 0x212E JUMP JUMPDEST JUMPDEST PUSH1 0x0 PUSH2 0x28B7 DUP6 DUP3 DUP7 ADD PUSH2 0x214F JUMP JUMPDEST SWAP3 POP POP PUSH1 0x20 DUP4 ADD CALLDATALOAD PUSH8 0xFFFFFFFFFFFFFFFF DUP2 GT ISZERO PUSH2 0x28D8 JUMPI PUSH2 0x28D7 PUSH2 0x2133 JUMP JUMPDEST JUMPDEST PUSH2 0x28E4 DUP6 DUP3 DUP7 ADD PUSH2 0x2864 JUMP JUMPDEST SWAP2 POP POP SWAP3 POP SWAP3 SWAP1 POP JUMP JUMPDEST PUSH1 0x0 PUSH1 0x20 DUP3 DUP5 SUB SLT ISZERO PUSH2 0x2904 JUMPI PUSH2 0x2903 PUSH2 0x212E JUMP JUMPDEST JUMPDEST PUSH1 0x0 PUSH2 0x2912 DUP5 DUP3 DUP6 ADD PUSH2 0x214F JUMP JUMPDEST SWAP2 POP POP SWAP3 SWAP2 POP POP JUMP JUMPDEST PUSH1 0x0 PUSH20 0xFFFFFFFFFFFFFFFFFFFFFFFFFFFFFFFFFFFFFFFF DUP3 AND SWAP1 POP SWAP2 SWAP1 POP JUMP JUMPDEST PUSH1 0x0 PUSH2 0x2946 DUP3 PUSH2 0x291B JUMP JUMPDEST SWAP1 POP SWAP2 SWAP1 POP JUMP JUMPDEST PUSH2 0x2956 DUP2 PUSH2 0x293B JUMP JUMPDEST DUP3 MSTORE POP POP JUMP JUMPDEST PUSH1 0x0 PUSH1 0xA0 DUP3 ADD SWAP1 POP PUSH2 0x2971 PUSH1 0x0 DUP4 ADD DUP9 PUSH2 0x20FA JUMP JUMPDEST PUSH2 0x297E PUSH1 0x20 DUP4 ADD DUP8 PUSH2 0x294D JUMP JUMPDEST PUSH2 0x298B PUSH1 0x40 DUP4 ADD DUP7 PUSH2 0x294D JUMP JUMPDEST PUSH2 0x2998 PUSH1 0x60 DUP4 ADD DUP6 PUSH2 0x294D JUMP JUMPDEST PUSH2 0x29A5 PUSH1 0x80 DUP4 ADD DUP5 PUSH2 0x294D JUMP JUMPDEST SWAP7 SWAP6 POP POP POP POP POP POP JUMP JUMPDEST PUSH1 0x0 PUSH1 0x20 DUP3 ADD SWAP1 POP PUSH2 0x29C4 PUSH1 0x0 DUP4 ADD DUP5 PUSH2 0x294D JUMP JUMPDEST SWAP3 SWAP2 POP POP JUMP JUMPDEST PUSH1 0x0 DUP1 REVERT JUMPDEST PUSH1 0x0 DUP1 REVERT JUMPDEST PUSH1 0x0 PUSH8 0xFFFFFFFFFFFFFFFF DUP3 GT ISZERO PUSH2 0x29EF JUMPI PUSH2 0x29EE PUSH2 0x2767 JUMP JUMPDEST JUMPDEST PUSH1 0x20 DUP3 MUL SWAP1 POP SWAP2 SWAP1 POP JUMP JUMPDEST PUSH1 0x0 DUP1 REVERT JUMPDEST PUSH1 0x0 PUSH1 0x60 DUP3 DUP5 SUB SLT ISZERO PUSH2 0x2A15 JUMPI PUSH2 0x2A14 PUSH2 0x29CA JUMP JUMPDEST JUMPDEST PUSH2 0x2A1F PUSH1 0x60 PUSH2 0x27C7 JUMP JUMPDEST SWAP1 POP PUSH1 0x0 PUSH2 0x2A2F DUP5 DUP3 DUP6 ADD PUSH2 0x214F JUMP JUMPDEST PUSH1 0x0 DUP4 ADD MSTORE POP PUSH1 0x20 PUSH2 0x2A43 DUP5 DUP3 DUP6 ADD PUSH2 0x214F JUMP JUMPDEST PUSH1 0x20 DUP4 ADD MSTORE POP PUSH1 0x40 PUSH2 0x2A57 DUP5 DUP3 DUP6 ADD PUSH2 0x214F JUMP JUMPDEST PUSH1 0x40 DUP4 ADD MSTORE POP SWAP3 SWAP2 POP POP JUMP JUMPDEST PUSH1 0x0 PUSH2 0x2A76 PUSH2 0x2A71 DUP5 PUSH2 0x29D4 JUMP JUMPDEST PUSH2 0x27C7 JUMP JUMPDEST SWAP1 POP DUP1 PUSH1 0x60 DUP5 MUL DUP4 ADD DUP6 DUP2 GT ISZERO PUSH2 0x2A90 JUMPI PUSH2 0x2A8F PUSH2 0x29FA JUMP JUMPDEST JUMPDEST DUP4 JUMPDEST DUP2 DUP2 LT ISZERO PUSH2 0x2AB9 JUMPI DUP1 PUSH2 0x2AA5 DUP9 DUP3 PUSH2 0x29FF JUMP JUMPDEST DUP5 MSTORE PUSH1 0x20 DUP5 ADD SWAP4 POP POP PUSH1 0x60 DUP2 ADD SWAP1 POP PUSH2 0x2A92 JUMP JUMPDEST POP POP POP SWAP4 SWAP3 POP POP POP JUMP JUMPDEST PUSH1 0x0 DUP3 PUSH1 0x1F DUP4 ADD SLT PUSH2 0x2AD8 JUMPI PUSH2 0x2AD7 PUSH2 0x274C JUMP JUMPDEST JUMPDEST PUSH1 0xA PUSH2 0x2AE5 DUP5 DUP3 DUP6 PUSH2 0x2A63 JUMP JUMPDEST SWAP2 POP POP SWAP3 SWAP2 POP POP JUMP JUMPDEST PUSH1 0x0 PUSH8 0xFFFFFFFFFFFFFFFF DUP3 GT ISZERO PUSH2 0x2B09 JUMPI PUSH2 0x2B08 PUSH2 0x2767 JUMP JUMPDEST JUMPDEST PUSH1 0x20 DUP3 MUL SWAP1 POP PUSH1 0x20 DUP2 ADD SWAP1 POP SWAP2 SWAP1 POP JUMP JUMPDEST PUSH1 0x0 PUSH2 0x2B2D PUSH2 0x2B28 DUP5 PUSH2 0x2AEE JUMP JUMPDEST PUSH2 0x27C7 JUMP JUMPDEST SWAP1 POP DUP1 DUP4 DUP3 MSTORE PUSH1 0x20 DUP3 ADD SWAP1 POP PUSH1 0x20 DUP5 MUL DUP4 ADD DUP6 DUP2 GT ISZERO PUSH2 0x2B50 JUMPI PUSH2 0x2B4F PUSH2 0x29FA JUMP JUMPDEST JUMPDEST DUP4 JUMPDEST DUP2 DUP2 LT ISZERO PUSH2 0x2B79 JUMPI DUP1 PUSH2 0x2B65 DUP9 DUP3 PUSH2 0x214F JUMP JUMPDEST DUP5 MSTORE PUSH1 0x20 DUP5 ADD SWAP4 POP POP PUSH1 0x20 DUP2 ADD SWAP1 POP PUSH2 0x2B52 JUMP JUMPDEST POP POP POP SWAP4 SWAP3 POP POP POP JUMP JUMPDEST PUSH1 0x0 DUP3 PUSH1 0x1F DUP4 ADD SLT PUSH2 0x2B98 JUMPI PUSH2 0x2B97 PUSH2 0x274C JUMP JUMPDEST JUMPDEST DUP2 CALLDATALOAD PUSH2 0x2BA8 DUP5 DUP3 PUSH1 0x20 DUP7 ADD PUSH2 0x2B1A JUMP JUMPDEST SWAP2 POP POP SWAP3 SWAP2 POP POP JUMP JUMPDEST PUSH2 0x2BBA DUP2 PUSH2 0x2340 JUMP JUMPDEST DUP2 EQ PUSH2 0x2BC5 JUMPI PUSH1 0x0 DUP1 REVERT JUMPDEST POP JUMP JUMPDEST PUSH1 0x0 DUP2 CALLDATALOAD SWAP1 POP PUSH2 0x2BD7 DUP2 PUSH2 0x2BB1 JUMP JUMPDEST SWAP3 SWAP2 POP POP JUMP JUMPDEST PUSH1 0x0 PUSH2 0x940 DUP3 DUP5 SUB SLT ISZERO PUSH2 0x2BF4 JUMPI PUSH2 0x2BF3 PUSH2 0x29CA JUMP JUMPDEST JUMPDEST PUSH2 0x2BFF PUSH2 0x200 PUSH2 0x27C7 JUMP JUMPDEST SWAP1 POP PUSH1 0x0 PUSH2 0x2C0F DUP5 DUP3 DUP6 ADD PUSH2 0x2AC3 JUMP JUMPDEST PUSH1 0x0 DUP4 ADD MSTORE POP PUSH2 0x3C0 PUSH2 0x2C24 DUP5 DUP3 DUP6 ADD PUSH2 0x2AC3 JUMP JUMPDEST PUSH1 0x20 DUP4 ADD MSTORE POP PUSH2 0x780 DUP3 ADD CALLDATALOAD PUSH8 0xFFFFFFFFFFFFFFFF DUP2 GT ISZERO PUSH2 0x2C49 JUMPI PUSH2 0x2C48 PUSH2 0x29CF JUMP JUMPDEST JUMPDEST PUSH2 0x2C55 DUP5 DUP3 DUP6 ADD PUSH2 0x2B83 JUMP JUMPDEST PUSH1 0x40 DUP4 ADD MSTORE POP PUSH2 0x7A0 DUP3 ADD CALLDATALOAD PUSH8 0xFFFFFFFFFFFFFFFF DUP2 GT ISZERO PUSH2 0x2C7A JUMPI PUSH2 0x2C79 PUSH2 0x29CF JUMP JUMPDEST JUMPDEST PUSH2 0x2C86 DUP5 DUP3 DUP6 ADD PUSH2 0x2B83 JUMP JUMPDEST PUSH1 0x60 DUP4 ADD MSTORE POP PUSH2 0x7C0 DUP3 ADD CALLDATALOAD PUSH8 0xFFFFFFFFFFFFFFFF DUP2 GT ISZERO PUSH2 0x2CAB JUMPI PUSH2 0x2CAA PUSH2 0x29CF JUMP JUMPDEST JUMPDEST PUSH2 0x2CB7 DUP5 DUP3 DUP6 ADD PUSH2 0x2B83 JUMP JUMPDEST PUSH1 0x80 DUP4 ADD MSTORE POP PUSH2 0x7E0 DUP3 ADD CALLDATALOAD PUSH8 0xFFFFFFFFFFFFFFFF DUP2 GT ISZERO PUSH2 0x2CDC JUMPI PUSH2 0x2CDB PUSH2 0x29CF JUMP JUMPDEST JUMPDEST PUSH2 0x2CE8 DUP5 DUP3 DUP6 ADD PUSH2 0x2B83 JUMP JUMPDEST PUSH1 0xA0 DUP4 ADD MSTORE POP PUSH2 0x800 PUSH2 0x2CFD DUP5 DUP3 DUP6 ADD PUSH2 0x214F JUMP JUMPDEST PUSH1 0xC0 DUP4 ADD MSTORE POP PUSH2 0x820 PUSH2 0x2D12 DUP5 DUP3 DUP6 ADD PUSH2 0x214F JUMP JUMPDEST PUSH1 0xE0 DUP4 ADD MSTORE POP PUSH2 0x840 PUSH2 0x2D27 DUP5 DUP3 DUP6 ADD PUSH2 0x214F JUMP JUMPDEST PUSH2 0x100 DUP4 ADD MSTORE POP PUSH2 0x860 PUSH2 0x2D3D DUP5 DUP3 DUP6 ADD PUSH2 0x214F JUMP JUMPDEST PUSH2 0x120 DUP4 ADD MSTORE POP PUSH2 0x880 PUSH2 0x2D53 DUP5 DUP3 DUP6 ADD PUSH2 0x2BC8 JUMP JUMPDEST PUSH2 0x140 DUP4 ADD MSTORE POP PUSH2 0x8A0 DUP3 ADD CALLDATALOAD PUSH8 0xFFFFFFFFFFFFFFFF DUP2 GT ISZERO PUSH2 0x2D79 JUMPI PUSH2 0x2D78 PUSH2 0x29CF JUMP JUMPDEST JUMPDEST PUSH2 0x2D85 DUP5 DUP3 DUP6 ADD PUSH2 0x2B83 JUMP JUMPDEST PUSH2 0x160 DUP4 ADD MSTORE POP PUSH2 0x8C0 DUP3 ADD CALLDATALOAD PUSH8 0xFFFFFFFFFFFFFFFF DUP2 GT ISZERO PUSH2 0x2DAB JUMPI PUSH2 0x2DAA PUSH2 0x29CF JUMP JUMPDEST JUMPDEST PUSH2 0x2DB7 DUP5 DUP3 DUP6 ADD PUSH2 0x2B83 JUMP JUMPDEST PUSH2 0x180 DUP4 ADD MSTORE POP PUSH2 0x8E0 PUSH2 0x2DCD DUP5 DUP3 DUP6 ADD PUSH2 0x214F JUMP JUMPDEST PUSH2 0x1A0 DUP4 ADD MSTORE POP PUSH2 0x900 PUSH2 0x2DE3 DUP5 DUP3 DUP6 ADD PUSH2 0x2BC8 JUMP JUMPDEST PUSH2 0x1C0 DUP4 ADD MSTORE POP PUSH2 0x920 PUSH2 0x2DF9 DUP5 DUP3 DUP6 ADD PUSH2 0x2BC8 JUMP JUMPDEST PUSH2 0x1E0 DUP4 ADD MSTORE POP SWAP3 SWAP2 POP POP JUMP JUMPDEST PUSH1 0x0 DUP1 PUSH1 0x40 DUP4 DUP6 SUB SLT ISZERO PUSH2 0x2E1D JUMPI PUSH2 0x2E1C PUSH2 0x212E JUMP JUMPDEST JUMPDEST PUSH1 0x0 PUSH2 0x2E2B DUP6 DUP3 DUP7 ADD PUSH2 0x214F JUMP JUMPDEST SWAP3 POP POP PUSH1 0x20 DUP4 ADD CALLDATALOAD PUSH8 0xFFFFFFFFFFFFFFFF DUP2 GT ISZERO PUSH2 0x2E4C JUMPI PUSH2 0x2E4B PUSH2 0x2133 JUMP JUMPDEST JUMPDEST PUSH2 0x2E58 DUP6 DUP3 DUP7 ADD PUSH2 0x2BDD JUMP JUMPDEST SWAP2 POP POP SWAP3 POP SWAP3 SWAP1 POP JUMP JUMPDEST PUSH2 0x2E6B DUP2 PUSH2 0x2340 JUMP JUMPDEST DUP3 MSTORE POP POP JUMP JUMPDEST PUSH1 0x0 PUSH2 0x100 DUP3 ADD SWAP1 POP PUSH2 0x2E87 PUSH1 0x0 DUP4 ADD DUP12 PUSH2 0x20FA JUMP JUMPDEST PUSH2 0x2E94 PUSH1 0x20 DUP4 ADD DUP11 PUSH2 0x20FA JUMP JUMPDEST PUSH2 0x2EA1 PUSH1 0x40 DUP4 ADD DUP10 PUSH2 0x20FA JUMP JUMPDEST PUSH2 0x2EAE PUSH1 0x60 DUP4 ADD DUP9 PUSH2 0x20FA JUMP JUMPDEST PUSH2 0x2EBB PUSH1 0x80 DUP4 ADD DUP8 PUSH2 0x2E62 JUMP JUMPDEST PUSH2 0x2EC8 PUSH1 0xA0 DUP4 ADD DUP7 PUSH2 0x20FA JUMP JUMPDEST PUSH2 0x2ED5 PUSH1 0xC0 DUP4 ADD DUP6 PUSH2 0x2E62 JUMP JUMPDEST PUSH2 0x2EE2 PUSH1 0xE0 DUP4 ADD DUP5 PUSH2 0x2E62 JUMP JUMPDEST SWAP10 SWAP9 POP POP POP POP POP POP POP POP POP JUMP JUMPDEST PUSH32 0x4E487B7100000000000000000000000000000000000000000000000000000000 PUSH1 0x0 MSTORE PUSH1 0x32 PUSH1 0x4 MSTORE PUSH1 0x24 PUSH1 0x0 REVERT JUMPDEST PUSH32 0x4E487B7100000000000000000000000000000000000000000000000000000000 PUSH1 0x0 MSTORE PUSH1 0x11 PUSH1 0x4 MSTORE PUSH1 0x24 PUSH1 0x0 REVERT JUMPDEST PUSH1 0x0 PUSH2 0x2F58 DUP3 PUSH2 0x20F0 JUMP JUMPDEST SWAP2 POP PUSH32 0xFFFFFFFFFFFFFFFFFFFFFFFFFFFFFFFFFFFFFFFFFFFFFFFFFFFFFFFFFFFFFFFF DUP3 SUB PUSH2 0x2F8A JUMPI PUSH2 0x2F89 PUSH2 0x2F1E JUMP JUMPDEST JUMPDEST PUSH1 0x1 DUP3 ADD SWAP1 POP SWAP2 SWAP1 POP JUMP JUMPDEST PUSH1 0x0 PUSH2 0x2FA0 DUP3 PUSH2 0x20F0 JUMP JUMPDEST SWAP2 POP PUSH2 0x2FAB DUP4 PUSH2 0x20F0 JUMP JUMPDEST SWAP3 POP DUP3 DUP3 ADD SWAP1 POP DUP1 DUP3 GT ISZERO PUSH2 0x2FC3 JUMPI PUSH2 0x2FC2 PUSH2 0x2F1E JUMP JUMPDEST JUMPDEST SWAP3 SWAP2 POP POP JUMP JUMPDEST PUSH1 0x0 PUSH2 0x2FD4 DUP3 PUSH2 0x20F0 JUMP JUMPDEST SWAP2 POP PUSH2 0x2FDF DUP4 PUSH2 0x20F0 JUMP JUMPDEST SWAP3 POP DUP3 DUP3 SUB SWAP1 POP DUP2 DUP2 GT ISZERO PUSH2 0x2FF7 JUMPI PUSH2 0x2FF6 PUSH2 0x2F1E JUMP JUMPDEST JUMPDEST SWAP3 SWAP2 POP POP JUMP JUMPDEST PUSH1 0x0 PUSH2 0x3008 DUP3 PUSH2 0x20F0 JUMP JUMPDEST SWAP2 POP PUSH1 0x0 DUP3 SUB PUSH2 0x301B JUMPI PUSH2 0x301A PUSH2 0x2F1E JUMP JUMPDEST JUMPDEST PUSH1 0x1 DUP3 SUB SWAP1 POP SWAP2 SWAP1 POP JUMP JUMPDEST PUSH1 0x0 DUP2 MLOAD SWAP1 POP SWAP2 SWAP1 POP JUMP JUMPDEST PUSH1 0x0 DUP3 DUP3 MSTORE PUSH1 0x20 DUP3 ADD SWAP1 POP SWAP3 SWAP2 POP POP JUMP JUMPDEST PUSH1 0x0 JUMPDEST DUP4 DUP2 LT ISZERO PUSH2 0x3060 JUMPI DUP1 DUP3 ADD MLOAD DUP2 DUP5 ADD MSTORE PUSH1 0x20 DUP2 ADD SWAP1 POP PUSH2 0x3045 JUMP JUMPDEST PUSH1 0x0 DUP5 DUP5 ADD MSTORE POP POP POP POP JUMP JUMPDEST PUSH1 0x0 PUSH2 0x3077 DUP3 PUSH2 0x3026 JUMP JUMPDEST PUSH2 0x3081 DUP2 DUP6 PUSH2 0x3031 JUMP JUMPDEST SWAP4 POP PUSH2 0x3091 DUP2 DUP6 PUSH1 0x20 DUP7 ADD PUSH2 0x3042 JUMP JUMPDEST PUSH2 0x309A DUP2 PUSH2 0x2756 JUMP JUMPDEST DUP5 ADD SWAP2 POP POP SWAP3 SWAP2 POP POP JUMP JUMPDEST PUSH1 0x0 PUSH1 0x40 DUP3 ADD SWAP1 POP DUP2 DUP2 SUB PUSH1 0x0 DUP4 ADD MSTORE PUSH2 0x30BF DUP2 DUP6 PUSH2 0x306C JUMP JUMPDEST SWAP1 POP PUSH2 0x30CE PUSH1 0x20 DUP4 ADD DUP5 PUSH2 0x20FA JUMP JUMPDEST SWAP4 SWAP3 POP POP POP JUMP JUMPDEST PUSH1 0x0 DUP2 SWAP1 POP SWAP2 SWAP1 POP JUMP JUMPDEST PUSH1 0x0 PUSH2 0x30EA DUP3 PUSH2 0x30D5 JUMP JUMPDEST SWAP2 POP PUSH2 0x30F5 DUP4 PUSH2 0x30D5 JUMP JUMPDEST SWAP3 POP DUP3 DUP3 SUB SWAP1 POP DUP2 DUP2 SLT PUSH1 0x0 DUP5 SLT AND DUP3 DUP3 SGT PUSH1 0x0 DUP6 SLT ISZERO AND OR ISZERO PUSH2 0x311C JUMPI PUSH2 0x311B PUSH2 0x2F1E JUMP JUMPDEST JUMPDEST SWAP3 SWAP2 POP POP JUMP JUMPDEST PUSH1 0x0 PUSH2 0x312D DUP3 PUSH2 0x30D5 JUMP JUMPDEST SWAP2 POP PUSH2 0x3138 DUP4 PUSH2 0x30D5 JUMP JUMPDEST SWAP3 POP DUP3 DUP3 MUL PUSH2 0x3146 DUP2 PUSH2 0x30D5 JUMP JUMPDEST SWAP2 POP PUSH32 0x8000000000000000000000000000000000000000000000000000000000000000 DUP5 EQ PUSH1 0x0 DUP5 SLT AND ISZERO PUSH2 0x317E JUMPI PUSH2 0x317D PUSH2 0x2F1E JUMP JUMPDEST JUMPDEST DUP3 DUP3 SDIV DUP5 EQ DUP4 ISZERO OR PUSH2 0x3193 JUMPI PUSH2 0x3192 PUSH2 0x2F1E JUMP JUMPDEST JUMPDEST POP SWAP3 SWAP2 POP POP JUMP JUMPDEST PUSH32 0x4E487B7100000000000000000000000000000000000000000000000000000000 PUSH1 0x0 MSTORE PUSH1 0x12 PUSH1 0x4 MSTORE PUSH1 0x24 PUSH1 0x0 REVERT JUMPDEST PUSH1 0x0 PUSH2 0x31D4 DUP3 PUSH2 0x30D5 JUMP JUMPDEST SWAP2 POP PUSH2 0x31DF DUP4 PUSH2 0x30D5 JUMP JUMPDEST SWAP3 POP DUP3 PUSH2 0x31EF JUMPI PUSH2 0x31EE PUSH2 0x319A JUMP JUMPDEST JUMPDEST PUSH1 0x1 PUSH1 0x0 SUB DUP4 EQ PUSH32 0x8000000000000000000000000000000000000000000000000000000000000000 DUP4 EQ AND ISZERO PUSH2 0x3228 JUMPI PUSH2 0x3227 PUSH2 0x2F1E JUMP JUMPDEST JUMPDEST DUP3 DUP3 SDIV SWAP1 POP SWAP3 SWAP2 POP POP JUMP JUMPDEST PUSH1 0x0 PUSH2 0x323E DUP3 PUSH2 0x20F0 JUMP JUMPDEST SWAP2 POP PUSH2 0x3249 DUP4 PUSH2 0x20F0 JUMP JUMPDEST SWAP3 POP DUP3 PUSH2 0x3259 JUMPI PUSH2 0x3258 PUSH2 0x319A JUMP JUMPDEST JUMPDEST DUP3 DUP3 DIV SWAP1 POP SWAP3 SWAP2 POP POP JUMP JUMPDEST PUSH1 0x0 PUSH2 0x326F DUP3 PUSH2 0x30D5 JUMP JUMPDEST SWAP2 POP PUSH32 0x8000000000000000000000000000000000000000000000000000000000000000 DUP3 SUB PUSH2 0x32A1 JUMPI PUSH2 0x32A0 PUSH2 0x2F1E JUMP JUMPDEST JUMPDEST DUP2 PUSH1 0x0 SUB SWAP1 POP SWAP2 SWAP1 POP JUMP JUMPDEST PUSH1 0x0 PUSH2 0x32B7 DUP3 PUSH2 0x20F0 JUMP JUMPDEST SWAP2 POP PUSH2 0x32C2 DUP4 PUSH2 0x20F0 JUMP JUMPDEST SWAP3 POP DUP3 DUP3 MUL PUSH2 0x32D0 DUP2 PUSH2 0x20F0 JUMP JUMPDEST SWAP2 POP DUP3 DUP3 DIV DUP5 EQ DUP4 ISZERO OR PUSH2 0x32E7 JUMPI PUSH2 0x32E6 PUSH2 0x2F1E JUMP JUMPDEST JUMPDEST POP SWAP3 SWAP2 POP POP JUMP JUMPDEST PUSH1 0x0 PUSH1 0x20 DUP3 ADD SWAP1 POP DUP2 DUP2 SUB PUSH1 0x0 DUP4 ADD MSTORE PUSH2 0x3308 DUP2 DUP5 PUSH2 0x306C JUMP JUMPDEST SWAP1 POP SWAP3 SWAP2 POP POP JUMP INVALID LOG2 PUSH5 0x6970667358 0x22 SLT KECCAK256 ISZERO 0xAB 0x1F 0xDD 0xA7 SWAP11 0xD9 0xC0 0x27 0xAC PUSH23 0x1115483D5D5F69364F4345437ED87684FDA5CFFE926473 PUSH16 0x6C634300081200330000000000000000 "},"methodIdentifiers":{"BALL_STEPS_PER_MOVE()":"734692a9","FIELD_H()":"124a96c8","FIELD_W()":"49bbc37a","PLAYER_STEPS_PER_MOVE()":"39febf0c","commitmentTick()":"f1a18266","createMatch()":"a0cc641a","dispute()":"f240f7c3","joinMatch()":"02c0cdc4","matchCounter()":"01fd1951","matchIdToMoveId(uint256)":"502d4755","matchProgression(uint256,uint256)":"ea302bdb","matches(uint256)":"4768d4ef","playout(uint256,uint256)":"2db146cf","revealTick()":"4b46db95","stateUpdateTick(uint256,((uint256,uint256,uint256)[10],(uint256,uint256,uint256)[10],uint256[],uint256[],uint256[],uint256[],uint256,uint256,uint256,uint256,bool,uint256[],uint256[],uint256,bool,bool))":"acb20101","ticker()":"8ba47bdd","updateCommitmentInfo(uint256,bytes)":"41ba6321","updateRevealInfo(uint256,bytes)":"960c68d0"}}}}}