{"contracts/GameManager.sol":{"GameManager":{"abi":[{"inputs":[{"internalType":"address","name":"_logic","type":"address"}],"stateMutability":"nonpayable","type":"constructor"},{"anonymous":false,"inputs":[{"indexed":false,"internalType":"uint256","name":"matchId","type":"uint256"},{"indexed":false,"internalType":"enum Types.MATCH_STAGE","name":"stage","type":"uint8"}],"name":"MatchEnteredStage","type":"event"},{"inputs":[],"name":"BALL_STEPS_PER_MOVE","outputs":[{"internalType":"uint256","name":"","type":"uint256"}],"stateMutability":"view","type":"function"},{"inputs":[],"name":"BITS_PER_PLAYER_X_POS","outputs":[{"internalType":"uint256","name":"","type":"uint256"}],"stateMutability":"view","type":"function"},{"inputs":[],"name":"BITS_PER_PLAYER_Y_POS","outputs":[{"internalType":"uint256","name":"","type":"uint256"}],"stateMutability":"view","type":"function"},{"inputs":[],"name":"FIELD_H","outputs":[{"internalType":"uint256","name":"","type":"uint256"}],"stateMutability":"view","type":"function"},{"inputs":[],"name":"FIELD_W","outputs":[{"internalType":"uint256","name":"","type":"uint256"}],"stateMutability":"view","type":"function"},{"inputs":[],"name":"MAX_BALL_DISTANCE_REQUIRED","outputs":[{"internalType":"uint256","name":"","type":"uint256"}],"stateMutability":"view","type":"function"},{"inputs":[],"name":"NUMBER_OF_PLAYERS_PER_TEAM","outputs":[{"internalType":"uint256","name":"","type":"uint256"}],"stateMutability":"view","type":"function"},{"inputs":[],"name":"NUMBER_OF_TEAMS","outputs":[{"internalType":"uint256","name":"","type":"uint256"}],"stateMutability":"view","type":"function"},{"inputs":[],"name":"PLAYER_STEPS_PER_MOVE","outputs":[{"internalType":"uint256","name":"","type":"uint256"}],"stateMutability":"view","type":"function"},{"inputs":[],"name":"STAMINA_REQUIREMENT_FOR_ADVANCEMENT","outputs":[{"internalType":"uint256","name":"","type":"uint256"}],"stateMutability":"view","type":"function"},{"inputs":[{"internalType":"uint256","name":"matchId","type":"uint256"}],"name":"commitmentTick","outputs":[],"stateMutability":"nonpayable","type":"function"},{"inputs":[],"name":"constants","outputs":[{"internalType":"contract Constants","name":"","type":"address"}],"stateMutability":"view","type":"function"},{"inputs":[{"internalType":"address","name":"commitmentFunctionConsumer","type":"address"},{"internalType":"address","name":"revealFunctionConsumer","type":"address"}],"name":"createMatch","outputs":[],"stateMutability":"nonpayable","type":"function"},{"inputs":[{"internalType":"uint256","name":"matchId","type":"uint256"},{"internalType":"address","name":"commitmentFunctionConsumer","type":"address"},{"internalType":"address","name":"revealFunctionConsumer","type":"address"}],"name":"joinMatch","outputs":[],"stateMutability":"nonpayable","type":"function"},{"inputs":[],"name":"logic","outputs":[{"internalType":"address","name":"","type":"address"}],"stateMutability":"view","type":"function"},{"inputs":[],"name":"matchCounter","outputs":[{"internalType":"uint256","name":"","type":"uint256"}],"stateMutability":"view","type":"function"},{"inputs":[{"internalType":"uint256","name":"","type":"uint256"}],"name":"matchIdToMatchStateId","outputs":[{"internalType":"uint256","name":"","type":"uint256"}],"stateMutability":"view","type":"function"},{"inputs":[{"internalType":"uint256","name":"","type":"uint256"}],"name":"matchInfo","outputs":[{"internalType":"uint256","name":"seed","type":"uint256"},{"internalType":"enum Types.MATCH_STAGE","name":"stage","type":"uint8"},{"internalType":"uint256","name":"stateId","type":"uint256"}],"stateMutability":"view","type":"function"},{"inputs":[{"internalType":"uint256","name":"matchId","type":"uint256"}],"name":"revealTick","outputs":[],"stateMutability":"nonpayable","type":"function"},{"inputs":[{"internalType":"uint256","name":"","type":"uint256"}],"name":"seedRequestIdMatchId","outputs":[{"internalType":"uint256","name":"","type":"uint256"}],"stateMutability":"view","type":"function"},{"inputs":[{"internalType":"uint256","name":"","type":"uint256"},{"internalType":"uint256","name":"","type":"uint256"},{"internalType":"uint256","name":"","type":"uint256"}],"name":"teamMove","outputs":[{"internalType":"bytes","name":"commitment","type":"bytes"},{"internalType":"bytes","name":"reveal","type":"bytes"},{"internalType":"bool","name":"wantToPass","type":"bool"},{"internalType":"uint256","name":"receivingPlayerId","type":"uint256"},{"internalType":"bool","name":"wantToShoot","type":"bool"}],"stateMutability":"view","type":"function"},{"inputs":[],"name":"ticker","outputs":[{"internalType":"address","name":"","type":"address"}],"stateMutability":"view","type":"function"},{"inputs":[{"internalType":"uint256","name":"matchId","type":"uint256"}],"name":"updateCommitmentInfo","outputs":[],"stateMutability":"nonpayable","type":"function"},{"inputs":[{"internalType":"uint256","name":"matchId","type":"uint256"}],"name":"updateRevealInfo","outputs":[],"stateMutability":"nonpayable","type":"function"}],"evm":{"bytecode":{"linkReferences":{},"object":"60806040523480156200001157600080fd5b5060405162003de238038062003de2833981810160405281019062000037919062000162565b6040516200004590620000ea565b604051809103906000f08015801562000062573d6000803e3d6000fd5b506000806101000a81548173ffffffffffffffffffffffffffffffffffffffff021916908373ffffffffffffffffffffffffffffffffffffffff16021790555080600160006101000a81548173ffffffffffffffffffffffffffffffffffffffff021916908373ffffffffffffffffffffffffffffffffffffffff1602179055505062000194565b61028d8062003b5583390190565b600080fd5b600073ffffffffffffffffffffffffffffffffffffffff82169050919050565b60006200012a82620000fd565b9050919050565b6200013c816200011d565b81146200014857600080fd5b50565b6000815190506200015c8162000131565b92915050565b6000602082840312156200017b576200017a620000f8565b5b60006200018b848285016200014b565b91505092915050565b6139b180620001a46000396000f3fe608060405234801561001057600080fd5b50600436106101585760003560e01c8063705dd6cd116100c3578063ae5c13561161007c578063ae5c1356146103a9578063c8067b6f146103c7578063d79b490e146103e5578063d7dfa0dd14610417578063e3c8bfb914610435578063f97810331461045357610158565b8063705dd6cd146102e557806372de5b2f14610303578063734692a914610321578063755f10fd1461033f5780638ba47bdd1461036f57806390ede5d51461038d57610158565b806337c747791161011557806337c747791461022157806339febf0c1461025157806345baee551461026f57806349bbc37a1461028d5780634ffdf11e146102ab5780635cd6925a146102c957610158565b806301fd19511461015d578063124a96c81461017b5780631b7d40a5146101995780631e20530a146101cd57806327764f7d146101e957806335868ab714610205575b600080fd5b61016561046f565b60405161017291906127c5565b60405180910390f35b610183610475565b60405161019091906127c5565b60405180910390f35b6101b360048036038101906101ae9190612820565b61047b565b6040516101c495949392919061291e565b60405180910390f35b6101e760048036038101906101e291906129dd565b610605565b005b61020360048036038101906101fe9190612a1d565b610785565b005b61021f600480360381019061021a9190612a4a565b610b93565b005b61023b60048036038101906102369190612a1d565b610d7c565b60405161024891906127c5565b60405180910390f35b610259610d94565b60405161026691906127c5565b60405180910390f35b610277610d99565b60405161028491906127c5565b60405180910390f35b610295610d9e565b6040516102a291906127c5565b60405180910390f35b6102b3610da4565b6040516102c091906127c5565b60405180910390f35b6102e360048036038101906102de9190612a1d565b610da9565b005b6102ed6110c6565b6040516102fa91906127c5565b60405180910390f35b61030b6110cb565b6040516103189190612afc565b60405180910390f35b6103296110ef565b60405161033691906127c5565b60405180910390f35b61035960048036038101906103549190612a1d565b6110f4565b60405161036691906127c5565b60405180910390f35b61037761110c565b6040516103849190612b26565b60405180910390f35b6103a760048036038101906103a29190612a1d565b611132565b005b6103b1611540565b6040516103be91906127c5565b60405180910390f35b6103cf611545565b6040516103dc91906127c5565b60405180910390f35b6103ff60048036038101906103fa9190612a1d565b61154a565b60405161040e93929190612bb8565b60405180910390f35b61041f611581565b60405161042c9190612b26565b60405180910390f35b61043d6115a7565b60405161044a91906127c5565b60405180910390f35b61046d60048036038101906104689190612a1d565b6115ac565b005b60035481565b6101f481565b600960205282600052604060002060205281600052604060002081815481106104a357600080fd5b906000526020600020906007020160009250925050508060000180546104c890612c1e565b80601f01602080910402602001604051908101604052809291908181526020018280546104f490612c1e565b80156105415780601f1061051657610100808354040283529160200191610541565b820191906000526020600020905b81548152906001019060200180831161052457829003601f168201915b50505050509080600101805461055690612c1e565b80601f016020809104026020016040519081016040528092919081815260200182805461058290612c1e565b80156105cf5780601f106105a4576101008083540402835291602001916105cf565b820191906000526020600020905b8154815290600101906020018083116105b257829003601f168201915b5050505050908060040160009054906101000a900460ff16908060050154908060060160009054906101000a900460ff16905085565b60006003549050610617816000611801565b600060046000838152602001908152602001600020905060018160030160006101000a81548160ff0219169083600a81111561065657610655612b41565b5b0217905550838160010160008154811061067357610672612c4f565b5b9060005260206000200160006101000a81548173ffffffffffffffffffffffffffffffffffffffff021916908373ffffffffffffffffffffffffffffffffffffffff16021790555082816002016000815481106106d3576106d2612c4f565b5b9060005260206000200160006101000a81548173ffffffffffffffffffffffffffffffffffffffff021916908373ffffffffffffffffffffffffffffffffffffffff16021790555060016003600082825461072e9190612cad565b925050819055507f58d4562cf15d1052e816fd24f6af2c8a3a21416d6e4c01a9e11ef84ffe537e25828260030160009054906101000a900460ff16604051610777929190612ce1565b60405180910390a150505050565b60006004600083815260200190815260200160002090506007600a8111156107b0576107af612b41565b5b8160030160009054906101000a900460ff16600a8111156107d4576107d3612b41565b5b14610814576040517f08c379a000000000000000000000000000000000000000000000000000000000815260040161080b90612d8d565b60405180910390fd5b60005b60008054906101000a900473ffffffffffffffffffffffffffffffffffffffff1673ffffffffffffffffffffffffffffffffffffffff1663e3c8bfb96040518163ffffffff1660e01b8152600401602060405180830381865afa158015610882573d6000803e3d6000fd5b505050506040513d601f19601f820116820180604052508101906108a69190612dc2565b8110156109ac578160020181815481106108c3576108c2612c4f565b5b9060005260206000200160009054906101000a900473ffffffffffffffffffffffffffffffffffffffff1673ffffffffffffffffffffffffffffffffffffffff1663cce710636040518163ffffffff1660e01b8152600401602060405180830381865afa158015610938573d6000803e3d6000fd5b505050506040513d601f19601f8201168201806040525081019061095c9190612e1b565b61099b576040517f08c379a000000000000000000000000000000000000000000000000000000000815260040161099290612eba565b60405180910390fd5b806109a590612eda565b9050610817565b5060005b60008054906101000a900473ffffffffffffffffffffffffffffffffffffffff1673ffffffffffffffffffffffffffffffffffffffff1663e3c8bfb96040518163ffffffff1660e01b8152600401602060405180830381865afa158015610a1b573d6000803e3d6000fd5b505050506040513d601f19601f82011682018060405250810190610a3f9190612dc2565b811015610b1757610b068382846002018481548110610a6157610a60612c4f565b5b9060005260206000200160009054906101000a900473ffffffffffffffffffffffffffffffffffffffff1673ffffffffffffffffffffffffffffffffffffffff16632f703e086040518163ffffffff1660e01b81526004016000604051808303816000875af1158015610ad8573d6000803e3d6000fd5b505050506040513d6000823e3d601f19601f82011682018060405250810190610b019190613048565b611d4f565b80610b1090612eda565b90506109b0565b5060088160030160006101000a81548160ff0219169083600a811115610b4057610b3f612b41565b5b02179055507f58d4562cf15d1052e816fd24f6af2c8a3a21416d6e4c01a9e11ef84ffe537e25828260030160009054906101000a900460ff16604051610b87929190612ce1565b60405180910390a15050565b60006004600085815260200190815260200160002090506001600a811115610bbe57610bbd612b41565b5b8160030160009054906101000a900460ff16600a811115610be257610be1612b41565b5b14610c22576040517f08c379a0000000000000000000000000000000000000000000000000000000008152600401610c1990613103565b60405180910390fd5b8281600101600181548110610c3a57610c39612c4f565b5b9060005260206000200160006101000a81548173ffffffffffffffffffffffffffffffffffffffff021916908373ffffffffffffffffffffffffffffffffffffffff1602179055508181600201600181548110610c9a57610c99612c4f565b5b9060005260206000200160006101000a81548173ffffffffffffffffffffffffffffffffffffffff021916908373ffffffffffffffffffffffffffffffffffffffff16021790555060028160030160006101000a81548160ff0219169083600a811115610d0a57610d09612b41565b5b0217905550610d18846124be565b610d2c610515670adbf78816ee7165612577565b7f58d4562cf15d1052e816fd24f6af2c8a3a21416d6e4c01a9e11ef84ffe537e25848260030160009054906101000a900460ff16604051610d6e929190612ce1565b60405180910390a150505050565b60056020528060005260406000206000915090505481565b600581565b600781565b6103e881565b600681565b6000600460008381526020019081526020016000209050610dfe6040518060400160405280601781526020017f636f6d6d69746d656e745469636b202d2063616c6c6564000000000000000000815250612677565b6004600a811115610e1257610e11612b41565b5b8160030160009054906101000a900460ff16600a811115610e3657610e35612b41565b5b1480610e7757506009600a811115610e5157610e50612b41565b5b8160030160009054906101000a900460ff16600a811115610e7557610e74612b41565b5b145b610eb6576040517f08c379a0000000000000000000000000000000000000000000000000000000008152600401610ead90613195565b60405180910390fd5b610edf8260016006600086815260200190815260200160002054610eda9190612cad565b611801565b610f0060405180606001604052806029815260200161395360299139612677565b60005b60008054906101000a900473ffffffffffffffffffffffffffffffffffffffff1673ffffffffffffffffffffffffffffffffffffffff1663e3c8bfb96040518163ffffffff1660e01b8152600401602060405180830381865afa158015610f6e573d6000803e3d6000fd5b505050506040513d601f19601f82011682018060405250810190610f929190612dc2565b81101561104a57816001018181548110610faf57610fae612c4f565b5b9060005260206000200160009054906101000a900473ffffffffffffffffffffffffffffffffffffffff1673ffffffffffffffffffffffffffffffffffffffff1663606deecd6040518163ffffffff1660e01b8152600401600060405180830381600087803b15801561102157600080fd5b505af1158015611035573d6000803e3d6000fd5b505050508061104390612eda565b9050610f03565b5060058160030160006101000a81548160ff0219169083600a81111561107357611072612b41565b5b02179055507f58d4562cf15d1052e816fd24f6af2c8a3a21416d6e4c01a9e11ef84ffe537e25828260030160009054906101000a900460ff166040516110ba929190612ce1565b60405180910390a15050565b600a81565b60008054906101000a900473ffffffffffffffffffffffffffffffffffffffff1681565b600781565b60066020528060005260406000206000915090505481565b600260009054906101000a900473ffffffffffffffffffffffffffffffffffffffff1681565b60006004600083815260200190815260200160002090506005600a81111561115d5761115c612b41565b5b8160030160009054906101000a900460ff16600a81111561118157611180612b41565b5b146111c1576040517f08c379a00000000000000000000000000000000000000000000000000000000081526004016111b890613227565b60405180910390fd5b60005b60008054906101000a900473ffffffffffffffffffffffffffffffffffffffff1673ffffffffffffffffffffffffffffffffffffffff1663e3c8bfb96040518163ffffffff1660e01b8152600401602060405180830381865afa15801561122f573d6000803e3d6000fd5b505050506040513d601f19601f820116820180604052508101906112539190612dc2565b811015611359578160010181815481106112705761126f612c4f565b5b9060005260206000200160009054906101000a900473ffffffffffffffffffffffffffffffffffffffff1673ffffffffffffffffffffffffffffffffffffffff1663cce710636040518163ffffffff1660e01b8152600401602060405180830381865afa1580156112e5573d6000803e3d6000fd5b505050506040513d601f19601f820116820180604052508101906113099190612e1b565b611348576040517f08c379a000000000000000000000000000000000000000000000000000000000815260040161133f90612eba565b60405180910390fd5b8061135290612eda565b90506111c4565b5060005b60008054906101000a900473ffffffffffffffffffffffffffffffffffffffff1673ffffffffffffffffffffffffffffffffffffffff1663e3c8bfb96040518163ffffffff1660e01b8152600401602060405180830381865afa1580156113c8573d6000803e3d6000fd5b505050506040513d601f19601f820116820180604052508101906113ec9190612dc2565b8110156114c4576114b3838284600101848154811061140e5761140d612c4f565b5b9060005260206000200160009054906101000a900473ffffffffffffffffffffffffffffffffffffffff1673ffffffffffffffffffffffffffffffffffffffff16632f703e086040518163ffffffff1660e01b81526004016000604051808303816000875af1158015611485573d6000803e3d6000fd5b505050506040513d6000823e3d601f19601f820116820180604052508101906114ae9190613048565b612710565b806114bd90612eda565b905061135d565b5060068160030160006101000a81548160ff0219169083600a8111156114ed576114ec612b41565b5b02179055507f58d4562cf15d1052e816fd24f6af2c8a3a21416d6e4c01a9e11ef84ffe537e25828260030160009054906101000a900460ff16604051611534929190612ce1565b60405180910390a15050565b600a81565b600581565b60046020528060005260406000206000915090508060000154908060030160009054906101000a900460ff16908060040154905083565b600160009054906101000a900473ffffffffffffffffffffffffffffffffffffffff1681565b600281565b60006004600083815260200190815260200160002090506006600a8111156115d7576115d6612b41565b5b8160030160009054906101000a900460ff16600a8111156115fb576115fa612b41565b5b1461163b576040517f08c379a0000000000000000000000000000000000000000000000000000000008152600401611632906132b9565b60405180910390fd5b60005b60008054906101000a900473ffffffffffffffffffffffffffffffffffffffff1673ffffffffffffffffffffffffffffffffffffffff1663e3c8bfb96040518163ffffffff1660e01b8152600401602060405180830381865afa1580156116a9573d6000803e3d6000fd5b505050506040513d601f19601f820116820180604052508101906116cd9190612dc2565b811015611785578160020181815481106116ea576116e9612c4f565b5b9060005260206000200160009054906101000a900473ffffffffffffffffffffffffffffffffffffffff1673ffffffffffffffffffffffffffffffffffffffff1663606deecd6040518163ffffffff1660e01b8152600401600060405180830381600087803b15801561175c57600080fd5b505af1158015611770573d6000803e3d6000fd5b505050508061177e90612eda565b905061163e565b5060078160030160006101000a81548160ff0219169083600a8111156117ae576117ad612b41565b5b02179055507f58d4562cf15d1052e816fd24f6af2c8a3a21416d6e4c01a9e11ef84ffe537e25828260030160009054906101000a900460ff166040516117f5929190612ce1565b60405180910390a15050565b6000810361192d5760005b60008054906101000a900473ffffffffffffffffffffffffffffffffffffffff1673ffffffffffffffffffffffffffffffffffffffff1663e3c8bfb96040518163ffffffff1660e01b8152600401602060405180830381865afa158015611877573d6000803e3d6000fd5b505050506040513d601f19601f8201168201806040525081019061189b9190612dc2565b81101561192b5760046000848152602001908152602001600020600101600181600181540180825580915050039060005260206000200160009054906101000a90505060046000848152602001908152602001600020600201600181600181540180825580915050039060005260206000200160009054906101000a9050508061192490612eda565b905061180c565b505b60006007600084815260200190815260200160002060008381526020019081526020016000209050600060086000858152602001908152602001600020600084815260200190815260200160002090506000600960008681526020019081526020016000206000858152602001908152602001600020905060005b60008054906101000a900473ffffffffffffffffffffffffffffffffffffffff1673ffffffffffffffffffffffffffffffffffffffff1663e3c8bfb96040518163ffffffff1660e01b8152600401602060405180830381865afa158015611a13573d6000803e3d6000fd5b505050506040513d601f19601f82011682018060405250810190611a379190612dc2565b811015611d47578360000160009080600181540180825580915050600190039060005260206000200160009091909190915055826001816001815401808255809150500390600052602060002090505060005b60008054906101000a900473ffffffffffffffffffffffffffffffffffffffff1673ffffffffffffffffffffffffffffffffffffffff1663ae5c13566040518163ffffffff1660e01b8152600401602060405180830381865afa158015611af5573d6000803e3d6000fd5b505050506040513d601f19601f82011682018060405250810190611b199190612dc2565b811015611bef57838281548110611b3357611b32612c4f565b5b906000526020600020906003020160000160018160018154018082558091505003906000526020600020905050838281548110611b7357611b72612c4f565b5b9060005260206000209060030201600101600181600181540180825580915050039060005260206000205050838281548110611bb257611bb1612c4f565b5b906000526020600020906003020160020160018160018154018082558091505003906000526020600020505080611be890612eda565b9050611a8a565b50816001816001815401808255809150500390600052602060002090505060005b60008054906101000a900473ffffffffffffffffffffffffffffffffffffffff1673ffffffffffffffffffffffffffffffffffffffff1663ae5c13566040518163ffffffff1660e01b8152600401602060405180830381865afa158015611c7b573d6000803e3d6000fd5b505050506040513d601f19601f82011682018060405250810190611c9f9190612dc2565b811015611d3557828281548110611cb957611cb8612c4f565b5b9060005260206000209060070201600201600181600181540180825580915050039060005260206000205050828281548110611cf857611cf7612c4f565b5b906000526020600020906007020160030160018160018154018082558091505003906000526020600020505080611d2e90612eda565b9050611c10565b5080611d4090612eda565b90506119a8565b505050505050565b6000600960008581526020019081526020016000206000600660008781526020019081526020016000205481526020019081526020016000208381548110611d9a57611d99612c4f565b5b9060005260206000209060070201905060008280519060200120604051602001611dc491906132f2565b604051602081830303815290604052905081600001604051611de691906133b0565b6040518091039020818051906020012014611e36576040517f08c379a0000000000000000000000000000000000000000000000000000000008152600401611e2d90613439565b60405180910390fd5b82826001019081611e4791906135e6565b5060008084806020019051810190611e5f91906136b8565b9150915060008060009054906101000a900473ffffffffffffffffffffffffffffffffffffffff1673ffffffffffffffffffffffffffffffffffffffff166345baee556040518163ffffffff1660e01b8152600401602060405180830381865afa158015611ed1573d6000803e3d6000fd5b505050506040513d601f19601f82011682018060405250810190611ef59190612dc2565b60008054906101000a900473ffffffffffffffffffffffffffffffffffffffff1673ffffffffffffffffffffffffffffffffffffffff16634ffdf11e6040518163ffffffff1660e01b8152600401602060405180830381865afa158015611f60573d6000803e3d6000fd5b505050506040513d601f19601f82011682018060405250810190611f849190612dc2565b611f8e9190612cad565b905060005b60008054906101000a900473ffffffffffffffffffffffffffffffffffffffff1673ffffffffffffffffffffffffffffffffffffffff1663ae5c13566040518163ffffffff1660e01b8152600401602060405180830381865afa158015611ffe573d6000803e3d6000fd5b505050506040513d601f19601f820116820180604052508101906120229190612dc2565b811015612279576000828261203791906136f8565b84901c9050600160008054906101000a900473ffffffffffffffffffffffffffffffffffffffff1673ffffffffffffffffffffffffffffffffffffffff16634ffdf11e6040518163ffffffff1660e01b8152600401602060405180830381865afa1580156120a9573d6000803e3d6000fd5b505050506040513d601f19601f820116820180604052508101906120cd9190612dc2565b60026120d9919061386d565b6120e391906138b8565b60008054906101000a900473ffffffffffffffffffffffffffffffffffffffff1673ffffffffffffffffffffffffffffffffffffffff166345baee556040518163ffffffff1660e01b8152600401602060405180830381865afa15801561214e573d6000803e3d6000fd5b505050506040513d601f19601f820116820180604052508101906121729190612dc2565b82901c1687600201838154811061218c5761218b612c4f565b5b9060005260206000200181905550600160008054906101000a900473ffffffffffffffffffffffffffffffffffffffff1673ffffffffffffffffffffffffffffffffffffffff166345baee556040518163ffffffff1660e01b8152600401602060405180830381865afa158015612207573d6000803e3d6000fd5b505050506040513d601f19601f8201168201806040525081019061222b9190612dc2565b6002612237919061386d565b61224191906138b8565b811687600301838154811061225957612258612c4f565b5b9060005260206000200181905550508061227290612eda565b9050611f93565b5060018060008054906101000a900473ffffffffffffffffffffffffffffffffffffffff1673ffffffffffffffffffffffffffffffffffffffff1663ae5c13566040518163ffffffff1660e01b8152600401602060405180830381865afa1580156122e8573d6000803e3d6000fd5b505050506040513d601f19601f8201168201806040525081019061230c9190612dc2565b8361231791906136f8565b84901c16148560060160006101000a81548160ff021916908315150217905550600180600160008054906101000a900473ffffffffffffffffffffffffffffffffffffffff1673ffffffffffffffffffffffffffffffffffffffff1663ae5c13566040518163ffffffff1660e01b8152600401602060405180830381865afa1580156123a7573d6000803e3d6000fd5b505050506040513d601f19601f820116820180604052508101906123cb9190612dc2565b846123d691906136f8565b6123e09190612cad565b84901c16148560040160006101000a81548160ff021916908315150217905550600f600260008054906101000a900473ffffffffffffffffffffffffffffffffffffffff1673ffffffffffffffffffffffffffffffffffffffff1663ae5c13566040518163ffffffff1660e01b8152600401602060405180830381865afa15801561246f573d6000803e3d6000fd5b505050506040513d601f19601f820116820180604052508101906124939190612dc2565b8361249e91906136f8565b6124a89190612cad565b83901c1685600501819055505050505050505050565b600060046000838152602001908152602001600020905081600560006105158152602001908152602001600020819055506003600a81111561250357612502612b41565b5b8160030160009054906101000a900460ff16600a81111561252757612526612b41565b5b50507f58d4562cf15d1052e816fd24f6af2c8a3a21416d6e4c01a9e11ef84ffe537e25828260030160009054906101000a900460ff1660405161256b929190612ce1565b60405180910390a15050565b60006004600060056000868152602001908152602001600020548152602001908152602001600020905081816000018190555060048160030160006101000a81548160ff0219169083600a8111156125d2576125d1612b41565b5b02179055506126156040518060400160405280601b81526020017f66756c6c66696c5365656452657175657374202d2063616c6c65640000000000815250612677565b7f58d4562cf15d1052e816fd24f6af2c8a3a21416d6e4c01a9e11ef84ffe537e2560056000858152602001908152602001600020548260030160009054906101000a900460ff1660405161266a929190612ce1565b60405180910390a1505050565b61270d8160405160240161268b9190613930565b6040516020818303038152906040527f41304fac000000000000000000000000000000000000000000000000000000007bffffffffffffffffffffffffffffffffffffffffffffffffffffffff19166020820180517bffffffffffffffffffffffffffffffffffffffffffffffffffffffff8381831617835250505050612783565b50565b600060096000858152602001908152602001600020600060066000878152602001908152602001600020548152602001908152602001600020838154811061275b5761275a612c4f565b5b906000526020600020906007020190508181600001908161277c91906135e6565b5050505050565b60008151905060006a636f6e736f6c652e6c6f679050602083016000808483855afa5050505050565b6000819050919050565b6127bf816127ac565b82525050565b60006020820190506127da60008301846127b6565b92915050565b6000604051905090565b600080fd5b600080fd5b6127fd816127ac565b811461280857600080fd5b50565b60008135905061281a816127f4565b92915050565b600080600060608486031215612839576128386127ea565b5b60006128478682870161280b565b93505060206128588682870161280b565b92505060406128698682870161280b565b9150509250925092565b600081519050919050565b600082825260208201905092915050565b60005b838110156128ad578082015181840152602081019050612892565b60008484015250505050565b6000601f19601f8301169050919050565b60006128d582612873565b6128df818561287e565b93506128ef81856020860161288f565b6128f8816128b9565b840191505092915050565b60008115159050919050565b61291881612903565b82525050565b600060a082019050818103600083015261293881886128ca565b9050818103602083015261294c81876128ca565b905061295b604083018661290f565b61296860608301856127b6565b612975608083018461290f565b9695505050505050565b600073ffffffffffffffffffffffffffffffffffffffff82169050919050565b60006129aa8261297f565b9050919050565b6129ba8161299f565b81146129c557600080fd5b50565b6000813590506129d7816129b1565b92915050565b600080604083850312156129f4576129f36127ea565b5b6000612a02858286016129c8565b9250506020612a13858286016129c8565b9150509250929050565b600060208284031215612a3357612a326127ea565b5b6000612a418482850161280b565b91505092915050565b600080600060608486031215612a6357612a626127ea565b5b6000612a718682870161280b565b9350506020612a82868287016129c8565b9250506040612a93868287016129c8565b9150509250925092565b6000819050919050565b6000612ac2612abd612ab88461297f565b612a9d565b61297f565b9050919050565b6000612ad482612aa7565b9050919050565b6000612ae682612ac9565b9050919050565b612af681612adb565b82525050565b6000602082019050612b116000830184612aed565b92915050565b612b208161299f565b82525050565b6000602082019050612b3b6000830184612b17565b92915050565b7f4e487b7100000000000000000000000000000000000000000000000000000000600052602160045260246000fd5b600b8110612b8157612b80612b41565b5b50565b6000819050612b9282612b70565b919050565b6000612ba282612b84565b9050919050565b612bb281612b97565b82525050565b6000606082019050612bcd60008301866127b6565b612bda6020830185612ba9565b612be760408301846127b6565b949350505050565b7f4e487b7100000000000000000000000000000000000000000000000000000000600052602260045260246000fd5b60006002820490506001821680612c3657607f821691505b602082108103612c4957612c48612bef565b5b50919050565b7f4e487b7100000000000000000000000000000000000000000000000000000000600052603260045260246000fd5b7f4e487b7100000000000000000000000000000000000000000000000000000000600052601160045260246000fd5b6000612cb8826127ac565b9150612cc3836127ac565b9250828201905080821115612cdb57612cda612c7e565b5b92915050565b6000604082019050612cf660008301856127b6565b612d036020830184612ba9565b9392505050565b600082825260208201905092915050565b7f4552523a204d61746368206e6f7420696e20636f72726563742073746167652060008201527f746f20726563656976652052657665616c732100000000000000000000000000602082015250565b6000612d77603383612d0a565b9150612d8282612d1b565b604082019050919050565b60006020820190508181036000830152612da681612d6a565b9050919050565b600081519050612dbc816127f4565b92915050565b600060208284031215612dd857612dd76127ea565b5b6000612de684828501612dad565b91505092915050565b612df881612903565b8114612e0357600080fd5b50565b600081519050612e1581612def565b92915050565b600060208284031215612e3157612e306127ea565b5b6000612e3f84828501612e06565b91505092915050565b7f4552523a204e6f7420616c6c207465616d73206861766520697373756564206360008201527f6f6d6d69746d656e747321000000000000000000000000000000000000000000602082015250565b6000612ea4602b83612d0a565b9150612eaf82612e48565b604082019050919050565b60006020820190508181036000830152612ed381612e97565b9050919050565b6000612ee5826127ac565b91507fffffffffffffffffffffffffffffffffffffffffffffffffffffffffffffffff8203612f1757612f16612c7e565b5b600182019050919050565b600080fd5b600080fd5b7f4e487b7100000000000000000000000000000000000000000000000000000000600052604160045260246000fd5b612f64826128b9565b810181811067ffffffffffffffff82111715612f8357612f82612f2c565b5b80604052505050565b6000612f966127e0565b9050612fa28282612f5b565b919050565b600067ffffffffffffffff821115612fc257612fc1612f2c565b5b612fcb826128b9565b9050602081019050919050565b6000612feb612fe684612fa7565b612f8c565b90508281526020810184848401111561300757613006612f27565b5b61301284828561288f565b509392505050565b600082601f83011261302f5761302e612f22565b5b815161303f848260208601612fd8565b91505092915050565b60006020828403121561305e5761305d6127ea565b5b600082015167ffffffffffffffff81111561307c5761307b6127ef565b5b6130888482850161301a565b91505092915050565b7f4552523a20596f752063616e206f6e6c79206a6f696e2061206e65776c79206360008201527f726561746564206d617463682100000000000000000000000000000000000000602082015250565b60006130ed602d83612d0a565b91506130f882613091565b604082019050919050565b6000602082019050818103600083015261311c816130e0565b9050919050565b7f4552523a204d61746368206e6f7420696e20636f72726563742073746167652060008201527f746f20666574636820436f6d6d69746d656e7473210000000000000000000000602082015250565b600061317f603583612d0a565b915061318a82613123565b604082019050919050565b600060208201905081810360008301526131ae81613172565b9050919050565b7f4552523a204d61746368206e6f7420696e20636f72726563742073746167652060008201527f746f207265636569766520436f6d6d69746d656e747321000000000000000000602082015250565b6000613211603783612d0a565b915061321c826131b5565b604082019050919050565b6000602082019050818103600083015261324081613204565b9050919050565b7f4552523a204d61746368206e6f7420696e20636f72726563742073746167652060008201527f746f206665746368205265617665616c73210000000000000000000000000000602082015250565b60006132a3603283612d0a565b91506132ae82613247565b604082019050919050565b600060208201905081810360008301526132d281613296565b9050919050565b6000819050919050565b6132ec816132d9565b82525050565b600060208201905061330760008301846132e3565b92915050565b600081905092915050565b60008190508160005260206000209050919050565b6000815461333a81612c1e565b613344818661330d565b9450600182166000811461335f5760018114613374576133a7565b60ff19831686528115158202860193506133a7565b61337d85613318565b60005b8381101561339f57815481890152600182019150602081019050613380565b838801955050505b50505092915050565b60006133bc828461332d565b915081905092915050565b7f4552523a2052657665616c20646f65736e277420636f72726573706f6e64207460008201527f6f2074686520436f6d6d69746d656e7400000000000000000000000000000000602082015250565b6000613423603083612d0a565b915061342e826133c7565b604082019050919050565b6000602082019050818103600083015261345281613416565b9050919050565b60006020601f8301049050919050565b600082821b905092915050565b6000600883026134a67fffffffffffffffffffffffffffffffffffffffffffffffffffffffffffffffff82613469565b6134b08683613469565b95508019841693508086168417925050509392505050565b60006134e36134de6134d9846127ac565b612a9d565b6127ac565b9050919050565b6000819050919050565b6134fd836134c8565b613511613509826134ea565b848454613476565b825550505050565b600090565b613526613519565b6135318184846134f4565b505050565b5b818110156135555761354a60008261351e565b600181019050613537565b5050565b601f82111561359a5761356b81613318565b61357484613459565b81016020851015613583578190505b61359761358f85613459565b830182613536565b50505b505050565b600082821c905092915050565b60006135bd6000198460080261359f565b1980831691505092915050565b60006135d683836135ac565b9150826002028217905092915050565b6135ef82612873565b67ffffffffffffffff81111561360857613607612f2c565b5b6136128254612c1e565b61361d828285613559565b600060209050601f831160018114613650576000841561363e578287015190505b61364885826135ca565b8655506136b0565b601f19841661365e86613318565b60005b8281101561368657848901518255600182019150602085019450602081019050613661565b868310156136a3578489015161369f601f8916826135ac565b8355505b6001600288020188555050505b505050505050565b600080604083850312156136cf576136ce6127ea565b5b60006136dd85828601612dad565b92505060206136ee85828601612dad565b9150509250929050565b6000613703826127ac565b915061370e836127ac565b925082820261371c816127ac565b9150828204841483151761373357613732612c7e565b5b5092915050565b60008160011c9050919050565b6000808291508390505b60018511156137915780860481111561376d5761376c612c7e565b5b600185161561377c5780820291505b808102905061378a8561373a565b9450613751565b94509492505050565b6000826137aa5760019050613866565b816137b85760009050613866565b81600181146137ce57600281146137d857613807565b6001915050613866565b60ff8411156137ea576137e9612c7e565b5b8360020a91508482111561380157613800612c7e565b5b50613866565b5060208310610133831016604e8410600b841016171561383c5782820a90508381111561383757613836612c7e565b5b613866565b6138498484846001613747565b925090508184048111156138605761385f612c7e565b5b81810290505b9392505050565b6000613878826127ac565b9150613883836127ac565b92506138b07fffffffffffffffffffffffffffffffffffffffffffffffffffffffffffffffff848461379a565b905092915050565b60006138c3826127ac565b91506138ce836127ac565b92508282039050818111156138e6576138e5612c7e565b5b92915050565b600081519050919050565b6000613902826138ec565b61390c8185612d0a565b935061391c81856020860161288f565b613925816128b9565b840191505092915050565b6000602082019050818103600083015261394a81846138f7565b90509291505056fe636f6d6d69746d656e745469636b43616c6c6564202d2070617373656420726571756972656d656e74a264697066735822122003a1ba659b25402a4354284623bfa9ccc9b92645d9ddb3d9f15afa9fdb5d17a464736f6c63430008120033608060405234801561001057600080fd5b5061026d806100206000396000f3fe608060405234801561001057600080fd5b506004361061009e5760003560e01c8063705dd6cd11610066578063705dd6cd14610139578063734692a914610157578063ae5c135614610175578063c8067b6f14610193578063e3c8bfb9146101b15761009e565b8063124a96c8146100a357806339febf0c146100c157806345baee55146100df57806349bbc37a146100fd5780634ffdf11e1461011b575b600080fd5b6100ab6101cf565b6040516100b8919061021c565b60405180910390f35b6100c96101d5565b6040516100d6919061021c565b60405180910390f35b6100e76101da565b6040516100f4919061021c565b60405180910390f35b6101056101df565b604051610112919061021c565b60405180910390f35b6101236101e5565b604051610130919061021c565b60405180910390f35b6101416101ea565b60405161014e919061021c565b60405180910390f35b61015f6101ef565b60405161016c919061021c565b60405180910390f35b61017d6101f4565b60405161018a919061021c565b60405180910390f35b61019b6101f9565b6040516101a8919061021c565b60405180910390f35b6101b96101fe565b6040516101c6919061021c565b60405180910390f35b6101f481565b600581565b600781565b6103e881565b600681565b600a81565b600781565b600a81565b600581565b600281565b6000819050919050565b61021681610203565b82525050565b6000602082019050610231600083018461020d565b9291505056fea264697066735822122001d9d86b524b072c82851d2da1af568601b991b53f790e36a726e5478a595e9964736f6c63430008120033","opcodes":"PUSH1 0x80 PUSH1 0x40 MSTORE CALLVALUE DUP1 ISZERO PUSH3 0x11 JUMPI PUSH1 0x0 DUP1 REVERT JUMPDEST POP PUSH1 0x40 MLOAD PUSH3 0x3DE2 CODESIZE SUB DUP1 PUSH3 0x3DE2 DUP4 CODECOPY DUP2 DUP2 ADD PUSH1 0x40 MSTORE DUP2 ADD SWAP1 PUSH3 0x37 SWAP2 SWAP1 PUSH3 0x162 JUMP JUMPDEST PUSH1 0x40 MLOAD PUSH3 0x45 SWAP1 PUSH3 0xEA JUMP JUMPDEST PUSH1 0x40 MLOAD DUP1 SWAP2 SUB SWAP1 PUSH1 0x0 CREATE DUP1 ISZERO DUP1 ISZERO PUSH3 0x62 JUMPI RETURNDATASIZE PUSH1 0x0 DUP1 RETURNDATACOPY RETURNDATASIZE PUSH1 0x0 REVERT JUMPDEST POP PUSH1 0x0 DUP1 PUSH2 0x100 EXP DUP2 SLOAD DUP2 PUSH20 0xFFFFFFFFFFFFFFFFFFFFFFFFFFFFFFFFFFFFFFFF MUL NOT AND SWAP1 DUP4 PUSH20 0xFFFFFFFFFFFFFFFFFFFFFFFFFFFFFFFFFFFFFFFF AND MUL OR SWAP1 SSTORE POP DUP1 PUSH1 0x1 PUSH1 0x0 PUSH2 0x100 EXP DUP2 SLOAD DUP2 PUSH20 0xFFFFFFFFFFFFFFFFFFFFFFFFFFFFFFFFFFFFFFFF MUL NOT AND SWAP1 DUP4 PUSH20 0xFFFFFFFFFFFFFFFFFFFFFFFFFFFFFFFFFFFFFFFF AND MUL OR SWAP1 SSTORE POP POP PUSH3 0x194 JUMP JUMPDEST PUSH2 0x28D DUP1 PUSH3 0x3B55 DUP4 CODECOPY ADD SWAP1 JUMP JUMPDEST PUSH1 0x0 DUP1 REVERT JUMPDEST PUSH1 0x0 PUSH20 0xFFFFFFFFFFFFFFFFFFFFFFFFFFFFFFFFFFFFFFFF DUP3 AND SWAP1 POP SWAP2 SWAP1 POP JUMP JUMPDEST PUSH1 0x0 PUSH3 0x12A DUP3 PUSH3 0xFD JUMP JUMPDEST SWAP1 POP SWAP2 SWAP1 POP JUMP JUMPDEST PUSH3 0x13C DUP2 PUSH3 0x11D JUMP JUMPDEST DUP2 EQ PUSH3 0x148 JUMPI PUSH1 0x0 DUP1 REVERT JUMPDEST POP JUMP JUMPDEST PUSH1 0x0 DUP2 MLOAD SWAP1 POP PUSH3 0x15C DUP2 PUSH3 0x131 JUMP JUMPDEST SWAP3 SWAP2 POP POP JUMP JUMPDEST PUSH1 0x0 PUSH1 0x20 DUP3 DUP5 SUB SLT ISZERO PUSH3 0x17B JUMPI PUSH3 0x17A PUSH3 0xF8 JUMP JUMPDEST JUMPDEST PUSH1 0x0 PUSH3 0x18B DUP5 DUP3 DUP6 ADD PUSH3 0x14B JUMP JUMPDEST SWAP2 POP POP SWAP3 SWAP2 POP POP JUMP JUMPDEST PUSH2 0x39B1 DUP1 PUSH3 0x1A4 PUSH1 0x0 CODECOPY PUSH1 0x0 RETURN INVALID PUSH1 0x80 PUSH1 0x40 MSTORE CALLVALUE DUP1 ISZERO PUSH2 0x10 JUMPI PUSH1 0x0 DUP1 REVERT JUMPDEST POP PUSH1 0x4 CALLDATASIZE LT PUSH2 0x158 JUMPI PUSH1 0x0 CALLDATALOAD PUSH1 0xE0 SHR DUP1 PUSH4 0x705DD6CD GT PUSH2 0xC3 JUMPI DUP1 PUSH4 0xAE5C1356 GT PUSH2 0x7C JUMPI DUP1 PUSH4 0xAE5C1356 EQ PUSH2 0x3A9 JUMPI DUP1 PUSH4 0xC8067B6F EQ PUSH2 0x3C7 JUMPI DUP1 PUSH4 0xD79B490E EQ PUSH2 0x3E5 JUMPI DUP1 PUSH4 0xD7DFA0DD EQ PUSH2 0x417 JUMPI DUP1 PUSH4 0xE3C8BFB9 EQ PUSH2 0x435 JUMPI DUP1 PUSH4 0xF9781033 EQ PUSH2 0x453 JUMPI PUSH2 0x158 JUMP JUMPDEST DUP1 PUSH4 0x705DD6CD EQ PUSH2 0x2E5 JUMPI DUP1 PUSH4 0x72DE5B2F EQ PUSH2 0x303 JUMPI DUP1 PUSH4 0x734692A9 EQ PUSH2 0x321 JUMPI DUP1 PUSH4 0x755F10FD EQ PUSH2 0x33F JUMPI DUP1 PUSH4 0x8BA47BDD EQ PUSH2 0x36F JUMPI DUP1 PUSH4 0x90EDE5D5 EQ PUSH2 0x38D JUMPI PUSH2 0x158 JUMP JUMPDEST DUP1 PUSH4 0x37C74779 GT PUSH2 0x115 JUMPI DUP1 PUSH4 0x37C74779 EQ PUSH2 0x221 JUMPI DUP1 PUSH4 0x39FEBF0C EQ PUSH2 0x251 JUMPI DUP1 PUSH4 0x45BAEE55 EQ PUSH2 0x26F JUMPI DUP1 PUSH4 0x49BBC37A EQ PUSH2 0x28D JUMPI DUP1 PUSH4 0x4FFDF11E EQ PUSH2 0x2AB JUMPI DUP1 PUSH4 0x5CD6925A EQ PUSH2 0x2C9 JUMPI PUSH2 0x158 JUMP JUMPDEST DUP1 PUSH4 0x1FD1951 EQ PUSH2 0x15D JUMPI DUP1 PUSH4 0x124A96C8 EQ PUSH2 0x17B JUMPI DUP1 PUSH4 0x1B7D40A5 EQ PUSH2 0x199 JUMPI DUP1 PUSH4 0x1E20530A EQ PUSH2 0x1CD JUMPI DUP1 PUSH4 0x27764F7D EQ PUSH2 0x1E9 JUMPI DUP1 PUSH4 0x35868AB7 EQ PUSH2 0x205 JUMPI JUMPDEST PUSH1 0x0 DUP1 REVERT JUMPDEST PUSH2 0x165 PUSH2 0x46F JUMP JUMPDEST PUSH1 0x40 MLOAD PUSH2 0x172 SWAP2 SWAP1 PUSH2 0x27C5 JUMP JUMPDEST PUSH1 0x40 MLOAD DUP1 SWAP2 SUB SWAP1 RETURN JUMPDEST PUSH2 0x183 PUSH2 0x475 JUMP JUMPDEST PUSH1 0x40 MLOAD PUSH2 0x190 SWAP2 SWAP1 PUSH2 0x27C5 JUMP JUMPDEST PUSH1 0x40 MLOAD DUP1 SWAP2 SUB SWAP1 RETURN JUMPDEST PUSH2 0x1B3 PUSH1 0x4 DUP1 CALLDATASIZE SUB DUP2 ADD SWAP1 PUSH2 0x1AE SWAP2 SWAP1 PUSH2 0x2820 JUMP JUMPDEST PUSH2 0x47B JUMP JUMPDEST PUSH1 0x40 MLOAD PUSH2 0x1C4 SWAP6 SWAP5 SWAP4 SWAP3 SWAP2 SWAP1 PUSH2 0x291E JUMP JUMPDEST PUSH1 0x40 MLOAD DUP1 SWAP2 SUB SWAP1 RETURN JUMPDEST PUSH2 0x1E7 PUSH1 0x4 DUP1 CALLDATASIZE SUB DUP2 ADD SWAP1 PUSH2 0x1E2 SWAP2 SWAP1 PUSH2 0x29DD JUMP JUMPDEST PUSH2 0x605 JUMP JUMPDEST STOP JUMPDEST PUSH2 0x203 PUSH1 0x4 DUP1 CALLDATASIZE SUB DUP2 ADD SWAP1 PUSH2 0x1FE SWAP2 SWAP1 PUSH2 0x2A1D JUMP JUMPDEST PUSH2 0x785 JUMP JUMPDEST STOP JUMPDEST PUSH2 0x21F PUSH1 0x4 DUP1 CALLDATASIZE SUB DUP2 ADD SWAP1 PUSH2 0x21A SWAP2 SWAP1 PUSH2 0x2A4A JUMP JUMPDEST PUSH2 0xB93 JUMP JUMPDEST STOP JUMPDEST PUSH2 0x23B PUSH1 0x4 DUP1 CALLDATASIZE SUB DUP2 ADD SWAP1 PUSH2 0x236 SWAP2 SWAP1 PUSH2 0x2A1D JUMP JUMPDEST PUSH2 0xD7C JUMP JUMPDEST PUSH1 0x40 MLOAD PUSH2 0x248 SWAP2 SWAP1 PUSH2 0x27C5 JUMP JUMPDEST PUSH1 0x40 MLOAD DUP1 SWAP2 SUB SWAP1 RETURN JUMPDEST PUSH2 0x259 PUSH2 0xD94 JUMP JUMPDEST PUSH1 0x40 MLOAD PUSH2 0x266 SWAP2 SWAP1 PUSH2 0x27C5 JUMP JUMPDEST PUSH1 0x40 MLOAD DUP1 SWAP2 SUB SWAP1 RETURN JUMPDEST PUSH2 0x277 PUSH2 0xD99 JUMP JUMPDEST PUSH1 0x40 MLOAD PUSH2 0x284 SWAP2 SWAP1 PUSH2 0x27C5 JUMP JUMPDEST PUSH1 0x40 MLOAD DUP1 SWAP2 SUB SWAP1 RETURN JUMPDEST PUSH2 0x295 PUSH2 0xD9E JUMP JUMPDEST PUSH1 0x40 MLOAD PUSH2 0x2A2 SWAP2 SWAP1 PUSH2 0x27C5 JUMP JUMPDEST PUSH1 0x40 MLOAD DUP1 SWAP2 SUB SWAP1 RETURN JUMPDEST PUSH2 0x2B3 PUSH2 0xDA4 JUMP JUMPDEST PUSH1 0x40 MLOAD PUSH2 0x2C0 SWAP2 SWAP1 PUSH2 0x27C5 JUMP JUMPDEST PUSH1 0x40 MLOAD DUP1 SWAP2 SUB SWAP1 RETURN JUMPDEST PUSH2 0x2E3 PUSH1 0x4 DUP1 CALLDATASIZE SUB DUP2 ADD SWAP1 PUSH2 0x2DE SWAP2 SWAP1 PUSH2 0x2A1D JUMP JUMPDEST PUSH2 0xDA9 JUMP JUMPDEST STOP JUMPDEST PUSH2 0x2ED PUSH2 0x10C6 JUMP JUMPDEST PUSH1 0x40 MLOAD PUSH2 0x2FA SWAP2 SWAP1 PUSH2 0x27C5 JUMP JUMPDEST PUSH1 0x40 MLOAD DUP1 SWAP2 SUB SWAP1 RETURN JUMPDEST PUSH2 0x30B PUSH2 0x10CB JUMP JUMPDEST PUSH1 0x40 MLOAD PUSH2 0x318 SWAP2 SWAP1 PUSH2 0x2AFC JUMP JUMPDEST PUSH1 0x40 MLOAD DUP1 SWAP2 SUB SWAP1 RETURN JUMPDEST PUSH2 0x329 PUSH2 0x10EF JUMP JUMPDEST PUSH1 0x40 MLOAD PUSH2 0x336 SWAP2 SWAP1 PUSH2 0x27C5 JUMP JUMPDEST PUSH1 0x40 MLOAD DUP1 SWAP2 SUB SWAP1 RETURN JUMPDEST PUSH2 0x359 PUSH1 0x4 DUP1 CALLDATASIZE SUB DUP2 ADD SWAP1 PUSH2 0x354 SWAP2 SWAP1 PUSH2 0x2A1D JUMP JUMPDEST PUSH2 0x10F4 JUMP JUMPDEST PUSH1 0x40 MLOAD PUSH2 0x366 SWAP2 SWAP1 PUSH2 0x27C5 JUMP JUMPDEST PUSH1 0x40 MLOAD DUP1 SWAP2 SUB SWAP1 RETURN JUMPDEST PUSH2 0x377 PUSH2 0x110C JUMP JUMPDEST PUSH1 0x40 MLOAD PUSH2 0x384 SWAP2 SWAP1 PUSH2 0x2B26 JUMP JUMPDEST PUSH1 0x40 MLOAD DUP1 SWAP2 SUB SWAP1 RETURN JUMPDEST PUSH2 0x3A7 PUSH1 0x4 DUP1 CALLDATASIZE SUB DUP2 ADD SWAP1 PUSH2 0x3A2 SWAP2 SWAP1 PUSH2 0x2A1D JUMP JUMPDEST PUSH2 0x1132 JUMP JUMPDEST STOP JUMPDEST PUSH2 0x3B1 PUSH2 0x1540 JUMP JUMPDEST PUSH1 0x40 MLOAD PUSH2 0x3BE SWAP2 SWAP1 PUSH2 0x27C5 JUMP JUMPDEST PUSH1 0x40 MLOAD DUP1 SWAP2 SUB SWAP1 RETURN JUMPDEST PUSH2 0x3CF PUSH2 0x1545 JUMP JUMPDEST PUSH1 0x40 MLOAD PUSH2 0x3DC SWAP2 SWAP1 PUSH2 0x27C5 JUMP JUMPDEST PUSH1 0x40 MLOAD DUP1 SWAP2 SUB SWAP1 RETURN JUMPDEST PUSH2 0x3FF PUSH1 0x4 DUP1 CALLDATASIZE SUB DUP2 ADD SWAP1 PUSH2 0x3FA SWAP2 SWAP1 PUSH2 0x2A1D JUMP JUMPDEST PUSH2 0x154A JUMP JUMPDEST PUSH1 0x40 MLOAD PUSH2 0x40E SWAP4 SWAP3 SWAP2 SWAP1 PUSH2 0x2BB8 JUMP JUMPDEST PUSH1 0x40 MLOAD DUP1 SWAP2 SUB SWAP1 RETURN JUMPDEST PUSH2 0x41F PUSH2 0x1581 JUMP JUMPDEST PUSH1 0x40 MLOAD PUSH2 0x42C SWAP2 SWAP1 PUSH2 0x2B26 JUMP JUMPDEST PUSH1 0x40 MLOAD DUP1 SWAP2 SUB SWAP1 RETURN JUMPDEST PUSH2 0x43D PUSH2 0x15A7 JUMP JUMPDEST PUSH1 0x40 MLOAD PUSH2 0x44A SWAP2 SWAP1 PUSH2 0x27C5 JUMP JUMPDEST PUSH1 0x40 MLOAD DUP1 SWAP2 SUB SWAP1 RETURN JUMPDEST PUSH2 0x46D PUSH1 0x4 DUP1 CALLDATASIZE SUB DUP2 ADD SWAP1 PUSH2 0x468 SWAP2 SWAP1 PUSH2 0x2A1D JUMP JUMPDEST PUSH2 0x15AC JUMP JUMPDEST STOP JUMPDEST PUSH1 0x3 SLOAD DUP2 JUMP JUMPDEST PUSH2 0x1F4 DUP2 JUMP JUMPDEST PUSH1 0x9 PUSH1 0x20 MSTORE DUP3 PUSH1 0x0 MSTORE PUSH1 0x40 PUSH1 0x0 KECCAK256 PUSH1 0x20 MSTORE DUP2 PUSH1 0x0 MSTORE PUSH1 0x40 PUSH1 0x0 KECCAK256 DUP2 DUP2 SLOAD DUP2 LT PUSH2 0x4A3 JUMPI PUSH1 0x0 DUP1 REVERT JUMPDEST SWAP1 PUSH1 0x0 MSTORE PUSH1 0x20 PUSH1 0x0 KECCAK256 SWAP1 PUSH1 0x7 MUL ADD PUSH1 0x0 SWAP3 POP SWAP3 POP POP POP DUP1 PUSH1 0x0 ADD DUP1 SLOAD PUSH2 0x4C8 SWAP1 PUSH2 0x2C1E JUMP JUMPDEST DUP1 PUSH1 0x1F ADD PUSH1 0x20 DUP1 SWAP2 DIV MUL PUSH1 0x20 ADD PUSH1 0x40 MLOAD SWAP1 DUP2 ADD PUSH1 0x40 MSTORE DUP1 SWAP3 SWAP2 SWAP1 DUP2 DUP2 MSTORE PUSH1 0x20 ADD DUP3 DUP1 SLOAD PUSH2 0x4F4 SWAP1 PUSH2 0x2C1E JUMP JUMPDEST DUP1 ISZERO PUSH2 0x541 JUMPI DUP1 PUSH1 0x1F LT PUSH2 0x516 JUMPI PUSH2 0x100 DUP1 DUP4 SLOAD DIV MUL DUP4 MSTORE SWAP2 PUSH1 0x20 ADD SWAP2 PUSH2 0x541 JUMP JUMPDEST DUP3 ADD SWAP2 SWAP1 PUSH1 0x0 MSTORE PUSH1 0x20 PUSH1 0x0 KECCAK256 SWAP1 JUMPDEST DUP2 SLOAD DUP2 MSTORE SWAP1 PUSH1 0x1 ADD SWAP1 PUSH1 0x20 ADD DUP1 DUP4 GT PUSH2 0x524 JUMPI DUP3 SWAP1 SUB PUSH1 0x1F AND DUP3 ADD SWAP2 JUMPDEST POP POP POP POP POP SWAP1 DUP1 PUSH1 0x1 ADD DUP1 SLOAD PUSH2 0x556 SWAP1 PUSH2 0x2C1E JUMP JUMPDEST DUP1 PUSH1 0x1F ADD PUSH1 0x20 DUP1 SWAP2 DIV MUL PUSH1 0x20 ADD PUSH1 0x40 MLOAD SWAP1 DUP2 ADD PUSH1 0x40 MSTORE DUP1 SWAP3 SWAP2 SWAP1 DUP2 DUP2 MSTORE PUSH1 0x20 ADD DUP3 DUP1 SLOAD PUSH2 0x582 SWAP1 PUSH2 0x2C1E JUMP JUMPDEST DUP1 ISZERO PUSH2 0x5CF JUMPI DUP1 PUSH1 0x1F LT PUSH2 0x5A4 JUMPI PUSH2 0x100 DUP1 DUP4 SLOAD DIV MUL DUP4 MSTORE SWAP2 PUSH1 0x20 ADD SWAP2 PUSH2 0x5CF JUMP JUMPDEST DUP3 ADD SWAP2 SWAP1 PUSH1 0x0 MSTORE PUSH1 0x20 PUSH1 0x0 KECCAK256 SWAP1 JUMPDEST DUP2 SLOAD DUP2 MSTORE SWAP1 PUSH1 0x1 ADD SWAP1 PUSH1 0x20 ADD DUP1 DUP4 GT PUSH2 0x5B2 JUMPI DUP3 SWAP1 SUB PUSH1 0x1F AND DUP3 ADD SWAP2 JUMPDEST POP POP POP POP POP SWAP1 DUP1 PUSH1 0x4 ADD PUSH1 0x0 SWAP1 SLOAD SWAP1 PUSH2 0x100 EXP SWAP1 DIV PUSH1 0xFF AND SWAP1 DUP1 PUSH1 0x5 ADD SLOAD SWAP1 DUP1 PUSH1 0x6 ADD PUSH1 0x0 SWAP1 SLOAD SWAP1 PUSH2 0x100 EXP SWAP1 DIV PUSH1 0xFF AND SWAP1 POP DUP6 JUMP JUMPDEST PUSH1 0x0 PUSH1 0x3 SLOAD SWAP1 POP PUSH2 0x617 DUP2 PUSH1 0x0 PUSH2 0x1801 JUMP JUMPDEST PUSH1 0x0 PUSH1 0x4 PUSH1 0x0 DUP4 DUP2 MSTORE PUSH1 0x20 ADD SWAP1 DUP2 MSTORE PUSH1 0x20 ADD PUSH1 0x0 KECCAK256 SWAP1 POP PUSH1 0x1 DUP2 PUSH1 0x3 ADD PUSH1 0x0 PUSH2 0x100 EXP DUP2 SLOAD DUP2 PUSH1 0xFF MUL NOT AND SWAP1 DUP4 PUSH1 0xA DUP2 GT ISZERO PUSH2 0x656 JUMPI PUSH2 0x655 PUSH2 0x2B41 JUMP JUMPDEST JUMPDEST MUL OR SWAP1 SSTORE POP DUP4 DUP2 PUSH1 0x1 ADD PUSH1 0x0 DUP2 SLOAD DUP2 LT PUSH2 0x673 JUMPI PUSH2 0x672 PUSH2 0x2C4F JUMP JUMPDEST JUMPDEST SWAP1 PUSH1 0x0 MSTORE PUSH1 0x20 PUSH1 0x0 KECCAK256 ADD PUSH1 0x0 PUSH2 0x100 EXP DUP2 SLOAD DUP2 PUSH20 0xFFFFFFFFFFFFFFFFFFFFFFFFFFFFFFFFFFFFFFFF MUL NOT AND SWAP1 DUP4 PUSH20 0xFFFFFFFFFFFFFFFFFFFFFFFFFFFFFFFFFFFFFFFF AND MUL OR SWAP1 SSTORE POP DUP3 DUP2 PUSH1 0x2 ADD PUSH1 0x0 DUP2 SLOAD DUP2 LT PUSH2 0x6D3 JUMPI PUSH2 0x6D2 PUSH2 0x2C4F JUMP JUMPDEST JUMPDEST SWAP1 PUSH1 0x0 MSTORE PUSH1 0x20 PUSH1 0x0 KECCAK256 ADD PUSH1 0x0 PUSH2 0x100 EXP DUP2 SLOAD DUP2 PUSH20 0xFFFFFFFFFFFFFFFFFFFFFFFFFFFFFFFFFFFFFFFF MUL NOT AND SWAP1 DUP4 PUSH20 0xFFFFFFFFFFFFFFFFFFFFFFFFFFFFFFFFFFFFFFFF AND MUL OR SWAP1 SSTORE POP PUSH1 0x1 PUSH1 0x3 PUSH1 0x0 DUP3 DUP3 SLOAD PUSH2 0x72E SWAP2 SWAP1 PUSH2 0x2CAD JUMP JUMPDEST SWAP3 POP POP DUP2 SWAP1 SSTORE POP PUSH32 0x58D4562CF15D1052E816FD24F6AF2C8A3A21416D6E4C01A9E11EF84FFE537E25 DUP3 DUP3 PUSH1 0x3 ADD PUSH1 0x0 SWAP1 SLOAD SWAP1 PUSH2 0x100 EXP SWAP1 DIV PUSH1 0xFF AND PUSH1 0x40 MLOAD PUSH2 0x777 SWAP3 SWAP2 SWAP1 PUSH2 0x2CE1 JUMP JUMPDEST PUSH1 0x40 MLOAD DUP1 SWAP2 SUB SWAP1 LOG1 POP POP POP POP JUMP JUMPDEST PUSH1 0x0 PUSH1 0x4 PUSH1 0x0 DUP4 DUP2 MSTORE PUSH1 0x20 ADD SWAP1 DUP2 MSTORE PUSH1 0x20 ADD PUSH1 0x0 KECCAK256 SWAP1 POP PUSH1 0x7 PUSH1 0xA DUP2 GT ISZERO PUSH2 0x7B0 JUMPI PUSH2 0x7AF PUSH2 0x2B41 JUMP JUMPDEST JUMPDEST DUP2 PUSH1 0x3 ADD PUSH1 0x0 SWAP1 SLOAD SWAP1 PUSH2 0x100 EXP SWAP1 DIV PUSH1 0xFF AND PUSH1 0xA DUP2 GT ISZERO PUSH2 0x7D4 JUMPI PUSH2 0x7D3 PUSH2 0x2B41 JUMP JUMPDEST JUMPDEST EQ PUSH2 0x814 JUMPI PUSH1 0x40 MLOAD PUSH32 0x8C379A000000000000000000000000000000000000000000000000000000000 DUP2 MSTORE PUSH1 0x4 ADD PUSH2 0x80B SWAP1 PUSH2 0x2D8D JUMP JUMPDEST PUSH1 0x40 MLOAD DUP1 SWAP2 SUB SWAP1 REVERT JUMPDEST PUSH1 0x0 JUMPDEST PUSH1 0x0 DUP1 SLOAD SWAP1 PUSH2 0x100 EXP SWAP1 DIV PUSH20 0xFFFFFFFFFFFFFFFFFFFFFFFFFFFFFFFFFFFFFFFF AND PUSH20 0xFFFFFFFFFFFFFFFFFFFFFFFFFFFFFFFFFFFFFFFF AND PUSH4 0xE3C8BFB9 PUSH1 0x40 MLOAD DUP2 PUSH4 0xFFFFFFFF AND PUSH1 0xE0 SHL DUP2 MSTORE PUSH1 0x4 ADD PUSH1 0x20 PUSH1 0x40 MLOAD DUP1 DUP4 SUB DUP2 DUP7 GAS STATICCALL ISZERO DUP1 ISZERO PUSH2 0x882 JUMPI RETURNDATASIZE PUSH1 0x0 DUP1 RETURNDATACOPY RETURNDATASIZE PUSH1 0x0 REVERT JUMPDEST POP POP POP POP PUSH1 0x40 MLOAD RETURNDATASIZE PUSH1 0x1F NOT PUSH1 0x1F DUP3 ADD AND DUP3 ADD DUP1 PUSH1 0x40 MSTORE POP DUP2 ADD SWAP1 PUSH2 0x8A6 SWAP2 SWAP1 PUSH2 0x2DC2 JUMP JUMPDEST DUP2 LT ISZERO PUSH2 0x9AC JUMPI DUP2 PUSH1 0x2 ADD DUP2 DUP2 SLOAD DUP2 LT PUSH2 0x8C3 JUMPI PUSH2 0x8C2 PUSH2 0x2C4F JUMP JUMPDEST JUMPDEST SWAP1 PUSH1 0x0 MSTORE PUSH1 0x20 PUSH1 0x0 KECCAK256 ADD PUSH1 0x0 SWAP1 SLOAD SWAP1 PUSH2 0x100 EXP SWAP1 DIV PUSH20 0xFFFFFFFFFFFFFFFFFFFFFFFFFFFFFFFFFFFFFFFF AND PUSH20 0xFFFFFFFFFFFFFFFFFFFFFFFFFFFFFFFFFFFFFFFF AND PUSH4 0xCCE71063 PUSH1 0x40 MLOAD DUP2 PUSH4 0xFFFFFFFF AND PUSH1 0xE0 SHL DUP2 MSTORE PUSH1 0x4 ADD PUSH1 0x20 PUSH1 0x40 MLOAD DUP1 DUP4 SUB DUP2 DUP7 GAS STATICCALL ISZERO DUP1 ISZERO PUSH2 0x938 JUMPI RETURNDATASIZE PUSH1 0x0 DUP1 RETURNDATACOPY RETURNDATASIZE PUSH1 0x0 REVERT JUMPDEST POP POP POP POP PUSH1 0x40 MLOAD RETURNDATASIZE PUSH1 0x1F NOT PUSH1 0x1F DUP3 ADD AND DUP3 ADD DUP1 PUSH1 0x40 MSTORE POP DUP2 ADD SWAP1 PUSH2 0x95C SWAP2 SWAP1 PUSH2 0x2E1B JUMP JUMPDEST PUSH2 0x99B JUMPI PUSH1 0x40 MLOAD PUSH32 0x8C379A000000000000000000000000000000000000000000000000000000000 DUP2 MSTORE PUSH1 0x4 ADD PUSH2 0x992 SWAP1 PUSH2 0x2EBA JUMP JUMPDEST PUSH1 0x40 MLOAD DUP1 SWAP2 SUB SWAP1 REVERT JUMPDEST DUP1 PUSH2 0x9A5 SWAP1 PUSH2 0x2EDA JUMP JUMPDEST SWAP1 POP PUSH2 0x817 JUMP JUMPDEST POP PUSH1 0x0 JUMPDEST PUSH1 0x0 DUP1 SLOAD SWAP1 PUSH2 0x100 EXP SWAP1 DIV PUSH20 0xFFFFFFFFFFFFFFFFFFFFFFFFFFFFFFFFFFFFFFFF AND PUSH20 0xFFFFFFFFFFFFFFFFFFFFFFFFFFFFFFFFFFFFFFFF AND PUSH4 0xE3C8BFB9 PUSH1 0x40 MLOAD DUP2 PUSH4 0xFFFFFFFF AND PUSH1 0xE0 SHL DUP2 MSTORE PUSH1 0x4 ADD PUSH1 0x20 PUSH1 0x40 MLOAD DUP1 DUP4 SUB DUP2 DUP7 GAS STATICCALL ISZERO DUP1 ISZERO PUSH2 0xA1B JUMPI RETURNDATASIZE PUSH1 0x0 DUP1 RETURNDATACOPY RETURNDATASIZE PUSH1 0x0 REVERT JUMPDEST POP POP POP POP PUSH1 0x40 MLOAD RETURNDATASIZE PUSH1 0x1F NOT PUSH1 0x1F DUP3 ADD AND DUP3 ADD DUP1 PUSH1 0x40 MSTORE POP DUP2 ADD SWAP1 PUSH2 0xA3F SWAP2 SWAP1 PUSH2 0x2DC2 JUMP JUMPDEST DUP2 LT ISZERO PUSH2 0xB17 JUMPI PUSH2 0xB06 DUP4 DUP3 DUP5 PUSH1 0x2 ADD DUP5 DUP2 SLOAD DUP2 LT PUSH2 0xA61 JUMPI PUSH2 0xA60 PUSH2 0x2C4F JUMP JUMPDEST JUMPDEST SWAP1 PUSH1 0x0 MSTORE PUSH1 0x20 PUSH1 0x0 KECCAK256 ADD PUSH1 0x0 SWAP1 SLOAD SWAP1 PUSH2 0x100 EXP SWAP1 DIV PUSH20 0xFFFFFFFFFFFFFFFFFFFFFFFFFFFFFFFFFFFFFFFF AND PUSH20 0xFFFFFFFFFFFFFFFFFFFFFFFFFFFFFFFFFFFFFFFF AND PUSH4 0x2F703E08 PUSH1 0x40 MLOAD DUP2 PUSH4 0xFFFFFFFF AND PUSH1 0xE0 SHL DUP2 MSTORE PUSH1 0x4 ADD PUSH1 0x0 PUSH1 0x40 MLOAD DUP1 DUP4 SUB DUP2 PUSH1 0x0 DUP8 GAS CALL ISZERO DUP1 ISZERO PUSH2 0xAD8 JUMPI RETURNDATASIZE PUSH1 0x0 DUP1 RETURNDATACOPY RETURNDATASIZE PUSH1 0x0 REVERT JUMPDEST POP POP POP POP PUSH1 0x40 MLOAD RETURNDATASIZE PUSH1 0x0 DUP3 RETURNDATACOPY RETURNDATASIZE PUSH1 0x1F NOT PUSH1 0x1F DUP3 ADD AND DUP3 ADD DUP1 PUSH1 0x40 MSTORE POP DUP2 ADD SWAP1 PUSH2 0xB01 SWAP2 SWAP1 PUSH2 0x3048 JUMP JUMPDEST PUSH2 0x1D4F JUMP JUMPDEST DUP1 PUSH2 0xB10 SWAP1 PUSH2 0x2EDA JUMP JUMPDEST SWAP1 POP PUSH2 0x9B0 JUMP JUMPDEST POP PUSH1 0x8 DUP2 PUSH1 0x3 ADD PUSH1 0x0 PUSH2 0x100 EXP DUP2 SLOAD DUP2 PUSH1 0xFF MUL NOT AND SWAP1 DUP4 PUSH1 0xA DUP2 GT ISZERO PUSH2 0xB40 JUMPI PUSH2 0xB3F PUSH2 0x2B41 JUMP JUMPDEST JUMPDEST MUL OR SWAP1 SSTORE POP PUSH32 0x58D4562CF15D1052E816FD24F6AF2C8A3A21416D6E4C01A9E11EF84FFE537E25 DUP3 DUP3 PUSH1 0x3 ADD PUSH1 0x0 SWAP1 SLOAD SWAP1 PUSH2 0x100 EXP SWAP1 DIV PUSH1 0xFF AND PUSH1 0x40 MLOAD PUSH2 0xB87 SWAP3 SWAP2 SWAP1 PUSH2 0x2CE1 JUMP JUMPDEST PUSH1 0x40 MLOAD DUP1 SWAP2 SUB SWAP1 LOG1 POP POP JUMP JUMPDEST PUSH1 0x0 PUSH1 0x4 PUSH1 0x0 DUP6 DUP2 MSTORE PUSH1 0x20 ADD SWAP1 DUP2 MSTORE PUSH1 0x20 ADD PUSH1 0x0 KECCAK256 SWAP1 POP PUSH1 0x1 PUSH1 0xA DUP2 GT ISZERO PUSH2 0xBBE JUMPI PUSH2 0xBBD PUSH2 0x2B41 JUMP JUMPDEST JUMPDEST DUP2 PUSH1 0x3 ADD PUSH1 0x0 SWAP1 SLOAD SWAP1 PUSH2 0x100 EXP SWAP1 DIV PUSH1 0xFF AND PUSH1 0xA DUP2 GT ISZERO PUSH2 0xBE2 JUMPI PUSH2 0xBE1 PUSH2 0x2B41 JUMP JUMPDEST JUMPDEST EQ PUSH2 0xC22 JUMPI PUSH1 0x40 MLOAD PUSH32 0x8C379A000000000000000000000000000000000000000000000000000000000 DUP2 MSTORE PUSH1 0x4 ADD PUSH2 0xC19 SWAP1 PUSH2 0x3103 JUMP JUMPDEST PUSH1 0x40 MLOAD DUP1 SWAP2 SUB SWAP1 REVERT JUMPDEST DUP3 DUP2 PUSH1 0x1 ADD PUSH1 0x1 DUP2 SLOAD DUP2 LT PUSH2 0xC3A JUMPI PUSH2 0xC39 PUSH2 0x2C4F JUMP JUMPDEST JUMPDEST SWAP1 PUSH1 0x0 MSTORE PUSH1 0x20 PUSH1 0x0 KECCAK256 ADD PUSH1 0x0 PUSH2 0x100 EXP DUP2 SLOAD DUP2 PUSH20 0xFFFFFFFFFFFFFFFFFFFFFFFFFFFFFFFFFFFFFFFF MUL NOT AND SWAP1 DUP4 PUSH20 0xFFFFFFFFFFFFFFFFFFFFFFFFFFFFFFFFFFFFFFFF AND MUL OR SWAP1 SSTORE POP DUP2 DUP2 PUSH1 0x2 ADD PUSH1 0x1 DUP2 SLOAD DUP2 LT PUSH2 0xC9A JUMPI PUSH2 0xC99 PUSH2 0x2C4F JUMP JUMPDEST JUMPDEST SWAP1 PUSH1 0x0 MSTORE PUSH1 0x20 PUSH1 0x0 KECCAK256 ADD PUSH1 0x0 PUSH2 0x100 EXP DUP2 SLOAD DUP2 PUSH20 0xFFFFFFFFFFFFFFFFFFFFFFFFFFFFFFFFFFFFFFFF MUL NOT AND SWAP1 DUP4 PUSH20 0xFFFFFFFFFFFFFFFFFFFFFFFFFFFFFFFFFFFFFFFF AND MUL OR SWAP1 SSTORE POP PUSH1 0x2 DUP2 PUSH1 0x3 ADD PUSH1 0x0 PUSH2 0x100 EXP DUP2 SLOAD DUP2 PUSH1 0xFF MUL NOT AND SWAP1 DUP4 PUSH1 0xA DUP2 GT ISZERO PUSH2 0xD0A JUMPI PUSH2 0xD09 PUSH2 0x2B41 JUMP JUMPDEST JUMPDEST MUL OR SWAP1 SSTORE POP PUSH2 0xD18 DUP5 PUSH2 0x24BE JUMP JUMPDEST PUSH2 0xD2C PUSH2 0x515 PUSH8 0xADBF78816EE7165 PUSH2 0x2577 JUMP JUMPDEST PUSH32 0x58D4562CF15D1052E816FD24F6AF2C8A3A21416D6E4C01A9E11EF84FFE537E25 DUP5 DUP3 PUSH1 0x3 ADD PUSH1 0x0 SWAP1 SLOAD SWAP1 PUSH2 0x100 EXP SWAP1 DIV PUSH1 0xFF AND PUSH1 0x40 MLOAD PUSH2 0xD6E SWAP3 SWAP2 SWAP1 PUSH2 0x2CE1 JUMP JUMPDEST PUSH1 0x40 MLOAD DUP1 SWAP2 SUB SWAP1 LOG1 POP POP POP POP JUMP JUMPDEST PUSH1 0x5 PUSH1 0x20 MSTORE DUP1 PUSH1 0x0 MSTORE PUSH1 0x40 PUSH1 0x0 KECCAK256 PUSH1 0x0 SWAP2 POP SWAP1 POP SLOAD DUP2 JUMP JUMPDEST PUSH1 0x5 DUP2 JUMP JUMPDEST PUSH1 0x7 DUP2 JUMP JUMPDEST PUSH2 0x3E8 DUP2 JUMP JUMPDEST PUSH1 0x6 DUP2 JUMP JUMPDEST PUSH1 0x0 PUSH1 0x4 PUSH1 0x0 DUP4 DUP2 MSTORE PUSH1 0x20 ADD SWAP1 DUP2 MSTORE PUSH1 0x20 ADD PUSH1 0x0 KECCAK256 SWAP1 POP PUSH2 0xDFE PUSH1 0x40 MLOAD DUP1 PUSH1 0x40 ADD PUSH1 0x40 MSTORE DUP1 PUSH1 0x17 DUP2 MSTORE PUSH1 0x20 ADD PUSH32 0x636F6D6D69746D656E745469636B202D2063616C6C6564000000000000000000 DUP2 MSTORE POP PUSH2 0x2677 JUMP JUMPDEST PUSH1 0x4 PUSH1 0xA DUP2 GT ISZERO PUSH2 0xE12 JUMPI PUSH2 0xE11 PUSH2 0x2B41 JUMP JUMPDEST JUMPDEST DUP2 PUSH1 0x3 ADD PUSH1 0x0 SWAP1 SLOAD SWAP1 PUSH2 0x100 EXP SWAP1 DIV PUSH1 0xFF AND PUSH1 0xA DUP2 GT ISZERO PUSH2 0xE36 JUMPI PUSH2 0xE35 PUSH2 0x2B41 JUMP JUMPDEST JUMPDEST EQ DUP1 PUSH2 0xE77 JUMPI POP PUSH1 0x9 PUSH1 0xA DUP2 GT ISZERO PUSH2 0xE51 JUMPI PUSH2 0xE50 PUSH2 0x2B41 JUMP JUMPDEST JUMPDEST DUP2 PUSH1 0x3 ADD PUSH1 0x0 SWAP1 SLOAD SWAP1 PUSH2 0x100 EXP SWAP1 DIV PUSH1 0xFF AND PUSH1 0xA DUP2 GT ISZERO PUSH2 0xE75 JUMPI PUSH2 0xE74 PUSH2 0x2B41 JUMP JUMPDEST JUMPDEST EQ JUMPDEST PUSH2 0xEB6 JUMPI PUSH1 0x40 MLOAD PUSH32 0x8C379A000000000000000000000000000000000000000000000000000000000 DUP2 MSTORE PUSH1 0x4 ADD PUSH2 0xEAD SWAP1 PUSH2 0x3195 JUMP JUMPDEST PUSH1 0x40 MLOAD DUP1 SWAP2 SUB SWAP1 REVERT JUMPDEST PUSH2 0xEDF DUP3 PUSH1 0x1 PUSH1 0x6 PUSH1 0x0 DUP7 DUP2 MSTORE PUSH1 0x20 ADD SWAP1 DUP2 MSTORE PUSH1 0x20 ADD PUSH1 0x0 KECCAK256 SLOAD PUSH2 0xEDA SWAP2 SWAP1 PUSH2 0x2CAD JUMP JUMPDEST PUSH2 0x1801 JUMP JUMPDEST PUSH2 0xF00 PUSH1 0x40 MLOAD DUP1 PUSH1 0x60 ADD PUSH1 0x40 MSTORE DUP1 PUSH1 0x29 DUP2 MSTORE PUSH1 0x20 ADD PUSH2 0x3953 PUSH1 0x29 SWAP2 CODECOPY PUSH2 0x2677 JUMP JUMPDEST PUSH1 0x0 JUMPDEST PUSH1 0x0 DUP1 SLOAD SWAP1 PUSH2 0x100 EXP SWAP1 DIV PUSH20 0xFFFFFFFFFFFFFFFFFFFFFFFFFFFFFFFFFFFFFFFF AND PUSH20 0xFFFFFFFFFFFFFFFFFFFFFFFFFFFFFFFFFFFFFFFF AND PUSH4 0xE3C8BFB9 PUSH1 0x40 MLOAD DUP2 PUSH4 0xFFFFFFFF AND PUSH1 0xE0 SHL DUP2 MSTORE PUSH1 0x4 ADD PUSH1 0x20 PUSH1 0x40 MLOAD DUP1 DUP4 SUB DUP2 DUP7 GAS STATICCALL ISZERO DUP1 ISZERO PUSH2 0xF6E JUMPI RETURNDATASIZE PUSH1 0x0 DUP1 RETURNDATACOPY RETURNDATASIZE PUSH1 0x0 REVERT JUMPDEST POP POP POP POP PUSH1 0x40 MLOAD RETURNDATASIZE PUSH1 0x1F NOT PUSH1 0x1F DUP3 ADD AND DUP3 ADD DUP1 PUSH1 0x40 MSTORE POP DUP2 ADD SWAP1 PUSH2 0xF92 SWAP2 SWAP1 PUSH2 0x2DC2 JUMP JUMPDEST DUP2 LT ISZERO PUSH2 0x104A JUMPI DUP2 PUSH1 0x1 ADD DUP2 DUP2 SLOAD DUP2 LT PUSH2 0xFAF JUMPI PUSH2 0xFAE PUSH2 0x2C4F JUMP JUMPDEST JUMPDEST SWAP1 PUSH1 0x0 MSTORE PUSH1 0x20 PUSH1 0x0 KECCAK256 ADD PUSH1 0x0 SWAP1 SLOAD SWAP1 PUSH2 0x100 EXP SWAP1 DIV PUSH20 0xFFFFFFFFFFFFFFFFFFFFFFFFFFFFFFFFFFFFFFFF AND PUSH20 0xFFFFFFFFFFFFFFFFFFFFFFFFFFFFFFFFFFFFFFFF AND PUSH4 0x606DEECD PUSH1 0x40 MLOAD DUP2 PUSH4 0xFFFFFFFF AND PUSH1 0xE0 SHL DUP2 MSTORE PUSH1 0x4 ADD PUSH1 0x0 PUSH1 0x40 MLOAD DUP1 DUP4 SUB DUP2 PUSH1 0x0 DUP8 DUP1 EXTCODESIZE ISZERO DUP1 ISZERO PUSH2 0x1021 JUMPI PUSH1 0x0 DUP1 REVERT JUMPDEST POP GAS CALL ISZERO DUP1 ISZERO PUSH2 0x1035 JUMPI RETURNDATASIZE PUSH1 0x0 DUP1 RETURNDATACOPY RETURNDATASIZE PUSH1 0x0 REVERT JUMPDEST POP POP POP POP DUP1 PUSH2 0x1043 SWAP1 PUSH2 0x2EDA JUMP JUMPDEST SWAP1 POP PUSH2 0xF03 JUMP JUMPDEST POP PUSH1 0x5 DUP2 PUSH1 0x3 ADD PUSH1 0x0 PUSH2 0x100 EXP DUP2 SLOAD DUP2 PUSH1 0xFF MUL NOT AND SWAP1 DUP4 PUSH1 0xA DUP2 GT ISZERO PUSH2 0x1073 JUMPI PUSH2 0x1072 PUSH2 0x2B41 JUMP JUMPDEST JUMPDEST MUL OR SWAP1 SSTORE POP PUSH32 0x58D4562CF15D1052E816FD24F6AF2C8A3A21416D6E4C01A9E11EF84FFE537E25 DUP3 DUP3 PUSH1 0x3 ADD PUSH1 0x0 SWAP1 SLOAD SWAP1 PUSH2 0x100 EXP SWAP1 DIV PUSH1 0xFF AND PUSH1 0x40 MLOAD PUSH2 0x10BA SWAP3 SWAP2 SWAP1 PUSH2 0x2CE1 JUMP JUMPDEST PUSH1 0x40 MLOAD DUP1 SWAP2 SUB SWAP1 LOG1 POP POP JUMP JUMPDEST PUSH1 0xA DUP2 JUMP JUMPDEST PUSH1 0x0 DUP1 SLOAD SWAP1 PUSH2 0x100 EXP SWAP1 DIV PUSH20 0xFFFFFFFFFFFFFFFFFFFFFFFFFFFFFFFFFFFFFFFF AND DUP2 JUMP JUMPDEST PUSH1 0x7 DUP2 JUMP JUMPDEST PUSH1 0x6 PUSH1 0x20 MSTORE DUP1 PUSH1 0x0 MSTORE PUSH1 0x40 PUSH1 0x0 KECCAK256 PUSH1 0x0 SWAP2 POP SWAP1 POP SLOAD DUP2 JUMP JUMPDEST PUSH1 0x2 PUSH1 0x0 SWAP1 SLOAD SWAP1 PUSH2 0x100 EXP SWAP1 DIV PUSH20 0xFFFFFFFFFFFFFFFFFFFFFFFFFFFFFFFFFFFFFFFF AND DUP2 JUMP JUMPDEST PUSH1 0x0 PUSH1 0x4 PUSH1 0x0 DUP4 DUP2 MSTORE PUSH1 0x20 ADD SWAP1 DUP2 MSTORE PUSH1 0x20 ADD PUSH1 0x0 KECCAK256 SWAP1 POP PUSH1 0x5 PUSH1 0xA DUP2 GT ISZERO PUSH2 0x115D JUMPI PUSH2 0x115C PUSH2 0x2B41 JUMP JUMPDEST JUMPDEST DUP2 PUSH1 0x3 ADD PUSH1 0x0 SWAP1 SLOAD SWAP1 PUSH2 0x100 EXP SWAP1 DIV PUSH1 0xFF AND PUSH1 0xA DUP2 GT ISZERO PUSH2 0x1181 JUMPI PUSH2 0x1180 PUSH2 0x2B41 JUMP JUMPDEST JUMPDEST EQ PUSH2 0x11C1 JUMPI PUSH1 0x40 MLOAD PUSH32 0x8C379A000000000000000000000000000000000000000000000000000000000 DUP2 MSTORE PUSH1 0x4 ADD PUSH2 0x11B8 SWAP1 PUSH2 0x3227 JUMP JUMPDEST PUSH1 0x40 MLOAD DUP1 SWAP2 SUB SWAP1 REVERT JUMPDEST PUSH1 0x0 JUMPDEST PUSH1 0x0 DUP1 SLOAD SWAP1 PUSH2 0x100 EXP SWAP1 DIV PUSH20 0xFFFFFFFFFFFFFFFFFFFFFFFFFFFFFFFFFFFFFFFF AND PUSH20 0xFFFFFFFFFFFFFFFFFFFFFFFFFFFFFFFFFFFFFFFF AND PUSH4 0xE3C8BFB9 PUSH1 0x40 MLOAD DUP2 PUSH4 0xFFFFFFFF AND PUSH1 0xE0 SHL DUP2 MSTORE PUSH1 0x4 ADD PUSH1 0x20 PUSH1 0x40 MLOAD DUP1 DUP4 SUB DUP2 DUP7 GAS STATICCALL ISZERO DUP1 ISZERO PUSH2 0x122F JUMPI RETURNDATASIZE PUSH1 0x0 DUP1 RETURNDATACOPY RETURNDATASIZE PUSH1 0x0 REVERT JUMPDEST POP POP POP POP PUSH1 0x40 MLOAD RETURNDATASIZE PUSH1 0x1F NOT PUSH1 0x1F DUP3 ADD AND DUP3 ADD DUP1 PUSH1 0x40 MSTORE POP DUP2 ADD SWAP1 PUSH2 0x1253 SWAP2 SWAP1 PUSH2 0x2DC2 JUMP JUMPDEST DUP2 LT ISZERO PUSH2 0x1359 JUMPI DUP2 PUSH1 0x1 ADD DUP2 DUP2 SLOAD DUP2 LT PUSH2 0x1270 JUMPI PUSH2 0x126F PUSH2 0x2C4F JUMP JUMPDEST JUMPDEST SWAP1 PUSH1 0x0 MSTORE PUSH1 0x20 PUSH1 0x0 KECCAK256 ADD PUSH1 0x0 SWAP1 SLOAD SWAP1 PUSH2 0x100 EXP SWAP1 DIV PUSH20 0xFFFFFFFFFFFFFFFFFFFFFFFFFFFFFFFFFFFFFFFF AND PUSH20 0xFFFFFFFFFFFFFFFFFFFFFFFFFFFFFFFFFFFFFFFF AND PUSH4 0xCCE71063 PUSH1 0x40 MLOAD DUP2 PUSH4 0xFFFFFFFF AND PUSH1 0xE0 SHL DUP2 MSTORE PUSH1 0x4 ADD PUSH1 0x20 PUSH1 0x40 MLOAD DUP1 DUP4 SUB DUP2 DUP7 GAS STATICCALL ISZERO DUP1 ISZERO PUSH2 0x12E5 JUMPI RETURNDATASIZE PUSH1 0x0 DUP1 RETURNDATACOPY RETURNDATASIZE PUSH1 0x0 REVERT JUMPDEST POP POP POP POP PUSH1 0x40 MLOAD RETURNDATASIZE PUSH1 0x1F NOT PUSH1 0x1F DUP3 ADD AND DUP3 ADD DUP1 PUSH1 0x40 MSTORE POP DUP2 ADD SWAP1 PUSH2 0x1309 SWAP2 SWAP1 PUSH2 0x2E1B JUMP JUMPDEST PUSH2 0x1348 JUMPI PUSH1 0x40 MLOAD PUSH32 0x8C379A000000000000000000000000000000000000000000000000000000000 DUP2 MSTORE PUSH1 0x4 ADD PUSH2 0x133F SWAP1 PUSH2 0x2EBA JUMP JUMPDEST PUSH1 0x40 MLOAD DUP1 SWAP2 SUB SWAP1 REVERT JUMPDEST DUP1 PUSH2 0x1352 SWAP1 PUSH2 0x2EDA JUMP JUMPDEST SWAP1 POP PUSH2 0x11C4 JUMP JUMPDEST POP PUSH1 0x0 JUMPDEST PUSH1 0x0 DUP1 SLOAD SWAP1 PUSH2 0x100 EXP SWAP1 DIV PUSH20 0xFFFFFFFFFFFFFFFFFFFFFFFFFFFFFFFFFFFFFFFF AND PUSH20 0xFFFFFFFFFFFFFFFFFFFFFFFFFFFFFFFFFFFFFFFF AND PUSH4 0xE3C8BFB9 PUSH1 0x40 MLOAD DUP2 PUSH4 0xFFFFFFFF AND PUSH1 0xE0 SHL DUP2 MSTORE PUSH1 0x4 ADD PUSH1 0x20 PUSH1 0x40 MLOAD DUP1 DUP4 SUB DUP2 DUP7 GAS STATICCALL ISZERO DUP1 ISZERO PUSH2 0x13C8 JUMPI RETURNDATASIZE PUSH1 0x0 DUP1 RETURNDATACOPY RETURNDATASIZE PUSH1 0x0 REVERT JUMPDEST POP POP POP POP PUSH1 0x40 MLOAD RETURNDATASIZE PUSH1 0x1F NOT PUSH1 0x1F DUP3 ADD AND DUP3 ADD DUP1 PUSH1 0x40 MSTORE POP DUP2 ADD SWAP1 PUSH2 0x13EC SWAP2 SWAP1 PUSH2 0x2DC2 JUMP JUMPDEST DUP2 LT ISZERO PUSH2 0x14C4 JUMPI PUSH2 0x14B3 DUP4 DUP3 DUP5 PUSH1 0x1 ADD DUP5 DUP2 SLOAD DUP2 LT PUSH2 0x140E JUMPI PUSH2 0x140D PUSH2 0x2C4F JUMP JUMPDEST JUMPDEST SWAP1 PUSH1 0x0 MSTORE PUSH1 0x20 PUSH1 0x0 KECCAK256 ADD PUSH1 0x0 SWAP1 SLOAD SWAP1 PUSH2 0x100 EXP SWAP1 DIV PUSH20 0xFFFFFFFFFFFFFFFFFFFFFFFFFFFFFFFFFFFFFFFF AND PUSH20 0xFFFFFFFFFFFFFFFFFFFFFFFFFFFFFFFFFFFFFFFF AND PUSH4 0x2F703E08 PUSH1 0x40 MLOAD DUP2 PUSH4 0xFFFFFFFF AND PUSH1 0xE0 SHL DUP2 MSTORE PUSH1 0x4 ADD PUSH1 0x0 PUSH1 0x40 MLOAD DUP1 DUP4 SUB DUP2 PUSH1 0x0 DUP8 GAS CALL ISZERO DUP1 ISZERO PUSH2 0x1485 JUMPI RETURNDATASIZE PUSH1 0x0 DUP1 RETURNDATACOPY RETURNDATASIZE PUSH1 0x0 REVERT JUMPDEST POP POP POP POP PUSH1 0x40 MLOAD RETURNDATASIZE PUSH1 0x0 DUP3 RETURNDATACOPY RETURNDATASIZE PUSH1 0x1F NOT PUSH1 0x1F DUP3 ADD AND DUP3 ADD DUP1 PUSH1 0x40 MSTORE POP DUP2 ADD SWAP1 PUSH2 0x14AE SWAP2 SWAP1 PUSH2 0x3048 JUMP JUMPDEST PUSH2 0x2710 JUMP JUMPDEST DUP1 PUSH2 0x14BD SWAP1 PUSH2 0x2EDA JUMP JUMPDEST SWAP1 POP PUSH2 0x135D JUMP JUMPDEST POP PUSH1 0x6 DUP2 PUSH1 0x3 ADD PUSH1 0x0 PUSH2 0x100 EXP DUP2 SLOAD DUP2 PUSH1 0xFF MUL NOT AND SWAP1 DUP4 PUSH1 0xA DUP2 GT ISZERO PUSH2 0x14ED JUMPI PUSH2 0x14EC PUSH2 0x2B41 JUMP JUMPDEST JUMPDEST MUL OR SWAP1 SSTORE POP PUSH32 0x58D4562CF15D1052E816FD24F6AF2C8A3A21416D6E4C01A9E11EF84FFE537E25 DUP3 DUP3 PUSH1 0x3 ADD PUSH1 0x0 SWAP1 SLOAD SWAP1 PUSH2 0x100 EXP SWAP1 DIV PUSH1 0xFF AND PUSH1 0x40 MLOAD PUSH2 0x1534 SWAP3 SWAP2 SWAP1 PUSH2 0x2CE1 JUMP JUMPDEST PUSH1 0x40 MLOAD DUP1 SWAP2 SUB SWAP1 LOG1 POP POP JUMP JUMPDEST PUSH1 0xA DUP2 JUMP JUMPDEST PUSH1 0x5 DUP2 JUMP JUMPDEST PUSH1 0x4 PUSH1 0x20 MSTORE DUP1 PUSH1 0x0 MSTORE PUSH1 0x40 PUSH1 0x0 KECCAK256 PUSH1 0x0 SWAP2 POP SWAP1 POP DUP1 PUSH1 0x0 ADD SLOAD SWAP1 DUP1 PUSH1 0x3 ADD PUSH1 0x0 SWAP1 SLOAD SWAP1 PUSH2 0x100 EXP SWAP1 DIV PUSH1 0xFF AND SWAP1 DUP1 PUSH1 0x4 ADD SLOAD SWAP1 POP DUP4 JUMP JUMPDEST PUSH1 0x1 PUSH1 0x0 SWAP1 SLOAD SWAP1 PUSH2 0x100 EXP SWAP1 DIV PUSH20 0xFFFFFFFFFFFFFFFFFFFFFFFFFFFFFFFFFFFFFFFF AND DUP2 JUMP JUMPDEST PUSH1 0x2 DUP2 JUMP JUMPDEST PUSH1 0x0 PUSH1 0x4 PUSH1 0x0 DUP4 DUP2 MSTORE PUSH1 0x20 ADD SWAP1 DUP2 MSTORE PUSH1 0x20 ADD PUSH1 0x0 KECCAK256 SWAP1 POP PUSH1 0x6 PUSH1 0xA DUP2 GT ISZERO PUSH2 0x15D7 JUMPI PUSH2 0x15D6 PUSH2 0x2B41 JUMP JUMPDEST JUMPDEST DUP2 PUSH1 0x3 ADD PUSH1 0x0 SWAP1 SLOAD SWAP1 PUSH2 0x100 EXP SWAP1 DIV PUSH1 0xFF AND PUSH1 0xA DUP2 GT ISZERO PUSH2 0x15FB JUMPI PUSH2 0x15FA PUSH2 0x2B41 JUMP JUMPDEST JUMPDEST EQ PUSH2 0x163B JUMPI PUSH1 0x40 MLOAD PUSH32 0x8C379A000000000000000000000000000000000000000000000000000000000 DUP2 MSTORE PUSH1 0x4 ADD PUSH2 0x1632 SWAP1 PUSH2 0x32B9 JUMP JUMPDEST PUSH1 0x40 MLOAD DUP1 SWAP2 SUB SWAP1 REVERT JUMPDEST PUSH1 0x0 JUMPDEST PUSH1 0x0 DUP1 SLOAD SWAP1 PUSH2 0x100 EXP SWAP1 DIV PUSH20 0xFFFFFFFFFFFFFFFFFFFFFFFFFFFFFFFFFFFFFFFF AND PUSH20 0xFFFFFFFFFFFFFFFFFFFFFFFFFFFFFFFFFFFFFFFF AND PUSH4 0xE3C8BFB9 PUSH1 0x40 MLOAD DUP2 PUSH4 0xFFFFFFFF AND PUSH1 0xE0 SHL DUP2 MSTORE PUSH1 0x4 ADD PUSH1 0x20 PUSH1 0x40 MLOAD DUP1 DUP4 SUB DUP2 DUP7 GAS STATICCALL ISZERO DUP1 ISZERO PUSH2 0x16A9 JUMPI RETURNDATASIZE PUSH1 0x0 DUP1 RETURNDATACOPY RETURNDATASIZE PUSH1 0x0 REVERT JUMPDEST POP POP POP POP PUSH1 0x40 MLOAD RETURNDATASIZE PUSH1 0x1F NOT PUSH1 0x1F DUP3 ADD AND DUP3 ADD DUP1 PUSH1 0x40 MSTORE POP DUP2 ADD SWAP1 PUSH2 0x16CD SWAP2 SWAP1 PUSH2 0x2DC2 JUMP JUMPDEST DUP2 LT ISZERO PUSH2 0x1785 JUMPI DUP2 PUSH1 0x2 ADD DUP2 DUP2 SLOAD DUP2 LT PUSH2 0x16EA JUMPI PUSH2 0x16E9 PUSH2 0x2C4F JUMP JUMPDEST JUMPDEST SWAP1 PUSH1 0x0 MSTORE PUSH1 0x20 PUSH1 0x0 KECCAK256 ADD PUSH1 0x0 SWAP1 SLOAD SWAP1 PUSH2 0x100 EXP SWAP1 DIV PUSH20 0xFFFFFFFFFFFFFFFFFFFFFFFFFFFFFFFFFFFFFFFF AND PUSH20 0xFFFFFFFFFFFFFFFFFFFFFFFFFFFFFFFFFFFFFFFF AND PUSH4 0x606DEECD PUSH1 0x40 MLOAD DUP2 PUSH4 0xFFFFFFFF AND PUSH1 0xE0 SHL DUP2 MSTORE PUSH1 0x4 ADD PUSH1 0x0 PUSH1 0x40 MLOAD DUP1 DUP4 SUB DUP2 PUSH1 0x0 DUP8 DUP1 EXTCODESIZE ISZERO DUP1 ISZERO PUSH2 0x175C JUMPI PUSH1 0x0 DUP1 REVERT JUMPDEST POP GAS CALL ISZERO DUP1 ISZERO PUSH2 0x1770 JUMPI RETURNDATASIZE PUSH1 0x0 DUP1 RETURNDATACOPY RETURNDATASIZE PUSH1 0x0 REVERT JUMPDEST POP POP POP POP DUP1 PUSH2 0x177E SWAP1 PUSH2 0x2EDA JUMP JUMPDEST SWAP1 POP PUSH2 0x163E JUMP JUMPDEST POP PUSH1 0x7 DUP2 PUSH1 0x3 ADD PUSH1 0x0 PUSH2 0x100 EXP DUP2 SLOAD DUP2 PUSH1 0xFF MUL NOT AND SWAP1 DUP4 PUSH1 0xA DUP2 GT ISZERO PUSH2 0x17AE JUMPI PUSH2 0x17AD PUSH2 0x2B41 JUMP JUMPDEST JUMPDEST MUL OR SWAP1 SSTORE POP PUSH32 0x58D4562CF15D1052E816FD24F6AF2C8A3A21416D6E4C01A9E11EF84FFE537E25 DUP3 DUP3 PUSH1 0x3 ADD PUSH1 0x0 SWAP1 SLOAD SWAP1 PUSH2 0x100 EXP SWAP1 DIV PUSH1 0xFF AND PUSH1 0x40 MLOAD PUSH2 0x17F5 SWAP3 SWAP2 SWAP1 PUSH2 0x2CE1 JUMP JUMPDEST PUSH1 0x40 MLOAD DUP1 SWAP2 SUB SWAP1 LOG1 POP POP JUMP JUMPDEST PUSH1 0x0 DUP2 SUB PUSH2 0x192D JUMPI PUSH1 0x0 JUMPDEST PUSH1 0x0 DUP1 SLOAD SWAP1 PUSH2 0x100 EXP SWAP1 DIV PUSH20 0xFFFFFFFFFFFFFFFFFFFFFFFFFFFFFFFFFFFFFFFF AND PUSH20 0xFFFFFFFFFFFFFFFFFFFFFFFFFFFFFFFFFFFFFFFF AND PUSH4 0xE3C8BFB9 PUSH1 0x40 MLOAD DUP2 PUSH4 0xFFFFFFFF AND PUSH1 0xE0 SHL DUP2 MSTORE PUSH1 0x4 ADD PUSH1 0x20 PUSH1 0x40 MLOAD DUP1 DUP4 SUB DUP2 DUP7 GAS STATICCALL ISZERO DUP1 ISZERO PUSH2 0x1877 JUMPI RETURNDATASIZE PUSH1 0x0 DUP1 RETURNDATACOPY RETURNDATASIZE PUSH1 0x0 REVERT JUMPDEST POP POP POP POP PUSH1 0x40 MLOAD RETURNDATASIZE PUSH1 0x1F NOT PUSH1 0x1F DUP3 ADD AND DUP3 ADD DUP1 PUSH1 0x40 MSTORE POP DUP2 ADD SWAP1 PUSH2 0x189B SWAP2 SWAP1 PUSH2 0x2DC2 JUMP JUMPDEST DUP2 LT ISZERO PUSH2 0x192B JUMPI PUSH1 0x4 PUSH1 0x0 DUP5 DUP2 MSTORE PUSH1 0x20 ADD SWAP1 DUP2 MSTORE PUSH1 0x20 ADD PUSH1 0x0 KECCAK256 PUSH1 0x1 ADD PUSH1 0x1 DUP2 PUSH1 0x1 DUP2 SLOAD ADD DUP1 DUP3 SSTORE DUP1 SWAP2 POP POP SUB SWAP1 PUSH1 0x0 MSTORE PUSH1 0x20 PUSH1 0x0 KECCAK256 ADD PUSH1 0x0 SWAP1 SLOAD SWAP1 PUSH2 0x100 EXP SWAP1 POP POP PUSH1 0x4 PUSH1 0x0 DUP5 DUP2 MSTORE PUSH1 0x20 ADD SWAP1 DUP2 MSTORE PUSH1 0x20 ADD PUSH1 0x0 KECCAK256 PUSH1 0x2 ADD PUSH1 0x1 DUP2 PUSH1 0x1 DUP2 SLOAD ADD DUP1 DUP3 SSTORE DUP1 SWAP2 POP POP SUB SWAP1 PUSH1 0x0 MSTORE PUSH1 0x20 PUSH1 0x0 KECCAK256 ADD PUSH1 0x0 SWAP1 SLOAD SWAP1 PUSH2 0x100 EXP SWAP1 POP POP DUP1 PUSH2 0x1924 SWAP1 PUSH2 0x2EDA JUMP JUMPDEST SWAP1 POP PUSH2 0x180C JUMP JUMPDEST POP JUMPDEST PUSH1 0x0 PUSH1 0x7 PUSH1 0x0 DUP5 DUP2 MSTORE PUSH1 0x20 ADD SWAP1 DUP2 MSTORE PUSH1 0x20 ADD PUSH1 0x0 KECCAK256 PUSH1 0x0 DUP4 DUP2 MSTORE PUSH1 0x20 ADD SWAP1 DUP2 MSTORE PUSH1 0x20 ADD PUSH1 0x0 KECCAK256 SWAP1 POP PUSH1 0x0 PUSH1 0x8 PUSH1 0x0 DUP6 DUP2 MSTORE PUSH1 0x20 ADD SWAP1 DUP2 MSTORE PUSH1 0x20 ADD PUSH1 0x0 KECCAK256 PUSH1 0x0 DUP5 DUP2 MSTORE PUSH1 0x20 ADD SWAP1 DUP2 MSTORE PUSH1 0x20 ADD PUSH1 0x0 KECCAK256 SWAP1 POP PUSH1 0x0 PUSH1 0x9 PUSH1 0x0 DUP7 DUP2 MSTORE PUSH1 0x20 ADD SWAP1 DUP2 MSTORE PUSH1 0x20 ADD PUSH1 0x0 KECCAK256 PUSH1 0x0 DUP6 DUP2 MSTORE PUSH1 0x20 ADD SWAP1 DUP2 MSTORE PUSH1 0x20 ADD PUSH1 0x0 KECCAK256 SWAP1 POP PUSH1 0x0 JUMPDEST PUSH1 0x0 DUP1 SLOAD SWAP1 PUSH2 0x100 EXP SWAP1 DIV PUSH20 0xFFFFFFFFFFFFFFFFFFFFFFFFFFFFFFFFFFFFFFFF AND PUSH20 0xFFFFFFFFFFFFFFFFFFFFFFFFFFFFFFFFFFFFFFFF AND PUSH4 0xE3C8BFB9 PUSH1 0x40 MLOAD DUP2 PUSH4 0xFFFFFFFF AND PUSH1 0xE0 SHL DUP2 MSTORE PUSH1 0x4 ADD PUSH1 0x20 PUSH1 0x40 MLOAD DUP1 DUP4 SUB DUP2 DUP7 GAS STATICCALL ISZERO DUP1 ISZERO PUSH2 0x1A13 JUMPI RETURNDATASIZE PUSH1 0x0 DUP1 RETURNDATACOPY RETURNDATASIZE PUSH1 0x0 REVERT JUMPDEST POP POP POP POP PUSH1 0x40 MLOAD RETURNDATASIZE PUSH1 0x1F NOT PUSH1 0x1F DUP3 ADD AND DUP3 ADD DUP1 PUSH1 0x40 MSTORE POP DUP2 ADD SWAP1 PUSH2 0x1A37 SWAP2 SWAP1 PUSH2 0x2DC2 JUMP JUMPDEST DUP2 LT ISZERO PUSH2 0x1D47 JUMPI DUP4 PUSH1 0x0 ADD PUSH1 0x0 SWAP1 DUP1 PUSH1 0x1 DUP2 SLOAD ADD DUP1 DUP3 SSTORE DUP1 SWAP2 POP POP PUSH1 0x1 SWAP1 SUB SWAP1 PUSH1 0x0 MSTORE PUSH1 0x20 PUSH1 0x0 KECCAK256 ADD PUSH1 0x0 SWAP1 SWAP2 SWAP1 SWAP2 SWAP1 SWAP2 POP SSTORE DUP3 PUSH1 0x1 DUP2 PUSH1 0x1 DUP2 SLOAD ADD DUP1 DUP3 SSTORE DUP1 SWAP2 POP POP SUB SWAP1 PUSH1 0x0 MSTORE PUSH1 0x20 PUSH1 0x0 KECCAK256 SWAP1 POP POP PUSH1 0x0 JUMPDEST PUSH1 0x0 DUP1 SLOAD SWAP1 PUSH2 0x100 EXP SWAP1 DIV PUSH20 0xFFFFFFFFFFFFFFFFFFFFFFFFFFFFFFFFFFFFFFFF AND PUSH20 0xFFFFFFFFFFFFFFFFFFFFFFFFFFFFFFFFFFFFFFFF AND PUSH4 0xAE5C1356 PUSH1 0x40 MLOAD DUP2 PUSH4 0xFFFFFFFF AND PUSH1 0xE0 SHL DUP2 MSTORE PUSH1 0x4 ADD PUSH1 0x20 PUSH1 0x40 MLOAD DUP1 DUP4 SUB DUP2 DUP7 GAS STATICCALL ISZERO DUP1 ISZERO PUSH2 0x1AF5 JUMPI RETURNDATASIZE PUSH1 0x0 DUP1 RETURNDATACOPY RETURNDATASIZE PUSH1 0x0 REVERT JUMPDEST POP POP POP POP PUSH1 0x40 MLOAD RETURNDATASIZE PUSH1 0x1F NOT PUSH1 0x1F DUP3 ADD AND DUP3 ADD DUP1 PUSH1 0x40 MSTORE POP DUP2 ADD SWAP1 PUSH2 0x1B19 SWAP2 SWAP1 PUSH2 0x2DC2 JUMP JUMPDEST DUP2 LT ISZERO PUSH2 0x1BEF JUMPI DUP4 DUP3 DUP2 SLOAD DUP2 LT PUSH2 0x1B33 JUMPI PUSH2 0x1B32 PUSH2 0x2C4F JUMP JUMPDEST JUMPDEST SWAP1 PUSH1 0x0 MSTORE PUSH1 0x20 PUSH1 0x0 KECCAK256 SWAP1 PUSH1 0x3 MUL ADD PUSH1 0x0 ADD PUSH1 0x1 DUP2 PUSH1 0x1 DUP2 SLOAD ADD DUP1 DUP3 SSTORE DUP1 SWAP2 POP POP SUB SWAP1 PUSH1 0x0 MSTORE PUSH1 0x20 PUSH1 0x0 KECCAK256 SWAP1 POP POP DUP4 DUP3 DUP2 SLOAD DUP2 LT PUSH2 0x1B73 JUMPI PUSH2 0x1B72 PUSH2 0x2C4F JUMP JUMPDEST JUMPDEST SWAP1 PUSH1 0x0 MSTORE PUSH1 0x20 PUSH1 0x0 KECCAK256 SWAP1 PUSH1 0x3 MUL ADD PUSH1 0x1 ADD PUSH1 0x1 DUP2 PUSH1 0x1 DUP2 SLOAD ADD DUP1 DUP3 SSTORE DUP1 SWAP2 POP POP SUB SWAP1 PUSH1 0x0 MSTORE PUSH1 0x20 PUSH1 0x0 KECCAK256 POP POP DUP4 DUP3 DUP2 SLOAD DUP2 LT PUSH2 0x1BB2 JUMPI PUSH2 0x1BB1 PUSH2 0x2C4F JUMP JUMPDEST JUMPDEST SWAP1 PUSH1 0x0 MSTORE PUSH1 0x20 PUSH1 0x0 KECCAK256 SWAP1 PUSH1 0x3 MUL ADD PUSH1 0x2 ADD PUSH1 0x1 DUP2 PUSH1 0x1 DUP2 SLOAD ADD DUP1 DUP3 SSTORE DUP1 SWAP2 POP POP SUB SWAP1 PUSH1 0x0 MSTORE PUSH1 0x20 PUSH1 0x0 KECCAK256 POP POP DUP1 PUSH2 0x1BE8 SWAP1 PUSH2 0x2EDA JUMP JUMPDEST SWAP1 POP PUSH2 0x1A8A JUMP JUMPDEST POP DUP2 PUSH1 0x1 DUP2 PUSH1 0x1 DUP2 SLOAD ADD DUP1 DUP3 SSTORE DUP1 SWAP2 POP POP SUB SWAP1 PUSH1 0x0 MSTORE PUSH1 0x20 PUSH1 0x0 KECCAK256 SWAP1 POP POP PUSH1 0x0 JUMPDEST PUSH1 0x0 DUP1 SLOAD SWAP1 PUSH2 0x100 EXP SWAP1 DIV PUSH20 0xFFFFFFFFFFFFFFFFFFFFFFFFFFFFFFFFFFFFFFFF AND PUSH20 0xFFFFFFFFFFFFFFFFFFFFFFFFFFFFFFFFFFFFFFFF AND PUSH4 0xAE5C1356 PUSH1 0x40 MLOAD DUP2 PUSH4 0xFFFFFFFF AND PUSH1 0xE0 SHL DUP2 MSTORE PUSH1 0x4 ADD PUSH1 0x20 PUSH1 0x40 MLOAD DUP1 DUP4 SUB DUP2 DUP7 GAS STATICCALL ISZERO DUP1 ISZERO PUSH2 0x1C7B JUMPI RETURNDATASIZE PUSH1 0x0 DUP1 RETURNDATACOPY RETURNDATASIZE PUSH1 0x0 REVERT JUMPDEST POP POP POP POP PUSH1 0x40 MLOAD RETURNDATASIZE PUSH1 0x1F NOT PUSH1 0x1F DUP3 ADD AND DUP3 ADD DUP1 PUSH1 0x40 MSTORE POP DUP2 ADD SWAP1 PUSH2 0x1C9F SWAP2 SWAP1 PUSH2 0x2DC2 JUMP JUMPDEST DUP2 LT ISZERO PUSH2 0x1D35 JUMPI DUP3 DUP3 DUP2 SLOAD DUP2 LT PUSH2 0x1CB9 JUMPI PUSH2 0x1CB8 PUSH2 0x2C4F JUMP JUMPDEST JUMPDEST SWAP1 PUSH1 0x0 MSTORE PUSH1 0x20 PUSH1 0x0 KECCAK256 SWAP1 PUSH1 0x7 MUL ADD PUSH1 0x2 ADD PUSH1 0x1 DUP2 PUSH1 0x1 DUP2 SLOAD ADD DUP1 DUP3 SSTORE DUP1 SWAP2 POP POP SUB SWAP1 PUSH1 0x0 MSTORE PUSH1 0x20 PUSH1 0x0 KECCAK256 POP POP DUP3 DUP3 DUP2 SLOAD DUP2 LT PUSH2 0x1CF8 JUMPI PUSH2 0x1CF7 PUSH2 0x2C4F JUMP JUMPDEST JUMPDEST SWAP1 PUSH1 0x0 MSTORE PUSH1 0x20 PUSH1 0x0 KECCAK256 SWAP1 PUSH1 0x7 MUL ADD PUSH1 0x3 ADD PUSH1 0x1 DUP2 PUSH1 0x1 DUP2 SLOAD ADD DUP1 DUP3 SSTORE DUP1 SWAP2 POP POP SUB SWAP1 PUSH1 0x0 MSTORE PUSH1 0x20 PUSH1 0x0 KECCAK256 POP POP DUP1 PUSH2 0x1D2E SWAP1 PUSH2 0x2EDA JUMP JUMPDEST SWAP1 POP PUSH2 0x1C10 JUMP JUMPDEST POP DUP1 PUSH2 0x1D40 SWAP1 PUSH2 0x2EDA JUMP JUMPDEST SWAP1 POP PUSH2 0x19A8 JUMP JUMPDEST POP POP POP POP POP POP JUMP JUMPDEST PUSH1 0x0 PUSH1 0x9 PUSH1 0x0 DUP6 DUP2 MSTORE PUSH1 0x20 ADD SWAP1 DUP2 MSTORE PUSH1 0x20 ADD PUSH1 0x0 KECCAK256 PUSH1 0x0 PUSH1 0x6 PUSH1 0x0 DUP8 DUP2 MSTORE PUSH1 0x20 ADD SWAP1 DUP2 MSTORE PUSH1 0x20 ADD PUSH1 0x0 KECCAK256 SLOAD DUP2 MSTORE PUSH1 0x20 ADD SWAP1 DUP2 MSTORE PUSH1 0x20 ADD PUSH1 0x0 KECCAK256 DUP4 DUP2 SLOAD DUP2 LT PUSH2 0x1D9A JUMPI PUSH2 0x1D99 PUSH2 0x2C4F JUMP JUMPDEST JUMPDEST SWAP1 PUSH1 0x0 MSTORE PUSH1 0x20 PUSH1 0x0 KECCAK256 SWAP1 PUSH1 0x7 MUL ADD SWAP1 POP PUSH1 0x0 DUP3 DUP1 MLOAD SWAP1 PUSH1 0x20 ADD KECCAK256 PUSH1 0x40 MLOAD PUSH1 0x20 ADD PUSH2 0x1DC4 SWAP2 SWAP1 PUSH2 0x32F2 JUMP JUMPDEST PUSH1 0x40 MLOAD PUSH1 0x20 DUP2 DUP4 SUB SUB DUP2 MSTORE SWAP1 PUSH1 0x40 MSTORE SWAP1 POP DUP2 PUSH1 0x0 ADD PUSH1 0x40 MLOAD PUSH2 0x1DE6 SWAP2 SWAP1 PUSH2 0x33B0 JUMP JUMPDEST PUSH1 0x40 MLOAD DUP1 SWAP2 SUB SWAP1 KECCAK256 DUP2 DUP1 MLOAD SWAP1 PUSH1 0x20 ADD KECCAK256 EQ PUSH2 0x1E36 JUMPI PUSH1 0x40 MLOAD PUSH32 0x8C379A000000000000000000000000000000000000000000000000000000000 DUP2 MSTORE PUSH1 0x4 ADD PUSH2 0x1E2D SWAP1 PUSH2 0x3439 JUMP JUMPDEST PUSH1 0x40 MLOAD DUP1 SWAP2 SUB SWAP1 REVERT JUMPDEST DUP3 DUP3 PUSH1 0x1 ADD SWAP1 DUP2 PUSH2 0x1E47 SWAP2 SWAP1 PUSH2 0x35E6 JUMP JUMPDEST POP PUSH1 0x0 DUP1 DUP5 DUP1 PUSH1 0x20 ADD SWAP1 MLOAD DUP2 ADD SWAP1 PUSH2 0x1E5F SWAP2 SWAP1 PUSH2 0x36B8 JUMP JUMPDEST SWAP2 POP SWAP2 POP PUSH1 0x0 DUP1 PUSH1 0x0 SWAP1 SLOAD SWAP1 PUSH2 0x100 EXP SWAP1 DIV PUSH20 0xFFFFFFFFFFFFFFFFFFFFFFFFFFFFFFFFFFFFFFFF AND PUSH20 0xFFFFFFFFFFFFFFFFFFFFFFFFFFFFFFFFFFFFFFFF AND PUSH4 0x45BAEE55 PUSH1 0x40 MLOAD DUP2 PUSH4 0xFFFFFFFF AND PUSH1 0xE0 SHL DUP2 MSTORE PUSH1 0x4 ADD PUSH1 0x20 PUSH1 0x40 MLOAD DUP1 DUP4 SUB DUP2 DUP7 GAS STATICCALL ISZERO DUP1 ISZERO PUSH2 0x1ED1 JUMPI RETURNDATASIZE PUSH1 0x0 DUP1 RETURNDATACOPY RETURNDATASIZE PUSH1 0x0 REVERT JUMPDEST POP POP POP POP PUSH1 0x40 MLOAD RETURNDATASIZE PUSH1 0x1F NOT PUSH1 0x1F DUP3 ADD AND DUP3 ADD DUP1 PUSH1 0x40 MSTORE POP DUP2 ADD SWAP1 PUSH2 0x1EF5 SWAP2 SWAP1 PUSH2 0x2DC2 JUMP JUMPDEST PUSH1 0x0 DUP1 SLOAD SWAP1 PUSH2 0x100 EXP SWAP1 DIV PUSH20 0xFFFFFFFFFFFFFFFFFFFFFFFFFFFFFFFFFFFFFFFF AND PUSH20 0xFFFFFFFFFFFFFFFFFFFFFFFFFFFFFFFFFFFFFFFF AND PUSH4 0x4FFDF11E PUSH1 0x40 MLOAD DUP2 PUSH4 0xFFFFFFFF AND PUSH1 0xE0 SHL DUP2 MSTORE PUSH1 0x4 ADD PUSH1 0x20 PUSH1 0x40 MLOAD DUP1 DUP4 SUB DUP2 DUP7 GAS STATICCALL ISZERO DUP1 ISZERO PUSH2 0x1F60 JUMPI RETURNDATASIZE PUSH1 0x0 DUP1 RETURNDATACOPY RETURNDATASIZE PUSH1 0x0 REVERT JUMPDEST POP POP POP POP PUSH1 0x40 MLOAD RETURNDATASIZE PUSH1 0x1F NOT PUSH1 0x1F DUP3 ADD AND DUP3 ADD DUP1 PUSH1 0x40 MSTORE POP DUP2 ADD SWAP1 PUSH2 0x1F84 SWAP2 SWAP1 PUSH2 0x2DC2 JUMP JUMPDEST PUSH2 0x1F8E SWAP2 SWAP1 PUSH2 0x2CAD JUMP JUMPDEST SWAP1 POP PUSH1 0x0 JUMPDEST PUSH1 0x0 DUP1 SLOAD SWAP1 PUSH2 0x100 EXP SWAP1 DIV PUSH20 0xFFFFFFFFFFFFFFFFFFFFFFFFFFFFFFFFFFFFFFFF AND PUSH20 0xFFFFFFFFFFFFFFFFFFFFFFFFFFFFFFFFFFFFFFFF AND PUSH4 0xAE5C1356 PUSH1 0x40 MLOAD DUP2 PUSH4 0xFFFFFFFF AND PUSH1 0xE0 SHL DUP2 MSTORE PUSH1 0x4 ADD PUSH1 0x20 PUSH1 0x40 MLOAD DUP1 DUP4 SUB DUP2 DUP7 GAS STATICCALL ISZERO DUP1 ISZERO PUSH2 0x1FFE JUMPI RETURNDATASIZE PUSH1 0x0 DUP1 RETURNDATACOPY RETURNDATASIZE PUSH1 0x0 REVERT JUMPDEST POP POP POP POP PUSH1 0x40 MLOAD RETURNDATASIZE PUSH1 0x1F NOT PUSH1 0x1F DUP3 ADD AND DUP3 ADD DUP1 PUSH1 0x40 MSTORE POP DUP2 ADD SWAP1 PUSH2 0x2022 SWAP2 SWAP1 PUSH2 0x2DC2 JUMP JUMPDEST DUP2 LT ISZERO PUSH2 0x2279 JUMPI PUSH1 0x0 DUP3 DUP3 PUSH2 0x2037 SWAP2 SWAP1 PUSH2 0x36F8 JUMP JUMPDEST DUP5 SWAP1 SHR SWAP1 POP PUSH1 0x1 PUSH1 0x0 DUP1 SLOAD SWAP1 PUSH2 0x100 EXP SWAP1 DIV PUSH20 0xFFFFFFFFFFFFFFFFFFFFFFFFFFFFFFFFFFFFFFFF AND PUSH20 0xFFFFFFFFFFFFFFFFFFFFFFFFFFFFFFFFFFFFFFFF AND PUSH4 0x4FFDF11E PUSH1 0x40 MLOAD DUP2 PUSH4 0xFFFFFFFF AND PUSH1 0xE0 SHL DUP2 MSTORE PUSH1 0x4 ADD PUSH1 0x20 PUSH1 0x40 MLOAD DUP1 DUP4 SUB DUP2 DUP7 GAS STATICCALL ISZERO DUP1 ISZERO PUSH2 0x20A9 JUMPI RETURNDATASIZE PUSH1 0x0 DUP1 RETURNDATACOPY RETURNDATASIZE PUSH1 0x0 REVERT JUMPDEST POP POP POP POP PUSH1 0x40 MLOAD RETURNDATASIZE PUSH1 0x1F NOT PUSH1 0x1F DUP3 ADD AND DUP3 ADD DUP1 PUSH1 0x40 MSTORE POP DUP2 ADD SWAP1 PUSH2 0x20CD SWAP2 SWAP1 PUSH2 0x2DC2 JUMP JUMPDEST PUSH1 0x2 PUSH2 0x20D9 SWAP2 SWAP1 PUSH2 0x386D JUMP JUMPDEST PUSH2 0x20E3 SWAP2 SWAP1 PUSH2 0x38B8 JUMP JUMPDEST PUSH1 0x0 DUP1 SLOAD SWAP1 PUSH2 0x100 EXP SWAP1 DIV PUSH20 0xFFFFFFFFFFFFFFFFFFFFFFFFFFFFFFFFFFFFFFFF AND PUSH20 0xFFFFFFFFFFFFFFFFFFFFFFFFFFFFFFFFFFFFFFFF AND PUSH4 0x45BAEE55 PUSH1 0x40 MLOAD DUP2 PUSH4 0xFFFFFFFF AND PUSH1 0xE0 SHL DUP2 MSTORE PUSH1 0x4 ADD PUSH1 0x20 PUSH1 0x40 MLOAD DUP1 DUP4 SUB DUP2 DUP7 GAS STATICCALL ISZERO DUP1 ISZERO PUSH2 0x214E JUMPI RETURNDATASIZE PUSH1 0x0 DUP1 RETURNDATACOPY RETURNDATASIZE PUSH1 0x0 REVERT JUMPDEST POP POP POP POP PUSH1 0x40 MLOAD RETURNDATASIZE PUSH1 0x1F NOT PUSH1 0x1F DUP3 ADD AND DUP3 ADD DUP1 PUSH1 0x40 MSTORE POP DUP2 ADD SWAP1 PUSH2 0x2172 SWAP2 SWAP1 PUSH2 0x2DC2 JUMP JUMPDEST DUP3 SWAP1 SHR AND DUP8 PUSH1 0x2 ADD DUP4 DUP2 SLOAD DUP2 LT PUSH2 0x218C JUMPI PUSH2 0x218B PUSH2 0x2C4F JUMP JUMPDEST JUMPDEST SWAP1 PUSH1 0x0 MSTORE PUSH1 0x20 PUSH1 0x0 KECCAK256 ADD DUP2 SWAP1 SSTORE POP PUSH1 0x1 PUSH1 0x0 DUP1 SLOAD SWAP1 PUSH2 0x100 EXP SWAP1 DIV PUSH20 0xFFFFFFFFFFFFFFFFFFFFFFFFFFFFFFFFFFFFFFFF AND PUSH20 0xFFFFFFFFFFFFFFFFFFFFFFFFFFFFFFFFFFFFFFFF AND PUSH4 0x45BAEE55 PUSH1 0x40 MLOAD DUP2 PUSH4 0xFFFFFFFF AND PUSH1 0xE0 SHL DUP2 MSTORE PUSH1 0x4 ADD PUSH1 0x20 PUSH1 0x40 MLOAD DUP1 DUP4 SUB DUP2 DUP7 GAS STATICCALL ISZERO DUP1 ISZERO PUSH2 0x2207 JUMPI RETURNDATASIZE PUSH1 0x0 DUP1 RETURNDATACOPY RETURNDATASIZE PUSH1 0x0 REVERT JUMPDEST POP POP POP POP PUSH1 0x40 MLOAD RETURNDATASIZE PUSH1 0x1F NOT PUSH1 0x1F DUP3 ADD AND DUP3 ADD DUP1 PUSH1 0x40 MSTORE POP DUP2 ADD SWAP1 PUSH2 0x222B SWAP2 SWAP1 PUSH2 0x2DC2 JUMP JUMPDEST PUSH1 0x2 PUSH2 0x2237 SWAP2 SWAP1 PUSH2 0x386D JUMP JUMPDEST PUSH2 0x2241 SWAP2 SWAP1 PUSH2 0x38B8 JUMP JUMPDEST DUP2 AND DUP8 PUSH1 0x3 ADD DUP4 DUP2 SLOAD DUP2 LT PUSH2 0x2259 JUMPI PUSH2 0x2258 PUSH2 0x2C4F JUMP JUMPDEST JUMPDEST SWAP1 PUSH1 0x0 MSTORE PUSH1 0x20 PUSH1 0x0 KECCAK256 ADD DUP2 SWAP1 SSTORE POP POP DUP1 PUSH2 0x2272 SWAP1 PUSH2 0x2EDA JUMP JUMPDEST SWAP1 POP PUSH2 0x1F93 JUMP JUMPDEST POP PUSH1 0x1 DUP1 PUSH1 0x0 DUP1 SLOAD SWAP1 PUSH2 0x100 EXP SWAP1 DIV PUSH20 0xFFFFFFFFFFFFFFFFFFFFFFFFFFFFFFFFFFFFFFFF AND PUSH20 0xFFFFFFFFFFFFFFFFFFFFFFFFFFFFFFFFFFFFFFFF AND PUSH4 0xAE5C1356 PUSH1 0x40 MLOAD DUP2 PUSH4 0xFFFFFFFF AND PUSH1 0xE0 SHL DUP2 MSTORE PUSH1 0x4 ADD PUSH1 0x20 PUSH1 0x40 MLOAD DUP1 DUP4 SUB DUP2 DUP7 GAS STATICCALL ISZERO DUP1 ISZERO PUSH2 0x22E8 JUMPI RETURNDATASIZE PUSH1 0x0 DUP1 RETURNDATACOPY RETURNDATASIZE PUSH1 0x0 REVERT JUMPDEST POP POP POP POP PUSH1 0x40 MLOAD RETURNDATASIZE PUSH1 0x1F NOT PUSH1 0x1F DUP3 ADD AND DUP3 ADD DUP1 PUSH1 0x40 MSTORE POP DUP2 ADD SWAP1 PUSH2 0x230C SWAP2 SWAP1 PUSH2 0x2DC2 JUMP JUMPDEST DUP4 PUSH2 0x2317 SWAP2 SWAP1 PUSH2 0x36F8 JUMP JUMPDEST DUP5 SWAP1 SHR AND EQ DUP6 PUSH1 0x6 ADD PUSH1 0x0 PUSH2 0x100 EXP DUP2 SLOAD DUP2 PUSH1 0xFF MUL NOT AND SWAP1 DUP4 ISZERO ISZERO MUL OR SWAP1 SSTORE POP PUSH1 0x1 DUP1 PUSH1 0x1 PUSH1 0x0 DUP1 SLOAD SWAP1 PUSH2 0x100 EXP SWAP1 DIV PUSH20 0xFFFFFFFFFFFFFFFFFFFFFFFFFFFFFFFFFFFFFFFF AND PUSH20 0xFFFFFFFFFFFFFFFFFFFFFFFFFFFFFFFFFFFFFFFF AND PUSH4 0xAE5C1356 PUSH1 0x40 MLOAD DUP2 PUSH4 0xFFFFFFFF AND PUSH1 0xE0 SHL DUP2 MSTORE PUSH1 0x4 ADD PUSH1 0x20 PUSH1 0x40 MLOAD DUP1 DUP4 SUB DUP2 DUP7 GAS STATICCALL ISZERO DUP1 ISZERO PUSH2 0x23A7 JUMPI RETURNDATASIZE PUSH1 0x0 DUP1 RETURNDATACOPY RETURNDATASIZE PUSH1 0x0 REVERT JUMPDEST POP POP POP POP PUSH1 0x40 MLOAD RETURNDATASIZE PUSH1 0x1F NOT PUSH1 0x1F DUP3 ADD AND DUP3 ADD DUP1 PUSH1 0x40 MSTORE POP DUP2 ADD SWAP1 PUSH2 0x23CB SWAP2 SWAP1 PUSH2 0x2DC2 JUMP JUMPDEST DUP5 PUSH2 0x23D6 SWAP2 SWAP1 PUSH2 0x36F8 JUMP JUMPDEST PUSH2 0x23E0 SWAP2 SWAP1 PUSH2 0x2CAD JUMP JUMPDEST DUP5 SWAP1 SHR AND EQ DUP6 PUSH1 0x4 ADD PUSH1 0x0 PUSH2 0x100 EXP DUP2 SLOAD DUP2 PUSH1 0xFF MUL NOT AND SWAP1 DUP4 ISZERO ISZERO MUL OR SWAP1 SSTORE POP PUSH1 0xF PUSH1 0x2 PUSH1 0x0 DUP1 SLOAD SWAP1 PUSH2 0x100 EXP SWAP1 DIV PUSH20 0xFFFFFFFFFFFFFFFFFFFFFFFFFFFFFFFFFFFFFFFF AND PUSH20 0xFFFFFFFFFFFFFFFFFFFFFFFFFFFFFFFFFFFFFFFF AND PUSH4 0xAE5C1356 PUSH1 0x40 MLOAD DUP2 PUSH4 0xFFFFFFFF AND PUSH1 0xE0 SHL DUP2 MSTORE PUSH1 0x4 ADD PUSH1 0x20 PUSH1 0x40 MLOAD DUP1 DUP4 SUB DUP2 DUP7 GAS STATICCALL ISZERO DUP1 ISZERO PUSH2 0x246F JUMPI RETURNDATASIZE PUSH1 0x0 DUP1 RETURNDATACOPY RETURNDATASIZE PUSH1 0x0 REVERT JUMPDEST POP POP POP POP PUSH1 0x40 MLOAD RETURNDATASIZE PUSH1 0x1F NOT PUSH1 0x1F DUP3 ADD AND DUP3 ADD DUP1 PUSH1 0x40 MSTORE POP DUP2 ADD SWAP1 PUSH2 0x2493 SWAP2 SWAP1 PUSH2 0x2DC2 JUMP JUMPDEST DUP4 PUSH2 0x249E SWAP2 SWAP1 PUSH2 0x36F8 JUMP JUMPDEST PUSH2 0x24A8 SWAP2 SWAP1 PUSH2 0x2CAD JUMP JUMPDEST DUP4 SWAP1 SHR AND DUP6 PUSH1 0x5 ADD DUP2 SWAP1 SSTORE POP POP POP POP POP POP POP POP POP JUMP JUMPDEST PUSH1 0x0 PUSH1 0x4 PUSH1 0x0 DUP4 DUP2 MSTORE PUSH1 0x20 ADD SWAP1 DUP2 MSTORE PUSH1 0x20 ADD PUSH1 0x0 KECCAK256 SWAP1 POP DUP2 PUSH1 0x5 PUSH1 0x0 PUSH2 0x515 DUP2 MSTORE PUSH1 0x20 ADD SWAP1 DUP2 MSTORE PUSH1 0x20 ADD PUSH1 0x0 KECCAK256 DUP2 SWAP1 SSTORE POP PUSH1 0x3 PUSH1 0xA DUP2 GT ISZERO PUSH2 0x2503 JUMPI PUSH2 0x2502 PUSH2 0x2B41 JUMP JUMPDEST JUMPDEST DUP2 PUSH1 0x3 ADD PUSH1 0x0 SWAP1 SLOAD SWAP1 PUSH2 0x100 EXP SWAP1 DIV PUSH1 0xFF AND PUSH1 0xA DUP2 GT ISZERO PUSH2 0x2527 JUMPI PUSH2 0x2526 PUSH2 0x2B41 JUMP JUMPDEST JUMPDEST POP POP PUSH32 0x58D4562CF15D1052E816FD24F6AF2C8A3A21416D6E4C01A9E11EF84FFE537E25 DUP3 DUP3 PUSH1 0x3 ADD PUSH1 0x0 SWAP1 SLOAD SWAP1 PUSH2 0x100 EXP SWAP1 DIV PUSH1 0xFF AND PUSH1 0x40 MLOAD PUSH2 0x256B SWAP3 SWAP2 SWAP1 PUSH2 0x2CE1 JUMP JUMPDEST PUSH1 0x40 MLOAD DUP1 SWAP2 SUB SWAP1 LOG1 POP POP JUMP JUMPDEST PUSH1 0x0 PUSH1 0x4 PUSH1 0x0 PUSH1 0x5 PUSH1 0x0 DUP7 DUP2 MSTORE PUSH1 0x20 ADD SWAP1 DUP2 MSTORE PUSH1 0x20 ADD PUSH1 0x0 KECCAK256 SLOAD DUP2 MSTORE PUSH1 0x20 ADD SWAP1 DUP2 MSTORE PUSH1 0x20 ADD PUSH1 0x0 KECCAK256 SWAP1 POP DUP2 DUP2 PUSH1 0x0 ADD DUP2 SWAP1 SSTORE POP PUSH1 0x4 DUP2 PUSH1 0x3 ADD PUSH1 0x0 PUSH2 0x100 EXP DUP2 SLOAD DUP2 PUSH1 0xFF MUL NOT AND SWAP1 DUP4 PUSH1 0xA DUP2 GT ISZERO PUSH2 0x25D2 JUMPI PUSH2 0x25D1 PUSH2 0x2B41 JUMP JUMPDEST JUMPDEST MUL OR SWAP1 SSTORE POP PUSH2 0x2615 PUSH1 0x40 MLOAD DUP1 PUSH1 0x40 ADD PUSH1 0x40 MSTORE DUP1 PUSH1 0x1B DUP2 MSTORE PUSH1 0x20 ADD PUSH32 0x66756C6C66696C5365656452657175657374202D2063616C6C65640000000000 DUP2 MSTORE POP PUSH2 0x2677 JUMP JUMPDEST PUSH32 0x58D4562CF15D1052E816FD24F6AF2C8A3A21416D6E4C01A9E11EF84FFE537E25 PUSH1 0x5 PUSH1 0x0 DUP6 DUP2 MSTORE PUSH1 0x20 ADD SWAP1 DUP2 MSTORE PUSH1 0x20 ADD PUSH1 0x0 KECCAK256 SLOAD DUP3 PUSH1 0x3 ADD PUSH1 0x0 SWAP1 SLOAD SWAP1 PUSH2 0x100 EXP SWAP1 DIV PUSH1 0xFF AND PUSH1 0x40 MLOAD PUSH2 0x266A SWAP3 SWAP2 SWAP1 PUSH2 0x2CE1 JUMP JUMPDEST PUSH1 0x40 MLOAD DUP1 SWAP2 SUB SWAP1 LOG1 POP POP POP JUMP JUMPDEST PUSH2 0x270D DUP2 PUSH1 0x40 MLOAD PUSH1 0x24 ADD PUSH2 0x268B SWAP2 SWAP1 PUSH2 0x3930 JUMP JUMPDEST PUSH1 0x40 MLOAD PUSH1 0x20 DUP2 DUP4 SUB SUB DUP2 MSTORE SWAP1 PUSH1 0x40 MSTORE PUSH32 0x41304FAC00000000000000000000000000000000000000000000000000000000 PUSH28 0xFFFFFFFFFFFFFFFFFFFFFFFFFFFFFFFFFFFFFFFFFFFFFFFFFFFFFFFF NOT AND PUSH1 0x20 DUP3 ADD DUP1 MLOAD PUSH28 0xFFFFFFFFFFFFFFFFFFFFFFFFFFFFFFFFFFFFFFFFFFFFFFFFFFFFFFFF DUP4 DUP2 DUP4 AND OR DUP4 MSTORE POP POP POP POP PUSH2 0x2783 JUMP JUMPDEST POP JUMP JUMPDEST PUSH1 0x0 PUSH1 0x9 PUSH1 0x0 DUP6 DUP2 MSTORE PUSH1 0x20 ADD SWAP1 DUP2 MSTORE PUSH1 0x20 ADD PUSH1 0x0 KECCAK256 PUSH1 0x0 PUSH1 0x6 PUSH1 0x0 DUP8 DUP2 MSTORE PUSH1 0x20 ADD SWAP1 DUP2 MSTORE PUSH1 0x20 ADD PUSH1 0x0 KECCAK256 SLOAD DUP2 MSTORE PUSH1 0x20 ADD SWAP1 DUP2 MSTORE PUSH1 0x20 ADD PUSH1 0x0 KECCAK256 DUP4 DUP2 SLOAD DUP2 LT PUSH2 0x275B JUMPI PUSH2 0x275A PUSH2 0x2C4F JUMP JUMPDEST JUMPDEST SWAP1 PUSH1 0x0 MSTORE PUSH1 0x20 PUSH1 0x0 KECCAK256 SWAP1 PUSH1 0x7 MUL ADD SWAP1 POP DUP2 DUP2 PUSH1 0x0 ADD SWAP1 DUP2 PUSH2 0x277C SWAP2 SWAP1 PUSH2 0x35E6 JUMP JUMPDEST POP POP POP POP POP JUMP JUMPDEST PUSH1 0x0 DUP2 MLOAD SWAP1 POP PUSH1 0x0 PUSH11 0x636F6E736F6C652E6C6F67 SWAP1 POP PUSH1 0x20 DUP4 ADD PUSH1 0x0 DUP1 DUP5 DUP4 DUP6 GAS STATICCALL POP POP POP POP POP JUMP JUMPDEST PUSH1 0x0 DUP2 SWAP1 POP SWAP2 SWAP1 POP JUMP JUMPDEST PUSH2 0x27BF DUP2 PUSH2 0x27AC JUMP JUMPDEST DUP3 MSTORE POP POP JUMP JUMPDEST PUSH1 0x0 PUSH1 0x20 DUP3 ADD SWAP1 POP PUSH2 0x27DA PUSH1 0x0 DUP4 ADD DUP5 PUSH2 0x27B6 JUMP JUMPDEST SWAP3 SWAP2 POP POP JUMP JUMPDEST PUSH1 0x0 PUSH1 0x40 MLOAD SWAP1 POP SWAP1 JUMP JUMPDEST PUSH1 0x0 DUP1 REVERT JUMPDEST PUSH1 0x0 DUP1 REVERT JUMPDEST PUSH2 0x27FD DUP2 PUSH2 0x27AC JUMP JUMPDEST DUP2 EQ PUSH2 0x2808 JUMPI PUSH1 0x0 DUP1 REVERT JUMPDEST POP JUMP JUMPDEST PUSH1 0x0 DUP2 CALLDATALOAD SWAP1 POP PUSH2 0x281A DUP2 PUSH2 0x27F4 JUMP JUMPDEST SWAP3 SWAP2 POP POP JUMP JUMPDEST PUSH1 0x0 DUP1 PUSH1 0x0 PUSH1 0x60 DUP5 DUP7 SUB SLT ISZERO PUSH2 0x2839 JUMPI PUSH2 0x2838 PUSH2 0x27EA JUMP JUMPDEST JUMPDEST PUSH1 0x0 PUSH2 0x2847 DUP7 DUP3 DUP8 ADD PUSH2 0x280B JUMP JUMPDEST SWAP4 POP POP PUSH1 0x20 PUSH2 0x2858 DUP7 DUP3 DUP8 ADD PUSH2 0x280B JUMP JUMPDEST SWAP3 POP POP PUSH1 0x40 PUSH2 0x2869 DUP7 DUP3 DUP8 ADD PUSH2 0x280B JUMP JUMPDEST SWAP2 POP POP SWAP3 POP SWAP3 POP SWAP3 JUMP JUMPDEST PUSH1 0x0 DUP2 MLOAD SWAP1 POP SWAP2 SWAP1 POP JUMP JUMPDEST PUSH1 0x0 DUP3 DUP3 MSTORE PUSH1 0x20 DUP3 ADD SWAP1 POP SWAP3 SWAP2 POP POP JUMP JUMPDEST PUSH1 0x0 JUMPDEST DUP4 DUP2 LT ISZERO PUSH2 0x28AD JUMPI DUP1 DUP3 ADD MLOAD DUP2 DUP5 ADD MSTORE PUSH1 0x20 DUP2 ADD SWAP1 POP PUSH2 0x2892 JUMP JUMPDEST PUSH1 0x0 DUP5 DUP5 ADD MSTORE POP POP POP POP JUMP JUMPDEST PUSH1 0x0 PUSH1 0x1F NOT PUSH1 0x1F DUP4 ADD AND SWAP1 POP SWAP2 SWAP1 POP JUMP JUMPDEST PUSH1 0x0 PUSH2 0x28D5 DUP3 PUSH2 0x2873 JUMP JUMPDEST PUSH2 0x28DF DUP2 DUP6 PUSH2 0x287E JUMP JUMPDEST SWAP4 POP PUSH2 0x28EF DUP2 DUP6 PUSH1 0x20 DUP7 ADD PUSH2 0x288F JUMP JUMPDEST PUSH2 0x28F8 DUP2 PUSH2 0x28B9 JUMP JUMPDEST DUP5 ADD SWAP2 POP POP SWAP3 SWAP2 POP POP JUMP JUMPDEST PUSH1 0x0 DUP2 ISZERO ISZERO SWAP1 POP SWAP2 SWAP1 POP JUMP JUMPDEST PUSH2 0x2918 DUP2 PUSH2 0x2903 JUMP JUMPDEST DUP3 MSTORE POP POP JUMP JUMPDEST PUSH1 0x0 PUSH1 0xA0 DUP3 ADD SWAP1 POP DUP2 DUP2 SUB PUSH1 0x0 DUP4 ADD MSTORE PUSH2 0x2938 DUP2 DUP9 PUSH2 0x28CA JUMP JUMPDEST SWAP1 POP DUP2 DUP2 SUB PUSH1 0x20 DUP4 ADD MSTORE PUSH2 0x294C DUP2 DUP8 PUSH2 0x28CA JUMP JUMPDEST SWAP1 POP PUSH2 0x295B PUSH1 0x40 DUP4 ADD DUP7 PUSH2 0x290F JUMP JUMPDEST PUSH2 0x2968 PUSH1 0x60 DUP4 ADD DUP6 PUSH2 0x27B6 JUMP JUMPDEST PUSH2 0x2975 PUSH1 0x80 DUP4 ADD DUP5 PUSH2 0x290F JUMP JUMPDEST SWAP7 SWAP6 POP POP POP POP POP POP JUMP JUMPDEST PUSH1 0x0 PUSH20 0xFFFFFFFFFFFFFFFFFFFFFFFFFFFFFFFFFFFFFFFF DUP3 AND SWAP1 POP SWAP2 SWAP1 POP JUMP JUMPDEST PUSH1 0x0 PUSH2 0x29AA DUP3 PUSH2 0x297F JUMP JUMPDEST SWAP1 POP SWAP2 SWAP1 POP JUMP JUMPDEST PUSH2 0x29BA DUP2 PUSH2 0x299F JUMP JUMPDEST DUP2 EQ PUSH2 0x29C5 JUMPI PUSH1 0x0 DUP1 REVERT JUMPDEST POP JUMP JUMPDEST PUSH1 0x0 DUP2 CALLDATALOAD SWAP1 POP PUSH2 0x29D7 DUP2 PUSH2 0x29B1 JUMP JUMPDEST SWAP3 SWAP2 POP POP JUMP JUMPDEST PUSH1 0x0 DUP1 PUSH1 0x40 DUP4 DUP6 SUB SLT ISZERO PUSH2 0x29F4 JUMPI PUSH2 0x29F3 PUSH2 0x27EA JUMP JUMPDEST JUMPDEST PUSH1 0x0 PUSH2 0x2A02 DUP6 DUP3 DUP7 ADD PUSH2 0x29C8 JUMP JUMPDEST SWAP3 POP POP PUSH1 0x20 PUSH2 0x2A13 DUP6 DUP3 DUP7 ADD PUSH2 0x29C8 JUMP JUMPDEST SWAP2 POP POP SWAP3 POP SWAP3 SWAP1 POP JUMP JUMPDEST PUSH1 0x0 PUSH1 0x20 DUP3 DUP5 SUB SLT ISZERO PUSH2 0x2A33 JUMPI PUSH2 0x2A32 PUSH2 0x27EA JUMP JUMPDEST JUMPDEST PUSH1 0x0 PUSH2 0x2A41 DUP5 DUP3 DUP6 ADD PUSH2 0x280B JUMP JUMPDEST SWAP2 POP POP SWAP3 SWAP2 POP POP JUMP JUMPDEST PUSH1 0x0 DUP1 PUSH1 0x0 PUSH1 0x60 DUP5 DUP7 SUB SLT ISZERO PUSH2 0x2A63 JUMPI PUSH2 0x2A62 PUSH2 0x27EA JUMP JUMPDEST JUMPDEST PUSH1 0x0 PUSH2 0x2A71 DUP7 DUP3 DUP8 ADD PUSH2 0x280B JUMP JUMPDEST SWAP4 POP POP PUSH1 0x20 PUSH2 0x2A82 DUP7 DUP3 DUP8 ADD PUSH2 0x29C8 JUMP JUMPDEST SWAP3 POP POP PUSH1 0x40 PUSH2 0x2A93 DUP7 DUP3 DUP8 ADD PUSH2 0x29C8 JUMP JUMPDEST SWAP2 POP POP SWAP3 POP SWAP3 POP SWAP3 JUMP JUMPDEST PUSH1 0x0 DUP2 SWAP1 POP SWAP2 SWAP1 POP JUMP JUMPDEST PUSH1 0x0 PUSH2 0x2AC2 PUSH2 0x2ABD PUSH2 0x2AB8 DUP5 PUSH2 0x297F JUMP JUMPDEST PUSH2 0x2A9D JUMP JUMPDEST PUSH2 0x297F JUMP JUMPDEST SWAP1 POP SWAP2 SWAP1 POP JUMP JUMPDEST PUSH1 0x0 PUSH2 0x2AD4 DUP3 PUSH2 0x2AA7 JUMP JUMPDEST SWAP1 POP SWAP2 SWAP1 POP JUMP JUMPDEST PUSH1 0x0 PUSH2 0x2AE6 DUP3 PUSH2 0x2AC9 JUMP JUMPDEST SWAP1 POP SWAP2 SWAP1 POP JUMP JUMPDEST PUSH2 0x2AF6 DUP2 PUSH2 0x2ADB JUMP JUMPDEST DUP3 MSTORE POP POP JUMP JUMPDEST PUSH1 0x0 PUSH1 0x20 DUP3 ADD SWAP1 POP PUSH2 0x2B11 PUSH1 0x0 DUP4 ADD DUP5 PUSH2 0x2AED JUMP JUMPDEST SWAP3 SWAP2 POP POP JUMP JUMPDEST PUSH2 0x2B20 DUP2 PUSH2 0x299F JUMP JUMPDEST DUP3 MSTORE POP POP JUMP JUMPDEST PUSH1 0x0 PUSH1 0x20 DUP3 ADD SWAP1 POP PUSH2 0x2B3B PUSH1 0x0 DUP4 ADD DUP5 PUSH2 0x2B17 JUMP JUMPDEST SWAP3 SWAP2 POP POP JUMP JUMPDEST PUSH32 0x4E487B7100000000000000000000000000000000000000000000000000000000 PUSH1 0x0 MSTORE PUSH1 0x21 PUSH1 0x4 MSTORE PUSH1 0x24 PUSH1 0x0 REVERT JUMPDEST PUSH1 0xB DUP2 LT PUSH2 0x2B81 JUMPI PUSH2 0x2B80 PUSH2 0x2B41 JUMP JUMPDEST JUMPDEST POP JUMP JUMPDEST PUSH1 0x0 DUP2 SWAP1 POP PUSH2 0x2B92 DUP3 PUSH2 0x2B70 JUMP JUMPDEST SWAP2 SWAP1 POP JUMP JUMPDEST PUSH1 0x0 PUSH2 0x2BA2 DUP3 PUSH2 0x2B84 JUMP JUMPDEST SWAP1 POP SWAP2 SWAP1 POP JUMP JUMPDEST PUSH2 0x2BB2 DUP2 PUSH2 0x2B97 JUMP JUMPDEST DUP3 MSTORE POP POP JUMP JUMPDEST PUSH1 0x0 PUSH1 0x60 DUP3 ADD SWAP1 POP PUSH2 0x2BCD PUSH1 0x0 DUP4 ADD DUP7 PUSH2 0x27B6 JUMP JUMPDEST PUSH2 0x2BDA PUSH1 0x20 DUP4 ADD DUP6 PUSH2 0x2BA9 JUMP JUMPDEST PUSH2 0x2BE7 PUSH1 0x40 DUP4 ADD DUP5 PUSH2 0x27B6 JUMP JUMPDEST SWAP5 SWAP4 POP POP POP POP JUMP JUMPDEST PUSH32 0x4E487B7100000000000000000000000000000000000000000000000000000000 PUSH1 0x0 MSTORE PUSH1 0x22 PUSH1 0x4 MSTORE PUSH1 0x24 PUSH1 0x0 REVERT JUMPDEST PUSH1 0x0 PUSH1 0x2 DUP3 DIV SWAP1 POP PUSH1 0x1 DUP3 AND DUP1 PUSH2 0x2C36 JUMPI PUSH1 0x7F DUP3 AND SWAP2 POP JUMPDEST PUSH1 0x20 DUP3 LT DUP2 SUB PUSH2 0x2C49 JUMPI PUSH2 0x2C48 PUSH2 0x2BEF JUMP JUMPDEST JUMPDEST POP SWAP2 SWAP1 POP JUMP JUMPDEST PUSH32 0x4E487B7100000000000000000000000000000000000000000000000000000000 PUSH1 0x0 MSTORE PUSH1 0x32 PUSH1 0x4 MSTORE PUSH1 0x24 PUSH1 0x0 REVERT JUMPDEST PUSH32 0x4E487B7100000000000000000000000000000000000000000000000000000000 PUSH1 0x0 MSTORE PUSH1 0x11 PUSH1 0x4 MSTORE PUSH1 0x24 PUSH1 0x0 REVERT JUMPDEST PUSH1 0x0 PUSH2 0x2CB8 DUP3 PUSH2 0x27AC JUMP JUMPDEST SWAP2 POP PUSH2 0x2CC3 DUP4 PUSH2 0x27AC JUMP JUMPDEST SWAP3 POP DUP3 DUP3 ADD SWAP1 POP DUP1 DUP3 GT ISZERO PUSH2 0x2CDB JUMPI PUSH2 0x2CDA PUSH2 0x2C7E JUMP JUMPDEST JUMPDEST SWAP3 SWAP2 POP POP JUMP JUMPDEST PUSH1 0x0 PUSH1 0x40 DUP3 ADD SWAP1 POP PUSH2 0x2CF6 PUSH1 0x0 DUP4 ADD DUP6 PUSH2 0x27B6 JUMP JUMPDEST PUSH2 0x2D03 PUSH1 0x20 DUP4 ADD DUP5 PUSH2 0x2BA9 JUMP JUMPDEST SWAP4 SWAP3 POP POP POP JUMP JUMPDEST PUSH1 0x0 DUP3 DUP3 MSTORE PUSH1 0x20 DUP3 ADD SWAP1 POP SWAP3 SWAP2 POP POP JUMP JUMPDEST PUSH32 0x4552523A204D61746368206E6F7420696E20636F727265637420737461676520 PUSH1 0x0 DUP3 ADD MSTORE PUSH32 0x746F20726563656976652052657665616C732100000000000000000000000000 PUSH1 0x20 DUP3 ADD MSTORE POP JUMP JUMPDEST PUSH1 0x0 PUSH2 0x2D77 PUSH1 0x33 DUP4 PUSH2 0x2D0A JUMP JUMPDEST SWAP2 POP PUSH2 0x2D82 DUP3 PUSH2 0x2D1B JUMP JUMPDEST PUSH1 0x40 DUP3 ADD SWAP1 POP SWAP2 SWAP1 POP JUMP JUMPDEST PUSH1 0x0 PUSH1 0x20 DUP3 ADD SWAP1 POP DUP2 DUP2 SUB PUSH1 0x0 DUP4 ADD MSTORE PUSH2 0x2DA6 DUP2 PUSH2 0x2D6A JUMP JUMPDEST SWAP1 POP SWAP2 SWAP1 POP JUMP JUMPDEST PUSH1 0x0 DUP2 MLOAD SWAP1 POP PUSH2 0x2DBC DUP2 PUSH2 0x27F4 JUMP JUMPDEST SWAP3 SWAP2 POP POP JUMP JUMPDEST PUSH1 0x0 PUSH1 0x20 DUP3 DUP5 SUB SLT ISZERO PUSH2 0x2DD8 JUMPI PUSH2 0x2DD7 PUSH2 0x27EA JUMP JUMPDEST JUMPDEST PUSH1 0x0 PUSH2 0x2DE6 DUP5 DUP3 DUP6 ADD PUSH2 0x2DAD JUMP JUMPDEST SWAP2 POP POP SWAP3 SWAP2 POP POP JUMP JUMPDEST PUSH2 0x2DF8 DUP2 PUSH2 0x2903 JUMP JUMPDEST DUP2 EQ PUSH2 0x2E03 JUMPI PUSH1 0x0 DUP1 REVERT JUMPDEST POP JUMP JUMPDEST PUSH1 0x0 DUP2 MLOAD SWAP1 POP PUSH2 0x2E15 DUP2 PUSH2 0x2DEF JUMP JUMPDEST SWAP3 SWAP2 POP POP JUMP JUMPDEST PUSH1 0x0 PUSH1 0x20 DUP3 DUP5 SUB SLT ISZERO PUSH2 0x2E31 JUMPI PUSH2 0x2E30 PUSH2 0x27EA JUMP JUMPDEST JUMPDEST PUSH1 0x0 PUSH2 0x2E3F DUP5 DUP3 DUP6 ADD PUSH2 0x2E06 JUMP JUMPDEST SWAP2 POP POP SWAP3 SWAP2 POP POP JUMP JUMPDEST PUSH32 0x4552523A204E6F7420616C6C207465616D732068617665206973737565642063 PUSH1 0x0 DUP3 ADD MSTORE PUSH32 0x6F6D6D69746D656E747321000000000000000000000000000000000000000000 PUSH1 0x20 DUP3 ADD MSTORE POP JUMP JUMPDEST PUSH1 0x0 PUSH2 0x2EA4 PUSH1 0x2B DUP4 PUSH2 0x2D0A JUMP JUMPDEST SWAP2 POP PUSH2 0x2EAF DUP3 PUSH2 0x2E48 JUMP JUMPDEST PUSH1 0x40 DUP3 ADD SWAP1 POP SWAP2 SWAP1 POP JUMP JUMPDEST PUSH1 0x0 PUSH1 0x20 DUP3 ADD SWAP1 POP DUP2 DUP2 SUB PUSH1 0x0 DUP4 ADD MSTORE PUSH2 0x2ED3 DUP2 PUSH2 0x2E97 JUMP JUMPDEST SWAP1 POP SWAP2 SWAP1 POP JUMP JUMPDEST PUSH1 0x0 PUSH2 0x2EE5 DUP3 PUSH2 0x27AC JUMP JUMPDEST SWAP2 POP PUSH32 0xFFFFFFFFFFFFFFFFFFFFFFFFFFFFFFFFFFFFFFFFFFFFFFFFFFFFFFFFFFFFFFFF DUP3 SUB PUSH2 0x2F17 JUMPI PUSH2 0x2F16 PUSH2 0x2C7E JUMP JUMPDEST JUMPDEST PUSH1 0x1 DUP3 ADD SWAP1 POP SWAP2 SWAP1 POP JUMP JUMPDEST PUSH1 0x0 DUP1 REVERT JUMPDEST PUSH1 0x0 DUP1 REVERT JUMPDEST PUSH32 0x4E487B7100000000000000000000000000000000000000000000000000000000 PUSH1 0x0 MSTORE PUSH1 0x41 PUSH1 0x4 MSTORE PUSH1 0x24 PUSH1 0x0 REVERT JUMPDEST PUSH2 0x2F64 DUP3 PUSH2 0x28B9 JUMP JUMPDEST DUP2 ADD DUP2 DUP2 LT PUSH8 0xFFFFFFFFFFFFFFFF DUP3 GT OR ISZERO PUSH2 0x2F83 JUMPI PUSH2 0x2F82 PUSH2 0x2F2C JUMP JUMPDEST JUMPDEST DUP1 PUSH1 0x40 MSTORE POP POP POP JUMP JUMPDEST PUSH1 0x0 PUSH2 0x2F96 PUSH2 0x27E0 JUMP JUMPDEST SWAP1 POP PUSH2 0x2FA2 DUP3 DUP3 PUSH2 0x2F5B JUMP JUMPDEST SWAP2 SWAP1 POP JUMP JUMPDEST PUSH1 0x0 PUSH8 0xFFFFFFFFFFFFFFFF DUP3 GT ISZERO PUSH2 0x2FC2 JUMPI PUSH2 0x2FC1 PUSH2 0x2F2C JUMP JUMPDEST JUMPDEST PUSH2 0x2FCB DUP3 PUSH2 0x28B9 JUMP JUMPDEST SWAP1 POP PUSH1 0x20 DUP2 ADD SWAP1 POP SWAP2 SWAP1 POP JUMP JUMPDEST PUSH1 0x0 PUSH2 0x2FEB PUSH2 0x2FE6 DUP5 PUSH2 0x2FA7 JUMP JUMPDEST PUSH2 0x2F8C JUMP JUMPDEST SWAP1 POP DUP3 DUP2 MSTORE PUSH1 0x20 DUP2 ADD DUP5 DUP5 DUP5 ADD GT ISZERO PUSH2 0x3007 JUMPI PUSH2 0x3006 PUSH2 0x2F27 JUMP JUMPDEST JUMPDEST PUSH2 0x3012 DUP5 DUP3 DUP6 PUSH2 0x288F JUMP JUMPDEST POP SWAP4 SWAP3 POP POP POP JUMP JUMPDEST PUSH1 0x0 DUP3 PUSH1 0x1F DUP4 ADD SLT PUSH2 0x302F JUMPI PUSH2 0x302E PUSH2 0x2F22 JUMP JUMPDEST JUMPDEST DUP2 MLOAD PUSH2 0x303F DUP5 DUP3 PUSH1 0x20 DUP7 ADD PUSH2 0x2FD8 JUMP JUMPDEST SWAP2 POP POP SWAP3 SWAP2 POP POP JUMP JUMPDEST PUSH1 0x0 PUSH1 0x20 DUP3 DUP5 SUB SLT ISZERO PUSH2 0x305E JUMPI PUSH2 0x305D PUSH2 0x27EA JUMP JUMPDEST JUMPDEST PUSH1 0x0 DUP3 ADD MLOAD PUSH8 0xFFFFFFFFFFFFFFFF DUP2 GT ISZERO PUSH2 0x307C JUMPI PUSH2 0x307B PUSH2 0x27EF JUMP JUMPDEST JUMPDEST PUSH2 0x3088 DUP5 DUP3 DUP6 ADD PUSH2 0x301A JUMP JUMPDEST SWAP2 POP POP SWAP3 SWAP2 POP POP JUMP JUMPDEST PUSH32 0x4552523A20596F752063616E206F6E6C79206A6F696E2061206E65776C792063 PUSH1 0x0 DUP3 ADD MSTORE PUSH32 0x726561746564206D617463682100000000000000000000000000000000000000 PUSH1 0x20 DUP3 ADD MSTORE POP JUMP JUMPDEST PUSH1 0x0 PUSH2 0x30ED PUSH1 0x2D DUP4 PUSH2 0x2D0A JUMP JUMPDEST SWAP2 POP PUSH2 0x30F8 DUP3 PUSH2 0x3091 JUMP JUMPDEST PUSH1 0x40 DUP3 ADD SWAP1 POP SWAP2 SWAP1 POP JUMP JUMPDEST PUSH1 0x0 PUSH1 0x20 DUP3 ADD SWAP1 POP DUP2 DUP2 SUB PUSH1 0x0 DUP4 ADD MSTORE PUSH2 0x311C DUP2 PUSH2 0x30E0 JUMP JUMPDEST SWAP1 POP SWAP2 SWAP1 POP JUMP JUMPDEST PUSH32 0x4552523A204D61746368206E6F7420696E20636F727265637420737461676520 PUSH1 0x0 DUP3 ADD MSTORE PUSH32 0x746F20666574636820436F6D6D69746D656E7473210000000000000000000000 PUSH1 0x20 DUP3 ADD MSTORE POP JUMP JUMPDEST PUSH1 0x0 PUSH2 0x317F PUSH1 0x35 DUP4 PUSH2 0x2D0A JUMP JUMPDEST SWAP2 POP PUSH2 0x318A DUP3 PUSH2 0x3123 JUMP JUMPDEST PUSH1 0x40 DUP3 ADD SWAP1 POP SWAP2 SWAP1 POP JUMP JUMPDEST PUSH1 0x0 PUSH1 0x20 DUP3 ADD SWAP1 POP DUP2 DUP2 SUB PUSH1 0x0 DUP4 ADD MSTORE PUSH2 0x31AE DUP2 PUSH2 0x3172 JUMP JUMPDEST SWAP1 POP SWAP2 SWAP1 POP JUMP JUMPDEST PUSH32 0x4552523A204D61746368206E6F7420696E20636F727265637420737461676520 PUSH1 0x0 DUP3 ADD MSTORE PUSH32 0x746F207265636569766520436F6D6D69746D656E747321000000000000000000 PUSH1 0x20 DUP3 ADD MSTORE POP JUMP JUMPDEST PUSH1 0x0 PUSH2 0x3211 PUSH1 0x37 DUP4 PUSH2 0x2D0A JUMP JUMPDEST SWAP2 POP PUSH2 0x321C DUP3 PUSH2 0x31B5 JUMP JUMPDEST PUSH1 0x40 DUP3 ADD SWAP1 POP SWAP2 SWAP1 POP JUMP JUMPDEST PUSH1 0x0 PUSH1 0x20 DUP3 ADD SWAP1 POP DUP2 DUP2 SUB PUSH1 0x0 DUP4 ADD MSTORE PUSH2 0x3240 DUP2 PUSH2 0x3204 JUMP JUMPDEST SWAP1 POP SWAP2 SWAP1 POP JUMP JUMPDEST PUSH32 0x4552523A204D61746368206E6F7420696E20636F727265637420737461676520 PUSH1 0x0 DUP3 ADD MSTORE PUSH32 0x746F206665746368205265617665616C73210000000000000000000000000000 PUSH1 0x20 DUP3 ADD MSTORE POP JUMP JUMPDEST PUSH1 0x0 PUSH2 0x32A3 PUSH1 0x32 DUP4 PUSH2 0x2D0A JUMP JUMPDEST SWAP2 POP PUSH2 0x32AE DUP3 PUSH2 0x3247 JUMP JUMPDEST PUSH1 0x40 DUP3 ADD SWAP1 POP SWAP2 SWAP1 POP JUMP JUMPDEST PUSH1 0x0 PUSH1 0x20 DUP3 ADD SWAP1 POP DUP2 DUP2 SUB PUSH1 0x0 DUP4 ADD MSTORE PUSH2 0x32D2 DUP2 PUSH2 0x3296 JUMP JUMPDEST SWAP1 POP SWAP2 SWAP1 POP JUMP JUMPDEST PUSH1 0x0 DUP2 SWAP1 POP SWAP2 SWAP1 POP JUMP JUMPDEST PUSH2 0x32EC DUP2 PUSH2 0x32D9 JUMP JUMPDEST DUP3 MSTORE POP POP JUMP JUMPDEST PUSH1 0x0 PUSH1 0x20 DUP3 ADD SWAP1 POP PUSH2 0x3307 PUSH1 0x0 DUP4 ADD DUP5 PUSH2 0x32E3 JUMP JUMPDEST SWAP3 SWAP2 POP POP JUMP JUMPDEST PUSH1 0x0 DUP2 SWAP1 POP SWAP3 SWAP2 POP POP JUMP JUMPDEST PUSH1 0x0 DUP2 SWAP1 POP DUP2 PUSH1 0x0 MSTORE PUSH1 0x20 PUSH1 0x0 KECCAK256 SWAP1 POP SWAP2 SWAP1 POP JUMP JUMPDEST PUSH1 0x0 DUP2 SLOAD PUSH2 0x333A DUP2 PUSH2 0x2C1E JUMP JUMPDEST PUSH2 0x3344 DUP2 DUP7 PUSH2 0x330D JUMP JUMPDEST SWAP5 POP PUSH1 0x1 DUP3 AND PUSH1 0x0 DUP2 EQ PUSH2 0x335F JUMPI PUSH1 0x1 DUP2 EQ PUSH2 0x3374 JUMPI PUSH2 0x33A7 JUMP JUMPDEST PUSH1 0xFF NOT DUP4 AND DUP7 MSTORE DUP2 ISZERO ISZERO DUP3 MUL DUP7 ADD SWAP4 POP PUSH2 0x33A7 JUMP JUMPDEST PUSH2 0x337D DUP6 PUSH2 0x3318 JUMP JUMPDEST PUSH1 0x0 JUMPDEST DUP4 DUP2 LT ISZERO PUSH2 0x339F JUMPI DUP2 SLOAD DUP2 DUP10 ADD MSTORE PUSH1 0x1 DUP3 ADD SWAP2 POP PUSH1 0x20 DUP2 ADD SWAP1 POP PUSH2 0x3380 JUMP JUMPDEST DUP4 DUP9 ADD SWAP6 POP POP POP JUMPDEST POP POP POP SWAP3 SWAP2 POP POP JUMP JUMPDEST PUSH1 0x0 PUSH2 0x33BC DUP3 DUP5 PUSH2 0x332D JUMP JUMPDEST SWAP2 POP DUP2 SWAP1 POP SWAP3 SWAP2 POP POP JUMP JUMPDEST PUSH32 0x4552523A2052657665616C20646F65736E277420636F72726573706F6E642074 PUSH1 0x0 DUP3 ADD MSTORE PUSH32 0x6F2074686520436F6D6D69746D656E7400000000000000000000000000000000 PUSH1 0x20 DUP3 ADD MSTORE POP JUMP JUMPDEST PUSH1 0x0 PUSH2 0x3423 PUSH1 0x30 DUP4 PUSH2 0x2D0A JUMP JUMPDEST SWAP2 POP PUSH2 0x342E DUP3 PUSH2 0x33C7 JUMP JUMPDEST PUSH1 0x40 DUP3 ADD SWAP1 POP SWAP2 SWAP1 POP JUMP JUMPDEST PUSH1 0x0 PUSH1 0x20 DUP3 ADD SWAP1 POP DUP2 DUP2 SUB PUSH1 0x0 DUP4 ADD MSTORE PUSH2 0x3452 DUP2 PUSH2 0x3416 JUMP JUMPDEST SWAP1 POP SWAP2 SWAP1 POP JUMP JUMPDEST PUSH1 0x0 PUSH1 0x20 PUSH1 0x1F DUP4 ADD DIV SWAP1 POP SWAP2 SWAP1 POP JUMP JUMPDEST PUSH1 0x0 DUP3 DUP3 SHL SWAP1 POP SWAP3 SWAP2 POP POP JUMP JUMPDEST PUSH1 0x0 PUSH1 0x8 DUP4 MUL PUSH2 0x34A6 PUSH32 0xFFFFFFFFFFFFFFFFFFFFFFFFFFFFFFFFFFFFFFFFFFFFFFFFFFFFFFFFFFFFFFFF DUP3 PUSH2 0x3469 JUMP JUMPDEST PUSH2 0x34B0 DUP7 DUP4 PUSH2 0x3469 JUMP JUMPDEST SWAP6 POP DUP1 NOT DUP5 AND SWAP4 POP DUP1 DUP7 AND DUP5 OR SWAP3 POP POP POP SWAP4 SWAP3 POP POP POP JUMP JUMPDEST PUSH1 0x0 PUSH2 0x34E3 PUSH2 0x34DE PUSH2 0x34D9 DUP5 PUSH2 0x27AC JUMP JUMPDEST PUSH2 0x2A9D JUMP JUMPDEST PUSH2 0x27AC JUMP JUMPDEST SWAP1 POP SWAP2 SWAP1 POP JUMP JUMPDEST PUSH1 0x0 DUP2 SWAP1 POP SWAP2 SWAP1 POP JUMP JUMPDEST PUSH2 0x34FD DUP4 PUSH2 0x34C8 JUMP JUMPDEST PUSH2 0x3511 PUSH2 0x3509 DUP3 PUSH2 0x34EA JUMP JUMPDEST DUP5 DUP5 SLOAD PUSH2 0x3476 JUMP JUMPDEST DUP3 SSTORE POP POP POP POP JUMP JUMPDEST PUSH1 0x0 SWAP1 JUMP JUMPDEST PUSH2 0x3526 PUSH2 0x3519 JUMP JUMPDEST PUSH2 0x3531 DUP2 DUP5 DUP5 PUSH2 0x34F4 JUMP JUMPDEST POP POP POP JUMP JUMPDEST JUMPDEST DUP2 DUP2 LT ISZERO PUSH2 0x3555 JUMPI PUSH2 0x354A PUSH1 0x0 DUP3 PUSH2 0x351E JUMP JUMPDEST PUSH1 0x1 DUP2 ADD SWAP1 POP PUSH2 0x3537 JUMP JUMPDEST POP POP JUMP JUMPDEST PUSH1 0x1F DUP3 GT ISZERO PUSH2 0x359A JUMPI PUSH2 0x356B DUP2 PUSH2 0x3318 JUMP JUMPDEST PUSH2 0x3574 DUP5 PUSH2 0x3459 JUMP JUMPDEST DUP2 ADD PUSH1 0x20 DUP6 LT ISZERO PUSH2 0x3583 JUMPI DUP2 SWAP1 POP JUMPDEST PUSH2 0x3597 PUSH2 0x358F DUP6 PUSH2 0x3459 JUMP JUMPDEST DUP4 ADD DUP3 PUSH2 0x3536 JUMP JUMPDEST POP POP JUMPDEST POP POP POP JUMP JUMPDEST PUSH1 0x0 DUP3 DUP3 SHR SWAP1 POP SWAP3 SWAP2 POP POP JUMP JUMPDEST PUSH1 0x0 PUSH2 0x35BD PUSH1 0x0 NOT DUP5 PUSH1 0x8 MUL PUSH2 0x359F JUMP JUMPDEST NOT DUP1 DUP4 AND SWAP2 POP POP SWAP3 SWAP2 POP POP JUMP JUMPDEST PUSH1 0x0 PUSH2 0x35D6 DUP4 DUP4 PUSH2 0x35AC JUMP JUMPDEST SWAP2 POP DUP3 PUSH1 0x2 MUL DUP3 OR SWAP1 POP SWAP3 SWAP2 POP POP JUMP JUMPDEST PUSH2 0x35EF DUP3 PUSH2 0x2873 JUMP JUMPDEST PUSH8 0xFFFFFFFFFFFFFFFF DUP2 GT ISZERO PUSH2 0x3608 JUMPI PUSH2 0x3607 PUSH2 0x2F2C JUMP JUMPDEST JUMPDEST PUSH2 0x3612 DUP3 SLOAD PUSH2 0x2C1E JUMP JUMPDEST PUSH2 0x361D DUP3 DUP3 DUP6 PUSH2 0x3559 JUMP JUMPDEST PUSH1 0x0 PUSH1 0x20 SWAP1 POP PUSH1 0x1F DUP4 GT PUSH1 0x1 DUP2 EQ PUSH2 0x3650 JUMPI PUSH1 0x0 DUP5 ISZERO PUSH2 0x363E JUMPI DUP3 DUP8 ADD MLOAD SWAP1 POP JUMPDEST PUSH2 0x3648 DUP6 DUP3 PUSH2 0x35CA JUMP JUMPDEST DUP7 SSTORE POP PUSH2 0x36B0 JUMP JUMPDEST PUSH1 0x1F NOT DUP5 AND PUSH2 0x365E DUP7 PUSH2 0x3318 JUMP JUMPDEST PUSH1 0x0 JUMPDEST DUP3 DUP2 LT ISZERO PUSH2 0x3686 JUMPI DUP5 DUP10 ADD MLOAD DUP3 SSTORE PUSH1 0x1 DUP3 ADD SWAP2 POP PUSH1 0x20 DUP6 ADD SWAP5 POP PUSH1 0x20 DUP2 ADD SWAP1 POP PUSH2 0x3661 JUMP JUMPDEST DUP7 DUP4 LT ISZERO PUSH2 0x36A3 JUMPI DUP5 DUP10 ADD MLOAD PUSH2 0x369F PUSH1 0x1F DUP10 AND DUP3 PUSH2 0x35AC JUMP JUMPDEST DUP4 SSTORE POP JUMPDEST PUSH1 0x1 PUSH1 0x2 DUP9 MUL ADD DUP9 SSTORE POP POP POP JUMPDEST POP POP POP POP POP POP JUMP JUMPDEST PUSH1 0x0 DUP1 PUSH1 0x40 DUP4 DUP6 SUB SLT ISZERO PUSH2 0x36CF JUMPI PUSH2 0x36CE PUSH2 0x27EA JUMP JUMPDEST JUMPDEST PUSH1 0x0 PUSH2 0x36DD DUP6 DUP3 DUP7 ADD PUSH2 0x2DAD JUMP JUMPDEST SWAP3 POP POP PUSH1 0x20 PUSH2 0x36EE DUP6 DUP3 DUP7 ADD PUSH2 0x2DAD JUMP JUMPDEST SWAP2 POP POP SWAP3 POP SWAP3 SWAP1 POP JUMP JUMPDEST PUSH1 0x0 PUSH2 0x3703 DUP3 PUSH2 0x27AC JUMP JUMPDEST SWAP2 POP PUSH2 0x370E DUP4 PUSH2 0x27AC JUMP JUMPDEST SWAP3 POP DUP3 DUP3 MUL PUSH2 0x371C DUP2 PUSH2 0x27AC JUMP JUMPDEST SWAP2 POP DUP3 DUP3 DIV DUP5 EQ DUP4 ISZERO OR PUSH2 0x3733 JUMPI PUSH2 0x3732 PUSH2 0x2C7E JUMP JUMPDEST JUMPDEST POP SWAP3 SWAP2 POP POP JUMP JUMPDEST PUSH1 0x0 DUP2 PUSH1 0x1 SHR SWAP1 POP SWAP2 SWAP1 POP JUMP JUMPDEST PUSH1 0x0 DUP1 DUP3 SWAP2 POP DUP4 SWAP1 POP JUMPDEST PUSH1 0x1 DUP6 GT ISZERO PUSH2 0x3791 JUMPI DUP1 DUP7 DIV DUP2 GT ISZERO PUSH2 0x376D JUMPI PUSH2 0x376C PUSH2 0x2C7E JUMP JUMPDEST JUMPDEST PUSH1 0x1 DUP6 AND ISZERO PUSH2 0x377C JUMPI DUP1 DUP3 MUL SWAP2 POP JUMPDEST DUP1 DUP2 MUL SWAP1 POP PUSH2 0x378A DUP6 PUSH2 0x373A JUMP JUMPDEST SWAP5 POP PUSH2 0x3751 JUMP JUMPDEST SWAP5 POP SWAP5 SWAP3 POP POP POP JUMP JUMPDEST PUSH1 0x0 DUP3 PUSH2 0x37AA JUMPI PUSH1 0x1 SWAP1 POP PUSH2 0x3866 JUMP JUMPDEST DUP2 PUSH2 0x37B8 JUMPI PUSH1 0x0 SWAP1 POP PUSH2 0x3866 JUMP JUMPDEST DUP2 PUSH1 0x1 DUP2 EQ PUSH2 0x37CE JUMPI PUSH1 0x2 DUP2 EQ PUSH2 0x37D8 JUMPI PUSH2 0x3807 JUMP JUMPDEST PUSH1 0x1 SWAP2 POP POP PUSH2 0x3866 JUMP JUMPDEST PUSH1 0xFF DUP5 GT ISZERO PUSH2 0x37EA JUMPI PUSH2 0x37E9 PUSH2 0x2C7E JUMP JUMPDEST JUMPDEST DUP4 PUSH1 0x2 EXP SWAP2 POP DUP5 DUP3 GT ISZERO PUSH2 0x3801 JUMPI PUSH2 0x3800 PUSH2 0x2C7E JUMP JUMPDEST JUMPDEST POP PUSH2 0x3866 JUMP JUMPDEST POP PUSH1 0x20 DUP4 LT PUSH2 0x133 DUP4 LT AND PUSH1 0x4E DUP5 LT PUSH1 0xB DUP5 LT AND OR ISZERO PUSH2 0x383C JUMPI DUP3 DUP3 EXP SWAP1 POP DUP4 DUP2 GT ISZERO PUSH2 0x3837 JUMPI PUSH2 0x3836 PUSH2 0x2C7E JUMP JUMPDEST JUMPDEST PUSH2 0x3866 JUMP JUMPDEST PUSH2 0x3849 DUP5 DUP5 DUP5 PUSH1 0x1 PUSH2 0x3747 JUMP JUMPDEST SWAP3 POP SWAP1 POP DUP2 DUP5 DIV DUP2 GT ISZERO PUSH2 0x3860 JUMPI PUSH2 0x385F PUSH2 0x2C7E JUMP JUMPDEST JUMPDEST DUP2 DUP2 MUL SWAP1 POP JUMPDEST SWAP4 SWAP3 POP POP POP JUMP JUMPDEST PUSH1 0x0 PUSH2 0x3878 DUP3 PUSH2 0x27AC JUMP JUMPDEST SWAP2 POP PUSH2 0x3883 DUP4 PUSH2 0x27AC JUMP JUMPDEST SWAP3 POP PUSH2 0x38B0 PUSH32 0xFFFFFFFFFFFFFFFFFFFFFFFFFFFFFFFFFFFFFFFFFFFFFFFFFFFFFFFFFFFFFFFF DUP5 DUP5 PUSH2 0x379A JUMP JUMPDEST SWAP1 POP SWAP3 SWAP2 POP POP JUMP JUMPDEST PUSH1 0x0 PUSH2 0x38C3 DUP3 PUSH2 0x27AC JUMP JUMPDEST SWAP2 POP PUSH2 0x38CE DUP4 PUSH2 0x27AC JUMP JUMPDEST SWAP3 POP DUP3 DUP3 SUB SWAP1 POP DUP2 DUP2 GT ISZERO PUSH2 0x38E6 JUMPI PUSH2 0x38E5 PUSH2 0x2C7E JUMP JUMPDEST JUMPDEST SWAP3 SWAP2 POP POP JUMP JUMPDEST PUSH1 0x0 DUP2 MLOAD SWAP1 POP SWAP2 SWAP1 POP JUMP JUMPDEST PUSH1 0x0 PUSH2 0x3902 DUP3 PUSH2 0x38EC JUMP JUMPDEST PUSH2 0x390C DUP2 DUP6 PUSH2 0x2D0A JUMP JUMPDEST SWAP4 POP PUSH2 0x391C DUP2 DUP6 PUSH1 0x20 DUP7 ADD PUSH2 0x288F JUMP JUMPDEST PUSH2 0x3925 DUP2 PUSH2 0x28B9 JUMP JUMPDEST DUP5 ADD SWAP2 POP POP SWAP3 SWAP2 POP POP JUMP JUMPDEST PUSH1 0x0 PUSH1 0x20 DUP3 ADD SWAP1 POP DUP2 DUP2 SUB PUSH1 0x0 DUP4 ADD MSTORE PUSH2 0x394A DUP2 DUP5 PUSH2 0x38F7 JUMP JUMPDEST SWAP1 POP SWAP3 SWAP2 POP POP JUMP INVALID PUSH4 0x6F6D6D69 PUSH21 0x6D656E745469636B43616C6C6564202D2070617373 PUSH6 0x642072657175 PUSH10 0x72656D656E74A2646970 PUSH7 0x735822122003A1 0xBA PUSH6 0x9B25402A4354 0x28 CHAINID 0x23 0xBF 0xA9 0xCC 0xC9 0xB9 0x26 GASLIMIT 0xD9 0xDD 0xB3 0xD9 CALL GAS STATICCALL SWAP16 0xDB 0x5D OR LOG4 PUSH5 0x736F6C6343 STOP ADDMOD SLT STOP CALLER PUSH1 0x80 PUSH1 0x40 MSTORE CALLVALUE DUP1 ISZERO PUSH2 0x10 JUMPI PUSH1 0x0 DUP1 REVERT JUMPDEST POP PUSH2 0x26D DUP1 PUSH2 0x20 PUSH1 0x0 CODECOPY PUSH1 0x0 RETURN INVALID PUSH1 0x80 PUSH1 0x40 MSTORE CALLVALUE DUP1 ISZERO PUSH2 0x10 JUMPI PUSH1 0x0 DUP1 REVERT JUMPDEST POP PUSH1 0x4 CALLDATASIZE LT PUSH2 0x9E JUMPI PUSH1 0x0 CALLDATALOAD PUSH1 0xE0 SHR DUP1 PUSH4 0x705DD6CD GT PUSH2 0x66 JUMPI DUP1 PUSH4 0x705DD6CD EQ PUSH2 0x139 JUMPI DUP1 PUSH4 0x734692A9 EQ PUSH2 0x157 JUMPI DUP1 PUSH4 0xAE5C1356 EQ PUSH2 0x175 JUMPI DUP1 PUSH4 0xC8067B6F EQ PUSH2 0x193 JUMPI DUP1 PUSH4 0xE3C8BFB9 EQ PUSH2 0x1B1 JUMPI PUSH2 0x9E JUMP JUMPDEST DUP1 PUSH4 0x124A96C8 EQ PUSH2 0xA3 JUMPI DUP1 PUSH4 0x39FEBF0C EQ PUSH2 0xC1 JUMPI DUP1 PUSH4 0x45BAEE55 EQ PUSH2 0xDF JUMPI DUP1 PUSH4 0x49BBC37A EQ PUSH2 0xFD JUMPI DUP1 PUSH4 0x4FFDF11E EQ PUSH2 0x11B JUMPI JUMPDEST PUSH1 0x0 DUP1 REVERT JUMPDEST PUSH2 0xAB PUSH2 0x1CF JUMP JUMPDEST PUSH1 0x40 MLOAD PUSH2 0xB8 SWAP2 SWAP1 PUSH2 0x21C JUMP JUMPDEST PUSH1 0x40 MLOAD DUP1 SWAP2 SUB SWAP1 RETURN JUMPDEST PUSH2 0xC9 PUSH2 0x1D5 JUMP JUMPDEST PUSH1 0x40 MLOAD PUSH2 0xD6 SWAP2 SWAP1 PUSH2 0x21C JUMP JUMPDEST PUSH1 0x40 MLOAD DUP1 SWAP2 SUB SWAP1 RETURN JUMPDEST PUSH2 0xE7 PUSH2 0x1DA JUMP JUMPDEST PUSH1 0x40 MLOAD PUSH2 0xF4 SWAP2 SWAP1 PUSH2 0x21C JUMP JUMPDEST PUSH1 0x40 MLOAD DUP1 SWAP2 SUB SWAP1 RETURN JUMPDEST PUSH2 0x105 PUSH2 0x1DF JUMP JUMPDEST PUSH1 0x40 MLOAD PUSH2 0x112 SWAP2 SWAP1 PUSH2 0x21C JUMP JUMPDEST PUSH1 0x40 MLOAD DUP1 SWAP2 SUB SWAP1 RETURN JUMPDEST PUSH2 0x123 PUSH2 0x1E5 JUMP JUMPDEST PUSH1 0x40 MLOAD PUSH2 0x130 SWAP2 SWAP1 PUSH2 0x21C JUMP JUMPDEST PUSH1 0x40 MLOAD DUP1 SWAP2 SUB SWAP1 RETURN JUMPDEST PUSH2 0x141 PUSH2 0x1EA JUMP JUMPDEST PUSH1 0x40 MLOAD PUSH2 0x14E SWAP2 SWAP1 PUSH2 0x21C JUMP JUMPDEST PUSH1 0x40 MLOAD DUP1 SWAP2 SUB SWAP1 RETURN JUMPDEST PUSH2 0x15F PUSH2 0x1EF JUMP JUMPDEST PUSH1 0x40 MLOAD PUSH2 0x16C SWAP2 SWAP1 PUSH2 0x21C JUMP JUMPDEST PUSH1 0x40 MLOAD DUP1 SWAP2 SUB SWAP1 RETURN JUMPDEST PUSH2 0x17D PUSH2 0x1F4 JUMP JUMPDEST PUSH1 0x40 MLOAD PUSH2 0x18A SWAP2 SWAP1 PUSH2 0x21C JUMP JUMPDEST PUSH1 0x40 MLOAD DUP1 SWAP2 SUB SWAP1 RETURN JUMPDEST PUSH2 0x19B PUSH2 0x1F9 JUMP JUMPDEST PUSH1 0x40 MLOAD PUSH2 0x1A8 SWAP2 SWAP1 PUSH2 0x21C JUMP JUMPDEST PUSH1 0x40 MLOAD DUP1 SWAP2 SUB SWAP1 RETURN JUMPDEST PUSH2 0x1B9 PUSH2 0x1FE JUMP JUMPDEST PUSH1 0x40 MLOAD PUSH2 0x1C6 SWAP2 SWAP1 PUSH2 0x21C JUMP JUMPDEST PUSH1 0x40 MLOAD DUP1 SWAP2 SUB SWAP1 RETURN JUMPDEST PUSH2 0x1F4 DUP2 JUMP JUMPDEST PUSH1 0x5 DUP2 JUMP JUMPDEST PUSH1 0x7 DUP2 JUMP JUMPDEST PUSH2 0x3E8 DUP2 JUMP JUMPDEST PUSH1 0x6 DUP2 JUMP JUMPDEST PUSH1 0xA DUP2 JUMP JUMPDEST PUSH1 0x7 DUP2 JUMP JUMPDEST PUSH1 0xA DUP2 JUMP JUMPDEST PUSH1 0x5 DUP2 JUMP JUMPDEST PUSH1 0x2 DUP2 JUMP JUMPDEST PUSH1 0x0 DUP2 SWAP1 POP SWAP2 SWAP1 POP JUMP JUMPDEST PUSH2 0x216 DUP2 PUSH2 0x203 JUMP JUMPDEST DUP3 MSTORE POP POP JUMP JUMPDEST PUSH1 0x0 PUSH1 0x20 DUP3 ADD SWAP1 POP PUSH2 0x231 PUSH1 0x0 DUP4 ADD DUP5 PUSH2 0x20D JUMP JUMPDEST SWAP3 SWAP2 POP POP JUMP INVALID LOG2 PUSH5 0x6970667358 0x22 SLT KECCAK256 ADD 0xD9 0xD8 PUSH12 0x524B072C82851D2DA1AF5686 ADD 0xB9 SWAP2 0xB5 EXTCODEHASH PUSH26 0xE36A726E5478A595E9964736F6C634300081200330000000000 "},"methodIdentifiers":{"BALL_STEPS_PER_MOVE()":"734692a9","BITS_PER_PLAYER_X_POS()":"4ffdf11e","BITS_PER_PLAYER_Y_POS()":"45baee55","FIELD_H()":"124a96c8","FIELD_W()":"49bbc37a","MAX_BALL_DISTANCE_REQUIRED()":"c8067b6f","NUMBER_OF_PLAYERS_PER_TEAM()":"ae5c1356","NUMBER_OF_TEAMS()":"e3c8bfb9","PLAYER_STEPS_PER_MOVE()":"39febf0c","STAMINA_REQUIREMENT_FOR_ADVANCEMENT()":"705dd6cd","commitmentTick(uint256)":"5cd6925a","constants()":"72de5b2f","createMatch(address,address)":"1e20530a","joinMatch(uint256,address,address)":"35868ab7","logic()":"d7dfa0dd","matchCounter()":"01fd1951","matchIdToMatchStateId(uint256)":"755f10fd","matchInfo(uint256)":"d79b490e","revealTick(uint256)":"f9781033","seedRequestIdMatchId(uint256)":"37c74779","teamMove(uint256,uint256,uint256)":"1b7d40a5","ticker()":"8ba47bdd","updateCommitmentInfo(uint256)":"90ede5d5","updateRevealInfo(uint256)":"27764f7d"}}}}}