{"contracts/GameLogic.sol":{"GameLogic":{"abi":[{"inputs":[],"stateMutability":"nonpayable","type":"constructor"},{"anonymous":false,"inputs":[{"indexed":false,"internalType":"uint256","name":"matchId","type":"uint256"},{"indexed":false,"internalType":"enum Types.MATCH_STAGE","name":"stage","type":"uint8"}],"name":"MatchEnteredStage","type":"event"},{"inputs":[],"name":"BALL_STEPS_PER_MOVE","outputs":[{"internalType":"uint256","name":"","type":"uint256"}],"stateMutability":"view","type":"function"},{"inputs":[],"name":"BITS_PER_PLAYER_X_POS","outputs":[{"internalType":"uint256","name":"","type":"uint256"}],"stateMutability":"view","type":"function"},{"inputs":[],"name":"BITS_PER_PLAYER_Y_POS","outputs":[{"internalType":"uint256","name":"","type":"uint256"}],"stateMutability":"view","type":"function"},{"inputs":[],"name":"FIELD_H","outputs":[{"internalType":"uint256","name":"","type":"uint256"}],"stateMutability":"view","type":"function"},{"inputs":[],"name":"FIELD_W","outputs":[{"internalType":"uint256","name":"","type":"uint256"}],"stateMutability":"view","type":"function"},{"inputs":[],"name":"MAX_BALL_DISTANCE_REQUIRED","outputs":[{"internalType":"uint256","name":"","type":"uint256"}],"stateMutability":"view","type":"function"},{"inputs":[],"name":"NUMBER_OF_PLAYERS_PER_TEAM","outputs":[{"internalType":"uint256","name":"","type":"uint256"}],"stateMutability":"view","type":"function"},{"inputs":[],"name":"NUMBER_OF_TEAMS","outputs":[{"internalType":"uint256","name":"","type":"uint256"}],"stateMutability":"view","type":"function"},{"inputs":[],"name":"PLAYER_STEPS_PER_MOVE","outputs":[{"internalType":"uint256","name":"","type":"uint256"}],"stateMutability":"view","type":"function"},{"inputs":[],"name":"STAMINA_REQUIREMENT_FOR_ADVANCEMENT","outputs":[{"internalType":"uint256","name":"","type":"uint256"}],"stateMutability":"view","type":"function"},{"inputs":[{"internalType":"uint256","name":"matchId","type":"uint256"}],"name":"commitmentTick","outputs":[],"stateMutability":"nonpayable","type":"function"},{"inputs":[],"name":"constants","outputs":[{"internalType":"contract Constants","name":"","type":"address"}],"stateMutability":"view","type":"function"},{"inputs":[{"internalType":"address","name":"team1_commitmentChainlinkFunctionConsumer","type":"address"},{"internalType":"address","name":"team1_revealChainlinkFunctionConsumer","type":"address"}],"name":"createMatch","outputs":[],"stateMutability":"nonpayable","type":"function"},{"inputs":[{"internalType":"uint256","name":"matchId","type":"uint256"},{"internalType":"uint256","name":"stateId","type":"uint256"}],"name":"getProgression","outputs":[{"components":[{"internalType":"uint256","name":"startingTeamIdWithTheBall","type":"uint256"},{"internalType":"uint256","name":"startingPlayerIdWithTheBall","type":"uint256"},{"internalType":"uint256","name":"teamIdWithTheBall","type":"uint256"},{"internalType":"uint256","name":"playerIdWithTheBall","type":"uint256"},{"internalType":"bool","name":"ballWasWon","type":"bool"},{"internalType":"uint256","name":"ballWasWonByTeam","type":"uint256"},{"internalType":"bool","name":"interceptionOccured","type":"bool"},{"internalType":"uint256","name":"interceptionAchievedByTeam","type":"uint256"},{"internalType":"uint256","name":"ballXPos","type":"uint256"},{"internalType":"uint256","name":"ballYPos","type":"uint256"},{"internalType":"bool","name":"goalWasScored","type":"bool"},{"internalType":"uint256","name":"goalWasScoredByTeam","type":"uint256"},{"components":[{"components":[{"internalType":"uint256","name":"speed","type":"uint256"},{"internalType":"uint256","name":"skill","type":"uint256"},{"internalType":"uint256","name":"stamina","type":"uint256"}],"internalType":"struct Types.PlayerStats[]","name":"playerStats","type":"tuple[]"},{"internalType":"uint256[]","name":"xPos","type":"uint256[]"},{"internalType":"uint256[]","name":"yPos","type":"uint256[]"}],"internalType":"struct Types.TeamState[]","name":"teamState","type":"tuple[]"}],"internalType":"struct Types.ProgressionState[]","name":"progression","type":"tuple[]"}],"stateMutability":"view","type":"function"},{"inputs":[{"internalType":"uint256","name":"matchId","type":"uint256"},{"internalType":"uint256","name":"stateId","type":"uint256"},{"internalType":"uint256","name":"progressionStep","type":"uint256"},{"internalType":"uint256","name":"teamId","type":"uint256"}],"name":"getTeamStateProgression","outputs":[{"internalType":"uint256[10]","name":"x_pos","type":"uint256[10]"}],"stateMutability":"view","type":"function"},{"inputs":[{"internalType":"uint256","name":"matchId","type":"uint256"},{"internalType":"address","name":"team2_commitmentChainlinkFunctionConsumer","type":"address"},{"internalType":"address","name":"team2_revealChainlinkFunctionConsumer","type":"address"}],"name":"joinMatch","outputs":[],"stateMutability":"nonpayable","type":"function"},{"inputs":[],"name":"logic","outputs":[{"internalType":"address","name":"","type":"address"}],"stateMutability":"view","type":"function"},{"inputs":[],"name":"manager","outputs":[{"internalType":"address","name":"","type":"address"}],"stateMutability":"view","type":"function"},{"inputs":[],"name":"matchCounter","outputs":[{"internalType":"uint256","name":"","type":"uint256"}],"stateMutability":"view","type":"function"},{"inputs":[{"internalType":"uint256","name":"","type":"uint256"}],"name":"matchIdToMatchStateId","outputs":[{"internalType":"uint256","name":"","type":"uint256"}],"stateMutability":"view","type":"function"},{"inputs":[{"internalType":"uint256","name":"","type":"uint256"}],"name":"matchInfo","outputs":[{"internalType":"uint256","name":"seed","type":"uint256"},{"internalType":"enum Types.MATCH_STAGE","name":"stage","type":"uint8"},{"internalType":"uint256","name":"stateId","type":"uint256"}],"stateMutability":"view","type":"function"},{"inputs":[{"internalType":"uint256","name":"matchId","type":"uint256"}],"name":"revealTick","outputs":[],"stateMutability":"nonpayable","type":"function"},{"inputs":[{"internalType":"uint256","name":"","type":"uint256"}],"name":"seedRequestIdMatchId","outputs":[{"internalType":"uint256","name":"","type":"uint256"}],"stateMutability":"view","type":"function"},{"inputs":[{"internalType":"uint256","name":"matchId","type":"uint256"}],"name":"stateUpdate","outputs":[],"stateMutability":"nonpayable","type":"function"},{"inputs":[{"internalType":"uint256","name":"","type":"uint256"},{"internalType":"uint256","name":"","type":"uint256"},{"internalType":"uint256","name":"","type":"uint256"}],"name":"teamMove","outputs":[{"internalType":"bytes","name":"commitment","type":"bytes"},{"internalType":"bytes","name":"reveal","type":"bytes"},{"internalType":"bool","name":"wantToPass","type":"bool"},{"internalType":"uint256","name":"receivingPlayerId","type":"uint256"},{"internalType":"bool","name":"wantToShoot","type":"bool"}],"stateMutability":"view","type":"function"},{"inputs":[],"name":"ticker","outputs":[{"internalType":"address","name":"","type":"address"}],"stateMutability":"view","type":"function"},{"inputs":[{"internalType":"uint256","name":"matchId","type":"uint256"}],"name":"updateCommitmentInfo","outputs":[],"stateMutability":"nonpayable","type":"function"},{"inputs":[{"internalType":"uint256","name":"matchId","type":"uint256"}],"name":"updateRevealInfo","outputs":[],"stateMutability":"nonpayable","type":"function"}],"evm":{"bytecode":{"linkReferences":{},"object":"60806040523480156200001157600080fd5b506040516200002090620000fc565b604051809103906000f0801580156200003d573d6000803e3d6000fd5b506000806101000a81548173ffffffffffffffffffffffffffffffffffffffff021916908373ffffffffffffffffffffffffffffffffffffffff160217905550306040516200008c906200010a565b6200009891906200015d565b604051809103906000f080158015620000b5573d6000803e3d6000fd5b50600a60006101000a81548173ffffffffffffffffffffffffffffffffffffffff021916908373ffffffffffffffffffffffffffffffffffffffff1602179055506200017a565b61028d8062004f6a83390190565b613de280620051f783390190565b600073ffffffffffffffffffffffffffffffffffffffff82169050919050565b6000620001458262000118565b9050919050565b620001578162000138565b82525050565b60006020820190506200017460008301846200014c565b92915050565b614de0806200018a6000396000f3fe608060405234801561001057600080fd5b50600436106101c45760003560e01c8063705dd6cd116100f9578063c8067b6f11610097578063d7dfa0dd11610071578063d7dfa0dd14610501578063e3c8bfb91461051f578063e5bcd4501461053d578063f978103314610559576101c4565b8063c8067b6f14610481578063d5792e351461049f578063d79b490e146104cf576101c4565b8063755f10fd116100d3578063755f10fd146103f95780638ba47bdd1461042957806390ede5d514610447578063ae5c135614610463576101c4565b8063705dd6cd1461039f57806372de5b2f146103bd578063734692a9146103db576101c4565b806339febf0c11610166578063481c6a7511610140578063481c6a751461032957806349bbc37a146103475780634ffdf11e146103655780635cd6925a14610383576101c4565b806339febf0c146102bd57806344c1dc78146102db57806345baee551461030b576101c4565b80631e20530a116101a25780631e20530a1461023957806327764f7d1461025557806335868ab71461027157806337c747791461028d576101c4565b806301fd1951146101c9578063124a96c8146101e75780631b7d40a514610205575b600080fd5b6101d1610575565b6040516101de91906139c0565b60405180910390f35b6101ef61057b565b6040516101fc91906139c0565b60405180910390f35b61021f600480360381019061021a9190613a0c565b610581565b604051610230959493929190613b0a565b60405180910390f35b610253600480360381019061024e9190613bc9565b61070b565b005b61026f600480360381019061026a9190613c09565b61086f565b005b61028b60048036038101906102869190613c36565b6109d0565b005b6102a760048036038101906102a29190613c09565b610b37565b6040516102b491906139c0565b60405180910390f35b6102c5610b4f565b6040516102d291906139c0565b60405180910390f35b6102f560048036038101906102f09190613c89565b610b54565b6040516103029190614182565b60405180910390f35b610313611b92565b60405161032091906139c0565b60405180910390f35b610331611b97565b60405161033e91906141b3565b60405180910390f35b61034f611bbd565b60405161035c91906139c0565b60405180910390f35b61036d611bc3565b60405161037a91906139c0565b60405180910390f35b61039d60048036038101906103989190613c09565b611bc8565b005b6103a7611d29565b6040516103b491906139c0565b60405180910390f35b6103c5611d2e565b6040516103d2919061422d565b60405180910390f35b6103e3611d52565b6040516103f091906139c0565b60405180910390f35b610413600480360381019061040e9190613c09565b611d57565b60405161042091906139c0565b60405180910390f35b610431611d6f565b60405161043e91906141b3565b60405180910390f35b610461600480360381019061045c9190613c09565b611d95565b005b61046b611ef6565b60405161047891906139c0565b60405180910390f35b610489611efb565b60405161049691906139c0565b60405180910390f35b6104b960048036038101906104b49190614248565b611f00565b6040516104c69190614333565b60405180910390f35b6104e960048036038101906104e49190613c09565b611fb1565b6040516104f8939291906143c6565b60405180910390f35b610509611fe8565b60405161051691906141b3565b60405180910390f35b61052761200e565b60405161053491906139c0565b60405180910390f35b61055760048036038101906105529190613c09565b612013565b005b610573600480360381019061056e9190613c09565b6123ab565b005b60035481565b6101f481565b600960205282600052604060002060205281600052604060002081815481106105a957600080fd5b906000526020600020906007020160009250925050508060000180546105ce9061442c565b80601f01602080910402602001604051908101604052809291908181526020018280546105fa9061442c565b80156106475780601f1061061c57610100808354040283529160200191610647565b820191906000526020600020905b81548152906001019060200180831161062a57829003601f168201915b50505050509080600101805461065c9061442c565b80601f01602080910402602001604051908101604052809291908181526020018280546106889061442c565b80156106d55780601f106106aa576101008083540402835291602001916106d5565b820191906000526020600020905b8154815290600101906020018083116106b857829003601f168201915b5050505050908060040160009054906101000a900460ff16908060050154908060060160009054906101000a900460ff16905085565b600080600a60009054906101000a900473ffffffffffffffffffffffffffffffffffffffff1673ffffffffffffffffffffffffffffffffffffffff16848460405160240161075a92919061445d565b6040516020818303038152906040527f1e20530a000000000000000000000000000000000000000000000000000000007bffffffffffffffffffffffffffffffffffffffffffffffffffffffff19166020820180517bffffffffffffffffffffffffffffffffffffffffffffffffffffffff83818316178352505050506040516107e491906144c2565b600060405180830381855af49150503d806000811461081f576040519150601f19603f3d011682016040523d82523d6000602084013e610824565b606091505b509150915081610869576040517f08c379a00000000000000000000000000000000000000000000000000000000081526004016108609061455c565b60405180910390fd5b50505050565b600080600a60009054906101000a900473ffffffffffffffffffffffffffffffffffffffff1673ffffffffffffffffffffffffffffffffffffffff16836040516024016108bc91906139c0565b6040516020818303038152906040527f27764f7d000000000000000000000000000000000000000000000000000000007bffffffffffffffffffffffffffffffffffffffffffffffffffffffff19166020820180517bffffffffffffffffffffffffffffffffffffffffffffffffffffffff838183161783525050505060405161094691906144c2565b600060405180830381855af49150503d8060008114610981576040519150601f19603f3d011682016040523d82523d6000602084013e610986565b606091505b5091509150816109cb576040517f08c379a00000000000000000000000000000000000000000000000000000000081526004016109c2906145ee565b60405180910390fd5b505050565b600080600a60009054906101000a900473ffffffffffffffffffffffffffffffffffffffff1673ffffffffffffffffffffffffffffffffffffffff16858585604051602401610a219392919061460e565b6040516020818303038152906040527f35868ab7000000000000000000000000000000000000000000000000000000007bffffffffffffffffffffffffffffffffffffffffffffffffffffffff19166020820180517bffffffffffffffffffffffffffffffffffffffffffffffffffffffff8381831617835250505050604051610aab91906144c2565b600060405180830381855af49150503d8060008114610ae6576040519150601f19603f3d011682016040523d82523d6000602084013e610aeb565b606091505b509150915081610b30576040517f08c379a0000000000000000000000000000000000000000000000000000000008152600401610b27906146b7565b60405180910390fd5b5050505050565b60056020528060005260406000206000915090505481565b600581565b606060006008600085815260200190815260200160002060008481526020019081526020016000209050600081805480602002602001604051908101604052809291908181526020016000905b82821015610d00578382906000526020600020906003020160405180606001604052908160008201805480602002602001604051908101604052809291908181526020016000905b82821015610c395783829060005260206000209060030201604051806060016040529081600082015481526020016001820154815260200160028201548152505081526020019060010190610be9565b50505050815260200160018201805480602002602001604051908101604052809291908181526020018280548015610c9057602002820191906000526020600020905b815481526020019060010190808311610c7c575b5050505050815260200160028201805480602002602001604051908101604052809291908181526020018280548015610ce857602002820191906000526020600020905b815481526020019060010190808311610cd4575b50505050508152505081526020019060010190610ba1565b50505050905060005b6002811015610f5d57600a67ffffffffffffffff811115610d2d57610d2c6146d7565b5b604051908082528060200260200182016040528015610d6657816020015b610d536138d4565b815260200190600190039081610d4b5790505b50828281518110610d7a57610d79614706565b5b60200260200101516000018190525060005b600a811015610f4b57838281548110610da857610da7614706565b5b90600052602060002090600302016000018181548110610dcb57610dca614706565b5b90600052602060002090600302016040518060600160405290816000820154815260200160018201548152602001600282015481525050838381518110610e1557610e14614706565b5b6020026020010151600001518281518110610e3357610e32614706565b5b6020026020010181905250838281548110610e5157610e50614706565b5b90600052602060002090600302016001018181548110610e7457610e73614706565b5b9060005260206000200154838381518110610e9257610e91614706565b5b6020026020010151602001518281518110610eb057610eaf614706565b5b602002602001018181525050838281548110610ecf57610ece614706565b5b90600052602060002090600302016002018181548110610ef257610ef1614706565b5b9060005260206000200154838381518110610f1057610f0f614706565b5b6020026020010151604001518281518110610f2e57610f2d614706565b5b60200260200101818152505080610f4490614764565b9050610d8c565b5080610f5690614764565b9050610d09565b5060006009600087815260200190815260200160002060008681526020019081526020016000209050600081805480602002602001604051908101604052809291908181526020016000905b828210156111ef57838290600052602060002090600702016040518060e0016040529081600082018054610fdc9061442c565b80601f01602080910402602001604051908101604052809291908181526020018280546110089061442c565b80156110555780601f1061102a57610100808354040283529160200191611055565b820191906000526020600020905b81548152906001019060200180831161103857829003601f168201915b5050505050815260200160018201805461106e9061442c565b80601f016020809104026020016040519081016040528092919081815260200182805461109a9061442c565b80156110e75780601f106110bc576101008083540402835291602001916110e7565b820191906000526020600020905b8154815290600101906020018083116110ca57829003601f168201915b505050505081526020016002820180548060200260200160405190810160405280929190818152602001828054801561113f57602002820191906000526020600020905b81548152602001906001019080831161112b575b505050505081526020016003820180548060200260200160405190810160405280929190818152602001828054801561119757602002820191906000526020600020905b815481526020019060010190808311611183575b505050505081526020016004820160009054906101000a900460ff16151515158152602001600582015481526020016006820160009054906101000a900460ff16151515158152505081526020019060010190610fa9565b50505050905060005b600281101561132c5760005b600a81101561131a578382815481106112205761121f614706565b5b9060005260206000209060070201600201818154811061124357611242614706565b5b906000526020600020015483838151811061126157611260614706565b5b602002602001015160400151828151811061127f5761127e614706565b5b60200260200101818152505083828154811061129e5761129d614706565b5b906000526020600020906007020160030181815481106112c1576112c0614706565b5b90600052602060002001548383815181106112df576112de614706565b5b60200260200101516060015182815181106112fd576112fc614706565b5b6020026020010181815250508061131390614764565b9050611204565b508061132590614764565b90506111f8565b506007600561133b91906147ac565b67ffffffffffffffff811115611354576113536146d7565b5b60405190808252806020026020018201604052801561138d57816020015b61137a6138f5565b8152602001906001900390816113725790505b50945060005b600760056113a191906147ac565b811015611b875760008682815181106113bd576113bc614706565b5b60200260200101519050600267ffffffffffffffff8111156113e2576113e16146d7565b5b60405190808252806020026020018201604052801561141b57816020015b611408613963565b8152602001906001900390816114005790505b5081610180018190525060005b6002811015611568576000826101800151828151811061144b5761144a614706565b5b60200260200101519050600a67ffffffffffffffff8111156114705761146f6146d7565b5b6040519080825280602002602001820160405280156114a957816020015b6114966138d4565b81526020019060019003908161148e5790505b508160000181905250600a67ffffffffffffffff8111156114cd576114cc6146d7565b5b6040519080825280602002602001820160405280156114fb5781602001602082028036833780820191505090505b508160200181905250600a67ffffffffffffffff81111561151f5761151e6146d7565b5b60405190808252806020026020018201604052801561154d5781602001602082028036833780820191505090505b508160400181905250508061156190614764565b9050611428565b50600082036115a6578481610180018190525061159f8760008151811061159257611591614706565b5b602002602001015161250c565b5050611b76565b866001836115b491906147e0565b815181106115c5576115c4614706565b5b60200260200101518783815181106115e0576115df614706565b5b602002602001018190525060005b60028110156118fb57600a67ffffffffffffffff811115611612576116116146d7565b5b60405190808252806020026020018201604052801561164b57816020015b6116386138d4565b8152602001906001900390816116305790505b5088848151811061165f5761165e614706565b5b60200260200101516101800151828151811061167e5761167d614706565b5b60200260200101516000018190525060005b600a8110156118e957886001856116a791906147e0565b815181106116b8576116b7614706565b5b6020026020010151610180015182815181106116d7576116d6614706565b5b60200260200101516000015181815181106116f5576116f4614706565b5b60200260200101518985815181106117105761170f614706565b5b60200260200101516101800151838151811061172f5761172e614706565b5b602002602001015160000151828151811061174d5761174c614706565b5b60200260200101819052508860018561176691906147e0565b8151811061177757611776614706565b5b60200260200101516101800151828151811061179657611795614706565b5b60200260200101516020015181815181106117b4576117b3614706565b5b60200260200101518985815181106117cf576117ce614706565b5b6020026020010151610180015183815181106117ee576117ed614706565b5b602002602001015160200151828151811061180c5761180b614706565b5b6020026020010181815250508860018561182691906147e0565b8151811061183757611836614706565b5b60200260200101516101800151828151811061185657611855614706565b5b602002602001015160400151818151811061187457611873614706565b5b602002602001015189858151811061188f5761188e614706565b5b6020026020010151610180015183815181106118ae576118ad614706565b5b60200260200101516040015182815181106118cc576118cb614706565b5b602002602001018181525050806118e290614764565b9050611690565b50806118f490614764565b90506115ee565b506005821015611a355760005b60028110156119ad5760005b600a81101561199b5761196c878684848d60018a61193291906147e0565b8151811061194357611942614706565b5b60200260200101518e8a8151811061195e5761195d614706565b5b60200260200101518a61259f565b89858151811061197f5761197e614706565b5b60200260200101819052508061199490614764565b9050611914565b50806119a690614764565b9050611908565b506119d18783815181106119c4576119c3614706565b5b602002602001015161250c565b8783815181106119e4576119e3614706565b5b6020026020010181905250611a12878381518110611a0557611a04614706565b5b6020026020010151612cc1565b878381518110611a2557611a24614706565b5b6020026020010181905250611b74565b60001515878381518110611a4c57611a4b614706565b5b602002602001015160c001511515148015611aa3575086600081518110611a7657611a75614706565b5b602002602001015160400151878381518110611a9557611a94614706565b5b602002602001015160400151145b15611b7357611b548760016005611aba91906147e0565b81518110611acb57611aca614706565b5b602002602001015188600081518110611ae757611ae6614706565b5b602002602001015160400151858a600187611b0291906147e0565b81518110611b1357611b12614706565b5b60200260200101518b8781518110611b2e57611b2d614706565b5b60200260200101516005886001611b4591906147ac565b611b4f91906147e0565b612d90565b878381518110611b6757611b66614706565b5b60200260200101819052505b5b505b80611b8090614764565b9050611393565b505050505092915050565b600981565b600a60009054906101000a900473ffffffffffffffffffffffffffffffffffffffff1681565b6103e881565b600a81565b600080600a60009054906101000a900473ffffffffffffffffffffffffffffffffffffffff1673ffffffffffffffffffffffffffffffffffffffff1683604051602401611c1591906139c0565b6040516020818303038152906040527f5cd6925a000000000000000000000000000000000000000000000000000000007bffffffffffffffffffffffffffffffffffffffffffffffffffffffff19166020820180517bffffffffffffffffffffffffffffffffffffffffffffffffffffffff8381831617835250505050604051611c9f91906144c2565b600060405180830381855af49150503d8060008114611cda576040519150601f19603f3d011682016040523d82523d6000602084013e611cdf565b606091505b509150915081611d24576040517f08c379a0000000000000000000000000000000000000000000000000000000008152600401611d1b90614886565b60405180910390fd5b505050565b600a81565b60008054906101000a900473ffffffffffffffffffffffffffffffffffffffff1681565b600781565b60066020528060005260406000206000915090505481565b600260009054906101000a900473ffffffffffffffffffffffffffffffffffffffff1681565b600080600a60009054906101000a900473ffffffffffffffffffffffffffffffffffffffff1673ffffffffffffffffffffffffffffffffffffffff1683604051602401611de291906139c0565b6040516020818303038152906040527f90ede5d5000000000000000000000000000000000000000000000000000000007bffffffffffffffffffffffffffffffffffffffffffffffffffffffff19166020820180517bffffffffffffffffffffffffffffffffffffffffffffffffffffffff8381831617835250505050604051611e6c91906144c2565b600060405180830381855af49150503d8060008114611ea7576040519150601f19603f3d011682016040523d82523d6000602084013e611eac565b606091505b509150915081611ef1576040517f08c379a0000000000000000000000000000000000000000000000000000000008152600401611ee890614918565b60405180910390fd5b505050565b600a81565b600581565b611f08613984565b6000611f148686610b54565b905060005b600a811015611fa757818581518110611f3557611f34614706565b5b602002602001015161018001518481518110611f5457611f53614706565b5b6020026020010151602001518181518110611f7257611f71614706565b5b60200260200101518382600a8110611f8d57611f8c614706565b5b60200201818152505080611fa090614764565b9050611f19565b5050949350505050565b60046020528060005260406000206000915090508060000154908060030160009054906101000a900460ff16908060040154905083565b600160009054906101000a900473ffffffffffffffffffffffffffffffffffffffff1681565b600281565b60006004600083815260200190815260200160002090506008600a81111561203e5761203d61434f565b5b8160030160009054906101000a900460ff16600a8111156120625761206161434f565b5b146120a2576040517f08c379a0000000000000000000000000000000000000000000000000000000008152600401612099906149aa565b60405180910390fd5b60006006600084815260200190815260200160002054905060006120c68483610b54565b9050600081600183516120d991906147e0565b815181106120ea576120e9614706565b5b602002602001015161018001519050600060086000878152602001908152602001600020600060018661211d91906147ac565b8152602001908152602001600020905060005b60028110156123005760005b600a8110156122ee5783828151811061215857612157614706565b5b602002602001015160000151818151811061217657612175614706565b5b602002602001015183838154811061219157612190614706565b5b906000526020600020906003020160000182815481106121b4576121b3614706565b5b90600052602060002090600302016000820151816000015560208201518160010155604082015181600201559050508382815181106121f6576121f5614706565b5b602002602001015160200151818151811061221457612213614706565b5b602002602001015183838154811061222f5761222e614706565b5b9060005260206000209060030201600101828154811061225257612251614706565b5b906000526020600020018190555083828151811061227357612272614706565b5b602002602001015160400151818151811061229157612290614706565b5b60200260200101518383815481106122ac576122ab614706565b5b906000526020600020906003020160020182815481106122cf576122ce614706565b5b9060005260206000200181905550806122e790614764565b905061213c565b50806122f990614764565b9050612130565b50600160066000888152602001908152602001600020600082825461232591906147ac565b9250508190555060098560030160006101000a81548160ff0219169083600a8111156123545761235361434f565b5b02179055507f58d4562cf15d1052e816fd24f6af2c8a3a21416d6e4c01a9e11ef84ffe537e25868660030160009054906101000a900460ff1660405161239b9291906149ca565b60405180910390a1505050505050565b600080600a60009054906101000a900473ffffffffffffffffffffffffffffffffffffffff1673ffffffffffffffffffffffffffffffffffffffff16836040516024016123f891906139c0565b6040516020818303038152906040527ff9781033000000000000000000000000000000000000000000000000000000007bffffffffffffffffffffffffffffffffffffffffffffffffffffffff19166020820180517bffffffffffffffffffffffffffffffffffffffffffffffffffffffff838183161783525050505060405161248291906144c2565b600060405180830381855af49150503d80600081146124bd576040519150601f19603f3d011682016040523d82523d6000602084013e6124c2565b606091505b509150915081612507576040517f08c379a00000000000000000000000000000000000000000000000000000000081526004016124fe90614a65565b60405180910390fd5b505050565b6125146138f5565b600082610180015183604001518151811061253257612531614706565b5b60200260200101519050806020015183606001518151811061255757612556614706565b5b602002602001015183610100018181525050806040015183606001518151811061258457612583614706565b5b60200260200101518361012001818152505082915050919050565b6125a76138f5565b600060405180604001604052808989815181106125c7576125c6614706565b5b60200260200101516040015188815181106125e5576125e4614706565b5b6020026020010151815260200189898151811061260557612604614706565b5b602002602001015160600151888151811061262357612622614706565b5b60200260200101518152509050600060405180604001604052808b8a815181106126505761264f614706565b5b602002602001015160200151898151811061266e5761266d614706565b5b602002602001015181526020018b8a8151811061268e5761268d614706565b5b60200260200101516040015189815181106126ac576126ab614706565b5b60200260200101518152509050600060405180604001604052808861018001518b815181106126de576126dd614706565b5b6020026020010151602001518a815181106126fc576126fb614706565b5b602002602001015181526020018861018001518b8151811061272157612720614706565b5b6020026020010151604001518a8151811061273f5761273e614706565b5b60200260200101518152509050826000600281106127605761275f614706565b5b60200201518160006002811061277957612778614706565b5b60200201511480156127ba57508060016002811061279a57612799614706565b5b6020020151816001600281106127b3576127b2614706565b5b6020020151145b156127ca57859350505050612cb6565b60006040518060400160405280846000600281106127eb576127ea614706565b5b60200201518660006002811061280457612803614706565b5b60200201516128139190614a8f565b81526020018460016002811061282c5761282b614706565b5b60200201518660016002811061284557612844614706565b5b60200201516128549190614a8f565b815250905060008160016002811061286f5761286e614706565b5b60200201518260016002811061288857612887614706565b5b60200201516128979190614ad2565b826000600281106128ab576128aa614706565b5b6020020151836000600281106128c4576128c3614706565b5b60200201516128d39190614ad2565b6128dd9190614b4a565b905060008961018001518c815181106128f9576128f8614706565b5b6020026020010151600001518b8151811061291757612916614706565b5b60200260200101519050600115612cac576000604051806040016040528060008660006002811061294b5761294a614706565b5b6020020151136129c55760058960006002811061296b5761296a614706565b5b60200201518960006002811061298457612983614706565b5b602002015161299391906147e0565b61299d9190614bbd565b876000600281106129b1576129b0614706565b5b60200201516129c091906147e0565b612a31565b6005886000600281106129db576129da614706565b5b60200201518a6000600281106129f4576129f3614706565b5b6020020151612a0391906147e0565b612a0d9190614bbd565b87600060028110612a2157612a20614706565b5b6020020151612a3091906147ac565b5b8152602001600086600160028110612a4c57612a4b614706565b5b602002015113612ac657600589600160028110612a6c57612a6b614706565b5b602002015189600160028110612a8557612a84614706565b5b6020020151612a9491906147e0565b612a9e9190614bbd565b87600160028110612ab257612ab1614706565b5b6020020151612ac191906147e0565b612b32565b600588600160028110612adc57612adb614706565b5b60200201518a600160028110612af557612af4614706565b5b6020020151612b0491906147e0565b612b0e9190614bbd565b87600160028110612b2257612b21614706565b5b6020020151612b3191906147ac565b5b815250905060058903612bac5786600060028110612b5357612b52614706565b5b602002015181600060028110612b6c57612b6b614706565b5b60200201818152505086600160028110612b8957612b88614706565b5b602002015181600160028110612ba257612ba1614706565b5b6020020181815250505b6103e881600060028110612bc357612bc2614706565b5b6020020151108015612bee57506101f481600060028110612be757612be6614706565b5b6020020151105b15612caa5780600060028110612c0757612c06614706565b5b60200201518a61018001518e81518110612c2457612c23614706565b5b6020026020010151602001518d81518110612c4257612c41614706565b5b60200260200101818152505080600160028110612c6257612c61614706565b5b60200201518a61018001518e81518110612c7f57612c7e614706565b5b6020026020010151604001518d81518110612c9d57612c9c614706565b5b6020026020010181815250505b505b8896505050505050505b979650505050505050565b612cc96138f5565b6000826040015190506000836060015190506000826001612cea91906147e0565b905060005b600a811015612d84576005612d078786868686613332565b1015612d7357600080612d21888960400151878787613568565b9150915087604001518214612d70576001886080019015159081151581525050838860a00181815250508088606001818152505085886000018181525050848860200181815250505050612d84565b50505b80612d7d90614764565b9050612cef565b50849350505050919050565b612d986138f5565b600060405180604001604052808961018001518981518110612dbd57612dbc614706565b5b602002602001015160200151888a81518110612ddc57612ddb614706565b5b602002602001015160a0015181518110612df957612df8614706565b5b602002602001015181526020018961018001518981518110612e1e57612e1d614706565b5b602002602001015160400151888a81518110612e3d57612e3c614706565b5b602002602001015160a0015181518110612e5a57612e59614706565b5b60200260200101518152509050600060405180604001604052808a610100015181526020018a61012001518152509050600060405180604001604052808861010001518152602001886101200151815250905082600060028110612ec157612ec0614706565b5b602002015181600060028110612eda57612ed9614706565b5b6020020151148015612f1b575080600160028110612efb57612efa614706565b5b602002015181600160028110612f1457612f13614706565b5b6020020151145b15612f715782600060028110612f3457612f33614706565b5b60200201518661010001818152505082600160028110612f5757612f56614706565b5b602002015186610120018181525050859350505050613328565b6000604051806040016040528084600060028110612f9257612f91614706565b5b602002015186600060028110612fab57612faa614706565b5b6020020151612fba9190614a8f565b815260200184600160028110612fd357612fd2614706565b5b602002015186600160028110612fec57612feb614706565b5b6020020151612ffb9190614a8f565b81525090506000604051806040016040528060008460006002811061302357613022614706565b5b60200201511361309d5760078760006002811061304357613042614706565b5b60200201518760006002811061305c5761305b614706565b5b602002015161306b91906147e0565b6130759190614bbd565b8560006002811061308957613088614706565b5b602002015161309891906147e0565b613109565b6007866000600281106130b3576130b2614706565b5b6020020151886000600281106130cc576130cb614706565b5b60200201516130db91906147e0565b6130e59190614bbd565b856000600281106130f9576130f8614706565b5b602002015161310891906147ac565b5b815260200160008460016002811061312457613123614706565b5b60200201511361319e5760078760016002811061314457613143614706565b5b60200201518760016002811061315d5761315c614706565b5b602002015161316c91906147e0565b6131769190614bbd565b8560016002811061318a57613189614706565b5b602002015161319991906147e0565b61320a565b6007866001600281106131b4576131b3614706565b5b6020020151886001600281106131cd576131cc614706565b5b60200201516131dc91906147e0565b6131e69190614bbd565b856001600281106131fa576131f9614706565b5b602002015161320991906147ac565b5b815250905060058703613284578460006002811061322b5761322a614706565b5b60200201518160006002811061324457613243614706565b5b6020020181815250508460016002811061326157613260614706565b5b60200201518160016002811061327a57613279614706565b5b6020020181815250505b6103e88160006002811061329b5761329a614706565b5b60200201511080156132c657506101f4816000600281106132bf576132be614706565b5b6020020151105b1561331257806000600281106132df576132de614706565b5b6020020151886101000181815250508060016002811061330257613301614706565b5b6020020151886101200181815250505b6133208c8c8c8c8c8c613687565b955050505050505b9695505050505050565b600080866101800151868151811061334d5761334c614706565b5b602002602001015190506000876101800151858151811061337157613370614706565b5b6020026020010151905060008160200151858151811061339457613393614706565b5b6020026020010151836020015188815181106133b3576133b2614706565b5b60200260200101511161340d57826020015187815181106133d7576133d6614706565b5b6020026020010151826020015186815181106133f6576133f5614706565b5b602002602001015161340891906147e0565b613456565b8160200151858151811061342457613423614706565b5b60200260200101518360200151888151811061344357613442614706565b5b602002602001015161345591906147e0565b5b905060008260400151868151811061347157613470614706565b5b6020026020010151846040015189815181106134905761348f614706565b5b6020026020010151116134ea57836040015188815181106134b4576134b3614706565b5b6020026020010151836040015187815181106134d3576134d2614706565b5b60200260200101516134e591906147e0565b613533565b8260400151868151811061350157613500614706565b5b6020026020010151846040015189815181106135205761351f614706565b5b602002602001015161353291906147e0565b5b90506002816135429190614d2e565b60028361354f9190614d2e565b61355991906147ac565b94505050505095945050505050565b60008060006001886101800151888151811061358757613586614706565b5b60200260200101516000015187815181106135a5576135a4614706565b5b60200260200101516020015189610180015189815181106135c9576135c8614706565b5b60200260200101516000015188815181106135e7576135e6614706565b5b6020026020010151602001516135fd91906147ac565b61360791906147ac565b90506000613613613751565b905081816136219190614d79565b896101800151898151811061363957613638614706565b5b602002602001015160000151888151811061365757613656614706565b5b60200260200101516020015110156136745787935086925061367b565b8593508492505b50509550959350505050565b61368f6138f5565b6000876040015160016136a291906147e0565b905060005b600a8110156137425760056136bd86848461375b565b1015613731576000806136db8b8c604001518d602001518787613568565b915091508a60400151821461372e576001876080019015159081151581525050838760a001818152505080876060018181525050898760000181815250508a602001518760200181815250505050613742565b50505b8061373b90614764565b90506136a7565b50839150509695505050505050565b6000610515905090565b600080846101800151848151811061377657613775614706565b5b6020026020010151905060008160200151848151811061379957613798614706565b5b6020026020010151866101000151116137e057856101000151826020015185815181106137c9576137c8614706565b5b60200260200101516137db91906147e0565b613810565b816020015184815181106137f7576137f6614706565b5b602002602001015186610100015161380f91906147e0565b5b905060008260400151858151811061382b5761382a614706565b5b602002602001015187610120015111613872578661012001518360400151868151811061385b5761385a614706565b5b602002602001015161386d91906147e0565b6138a2565b8260400151858151811061388957613888614706565b5b60200260200101518761012001516138a191906147e0565b5b90506002816138b19190614d2e565b6002836138be9190614d2e565b6138c891906147ac565b93505050509392505050565b60405180606001604052806000815260200160008152602001600081525090565b604051806101a00160405280600081526020016000815260200160008152602001600081526020016000151581526020016000815260200160001515815260200160008152602001600081526020016000815260200160001515815260200160008152602001606081525090565b60405180606001604052806060815260200160608152602001606081525090565b604051806101400160405280600a90602082028036833780820191505090505090565b6000819050919050565b6139ba816139a7565b82525050565b60006020820190506139d560008301846139b1565b92915050565b600080fd5b6139e9816139a7565b81146139f457600080fd5b50565b600081359050613a06816139e0565b92915050565b600080600060608486031215613a2557613a246139db565b5b6000613a33868287016139f7565b9350506020613a44868287016139f7565b9250506040613a55868287016139f7565b9150509250925092565b600081519050919050565b600082825260208201905092915050565b60005b83811015613a99578082015181840152602081019050613a7e565b60008484015250505050565b6000601f19601f8301169050919050565b6000613ac182613a5f565b613acb8185613a6a565b9350613adb818560208601613a7b565b613ae481613aa5565b840191505092915050565b60008115159050919050565b613b0481613aef565b82525050565b600060a0820190508181036000830152613b248188613ab6565b90508181036020830152613b388187613ab6565b9050613b476040830186613afb565b613b5460608301856139b1565b613b616080830184613afb565b9695505050505050565b600073ffffffffffffffffffffffffffffffffffffffff82169050919050565b6000613b9682613b6b565b9050919050565b613ba681613b8b565b8114613bb157600080fd5b50565b600081359050613bc381613b9d565b92915050565b60008060408385031215613be057613bdf6139db565b5b6000613bee85828601613bb4565b9250506020613bff85828601613bb4565b9150509250929050565b600060208284031215613c1f57613c1e6139db565b5b6000613c2d848285016139f7565b91505092915050565b600080600060608486031215613c4f57613c4e6139db565b5b6000613c5d868287016139f7565b9350506020613c6e86828701613bb4565b9250506040613c7f86828701613bb4565b9150509250925092565b60008060408385031215613ca057613c9f6139db565b5b6000613cae858286016139f7565b9250506020613cbf858286016139f7565b9150509250929050565b600081519050919050565b600082825260208201905092915050565b6000819050602082019050919050565b613cfe816139a7565b82525050565b613d0d81613aef565b82525050565b600081519050919050565b600082825260208201905092915050565b6000819050602082019050919050565b600081519050919050565b600082825260208201905092915050565b6000819050602082019050919050565b606082016000820151613d816000850182613cf5565b506020820151613d946020850182613cf5565b506040820151613da76040850182613cf5565b50505050565b6000613db98383613d6b565b60608301905092915050565b6000602082019050919050565b6000613ddd82613d3f565b613de78185613d4a565b9350613df283613d5b565b8060005b83811015613e23578151613e0a8882613dad565b9750613e1583613dc5565b925050600181019050613df6565b5085935050505092915050565b600081519050919050565b600082825260208201905092915050565b6000819050602082019050919050565b6000613e688383613cf5565b60208301905092915050565b6000602082019050919050565b6000613e8c82613e30565b613e968185613e3b565b9350613ea183613e4c565b8060005b83811015613ed2578151613eb98882613e5c565b9750613ec483613e74565b925050600181019050613ea5565b5085935050505092915050565b60006060830160008301518482036000860152613efc8282613dd2565b91505060208301518482036020860152613f168282613e81565b91505060408301518482036040860152613f308282613e81565b9150508091505092915050565b6000613f498383613edf565b905092915050565b6000602082019050919050565b6000613f6982613d13565b613f738185613d1e565b935083602082028501613f8585613d2f565b8060005b85811015613fc15784840389528151613fa28582613f3d565b9450613fad83613f51565b925060208a01995050600181019050613f89565b50829750879550505050505092915050565b60006101a083016000830151613fec6000860182613cf5565b506020830151613fff6020860182613cf5565b5060408301516140126040860182613cf5565b5060608301516140256060860182613cf5565b5060808301516140386080860182613d04565b5060a083015161404b60a0860182613cf5565b5060c083015161405e60c0860182613d04565b5060e083015161407160e0860182613cf5565b50610100830151614086610100860182613cf5565b5061012083015161409b610120860182613cf5565b506101408301516140b0610140860182613d04565b506101608301516140c5610160860182613cf5565b506101808301518482036101808601526140df8282613f5e565b9150508091505092915050565b60006140f88383613fd3565b905092915050565b6000602082019050919050565b600061411882613cc9565b6141228185613cd4565b93508360208202850161413485613ce5565b8060005b85811015614170578484038952815161415185826140ec565b945061415c83614100565b925060208a01995050600181019050614138565b50829750879550505050505092915050565b6000602082019050818103600083015261419c818461410d565b905092915050565b6141ad81613b8b565b82525050565b60006020820190506141c860008301846141a4565b92915050565b6000819050919050565b60006141f36141ee6141e984613b6b565b6141ce565b613b6b565b9050919050565b6000614205826141d8565b9050919050565b6000614217826141fa565b9050919050565b6142278161420c565b82525050565b6000602082019050614242600083018461421e565b92915050565b60008060008060808587031215614262576142616139db565b5b6000614270878288016139f7565b9450506020614281878288016139f7565b9350506040614292878288016139f7565b92505060606142a3878288016139f7565b91505092959194509250565b6000600a9050919050565b600081905092915050565b6000819050919050565b6000602082019050919050565b6142e5816142af565b6142ef81846142ba565b92506142fa826142c5565b8060005b8381101561432b5781516143128782613e5c565b965061431d836142cf565b9250506001810190506142fe565b505050505050565b60006101408201905061434960008301846142dc565b92915050565b7f4e487b7100000000000000000000000000000000000000000000000000000000600052602160045260246000fd5b600b811061438f5761438e61434f565b5b50565b60008190506143a08261437e565b919050565b60006143b082614392565b9050919050565b6143c0816143a5565b82525050565b60006060820190506143db60008301866139b1565b6143e860208301856143b7565b6143f560408301846139b1565b949350505050565b7f4e487b7100000000000000000000000000000000000000000000000000000000600052602260045260246000fd5b6000600282049050600182168061444457607f821691505b602082108103614457576144566143fd565b5b50919050565b600060408201905061447260008301856141a4565b61447f60208301846141a4565b9392505050565b600081905092915050565b600061449c82613a5f565b6144a68185614486565b93506144b6818560208601613a7b565b80840191505092915050565b60006144ce8284614491565b915081905092915050565b600082825260208201905092915050565b7f4552523a206372656174654d617463682044656c65676174652063616c6c206660008201527f61696c6564210000000000000000000000000000000000000000000000000000602082015250565b60006145466026836144d9565b9150614551826144ea565b604082019050919050565b6000602082019050818103600083015261457581614539565b9050919050565b7f4552523a2075706461746552657665616c496e666f2044656c6567617465206360008201527f616c6c206661696c656421000000000000000000000000000000000000000000602082015250565b60006145d8602b836144d9565b91506145e38261457c565b604082019050919050565b60006020820190508181036000830152614607816145cb565b9050919050565b600060608201905061462360008301866139b1565b61463060208301856141a4565b61463d60408301846141a4565b949350505050565b7f4552523a206a6f696e4d617463682044656c65676174652063616c6c2066616960008201527f6c65642100000000000000000000000000000000000000000000000000000000602082015250565b60006146a16024836144d9565b91506146ac82614645565b604082019050919050565b600060208201905081810360008301526146d081614694565b9050919050565b7f4e487b7100000000000000000000000000000000000000000000000000000000600052604160045260246000fd5b7f4e487b7100000000000000000000000000000000000000000000000000000000600052603260045260246000fd5b7f4e487b7100000000000000000000000000000000000000000000000000000000600052601160045260246000fd5b600061476f826139a7565b91507fffffffffffffffffffffffffffffffffffffffffffffffffffffffffffffffff82036147a1576147a0614735565b5b600182019050919050565b60006147b7826139a7565b91506147c2836139a7565b92508282019050808211156147da576147d9614735565b5b92915050565b60006147eb826139a7565b91506147f6836139a7565b925082820390508181111561480e5761480d614735565b5b92915050565b7f4552523a20636f6d6d69746d656e745469636b2044656c65676174652063616c60008201527f6c206661696c6564210000000000000000000000000000000000000000000000602082015250565b60006148706029836144d9565b915061487b82614814565b604082019050919050565b6000602082019050818103600083015261489f81614863565b9050919050565b7f4552523a20757064617465436f6d6d69746d656e74496e666f2044656c65676160008201527f74652063616c6c206661696c6564210000000000000000000000000000000000602082015250565b6000614902602f836144d9565b915061490d826148a6565b604082019050919050565b60006020820190508181036000830152614931816148f5565b9050919050565b7f4552523a204d61746368206e6f7420696e20636f72726563742073746167652060008201527f746f20706572666f726d20612053746174652075706461746521000000000000602082015250565b6000614994603a836144d9565b915061499f82614938565b604082019050919050565b600060208201905081810360008301526149c381614987565b9050919050565b60006040820190506149df60008301856139b1565b6149ec60208301846143b7565b9392505050565b7f4552523a2072657665616c5469636b2044656c65676174652063616c6c20666160008201527f696c656421000000000000000000000000000000000000000000000000000000602082015250565b6000614a4f6025836144d9565b9150614a5a826149f3565b604082019050919050565b60006020820190508181036000830152614a7e81614a42565b9050919050565b6000819050919050565b6000614a9a82614a85565b9150614aa583614a85565b9250828203905081811260008412168282136000851215161715614acc57614acb614735565b5b92915050565b6000614add82614a85565b9150614ae883614a85565b9250828202614af681614a85565b91507f80000000000000000000000000000000000000000000000000000000000000008414600084121615614b2e57614b2d614735565b5b8282058414831517614b4357614b42614735565b5b5092915050565b6000614b5582614a85565b9150614b6083614a85565b925082820190508281121560008312168382126000841215161715614b8857614b87614735565b5b92915050565b7f4e487b7100000000000000000000000000000000000000000000000000000000600052601260045260246000fd5b6000614bc8826139a7565b9150614bd3836139a7565b925082614be357614be2614b8e565b5b828204905092915050565b60008160011c9050919050565b6000808291508390505b6001851115614c4557808604811115614c2157614c20614735565b5b6001851615614c305780820291505b8081029050614c3e85614bee565b9450614c05565b94509492505050565b600082614c5e5760019050614d1a565b81614c6c5760009050614d1a565b8160018114614c825760028114614c8c57614cbb565b6001915050614d1a565b60ff841115614c9e57614c9d614735565b5b8360020a915084821115614cb557614cb4614735565b5b50614d1a565b5060208310610133831016604e8410600b8410161715614cf05782820a905083811115614ceb57614cea614735565b5b614d1a565b614cfd8484846001614bfb565b92509050818404811115614d1457614d13614735565b5b81810290505b9392505050565b600060ff82169050919050565b6000614d39826139a7565b9150614d4483614d21565b9250614d717fffffffffffffffffffffffffffffffffffffffffffffffffffffffffffffffff8484614c4e565b905092915050565b6000614d84826139a7565b9150614d8f836139a7565b925082614d9f57614d9e614b8e565b5b82820690509291505056fea264697066735822122092d2e330e8a7d88625274ce8f97d239ed05b9773c05b4f9d9cec686a5dce51c164736f6c63430008120033608060405234801561001057600080fd5b5061026d806100206000396000f3fe608060405234801561001057600080fd5b506004361061009e5760003560e01c8063705dd6cd11610066578063705dd6cd14610139578063734692a914610157578063ae5c135614610175578063c8067b6f14610193578063e3c8bfb9146101b15761009e565b8063124a96c8146100a357806339febf0c146100c157806345baee55146100df57806349bbc37a146100fd5780634ffdf11e1461011b575b600080fd5b6100ab6101cf565b6040516100b8919061021c565b60405180910390f35b6100c96101d5565b6040516100d6919061021c565b60405180910390f35b6100e76101da565b6040516100f4919061021c565b60405180910390f35b6101056101df565b604051610112919061021c565b60405180910390f35b6101236101e5565b604051610130919061021c565b60405180910390f35b6101416101ea565b60405161014e919061021c565b60405180910390f35b61015f6101ef565b60405161016c919061021c565b60405180910390f35b61017d6101f4565b60405161018a919061021c565b60405180910390f35b61019b6101f9565b6040516101a8919061021c565b60405180910390f35b6101b96101fe565b6040516101c6919061021c565b60405180910390f35b6101f481565b600581565b600781565b6103e881565b600681565b600a81565b600781565b600a81565b600581565b600281565b6000819050919050565b61021681610203565b82525050565b6000602082019050610231600083018461020d565b9291505056fea264697066735822122001d9d86b524b072c82851d2da1af568601b991b53f790e36a726e5478a595e9964736f6c6343000812003360806040523480156200001157600080fd5b5060405162003de238038062003de2833981810160405281019062000037919062000162565b6040516200004590620000ea565b604051809103906000f08015801562000062573d6000803e3d6000fd5b506000806101000a81548173ffffffffffffffffffffffffffffffffffffffff021916908373ffffffffffffffffffffffffffffffffffffffff16021790555080600160006101000a81548173ffffffffffffffffffffffffffffffffffffffff021916908373ffffffffffffffffffffffffffffffffffffffff1602179055505062000194565b61028d8062003b5583390190565b600080fd5b600073ffffffffffffffffffffffffffffffffffffffff82169050919050565b60006200012a82620000fd565b9050919050565b6200013c816200011d565b81146200014857600080fd5b50565b6000815190506200015c8162000131565b92915050565b6000602082840312156200017b576200017a620000f8565b5b60006200018b848285016200014b565b91505092915050565b6139b180620001a46000396000f3fe608060405234801561001057600080fd5b50600436106101585760003560e01c8063705dd6cd116100c3578063ae5c13561161007c578063ae5c1356146103a9578063c8067b6f146103c7578063d79b490e146103e5578063d7dfa0dd14610417578063e3c8bfb914610435578063f97810331461045357610158565b8063705dd6cd146102e557806372de5b2f14610303578063734692a914610321578063755f10fd1461033f5780638ba47bdd1461036f57806390ede5d51461038d57610158565b806337c747791161011557806337c747791461022157806339febf0c1461025157806345baee551461026f57806349bbc37a1461028d5780634ffdf11e146102ab5780635cd6925a146102c957610158565b806301fd19511461015d578063124a96c81461017b5780631b7d40a5146101995780631e20530a146101cd57806327764f7d146101e957806335868ab714610205575b600080fd5b61016561046f565b60405161017291906127c5565b60405180910390f35b610183610475565b60405161019091906127c5565b60405180910390f35b6101b360048036038101906101ae9190612820565b61047b565b6040516101c495949392919061291e565b60405180910390f35b6101e760048036038101906101e291906129dd565b610605565b005b61020360048036038101906101fe9190612a1d565b610785565b005b61021f600480360381019061021a9190612a4a565b610b93565b005b61023b60048036038101906102369190612a1d565b610d7c565b60405161024891906127c5565b60405180910390f35b610259610d94565b60405161026691906127c5565b60405180910390f35b610277610d99565b60405161028491906127c5565b60405180910390f35b610295610d9e565b6040516102a291906127c5565b60405180910390f35b6102b3610da4565b6040516102c091906127c5565b60405180910390f35b6102e360048036038101906102de9190612a1d565b610da9565b005b6102ed6110c6565b6040516102fa91906127c5565b60405180910390f35b61030b6110cb565b6040516103189190612afc565b60405180910390f35b6103296110ef565b60405161033691906127c5565b60405180910390f35b61035960048036038101906103549190612a1d565b6110f4565b60405161036691906127c5565b60405180910390f35b61037761110c565b6040516103849190612b26565b60405180910390f35b6103a760048036038101906103a29190612a1d565b611132565b005b6103b1611540565b6040516103be91906127c5565b60405180910390f35b6103cf611545565b6040516103dc91906127c5565b60405180910390f35b6103ff60048036038101906103fa9190612a1d565b61154a565b60405161040e93929190612bb8565b60405180910390f35b61041f611581565b60405161042c9190612b26565b60405180910390f35b61043d6115a7565b60405161044a91906127c5565b60405180910390f35b61046d60048036038101906104689190612a1d565b6115ac565b005b60035481565b6101f481565b600960205282600052604060002060205281600052604060002081815481106104a357600080fd5b906000526020600020906007020160009250925050508060000180546104c890612c1e565b80601f01602080910402602001604051908101604052809291908181526020018280546104f490612c1e565b80156105415780601f1061051657610100808354040283529160200191610541565b820191906000526020600020905b81548152906001019060200180831161052457829003601f168201915b50505050509080600101805461055690612c1e565b80601f016020809104026020016040519081016040528092919081815260200182805461058290612c1e565b80156105cf5780601f106105a4576101008083540402835291602001916105cf565b820191906000526020600020905b8154815290600101906020018083116105b257829003601f168201915b5050505050908060040160009054906101000a900460ff16908060050154908060060160009054906101000a900460ff16905085565b60006003549050610617816000611801565b600060046000838152602001908152602001600020905060018160030160006101000a81548160ff0219169083600a81111561065657610655612b41565b5b0217905550838160010160008154811061067357610672612c4f565b5b9060005260206000200160006101000a81548173ffffffffffffffffffffffffffffffffffffffff021916908373ffffffffffffffffffffffffffffffffffffffff16021790555082816002016000815481106106d3576106d2612c4f565b5b9060005260206000200160006101000a81548173ffffffffffffffffffffffffffffffffffffffff021916908373ffffffffffffffffffffffffffffffffffffffff16021790555060016003600082825461072e9190612cad565b925050819055507f58d4562cf15d1052e816fd24f6af2c8a3a21416d6e4c01a9e11ef84ffe537e25828260030160009054906101000a900460ff16604051610777929190612ce1565b60405180910390a150505050565b60006004600083815260200190815260200160002090506007600a8111156107b0576107af612b41565b5b8160030160009054906101000a900460ff16600a8111156107d4576107d3612b41565b5b14610814576040517f08c379a000000000000000000000000000000000000000000000000000000000815260040161080b90612d8d565b60405180910390fd5b60005b60008054906101000a900473ffffffffffffffffffffffffffffffffffffffff1673ffffffffffffffffffffffffffffffffffffffff1663e3c8bfb96040518163ffffffff1660e01b8152600401602060405180830381865afa158015610882573d6000803e3d6000fd5b505050506040513d601f19601f820116820180604052508101906108a69190612dc2565b8110156109ac578160020181815481106108c3576108c2612c4f565b5b9060005260206000200160009054906101000a900473ffffffffffffffffffffffffffffffffffffffff1673ffffffffffffffffffffffffffffffffffffffff1663cce710636040518163ffffffff1660e01b8152600401602060405180830381865afa158015610938573d6000803e3d6000fd5b505050506040513d601f19601f8201168201806040525081019061095c9190612e1b565b61099b576040517f08c379a000000000000000000000000000000000000000000000000000000000815260040161099290612eba565b60405180910390fd5b806109a590612eda565b9050610817565b5060005b60008054906101000a900473ffffffffffffffffffffffffffffffffffffffff1673ffffffffffffffffffffffffffffffffffffffff1663e3c8bfb96040518163ffffffff1660e01b8152600401602060405180830381865afa158015610a1b573d6000803e3d6000fd5b505050506040513d601f19601f82011682018060405250810190610a3f9190612dc2565b811015610b1757610b068382846002018481548110610a6157610a60612c4f565b5b9060005260206000200160009054906101000a900473ffffffffffffffffffffffffffffffffffffffff1673ffffffffffffffffffffffffffffffffffffffff16632f703e086040518163ffffffff1660e01b81526004016000604051808303816000875af1158015610ad8573d6000803e3d6000fd5b505050506040513d6000823e3d601f19601f82011682018060405250810190610b019190613048565b611d4f565b80610b1090612eda565b90506109b0565b5060088160030160006101000a81548160ff0219169083600a811115610b4057610b3f612b41565b5b02179055507f58d4562cf15d1052e816fd24f6af2c8a3a21416d6e4c01a9e11ef84ffe537e25828260030160009054906101000a900460ff16604051610b87929190612ce1565b60405180910390a15050565b60006004600085815260200190815260200160002090506001600a811115610bbe57610bbd612b41565b5b8160030160009054906101000a900460ff16600a811115610be257610be1612b41565b5b14610c22576040517f08c379a0000000000000000000000000000000000000000000000000000000008152600401610c1990613103565b60405180910390fd5b8281600101600181548110610c3a57610c39612c4f565b5b9060005260206000200160006101000a81548173ffffffffffffffffffffffffffffffffffffffff021916908373ffffffffffffffffffffffffffffffffffffffff1602179055508181600201600181548110610c9a57610c99612c4f565b5b9060005260206000200160006101000a81548173ffffffffffffffffffffffffffffffffffffffff021916908373ffffffffffffffffffffffffffffffffffffffff16021790555060028160030160006101000a81548160ff0219169083600a811115610d0a57610d09612b41565b5b0217905550610d18846124be565b610d2c610515670adbf78816ee7165612577565b7f58d4562cf15d1052e816fd24f6af2c8a3a21416d6e4c01a9e11ef84ffe537e25848260030160009054906101000a900460ff16604051610d6e929190612ce1565b60405180910390a150505050565b60056020528060005260406000206000915090505481565b600581565b600781565b6103e881565b600681565b6000600460008381526020019081526020016000209050610dfe6040518060400160405280601781526020017f636f6d6d69746d656e745469636b202d2063616c6c6564000000000000000000815250612677565b6004600a811115610e1257610e11612b41565b5b8160030160009054906101000a900460ff16600a811115610e3657610e35612b41565b5b1480610e7757506009600a811115610e5157610e50612b41565b5b8160030160009054906101000a900460ff16600a811115610e7557610e74612b41565b5b145b610eb6576040517f08c379a0000000000000000000000000000000000000000000000000000000008152600401610ead90613195565b60405180910390fd5b610edf8260016006600086815260200190815260200160002054610eda9190612cad565b611801565b610f0060405180606001604052806029815260200161395360299139612677565b60005b60008054906101000a900473ffffffffffffffffffffffffffffffffffffffff1673ffffffffffffffffffffffffffffffffffffffff1663e3c8bfb96040518163ffffffff1660e01b8152600401602060405180830381865afa158015610f6e573d6000803e3d6000fd5b505050506040513d601f19601f82011682018060405250810190610f929190612dc2565b81101561104a57816001018181548110610faf57610fae612c4f565b5b9060005260206000200160009054906101000a900473ffffffffffffffffffffffffffffffffffffffff1673ffffffffffffffffffffffffffffffffffffffff1663606deecd6040518163ffffffff1660e01b8152600401600060405180830381600087803b15801561102157600080fd5b505af1158015611035573d6000803e3d6000fd5b505050508061104390612eda565b9050610f03565b5060058160030160006101000a81548160ff0219169083600a81111561107357611072612b41565b5b02179055507f58d4562cf15d1052e816fd24f6af2c8a3a21416d6e4c01a9e11ef84ffe537e25828260030160009054906101000a900460ff166040516110ba929190612ce1565b60405180910390a15050565b600a81565b60008054906101000a900473ffffffffffffffffffffffffffffffffffffffff1681565b600781565b60066020528060005260406000206000915090505481565b600260009054906101000a900473ffffffffffffffffffffffffffffffffffffffff1681565b60006004600083815260200190815260200160002090506005600a81111561115d5761115c612b41565b5b8160030160009054906101000a900460ff16600a81111561118157611180612b41565b5b146111c1576040517f08c379a00000000000000000000000000000000000000000000000000000000081526004016111b890613227565b60405180910390fd5b60005b60008054906101000a900473ffffffffffffffffffffffffffffffffffffffff1673ffffffffffffffffffffffffffffffffffffffff1663e3c8bfb96040518163ffffffff1660e01b8152600401602060405180830381865afa15801561122f573d6000803e3d6000fd5b505050506040513d601f19601f820116820180604052508101906112539190612dc2565b811015611359578160010181815481106112705761126f612c4f565b5b9060005260206000200160009054906101000a900473ffffffffffffffffffffffffffffffffffffffff1673ffffffffffffffffffffffffffffffffffffffff1663cce710636040518163ffffffff1660e01b8152600401602060405180830381865afa1580156112e5573d6000803e3d6000fd5b505050506040513d601f19601f820116820180604052508101906113099190612e1b565b611348576040517f08c379a000000000000000000000000000000000000000000000000000000000815260040161133f90612eba565b60405180910390fd5b8061135290612eda565b90506111c4565b5060005b60008054906101000a900473ffffffffffffffffffffffffffffffffffffffff1673ffffffffffffffffffffffffffffffffffffffff1663e3c8bfb96040518163ffffffff1660e01b8152600401602060405180830381865afa1580156113c8573d6000803e3d6000fd5b505050506040513d601f19601f820116820180604052508101906113ec9190612dc2565b8110156114c4576114b3838284600101848154811061140e5761140d612c4f565b5b9060005260206000200160009054906101000a900473ffffffffffffffffffffffffffffffffffffffff1673ffffffffffffffffffffffffffffffffffffffff16632f703e086040518163ffffffff1660e01b81526004016000604051808303816000875af1158015611485573d6000803e3d6000fd5b505050506040513d6000823e3d601f19601f820116820180604052508101906114ae9190613048565b612710565b806114bd90612eda565b905061135d565b5060068160030160006101000a81548160ff0219169083600a8111156114ed576114ec612b41565b5b02179055507f58d4562cf15d1052e816fd24f6af2c8a3a21416d6e4c01a9e11ef84ffe537e25828260030160009054906101000a900460ff16604051611534929190612ce1565b60405180910390a15050565b600a81565b600581565b60046020528060005260406000206000915090508060000154908060030160009054906101000a900460ff16908060040154905083565b600160009054906101000a900473ffffffffffffffffffffffffffffffffffffffff1681565b600281565b60006004600083815260200190815260200160002090506006600a8111156115d7576115d6612b41565b5b8160030160009054906101000a900460ff16600a8111156115fb576115fa612b41565b5b1461163b576040517f08c379a0000000000000000000000000000000000000000000000000000000008152600401611632906132b9565b60405180910390fd5b60005b60008054906101000a900473ffffffffffffffffffffffffffffffffffffffff1673ffffffffffffffffffffffffffffffffffffffff1663e3c8bfb96040518163ffffffff1660e01b8152600401602060405180830381865afa1580156116a9573d6000803e3d6000fd5b505050506040513d601f19601f820116820180604052508101906116cd9190612dc2565b811015611785578160020181815481106116ea576116e9612c4f565b5b9060005260206000200160009054906101000a900473ffffffffffffffffffffffffffffffffffffffff1673ffffffffffffffffffffffffffffffffffffffff1663606deecd6040518163ffffffff1660e01b8152600401600060405180830381600087803b15801561175c57600080fd5b505af1158015611770573d6000803e3d6000fd5b505050508061177e90612eda565b905061163e565b5060078160030160006101000a81548160ff0219169083600a8111156117ae576117ad612b41565b5b02179055507f58d4562cf15d1052e816fd24f6af2c8a3a21416d6e4c01a9e11ef84ffe537e25828260030160009054906101000a900460ff166040516117f5929190612ce1565b60405180910390a15050565b6000810361192d5760005b60008054906101000a900473ffffffffffffffffffffffffffffffffffffffff1673ffffffffffffffffffffffffffffffffffffffff1663e3c8bfb96040518163ffffffff1660e01b8152600401602060405180830381865afa158015611877573d6000803e3d6000fd5b505050506040513d601f19601f8201168201806040525081019061189b9190612dc2565b81101561192b5760046000848152602001908152602001600020600101600181600181540180825580915050039060005260206000200160009054906101000a90505060046000848152602001908152602001600020600201600181600181540180825580915050039060005260206000200160009054906101000a9050508061192490612eda565b905061180c565b505b60006007600084815260200190815260200160002060008381526020019081526020016000209050600060086000858152602001908152602001600020600084815260200190815260200160002090506000600960008681526020019081526020016000206000858152602001908152602001600020905060005b60008054906101000a900473ffffffffffffffffffffffffffffffffffffffff1673ffffffffffffffffffffffffffffffffffffffff1663e3c8bfb96040518163ffffffff1660e01b8152600401602060405180830381865afa158015611a13573d6000803e3d6000fd5b505050506040513d601f19601f82011682018060405250810190611a379190612dc2565b811015611d47578360000160009080600181540180825580915050600190039060005260206000200160009091909190915055826001816001815401808255809150500390600052602060002090505060005b60008054906101000a900473ffffffffffffffffffffffffffffffffffffffff1673ffffffffffffffffffffffffffffffffffffffff1663ae5c13566040518163ffffffff1660e01b8152600401602060405180830381865afa158015611af5573d6000803e3d6000fd5b505050506040513d601f19601f82011682018060405250810190611b199190612dc2565b811015611bef57838281548110611b3357611b32612c4f565b5b906000526020600020906003020160000160018160018154018082558091505003906000526020600020905050838281548110611b7357611b72612c4f565b5b9060005260206000209060030201600101600181600181540180825580915050039060005260206000205050838281548110611bb257611bb1612c4f565b5b906000526020600020906003020160020160018160018154018082558091505003906000526020600020505080611be890612eda565b9050611a8a565b50816001816001815401808255809150500390600052602060002090505060005b60008054906101000a900473ffffffffffffffffffffffffffffffffffffffff1673ffffffffffffffffffffffffffffffffffffffff1663ae5c13566040518163ffffffff1660e01b8152600401602060405180830381865afa158015611c7b573d6000803e3d6000fd5b505050506040513d601f19601f82011682018060405250810190611c9f9190612dc2565b811015611d3557828281548110611cb957611cb8612c4f565b5b9060005260206000209060070201600201600181600181540180825580915050039060005260206000205050828281548110611cf857611cf7612c4f565b5b906000526020600020906007020160030160018160018154018082558091505003906000526020600020505080611d2e90612eda565b9050611c10565b5080611d4090612eda565b90506119a8565b505050505050565b6000600960008581526020019081526020016000206000600660008781526020019081526020016000205481526020019081526020016000208381548110611d9a57611d99612c4f565b5b9060005260206000209060070201905060008280519060200120604051602001611dc491906132f2565b604051602081830303815290604052905081600001604051611de691906133b0565b6040518091039020818051906020012014611e36576040517f08c379a0000000000000000000000000000000000000000000000000000000008152600401611e2d90613439565b60405180910390fd5b82826001019081611e4791906135e6565b5060008084806020019051810190611e5f91906136b8565b9150915060008060009054906101000a900473ffffffffffffffffffffffffffffffffffffffff1673ffffffffffffffffffffffffffffffffffffffff166345baee556040518163ffffffff1660e01b8152600401602060405180830381865afa158015611ed1573d6000803e3d6000fd5b505050506040513d601f19601f82011682018060405250810190611ef59190612dc2565b60008054906101000a900473ffffffffffffffffffffffffffffffffffffffff1673ffffffffffffffffffffffffffffffffffffffff16634ffdf11e6040518163ffffffff1660e01b8152600401602060405180830381865afa158015611f60573d6000803e3d6000fd5b505050506040513d601f19601f82011682018060405250810190611f849190612dc2565b611f8e9190612cad565b905060005b60008054906101000a900473ffffffffffffffffffffffffffffffffffffffff1673ffffffffffffffffffffffffffffffffffffffff1663ae5c13566040518163ffffffff1660e01b8152600401602060405180830381865afa158015611ffe573d6000803e3d6000fd5b505050506040513d601f19601f820116820180604052508101906120229190612dc2565b811015612279576000828261203791906136f8565b84901c9050600160008054906101000a900473ffffffffffffffffffffffffffffffffffffffff1673ffffffffffffffffffffffffffffffffffffffff16634ffdf11e6040518163ffffffff1660e01b8152600401602060405180830381865afa1580156120a9573d6000803e3d6000fd5b505050506040513d601f19601f820116820180604052508101906120cd9190612dc2565b60026120d9919061386d565b6120e391906138b8565b60008054906101000a900473ffffffffffffffffffffffffffffffffffffffff1673ffffffffffffffffffffffffffffffffffffffff166345baee556040518163ffffffff1660e01b8152600401602060405180830381865afa15801561214e573d6000803e3d6000fd5b505050506040513d601f19601f820116820180604052508101906121729190612dc2565b82901c1687600201838154811061218c5761218b612c4f565b5b9060005260206000200181905550600160008054906101000a900473ffffffffffffffffffffffffffffffffffffffff1673ffffffffffffffffffffffffffffffffffffffff166345baee556040518163ffffffff1660e01b8152600401602060405180830381865afa158015612207573d6000803e3d6000fd5b505050506040513d601f19601f8201168201806040525081019061222b9190612dc2565b6002612237919061386d565b61224191906138b8565b811687600301838154811061225957612258612c4f565b5b9060005260206000200181905550508061227290612eda565b9050611f93565b5060018060008054906101000a900473ffffffffffffffffffffffffffffffffffffffff1673ffffffffffffffffffffffffffffffffffffffff1663ae5c13566040518163ffffffff1660e01b8152600401602060405180830381865afa1580156122e8573d6000803e3d6000fd5b505050506040513d601f19601f8201168201806040525081019061230c9190612dc2565b8361231791906136f8565b84901c16148560060160006101000a81548160ff021916908315150217905550600180600160008054906101000a900473ffffffffffffffffffffffffffffffffffffffff1673ffffffffffffffffffffffffffffffffffffffff1663ae5c13566040518163ffffffff1660e01b8152600401602060405180830381865afa1580156123a7573d6000803e3d6000fd5b505050506040513d601f19601f820116820180604052508101906123cb9190612dc2565b846123d691906136f8565b6123e09190612cad565b84901c16148560040160006101000a81548160ff021916908315150217905550600f600260008054906101000a900473ffffffffffffffffffffffffffffffffffffffff1673ffffffffffffffffffffffffffffffffffffffff1663ae5c13566040518163ffffffff1660e01b8152600401602060405180830381865afa15801561246f573d6000803e3d6000fd5b505050506040513d601f19601f820116820180604052508101906124939190612dc2565b8361249e91906136f8565b6124a89190612cad565b83901c1685600501819055505050505050505050565b600060046000838152602001908152602001600020905081600560006105158152602001908152602001600020819055506003600a81111561250357612502612b41565b5b8160030160009054906101000a900460ff16600a81111561252757612526612b41565b5b50507f58d4562cf15d1052e816fd24f6af2c8a3a21416d6e4c01a9e11ef84ffe537e25828260030160009054906101000a900460ff1660405161256b929190612ce1565b60405180910390a15050565b60006004600060056000868152602001908152602001600020548152602001908152602001600020905081816000018190555060048160030160006101000a81548160ff0219169083600a8111156125d2576125d1612b41565b5b02179055506126156040518060400160405280601b81526020017f66756c6c66696c5365656452657175657374202d2063616c6c65640000000000815250612677565b7f58d4562cf15d1052e816fd24f6af2c8a3a21416d6e4c01a9e11ef84ffe537e2560056000858152602001908152602001600020548260030160009054906101000a900460ff1660405161266a929190612ce1565b60405180910390a1505050565b61270d8160405160240161268b9190613930565b6040516020818303038152906040527f41304fac000000000000000000000000000000000000000000000000000000007bffffffffffffffffffffffffffffffffffffffffffffffffffffffff19166020820180517bffffffffffffffffffffffffffffffffffffffffffffffffffffffff8381831617835250505050612783565b50565b600060096000858152602001908152602001600020600060066000878152602001908152602001600020548152602001908152602001600020838154811061275b5761275a612c4f565b5b906000526020600020906007020190508181600001908161277c91906135e6565b5050505050565b60008151905060006a636f6e736f6c652e6c6f679050602083016000808483855afa5050505050565b6000819050919050565b6127bf816127ac565b82525050565b60006020820190506127da60008301846127b6565b92915050565b6000604051905090565b600080fd5b600080fd5b6127fd816127ac565b811461280857600080fd5b50565b60008135905061281a816127f4565b92915050565b600080600060608486031215612839576128386127ea565b5b60006128478682870161280b565b93505060206128588682870161280b565b92505060406128698682870161280b565b9150509250925092565b600081519050919050565b600082825260208201905092915050565b60005b838110156128ad578082015181840152602081019050612892565b60008484015250505050565b6000601f19601f8301169050919050565b60006128d582612873565b6128df818561287e565b93506128ef81856020860161288f565b6128f8816128b9565b840191505092915050565b60008115159050919050565b61291881612903565b82525050565b600060a082019050818103600083015261293881886128ca565b9050818103602083015261294c81876128ca565b905061295b604083018661290f565b61296860608301856127b6565b612975608083018461290f565b9695505050505050565b600073ffffffffffffffffffffffffffffffffffffffff82169050919050565b60006129aa8261297f565b9050919050565b6129ba8161299f565b81146129c557600080fd5b50565b6000813590506129d7816129b1565b92915050565b600080604083850312156129f4576129f36127ea565b5b6000612a02858286016129c8565b9250506020612a13858286016129c8565b9150509250929050565b600060208284031215612a3357612a326127ea565b5b6000612a418482850161280b565b91505092915050565b600080600060608486031215612a6357612a626127ea565b5b6000612a718682870161280b565b9350506020612a82868287016129c8565b9250506040612a93868287016129c8565b9150509250925092565b6000819050919050565b6000612ac2612abd612ab88461297f565b612a9d565b61297f565b9050919050565b6000612ad482612aa7565b9050919050565b6000612ae682612ac9565b9050919050565b612af681612adb565b82525050565b6000602082019050612b116000830184612aed565b92915050565b612b208161299f565b82525050565b6000602082019050612b3b6000830184612b17565b92915050565b7f4e487b7100000000000000000000000000000000000000000000000000000000600052602160045260246000fd5b600b8110612b8157612b80612b41565b5b50565b6000819050612b9282612b70565b919050565b6000612ba282612b84565b9050919050565b612bb281612b97565b82525050565b6000606082019050612bcd60008301866127b6565b612bda6020830185612ba9565b612be760408301846127b6565b949350505050565b7f4e487b7100000000000000000000000000000000000000000000000000000000600052602260045260246000fd5b60006002820490506001821680612c3657607f821691505b602082108103612c4957612c48612bef565b5b50919050565b7f4e487b7100000000000000000000000000000000000000000000000000000000600052603260045260246000fd5b7f4e487b7100000000000000000000000000000000000000000000000000000000600052601160045260246000fd5b6000612cb8826127ac565b9150612cc3836127ac565b9250828201905080821115612cdb57612cda612c7e565b5b92915050565b6000604082019050612cf660008301856127b6565b612d036020830184612ba9565b9392505050565b600082825260208201905092915050565b7f4552523a204d61746368206e6f7420696e20636f72726563742073746167652060008201527f746f20726563656976652052657665616c732100000000000000000000000000602082015250565b6000612d77603383612d0a565b9150612d8282612d1b565b604082019050919050565b60006020820190508181036000830152612da681612d6a565b9050919050565b600081519050612dbc816127f4565b92915050565b600060208284031215612dd857612dd76127ea565b5b6000612de684828501612dad565b91505092915050565b612df881612903565b8114612e0357600080fd5b50565b600081519050612e1581612def565b92915050565b600060208284031215612e3157612e306127ea565b5b6000612e3f84828501612e06565b91505092915050565b7f4552523a204e6f7420616c6c207465616d73206861766520697373756564206360008201527f6f6d6d69746d656e747321000000000000000000000000000000000000000000602082015250565b6000612ea4602b83612d0a565b9150612eaf82612e48565b604082019050919050565b60006020820190508181036000830152612ed381612e97565b9050919050565b6000612ee5826127ac565b91507fffffffffffffffffffffffffffffffffffffffffffffffffffffffffffffffff8203612f1757612f16612c7e565b5b600182019050919050565b600080fd5b600080fd5b7f4e487b7100000000000000000000000000000000000000000000000000000000600052604160045260246000fd5b612f64826128b9565b810181811067ffffffffffffffff82111715612f8357612f82612f2c565b5b80604052505050565b6000612f966127e0565b9050612fa28282612f5b565b919050565b600067ffffffffffffffff821115612fc257612fc1612f2c565b5b612fcb826128b9565b9050602081019050919050565b6000612feb612fe684612fa7565b612f8c565b90508281526020810184848401111561300757613006612f27565b5b61301284828561288f565b509392505050565b600082601f83011261302f5761302e612f22565b5b815161303f848260208601612fd8565b91505092915050565b60006020828403121561305e5761305d6127ea565b5b600082015167ffffffffffffffff81111561307c5761307b6127ef565b5b6130888482850161301a565b91505092915050565b7f4552523a20596f752063616e206f6e6c79206a6f696e2061206e65776c79206360008201527f726561746564206d617463682100000000000000000000000000000000000000602082015250565b60006130ed602d83612d0a565b91506130f882613091565b604082019050919050565b6000602082019050818103600083015261311c816130e0565b9050919050565b7f4552523a204d61746368206e6f7420696e20636f72726563742073746167652060008201527f746f20666574636820436f6d6d69746d656e7473210000000000000000000000602082015250565b600061317f603583612d0a565b915061318a82613123565b604082019050919050565b600060208201905081810360008301526131ae81613172565b9050919050565b7f4552523a204d61746368206e6f7420696e20636f72726563742073746167652060008201527f746f207265636569766520436f6d6d69746d656e747321000000000000000000602082015250565b6000613211603783612d0a565b915061321c826131b5565b604082019050919050565b6000602082019050818103600083015261324081613204565b9050919050565b7f4552523a204d61746368206e6f7420696e20636f72726563742073746167652060008201527f746f206665746368205265617665616c73210000000000000000000000000000602082015250565b60006132a3603283612d0a565b91506132ae82613247565b604082019050919050565b600060208201905081810360008301526132d281613296565b9050919050565b6000819050919050565b6132ec816132d9565b82525050565b600060208201905061330760008301846132e3565b92915050565b600081905092915050565b60008190508160005260206000209050919050565b6000815461333a81612c1e565b613344818661330d565b9450600182166000811461335f5760018114613374576133a7565b60ff19831686528115158202860193506133a7565b61337d85613318565b60005b8381101561339f57815481890152600182019150602081019050613380565b838801955050505b50505092915050565b60006133bc828461332d565b915081905092915050565b7f4552523a2052657665616c20646f65736e277420636f72726573706f6e64207460008201527f6f2074686520436f6d6d69746d656e7400000000000000000000000000000000602082015250565b6000613423603083612d0a565b915061342e826133c7565b604082019050919050565b6000602082019050818103600083015261345281613416565b9050919050565b60006020601f8301049050919050565b600082821b905092915050565b6000600883026134a67fffffffffffffffffffffffffffffffffffffffffffffffffffffffffffffffff82613469565b6134b08683613469565b95508019841693508086168417925050509392505050565b60006134e36134de6134d9846127ac565b612a9d565b6127ac565b9050919050565b6000819050919050565b6134fd836134c8565b613511613509826134ea565b848454613476565b825550505050565b600090565b613526613519565b6135318184846134f4565b505050565b5b818110156135555761354a60008261351e565b600181019050613537565b5050565b601f82111561359a5761356b81613318565b61357484613459565b81016020851015613583578190505b61359761358f85613459565b830182613536565b50505b505050565b600082821c905092915050565b60006135bd6000198460080261359f565b1980831691505092915050565b60006135d683836135ac565b9150826002028217905092915050565b6135ef82612873565b67ffffffffffffffff81111561360857613607612f2c565b5b6136128254612c1e565b61361d828285613559565b600060209050601f831160018114613650576000841561363e578287015190505b61364885826135ca565b8655506136b0565b601f19841661365e86613318565b60005b8281101561368657848901518255600182019150602085019450602081019050613661565b868310156136a3578489015161369f601f8916826135ac565b8355505b6001600288020188555050505b505050505050565b600080604083850312156136cf576136ce6127ea565b5b60006136dd85828601612dad565b92505060206136ee85828601612dad565b9150509250929050565b6000613703826127ac565b915061370e836127ac565b925082820261371c816127ac565b9150828204841483151761373357613732612c7e565b5b5092915050565b60008160011c9050919050565b6000808291508390505b60018511156137915780860481111561376d5761376c612c7e565b5b600185161561377c5780820291505b808102905061378a8561373a565b9450613751565b94509492505050565b6000826137aa5760019050613866565b816137b85760009050613866565b81600181146137ce57600281146137d857613807565b6001915050613866565b60ff8411156137ea576137e9612c7e565b5b8360020a91508482111561380157613800612c7e565b5b50613866565b5060208310610133831016604e8410600b841016171561383c5782820a90508381111561383757613836612c7e565b5b613866565b6138498484846001613747565b925090508184048111156138605761385f612c7e565b5b81810290505b9392505050565b6000613878826127ac565b9150613883836127ac565b92506138b07fffffffffffffffffffffffffffffffffffffffffffffffffffffffffffffffff848461379a565b905092915050565b60006138c3826127ac565b91506138ce836127ac565b92508282039050818111156138e6576138e5612c7e565b5b92915050565b600081519050919050565b6000613902826138ec565b61390c8185612d0a565b935061391c81856020860161288f565b613925816128b9565b840191505092915050565b6000602082019050818103600083015261394a81846138f7565b90509291505056fe636f6d6d69746d656e745469636b43616c6c6564202d2070617373656420726571756972656d656e74a264697066735822122003a1ba659b25402a4354284623bfa9ccc9b92645d9ddb3d9f15afa9fdb5d17a464736f6c63430008120033608060405234801561001057600080fd5b5061026d806100206000396000f3fe608060405234801561001057600080fd5b506004361061009e5760003560e01c8063705dd6cd11610066578063705dd6cd14610139578063734692a914610157578063ae5c135614610175578063c8067b6f14610193578063e3c8bfb9146101b15761009e565b8063124a96c8146100a357806339febf0c146100c157806345baee55146100df57806349bbc37a146100fd5780634ffdf11e1461011b575b600080fd5b6100ab6101cf565b6040516100b8919061021c565b60405180910390f35b6100c96101d5565b6040516100d6919061021c565b60405180910390f35b6100e76101da565b6040516100f4919061021c565b60405180910390f35b6101056101df565b604051610112919061021c565b60405180910390f35b6101236101e5565b604051610130919061021c565b60405180910390f35b6101416101ea565b60405161014e919061021c565b60405180910390f35b61015f6101ef565b60405161016c919061021c565b60405180910390f35b61017d6101f4565b60405161018a919061021c565b60405180910390f35b61019b6101f9565b6040516101a8919061021c565b60405180910390f35b6101b96101fe565b6040516101c6919061021c565b60405180910390f35b6101f481565b600581565b600781565b6103e881565b600681565b600a81565b600781565b600a81565b600581565b600281565b6000819050919050565b61021681610203565b82525050565b6000602082019050610231600083018461020d565b9291505056fea264697066735822122001d9d86b524b072c82851d2da1af568601b991b53f790e36a726e5478a595e9964736f6c63430008120033","opcodes":"PUSH1 0x80 PUSH1 0x40 MSTORE CALLVALUE DUP1 ISZERO PUSH3 0x11 JUMPI PUSH1 0x0 DUP1 REVERT JUMPDEST POP PUSH1 0x40 MLOAD PUSH3 0x20 SWAP1 PUSH3 0xFC JUMP JUMPDEST PUSH1 0x40 MLOAD DUP1 SWAP2 SUB SWAP1 PUSH1 0x0 CREATE DUP1 ISZERO DUP1 ISZERO PUSH3 0x3D JUMPI RETURNDATASIZE PUSH1 0x0 DUP1 RETURNDATACOPY RETURNDATASIZE PUSH1 0x0 REVERT JUMPDEST POP PUSH1 0x0 DUP1 PUSH2 0x100 EXP DUP2 SLOAD DUP2 PUSH20 0xFFFFFFFFFFFFFFFFFFFFFFFFFFFFFFFFFFFFFFFF MUL NOT AND SWAP1 DUP4 PUSH20 0xFFFFFFFFFFFFFFFFFFFFFFFFFFFFFFFFFFFFFFFF AND MUL OR SWAP1 SSTORE POP ADDRESS PUSH1 0x40 MLOAD PUSH3 0x8C SWAP1 PUSH3 0x10A JUMP JUMPDEST PUSH3 0x98 SWAP2 SWAP1 PUSH3 0x15D JUMP JUMPDEST PUSH1 0x40 MLOAD DUP1 SWAP2 SUB SWAP1 PUSH1 0x0 CREATE DUP1 ISZERO DUP1 ISZERO PUSH3 0xB5 JUMPI RETURNDATASIZE PUSH1 0x0 DUP1 RETURNDATACOPY RETURNDATASIZE PUSH1 0x0 REVERT JUMPDEST POP PUSH1 0xA PUSH1 0x0 PUSH2 0x100 EXP DUP2 SLOAD DUP2 PUSH20 0xFFFFFFFFFFFFFFFFFFFFFFFFFFFFFFFFFFFFFFFF MUL NOT AND SWAP1 DUP4 PUSH20 0xFFFFFFFFFFFFFFFFFFFFFFFFFFFFFFFFFFFFFFFF AND MUL OR SWAP1 SSTORE POP PUSH3 0x17A JUMP JUMPDEST PUSH2 0x28D DUP1 PUSH3 0x4F6A DUP4 CODECOPY ADD SWAP1 JUMP JUMPDEST PUSH2 0x3DE2 DUP1 PUSH3 0x51F7 DUP4 CODECOPY ADD SWAP1 JUMP JUMPDEST PUSH1 0x0 PUSH20 0xFFFFFFFFFFFFFFFFFFFFFFFFFFFFFFFFFFFFFFFF DUP3 AND SWAP1 POP SWAP2 SWAP1 POP JUMP JUMPDEST PUSH1 0x0 PUSH3 0x145 DUP3 PUSH3 0x118 JUMP JUMPDEST SWAP1 POP SWAP2 SWAP1 POP JUMP JUMPDEST PUSH3 0x157 DUP2 PUSH3 0x138 JUMP JUMPDEST DUP3 MSTORE POP POP JUMP JUMPDEST PUSH1 0x0 PUSH1 0x20 DUP3 ADD SWAP1 POP PUSH3 0x174 PUSH1 0x0 DUP4 ADD DUP5 PUSH3 0x14C JUMP JUMPDEST SWAP3 SWAP2 POP POP JUMP JUMPDEST PUSH2 0x4DE0 DUP1 PUSH3 0x18A PUSH1 0x0 CODECOPY PUSH1 0x0 RETURN INVALID PUSH1 0x80 PUSH1 0x40 MSTORE CALLVALUE DUP1 ISZERO PUSH2 0x10 JUMPI PUSH1 0x0 DUP1 REVERT JUMPDEST POP PUSH1 0x4 CALLDATASIZE LT PUSH2 0x1C4 JUMPI PUSH1 0x0 CALLDATALOAD PUSH1 0xE0 SHR DUP1 PUSH4 0x705DD6CD GT PUSH2 0xF9 JUMPI DUP1 PUSH4 0xC8067B6F GT PUSH2 0x97 JUMPI DUP1 PUSH4 0xD7DFA0DD GT PUSH2 0x71 JUMPI DUP1 PUSH4 0xD7DFA0DD EQ PUSH2 0x501 JUMPI DUP1 PUSH4 0xE3C8BFB9 EQ PUSH2 0x51F JUMPI DUP1 PUSH4 0xE5BCD450 EQ PUSH2 0x53D JUMPI DUP1 PUSH4 0xF9781033 EQ PUSH2 0x559 JUMPI PUSH2 0x1C4 JUMP JUMPDEST DUP1 PUSH4 0xC8067B6F EQ PUSH2 0x481 JUMPI DUP1 PUSH4 0xD5792E35 EQ PUSH2 0x49F JUMPI DUP1 PUSH4 0xD79B490E EQ PUSH2 0x4CF JUMPI PUSH2 0x1C4 JUMP JUMPDEST DUP1 PUSH4 0x755F10FD GT PUSH2 0xD3 JUMPI DUP1 PUSH4 0x755F10FD EQ PUSH2 0x3F9 JUMPI DUP1 PUSH4 0x8BA47BDD EQ PUSH2 0x429 JUMPI DUP1 PUSH4 0x90EDE5D5 EQ PUSH2 0x447 JUMPI DUP1 PUSH4 0xAE5C1356 EQ PUSH2 0x463 JUMPI PUSH2 0x1C4 JUMP JUMPDEST DUP1 PUSH4 0x705DD6CD EQ PUSH2 0x39F JUMPI DUP1 PUSH4 0x72DE5B2F EQ PUSH2 0x3BD JUMPI DUP1 PUSH4 0x734692A9 EQ PUSH2 0x3DB JUMPI PUSH2 0x1C4 JUMP JUMPDEST DUP1 PUSH4 0x39FEBF0C GT PUSH2 0x166 JUMPI DUP1 PUSH4 0x481C6A75 GT PUSH2 0x140 JUMPI DUP1 PUSH4 0x481C6A75 EQ PUSH2 0x329 JUMPI DUP1 PUSH4 0x49BBC37A EQ PUSH2 0x347 JUMPI DUP1 PUSH4 0x4FFDF11E EQ PUSH2 0x365 JUMPI DUP1 PUSH4 0x5CD6925A EQ PUSH2 0x383 JUMPI PUSH2 0x1C4 JUMP JUMPDEST DUP1 PUSH4 0x39FEBF0C EQ PUSH2 0x2BD JUMPI DUP1 PUSH4 0x44C1DC78 EQ PUSH2 0x2DB JUMPI DUP1 PUSH4 0x45BAEE55 EQ PUSH2 0x30B JUMPI PUSH2 0x1C4 JUMP JUMPDEST DUP1 PUSH4 0x1E20530A GT PUSH2 0x1A2 JUMPI DUP1 PUSH4 0x1E20530A EQ PUSH2 0x239 JUMPI DUP1 PUSH4 0x27764F7D EQ PUSH2 0x255 JUMPI DUP1 PUSH4 0x35868AB7 EQ PUSH2 0x271 JUMPI DUP1 PUSH4 0x37C74779 EQ PUSH2 0x28D JUMPI PUSH2 0x1C4 JUMP JUMPDEST DUP1 PUSH4 0x1FD1951 EQ PUSH2 0x1C9 JUMPI DUP1 PUSH4 0x124A96C8 EQ PUSH2 0x1E7 JUMPI DUP1 PUSH4 0x1B7D40A5 EQ PUSH2 0x205 JUMPI JUMPDEST PUSH1 0x0 DUP1 REVERT JUMPDEST PUSH2 0x1D1 PUSH2 0x575 JUMP JUMPDEST PUSH1 0x40 MLOAD PUSH2 0x1DE SWAP2 SWAP1 PUSH2 0x39C0 JUMP JUMPDEST PUSH1 0x40 MLOAD DUP1 SWAP2 SUB SWAP1 RETURN JUMPDEST PUSH2 0x1EF PUSH2 0x57B JUMP JUMPDEST PUSH1 0x40 MLOAD PUSH2 0x1FC SWAP2 SWAP1 PUSH2 0x39C0 JUMP JUMPDEST PUSH1 0x40 MLOAD DUP1 SWAP2 SUB SWAP1 RETURN JUMPDEST PUSH2 0x21F PUSH1 0x4 DUP1 CALLDATASIZE SUB DUP2 ADD SWAP1 PUSH2 0x21A SWAP2 SWAP1 PUSH2 0x3A0C JUMP JUMPDEST PUSH2 0x581 JUMP JUMPDEST PUSH1 0x40 MLOAD PUSH2 0x230 SWAP6 SWAP5 SWAP4 SWAP3 SWAP2 SWAP1 PUSH2 0x3B0A JUMP JUMPDEST PUSH1 0x40 MLOAD DUP1 SWAP2 SUB SWAP1 RETURN JUMPDEST PUSH2 0x253 PUSH1 0x4 DUP1 CALLDATASIZE SUB DUP2 ADD SWAP1 PUSH2 0x24E SWAP2 SWAP1 PUSH2 0x3BC9 JUMP JUMPDEST PUSH2 0x70B JUMP JUMPDEST STOP JUMPDEST PUSH2 0x26F PUSH1 0x4 DUP1 CALLDATASIZE SUB DUP2 ADD SWAP1 PUSH2 0x26A SWAP2 SWAP1 PUSH2 0x3C09 JUMP JUMPDEST PUSH2 0x86F JUMP JUMPDEST STOP JUMPDEST PUSH2 0x28B PUSH1 0x4 DUP1 CALLDATASIZE SUB DUP2 ADD SWAP1 PUSH2 0x286 SWAP2 SWAP1 PUSH2 0x3C36 JUMP JUMPDEST PUSH2 0x9D0 JUMP JUMPDEST STOP JUMPDEST PUSH2 0x2A7 PUSH1 0x4 DUP1 CALLDATASIZE SUB DUP2 ADD SWAP1 PUSH2 0x2A2 SWAP2 SWAP1 PUSH2 0x3C09 JUMP JUMPDEST PUSH2 0xB37 JUMP JUMPDEST PUSH1 0x40 MLOAD PUSH2 0x2B4 SWAP2 SWAP1 PUSH2 0x39C0 JUMP JUMPDEST PUSH1 0x40 MLOAD DUP1 SWAP2 SUB SWAP1 RETURN JUMPDEST PUSH2 0x2C5 PUSH2 0xB4F JUMP JUMPDEST PUSH1 0x40 MLOAD PUSH2 0x2D2 SWAP2 SWAP1 PUSH2 0x39C0 JUMP JUMPDEST PUSH1 0x40 MLOAD DUP1 SWAP2 SUB SWAP1 RETURN JUMPDEST PUSH2 0x2F5 PUSH1 0x4 DUP1 CALLDATASIZE SUB DUP2 ADD SWAP1 PUSH2 0x2F0 SWAP2 SWAP1 PUSH2 0x3C89 JUMP JUMPDEST PUSH2 0xB54 JUMP JUMPDEST PUSH1 0x40 MLOAD PUSH2 0x302 SWAP2 SWAP1 PUSH2 0x4182 JUMP JUMPDEST PUSH1 0x40 MLOAD DUP1 SWAP2 SUB SWAP1 RETURN JUMPDEST PUSH2 0x313 PUSH2 0x1B92 JUMP JUMPDEST PUSH1 0x40 MLOAD PUSH2 0x320 SWAP2 SWAP1 PUSH2 0x39C0 JUMP JUMPDEST PUSH1 0x40 MLOAD DUP1 SWAP2 SUB SWAP1 RETURN JUMPDEST PUSH2 0x331 PUSH2 0x1B97 JUMP JUMPDEST PUSH1 0x40 MLOAD PUSH2 0x33E SWAP2 SWAP1 PUSH2 0x41B3 JUMP JUMPDEST PUSH1 0x40 MLOAD DUP1 SWAP2 SUB SWAP1 RETURN JUMPDEST PUSH2 0x34F PUSH2 0x1BBD JUMP JUMPDEST PUSH1 0x40 MLOAD PUSH2 0x35C SWAP2 SWAP1 PUSH2 0x39C0 JUMP JUMPDEST PUSH1 0x40 MLOAD DUP1 SWAP2 SUB SWAP1 RETURN JUMPDEST PUSH2 0x36D PUSH2 0x1BC3 JUMP JUMPDEST PUSH1 0x40 MLOAD PUSH2 0x37A SWAP2 SWAP1 PUSH2 0x39C0 JUMP JUMPDEST PUSH1 0x40 MLOAD DUP1 SWAP2 SUB SWAP1 RETURN JUMPDEST PUSH2 0x39D PUSH1 0x4 DUP1 CALLDATASIZE SUB DUP2 ADD SWAP1 PUSH2 0x398 SWAP2 SWAP1 PUSH2 0x3C09 JUMP JUMPDEST PUSH2 0x1BC8 JUMP JUMPDEST STOP JUMPDEST PUSH2 0x3A7 PUSH2 0x1D29 JUMP JUMPDEST PUSH1 0x40 MLOAD PUSH2 0x3B4 SWAP2 SWAP1 PUSH2 0x39C0 JUMP JUMPDEST PUSH1 0x40 MLOAD DUP1 SWAP2 SUB SWAP1 RETURN JUMPDEST PUSH2 0x3C5 PUSH2 0x1D2E JUMP JUMPDEST PUSH1 0x40 MLOAD PUSH2 0x3D2 SWAP2 SWAP1 PUSH2 0x422D JUMP JUMPDEST PUSH1 0x40 MLOAD DUP1 SWAP2 SUB SWAP1 RETURN JUMPDEST PUSH2 0x3E3 PUSH2 0x1D52 JUMP JUMPDEST PUSH1 0x40 MLOAD PUSH2 0x3F0 SWAP2 SWAP1 PUSH2 0x39C0 JUMP JUMPDEST PUSH1 0x40 MLOAD DUP1 SWAP2 SUB SWAP1 RETURN JUMPDEST PUSH2 0x413 PUSH1 0x4 DUP1 CALLDATASIZE SUB DUP2 ADD SWAP1 PUSH2 0x40E SWAP2 SWAP1 PUSH2 0x3C09 JUMP JUMPDEST PUSH2 0x1D57 JUMP JUMPDEST PUSH1 0x40 MLOAD PUSH2 0x420 SWAP2 SWAP1 PUSH2 0x39C0 JUMP JUMPDEST PUSH1 0x40 MLOAD DUP1 SWAP2 SUB SWAP1 RETURN JUMPDEST PUSH2 0x431 PUSH2 0x1D6F JUMP JUMPDEST PUSH1 0x40 MLOAD PUSH2 0x43E SWAP2 SWAP1 PUSH2 0x41B3 JUMP JUMPDEST PUSH1 0x40 MLOAD DUP1 SWAP2 SUB SWAP1 RETURN JUMPDEST PUSH2 0x461 PUSH1 0x4 DUP1 CALLDATASIZE SUB DUP2 ADD SWAP1 PUSH2 0x45C SWAP2 SWAP1 PUSH2 0x3C09 JUMP JUMPDEST PUSH2 0x1D95 JUMP JUMPDEST STOP JUMPDEST PUSH2 0x46B PUSH2 0x1EF6 JUMP JUMPDEST PUSH1 0x40 MLOAD PUSH2 0x478 SWAP2 SWAP1 PUSH2 0x39C0 JUMP JUMPDEST PUSH1 0x40 MLOAD DUP1 SWAP2 SUB SWAP1 RETURN JUMPDEST PUSH2 0x489 PUSH2 0x1EFB JUMP JUMPDEST PUSH1 0x40 MLOAD PUSH2 0x496 SWAP2 SWAP1 PUSH2 0x39C0 JUMP JUMPDEST PUSH1 0x40 MLOAD DUP1 SWAP2 SUB SWAP1 RETURN JUMPDEST PUSH2 0x4B9 PUSH1 0x4 DUP1 CALLDATASIZE SUB DUP2 ADD SWAP1 PUSH2 0x4B4 SWAP2 SWAP1 PUSH2 0x4248 JUMP JUMPDEST PUSH2 0x1F00 JUMP JUMPDEST PUSH1 0x40 MLOAD PUSH2 0x4C6 SWAP2 SWAP1 PUSH2 0x4333 JUMP JUMPDEST PUSH1 0x40 MLOAD DUP1 SWAP2 SUB SWAP1 RETURN JUMPDEST PUSH2 0x4E9 PUSH1 0x4 DUP1 CALLDATASIZE SUB DUP2 ADD SWAP1 PUSH2 0x4E4 SWAP2 SWAP1 PUSH2 0x3C09 JUMP JUMPDEST PUSH2 0x1FB1 JUMP JUMPDEST PUSH1 0x40 MLOAD PUSH2 0x4F8 SWAP4 SWAP3 SWAP2 SWAP1 PUSH2 0x43C6 JUMP JUMPDEST PUSH1 0x40 MLOAD DUP1 SWAP2 SUB SWAP1 RETURN JUMPDEST PUSH2 0x509 PUSH2 0x1FE8 JUMP JUMPDEST PUSH1 0x40 MLOAD PUSH2 0x516 SWAP2 SWAP1 PUSH2 0x41B3 JUMP JUMPDEST PUSH1 0x40 MLOAD DUP1 SWAP2 SUB SWAP1 RETURN JUMPDEST PUSH2 0x527 PUSH2 0x200E JUMP JUMPDEST PUSH1 0x40 MLOAD PUSH2 0x534 SWAP2 SWAP1 PUSH2 0x39C0 JUMP JUMPDEST PUSH1 0x40 MLOAD DUP1 SWAP2 SUB SWAP1 RETURN JUMPDEST PUSH2 0x557 PUSH1 0x4 DUP1 CALLDATASIZE SUB DUP2 ADD SWAP1 PUSH2 0x552 SWAP2 SWAP1 PUSH2 0x3C09 JUMP JUMPDEST PUSH2 0x2013 JUMP JUMPDEST STOP JUMPDEST PUSH2 0x573 PUSH1 0x4 DUP1 CALLDATASIZE SUB DUP2 ADD SWAP1 PUSH2 0x56E SWAP2 SWAP1 PUSH2 0x3C09 JUMP JUMPDEST PUSH2 0x23AB JUMP JUMPDEST STOP JUMPDEST PUSH1 0x3 SLOAD DUP2 JUMP JUMPDEST PUSH2 0x1F4 DUP2 JUMP JUMPDEST PUSH1 0x9 PUSH1 0x20 MSTORE DUP3 PUSH1 0x0 MSTORE PUSH1 0x40 PUSH1 0x0 KECCAK256 PUSH1 0x20 MSTORE DUP2 PUSH1 0x0 MSTORE PUSH1 0x40 PUSH1 0x0 KECCAK256 DUP2 DUP2 SLOAD DUP2 LT PUSH2 0x5A9 JUMPI PUSH1 0x0 DUP1 REVERT JUMPDEST SWAP1 PUSH1 0x0 MSTORE PUSH1 0x20 PUSH1 0x0 KECCAK256 SWAP1 PUSH1 0x7 MUL ADD PUSH1 0x0 SWAP3 POP SWAP3 POP POP POP DUP1 PUSH1 0x0 ADD DUP1 SLOAD PUSH2 0x5CE SWAP1 PUSH2 0x442C JUMP JUMPDEST DUP1 PUSH1 0x1F ADD PUSH1 0x20 DUP1 SWAP2 DIV MUL PUSH1 0x20 ADD PUSH1 0x40 MLOAD SWAP1 DUP2 ADD PUSH1 0x40 MSTORE DUP1 SWAP3 SWAP2 SWAP1 DUP2 DUP2 MSTORE PUSH1 0x20 ADD DUP3 DUP1 SLOAD PUSH2 0x5FA SWAP1 PUSH2 0x442C JUMP JUMPDEST DUP1 ISZERO PUSH2 0x647 JUMPI DUP1 PUSH1 0x1F LT PUSH2 0x61C JUMPI PUSH2 0x100 DUP1 DUP4 SLOAD DIV MUL DUP4 MSTORE SWAP2 PUSH1 0x20 ADD SWAP2 PUSH2 0x647 JUMP JUMPDEST DUP3 ADD SWAP2 SWAP1 PUSH1 0x0 MSTORE PUSH1 0x20 PUSH1 0x0 KECCAK256 SWAP1 JUMPDEST DUP2 SLOAD DUP2 MSTORE SWAP1 PUSH1 0x1 ADD SWAP1 PUSH1 0x20 ADD DUP1 DUP4 GT PUSH2 0x62A JUMPI DUP3 SWAP1 SUB PUSH1 0x1F AND DUP3 ADD SWAP2 JUMPDEST POP POP POP POP POP SWAP1 DUP1 PUSH1 0x1 ADD DUP1 SLOAD PUSH2 0x65C SWAP1 PUSH2 0x442C JUMP JUMPDEST DUP1 PUSH1 0x1F ADD PUSH1 0x20 DUP1 SWAP2 DIV MUL PUSH1 0x20 ADD PUSH1 0x40 MLOAD SWAP1 DUP2 ADD PUSH1 0x40 MSTORE DUP1 SWAP3 SWAP2 SWAP1 DUP2 DUP2 MSTORE PUSH1 0x20 ADD DUP3 DUP1 SLOAD PUSH2 0x688 SWAP1 PUSH2 0x442C JUMP JUMPDEST DUP1 ISZERO PUSH2 0x6D5 JUMPI DUP1 PUSH1 0x1F LT PUSH2 0x6AA JUMPI PUSH2 0x100 DUP1 DUP4 SLOAD DIV MUL DUP4 MSTORE SWAP2 PUSH1 0x20 ADD SWAP2 PUSH2 0x6D5 JUMP JUMPDEST DUP3 ADD SWAP2 SWAP1 PUSH1 0x0 MSTORE PUSH1 0x20 PUSH1 0x0 KECCAK256 SWAP1 JUMPDEST DUP2 SLOAD DUP2 MSTORE SWAP1 PUSH1 0x1 ADD SWAP1 PUSH1 0x20 ADD DUP1 DUP4 GT PUSH2 0x6B8 JUMPI DUP3 SWAP1 SUB PUSH1 0x1F AND DUP3 ADD SWAP2 JUMPDEST POP POP POP POP POP SWAP1 DUP1 PUSH1 0x4 ADD PUSH1 0x0 SWAP1 SLOAD SWAP1 PUSH2 0x100 EXP SWAP1 DIV PUSH1 0xFF AND SWAP1 DUP1 PUSH1 0x5 ADD SLOAD SWAP1 DUP1 PUSH1 0x6 ADD PUSH1 0x0 SWAP1 SLOAD SWAP1 PUSH2 0x100 EXP SWAP1 DIV PUSH1 0xFF AND SWAP1 POP DUP6 JUMP JUMPDEST PUSH1 0x0 DUP1 PUSH1 0xA PUSH1 0x0 SWAP1 SLOAD SWAP1 PUSH2 0x100 EXP SWAP1 DIV PUSH20 0xFFFFFFFFFFFFFFFFFFFFFFFFFFFFFFFFFFFFFFFF AND PUSH20 0xFFFFFFFFFFFFFFFFFFFFFFFFFFFFFFFFFFFFFFFF AND DUP5 DUP5 PUSH1 0x40 MLOAD PUSH1 0x24 ADD PUSH2 0x75A SWAP3 SWAP2 SWAP1 PUSH2 0x445D JUMP JUMPDEST PUSH1 0x40 MLOAD PUSH1 0x20 DUP2 DUP4 SUB SUB DUP2 MSTORE SWAP1 PUSH1 0x40 MSTORE PUSH32 0x1E20530A00000000000000000000000000000000000000000000000000000000 PUSH28 0xFFFFFFFFFFFFFFFFFFFFFFFFFFFFFFFFFFFFFFFFFFFFFFFFFFFFFFFF NOT AND PUSH1 0x20 DUP3 ADD DUP1 MLOAD PUSH28 0xFFFFFFFFFFFFFFFFFFFFFFFFFFFFFFFFFFFFFFFFFFFFFFFFFFFFFFFF DUP4 DUP2 DUP4 AND OR DUP4 MSTORE POP POP POP POP PUSH1 0x40 MLOAD PUSH2 0x7E4 SWAP2 SWAP1 PUSH2 0x44C2 JUMP JUMPDEST PUSH1 0x0 PUSH1 0x40 MLOAD DUP1 DUP4 SUB DUP2 DUP6 GAS DELEGATECALL SWAP2 POP POP RETURNDATASIZE DUP1 PUSH1 0x0 DUP2 EQ PUSH2 0x81F JUMPI PUSH1 0x40 MLOAD SWAP2 POP PUSH1 0x1F NOT PUSH1 0x3F RETURNDATASIZE ADD AND DUP3 ADD PUSH1 0x40 MSTORE RETURNDATASIZE DUP3 MSTORE RETURNDATASIZE PUSH1 0x0 PUSH1 0x20 DUP5 ADD RETURNDATACOPY PUSH2 0x824 JUMP JUMPDEST PUSH1 0x60 SWAP2 POP JUMPDEST POP SWAP2 POP SWAP2 POP DUP2 PUSH2 0x869 JUMPI PUSH1 0x40 MLOAD PUSH32 0x8C379A000000000000000000000000000000000000000000000000000000000 DUP2 MSTORE PUSH1 0x4 ADD PUSH2 0x860 SWAP1 PUSH2 0x455C JUMP JUMPDEST PUSH1 0x40 MLOAD DUP1 SWAP2 SUB SWAP1 REVERT JUMPDEST POP POP POP POP JUMP JUMPDEST PUSH1 0x0 DUP1 PUSH1 0xA PUSH1 0x0 SWAP1 SLOAD SWAP1 PUSH2 0x100 EXP SWAP1 DIV PUSH20 0xFFFFFFFFFFFFFFFFFFFFFFFFFFFFFFFFFFFFFFFF AND PUSH20 0xFFFFFFFFFFFFFFFFFFFFFFFFFFFFFFFFFFFFFFFF AND DUP4 PUSH1 0x40 MLOAD PUSH1 0x24 ADD PUSH2 0x8BC SWAP2 SWAP1 PUSH2 0x39C0 JUMP JUMPDEST PUSH1 0x40 MLOAD PUSH1 0x20 DUP2 DUP4 SUB SUB DUP2 MSTORE SWAP1 PUSH1 0x40 MSTORE PUSH32 0x27764F7D00000000000000000000000000000000000000000000000000000000 PUSH28 0xFFFFFFFFFFFFFFFFFFFFFFFFFFFFFFFFFFFFFFFFFFFFFFFFFFFFFFFF NOT AND PUSH1 0x20 DUP3 ADD DUP1 MLOAD PUSH28 0xFFFFFFFFFFFFFFFFFFFFFFFFFFFFFFFFFFFFFFFFFFFFFFFFFFFFFFFF DUP4 DUP2 DUP4 AND OR DUP4 MSTORE POP POP POP POP PUSH1 0x40 MLOAD PUSH2 0x946 SWAP2 SWAP1 PUSH2 0x44C2 JUMP JUMPDEST PUSH1 0x0 PUSH1 0x40 MLOAD DUP1 DUP4 SUB DUP2 DUP6 GAS DELEGATECALL SWAP2 POP POP RETURNDATASIZE DUP1 PUSH1 0x0 DUP2 EQ PUSH2 0x981 JUMPI PUSH1 0x40 MLOAD SWAP2 POP PUSH1 0x1F NOT PUSH1 0x3F RETURNDATASIZE ADD AND DUP3 ADD PUSH1 0x40 MSTORE RETURNDATASIZE DUP3 MSTORE RETURNDATASIZE PUSH1 0x0 PUSH1 0x20 DUP5 ADD RETURNDATACOPY PUSH2 0x986 JUMP JUMPDEST PUSH1 0x60 SWAP2 POP JUMPDEST POP SWAP2 POP SWAP2 POP DUP2 PUSH2 0x9CB JUMPI PUSH1 0x40 MLOAD PUSH32 0x8C379A000000000000000000000000000000000000000000000000000000000 DUP2 MSTORE PUSH1 0x4 ADD PUSH2 0x9C2 SWAP1 PUSH2 0x45EE JUMP JUMPDEST PUSH1 0x40 MLOAD DUP1 SWAP2 SUB SWAP1 REVERT JUMPDEST POP POP POP JUMP JUMPDEST PUSH1 0x0 DUP1 PUSH1 0xA PUSH1 0x0 SWAP1 SLOAD SWAP1 PUSH2 0x100 EXP SWAP1 DIV PUSH20 0xFFFFFFFFFFFFFFFFFFFFFFFFFFFFFFFFFFFFFFFF AND PUSH20 0xFFFFFFFFFFFFFFFFFFFFFFFFFFFFFFFFFFFFFFFF AND DUP6 DUP6 DUP6 PUSH1 0x40 MLOAD PUSH1 0x24 ADD PUSH2 0xA21 SWAP4 SWAP3 SWAP2 SWAP1 PUSH2 0x460E JUMP JUMPDEST PUSH1 0x40 MLOAD PUSH1 0x20 DUP2 DUP4 SUB SUB DUP2 MSTORE SWAP1 PUSH1 0x40 MSTORE PUSH32 0x35868AB700000000000000000000000000000000000000000000000000000000 PUSH28 0xFFFFFFFFFFFFFFFFFFFFFFFFFFFFFFFFFFFFFFFFFFFFFFFFFFFFFFFF NOT AND PUSH1 0x20 DUP3 ADD DUP1 MLOAD PUSH28 0xFFFFFFFFFFFFFFFFFFFFFFFFFFFFFFFFFFFFFFFFFFFFFFFFFFFFFFFF DUP4 DUP2 DUP4 AND OR DUP4 MSTORE POP POP POP POP PUSH1 0x40 MLOAD PUSH2 0xAAB SWAP2 SWAP1 PUSH2 0x44C2 JUMP JUMPDEST PUSH1 0x0 PUSH1 0x40 MLOAD DUP1 DUP4 SUB DUP2 DUP6 GAS DELEGATECALL SWAP2 POP POP RETURNDATASIZE DUP1 PUSH1 0x0 DUP2 EQ PUSH2 0xAE6 JUMPI PUSH1 0x40 MLOAD SWAP2 POP PUSH1 0x1F NOT PUSH1 0x3F RETURNDATASIZE ADD AND DUP3 ADD PUSH1 0x40 MSTORE RETURNDATASIZE DUP3 MSTORE RETURNDATASIZE PUSH1 0x0 PUSH1 0x20 DUP5 ADD RETURNDATACOPY PUSH2 0xAEB JUMP JUMPDEST PUSH1 0x60 SWAP2 POP JUMPDEST POP SWAP2 POP SWAP2 POP DUP2 PUSH2 0xB30 JUMPI PUSH1 0x40 MLOAD PUSH32 0x8C379A000000000000000000000000000000000000000000000000000000000 DUP2 MSTORE PUSH1 0x4 ADD PUSH2 0xB27 SWAP1 PUSH2 0x46B7 JUMP JUMPDEST PUSH1 0x40 MLOAD DUP1 SWAP2 SUB SWAP1 REVERT JUMPDEST POP POP POP POP POP JUMP JUMPDEST PUSH1 0x5 PUSH1 0x20 MSTORE DUP1 PUSH1 0x0 MSTORE PUSH1 0x40 PUSH1 0x0 KECCAK256 PUSH1 0x0 SWAP2 POP SWAP1 POP SLOAD DUP2 JUMP JUMPDEST PUSH1 0x5 DUP2 JUMP JUMPDEST PUSH1 0x60 PUSH1 0x0 PUSH1 0x8 PUSH1 0x0 DUP6 DUP2 MSTORE PUSH1 0x20 ADD SWAP1 DUP2 MSTORE PUSH1 0x20 ADD PUSH1 0x0 KECCAK256 PUSH1 0x0 DUP5 DUP2 MSTORE PUSH1 0x20 ADD SWAP1 DUP2 MSTORE PUSH1 0x20 ADD PUSH1 0x0 KECCAK256 SWAP1 POP PUSH1 0x0 DUP2 DUP1 SLOAD DUP1 PUSH1 0x20 MUL PUSH1 0x20 ADD PUSH1 0x40 MLOAD SWAP1 DUP2 ADD PUSH1 0x40 MSTORE DUP1 SWAP3 SWAP2 SWAP1 DUP2 DUP2 MSTORE PUSH1 0x20 ADD PUSH1 0x0 SWAP1 JUMPDEST DUP3 DUP3 LT ISZERO PUSH2 0xD00 JUMPI DUP4 DUP3 SWAP1 PUSH1 0x0 MSTORE PUSH1 0x20 PUSH1 0x0 KECCAK256 SWAP1 PUSH1 0x3 MUL ADD PUSH1 0x40 MLOAD DUP1 PUSH1 0x60 ADD PUSH1 0x40 MSTORE SWAP1 DUP2 PUSH1 0x0 DUP3 ADD DUP1 SLOAD DUP1 PUSH1 0x20 MUL PUSH1 0x20 ADD PUSH1 0x40 MLOAD SWAP1 DUP2 ADD PUSH1 0x40 MSTORE DUP1 SWAP3 SWAP2 SWAP1 DUP2 DUP2 MSTORE PUSH1 0x20 ADD PUSH1 0x0 SWAP1 JUMPDEST DUP3 DUP3 LT ISZERO PUSH2 0xC39 JUMPI DUP4 DUP3 SWAP1 PUSH1 0x0 MSTORE PUSH1 0x20 PUSH1 0x0 KECCAK256 SWAP1 PUSH1 0x3 MUL ADD PUSH1 0x40 MLOAD DUP1 PUSH1 0x60 ADD PUSH1 0x40 MSTORE SWAP1 DUP2 PUSH1 0x0 DUP3 ADD SLOAD DUP2 MSTORE PUSH1 0x20 ADD PUSH1 0x1 DUP3 ADD SLOAD DUP2 MSTORE PUSH1 0x20 ADD PUSH1 0x2 DUP3 ADD SLOAD DUP2 MSTORE POP POP DUP2 MSTORE PUSH1 0x20 ADD SWAP1 PUSH1 0x1 ADD SWAP1 PUSH2 0xBE9 JUMP JUMPDEST POP POP POP POP DUP2 MSTORE PUSH1 0x20 ADD PUSH1 0x1 DUP3 ADD DUP1 SLOAD DUP1 PUSH1 0x20 MUL PUSH1 0x20 ADD PUSH1 0x40 MLOAD SWAP1 DUP2 ADD PUSH1 0x40 MSTORE DUP1 SWAP3 SWAP2 SWAP1 DUP2 DUP2 MSTORE PUSH1 0x20 ADD DUP3 DUP1 SLOAD DUP1 ISZERO PUSH2 0xC90 JUMPI PUSH1 0x20 MUL DUP3 ADD SWAP2 SWAP1 PUSH1 0x0 MSTORE PUSH1 0x20 PUSH1 0x0 KECCAK256 SWAP1 JUMPDEST DUP2 SLOAD DUP2 MSTORE PUSH1 0x20 ADD SWAP1 PUSH1 0x1 ADD SWAP1 DUP1 DUP4 GT PUSH2 0xC7C JUMPI JUMPDEST POP POP POP POP POP DUP2 MSTORE PUSH1 0x20 ADD PUSH1 0x2 DUP3 ADD DUP1 SLOAD DUP1 PUSH1 0x20 MUL PUSH1 0x20 ADD PUSH1 0x40 MLOAD SWAP1 DUP2 ADD PUSH1 0x40 MSTORE DUP1 SWAP3 SWAP2 SWAP1 DUP2 DUP2 MSTORE PUSH1 0x20 ADD DUP3 DUP1 SLOAD DUP1 ISZERO PUSH2 0xCE8 JUMPI PUSH1 0x20 MUL DUP3 ADD SWAP2 SWAP1 PUSH1 0x0 MSTORE PUSH1 0x20 PUSH1 0x0 KECCAK256 SWAP1 JUMPDEST DUP2 SLOAD DUP2 MSTORE PUSH1 0x20 ADD SWAP1 PUSH1 0x1 ADD SWAP1 DUP1 DUP4 GT PUSH2 0xCD4 JUMPI JUMPDEST POP POP POP POP POP DUP2 MSTORE POP POP DUP2 MSTORE PUSH1 0x20 ADD SWAP1 PUSH1 0x1 ADD SWAP1 PUSH2 0xBA1 JUMP JUMPDEST POP POP POP POP SWAP1 POP PUSH1 0x0 JUMPDEST PUSH1 0x2 DUP2 LT ISZERO PUSH2 0xF5D JUMPI PUSH1 0xA PUSH8 0xFFFFFFFFFFFFFFFF DUP2 GT ISZERO PUSH2 0xD2D JUMPI PUSH2 0xD2C PUSH2 0x46D7 JUMP JUMPDEST JUMPDEST PUSH1 0x40 MLOAD SWAP1 DUP1 DUP3 MSTORE DUP1 PUSH1 0x20 MUL PUSH1 0x20 ADD DUP3 ADD PUSH1 0x40 MSTORE DUP1 ISZERO PUSH2 0xD66 JUMPI DUP2 PUSH1 0x20 ADD JUMPDEST PUSH2 0xD53 PUSH2 0x38D4 JUMP JUMPDEST DUP2 MSTORE PUSH1 0x20 ADD SWAP1 PUSH1 0x1 SWAP1 SUB SWAP1 DUP2 PUSH2 0xD4B JUMPI SWAP1 POP JUMPDEST POP DUP3 DUP3 DUP2 MLOAD DUP2 LT PUSH2 0xD7A JUMPI PUSH2 0xD79 PUSH2 0x4706 JUMP JUMPDEST JUMPDEST PUSH1 0x20 MUL PUSH1 0x20 ADD ADD MLOAD PUSH1 0x0 ADD DUP2 SWAP1 MSTORE POP PUSH1 0x0 JUMPDEST PUSH1 0xA DUP2 LT ISZERO PUSH2 0xF4B JUMPI DUP4 DUP3 DUP2 SLOAD DUP2 LT PUSH2 0xDA8 JUMPI PUSH2 0xDA7 PUSH2 0x4706 JUMP JUMPDEST JUMPDEST SWAP1 PUSH1 0x0 MSTORE PUSH1 0x20 PUSH1 0x0 KECCAK256 SWAP1 PUSH1 0x3 MUL ADD PUSH1 0x0 ADD DUP2 DUP2 SLOAD DUP2 LT PUSH2 0xDCB JUMPI PUSH2 0xDCA PUSH2 0x4706 JUMP JUMPDEST JUMPDEST SWAP1 PUSH1 0x0 MSTORE PUSH1 0x20 PUSH1 0x0 KECCAK256 SWAP1 PUSH1 0x3 MUL ADD PUSH1 0x40 MLOAD DUP1 PUSH1 0x60 ADD PUSH1 0x40 MSTORE SWAP1 DUP2 PUSH1 0x0 DUP3 ADD SLOAD DUP2 MSTORE PUSH1 0x20 ADD PUSH1 0x1 DUP3 ADD SLOAD DUP2 MSTORE PUSH1 0x20 ADD PUSH1 0x2 DUP3 ADD SLOAD DUP2 MSTORE POP POP DUP4 DUP4 DUP2 MLOAD DUP2 LT PUSH2 0xE15 JUMPI PUSH2 0xE14 PUSH2 0x4706 JUMP JUMPDEST JUMPDEST PUSH1 0x20 MUL PUSH1 0x20 ADD ADD MLOAD PUSH1 0x0 ADD MLOAD DUP3 DUP2 MLOAD DUP2 LT PUSH2 0xE33 JUMPI PUSH2 0xE32 PUSH2 0x4706 JUMP JUMPDEST JUMPDEST PUSH1 0x20 MUL PUSH1 0x20 ADD ADD DUP2 SWAP1 MSTORE POP DUP4 DUP3 DUP2 SLOAD DUP2 LT PUSH2 0xE51 JUMPI PUSH2 0xE50 PUSH2 0x4706 JUMP JUMPDEST JUMPDEST SWAP1 PUSH1 0x0 MSTORE PUSH1 0x20 PUSH1 0x0 KECCAK256 SWAP1 PUSH1 0x3 MUL ADD PUSH1 0x1 ADD DUP2 DUP2 SLOAD DUP2 LT PUSH2 0xE74 JUMPI PUSH2 0xE73 PUSH2 0x4706 JUMP JUMPDEST JUMPDEST SWAP1 PUSH1 0x0 MSTORE PUSH1 0x20 PUSH1 0x0 KECCAK256 ADD SLOAD DUP4 DUP4 DUP2 MLOAD DUP2 LT PUSH2 0xE92 JUMPI PUSH2 0xE91 PUSH2 0x4706 JUMP JUMPDEST JUMPDEST PUSH1 0x20 MUL PUSH1 0x20 ADD ADD MLOAD PUSH1 0x20 ADD MLOAD DUP3 DUP2 MLOAD DUP2 LT PUSH2 0xEB0 JUMPI PUSH2 0xEAF PUSH2 0x4706 JUMP JUMPDEST JUMPDEST PUSH1 0x20 MUL PUSH1 0x20 ADD ADD DUP2 DUP2 MSTORE POP POP DUP4 DUP3 DUP2 SLOAD DUP2 LT PUSH2 0xECF JUMPI PUSH2 0xECE PUSH2 0x4706 JUMP JUMPDEST JUMPDEST SWAP1 PUSH1 0x0 MSTORE PUSH1 0x20 PUSH1 0x0 KECCAK256 SWAP1 PUSH1 0x3 MUL ADD PUSH1 0x2 ADD DUP2 DUP2 SLOAD DUP2 LT PUSH2 0xEF2 JUMPI PUSH2 0xEF1 PUSH2 0x4706 JUMP JUMPDEST JUMPDEST SWAP1 PUSH1 0x0 MSTORE PUSH1 0x20 PUSH1 0x0 KECCAK256 ADD SLOAD DUP4 DUP4 DUP2 MLOAD DUP2 LT PUSH2 0xF10 JUMPI PUSH2 0xF0F PUSH2 0x4706 JUMP JUMPDEST JUMPDEST PUSH1 0x20 MUL PUSH1 0x20 ADD ADD MLOAD PUSH1 0x40 ADD MLOAD DUP3 DUP2 MLOAD DUP2 LT PUSH2 0xF2E JUMPI PUSH2 0xF2D PUSH2 0x4706 JUMP JUMPDEST JUMPDEST PUSH1 0x20 MUL PUSH1 0x20 ADD ADD DUP2 DUP2 MSTORE POP POP DUP1 PUSH2 0xF44 SWAP1 PUSH2 0x4764 JUMP JUMPDEST SWAP1 POP PUSH2 0xD8C JUMP JUMPDEST POP DUP1 PUSH2 0xF56 SWAP1 PUSH2 0x4764 JUMP JUMPDEST SWAP1 POP PUSH2 0xD09 JUMP JUMPDEST POP PUSH1 0x0 PUSH1 0x9 PUSH1 0x0 DUP8 DUP2 MSTORE PUSH1 0x20 ADD SWAP1 DUP2 MSTORE PUSH1 0x20 ADD PUSH1 0x0 KECCAK256 PUSH1 0x0 DUP7 DUP2 MSTORE PUSH1 0x20 ADD SWAP1 DUP2 MSTORE PUSH1 0x20 ADD PUSH1 0x0 KECCAK256 SWAP1 POP PUSH1 0x0 DUP2 DUP1 SLOAD DUP1 PUSH1 0x20 MUL PUSH1 0x20 ADD PUSH1 0x40 MLOAD SWAP1 DUP2 ADD PUSH1 0x40 MSTORE DUP1 SWAP3 SWAP2 SWAP1 DUP2 DUP2 MSTORE PUSH1 0x20 ADD PUSH1 0x0 SWAP1 JUMPDEST DUP3 DUP3 LT ISZERO PUSH2 0x11EF JUMPI DUP4 DUP3 SWAP1 PUSH1 0x0 MSTORE PUSH1 0x20 PUSH1 0x0 KECCAK256 SWAP1 PUSH1 0x7 MUL ADD PUSH1 0x40 MLOAD DUP1 PUSH1 0xE0 ADD PUSH1 0x40 MSTORE SWAP1 DUP2 PUSH1 0x0 DUP3 ADD DUP1 SLOAD PUSH2 0xFDC SWAP1 PUSH2 0x442C JUMP JUMPDEST DUP1 PUSH1 0x1F ADD PUSH1 0x20 DUP1 SWAP2 DIV MUL PUSH1 0x20 ADD PUSH1 0x40 MLOAD SWAP1 DUP2 ADD PUSH1 0x40 MSTORE DUP1 SWAP3 SWAP2 SWAP1 DUP2 DUP2 MSTORE PUSH1 0x20 ADD DUP3 DUP1 SLOAD PUSH2 0x1008 SWAP1 PUSH2 0x442C JUMP JUMPDEST DUP1 ISZERO PUSH2 0x1055 JUMPI DUP1 PUSH1 0x1F LT PUSH2 0x102A JUMPI PUSH2 0x100 DUP1 DUP4 SLOAD DIV MUL DUP4 MSTORE SWAP2 PUSH1 0x20 ADD SWAP2 PUSH2 0x1055 JUMP JUMPDEST DUP3 ADD SWAP2 SWAP1 PUSH1 0x0 MSTORE PUSH1 0x20 PUSH1 0x0 KECCAK256 SWAP1 JUMPDEST DUP2 SLOAD DUP2 MSTORE SWAP1 PUSH1 0x1 ADD SWAP1 PUSH1 0x20 ADD DUP1 DUP4 GT PUSH2 0x1038 JUMPI DUP3 SWAP1 SUB PUSH1 0x1F AND DUP3 ADD SWAP2 JUMPDEST POP POP POP POP POP DUP2 MSTORE PUSH1 0x20 ADD PUSH1 0x1 DUP3 ADD DUP1 SLOAD PUSH2 0x106E SWAP1 PUSH2 0x442C JUMP JUMPDEST DUP1 PUSH1 0x1F ADD PUSH1 0x20 DUP1 SWAP2 DIV MUL PUSH1 0x20 ADD PUSH1 0x40 MLOAD SWAP1 DUP2 ADD PUSH1 0x40 MSTORE DUP1 SWAP3 SWAP2 SWAP1 DUP2 DUP2 MSTORE PUSH1 0x20 ADD DUP3 DUP1 SLOAD PUSH2 0x109A SWAP1 PUSH2 0x442C JUMP JUMPDEST DUP1 ISZERO PUSH2 0x10E7 JUMPI DUP1 PUSH1 0x1F LT PUSH2 0x10BC JUMPI PUSH2 0x100 DUP1 DUP4 SLOAD DIV MUL DUP4 MSTORE SWAP2 PUSH1 0x20 ADD SWAP2 PUSH2 0x10E7 JUMP JUMPDEST DUP3 ADD SWAP2 SWAP1 PUSH1 0x0 MSTORE PUSH1 0x20 PUSH1 0x0 KECCAK256 SWAP1 JUMPDEST DUP2 SLOAD DUP2 MSTORE SWAP1 PUSH1 0x1 ADD SWAP1 PUSH1 0x20 ADD DUP1 DUP4 GT PUSH2 0x10CA JUMPI DUP3 SWAP1 SUB PUSH1 0x1F AND DUP3 ADD SWAP2 JUMPDEST POP POP POP POP POP DUP2 MSTORE PUSH1 0x20 ADD PUSH1 0x2 DUP3 ADD DUP1 SLOAD DUP1 PUSH1 0x20 MUL PUSH1 0x20 ADD PUSH1 0x40 MLOAD SWAP1 DUP2 ADD PUSH1 0x40 MSTORE DUP1 SWAP3 SWAP2 SWAP1 DUP2 DUP2 MSTORE PUSH1 0x20 ADD DUP3 DUP1 SLOAD DUP1 ISZERO PUSH2 0x113F JUMPI PUSH1 0x20 MUL DUP3 ADD SWAP2 SWAP1 PUSH1 0x0 MSTORE PUSH1 0x20 PUSH1 0x0 KECCAK256 SWAP1 JUMPDEST DUP2 SLOAD DUP2 MSTORE PUSH1 0x20 ADD SWAP1 PUSH1 0x1 ADD SWAP1 DUP1 DUP4 GT PUSH2 0x112B JUMPI JUMPDEST POP POP POP POP POP DUP2 MSTORE PUSH1 0x20 ADD PUSH1 0x3 DUP3 ADD DUP1 SLOAD DUP1 PUSH1 0x20 MUL PUSH1 0x20 ADD PUSH1 0x40 MLOAD SWAP1 DUP2 ADD PUSH1 0x40 MSTORE DUP1 SWAP3 SWAP2 SWAP1 DUP2 DUP2 MSTORE PUSH1 0x20 ADD DUP3 DUP1 SLOAD DUP1 ISZERO PUSH2 0x1197 JUMPI PUSH1 0x20 MUL DUP3 ADD SWAP2 SWAP1 PUSH1 0x0 MSTORE PUSH1 0x20 PUSH1 0x0 KECCAK256 SWAP1 JUMPDEST DUP2 SLOAD DUP2 MSTORE PUSH1 0x20 ADD SWAP1 PUSH1 0x1 ADD SWAP1 DUP1 DUP4 GT PUSH2 0x1183 JUMPI JUMPDEST POP POP POP POP POP DUP2 MSTORE PUSH1 0x20 ADD PUSH1 0x4 DUP3 ADD PUSH1 0x0 SWAP1 SLOAD SWAP1 PUSH2 0x100 EXP SWAP1 DIV PUSH1 0xFF AND ISZERO ISZERO ISZERO ISZERO DUP2 MSTORE PUSH1 0x20 ADD PUSH1 0x5 DUP3 ADD SLOAD DUP2 MSTORE PUSH1 0x20 ADD PUSH1 0x6 DUP3 ADD PUSH1 0x0 SWAP1 SLOAD SWAP1 PUSH2 0x100 EXP SWAP1 DIV PUSH1 0xFF AND ISZERO ISZERO ISZERO ISZERO DUP2 MSTORE POP POP DUP2 MSTORE PUSH1 0x20 ADD SWAP1 PUSH1 0x1 ADD SWAP1 PUSH2 0xFA9 JUMP JUMPDEST POP POP POP POP SWAP1 POP PUSH1 0x0 JUMPDEST PUSH1 0x2 DUP2 LT ISZERO PUSH2 0x132C JUMPI PUSH1 0x0 JUMPDEST PUSH1 0xA DUP2 LT ISZERO PUSH2 0x131A JUMPI DUP4 DUP3 DUP2 SLOAD DUP2 LT PUSH2 0x1220 JUMPI PUSH2 0x121F PUSH2 0x4706 JUMP JUMPDEST JUMPDEST SWAP1 PUSH1 0x0 MSTORE PUSH1 0x20 PUSH1 0x0 KECCAK256 SWAP1 PUSH1 0x7 MUL ADD PUSH1 0x2 ADD DUP2 DUP2 SLOAD DUP2 LT PUSH2 0x1243 JUMPI PUSH2 0x1242 PUSH2 0x4706 JUMP JUMPDEST JUMPDEST SWAP1 PUSH1 0x0 MSTORE PUSH1 0x20 PUSH1 0x0 KECCAK256 ADD SLOAD DUP4 DUP4 DUP2 MLOAD DUP2 LT PUSH2 0x1261 JUMPI PUSH2 0x1260 PUSH2 0x4706 JUMP JUMPDEST JUMPDEST PUSH1 0x20 MUL PUSH1 0x20 ADD ADD MLOAD PUSH1 0x40 ADD MLOAD DUP3 DUP2 MLOAD DUP2 LT PUSH2 0x127F JUMPI PUSH2 0x127E PUSH2 0x4706 JUMP JUMPDEST JUMPDEST PUSH1 0x20 MUL PUSH1 0x20 ADD ADD DUP2 DUP2 MSTORE POP POP DUP4 DUP3 DUP2 SLOAD DUP2 LT PUSH2 0x129E JUMPI PUSH2 0x129D PUSH2 0x4706 JUMP JUMPDEST JUMPDEST SWAP1 PUSH1 0x0 MSTORE PUSH1 0x20 PUSH1 0x0 KECCAK256 SWAP1 PUSH1 0x7 MUL ADD PUSH1 0x3 ADD DUP2 DUP2 SLOAD DUP2 LT PUSH2 0x12C1 JUMPI PUSH2 0x12C0 PUSH2 0x4706 JUMP JUMPDEST JUMPDEST SWAP1 PUSH1 0x0 MSTORE PUSH1 0x20 PUSH1 0x0 KECCAK256 ADD SLOAD DUP4 DUP4 DUP2 MLOAD DUP2 LT PUSH2 0x12DF JUMPI PUSH2 0x12DE PUSH2 0x4706 JUMP JUMPDEST JUMPDEST PUSH1 0x20 MUL PUSH1 0x20 ADD ADD MLOAD PUSH1 0x60 ADD MLOAD DUP3 DUP2 MLOAD DUP2 LT PUSH2 0x12FD JUMPI PUSH2 0x12FC PUSH2 0x4706 JUMP JUMPDEST JUMPDEST PUSH1 0x20 MUL PUSH1 0x20 ADD ADD DUP2 DUP2 MSTORE POP POP DUP1 PUSH2 0x1313 SWAP1 PUSH2 0x4764 JUMP JUMPDEST SWAP1 POP PUSH2 0x1204 JUMP JUMPDEST POP DUP1 PUSH2 0x1325 SWAP1 PUSH2 0x4764 JUMP JUMPDEST SWAP1 POP PUSH2 0x11F8 JUMP JUMPDEST POP PUSH1 0x7 PUSH1 0x5 PUSH2 0x133B SWAP2 SWAP1 PUSH2 0x47AC JUMP JUMPDEST PUSH8 0xFFFFFFFFFFFFFFFF DUP2 GT ISZERO PUSH2 0x1354 JUMPI PUSH2 0x1353 PUSH2 0x46D7 JUMP JUMPDEST JUMPDEST PUSH1 0x40 MLOAD SWAP1 DUP1 DUP3 MSTORE DUP1 PUSH1 0x20 MUL PUSH1 0x20 ADD DUP3 ADD PUSH1 0x40 MSTORE DUP1 ISZERO PUSH2 0x138D JUMPI DUP2 PUSH1 0x20 ADD JUMPDEST PUSH2 0x137A PUSH2 0x38F5 JUMP JUMPDEST DUP2 MSTORE PUSH1 0x20 ADD SWAP1 PUSH1 0x1 SWAP1 SUB SWAP1 DUP2 PUSH2 0x1372 JUMPI SWAP1 POP JUMPDEST POP SWAP5 POP PUSH1 0x0 JUMPDEST PUSH1 0x7 PUSH1 0x5 PUSH2 0x13A1 SWAP2 SWAP1 PUSH2 0x47AC JUMP JUMPDEST DUP2 LT ISZERO PUSH2 0x1B87 JUMPI PUSH1 0x0 DUP7 DUP3 DUP2 MLOAD DUP2 LT PUSH2 0x13BD JUMPI PUSH2 0x13BC PUSH2 0x4706 JUMP JUMPDEST JUMPDEST PUSH1 0x20 MUL PUSH1 0x20 ADD ADD MLOAD SWAP1 POP PUSH1 0x2 PUSH8 0xFFFFFFFFFFFFFFFF DUP2 GT ISZERO PUSH2 0x13E2 JUMPI PUSH2 0x13E1 PUSH2 0x46D7 JUMP JUMPDEST JUMPDEST PUSH1 0x40 MLOAD SWAP1 DUP1 DUP3 MSTORE DUP1 PUSH1 0x20 MUL PUSH1 0x20 ADD DUP3 ADD PUSH1 0x40 MSTORE DUP1 ISZERO PUSH2 0x141B JUMPI DUP2 PUSH1 0x20 ADD JUMPDEST PUSH2 0x1408 PUSH2 0x3963 JUMP JUMPDEST DUP2 MSTORE PUSH1 0x20 ADD SWAP1 PUSH1 0x1 SWAP1 SUB SWAP1 DUP2 PUSH2 0x1400 JUMPI SWAP1 POP JUMPDEST POP DUP2 PUSH2 0x180 ADD DUP2 SWAP1 MSTORE POP PUSH1 0x0 JUMPDEST PUSH1 0x2 DUP2 LT ISZERO PUSH2 0x1568 JUMPI PUSH1 0x0 DUP3 PUSH2 0x180 ADD MLOAD DUP3 DUP2 MLOAD DUP2 LT PUSH2 0x144B JUMPI PUSH2 0x144A PUSH2 0x4706 JUMP JUMPDEST JUMPDEST PUSH1 0x20 MUL PUSH1 0x20 ADD ADD MLOAD SWAP1 POP PUSH1 0xA PUSH8 0xFFFFFFFFFFFFFFFF DUP2 GT ISZERO PUSH2 0x1470 JUMPI PUSH2 0x146F PUSH2 0x46D7 JUMP JUMPDEST JUMPDEST PUSH1 0x40 MLOAD SWAP1 DUP1 DUP3 MSTORE DUP1 PUSH1 0x20 MUL PUSH1 0x20 ADD DUP3 ADD PUSH1 0x40 MSTORE DUP1 ISZERO PUSH2 0x14A9 JUMPI DUP2 PUSH1 0x20 ADD JUMPDEST PUSH2 0x1496 PUSH2 0x38D4 JUMP JUMPDEST DUP2 MSTORE PUSH1 0x20 ADD SWAP1 PUSH1 0x1 SWAP1 SUB SWAP1 DUP2 PUSH2 0x148E JUMPI SWAP1 POP JUMPDEST POP DUP2 PUSH1 0x0 ADD DUP2 SWAP1 MSTORE POP PUSH1 0xA PUSH8 0xFFFFFFFFFFFFFFFF DUP2 GT ISZERO PUSH2 0x14CD JUMPI PUSH2 0x14CC PUSH2 0x46D7 JUMP JUMPDEST JUMPDEST PUSH1 0x40 MLOAD SWAP1 DUP1 DUP3 MSTORE DUP1 PUSH1 0x20 MUL PUSH1 0x20 ADD DUP3 ADD PUSH1 0x40 MSTORE DUP1 ISZERO PUSH2 0x14FB JUMPI DUP2 PUSH1 0x20 ADD PUSH1 0x20 DUP3 MUL DUP1 CALLDATASIZE DUP4 CALLDATACOPY DUP1 DUP3 ADD SWAP2 POP POP SWAP1 POP JUMPDEST POP DUP2 PUSH1 0x20 ADD DUP2 SWAP1 MSTORE POP PUSH1 0xA PUSH8 0xFFFFFFFFFFFFFFFF DUP2 GT ISZERO PUSH2 0x151F JUMPI PUSH2 0x151E PUSH2 0x46D7 JUMP JUMPDEST JUMPDEST PUSH1 0x40 MLOAD SWAP1 DUP1 DUP3 MSTORE DUP1 PUSH1 0x20 MUL PUSH1 0x20 ADD DUP3 ADD PUSH1 0x40 MSTORE DUP1 ISZERO PUSH2 0x154D JUMPI DUP2 PUSH1 0x20 ADD PUSH1 0x20 DUP3 MUL DUP1 CALLDATASIZE DUP4 CALLDATACOPY DUP1 DUP3 ADD SWAP2 POP POP SWAP1 POP JUMPDEST POP DUP2 PUSH1 0x40 ADD DUP2 SWAP1 MSTORE POP POP DUP1 PUSH2 0x1561 SWAP1 PUSH2 0x4764 JUMP JUMPDEST SWAP1 POP PUSH2 0x1428 JUMP JUMPDEST POP PUSH1 0x0 DUP3 SUB PUSH2 0x15A6 JUMPI DUP5 DUP2 PUSH2 0x180 ADD DUP2 SWAP1 MSTORE POP PUSH2 0x159F DUP8 PUSH1 0x0 DUP2 MLOAD DUP2 LT PUSH2 0x1592 JUMPI PUSH2 0x1591 PUSH2 0x4706 JUMP JUMPDEST JUMPDEST PUSH1 0x20 MUL PUSH1 0x20 ADD ADD MLOAD PUSH2 0x250C JUMP JUMPDEST POP POP PUSH2 0x1B76 JUMP JUMPDEST DUP7 PUSH1 0x1 DUP4 PUSH2 0x15B4 SWAP2 SWAP1 PUSH2 0x47E0 JUMP JUMPDEST DUP2 MLOAD DUP2 LT PUSH2 0x15C5 JUMPI PUSH2 0x15C4 PUSH2 0x4706 JUMP JUMPDEST JUMPDEST PUSH1 0x20 MUL PUSH1 0x20 ADD ADD MLOAD DUP8 DUP4 DUP2 MLOAD DUP2 LT PUSH2 0x15E0 JUMPI PUSH2 0x15DF PUSH2 0x4706 JUMP JUMPDEST JUMPDEST PUSH1 0x20 MUL PUSH1 0x20 ADD ADD DUP2 SWAP1 MSTORE POP PUSH1 0x0 JUMPDEST PUSH1 0x2 DUP2 LT ISZERO PUSH2 0x18FB JUMPI PUSH1 0xA PUSH8 0xFFFFFFFFFFFFFFFF DUP2 GT ISZERO PUSH2 0x1612 JUMPI PUSH2 0x1611 PUSH2 0x46D7 JUMP JUMPDEST JUMPDEST PUSH1 0x40 MLOAD SWAP1 DUP1 DUP3 MSTORE DUP1 PUSH1 0x20 MUL PUSH1 0x20 ADD DUP3 ADD PUSH1 0x40 MSTORE DUP1 ISZERO PUSH2 0x164B JUMPI DUP2 PUSH1 0x20 ADD JUMPDEST PUSH2 0x1638 PUSH2 0x38D4 JUMP JUMPDEST DUP2 MSTORE PUSH1 0x20 ADD SWAP1 PUSH1 0x1 SWAP1 SUB SWAP1 DUP2 PUSH2 0x1630 JUMPI SWAP1 POP JUMPDEST POP DUP9 DUP5 DUP2 MLOAD DUP2 LT PUSH2 0x165F JUMPI PUSH2 0x165E PUSH2 0x4706 JUMP JUMPDEST JUMPDEST PUSH1 0x20 MUL PUSH1 0x20 ADD ADD MLOAD PUSH2 0x180 ADD MLOAD DUP3 DUP2 MLOAD DUP2 LT PUSH2 0x167E JUMPI PUSH2 0x167D PUSH2 0x4706 JUMP JUMPDEST JUMPDEST PUSH1 0x20 MUL PUSH1 0x20 ADD ADD MLOAD PUSH1 0x0 ADD DUP2 SWAP1 MSTORE POP PUSH1 0x0 JUMPDEST PUSH1 0xA DUP2 LT ISZERO PUSH2 0x18E9 JUMPI DUP9 PUSH1 0x1 DUP6 PUSH2 0x16A7 SWAP2 SWAP1 PUSH2 0x47E0 JUMP JUMPDEST DUP2 MLOAD DUP2 LT PUSH2 0x16B8 JUMPI PUSH2 0x16B7 PUSH2 0x4706 JUMP JUMPDEST JUMPDEST PUSH1 0x20 MUL PUSH1 0x20 ADD ADD MLOAD PUSH2 0x180 ADD MLOAD DUP3 DUP2 MLOAD DUP2 LT PUSH2 0x16D7 JUMPI PUSH2 0x16D6 PUSH2 0x4706 JUMP JUMPDEST JUMPDEST PUSH1 0x20 MUL PUSH1 0x20 ADD ADD MLOAD PUSH1 0x0 ADD MLOAD DUP2 DUP2 MLOAD DUP2 LT PUSH2 0x16F5 JUMPI PUSH2 0x16F4 PUSH2 0x4706 JUMP JUMPDEST JUMPDEST PUSH1 0x20 MUL PUSH1 0x20 ADD ADD MLOAD DUP10 DUP6 DUP2 MLOAD DUP2 LT PUSH2 0x1710 JUMPI PUSH2 0x170F PUSH2 0x4706 JUMP JUMPDEST JUMPDEST PUSH1 0x20 MUL PUSH1 0x20 ADD ADD MLOAD PUSH2 0x180 ADD MLOAD DUP4 DUP2 MLOAD DUP2 LT PUSH2 0x172F JUMPI PUSH2 0x172E PUSH2 0x4706 JUMP JUMPDEST JUMPDEST PUSH1 0x20 MUL PUSH1 0x20 ADD ADD MLOAD PUSH1 0x0 ADD MLOAD DUP3 DUP2 MLOAD DUP2 LT PUSH2 0x174D JUMPI PUSH2 0x174C PUSH2 0x4706 JUMP JUMPDEST JUMPDEST PUSH1 0x20 MUL PUSH1 0x20 ADD ADD DUP2 SWAP1 MSTORE POP DUP9 PUSH1 0x1 DUP6 PUSH2 0x1766 SWAP2 SWAP1 PUSH2 0x47E0 JUMP JUMPDEST DUP2 MLOAD DUP2 LT PUSH2 0x1777 JUMPI PUSH2 0x1776 PUSH2 0x4706 JUMP JUMPDEST JUMPDEST PUSH1 0x20 MUL PUSH1 0x20 ADD ADD MLOAD PUSH2 0x180 ADD MLOAD DUP3 DUP2 MLOAD DUP2 LT PUSH2 0x1796 JUMPI PUSH2 0x1795 PUSH2 0x4706 JUMP JUMPDEST JUMPDEST PUSH1 0x20 MUL PUSH1 0x20 ADD ADD MLOAD PUSH1 0x20 ADD MLOAD DUP2 DUP2 MLOAD DUP2 LT PUSH2 0x17B4 JUMPI PUSH2 0x17B3 PUSH2 0x4706 JUMP JUMPDEST JUMPDEST PUSH1 0x20 MUL PUSH1 0x20 ADD ADD MLOAD DUP10 DUP6 DUP2 MLOAD DUP2 LT PUSH2 0x17CF JUMPI PUSH2 0x17CE PUSH2 0x4706 JUMP JUMPDEST JUMPDEST PUSH1 0x20 MUL PUSH1 0x20 ADD ADD MLOAD PUSH2 0x180 ADD MLOAD DUP4 DUP2 MLOAD DUP2 LT PUSH2 0x17EE JUMPI PUSH2 0x17ED PUSH2 0x4706 JUMP JUMPDEST JUMPDEST PUSH1 0x20 MUL PUSH1 0x20 ADD ADD MLOAD PUSH1 0x20 ADD MLOAD DUP3 DUP2 MLOAD DUP2 LT PUSH2 0x180C JUMPI PUSH2 0x180B PUSH2 0x4706 JUMP JUMPDEST JUMPDEST PUSH1 0x20 MUL PUSH1 0x20 ADD ADD DUP2 DUP2 MSTORE POP POP DUP9 PUSH1 0x1 DUP6 PUSH2 0x1826 SWAP2 SWAP1 PUSH2 0x47E0 JUMP JUMPDEST DUP2 MLOAD DUP2 LT PUSH2 0x1837 JUMPI PUSH2 0x1836 PUSH2 0x4706 JUMP JUMPDEST JUMPDEST PUSH1 0x20 MUL PUSH1 0x20 ADD ADD MLOAD PUSH2 0x180 ADD MLOAD DUP3 DUP2 MLOAD DUP2 LT PUSH2 0x1856 JUMPI PUSH2 0x1855 PUSH2 0x4706 JUMP JUMPDEST JUMPDEST PUSH1 0x20 MUL PUSH1 0x20 ADD ADD MLOAD PUSH1 0x40 ADD MLOAD DUP2 DUP2 MLOAD DUP2 LT PUSH2 0x1874 JUMPI PUSH2 0x1873 PUSH2 0x4706 JUMP JUMPDEST JUMPDEST PUSH1 0x20 MUL PUSH1 0x20 ADD ADD MLOAD DUP10 DUP6 DUP2 MLOAD DUP2 LT PUSH2 0x188F JUMPI PUSH2 0x188E PUSH2 0x4706 JUMP JUMPDEST JUMPDEST PUSH1 0x20 MUL PUSH1 0x20 ADD ADD MLOAD PUSH2 0x180 ADD MLOAD DUP4 DUP2 MLOAD DUP2 LT PUSH2 0x18AE JUMPI PUSH2 0x18AD PUSH2 0x4706 JUMP JUMPDEST JUMPDEST PUSH1 0x20 MUL PUSH1 0x20 ADD ADD MLOAD PUSH1 0x40 ADD MLOAD DUP3 DUP2 MLOAD DUP2 LT PUSH2 0x18CC JUMPI PUSH2 0x18CB PUSH2 0x4706 JUMP JUMPDEST JUMPDEST PUSH1 0x20 MUL PUSH1 0x20 ADD ADD DUP2 DUP2 MSTORE POP POP DUP1 PUSH2 0x18E2 SWAP1 PUSH2 0x4764 JUMP JUMPDEST SWAP1 POP PUSH2 0x1690 JUMP JUMPDEST POP DUP1 PUSH2 0x18F4 SWAP1 PUSH2 0x4764 JUMP JUMPDEST SWAP1 POP PUSH2 0x15EE JUMP JUMPDEST POP PUSH1 0x5 DUP3 LT ISZERO PUSH2 0x1A35 JUMPI PUSH1 0x0 JUMPDEST PUSH1 0x2 DUP2 LT ISZERO PUSH2 0x19AD JUMPI PUSH1 0x0 JUMPDEST PUSH1 0xA DUP2 LT ISZERO PUSH2 0x199B JUMPI PUSH2 0x196C DUP8 DUP7 DUP5 DUP5 DUP14 PUSH1 0x1 DUP11 PUSH2 0x1932 SWAP2 SWAP1 PUSH2 0x47E0 JUMP JUMPDEST DUP2 MLOAD DUP2 LT PUSH2 0x1943 JUMPI PUSH2 0x1942 PUSH2 0x4706 JUMP JUMPDEST JUMPDEST PUSH1 0x20 MUL PUSH1 0x20 ADD ADD MLOAD DUP15 DUP11 DUP2 MLOAD DUP2 LT PUSH2 0x195E JUMPI PUSH2 0x195D PUSH2 0x4706 JUMP JUMPDEST JUMPDEST PUSH1 0x20 MUL PUSH1 0x20 ADD ADD MLOAD DUP11 PUSH2 0x259F JUMP JUMPDEST DUP10 DUP6 DUP2 MLOAD DUP2 LT PUSH2 0x197F JUMPI PUSH2 0x197E PUSH2 0x4706 JUMP JUMPDEST JUMPDEST PUSH1 0x20 MUL PUSH1 0x20 ADD ADD DUP2 SWAP1 MSTORE POP DUP1 PUSH2 0x1994 SWAP1 PUSH2 0x4764 JUMP JUMPDEST SWAP1 POP PUSH2 0x1914 JUMP JUMPDEST POP DUP1 PUSH2 0x19A6 SWAP1 PUSH2 0x4764 JUMP JUMPDEST SWAP1 POP PUSH2 0x1908 JUMP JUMPDEST POP PUSH2 0x19D1 DUP8 DUP4 DUP2 MLOAD DUP2 LT PUSH2 0x19C4 JUMPI PUSH2 0x19C3 PUSH2 0x4706 JUMP JUMPDEST JUMPDEST PUSH1 0x20 MUL PUSH1 0x20 ADD ADD MLOAD PUSH2 0x250C JUMP JUMPDEST DUP8 DUP4 DUP2 MLOAD DUP2 LT PUSH2 0x19E4 JUMPI PUSH2 0x19E3 PUSH2 0x4706 JUMP JUMPDEST JUMPDEST PUSH1 0x20 MUL PUSH1 0x20 ADD ADD DUP2 SWAP1 MSTORE POP PUSH2 0x1A12 DUP8 DUP4 DUP2 MLOAD DUP2 LT PUSH2 0x1A05 JUMPI PUSH2 0x1A04 PUSH2 0x4706 JUMP JUMPDEST JUMPDEST PUSH1 0x20 MUL PUSH1 0x20 ADD ADD MLOAD PUSH2 0x2CC1 JUMP JUMPDEST DUP8 DUP4 DUP2 MLOAD DUP2 LT PUSH2 0x1A25 JUMPI PUSH2 0x1A24 PUSH2 0x4706 JUMP JUMPDEST JUMPDEST PUSH1 0x20 MUL PUSH1 0x20 ADD ADD DUP2 SWAP1 MSTORE POP PUSH2 0x1B74 JUMP JUMPDEST PUSH1 0x0 ISZERO ISZERO DUP8 DUP4 DUP2 MLOAD DUP2 LT PUSH2 0x1A4C JUMPI PUSH2 0x1A4B PUSH2 0x4706 JUMP JUMPDEST JUMPDEST PUSH1 0x20 MUL PUSH1 0x20 ADD ADD MLOAD PUSH1 0xC0 ADD MLOAD ISZERO ISZERO EQ DUP1 ISZERO PUSH2 0x1AA3 JUMPI POP DUP7 PUSH1 0x0 DUP2 MLOAD DUP2 LT PUSH2 0x1A76 JUMPI PUSH2 0x1A75 PUSH2 0x4706 JUMP JUMPDEST JUMPDEST PUSH1 0x20 MUL PUSH1 0x20 ADD ADD MLOAD PUSH1 0x40 ADD MLOAD DUP8 DUP4 DUP2 MLOAD DUP2 LT PUSH2 0x1A95 JUMPI PUSH2 0x1A94 PUSH2 0x4706 JUMP JUMPDEST JUMPDEST PUSH1 0x20 MUL PUSH1 0x20 ADD ADD MLOAD PUSH1 0x40 ADD MLOAD EQ JUMPDEST ISZERO PUSH2 0x1B73 JUMPI PUSH2 0x1B54 DUP8 PUSH1 0x1 PUSH1 0x5 PUSH2 0x1ABA SWAP2 SWAP1 PUSH2 0x47E0 JUMP JUMPDEST DUP2 MLOAD DUP2 LT PUSH2 0x1ACB JUMPI PUSH2 0x1ACA PUSH2 0x4706 JUMP JUMPDEST JUMPDEST PUSH1 0x20 MUL PUSH1 0x20 ADD ADD MLOAD DUP9 PUSH1 0x0 DUP2 MLOAD DUP2 LT PUSH2 0x1AE7 JUMPI PUSH2 0x1AE6 PUSH2 0x4706 JUMP JUMPDEST JUMPDEST PUSH1 0x20 MUL PUSH1 0x20 ADD ADD MLOAD PUSH1 0x40 ADD MLOAD DUP6 DUP11 PUSH1 0x1 DUP8 PUSH2 0x1B02 SWAP2 SWAP1 PUSH2 0x47E0 JUMP JUMPDEST DUP2 MLOAD DUP2 LT PUSH2 0x1B13 JUMPI PUSH2 0x1B12 PUSH2 0x4706 JUMP JUMPDEST JUMPDEST PUSH1 0x20 MUL PUSH1 0x20 ADD ADD MLOAD DUP12 DUP8 DUP2 MLOAD DUP2 LT PUSH2 0x1B2E JUMPI PUSH2 0x1B2D PUSH2 0x4706 JUMP JUMPDEST JUMPDEST PUSH1 0x20 MUL PUSH1 0x20 ADD ADD MLOAD PUSH1 0x5 DUP9 PUSH1 0x1 PUSH2 0x1B45 SWAP2 SWAP1 PUSH2 0x47AC JUMP JUMPDEST PUSH2 0x1B4F SWAP2 SWAP1 PUSH2 0x47E0 JUMP JUMPDEST PUSH2 0x2D90 JUMP JUMPDEST DUP8 DUP4 DUP2 MLOAD DUP2 LT PUSH2 0x1B67 JUMPI PUSH2 0x1B66 PUSH2 0x4706 JUMP JUMPDEST JUMPDEST PUSH1 0x20 MUL PUSH1 0x20 ADD ADD DUP2 SWAP1 MSTORE POP JUMPDEST JUMPDEST POP JUMPDEST DUP1 PUSH2 0x1B80 SWAP1 PUSH2 0x4764 JUMP JUMPDEST SWAP1 POP PUSH2 0x1393 JUMP JUMPDEST POP POP POP POP POP SWAP3 SWAP2 POP POP JUMP JUMPDEST PUSH1 0x9 DUP2 JUMP JUMPDEST PUSH1 0xA PUSH1 0x0 SWAP1 SLOAD SWAP1 PUSH2 0x100 EXP SWAP1 DIV PUSH20 0xFFFFFFFFFFFFFFFFFFFFFFFFFFFFFFFFFFFFFFFF AND DUP2 JUMP JUMPDEST PUSH2 0x3E8 DUP2 JUMP JUMPDEST PUSH1 0xA DUP2 JUMP JUMPDEST PUSH1 0x0 DUP1 PUSH1 0xA PUSH1 0x0 SWAP1 SLOAD SWAP1 PUSH2 0x100 EXP SWAP1 DIV PUSH20 0xFFFFFFFFFFFFFFFFFFFFFFFFFFFFFFFFFFFFFFFF AND PUSH20 0xFFFFFFFFFFFFFFFFFFFFFFFFFFFFFFFFFFFFFFFF AND DUP4 PUSH1 0x40 MLOAD PUSH1 0x24 ADD PUSH2 0x1C15 SWAP2 SWAP1 PUSH2 0x39C0 JUMP JUMPDEST PUSH1 0x40 MLOAD PUSH1 0x20 DUP2 DUP4 SUB SUB DUP2 MSTORE SWAP1 PUSH1 0x40 MSTORE PUSH32 0x5CD6925A00000000000000000000000000000000000000000000000000000000 PUSH28 0xFFFFFFFFFFFFFFFFFFFFFFFFFFFFFFFFFFFFFFFFFFFFFFFFFFFFFFFF NOT AND PUSH1 0x20 DUP3 ADD DUP1 MLOAD PUSH28 0xFFFFFFFFFFFFFFFFFFFFFFFFFFFFFFFFFFFFFFFFFFFFFFFFFFFFFFFF DUP4 DUP2 DUP4 AND OR DUP4 MSTORE POP POP POP POP PUSH1 0x40 MLOAD PUSH2 0x1C9F SWAP2 SWAP1 PUSH2 0x44C2 JUMP JUMPDEST PUSH1 0x0 PUSH1 0x40 MLOAD DUP1 DUP4 SUB DUP2 DUP6 GAS DELEGATECALL SWAP2 POP POP RETURNDATASIZE DUP1 PUSH1 0x0 DUP2 EQ PUSH2 0x1CDA JUMPI PUSH1 0x40 MLOAD SWAP2 POP PUSH1 0x1F NOT PUSH1 0x3F RETURNDATASIZE ADD AND DUP3 ADD PUSH1 0x40 MSTORE RETURNDATASIZE DUP3 MSTORE RETURNDATASIZE PUSH1 0x0 PUSH1 0x20 DUP5 ADD RETURNDATACOPY PUSH2 0x1CDF JUMP JUMPDEST PUSH1 0x60 SWAP2 POP JUMPDEST POP SWAP2 POP SWAP2 POP DUP2 PUSH2 0x1D24 JUMPI PUSH1 0x40 MLOAD PUSH32 0x8C379A000000000000000000000000000000000000000000000000000000000 DUP2 MSTORE PUSH1 0x4 ADD PUSH2 0x1D1B SWAP1 PUSH2 0x4886 JUMP JUMPDEST PUSH1 0x40 MLOAD DUP1 SWAP2 SUB SWAP1 REVERT JUMPDEST POP POP POP JUMP JUMPDEST PUSH1 0xA DUP2 JUMP JUMPDEST PUSH1 0x0 DUP1 SLOAD SWAP1 PUSH2 0x100 EXP SWAP1 DIV PUSH20 0xFFFFFFFFFFFFFFFFFFFFFFFFFFFFFFFFFFFFFFFF AND DUP2 JUMP JUMPDEST PUSH1 0x7 DUP2 JUMP JUMPDEST PUSH1 0x6 PUSH1 0x20 MSTORE DUP1 PUSH1 0x0 MSTORE PUSH1 0x40 PUSH1 0x0 KECCAK256 PUSH1 0x0 SWAP2 POP SWAP1 POP SLOAD DUP2 JUMP JUMPDEST PUSH1 0x2 PUSH1 0x0 SWAP1 SLOAD SWAP1 PUSH2 0x100 EXP SWAP1 DIV PUSH20 0xFFFFFFFFFFFFFFFFFFFFFFFFFFFFFFFFFFFFFFFF AND DUP2 JUMP JUMPDEST PUSH1 0x0 DUP1 PUSH1 0xA PUSH1 0x0 SWAP1 SLOAD SWAP1 PUSH2 0x100 EXP SWAP1 DIV PUSH20 0xFFFFFFFFFFFFFFFFFFFFFFFFFFFFFFFFFFFFFFFF AND PUSH20 0xFFFFFFFFFFFFFFFFFFFFFFFFFFFFFFFFFFFFFFFF AND DUP4 PUSH1 0x40 MLOAD PUSH1 0x24 ADD PUSH2 0x1DE2 SWAP2 SWAP1 PUSH2 0x39C0 JUMP JUMPDEST PUSH1 0x40 MLOAD PUSH1 0x20 DUP2 DUP4 SUB SUB DUP2 MSTORE SWAP1 PUSH1 0x40 MSTORE PUSH32 0x90EDE5D500000000000000000000000000000000000000000000000000000000 PUSH28 0xFFFFFFFFFFFFFFFFFFFFFFFFFFFFFFFFFFFFFFFFFFFFFFFFFFFFFFFF NOT AND PUSH1 0x20 DUP3 ADD DUP1 MLOAD PUSH28 0xFFFFFFFFFFFFFFFFFFFFFFFFFFFFFFFFFFFFFFFFFFFFFFFFFFFFFFFF DUP4 DUP2 DUP4 AND OR DUP4 MSTORE POP POP POP POP PUSH1 0x40 MLOAD PUSH2 0x1E6C SWAP2 SWAP1 PUSH2 0x44C2 JUMP JUMPDEST PUSH1 0x0 PUSH1 0x40 MLOAD DUP1 DUP4 SUB DUP2 DUP6 GAS DELEGATECALL SWAP2 POP POP RETURNDATASIZE DUP1 PUSH1 0x0 DUP2 EQ PUSH2 0x1EA7 JUMPI PUSH1 0x40 MLOAD SWAP2 POP PUSH1 0x1F NOT PUSH1 0x3F RETURNDATASIZE ADD AND DUP3 ADD PUSH1 0x40 MSTORE RETURNDATASIZE DUP3 MSTORE RETURNDATASIZE PUSH1 0x0 PUSH1 0x20 DUP5 ADD RETURNDATACOPY PUSH2 0x1EAC JUMP JUMPDEST PUSH1 0x60 SWAP2 POP JUMPDEST POP SWAP2 POP SWAP2 POP DUP2 PUSH2 0x1EF1 JUMPI PUSH1 0x40 MLOAD PUSH32 0x8C379A000000000000000000000000000000000000000000000000000000000 DUP2 MSTORE PUSH1 0x4 ADD PUSH2 0x1EE8 SWAP1 PUSH2 0x4918 JUMP JUMPDEST PUSH1 0x40 MLOAD DUP1 SWAP2 SUB SWAP1 REVERT JUMPDEST POP POP POP JUMP JUMPDEST PUSH1 0xA DUP2 JUMP JUMPDEST PUSH1 0x5 DUP2 JUMP JUMPDEST PUSH2 0x1F08 PUSH2 0x3984 JUMP JUMPDEST PUSH1 0x0 PUSH2 0x1F14 DUP7 DUP7 PUSH2 0xB54 JUMP JUMPDEST SWAP1 POP PUSH1 0x0 JUMPDEST PUSH1 0xA DUP2 LT ISZERO PUSH2 0x1FA7 JUMPI DUP2 DUP6 DUP2 MLOAD DUP2 LT PUSH2 0x1F35 JUMPI PUSH2 0x1F34 PUSH2 0x4706 JUMP JUMPDEST JUMPDEST PUSH1 0x20 MUL PUSH1 0x20 ADD ADD MLOAD PUSH2 0x180 ADD MLOAD DUP5 DUP2 MLOAD DUP2 LT PUSH2 0x1F54 JUMPI PUSH2 0x1F53 PUSH2 0x4706 JUMP JUMPDEST JUMPDEST PUSH1 0x20 MUL PUSH1 0x20 ADD ADD MLOAD PUSH1 0x20 ADD MLOAD DUP2 DUP2 MLOAD DUP2 LT PUSH2 0x1F72 JUMPI PUSH2 0x1F71 PUSH2 0x4706 JUMP JUMPDEST JUMPDEST PUSH1 0x20 MUL PUSH1 0x20 ADD ADD MLOAD DUP4 DUP3 PUSH1 0xA DUP2 LT PUSH2 0x1F8D JUMPI PUSH2 0x1F8C PUSH2 0x4706 JUMP JUMPDEST JUMPDEST PUSH1 0x20 MUL ADD DUP2 DUP2 MSTORE POP POP DUP1 PUSH2 0x1FA0 SWAP1 PUSH2 0x4764 JUMP JUMPDEST SWAP1 POP PUSH2 0x1F19 JUMP JUMPDEST POP POP SWAP5 SWAP4 POP POP POP POP JUMP JUMPDEST PUSH1 0x4 PUSH1 0x20 MSTORE DUP1 PUSH1 0x0 MSTORE PUSH1 0x40 PUSH1 0x0 KECCAK256 PUSH1 0x0 SWAP2 POP SWAP1 POP DUP1 PUSH1 0x0 ADD SLOAD SWAP1 DUP1 PUSH1 0x3 ADD PUSH1 0x0 SWAP1 SLOAD SWAP1 PUSH2 0x100 EXP SWAP1 DIV PUSH1 0xFF AND SWAP1 DUP1 PUSH1 0x4 ADD SLOAD SWAP1 POP DUP4 JUMP JUMPDEST PUSH1 0x1 PUSH1 0x0 SWAP1 SLOAD SWAP1 PUSH2 0x100 EXP SWAP1 DIV PUSH20 0xFFFFFFFFFFFFFFFFFFFFFFFFFFFFFFFFFFFFFFFF AND DUP2 JUMP JUMPDEST PUSH1 0x2 DUP2 JUMP JUMPDEST PUSH1 0x0 PUSH1 0x4 PUSH1 0x0 DUP4 DUP2 MSTORE PUSH1 0x20 ADD SWAP1 DUP2 MSTORE PUSH1 0x20 ADD PUSH1 0x0 KECCAK256 SWAP1 POP PUSH1 0x8 PUSH1 0xA DUP2 GT ISZERO PUSH2 0x203E JUMPI PUSH2 0x203D PUSH2 0x434F JUMP JUMPDEST JUMPDEST DUP2 PUSH1 0x3 ADD PUSH1 0x0 SWAP1 SLOAD SWAP1 PUSH2 0x100 EXP SWAP1 DIV PUSH1 0xFF AND PUSH1 0xA DUP2 GT ISZERO PUSH2 0x2062 JUMPI PUSH2 0x2061 PUSH2 0x434F JUMP JUMPDEST JUMPDEST EQ PUSH2 0x20A2 JUMPI PUSH1 0x40 MLOAD PUSH32 0x8C379A000000000000000000000000000000000000000000000000000000000 DUP2 MSTORE PUSH1 0x4 ADD PUSH2 0x2099 SWAP1 PUSH2 0x49AA JUMP JUMPDEST PUSH1 0x40 MLOAD DUP1 SWAP2 SUB SWAP1 REVERT JUMPDEST PUSH1 0x0 PUSH1 0x6 PUSH1 0x0 DUP5 DUP2 MSTORE PUSH1 0x20 ADD SWAP1 DUP2 MSTORE PUSH1 0x20 ADD PUSH1 0x0 KECCAK256 SLOAD SWAP1 POP PUSH1 0x0 PUSH2 0x20C6 DUP5 DUP4 PUSH2 0xB54 JUMP JUMPDEST SWAP1 POP PUSH1 0x0 DUP2 PUSH1 0x1 DUP4 MLOAD PUSH2 0x20D9 SWAP2 SWAP1 PUSH2 0x47E0 JUMP JUMPDEST DUP2 MLOAD DUP2 LT PUSH2 0x20EA JUMPI PUSH2 0x20E9 PUSH2 0x4706 JUMP JUMPDEST JUMPDEST PUSH1 0x20 MUL PUSH1 0x20 ADD ADD MLOAD PUSH2 0x180 ADD MLOAD SWAP1 POP PUSH1 0x0 PUSH1 0x8 PUSH1 0x0 DUP8 DUP2 MSTORE PUSH1 0x20 ADD SWAP1 DUP2 MSTORE PUSH1 0x20 ADD PUSH1 0x0 KECCAK256 PUSH1 0x0 PUSH1 0x1 DUP7 PUSH2 0x211D SWAP2 SWAP1 PUSH2 0x47AC JUMP JUMPDEST DUP2 MSTORE PUSH1 0x20 ADD SWAP1 DUP2 MSTORE PUSH1 0x20 ADD PUSH1 0x0 KECCAK256 SWAP1 POP PUSH1 0x0 JUMPDEST PUSH1 0x2 DUP2 LT ISZERO PUSH2 0x2300 JUMPI PUSH1 0x0 JUMPDEST PUSH1 0xA DUP2 LT ISZERO PUSH2 0x22EE JUMPI DUP4 DUP3 DUP2 MLOAD DUP2 LT PUSH2 0x2158 JUMPI PUSH2 0x2157 PUSH2 0x4706 JUMP JUMPDEST JUMPDEST PUSH1 0x20 MUL PUSH1 0x20 ADD ADD MLOAD PUSH1 0x0 ADD MLOAD DUP2 DUP2 MLOAD DUP2 LT PUSH2 0x2176 JUMPI PUSH2 0x2175 PUSH2 0x4706 JUMP JUMPDEST JUMPDEST PUSH1 0x20 MUL PUSH1 0x20 ADD ADD MLOAD DUP4 DUP4 DUP2 SLOAD DUP2 LT PUSH2 0x2191 JUMPI PUSH2 0x2190 PUSH2 0x4706 JUMP JUMPDEST JUMPDEST SWAP1 PUSH1 0x0 MSTORE PUSH1 0x20 PUSH1 0x0 KECCAK256 SWAP1 PUSH1 0x3 MUL ADD PUSH1 0x0 ADD DUP3 DUP2 SLOAD DUP2 LT PUSH2 0x21B4 JUMPI PUSH2 0x21B3 PUSH2 0x4706 JUMP JUMPDEST JUMPDEST SWAP1 PUSH1 0x0 MSTORE PUSH1 0x20 PUSH1 0x0 KECCAK256 SWAP1 PUSH1 0x3 MUL ADD PUSH1 0x0 DUP3 ADD MLOAD DUP2 PUSH1 0x0 ADD SSTORE PUSH1 0x20 DUP3 ADD MLOAD DUP2 PUSH1 0x1 ADD SSTORE PUSH1 0x40 DUP3 ADD MLOAD DUP2 PUSH1 0x2 ADD SSTORE SWAP1 POP POP DUP4 DUP3 DUP2 MLOAD DUP2 LT PUSH2 0x21F6 JUMPI PUSH2 0x21F5 PUSH2 0x4706 JUMP JUMPDEST JUMPDEST PUSH1 0x20 MUL PUSH1 0x20 ADD ADD MLOAD PUSH1 0x20 ADD MLOAD DUP2 DUP2 MLOAD DUP2 LT PUSH2 0x2214 JUMPI PUSH2 0x2213 PUSH2 0x4706 JUMP JUMPDEST JUMPDEST PUSH1 0x20 MUL PUSH1 0x20 ADD ADD MLOAD DUP4 DUP4 DUP2 SLOAD DUP2 LT PUSH2 0x222F JUMPI PUSH2 0x222E PUSH2 0x4706 JUMP JUMPDEST JUMPDEST SWAP1 PUSH1 0x0 MSTORE PUSH1 0x20 PUSH1 0x0 KECCAK256 SWAP1 PUSH1 0x3 MUL ADD PUSH1 0x1 ADD DUP3 DUP2 SLOAD DUP2 LT PUSH2 0x2252 JUMPI PUSH2 0x2251 PUSH2 0x4706 JUMP JUMPDEST JUMPDEST SWAP1 PUSH1 0x0 MSTORE PUSH1 0x20 PUSH1 0x0 KECCAK256 ADD DUP2 SWAP1 SSTORE POP DUP4 DUP3 DUP2 MLOAD DUP2 LT PUSH2 0x2273 JUMPI PUSH2 0x2272 PUSH2 0x4706 JUMP JUMPDEST JUMPDEST PUSH1 0x20 MUL PUSH1 0x20 ADD ADD MLOAD PUSH1 0x40 ADD MLOAD DUP2 DUP2 MLOAD DUP2 LT PUSH2 0x2291 JUMPI PUSH2 0x2290 PUSH2 0x4706 JUMP JUMPDEST JUMPDEST PUSH1 0x20 MUL PUSH1 0x20 ADD ADD MLOAD DUP4 DUP4 DUP2 SLOAD DUP2 LT PUSH2 0x22AC JUMPI PUSH2 0x22AB PUSH2 0x4706 JUMP JUMPDEST JUMPDEST SWAP1 PUSH1 0x0 MSTORE PUSH1 0x20 PUSH1 0x0 KECCAK256 SWAP1 PUSH1 0x3 MUL ADD PUSH1 0x2 ADD DUP3 DUP2 SLOAD DUP2 LT PUSH2 0x22CF JUMPI PUSH2 0x22CE PUSH2 0x4706 JUMP JUMPDEST JUMPDEST SWAP1 PUSH1 0x0 MSTORE PUSH1 0x20 PUSH1 0x0 KECCAK256 ADD DUP2 SWAP1 SSTORE POP DUP1 PUSH2 0x22E7 SWAP1 PUSH2 0x4764 JUMP JUMPDEST SWAP1 POP PUSH2 0x213C JUMP JUMPDEST POP DUP1 PUSH2 0x22F9 SWAP1 PUSH2 0x4764 JUMP JUMPDEST SWAP1 POP PUSH2 0x2130 JUMP JUMPDEST POP PUSH1 0x1 PUSH1 0x6 PUSH1 0x0 DUP9 DUP2 MSTORE PUSH1 0x20 ADD SWAP1 DUP2 MSTORE PUSH1 0x20 ADD PUSH1 0x0 KECCAK256 PUSH1 0x0 DUP3 DUP3 SLOAD PUSH2 0x2325 SWAP2 SWAP1 PUSH2 0x47AC JUMP JUMPDEST SWAP3 POP POP DUP2 SWAP1 SSTORE POP PUSH1 0x9 DUP6 PUSH1 0x3 ADD PUSH1 0x0 PUSH2 0x100 EXP DUP2 SLOAD DUP2 PUSH1 0xFF MUL NOT AND SWAP1 DUP4 PUSH1 0xA DUP2 GT ISZERO PUSH2 0x2354 JUMPI PUSH2 0x2353 PUSH2 0x434F JUMP JUMPDEST JUMPDEST MUL OR SWAP1 SSTORE POP PUSH32 0x58D4562CF15D1052E816FD24F6AF2C8A3A21416D6E4C01A9E11EF84FFE537E25 DUP7 DUP7 PUSH1 0x3 ADD PUSH1 0x0 SWAP1 SLOAD SWAP1 PUSH2 0x100 EXP SWAP1 DIV PUSH1 0xFF AND PUSH1 0x40 MLOAD PUSH2 0x239B SWAP3 SWAP2 SWAP1 PUSH2 0x49CA JUMP JUMPDEST PUSH1 0x40 MLOAD DUP1 SWAP2 SUB SWAP1 LOG1 POP POP POP POP POP POP JUMP JUMPDEST PUSH1 0x0 DUP1 PUSH1 0xA PUSH1 0x0 SWAP1 SLOAD SWAP1 PUSH2 0x100 EXP SWAP1 DIV PUSH20 0xFFFFFFFFFFFFFFFFFFFFFFFFFFFFFFFFFFFFFFFF AND PUSH20 0xFFFFFFFFFFFFFFFFFFFFFFFFFFFFFFFFFFFFFFFF AND DUP4 PUSH1 0x40 MLOAD PUSH1 0x24 ADD PUSH2 0x23F8 SWAP2 SWAP1 PUSH2 0x39C0 JUMP JUMPDEST PUSH1 0x40 MLOAD PUSH1 0x20 DUP2 DUP4 SUB SUB DUP2 MSTORE SWAP1 PUSH1 0x40 MSTORE PUSH32 0xF978103300000000000000000000000000000000000000000000000000000000 PUSH28 0xFFFFFFFFFFFFFFFFFFFFFFFFFFFFFFFFFFFFFFFFFFFFFFFFFFFFFFFF NOT AND PUSH1 0x20 DUP3 ADD DUP1 MLOAD PUSH28 0xFFFFFFFFFFFFFFFFFFFFFFFFFFFFFFFFFFFFFFFFFFFFFFFFFFFFFFFF DUP4 DUP2 DUP4 AND OR DUP4 MSTORE POP POP POP POP PUSH1 0x40 MLOAD PUSH2 0x2482 SWAP2 SWAP1 PUSH2 0x44C2 JUMP JUMPDEST PUSH1 0x0 PUSH1 0x40 MLOAD DUP1 DUP4 SUB DUP2 DUP6 GAS DELEGATECALL SWAP2 POP POP RETURNDATASIZE DUP1 PUSH1 0x0 DUP2 EQ PUSH2 0x24BD JUMPI PUSH1 0x40 MLOAD SWAP2 POP PUSH1 0x1F NOT PUSH1 0x3F RETURNDATASIZE ADD AND DUP3 ADD PUSH1 0x40 MSTORE RETURNDATASIZE DUP3 MSTORE RETURNDATASIZE PUSH1 0x0 PUSH1 0x20 DUP5 ADD RETURNDATACOPY PUSH2 0x24C2 JUMP JUMPDEST PUSH1 0x60 SWAP2 POP JUMPDEST POP SWAP2 POP SWAP2 POP DUP2 PUSH2 0x2507 JUMPI PUSH1 0x40 MLOAD PUSH32 0x8C379A000000000000000000000000000000000000000000000000000000000 DUP2 MSTORE PUSH1 0x4 ADD PUSH2 0x24FE SWAP1 PUSH2 0x4A65 JUMP JUMPDEST PUSH1 0x40 MLOAD DUP1 SWAP2 SUB SWAP1 REVERT JUMPDEST POP POP POP JUMP JUMPDEST PUSH2 0x2514 PUSH2 0x38F5 JUMP JUMPDEST PUSH1 0x0 DUP3 PUSH2 0x180 ADD MLOAD DUP4 PUSH1 0x40 ADD MLOAD DUP2 MLOAD DUP2 LT PUSH2 0x2532 JUMPI PUSH2 0x2531 PUSH2 0x4706 JUMP JUMPDEST JUMPDEST PUSH1 0x20 MUL PUSH1 0x20 ADD ADD MLOAD SWAP1 POP DUP1 PUSH1 0x20 ADD MLOAD DUP4 PUSH1 0x60 ADD MLOAD DUP2 MLOAD DUP2 LT PUSH2 0x2557 JUMPI PUSH2 0x2556 PUSH2 0x4706 JUMP JUMPDEST JUMPDEST PUSH1 0x20 MUL PUSH1 0x20 ADD ADD MLOAD DUP4 PUSH2 0x100 ADD DUP2 DUP2 MSTORE POP POP DUP1 PUSH1 0x40 ADD MLOAD DUP4 PUSH1 0x60 ADD MLOAD DUP2 MLOAD DUP2 LT PUSH2 0x2584 JUMPI PUSH2 0x2583 PUSH2 0x4706 JUMP JUMPDEST JUMPDEST PUSH1 0x20 MUL PUSH1 0x20 ADD ADD MLOAD DUP4 PUSH2 0x120 ADD DUP2 DUP2 MSTORE POP POP DUP3 SWAP2 POP POP SWAP2 SWAP1 POP JUMP JUMPDEST PUSH2 0x25A7 PUSH2 0x38F5 JUMP JUMPDEST PUSH1 0x0 PUSH1 0x40 MLOAD DUP1 PUSH1 0x40 ADD PUSH1 0x40 MSTORE DUP1 DUP10 DUP10 DUP2 MLOAD DUP2 LT PUSH2 0x25C7 JUMPI PUSH2 0x25C6 PUSH2 0x4706 JUMP JUMPDEST JUMPDEST PUSH1 0x20 MUL PUSH1 0x20 ADD ADD MLOAD PUSH1 0x40 ADD MLOAD DUP9 DUP2 MLOAD DUP2 LT PUSH2 0x25E5 JUMPI PUSH2 0x25E4 PUSH2 0x4706 JUMP JUMPDEST JUMPDEST PUSH1 0x20 MUL PUSH1 0x20 ADD ADD MLOAD DUP2 MSTORE PUSH1 0x20 ADD DUP10 DUP10 DUP2 MLOAD DUP2 LT PUSH2 0x2605 JUMPI PUSH2 0x2604 PUSH2 0x4706 JUMP JUMPDEST JUMPDEST PUSH1 0x20 MUL PUSH1 0x20 ADD ADD MLOAD PUSH1 0x60 ADD MLOAD DUP9 DUP2 MLOAD DUP2 LT PUSH2 0x2623 JUMPI PUSH2 0x2622 PUSH2 0x4706 JUMP JUMPDEST JUMPDEST PUSH1 0x20 MUL PUSH1 0x20 ADD ADD MLOAD DUP2 MSTORE POP SWAP1 POP PUSH1 0x0 PUSH1 0x40 MLOAD DUP1 PUSH1 0x40 ADD PUSH1 0x40 MSTORE DUP1 DUP12 DUP11 DUP2 MLOAD DUP2 LT PUSH2 0x2650 JUMPI PUSH2 0x264F PUSH2 0x4706 JUMP JUMPDEST JUMPDEST PUSH1 0x20 MUL PUSH1 0x20 ADD ADD MLOAD PUSH1 0x20 ADD MLOAD DUP10 DUP2 MLOAD DUP2 LT PUSH2 0x266E JUMPI PUSH2 0x266D PUSH2 0x4706 JUMP JUMPDEST JUMPDEST PUSH1 0x20 MUL PUSH1 0x20 ADD ADD MLOAD DUP2 MSTORE PUSH1 0x20 ADD DUP12 DUP11 DUP2 MLOAD DUP2 LT PUSH2 0x268E JUMPI PUSH2 0x268D PUSH2 0x4706 JUMP JUMPDEST JUMPDEST PUSH1 0x20 MUL PUSH1 0x20 ADD ADD MLOAD PUSH1 0x40 ADD MLOAD DUP10 DUP2 MLOAD DUP2 LT PUSH2 0x26AC JUMPI PUSH2 0x26AB PUSH2 0x4706 JUMP JUMPDEST JUMPDEST PUSH1 0x20 MUL PUSH1 0x20 ADD ADD MLOAD DUP2 MSTORE POP SWAP1 POP PUSH1 0x0 PUSH1 0x40 MLOAD DUP1 PUSH1 0x40 ADD PUSH1 0x40 MSTORE DUP1 DUP9 PUSH2 0x180 ADD MLOAD DUP12 DUP2 MLOAD DUP2 LT PUSH2 0x26DE JUMPI PUSH2 0x26DD PUSH2 0x4706 JUMP JUMPDEST JUMPDEST PUSH1 0x20 MUL PUSH1 0x20 ADD ADD MLOAD PUSH1 0x20 ADD MLOAD DUP11 DUP2 MLOAD DUP2 LT PUSH2 0x26FC JUMPI PUSH2 0x26FB PUSH2 0x4706 JUMP JUMPDEST JUMPDEST PUSH1 0x20 MUL PUSH1 0x20 ADD ADD MLOAD DUP2 MSTORE PUSH1 0x20 ADD DUP9 PUSH2 0x180 ADD MLOAD DUP12 DUP2 MLOAD DUP2 LT PUSH2 0x2721 JUMPI PUSH2 0x2720 PUSH2 0x4706 JUMP JUMPDEST JUMPDEST PUSH1 0x20 MUL PUSH1 0x20 ADD ADD MLOAD PUSH1 0x40 ADD MLOAD DUP11 DUP2 MLOAD DUP2 LT PUSH2 0x273F JUMPI PUSH2 0x273E PUSH2 0x4706 JUMP JUMPDEST JUMPDEST PUSH1 0x20 MUL PUSH1 0x20 ADD ADD MLOAD DUP2 MSTORE POP SWAP1 POP DUP3 PUSH1 0x0 PUSH1 0x2 DUP2 LT PUSH2 0x2760 JUMPI PUSH2 0x275F PUSH2 0x4706 JUMP JUMPDEST JUMPDEST PUSH1 0x20 MUL ADD MLOAD DUP2 PUSH1 0x0 PUSH1 0x2 DUP2 LT PUSH2 0x2779 JUMPI PUSH2 0x2778 PUSH2 0x4706 JUMP JUMPDEST JUMPDEST PUSH1 0x20 MUL ADD MLOAD EQ DUP1 ISZERO PUSH2 0x27BA JUMPI POP DUP1 PUSH1 0x1 PUSH1 0x2 DUP2 LT PUSH2 0x279A JUMPI PUSH2 0x2799 PUSH2 0x4706 JUMP JUMPDEST JUMPDEST PUSH1 0x20 MUL ADD MLOAD DUP2 PUSH1 0x1 PUSH1 0x2 DUP2 LT PUSH2 0x27B3 JUMPI PUSH2 0x27B2 PUSH2 0x4706 JUMP JUMPDEST JUMPDEST PUSH1 0x20 MUL ADD MLOAD EQ JUMPDEST ISZERO PUSH2 0x27CA JUMPI DUP6 SWAP4 POP POP POP POP PUSH2 0x2CB6 JUMP JUMPDEST PUSH1 0x0 PUSH1 0x40 MLOAD DUP1 PUSH1 0x40 ADD PUSH1 0x40 MSTORE DUP1 DUP5 PUSH1 0x0 PUSH1 0x2 DUP2 LT PUSH2 0x27EB JUMPI PUSH2 0x27EA PUSH2 0x4706 JUMP JUMPDEST JUMPDEST PUSH1 0x20 MUL ADD MLOAD DUP7 PUSH1 0x0 PUSH1 0x2 DUP2 LT PUSH2 0x2804 JUMPI PUSH2 0x2803 PUSH2 0x4706 JUMP JUMPDEST JUMPDEST PUSH1 0x20 MUL ADD MLOAD PUSH2 0x2813 SWAP2 SWAP1 PUSH2 0x4A8F JUMP JUMPDEST DUP2 MSTORE PUSH1 0x20 ADD DUP5 PUSH1 0x1 PUSH1 0x2 DUP2 LT PUSH2 0x282C JUMPI PUSH2 0x282B PUSH2 0x4706 JUMP JUMPDEST JUMPDEST PUSH1 0x20 MUL ADD MLOAD DUP7 PUSH1 0x1 PUSH1 0x2 DUP2 LT PUSH2 0x2845 JUMPI PUSH2 0x2844 PUSH2 0x4706 JUMP JUMPDEST JUMPDEST PUSH1 0x20 MUL ADD MLOAD PUSH2 0x2854 SWAP2 SWAP1 PUSH2 0x4A8F JUMP JUMPDEST DUP2 MSTORE POP SWAP1 POP PUSH1 0x0 DUP2 PUSH1 0x1 PUSH1 0x2 DUP2 LT PUSH2 0x286F JUMPI PUSH2 0x286E PUSH2 0x4706 JUMP JUMPDEST JUMPDEST PUSH1 0x20 MUL ADD MLOAD DUP3 PUSH1 0x1 PUSH1 0x2 DUP2 LT PUSH2 0x2888 JUMPI PUSH2 0x2887 PUSH2 0x4706 JUMP JUMPDEST JUMPDEST PUSH1 0x20 MUL ADD MLOAD PUSH2 0x2897 SWAP2 SWAP1 PUSH2 0x4AD2 JUMP JUMPDEST DUP3 PUSH1 0x0 PUSH1 0x2 DUP2 LT PUSH2 0x28AB JUMPI PUSH2 0x28AA PUSH2 0x4706 JUMP JUMPDEST JUMPDEST PUSH1 0x20 MUL ADD MLOAD DUP4 PUSH1 0x0 PUSH1 0x2 DUP2 LT PUSH2 0x28C4 JUMPI PUSH2 0x28C3 PUSH2 0x4706 JUMP JUMPDEST JUMPDEST PUSH1 0x20 MUL ADD MLOAD PUSH2 0x28D3 SWAP2 SWAP1 PUSH2 0x4AD2 JUMP JUMPDEST PUSH2 0x28DD SWAP2 SWAP1 PUSH2 0x4B4A JUMP JUMPDEST SWAP1 POP PUSH1 0x0 DUP10 PUSH2 0x180 ADD MLOAD DUP13 DUP2 MLOAD DUP2 LT PUSH2 0x28F9 JUMPI PUSH2 0x28F8 PUSH2 0x4706 JUMP JUMPDEST JUMPDEST PUSH1 0x20 MUL PUSH1 0x20 ADD ADD MLOAD PUSH1 0x0 ADD MLOAD DUP12 DUP2 MLOAD DUP2 LT PUSH2 0x2917 JUMPI PUSH2 0x2916 PUSH2 0x4706 JUMP JUMPDEST JUMPDEST PUSH1 0x20 MUL PUSH1 0x20 ADD ADD MLOAD SWAP1 POP PUSH1 0x1 ISZERO PUSH2 0x2CAC JUMPI PUSH1 0x0 PUSH1 0x40 MLOAD DUP1 PUSH1 0x40 ADD PUSH1 0x40 MSTORE DUP1 PUSH1 0x0 DUP7 PUSH1 0x0 PUSH1 0x2 DUP2 LT PUSH2 0x294B JUMPI PUSH2 0x294A PUSH2 0x4706 JUMP JUMPDEST JUMPDEST PUSH1 0x20 MUL ADD MLOAD SGT PUSH2 0x29C5 JUMPI PUSH1 0x5 DUP10 PUSH1 0x0 PUSH1 0x2 DUP2 LT PUSH2 0x296B JUMPI PUSH2 0x296A PUSH2 0x4706 JUMP JUMPDEST JUMPDEST PUSH1 0x20 MUL ADD MLOAD DUP10 PUSH1 0x0 PUSH1 0x2 DUP2 LT PUSH2 0x2984 JUMPI PUSH2 0x2983 PUSH2 0x4706 JUMP JUMPDEST JUMPDEST PUSH1 0x20 MUL ADD MLOAD PUSH2 0x2993 SWAP2 SWAP1 PUSH2 0x47E0 JUMP JUMPDEST PUSH2 0x299D SWAP2 SWAP1 PUSH2 0x4BBD JUMP JUMPDEST DUP8 PUSH1 0x0 PUSH1 0x2 DUP2 LT PUSH2 0x29B1 JUMPI PUSH2 0x29B0 PUSH2 0x4706 JUMP JUMPDEST JUMPDEST PUSH1 0x20 MUL ADD MLOAD PUSH2 0x29C0 SWAP2 SWAP1 PUSH2 0x47E0 JUMP JUMPDEST PUSH2 0x2A31 JUMP JUMPDEST PUSH1 0x5 DUP9 PUSH1 0x0 PUSH1 0x2 DUP2 LT PUSH2 0x29DB JUMPI PUSH2 0x29DA PUSH2 0x4706 JUMP JUMPDEST JUMPDEST PUSH1 0x20 MUL ADD MLOAD DUP11 PUSH1 0x0 PUSH1 0x2 DUP2 LT PUSH2 0x29F4 JUMPI PUSH2 0x29F3 PUSH2 0x4706 JUMP JUMPDEST JUMPDEST PUSH1 0x20 MUL ADD MLOAD PUSH2 0x2A03 SWAP2 SWAP1 PUSH2 0x47E0 JUMP JUMPDEST PUSH2 0x2A0D SWAP2 SWAP1 PUSH2 0x4BBD JUMP JUMPDEST DUP8 PUSH1 0x0 PUSH1 0x2 DUP2 LT PUSH2 0x2A21 JUMPI PUSH2 0x2A20 PUSH2 0x4706 JUMP JUMPDEST JUMPDEST PUSH1 0x20 MUL ADD MLOAD PUSH2 0x2A30 SWAP2 SWAP1 PUSH2 0x47AC JUMP JUMPDEST JUMPDEST DUP2 MSTORE PUSH1 0x20 ADD PUSH1 0x0 DUP7 PUSH1 0x1 PUSH1 0x2 DUP2 LT PUSH2 0x2A4C JUMPI PUSH2 0x2A4B PUSH2 0x4706 JUMP JUMPDEST JUMPDEST PUSH1 0x20 MUL ADD MLOAD SGT PUSH2 0x2AC6 JUMPI PUSH1 0x5 DUP10 PUSH1 0x1 PUSH1 0x2 DUP2 LT PUSH2 0x2A6C JUMPI PUSH2 0x2A6B PUSH2 0x4706 JUMP JUMPDEST JUMPDEST PUSH1 0x20 MUL ADD MLOAD DUP10 PUSH1 0x1 PUSH1 0x2 DUP2 LT PUSH2 0x2A85 JUMPI PUSH2 0x2A84 PUSH2 0x4706 JUMP JUMPDEST JUMPDEST PUSH1 0x20 MUL ADD MLOAD PUSH2 0x2A94 SWAP2 SWAP1 PUSH2 0x47E0 JUMP JUMPDEST PUSH2 0x2A9E SWAP2 SWAP1 PUSH2 0x4BBD JUMP JUMPDEST DUP8 PUSH1 0x1 PUSH1 0x2 DUP2 LT PUSH2 0x2AB2 JUMPI PUSH2 0x2AB1 PUSH2 0x4706 JUMP JUMPDEST JUMPDEST PUSH1 0x20 MUL ADD MLOAD PUSH2 0x2AC1 SWAP2 SWAP1 PUSH2 0x47E0 JUMP JUMPDEST PUSH2 0x2B32 JUMP JUMPDEST PUSH1 0x5 DUP9 PUSH1 0x1 PUSH1 0x2 DUP2 LT PUSH2 0x2ADC JUMPI PUSH2 0x2ADB PUSH2 0x4706 JUMP JUMPDEST JUMPDEST PUSH1 0x20 MUL ADD MLOAD DUP11 PUSH1 0x1 PUSH1 0x2 DUP2 LT PUSH2 0x2AF5 JUMPI PUSH2 0x2AF4 PUSH2 0x4706 JUMP JUMPDEST JUMPDEST PUSH1 0x20 MUL ADD MLOAD PUSH2 0x2B04 SWAP2 SWAP1 PUSH2 0x47E0 JUMP JUMPDEST PUSH2 0x2B0E SWAP2 SWAP1 PUSH2 0x4BBD JUMP JUMPDEST DUP8 PUSH1 0x1 PUSH1 0x2 DUP2 LT PUSH2 0x2B22 JUMPI PUSH2 0x2B21 PUSH2 0x4706 JUMP JUMPDEST JUMPDEST PUSH1 0x20 MUL ADD MLOAD PUSH2 0x2B31 SWAP2 SWAP1 PUSH2 0x47AC JUMP JUMPDEST JUMPDEST DUP2 MSTORE POP SWAP1 POP PUSH1 0x5 DUP10 SUB PUSH2 0x2BAC JUMPI DUP7 PUSH1 0x0 PUSH1 0x2 DUP2 LT PUSH2 0x2B53 JUMPI PUSH2 0x2B52 PUSH2 0x4706 JUMP JUMPDEST JUMPDEST PUSH1 0x20 MUL ADD MLOAD DUP2 PUSH1 0x0 PUSH1 0x2 DUP2 LT PUSH2 0x2B6C JUMPI PUSH2 0x2B6B PUSH2 0x4706 JUMP JUMPDEST JUMPDEST PUSH1 0x20 MUL ADD DUP2 DUP2 MSTORE POP POP DUP7 PUSH1 0x1 PUSH1 0x2 DUP2 LT PUSH2 0x2B89 JUMPI PUSH2 0x2B88 PUSH2 0x4706 JUMP JUMPDEST JUMPDEST PUSH1 0x20 MUL ADD MLOAD DUP2 PUSH1 0x1 PUSH1 0x2 DUP2 LT PUSH2 0x2BA2 JUMPI PUSH2 0x2BA1 PUSH2 0x4706 JUMP JUMPDEST JUMPDEST PUSH1 0x20 MUL ADD DUP2 DUP2 MSTORE POP POP JUMPDEST PUSH2 0x3E8 DUP2 PUSH1 0x0 PUSH1 0x2 DUP2 LT PUSH2 0x2BC3 JUMPI PUSH2 0x2BC2 PUSH2 0x4706 JUMP JUMPDEST JUMPDEST PUSH1 0x20 MUL ADD MLOAD LT DUP1 ISZERO PUSH2 0x2BEE JUMPI POP PUSH2 0x1F4 DUP2 PUSH1 0x0 PUSH1 0x2 DUP2 LT PUSH2 0x2BE7 JUMPI PUSH2 0x2BE6 PUSH2 0x4706 JUMP JUMPDEST JUMPDEST PUSH1 0x20 MUL ADD MLOAD LT JUMPDEST ISZERO PUSH2 0x2CAA JUMPI DUP1 PUSH1 0x0 PUSH1 0x2 DUP2 LT PUSH2 0x2C07 JUMPI PUSH2 0x2C06 PUSH2 0x4706 JUMP JUMPDEST JUMPDEST PUSH1 0x20 MUL ADD MLOAD DUP11 PUSH2 0x180 ADD MLOAD DUP15 DUP2 MLOAD DUP2 LT PUSH2 0x2C24 JUMPI PUSH2 0x2C23 PUSH2 0x4706 JUMP JUMPDEST JUMPDEST PUSH1 0x20 MUL PUSH1 0x20 ADD ADD MLOAD PUSH1 0x20 ADD MLOAD DUP14 DUP2 MLOAD DUP2 LT PUSH2 0x2C42 JUMPI PUSH2 0x2C41 PUSH2 0x4706 JUMP JUMPDEST JUMPDEST PUSH1 0x20 MUL PUSH1 0x20 ADD ADD DUP2 DUP2 MSTORE POP POP DUP1 PUSH1 0x1 PUSH1 0x2 DUP2 LT PUSH2 0x2C62 JUMPI PUSH2 0x2C61 PUSH2 0x4706 JUMP JUMPDEST JUMPDEST PUSH1 0x20 MUL ADD MLOAD DUP11 PUSH2 0x180 ADD MLOAD DUP15 DUP2 MLOAD DUP2 LT PUSH2 0x2C7F JUMPI PUSH2 0x2C7E PUSH2 0x4706 JUMP JUMPDEST JUMPDEST PUSH1 0x20 MUL PUSH1 0x20 ADD ADD MLOAD PUSH1 0x40 ADD MLOAD DUP14 DUP2 MLOAD DUP2 LT PUSH2 0x2C9D JUMPI PUSH2 0x2C9C PUSH2 0x4706 JUMP JUMPDEST JUMPDEST PUSH1 0x20 MUL PUSH1 0x20 ADD ADD DUP2 DUP2 MSTORE POP POP JUMPDEST POP JUMPDEST DUP9 SWAP7 POP POP POP POP POP POP POP JUMPDEST SWAP8 SWAP7 POP POP POP POP POP POP POP JUMP JUMPDEST PUSH2 0x2CC9 PUSH2 0x38F5 JUMP JUMPDEST PUSH1 0x0 DUP3 PUSH1 0x40 ADD MLOAD SWAP1 POP PUSH1 0x0 DUP4 PUSH1 0x60 ADD MLOAD SWAP1 POP PUSH1 0x0 DUP3 PUSH1 0x1 PUSH2 0x2CEA SWAP2 SWAP1 PUSH2 0x47E0 JUMP JUMPDEST SWAP1 POP PUSH1 0x0 JUMPDEST PUSH1 0xA DUP2 LT ISZERO PUSH2 0x2D84 JUMPI PUSH1 0x5 PUSH2 0x2D07 DUP8 DUP7 DUP7 DUP7 DUP7 PUSH2 0x3332 JUMP JUMPDEST LT ISZERO PUSH2 0x2D73 JUMPI PUSH1 0x0 DUP1 PUSH2 0x2D21 DUP9 DUP10 PUSH1 0x40 ADD MLOAD DUP8 DUP8 DUP8 PUSH2 0x3568 JUMP JUMPDEST SWAP2 POP SWAP2 POP DUP8 PUSH1 0x40 ADD MLOAD DUP3 EQ PUSH2 0x2D70 JUMPI PUSH1 0x1 DUP9 PUSH1 0x80 ADD SWAP1 ISZERO ISZERO SWAP1 DUP2 ISZERO ISZERO DUP2 MSTORE POP POP DUP4 DUP9 PUSH1 0xA0 ADD DUP2 DUP2 MSTORE POP POP DUP1 DUP9 PUSH1 0x60 ADD DUP2 DUP2 MSTORE POP POP DUP6 DUP9 PUSH1 0x0 ADD DUP2 DUP2 MSTORE POP POP DUP5 DUP9 PUSH1 0x20 ADD DUP2 DUP2 MSTORE POP POP POP POP PUSH2 0x2D84 JUMP JUMPDEST POP POP JUMPDEST DUP1 PUSH2 0x2D7D SWAP1 PUSH2 0x4764 JUMP JUMPDEST SWAP1 POP PUSH2 0x2CEF JUMP JUMPDEST POP DUP5 SWAP4 POP POP POP POP SWAP2 SWAP1 POP JUMP JUMPDEST PUSH2 0x2D98 PUSH2 0x38F5 JUMP JUMPDEST PUSH1 0x0 PUSH1 0x40 MLOAD DUP1 PUSH1 0x40 ADD PUSH1 0x40 MSTORE DUP1 DUP10 PUSH2 0x180 ADD MLOAD DUP10 DUP2 MLOAD DUP2 LT PUSH2 0x2DBD JUMPI PUSH2 0x2DBC PUSH2 0x4706 JUMP JUMPDEST JUMPDEST PUSH1 0x20 MUL PUSH1 0x20 ADD ADD MLOAD PUSH1 0x20 ADD MLOAD DUP9 DUP11 DUP2 MLOAD DUP2 LT PUSH2 0x2DDC JUMPI PUSH2 0x2DDB PUSH2 0x4706 JUMP JUMPDEST JUMPDEST PUSH1 0x20 MUL PUSH1 0x20 ADD ADD MLOAD PUSH1 0xA0 ADD MLOAD DUP2 MLOAD DUP2 LT PUSH2 0x2DF9 JUMPI PUSH2 0x2DF8 PUSH2 0x4706 JUMP JUMPDEST JUMPDEST PUSH1 0x20 MUL PUSH1 0x20 ADD ADD MLOAD DUP2 MSTORE PUSH1 0x20 ADD DUP10 PUSH2 0x180 ADD MLOAD DUP10 DUP2 MLOAD DUP2 LT PUSH2 0x2E1E JUMPI PUSH2 0x2E1D PUSH2 0x4706 JUMP JUMPDEST JUMPDEST PUSH1 0x20 MUL PUSH1 0x20 ADD ADD MLOAD PUSH1 0x40 ADD MLOAD DUP9 DUP11 DUP2 MLOAD DUP2 LT PUSH2 0x2E3D JUMPI PUSH2 0x2E3C PUSH2 0x4706 JUMP JUMPDEST JUMPDEST PUSH1 0x20 MUL PUSH1 0x20 ADD ADD MLOAD PUSH1 0xA0 ADD MLOAD DUP2 MLOAD DUP2 LT PUSH2 0x2E5A JUMPI PUSH2 0x2E59 PUSH2 0x4706 JUMP JUMPDEST JUMPDEST PUSH1 0x20 MUL PUSH1 0x20 ADD ADD MLOAD DUP2 MSTORE POP SWAP1 POP PUSH1 0x0 PUSH1 0x40 MLOAD DUP1 PUSH1 0x40 ADD PUSH1 0x40 MSTORE DUP1 DUP11 PUSH2 0x100 ADD MLOAD DUP2 MSTORE PUSH1 0x20 ADD DUP11 PUSH2 0x120 ADD MLOAD DUP2 MSTORE POP SWAP1 POP PUSH1 0x0 PUSH1 0x40 MLOAD DUP1 PUSH1 0x40 ADD PUSH1 0x40 MSTORE DUP1 DUP9 PUSH2 0x100 ADD MLOAD DUP2 MSTORE PUSH1 0x20 ADD DUP9 PUSH2 0x120 ADD MLOAD DUP2 MSTORE POP SWAP1 POP DUP3 PUSH1 0x0 PUSH1 0x2 DUP2 LT PUSH2 0x2EC1 JUMPI PUSH2 0x2EC0 PUSH2 0x4706 JUMP JUMPDEST JUMPDEST PUSH1 0x20 MUL ADD MLOAD DUP2 PUSH1 0x0 PUSH1 0x2 DUP2 LT PUSH2 0x2EDA JUMPI PUSH2 0x2ED9 PUSH2 0x4706 JUMP JUMPDEST JUMPDEST PUSH1 0x20 MUL ADD MLOAD EQ DUP1 ISZERO PUSH2 0x2F1B JUMPI POP DUP1 PUSH1 0x1 PUSH1 0x2 DUP2 LT PUSH2 0x2EFB JUMPI PUSH2 0x2EFA PUSH2 0x4706 JUMP JUMPDEST JUMPDEST PUSH1 0x20 MUL ADD MLOAD DUP2 PUSH1 0x1 PUSH1 0x2 DUP2 LT PUSH2 0x2F14 JUMPI PUSH2 0x2F13 PUSH2 0x4706 JUMP JUMPDEST JUMPDEST PUSH1 0x20 MUL ADD MLOAD EQ JUMPDEST ISZERO PUSH2 0x2F71 JUMPI DUP3 PUSH1 0x0 PUSH1 0x2 DUP2 LT PUSH2 0x2F34 JUMPI PUSH2 0x2F33 PUSH2 0x4706 JUMP JUMPDEST JUMPDEST PUSH1 0x20 MUL ADD MLOAD DUP7 PUSH2 0x100 ADD DUP2 DUP2 MSTORE POP POP DUP3 PUSH1 0x1 PUSH1 0x2 DUP2 LT PUSH2 0x2F57 JUMPI PUSH2 0x2F56 PUSH2 0x4706 JUMP JUMPDEST JUMPDEST PUSH1 0x20 MUL ADD MLOAD DUP7 PUSH2 0x120 ADD DUP2 DUP2 MSTORE POP POP DUP6 SWAP4 POP POP POP POP PUSH2 0x3328 JUMP JUMPDEST PUSH1 0x0 PUSH1 0x40 MLOAD DUP1 PUSH1 0x40 ADD PUSH1 0x40 MSTORE DUP1 DUP5 PUSH1 0x0 PUSH1 0x2 DUP2 LT PUSH2 0x2F92 JUMPI PUSH2 0x2F91 PUSH2 0x4706 JUMP JUMPDEST JUMPDEST PUSH1 0x20 MUL ADD MLOAD DUP7 PUSH1 0x0 PUSH1 0x2 DUP2 LT PUSH2 0x2FAB JUMPI PUSH2 0x2FAA PUSH2 0x4706 JUMP JUMPDEST JUMPDEST PUSH1 0x20 MUL ADD MLOAD PUSH2 0x2FBA SWAP2 SWAP1 PUSH2 0x4A8F JUMP JUMPDEST DUP2 MSTORE PUSH1 0x20 ADD DUP5 PUSH1 0x1 PUSH1 0x2 DUP2 LT PUSH2 0x2FD3 JUMPI PUSH2 0x2FD2 PUSH2 0x4706 JUMP JUMPDEST JUMPDEST PUSH1 0x20 MUL ADD MLOAD DUP7 PUSH1 0x1 PUSH1 0x2 DUP2 LT PUSH2 0x2FEC JUMPI PUSH2 0x2FEB PUSH2 0x4706 JUMP JUMPDEST JUMPDEST PUSH1 0x20 MUL ADD MLOAD PUSH2 0x2FFB SWAP2 SWAP1 PUSH2 0x4A8F JUMP JUMPDEST DUP2 MSTORE POP SWAP1 POP PUSH1 0x0 PUSH1 0x40 MLOAD DUP1 PUSH1 0x40 ADD PUSH1 0x40 MSTORE DUP1 PUSH1 0x0 DUP5 PUSH1 0x0 PUSH1 0x2 DUP2 LT PUSH2 0x3023 JUMPI PUSH2 0x3022 PUSH2 0x4706 JUMP JUMPDEST JUMPDEST PUSH1 0x20 MUL ADD MLOAD SGT PUSH2 0x309D JUMPI PUSH1 0x7 DUP8 PUSH1 0x0 PUSH1 0x2 DUP2 LT PUSH2 0x3043 JUMPI PUSH2 0x3042 PUSH2 0x4706 JUMP JUMPDEST JUMPDEST PUSH1 0x20 MUL ADD MLOAD DUP8 PUSH1 0x0 PUSH1 0x2 DUP2 LT PUSH2 0x305C JUMPI PUSH2 0x305B PUSH2 0x4706 JUMP JUMPDEST JUMPDEST PUSH1 0x20 MUL ADD MLOAD PUSH2 0x306B SWAP2 SWAP1 PUSH2 0x47E0 JUMP JUMPDEST PUSH2 0x3075 SWAP2 SWAP1 PUSH2 0x4BBD JUMP JUMPDEST DUP6 PUSH1 0x0 PUSH1 0x2 DUP2 LT PUSH2 0x3089 JUMPI PUSH2 0x3088 PUSH2 0x4706 JUMP JUMPDEST JUMPDEST PUSH1 0x20 MUL ADD MLOAD PUSH2 0x3098 SWAP2 SWAP1 PUSH2 0x47E0 JUMP JUMPDEST PUSH2 0x3109 JUMP JUMPDEST PUSH1 0x7 DUP7 PUSH1 0x0 PUSH1 0x2 DUP2 LT PUSH2 0x30B3 JUMPI PUSH2 0x30B2 PUSH2 0x4706 JUMP JUMPDEST JUMPDEST PUSH1 0x20 MUL ADD MLOAD DUP9 PUSH1 0x0 PUSH1 0x2 DUP2 LT PUSH2 0x30CC JUMPI PUSH2 0x30CB PUSH2 0x4706 JUMP JUMPDEST JUMPDEST PUSH1 0x20 MUL ADD MLOAD PUSH2 0x30DB SWAP2 SWAP1 PUSH2 0x47E0 JUMP JUMPDEST PUSH2 0x30E5 SWAP2 SWAP1 PUSH2 0x4BBD JUMP JUMPDEST DUP6 PUSH1 0x0 PUSH1 0x2 DUP2 LT PUSH2 0x30F9 JUMPI PUSH2 0x30F8 PUSH2 0x4706 JUMP JUMPDEST JUMPDEST PUSH1 0x20 MUL ADD MLOAD PUSH2 0x3108 SWAP2 SWAP1 PUSH2 0x47AC JUMP JUMPDEST JUMPDEST DUP2 MSTORE PUSH1 0x20 ADD PUSH1 0x0 DUP5 PUSH1 0x1 PUSH1 0x2 DUP2 LT PUSH2 0x3124 JUMPI PUSH2 0x3123 PUSH2 0x4706 JUMP JUMPDEST JUMPDEST PUSH1 0x20 MUL ADD MLOAD SGT PUSH2 0x319E JUMPI PUSH1 0x7 DUP8 PUSH1 0x1 PUSH1 0x2 DUP2 LT PUSH2 0x3144 JUMPI PUSH2 0x3143 PUSH2 0x4706 JUMP JUMPDEST JUMPDEST PUSH1 0x20 MUL ADD MLOAD DUP8 PUSH1 0x1 PUSH1 0x2 DUP2 LT PUSH2 0x315D JUMPI PUSH2 0x315C PUSH2 0x4706 JUMP JUMPDEST JUMPDEST PUSH1 0x20 MUL ADD MLOAD PUSH2 0x316C SWAP2 SWAP1 PUSH2 0x47E0 JUMP JUMPDEST PUSH2 0x3176 SWAP2 SWAP1 PUSH2 0x4BBD JUMP JUMPDEST DUP6 PUSH1 0x1 PUSH1 0x2 DUP2 LT PUSH2 0x318A JUMPI PUSH2 0x3189 PUSH2 0x4706 JUMP JUMPDEST JUMPDEST PUSH1 0x20 MUL ADD MLOAD PUSH2 0x3199 SWAP2 SWAP1 PUSH2 0x47E0 JUMP JUMPDEST PUSH2 0x320A JUMP JUMPDEST PUSH1 0x7 DUP7 PUSH1 0x1 PUSH1 0x2 DUP2 LT PUSH2 0x31B4 JUMPI PUSH2 0x31B3 PUSH2 0x4706 JUMP JUMPDEST JUMPDEST PUSH1 0x20 MUL ADD MLOAD DUP9 PUSH1 0x1 PUSH1 0x2 DUP2 LT PUSH2 0x31CD JUMPI PUSH2 0x31CC PUSH2 0x4706 JUMP JUMPDEST JUMPDEST PUSH1 0x20 MUL ADD MLOAD PUSH2 0x31DC SWAP2 SWAP1 PUSH2 0x47E0 JUMP JUMPDEST PUSH2 0x31E6 SWAP2 SWAP1 PUSH2 0x4BBD JUMP JUMPDEST DUP6 PUSH1 0x1 PUSH1 0x2 DUP2 LT PUSH2 0x31FA JUMPI PUSH2 0x31F9 PUSH2 0x4706 JUMP JUMPDEST JUMPDEST PUSH1 0x20 MUL ADD MLOAD PUSH2 0x3209 SWAP2 SWAP1 PUSH2 0x47AC JUMP JUMPDEST JUMPDEST DUP2 MSTORE POP SWAP1 POP PUSH1 0x5 DUP8 SUB PUSH2 0x3284 JUMPI DUP5 PUSH1 0x0 PUSH1 0x2 DUP2 LT PUSH2 0x322B JUMPI PUSH2 0x322A PUSH2 0x4706 JUMP JUMPDEST JUMPDEST PUSH1 0x20 MUL ADD MLOAD DUP2 PUSH1 0x0 PUSH1 0x2 DUP2 LT PUSH2 0x3244 JUMPI PUSH2 0x3243 PUSH2 0x4706 JUMP JUMPDEST JUMPDEST PUSH1 0x20 MUL ADD DUP2 DUP2 MSTORE POP POP DUP5 PUSH1 0x1 PUSH1 0x2 DUP2 LT PUSH2 0x3261 JUMPI PUSH2 0x3260 PUSH2 0x4706 JUMP JUMPDEST JUMPDEST PUSH1 0x20 MUL ADD MLOAD DUP2 PUSH1 0x1 PUSH1 0x2 DUP2 LT PUSH2 0x327A JUMPI PUSH2 0x3279 PUSH2 0x4706 JUMP JUMPDEST JUMPDEST PUSH1 0x20 MUL ADD DUP2 DUP2 MSTORE POP POP JUMPDEST PUSH2 0x3E8 DUP2 PUSH1 0x0 PUSH1 0x2 DUP2 LT PUSH2 0x329B JUMPI PUSH2 0x329A PUSH2 0x4706 JUMP JUMPDEST JUMPDEST PUSH1 0x20 MUL ADD MLOAD LT DUP1 ISZERO PUSH2 0x32C6 JUMPI POP PUSH2 0x1F4 DUP2 PUSH1 0x0 PUSH1 0x2 DUP2 LT PUSH2 0x32BF JUMPI PUSH2 0x32BE PUSH2 0x4706 JUMP JUMPDEST JUMPDEST PUSH1 0x20 MUL ADD MLOAD LT JUMPDEST ISZERO PUSH2 0x3312 JUMPI DUP1 PUSH1 0x0 PUSH1 0x2 DUP2 LT PUSH2 0x32DF JUMPI PUSH2 0x32DE PUSH2 0x4706 JUMP JUMPDEST JUMPDEST PUSH1 0x20 MUL ADD MLOAD DUP9 PUSH2 0x100 ADD DUP2 DUP2 MSTORE POP POP DUP1 PUSH1 0x1 PUSH1 0x2 DUP2 LT PUSH2 0x3302 JUMPI PUSH2 0x3301 PUSH2 0x4706 JUMP JUMPDEST JUMPDEST PUSH1 0x20 MUL ADD MLOAD DUP9 PUSH2 0x120 ADD DUP2 DUP2 MSTORE POP POP JUMPDEST PUSH2 0x3320 DUP13 DUP13 DUP13 DUP13 DUP13 DUP13 PUSH2 0x3687 JUMP JUMPDEST SWAP6 POP POP POP POP POP POP JUMPDEST SWAP7 SWAP6 POP POP POP POP POP POP JUMP JUMPDEST PUSH1 0x0 DUP1 DUP7 PUSH2 0x180 ADD MLOAD DUP7 DUP2 MLOAD DUP2 LT PUSH2 0x334D JUMPI PUSH2 0x334C PUSH2 0x4706 JUMP JUMPDEST JUMPDEST PUSH1 0x20 MUL PUSH1 0x20 ADD ADD MLOAD SWAP1 POP PUSH1 0x0 DUP8 PUSH2 0x180 ADD MLOAD DUP6 DUP2 MLOAD DUP2 LT PUSH2 0x3371 JUMPI PUSH2 0x3370 PUSH2 0x4706 JUMP JUMPDEST JUMPDEST PUSH1 0x20 MUL PUSH1 0x20 ADD ADD MLOAD SWAP1 POP PUSH1 0x0 DUP2 PUSH1 0x20 ADD MLOAD DUP6 DUP2 MLOAD DUP2 LT PUSH2 0x3394 JUMPI PUSH2 0x3393 PUSH2 0x4706 JUMP JUMPDEST JUMPDEST PUSH1 0x20 MUL PUSH1 0x20 ADD ADD MLOAD DUP4 PUSH1 0x20 ADD MLOAD DUP9 DUP2 MLOAD DUP2 LT PUSH2 0x33B3 JUMPI PUSH2 0x33B2 PUSH2 0x4706 JUMP JUMPDEST JUMPDEST PUSH1 0x20 MUL PUSH1 0x20 ADD ADD MLOAD GT PUSH2 0x340D JUMPI DUP3 PUSH1 0x20 ADD MLOAD DUP8 DUP2 MLOAD DUP2 LT PUSH2 0x33D7 JUMPI PUSH2 0x33D6 PUSH2 0x4706 JUMP JUMPDEST JUMPDEST PUSH1 0x20 MUL PUSH1 0x20 ADD ADD MLOAD DUP3 PUSH1 0x20 ADD MLOAD DUP7 DUP2 MLOAD DUP2 LT PUSH2 0x33F6 JUMPI PUSH2 0x33F5 PUSH2 0x4706 JUMP JUMPDEST JUMPDEST PUSH1 0x20 MUL PUSH1 0x20 ADD ADD MLOAD PUSH2 0x3408 SWAP2 SWAP1 PUSH2 0x47E0 JUMP JUMPDEST PUSH2 0x3456 JUMP JUMPDEST DUP2 PUSH1 0x20 ADD MLOAD DUP6 DUP2 MLOAD DUP2 LT PUSH2 0x3424 JUMPI PUSH2 0x3423 PUSH2 0x4706 JUMP JUMPDEST JUMPDEST PUSH1 0x20 MUL PUSH1 0x20 ADD ADD MLOAD DUP4 PUSH1 0x20 ADD MLOAD DUP9 DUP2 MLOAD DUP2 LT PUSH2 0x3443 JUMPI PUSH2 0x3442 PUSH2 0x4706 JUMP JUMPDEST JUMPDEST PUSH1 0x20 MUL PUSH1 0x20 ADD ADD MLOAD PUSH2 0x3455 SWAP2 SWAP1 PUSH2 0x47E0 JUMP JUMPDEST JUMPDEST SWAP1 POP PUSH1 0x0 DUP3 PUSH1 0x40 ADD MLOAD DUP7 DUP2 MLOAD DUP2 LT PUSH2 0x3471 JUMPI PUSH2 0x3470 PUSH2 0x4706 JUMP JUMPDEST JUMPDEST PUSH1 0x20 MUL PUSH1 0x20 ADD ADD MLOAD DUP5 PUSH1 0x40 ADD MLOAD DUP10 DUP2 MLOAD DUP2 LT PUSH2 0x3490 JUMPI PUSH2 0x348F PUSH2 0x4706 JUMP JUMPDEST JUMPDEST PUSH1 0x20 MUL PUSH1 0x20 ADD ADD MLOAD GT PUSH2 0x34EA JUMPI DUP4 PUSH1 0x40 ADD MLOAD DUP9 DUP2 MLOAD DUP2 LT PUSH2 0x34B4 JUMPI PUSH2 0x34B3 PUSH2 0x4706 JUMP JUMPDEST JUMPDEST PUSH1 0x20 MUL PUSH1 0x20 ADD ADD MLOAD DUP4 PUSH1 0x40 ADD MLOAD DUP8 DUP2 MLOAD DUP2 LT PUSH2 0x34D3 JUMPI PUSH2 0x34D2 PUSH2 0x4706 JUMP JUMPDEST JUMPDEST PUSH1 0x20 MUL PUSH1 0x20 ADD ADD MLOAD PUSH2 0x34E5 SWAP2 SWAP1 PUSH2 0x47E0 JUMP JUMPDEST PUSH2 0x3533 JUMP JUMPDEST DUP3 PUSH1 0x40 ADD MLOAD DUP7 DUP2 MLOAD DUP2 LT PUSH2 0x3501 JUMPI PUSH2 0x3500 PUSH2 0x4706 JUMP JUMPDEST JUMPDEST PUSH1 0x20 MUL PUSH1 0x20 ADD ADD MLOAD DUP5 PUSH1 0x40 ADD MLOAD DUP10 DUP2 MLOAD DUP2 LT PUSH2 0x3520 JUMPI PUSH2 0x351F PUSH2 0x4706 JUMP JUMPDEST JUMPDEST PUSH1 0x20 MUL PUSH1 0x20 ADD ADD MLOAD PUSH2 0x3532 SWAP2 SWAP1 PUSH2 0x47E0 JUMP JUMPDEST JUMPDEST SWAP1 POP PUSH1 0x2 DUP2 PUSH2 0x3542 SWAP2 SWAP1 PUSH2 0x4D2E JUMP JUMPDEST PUSH1 0x2 DUP4 PUSH2 0x354F SWAP2 SWAP1 PUSH2 0x4D2E JUMP JUMPDEST PUSH2 0x3559 SWAP2 SWAP1 PUSH2 0x47AC JUMP JUMPDEST SWAP5 POP POP POP POP POP SWAP6 SWAP5 POP POP POP POP POP JUMP JUMPDEST PUSH1 0x0 DUP1 PUSH1 0x0 PUSH1 0x1 DUP9 PUSH2 0x180 ADD MLOAD DUP9 DUP2 MLOAD DUP2 LT PUSH2 0x3587 JUMPI PUSH2 0x3586 PUSH2 0x4706 JUMP JUMPDEST JUMPDEST PUSH1 0x20 MUL PUSH1 0x20 ADD ADD MLOAD PUSH1 0x0 ADD MLOAD DUP8 DUP2 MLOAD DUP2 LT PUSH2 0x35A5 JUMPI PUSH2 0x35A4 PUSH2 0x4706 JUMP JUMPDEST JUMPDEST PUSH1 0x20 MUL PUSH1 0x20 ADD ADD MLOAD PUSH1 0x20 ADD MLOAD DUP10 PUSH2 0x180 ADD MLOAD DUP10 DUP2 MLOAD DUP2 LT PUSH2 0x35C9 JUMPI PUSH2 0x35C8 PUSH2 0x4706 JUMP JUMPDEST JUMPDEST PUSH1 0x20 MUL PUSH1 0x20 ADD ADD MLOAD PUSH1 0x0 ADD MLOAD DUP9 DUP2 MLOAD DUP2 LT PUSH2 0x35E7 JUMPI PUSH2 0x35E6 PUSH2 0x4706 JUMP JUMPDEST JUMPDEST PUSH1 0x20 MUL PUSH1 0x20 ADD ADD MLOAD PUSH1 0x20 ADD MLOAD PUSH2 0x35FD SWAP2 SWAP1 PUSH2 0x47AC JUMP JUMPDEST PUSH2 0x3607 SWAP2 SWAP1 PUSH2 0x47AC JUMP JUMPDEST SWAP1 POP PUSH1 0x0 PUSH2 0x3613 PUSH2 0x3751 JUMP JUMPDEST SWAP1 POP DUP2 DUP2 PUSH2 0x3621 SWAP2 SWAP1 PUSH2 0x4D79 JUMP JUMPDEST DUP10 PUSH2 0x180 ADD MLOAD DUP10 DUP2 MLOAD DUP2 LT PUSH2 0x3639 JUMPI PUSH2 0x3638 PUSH2 0x4706 JUMP JUMPDEST JUMPDEST PUSH1 0x20 MUL PUSH1 0x20 ADD ADD MLOAD PUSH1 0x0 ADD MLOAD DUP9 DUP2 MLOAD DUP2 LT PUSH2 0x3657 JUMPI PUSH2 0x3656 PUSH2 0x4706 JUMP JUMPDEST JUMPDEST PUSH1 0x20 MUL PUSH1 0x20 ADD ADD MLOAD PUSH1 0x20 ADD MLOAD LT ISZERO PUSH2 0x3674 JUMPI DUP8 SWAP4 POP DUP7 SWAP3 POP PUSH2 0x367B JUMP JUMPDEST DUP6 SWAP4 POP DUP5 SWAP3 POP JUMPDEST POP POP SWAP6 POP SWAP6 SWAP4 POP POP POP POP JUMP JUMPDEST PUSH2 0x368F PUSH2 0x38F5 JUMP JUMPDEST PUSH1 0x0 DUP8 PUSH1 0x40 ADD MLOAD PUSH1 0x1 PUSH2 0x36A2 SWAP2 SWAP1 PUSH2 0x47E0 JUMP JUMPDEST SWAP1 POP PUSH1 0x0 JUMPDEST PUSH1 0xA DUP2 LT ISZERO PUSH2 0x3742 JUMPI PUSH1 0x5 PUSH2 0x36BD DUP7 DUP5 DUP5 PUSH2 0x375B JUMP JUMPDEST LT ISZERO PUSH2 0x3731 JUMPI PUSH1 0x0 DUP1 PUSH2 0x36DB DUP12 DUP13 PUSH1 0x40 ADD MLOAD DUP14 PUSH1 0x20 ADD MLOAD DUP8 DUP8 PUSH2 0x3568 JUMP JUMPDEST SWAP2 POP SWAP2 POP DUP11 PUSH1 0x40 ADD MLOAD DUP3 EQ PUSH2 0x372E JUMPI PUSH1 0x1 DUP8 PUSH1 0x80 ADD SWAP1 ISZERO ISZERO SWAP1 DUP2 ISZERO ISZERO DUP2 MSTORE POP POP DUP4 DUP8 PUSH1 0xA0 ADD DUP2 DUP2 MSTORE POP POP DUP1 DUP8 PUSH1 0x60 ADD DUP2 DUP2 MSTORE POP POP DUP10 DUP8 PUSH1 0x0 ADD DUP2 DUP2 MSTORE POP POP DUP11 PUSH1 0x20 ADD MLOAD DUP8 PUSH1 0x20 ADD DUP2 DUP2 MSTORE POP POP POP POP PUSH2 0x3742 JUMP JUMPDEST POP POP JUMPDEST DUP1 PUSH2 0x373B SWAP1 PUSH2 0x4764 JUMP JUMPDEST SWAP1 POP PUSH2 0x36A7 JUMP JUMPDEST POP DUP4 SWAP2 POP POP SWAP7 SWAP6 POP POP POP POP POP POP JUMP JUMPDEST PUSH1 0x0 PUSH2 0x515 SWAP1 POP SWAP1 JUMP JUMPDEST PUSH1 0x0 DUP1 DUP5 PUSH2 0x180 ADD MLOAD DUP5 DUP2 MLOAD DUP2 LT PUSH2 0x3776 JUMPI PUSH2 0x3775 PUSH2 0x4706 JUMP JUMPDEST JUMPDEST PUSH1 0x20 MUL PUSH1 0x20 ADD ADD MLOAD SWAP1 POP PUSH1 0x0 DUP2 PUSH1 0x20 ADD MLOAD DUP5 DUP2 MLOAD DUP2 LT PUSH2 0x3799 JUMPI PUSH2 0x3798 PUSH2 0x4706 JUMP JUMPDEST JUMPDEST PUSH1 0x20 MUL PUSH1 0x20 ADD ADD MLOAD DUP7 PUSH2 0x100 ADD MLOAD GT PUSH2 0x37E0 JUMPI DUP6 PUSH2 0x100 ADD MLOAD DUP3 PUSH1 0x20 ADD MLOAD DUP6 DUP2 MLOAD DUP2 LT PUSH2 0x37C9 JUMPI PUSH2 0x37C8 PUSH2 0x4706 JUMP JUMPDEST JUMPDEST PUSH1 0x20 MUL PUSH1 0x20 ADD ADD MLOAD PUSH2 0x37DB SWAP2 SWAP1 PUSH2 0x47E0 JUMP JUMPDEST PUSH2 0x3810 JUMP JUMPDEST DUP2 PUSH1 0x20 ADD MLOAD DUP5 DUP2 MLOAD DUP2 LT PUSH2 0x37F7 JUMPI PUSH2 0x37F6 PUSH2 0x4706 JUMP JUMPDEST JUMPDEST PUSH1 0x20 MUL PUSH1 0x20 ADD ADD MLOAD DUP7 PUSH2 0x100 ADD MLOAD PUSH2 0x380F SWAP2 SWAP1 PUSH2 0x47E0 JUMP JUMPDEST JUMPDEST SWAP1 POP PUSH1 0x0 DUP3 PUSH1 0x40 ADD MLOAD DUP6 DUP2 MLOAD DUP2 LT PUSH2 0x382B JUMPI PUSH2 0x382A PUSH2 0x4706 JUMP JUMPDEST JUMPDEST PUSH1 0x20 MUL PUSH1 0x20 ADD ADD MLOAD DUP8 PUSH2 0x120 ADD MLOAD GT PUSH2 0x3872 JUMPI DUP7 PUSH2 0x120 ADD MLOAD DUP4 PUSH1 0x40 ADD MLOAD DUP7 DUP2 MLOAD DUP2 LT PUSH2 0x385B JUMPI PUSH2 0x385A PUSH2 0x4706 JUMP JUMPDEST JUMPDEST PUSH1 0x20 MUL PUSH1 0x20 ADD ADD MLOAD PUSH2 0x386D SWAP2 SWAP1 PUSH2 0x47E0 JUMP JUMPDEST PUSH2 0x38A2 JUMP JUMPDEST DUP3 PUSH1 0x40 ADD MLOAD DUP6 DUP2 MLOAD DUP2 LT PUSH2 0x3889 JUMPI PUSH2 0x3888 PUSH2 0x4706 JUMP JUMPDEST JUMPDEST PUSH1 0x20 MUL PUSH1 0x20 ADD ADD MLOAD DUP8 PUSH2 0x120 ADD MLOAD PUSH2 0x38A1 SWAP2 SWAP1 PUSH2 0x47E0 JUMP JUMPDEST JUMPDEST SWAP1 POP PUSH1 0x2 DUP2 PUSH2 0x38B1 SWAP2 SWAP1 PUSH2 0x4D2E JUMP JUMPDEST PUSH1 0x2 DUP4 PUSH2 0x38BE SWAP2 SWAP1 PUSH2 0x4D2E JUMP JUMPDEST PUSH2 0x38C8 SWAP2 SWAP1 PUSH2 0x47AC JUMP JUMPDEST SWAP4 POP POP POP POP SWAP4 SWAP3 POP POP POP JUMP JUMPDEST PUSH1 0x40 MLOAD DUP1 PUSH1 0x60 ADD PUSH1 0x40 MSTORE DUP1 PUSH1 0x0 DUP2 MSTORE PUSH1 0x20 ADD PUSH1 0x0 DUP2 MSTORE PUSH1 0x20 ADD PUSH1 0x0 DUP2 MSTORE POP SWAP1 JUMP JUMPDEST PUSH1 0x40 MLOAD DUP1 PUSH2 0x1A0 ADD PUSH1 0x40 MSTORE DUP1 PUSH1 0x0 DUP2 MSTORE PUSH1 0x20 ADD PUSH1 0x0 DUP2 MSTORE PUSH1 0x20 ADD PUSH1 0x0 DUP2 MSTORE PUSH1 0x20 ADD PUSH1 0x0 DUP2 MSTORE PUSH1 0x20 ADD PUSH1 0x0 ISZERO ISZERO DUP2 MSTORE PUSH1 0x20 ADD PUSH1 0x0 DUP2 MSTORE PUSH1 0x20 ADD PUSH1 0x0 ISZERO ISZERO DUP2 MSTORE PUSH1 0x20 ADD PUSH1 0x0 DUP2 MSTORE PUSH1 0x20 ADD PUSH1 0x0 DUP2 MSTORE PUSH1 0x20 ADD PUSH1 0x0 DUP2 MSTORE PUSH1 0x20 ADD PUSH1 0x0 ISZERO ISZERO DUP2 MSTORE PUSH1 0x20 ADD PUSH1 0x0 DUP2 MSTORE PUSH1 0x20 ADD PUSH1 0x60 DUP2 MSTORE POP SWAP1 JUMP JUMPDEST PUSH1 0x40 MLOAD DUP1 PUSH1 0x60 ADD PUSH1 0x40 MSTORE DUP1 PUSH1 0x60 DUP2 MSTORE PUSH1 0x20 ADD PUSH1 0x60 DUP2 MSTORE PUSH1 0x20 ADD PUSH1 0x60 DUP2 MSTORE POP SWAP1 JUMP JUMPDEST PUSH1 0x40 MLOAD DUP1 PUSH2 0x140 ADD PUSH1 0x40 MSTORE DUP1 PUSH1 0xA SWAP1 PUSH1 0x20 DUP3 MUL DUP1 CALLDATASIZE DUP4 CALLDATACOPY DUP1 DUP3 ADD SWAP2 POP POP SWAP1 POP POP SWAP1 JUMP JUMPDEST PUSH1 0x0 DUP2 SWAP1 POP SWAP2 SWAP1 POP JUMP JUMPDEST PUSH2 0x39BA DUP2 PUSH2 0x39A7 JUMP JUMPDEST DUP3 MSTORE POP POP JUMP JUMPDEST PUSH1 0x0 PUSH1 0x20 DUP3 ADD SWAP1 POP PUSH2 0x39D5 PUSH1 0x0 DUP4 ADD DUP5 PUSH2 0x39B1 JUMP JUMPDEST SWAP3 SWAP2 POP POP JUMP JUMPDEST PUSH1 0x0 DUP1 REVERT JUMPDEST PUSH2 0x39E9 DUP2 PUSH2 0x39A7 JUMP JUMPDEST DUP2 EQ PUSH2 0x39F4 JUMPI PUSH1 0x0 DUP1 REVERT JUMPDEST POP JUMP JUMPDEST PUSH1 0x0 DUP2 CALLDATALOAD SWAP1 POP PUSH2 0x3A06 DUP2 PUSH2 0x39E0 JUMP JUMPDEST SWAP3 SWAP2 POP POP JUMP JUMPDEST PUSH1 0x0 DUP1 PUSH1 0x0 PUSH1 0x60 DUP5 DUP7 SUB SLT ISZERO PUSH2 0x3A25 JUMPI PUSH2 0x3A24 PUSH2 0x39DB JUMP JUMPDEST JUMPDEST PUSH1 0x0 PUSH2 0x3A33 DUP7 DUP3 DUP8 ADD PUSH2 0x39F7 JUMP JUMPDEST SWAP4 POP POP PUSH1 0x20 PUSH2 0x3A44 DUP7 DUP3 DUP8 ADD PUSH2 0x39F7 JUMP JUMPDEST SWAP3 POP POP PUSH1 0x40 PUSH2 0x3A55 DUP7 DUP3 DUP8 ADD PUSH2 0x39F7 JUMP JUMPDEST SWAP2 POP POP SWAP3 POP SWAP3 POP SWAP3 JUMP JUMPDEST PUSH1 0x0 DUP2 MLOAD SWAP1 POP SWAP2 SWAP1 POP JUMP JUMPDEST PUSH1 0x0 DUP3 DUP3 MSTORE PUSH1 0x20 DUP3 ADD SWAP1 POP SWAP3 SWAP2 POP POP JUMP JUMPDEST PUSH1 0x0 JUMPDEST DUP4 DUP2 LT ISZERO PUSH2 0x3A99 JUMPI DUP1 DUP3 ADD MLOAD DUP2 DUP5 ADD MSTORE PUSH1 0x20 DUP2 ADD SWAP1 POP PUSH2 0x3A7E JUMP JUMPDEST PUSH1 0x0 DUP5 DUP5 ADD MSTORE POP POP POP POP JUMP JUMPDEST PUSH1 0x0 PUSH1 0x1F NOT PUSH1 0x1F DUP4 ADD AND SWAP1 POP SWAP2 SWAP1 POP JUMP JUMPDEST PUSH1 0x0 PUSH2 0x3AC1 DUP3 PUSH2 0x3A5F JUMP JUMPDEST PUSH2 0x3ACB DUP2 DUP6 PUSH2 0x3A6A JUMP JUMPDEST SWAP4 POP PUSH2 0x3ADB DUP2 DUP6 PUSH1 0x20 DUP7 ADD PUSH2 0x3A7B JUMP JUMPDEST PUSH2 0x3AE4 DUP2 PUSH2 0x3AA5 JUMP JUMPDEST DUP5 ADD SWAP2 POP POP SWAP3 SWAP2 POP POP JUMP JUMPDEST PUSH1 0x0 DUP2 ISZERO ISZERO SWAP1 POP SWAP2 SWAP1 POP JUMP JUMPDEST PUSH2 0x3B04 DUP2 PUSH2 0x3AEF JUMP JUMPDEST DUP3 MSTORE POP POP JUMP JUMPDEST PUSH1 0x0 PUSH1 0xA0 DUP3 ADD SWAP1 POP DUP2 DUP2 SUB PUSH1 0x0 DUP4 ADD MSTORE PUSH2 0x3B24 DUP2 DUP9 PUSH2 0x3AB6 JUMP JUMPDEST SWAP1 POP DUP2 DUP2 SUB PUSH1 0x20 DUP4 ADD MSTORE PUSH2 0x3B38 DUP2 DUP8 PUSH2 0x3AB6 JUMP JUMPDEST SWAP1 POP PUSH2 0x3B47 PUSH1 0x40 DUP4 ADD DUP7 PUSH2 0x3AFB JUMP JUMPDEST PUSH2 0x3B54 PUSH1 0x60 DUP4 ADD DUP6 PUSH2 0x39B1 JUMP JUMPDEST PUSH2 0x3B61 PUSH1 0x80 DUP4 ADD DUP5 PUSH2 0x3AFB JUMP JUMPDEST SWAP7 SWAP6 POP POP POP POP POP POP JUMP JUMPDEST PUSH1 0x0 PUSH20 0xFFFFFFFFFFFFFFFFFFFFFFFFFFFFFFFFFFFFFFFF DUP3 AND SWAP1 POP SWAP2 SWAP1 POP JUMP JUMPDEST PUSH1 0x0 PUSH2 0x3B96 DUP3 PUSH2 0x3B6B JUMP JUMPDEST SWAP1 POP SWAP2 SWAP1 POP JUMP JUMPDEST PUSH2 0x3BA6 DUP2 PUSH2 0x3B8B JUMP JUMPDEST DUP2 EQ PUSH2 0x3BB1 JUMPI PUSH1 0x0 DUP1 REVERT JUMPDEST POP JUMP JUMPDEST PUSH1 0x0 DUP2 CALLDATALOAD SWAP1 POP PUSH2 0x3BC3 DUP2 PUSH2 0x3B9D JUMP JUMPDEST SWAP3 SWAP2 POP POP JUMP JUMPDEST PUSH1 0x0 DUP1 PUSH1 0x40 DUP4 DUP6 SUB SLT ISZERO PUSH2 0x3BE0 JUMPI PUSH2 0x3BDF PUSH2 0x39DB JUMP JUMPDEST JUMPDEST PUSH1 0x0 PUSH2 0x3BEE DUP6 DUP3 DUP7 ADD PUSH2 0x3BB4 JUMP JUMPDEST SWAP3 POP POP PUSH1 0x20 PUSH2 0x3BFF DUP6 DUP3 DUP7 ADD PUSH2 0x3BB4 JUMP JUMPDEST SWAP2 POP POP SWAP3 POP SWAP3 SWAP1 POP JUMP JUMPDEST PUSH1 0x0 PUSH1 0x20 DUP3 DUP5 SUB SLT ISZERO PUSH2 0x3C1F JUMPI PUSH2 0x3C1E PUSH2 0x39DB JUMP JUMPDEST JUMPDEST PUSH1 0x0 PUSH2 0x3C2D DUP5 DUP3 DUP6 ADD PUSH2 0x39F7 JUMP JUMPDEST SWAP2 POP POP SWAP3 SWAP2 POP POP JUMP JUMPDEST PUSH1 0x0 DUP1 PUSH1 0x0 PUSH1 0x60 DUP5 DUP7 SUB SLT ISZERO PUSH2 0x3C4F JUMPI PUSH2 0x3C4E PUSH2 0x39DB JUMP JUMPDEST JUMPDEST PUSH1 0x0 PUSH2 0x3C5D DUP7 DUP3 DUP8 ADD PUSH2 0x39F7 JUMP JUMPDEST SWAP4 POP POP PUSH1 0x20 PUSH2 0x3C6E DUP7 DUP3 DUP8 ADD PUSH2 0x3BB4 JUMP JUMPDEST SWAP3 POP POP PUSH1 0x40 PUSH2 0x3C7F DUP7 DUP3 DUP8 ADD PUSH2 0x3BB4 JUMP JUMPDEST SWAP2 POP POP SWAP3 POP SWAP3 POP SWAP3 JUMP JUMPDEST PUSH1 0x0 DUP1 PUSH1 0x40 DUP4 DUP6 SUB SLT ISZERO PUSH2 0x3CA0 JUMPI PUSH2 0x3C9F PUSH2 0x39DB JUMP JUMPDEST JUMPDEST PUSH1 0x0 PUSH2 0x3CAE DUP6 DUP3 DUP7 ADD PUSH2 0x39F7 JUMP JUMPDEST SWAP3 POP POP PUSH1 0x20 PUSH2 0x3CBF DUP6 DUP3 DUP7 ADD PUSH2 0x39F7 JUMP JUMPDEST SWAP2 POP POP SWAP3 POP SWAP3 SWAP1 POP JUMP JUMPDEST PUSH1 0x0 DUP2 MLOAD SWAP1 POP SWAP2 SWAP1 POP JUMP JUMPDEST PUSH1 0x0 DUP3 DUP3 MSTORE PUSH1 0x20 DUP3 ADD SWAP1 POP SWAP3 SWAP2 POP POP JUMP JUMPDEST PUSH1 0x0 DUP2 SWAP1 POP PUSH1 0x20 DUP3 ADD SWAP1 POP SWAP2 SWAP1 POP JUMP JUMPDEST PUSH2 0x3CFE DUP2 PUSH2 0x39A7 JUMP JUMPDEST DUP3 MSTORE POP POP JUMP JUMPDEST PUSH2 0x3D0D DUP2 PUSH2 0x3AEF JUMP JUMPDEST DUP3 MSTORE POP POP JUMP JUMPDEST PUSH1 0x0 DUP2 MLOAD SWAP1 POP SWAP2 SWAP1 POP JUMP JUMPDEST PUSH1 0x0 DUP3 DUP3 MSTORE PUSH1 0x20 DUP3 ADD SWAP1 POP SWAP3 SWAP2 POP POP JUMP JUMPDEST PUSH1 0x0 DUP2 SWAP1 POP PUSH1 0x20 DUP3 ADD SWAP1 POP SWAP2 SWAP1 POP JUMP JUMPDEST PUSH1 0x0 DUP2 MLOAD SWAP1 POP SWAP2 SWAP1 POP JUMP JUMPDEST PUSH1 0x0 DUP3 DUP3 MSTORE PUSH1 0x20 DUP3 ADD SWAP1 POP SWAP3 SWAP2 POP POP JUMP JUMPDEST PUSH1 0x0 DUP2 SWAP1 POP PUSH1 0x20 DUP3 ADD SWAP1 POP SWAP2 SWAP1 POP JUMP JUMPDEST PUSH1 0x60 DUP3 ADD PUSH1 0x0 DUP3 ADD MLOAD PUSH2 0x3D81 PUSH1 0x0 DUP6 ADD DUP3 PUSH2 0x3CF5 JUMP JUMPDEST POP PUSH1 0x20 DUP3 ADD MLOAD PUSH2 0x3D94 PUSH1 0x20 DUP6 ADD DUP3 PUSH2 0x3CF5 JUMP JUMPDEST POP PUSH1 0x40 DUP3 ADD MLOAD PUSH2 0x3DA7 PUSH1 0x40 DUP6 ADD DUP3 PUSH2 0x3CF5 JUMP JUMPDEST POP POP POP POP JUMP JUMPDEST PUSH1 0x0 PUSH2 0x3DB9 DUP4 DUP4 PUSH2 0x3D6B JUMP JUMPDEST PUSH1 0x60 DUP4 ADD SWAP1 POP SWAP3 SWAP2 POP POP JUMP JUMPDEST PUSH1 0x0 PUSH1 0x20 DUP3 ADD SWAP1 POP SWAP2 SWAP1 POP JUMP JUMPDEST PUSH1 0x0 PUSH2 0x3DDD DUP3 PUSH2 0x3D3F JUMP JUMPDEST PUSH2 0x3DE7 DUP2 DUP6 PUSH2 0x3D4A JUMP JUMPDEST SWAP4 POP PUSH2 0x3DF2 DUP4 PUSH2 0x3D5B JUMP JUMPDEST DUP1 PUSH1 0x0 JUMPDEST DUP4 DUP2 LT ISZERO PUSH2 0x3E23 JUMPI DUP2 MLOAD PUSH2 0x3E0A DUP9 DUP3 PUSH2 0x3DAD JUMP JUMPDEST SWAP8 POP PUSH2 0x3E15 DUP4 PUSH2 0x3DC5 JUMP JUMPDEST SWAP3 POP POP PUSH1 0x1 DUP2 ADD SWAP1 POP PUSH2 0x3DF6 JUMP JUMPDEST POP DUP6 SWAP4 POP POP POP POP SWAP3 SWAP2 POP POP JUMP JUMPDEST PUSH1 0x0 DUP2 MLOAD SWAP1 POP SWAP2 SWAP1 POP JUMP JUMPDEST PUSH1 0x0 DUP3 DUP3 MSTORE PUSH1 0x20 DUP3 ADD SWAP1 POP SWAP3 SWAP2 POP POP JUMP JUMPDEST PUSH1 0x0 DUP2 SWAP1 POP PUSH1 0x20 DUP3 ADD SWAP1 POP SWAP2 SWAP1 POP JUMP JUMPDEST PUSH1 0x0 PUSH2 0x3E68 DUP4 DUP4 PUSH2 0x3CF5 JUMP JUMPDEST PUSH1 0x20 DUP4 ADD SWAP1 POP SWAP3 SWAP2 POP POP JUMP JUMPDEST PUSH1 0x0 PUSH1 0x20 DUP3 ADD SWAP1 POP SWAP2 SWAP1 POP JUMP JUMPDEST PUSH1 0x0 PUSH2 0x3E8C DUP3 PUSH2 0x3E30 JUMP JUMPDEST PUSH2 0x3E96 DUP2 DUP6 PUSH2 0x3E3B JUMP JUMPDEST SWAP4 POP PUSH2 0x3EA1 DUP4 PUSH2 0x3E4C JUMP JUMPDEST DUP1 PUSH1 0x0 JUMPDEST DUP4 DUP2 LT ISZERO PUSH2 0x3ED2 JUMPI DUP2 MLOAD PUSH2 0x3EB9 DUP9 DUP3 PUSH2 0x3E5C JUMP JUMPDEST SWAP8 POP PUSH2 0x3EC4 DUP4 PUSH2 0x3E74 JUMP JUMPDEST SWAP3 POP POP PUSH1 0x1 DUP2 ADD SWAP1 POP PUSH2 0x3EA5 JUMP JUMPDEST POP DUP6 SWAP4 POP POP POP POP SWAP3 SWAP2 POP POP JUMP JUMPDEST PUSH1 0x0 PUSH1 0x60 DUP4 ADD PUSH1 0x0 DUP4 ADD MLOAD DUP5 DUP3 SUB PUSH1 0x0 DUP7 ADD MSTORE PUSH2 0x3EFC DUP3 DUP3 PUSH2 0x3DD2 JUMP JUMPDEST SWAP2 POP POP PUSH1 0x20 DUP4 ADD MLOAD DUP5 DUP3 SUB PUSH1 0x20 DUP7 ADD MSTORE PUSH2 0x3F16 DUP3 DUP3 PUSH2 0x3E81 JUMP JUMPDEST SWAP2 POP POP PUSH1 0x40 DUP4 ADD MLOAD DUP5 DUP3 SUB PUSH1 0x40 DUP7 ADD MSTORE PUSH2 0x3F30 DUP3 DUP3 PUSH2 0x3E81 JUMP JUMPDEST SWAP2 POP POP DUP1 SWAP2 POP POP SWAP3 SWAP2 POP POP JUMP JUMPDEST PUSH1 0x0 PUSH2 0x3F49 DUP4 DUP4 PUSH2 0x3EDF JUMP JUMPDEST SWAP1 POP SWAP3 SWAP2 POP POP JUMP JUMPDEST PUSH1 0x0 PUSH1 0x20 DUP3 ADD SWAP1 POP SWAP2 SWAP1 POP JUMP JUMPDEST PUSH1 0x0 PUSH2 0x3F69 DUP3 PUSH2 0x3D13 JUMP JUMPDEST PUSH2 0x3F73 DUP2 DUP6 PUSH2 0x3D1E JUMP JUMPDEST SWAP4 POP DUP4 PUSH1 0x20 DUP3 MUL DUP6 ADD PUSH2 0x3F85 DUP6 PUSH2 0x3D2F JUMP JUMPDEST DUP1 PUSH1 0x0 JUMPDEST DUP6 DUP2 LT ISZERO PUSH2 0x3FC1 JUMPI DUP5 DUP5 SUB DUP10 MSTORE DUP2 MLOAD PUSH2 0x3FA2 DUP6 DUP3 PUSH2 0x3F3D JUMP JUMPDEST SWAP5 POP PUSH2 0x3FAD DUP4 PUSH2 0x3F51 JUMP JUMPDEST SWAP3 POP PUSH1 0x20 DUP11 ADD SWAP10 POP POP PUSH1 0x1 DUP2 ADD SWAP1 POP PUSH2 0x3F89 JUMP JUMPDEST POP DUP3 SWAP8 POP DUP8 SWAP6 POP POP POP POP POP POP SWAP3 SWAP2 POP POP JUMP JUMPDEST PUSH1 0x0 PUSH2 0x1A0 DUP4 ADD PUSH1 0x0 DUP4 ADD MLOAD PUSH2 0x3FEC PUSH1 0x0 DUP7 ADD DUP3 PUSH2 0x3CF5 JUMP JUMPDEST POP PUSH1 0x20 DUP4 ADD MLOAD PUSH2 0x3FFF PUSH1 0x20 DUP7 ADD DUP3 PUSH2 0x3CF5 JUMP JUMPDEST POP PUSH1 0x40 DUP4 ADD MLOAD PUSH2 0x4012 PUSH1 0x40 DUP7 ADD DUP3 PUSH2 0x3CF5 JUMP JUMPDEST POP PUSH1 0x60 DUP4 ADD MLOAD PUSH2 0x4025 PUSH1 0x60 DUP7 ADD DUP3 PUSH2 0x3CF5 JUMP JUMPDEST POP PUSH1 0x80 DUP4 ADD MLOAD PUSH2 0x4038 PUSH1 0x80 DUP7 ADD DUP3 PUSH2 0x3D04 JUMP JUMPDEST POP PUSH1 0xA0 DUP4 ADD MLOAD PUSH2 0x404B PUSH1 0xA0 DUP7 ADD DUP3 PUSH2 0x3CF5 JUMP JUMPDEST POP PUSH1 0xC0 DUP4 ADD MLOAD PUSH2 0x405E PUSH1 0xC0 DUP7 ADD DUP3 PUSH2 0x3D04 JUMP JUMPDEST POP PUSH1 0xE0 DUP4 ADD MLOAD PUSH2 0x4071 PUSH1 0xE0 DUP7 ADD DUP3 PUSH2 0x3CF5 JUMP JUMPDEST POP PUSH2 0x100 DUP4 ADD MLOAD PUSH2 0x4086 PUSH2 0x100 DUP7 ADD DUP3 PUSH2 0x3CF5 JUMP JUMPDEST POP PUSH2 0x120 DUP4 ADD MLOAD PUSH2 0x409B PUSH2 0x120 DUP7 ADD DUP3 PUSH2 0x3CF5 JUMP JUMPDEST POP PUSH2 0x140 DUP4 ADD MLOAD PUSH2 0x40B0 PUSH2 0x140 DUP7 ADD DUP3 PUSH2 0x3D04 JUMP JUMPDEST POP PUSH2 0x160 DUP4 ADD MLOAD PUSH2 0x40C5 PUSH2 0x160 DUP7 ADD DUP3 PUSH2 0x3CF5 JUMP JUMPDEST POP PUSH2 0x180 DUP4 ADD MLOAD DUP5 DUP3 SUB PUSH2 0x180 DUP7 ADD MSTORE PUSH2 0x40DF DUP3 DUP3 PUSH2 0x3F5E JUMP JUMPDEST SWAP2 POP POP DUP1 SWAP2 POP POP SWAP3 SWAP2 POP POP JUMP JUMPDEST PUSH1 0x0 PUSH2 0x40F8 DUP4 DUP4 PUSH2 0x3FD3 JUMP JUMPDEST SWAP1 POP SWAP3 SWAP2 POP POP JUMP JUMPDEST PUSH1 0x0 PUSH1 0x20 DUP3 ADD SWAP1 POP SWAP2 SWAP1 POP JUMP JUMPDEST PUSH1 0x0 PUSH2 0x4118 DUP3 PUSH2 0x3CC9 JUMP JUMPDEST PUSH2 0x4122 DUP2 DUP6 PUSH2 0x3CD4 JUMP JUMPDEST SWAP4 POP DUP4 PUSH1 0x20 DUP3 MUL DUP6 ADD PUSH2 0x4134 DUP6 PUSH2 0x3CE5 JUMP JUMPDEST DUP1 PUSH1 0x0 JUMPDEST DUP6 DUP2 LT ISZERO PUSH2 0x4170 JUMPI DUP5 DUP5 SUB DUP10 MSTORE DUP2 MLOAD PUSH2 0x4151 DUP6 DUP3 PUSH2 0x40EC JUMP JUMPDEST SWAP5 POP PUSH2 0x415C DUP4 PUSH2 0x4100 JUMP JUMPDEST SWAP3 POP PUSH1 0x20 DUP11 ADD SWAP10 POP POP PUSH1 0x1 DUP2 ADD SWAP1 POP PUSH2 0x4138 JUMP JUMPDEST POP DUP3 SWAP8 POP DUP8 SWAP6 POP POP POP POP POP POP SWAP3 SWAP2 POP POP JUMP JUMPDEST PUSH1 0x0 PUSH1 0x20 DUP3 ADD SWAP1 POP DUP2 DUP2 SUB PUSH1 0x0 DUP4 ADD MSTORE PUSH2 0x419C DUP2 DUP5 PUSH2 0x410D JUMP JUMPDEST SWAP1 POP SWAP3 SWAP2 POP POP JUMP JUMPDEST PUSH2 0x41AD DUP2 PUSH2 0x3B8B JUMP JUMPDEST DUP3 MSTORE POP POP JUMP JUMPDEST PUSH1 0x0 PUSH1 0x20 DUP3 ADD SWAP1 POP PUSH2 0x41C8 PUSH1 0x0 DUP4 ADD DUP5 PUSH2 0x41A4 JUMP JUMPDEST SWAP3 SWAP2 POP POP JUMP JUMPDEST PUSH1 0x0 DUP2 SWAP1 POP SWAP2 SWAP1 POP JUMP JUMPDEST PUSH1 0x0 PUSH2 0x41F3 PUSH2 0x41EE PUSH2 0x41E9 DUP5 PUSH2 0x3B6B JUMP JUMPDEST PUSH2 0x41CE JUMP JUMPDEST PUSH2 0x3B6B JUMP JUMPDEST SWAP1 POP SWAP2 SWAP1 POP JUMP JUMPDEST PUSH1 0x0 PUSH2 0x4205 DUP3 PUSH2 0x41D8 JUMP JUMPDEST SWAP1 POP SWAP2 SWAP1 POP JUMP JUMPDEST PUSH1 0x0 PUSH2 0x4217 DUP3 PUSH2 0x41FA JUMP JUMPDEST SWAP1 POP SWAP2 SWAP1 POP JUMP JUMPDEST PUSH2 0x4227 DUP2 PUSH2 0x420C JUMP JUMPDEST DUP3 MSTORE POP POP JUMP JUMPDEST PUSH1 0x0 PUSH1 0x20 DUP3 ADD SWAP1 POP PUSH2 0x4242 PUSH1 0x0 DUP4 ADD DUP5 PUSH2 0x421E JUMP JUMPDEST SWAP3 SWAP2 POP POP JUMP JUMPDEST PUSH1 0x0 DUP1 PUSH1 0x0 DUP1 PUSH1 0x80 DUP6 DUP8 SUB SLT ISZERO PUSH2 0x4262 JUMPI PUSH2 0x4261 PUSH2 0x39DB JUMP JUMPDEST JUMPDEST PUSH1 0x0 PUSH2 0x4270 DUP8 DUP3 DUP9 ADD PUSH2 0x39F7 JUMP JUMPDEST SWAP5 POP POP PUSH1 0x20 PUSH2 0x4281 DUP8 DUP3 DUP9 ADD PUSH2 0x39F7 JUMP JUMPDEST SWAP4 POP POP PUSH1 0x40 PUSH2 0x4292 DUP8 DUP3 DUP9 ADD PUSH2 0x39F7 JUMP JUMPDEST SWAP3 POP POP PUSH1 0x60 PUSH2 0x42A3 DUP8 DUP3 DUP9 ADD PUSH2 0x39F7 JUMP JUMPDEST SWAP2 POP POP SWAP3 SWAP6 SWAP2 SWAP5 POP SWAP3 POP JUMP JUMPDEST PUSH1 0x0 PUSH1 0xA SWAP1 POP SWAP2 SWAP1 POP JUMP JUMPDEST PUSH1 0x0 DUP2 SWAP1 POP SWAP3 SWAP2 POP POP JUMP JUMPDEST PUSH1 0x0 DUP2 SWAP1 POP SWAP2 SWAP1 POP JUMP JUMPDEST PUSH1 0x0 PUSH1 0x20 DUP3 ADD SWAP1 POP SWAP2 SWAP1 POP JUMP JUMPDEST PUSH2 0x42E5 DUP2 PUSH2 0x42AF JUMP JUMPDEST PUSH2 0x42EF DUP2 DUP5 PUSH2 0x42BA JUMP JUMPDEST SWAP3 POP PUSH2 0x42FA DUP3 PUSH2 0x42C5 JUMP JUMPDEST DUP1 PUSH1 0x0 JUMPDEST DUP4 DUP2 LT ISZERO PUSH2 0x432B JUMPI DUP2 MLOAD PUSH2 0x4312 DUP8 DUP3 PUSH2 0x3E5C JUMP JUMPDEST SWAP7 POP PUSH2 0x431D DUP4 PUSH2 0x42CF JUMP JUMPDEST SWAP3 POP POP PUSH1 0x1 DUP2 ADD SWAP1 POP PUSH2 0x42FE JUMP JUMPDEST POP POP POP POP POP POP JUMP JUMPDEST PUSH1 0x0 PUSH2 0x140 DUP3 ADD SWAP1 POP PUSH2 0x4349 PUSH1 0x0 DUP4 ADD DUP5 PUSH2 0x42DC JUMP JUMPDEST SWAP3 SWAP2 POP POP JUMP JUMPDEST PUSH32 0x4E487B7100000000000000000000000000000000000000000000000000000000 PUSH1 0x0 MSTORE PUSH1 0x21 PUSH1 0x4 MSTORE PUSH1 0x24 PUSH1 0x0 REVERT JUMPDEST PUSH1 0xB DUP2 LT PUSH2 0x438F JUMPI PUSH2 0x438E PUSH2 0x434F JUMP JUMPDEST JUMPDEST POP JUMP JUMPDEST PUSH1 0x0 DUP2 SWAP1 POP PUSH2 0x43A0 DUP3 PUSH2 0x437E JUMP JUMPDEST SWAP2 SWAP1 POP JUMP JUMPDEST PUSH1 0x0 PUSH2 0x43B0 DUP3 PUSH2 0x4392 JUMP JUMPDEST SWAP1 POP SWAP2 SWAP1 POP JUMP JUMPDEST PUSH2 0x43C0 DUP2 PUSH2 0x43A5 JUMP JUMPDEST DUP3 MSTORE POP POP JUMP JUMPDEST PUSH1 0x0 PUSH1 0x60 DUP3 ADD SWAP1 POP PUSH2 0x43DB PUSH1 0x0 DUP4 ADD DUP7 PUSH2 0x39B1 JUMP JUMPDEST PUSH2 0x43E8 PUSH1 0x20 DUP4 ADD DUP6 PUSH2 0x43B7 JUMP JUMPDEST PUSH2 0x43F5 PUSH1 0x40 DUP4 ADD DUP5 PUSH2 0x39B1 JUMP JUMPDEST SWAP5 SWAP4 POP POP POP POP JUMP JUMPDEST PUSH32 0x4E487B7100000000000000000000000000000000000000000000000000000000 PUSH1 0x0 MSTORE PUSH1 0x22 PUSH1 0x4 MSTORE PUSH1 0x24 PUSH1 0x0 REVERT JUMPDEST PUSH1 0x0 PUSH1 0x2 DUP3 DIV SWAP1 POP PUSH1 0x1 DUP3 AND DUP1 PUSH2 0x4444 JUMPI PUSH1 0x7F DUP3 AND SWAP2 POP JUMPDEST PUSH1 0x20 DUP3 LT DUP2 SUB PUSH2 0x4457 JUMPI PUSH2 0x4456 PUSH2 0x43FD JUMP JUMPDEST JUMPDEST POP SWAP2 SWAP1 POP JUMP JUMPDEST PUSH1 0x0 PUSH1 0x40 DUP3 ADD SWAP1 POP PUSH2 0x4472 PUSH1 0x0 DUP4 ADD DUP6 PUSH2 0x41A4 JUMP JUMPDEST PUSH2 0x447F PUSH1 0x20 DUP4 ADD DUP5 PUSH2 0x41A4 JUMP JUMPDEST SWAP4 SWAP3 POP POP POP JUMP JUMPDEST PUSH1 0x0 DUP2 SWAP1 POP SWAP3 SWAP2 POP POP JUMP JUMPDEST PUSH1 0x0 PUSH2 0x449C DUP3 PUSH2 0x3A5F JUMP JUMPDEST PUSH2 0x44A6 DUP2 DUP6 PUSH2 0x4486 JUMP JUMPDEST SWAP4 POP PUSH2 0x44B6 DUP2 DUP6 PUSH1 0x20 DUP7 ADD PUSH2 0x3A7B JUMP JUMPDEST DUP1 DUP5 ADD SWAP2 POP POP SWAP3 SWAP2 POP POP JUMP JUMPDEST PUSH1 0x0 PUSH2 0x44CE DUP3 DUP5 PUSH2 0x4491 JUMP JUMPDEST SWAP2 POP DUP2 SWAP1 POP SWAP3 SWAP2 POP POP JUMP JUMPDEST PUSH1 0x0 DUP3 DUP3 MSTORE PUSH1 0x20 DUP3 ADD SWAP1 POP SWAP3 SWAP2 POP POP JUMP JUMPDEST PUSH32 0x4552523A206372656174654D617463682044656C65676174652063616C6C2066 PUSH1 0x0 DUP3 ADD MSTORE PUSH32 0x61696C6564210000000000000000000000000000000000000000000000000000 PUSH1 0x20 DUP3 ADD MSTORE POP JUMP JUMPDEST PUSH1 0x0 PUSH2 0x4546 PUSH1 0x26 DUP4 PUSH2 0x44D9 JUMP JUMPDEST SWAP2 POP PUSH2 0x4551 DUP3 PUSH2 0x44EA JUMP JUMPDEST PUSH1 0x40 DUP3 ADD SWAP1 POP SWAP2 SWAP1 POP JUMP JUMPDEST PUSH1 0x0 PUSH1 0x20 DUP3 ADD SWAP1 POP DUP2 DUP2 SUB PUSH1 0x0 DUP4 ADD MSTORE PUSH2 0x4575 DUP2 PUSH2 0x4539 JUMP JUMPDEST SWAP1 POP SWAP2 SWAP1 POP JUMP JUMPDEST PUSH32 0x4552523A2075706461746552657665616C496E666F2044656C65676174652063 PUSH1 0x0 DUP3 ADD MSTORE PUSH32 0x616C6C206661696C656421000000000000000000000000000000000000000000 PUSH1 0x20 DUP3 ADD MSTORE POP JUMP JUMPDEST PUSH1 0x0 PUSH2 0x45D8 PUSH1 0x2B DUP4 PUSH2 0x44D9 JUMP JUMPDEST SWAP2 POP PUSH2 0x45E3 DUP3 PUSH2 0x457C JUMP JUMPDEST PUSH1 0x40 DUP3 ADD SWAP1 POP SWAP2 SWAP1 POP JUMP JUMPDEST PUSH1 0x0 PUSH1 0x20 DUP3 ADD SWAP1 POP DUP2 DUP2 SUB PUSH1 0x0 DUP4 ADD MSTORE PUSH2 0x4607 DUP2 PUSH2 0x45CB JUMP JUMPDEST SWAP1 POP SWAP2 SWAP1 POP JUMP JUMPDEST PUSH1 0x0 PUSH1 0x60 DUP3 ADD SWAP1 POP PUSH2 0x4623 PUSH1 0x0 DUP4 ADD DUP7 PUSH2 0x39B1 JUMP JUMPDEST PUSH2 0x4630 PUSH1 0x20 DUP4 ADD DUP6 PUSH2 0x41A4 JUMP JUMPDEST PUSH2 0x463D PUSH1 0x40 DUP4 ADD DUP5 PUSH2 0x41A4 JUMP JUMPDEST SWAP5 SWAP4 POP POP POP POP JUMP JUMPDEST PUSH32 0x4552523A206A6F696E4D617463682044656C65676174652063616C6C20666169 PUSH1 0x0 DUP3 ADD MSTORE PUSH32 0x6C65642100000000000000000000000000000000000000000000000000000000 PUSH1 0x20 DUP3 ADD MSTORE POP JUMP JUMPDEST PUSH1 0x0 PUSH2 0x46A1 PUSH1 0x24 DUP4 PUSH2 0x44D9 JUMP JUMPDEST SWAP2 POP PUSH2 0x46AC DUP3 PUSH2 0x4645 JUMP JUMPDEST PUSH1 0x40 DUP3 ADD SWAP1 POP SWAP2 SWAP1 POP JUMP JUMPDEST PUSH1 0x0 PUSH1 0x20 DUP3 ADD SWAP1 POP DUP2 DUP2 SUB PUSH1 0x0 DUP4 ADD MSTORE PUSH2 0x46D0 DUP2 PUSH2 0x4694 JUMP JUMPDEST SWAP1 POP SWAP2 SWAP1 POP JUMP JUMPDEST PUSH32 0x4E487B7100000000000000000000000000000000000000000000000000000000 PUSH1 0x0 MSTORE PUSH1 0x41 PUSH1 0x4 MSTORE PUSH1 0x24 PUSH1 0x0 REVERT JUMPDEST PUSH32 0x4E487B7100000000000000000000000000000000000000000000000000000000 PUSH1 0x0 MSTORE PUSH1 0x32 PUSH1 0x4 MSTORE PUSH1 0x24 PUSH1 0x0 REVERT JUMPDEST PUSH32 0x4E487B7100000000000000000000000000000000000000000000000000000000 PUSH1 0x0 MSTORE PUSH1 0x11 PUSH1 0x4 MSTORE PUSH1 0x24 PUSH1 0x0 REVERT JUMPDEST PUSH1 0x0 PUSH2 0x476F DUP3 PUSH2 0x39A7 JUMP JUMPDEST SWAP2 POP PUSH32 0xFFFFFFFFFFFFFFFFFFFFFFFFFFFFFFFFFFFFFFFFFFFFFFFFFFFFFFFFFFFFFFFF DUP3 SUB PUSH2 0x47A1 JUMPI PUSH2 0x47A0 PUSH2 0x4735 JUMP JUMPDEST JUMPDEST PUSH1 0x1 DUP3 ADD SWAP1 POP SWAP2 SWAP1 POP JUMP JUMPDEST PUSH1 0x0 PUSH2 0x47B7 DUP3 PUSH2 0x39A7 JUMP JUMPDEST SWAP2 POP PUSH2 0x47C2 DUP4 PUSH2 0x39A7 JUMP JUMPDEST SWAP3 POP DUP3 DUP3 ADD SWAP1 POP DUP1 DUP3 GT ISZERO PUSH2 0x47DA JUMPI PUSH2 0x47D9 PUSH2 0x4735 JUMP JUMPDEST JUMPDEST SWAP3 SWAP2 POP POP JUMP JUMPDEST PUSH1 0x0 PUSH2 0x47EB DUP3 PUSH2 0x39A7 JUMP JUMPDEST SWAP2 POP PUSH2 0x47F6 DUP4 PUSH2 0x39A7 JUMP JUMPDEST SWAP3 POP DUP3 DUP3 SUB SWAP1 POP DUP2 DUP2 GT ISZERO PUSH2 0x480E JUMPI PUSH2 0x480D PUSH2 0x4735 JUMP JUMPDEST JUMPDEST SWAP3 SWAP2 POP POP JUMP JUMPDEST PUSH32 0x4552523A20636F6D6D69746D656E745469636B2044656C65676174652063616C PUSH1 0x0 DUP3 ADD MSTORE PUSH32 0x6C206661696C6564210000000000000000000000000000000000000000000000 PUSH1 0x20 DUP3 ADD MSTORE POP JUMP JUMPDEST PUSH1 0x0 PUSH2 0x4870 PUSH1 0x29 DUP4 PUSH2 0x44D9 JUMP JUMPDEST SWAP2 POP PUSH2 0x487B DUP3 PUSH2 0x4814 JUMP JUMPDEST PUSH1 0x40 DUP3 ADD SWAP1 POP SWAP2 SWAP1 POP JUMP JUMPDEST PUSH1 0x0 PUSH1 0x20 DUP3 ADD SWAP1 POP DUP2 DUP2 SUB PUSH1 0x0 DUP4 ADD MSTORE PUSH2 0x489F DUP2 PUSH2 0x4863 JUMP JUMPDEST SWAP1 POP SWAP2 SWAP1 POP JUMP JUMPDEST PUSH32 0x4552523A20757064617465436F6D6D69746D656E74496E666F2044656C656761 PUSH1 0x0 DUP3 ADD MSTORE PUSH32 0x74652063616C6C206661696C6564210000000000000000000000000000000000 PUSH1 0x20 DUP3 ADD MSTORE POP JUMP JUMPDEST PUSH1 0x0 PUSH2 0x4902 PUSH1 0x2F DUP4 PUSH2 0x44D9 JUMP JUMPDEST SWAP2 POP PUSH2 0x490D DUP3 PUSH2 0x48A6 JUMP JUMPDEST PUSH1 0x40 DUP3 ADD SWAP1 POP SWAP2 SWAP1 POP JUMP JUMPDEST PUSH1 0x0 PUSH1 0x20 DUP3 ADD SWAP1 POP DUP2 DUP2 SUB PUSH1 0x0 DUP4 ADD MSTORE PUSH2 0x4931 DUP2 PUSH2 0x48F5 JUMP JUMPDEST SWAP1 POP SWAP2 SWAP1 POP JUMP JUMPDEST PUSH32 0x4552523A204D61746368206E6F7420696E20636F727265637420737461676520 PUSH1 0x0 DUP3 ADD MSTORE PUSH32 0x746F20706572666F726D20612053746174652075706461746521000000000000 PUSH1 0x20 DUP3 ADD MSTORE POP JUMP JUMPDEST PUSH1 0x0 PUSH2 0x4994 PUSH1 0x3A DUP4 PUSH2 0x44D9 JUMP JUMPDEST SWAP2 POP PUSH2 0x499F DUP3 PUSH2 0x4938 JUMP JUMPDEST PUSH1 0x40 DUP3 ADD SWAP1 POP SWAP2 SWAP1 POP JUMP JUMPDEST PUSH1 0x0 PUSH1 0x20 DUP3 ADD SWAP1 POP DUP2 DUP2 SUB PUSH1 0x0 DUP4 ADD MSTORE PUSH2 0x49C3 DUP2 PUSH2 0x4987 JUMP JUMPDEST SWAP1 POP SWAP2 SWAP1 POP JUMP JUMPDEST PUSH1 0x0 PUSH1 0x40 DUP3 ADD SWAP1 POP PUSH2 0x49DF PUSH1 0x0 DUP4 ADD DUP6 PUSH2 0x39B1 JUMP JUMPDEST PUSH2 0x49EC PUSH1 0x20 DUP4 ADD DUP5 PUSH2 0x43B7 JUMP JUMPDEST SWAP4 SWAP3 POP POP POP JUMP JUMPDEST PUSH32 0x4552523A2072657665616C5469636B2044656C65676174652063616C6C206661 PUSH1 0x0 DUP3 ADD MSTORE PUSH32 0x696C656421000000000000000000000000000000000000000000000000000000 PUSH1 0x20 DUP3 ADD MSTORE POP JUMP JUMPDEST PUSH1 0x0 PUSH2 0x4A4F PUSH1 0x25 DUP4 PUSH2 0x44D9 JUMP JUMPDEST SWAP2 POP PUSH2 0x4A5A DUP3 PUSH2 0x49F3 JUMP JUMPDEST PUSH1 0x40 DUP3 ADD SWAP1 POP SWAP2 SWAP1 POP JUMP JUMPDEST PUSH1 0x0 PUSH1 0x20 DUP3 ADD SWAP1 POP DUP2 DUP2 SUB PUSH1 0x0 DUP4 ADD MSTORE PUSH2 0x4A7E DUP2 PUSH2 0x4A42 JUMP JUMPDEST SWAP1 POP SWAP2 SWAP1 POP JUMP JUMPDEST PUSH1 0x0 DUP2 SWAP1 POP SWAP2 SWAP1 POP JUMP JUMPDEST PUSH1 0x0 PUSH2 0x4A9A DUP3 PUSH2 0x4A85 JUMP JUMPDEST SWAP2 POP PUSH2 0x4AA5 DUP4 PUSH2 0x4A85 JUMP JUMPDEST SWAP3 POP DUP3 DUP3 SUB SWAP1 POP DUP2 DUP2 SLT PUSH1 0x0 DUP5 SLT AND DUP3 DUP3 SGT PUSH1 0x0 DUP6 SLT ISZERO AND OR ISZERO PUSH2 0x4ACC JUMPI PUSH2 0x4ACB PUSH2 0x4735 JUMP JUMPDEST JUMPDEST SWAP3 SWAP2 POP POP JUMP JUMPDEST PUSH1 0x0 PUSH2 0x4ADD DUP3 PUSH2 0x4A85 JUMP JUMPDEST SWAP2 POP PUSH2 0x4AE8 DUP4 PUSH2 0x4A85 JUMP JUMPDEST SWAP3 POP DUP3 DUP3 MUL PUSH2 0x4AF6 DUP2 PUSH2 0x4A85 JUMP JUMPDEST SWAP2 POP PUSH32 0x8000000000000000000000000000000000000000000000000000000000000000 DUP5 EQ PUSH1 0x0 DUP5 SLT AND ISZERO PUSH2 0x4B2E JUMPI PUSH2 0x4B2D PUSH2 0x4735 JUMP JUMPDEST JUMPDEST DUP3 DUP3 SDIV DUP5 EQ DUP4 ISZERO OR PUSH2 0x4B43 JUMPI PUSH2 0x4B42 PUSH2 0x4735 JUMP JUMPDEST JUMPDEST POP SWAP3 SWAP2 POP POP JUMP JUMPDEST PUSH1 0x0 PUSH2 0x4B55 DUP3 PUSH2 0x4A85 JUMP JUMPDEST SWAP2 POP PUSH2 0x4B60 DUP4 PUSH2 0x4A85 JUMP JUMPDEST SWAP3 POP DUP3 DUP3 ADD SWAP1 POP DUP3 DUP2 SLT ISZERO PUSH1 0x0 DUP4 SLT AND DUP4 DUP3 SLT PUSH1 0x0 DUP5 SLT ISZERO AND OR ISZERO PUSH2 0x4B88 JUMPI PUSH2 0x4B87 PUSH2 0x4735 JUMP JUMPDEST JUMPDEST SWAP3 SWAP2 POP POP JUMP JUMPDEST PUSH32 0x4E487B7100000000000000000000000000000000000000000000000000000000 PUSH1 0x0 MSTORE PUSH1 0x12 PUSH1 0x4 MSTORE PUSH1 0x24 PUSH1 0x0 REVERT JUMPDEST PUSH1 0x0 PUSH2 0x4BC8 DUP3 PUSH2 0x39A7 JUMP JUMPDEST SWAP2 POP PUSH2 0x4BD3 DUP4 PUSH2 0x39A7 JUMP JUMPDEST SWAP3 POP DUP3 PUSH2 0x4BE3 JUMPI PUSH2 0x4BE2 PUSH2 0x4B8E JUMP JUMPDEST JUMPDEST DUP3 DUP3 DIV SWAP1 POP SWAP3 SWAP2 POP POP JUMP JUMPDEST PUSH1 0x0 DUP2 PUSH1 0x1 SHR SWAP1 POP SWAP2 SWAP1 POP JUMP JUMPDEST PUSH1 0x0 DUP1 DUP3 SWAP2 POP DUP4 SWAP1 POP JUMPDEST PUSH1 0x1 DUP6 GT ISZERO PUSH2 0x4C45 JUMPI DUP1 DUP7 DIV DUP2 GT ISZERO PUSH2 0x4C21 JUMPI PUSH2 0x4C20 PUSH2 0x4735 JUMP JUMPDEST JUMPDEST PUSH1 0x1 DUP6 AND ISZERO PUSH2 0x4C30 JUMPI DUP1 DUP3 MUL SWAP2 POP JUMPDEST DUP1 DUP2 MUL SWAP1 POP PUSH2 0x4C3E DUP6 PUSH2 0x4BEE JUMP JUMPDEST SWAP5 POP PUSH2 0x4C05 JUMP JUMPDEST SWAP5 POP SWAP5 SWAP3 POP POP POP JUMP JUMPDEST PUSH1 0x0 DUP3 PUSH2 0x4C5E JUMPI PUSH1 0x1 SWAP1 POP PUSH2 0x4D1A JUMP JUMPDEST DUP2 PUSH2 0x4C6C JUMPI PUSH1 0x0 SWAP1 POP PUSH2 0x4D1A JUMP JUMPDEST DUP2 PUSH1 0x1 DUP2 EQ PUSH2 0x4C82 JUMPI PUSH1 0x2 DUP2 EQ PUSH2 0x4C8C JUMPI PUSH2 0x4CBB JUMP JUMPDEST PUSH1 0x1 SWAP2 POP POP PUSH2 0x4D1A JUMP JUMPDEST PUSH1 0xFF DUP5 GT ISZERO PUSH2 0x4C9E JUMPI PUSH2 0x4C9D PUSH2 0x4735 JUMP JUMPDEST JUMPDEST DUP4 PUSH1 0x2 EXP SWAP2 POP DUP5 DUP3 GT ISZERO PUSH2 0x4CB5 JUMPI PUSH2 0x4CB4 PUSH2 0x4735 JUMP JUMPDEST JUMPDEST POP PUSH2 0x4D1A JUMP JUMPDEST POP PUSH1 0x20 DUP4 LT PUSH2 0x133 DUP4 LT AND PUSH1 0x4E DUP5 LT PUSH1 0xB DUP5 LT AND OR ISZERO PUSH2 0x4CF0 JUMPI DUP3 DUP3 EXP SWAP1 POP DUP4 DUP2 GT ISZERO PUSH2 0x4CEB JUMPI PUSH2 0x4CEA PUSH2 0x4735 JUMP JUMPDEST JUMPDEST PUSH2 0x4D1A JUMP JUMPDEST PUSH2 0x4CFD DUP5 DUP5 DUP5 PUSH1 0x1 PUSH2 0x4BFB JUMP JUMPDEST SWAP3 POP SWAP1 POP DUP2 DUP5 DIV DUP2 GT ISZERO PUSH2 0x4D14 JUMPI PUSH2 0x4D13 PUSH2 0x4735 JUMP JUMPDEST JUMPDEST DUP2 DUP2 MUL SWAP1 POP JUMPDEST SWAP4 SWAP3 POP POP POP JUMP JUMPDEST PUSH1 0x0 PUSH1 0xFF DUP3 AND SWAP1 POP SWAP2 SWAP1 POP JUMP JUMPDEST PUSH1 0x0 PUSH2 0x4D39 DUP3 PUSH2 0x39A7 JUMP JUMPDEST SWAP2 POP PUSH2 0x4D44 DUP4 PUSH2 0x4D21 JUMP JUMPDEST SWAP3 POP PUSH2 0x4D71 PUSH32 0xFFFFFFFFFFFFFFFFFFFFFFFFFFFFFFFFFFFFFFFFFFFFFFFFFFFFFFFFFFFFFFFF DUP5 DUP5 PUSH2 0x4C4E JUMP JUMPDEST SWAP1 POP SWAP3 SWAP2 POP POP JUMP JUMPDEST PUSH1 0x0 PUSH2 0x4D84 DUP3 PUSH2 0x39A7 JUMP JUMPDEST SWAP2 POP PUSH2 0x4D8F DUP4 PUSH2 0x39A7 JUMP JUMPDEST SWAP3 POP DUP3 PUSH2 0x4D9F JUMPI PUSH2 0x4D9E PUSH2 0x4B8E JUMP JUMPDEST JUMPDEST DUP3 DUP3 MOD SWAP1 POP SWAP3 SWAP2 POP POP JUMP INVALID LOG2 PUSH5 0x6970667358 0x22 SLT KECCAK256 SWAP3 0xD2 0xE3 ADDRESS 0xE8 0xA7 0xD8 DUP7 0x25 0x27 0x4C 0xE8 0xF9 PUSH30 0x239ED05B9773C05B4F9D9CEC686A5DCE51C164736F6C6343000812003360 DUP1 PUSH1 0x40 MSTORE CALLVALUE DUP1 ISZERO PUSH2 0x10 JUMPI PUSH1 0x0 DUP1 REVERT JUMPDEST POP PUSH2 0x26D DUP1 PUSH2 0x20 PUSH1 0x0 CODECOPY PUSH1 0x0 RETURN INVALID PUSH1 0x80 PUSH1 0x40 MSTORE CALLVALUE DUP1 ISZERO PUSH2 0x10 JUMPI PUSH1 0x0 DUP1 REVERT JUMPDEST POP PUSH1 0x4 CALLDATASIZE LT PUSH2 0x9E JUMPI PUSH1 0x0 CALLDATALOAD PUSH1 0xE0 SHR DUP1 PUSH4 0x705DD6CD GT PUSH2 0x66 JUMPI DUP1 PUSH4 0x705DD6CD EQ PUSH2 0x139 JUMPI DUP1 PUSH4 0x734692A9 EQ PUSH2 0x157 JUMPI DUP1 PUSH4 0xAE5C1356 EQ PUSH2 0x175 JUMPI DUP1 PUSH4 0xC8067B6F EQ PUSH2 0x193 JUMPI DUP1 PUSH4 0xE3C8BFB9 EQ PUSH2 0x1B1 JUMPI PUSH2 0x9E JUMP JUMPDEST DUP1 PUSH4 0x124A96C8 EQ PUSH2 0xA3 JUMPI DUP1 PUSH4 0x39FEBF0C EQ PUSH2 0xC1 JUMPI DUP1 PUSH4 0x45BAEE55 EQ PUSH2 0xDF JUMPI DUP1 PUSH4 0x49BBC37A EQ PUSH2 0xFD JUMPI DUP1 PUSH4 0x4FFDF11E EQ PUSH2 0x11B JUMPI JUMPDEST PUSH1 0x0 DUP1 REVERT JUMPDEST PUSH2 0xAB PUSH2 0x1CF JUMP JUMPDEST PUSH1 0x40 MLOAD PUSH2 0xB8 SWAP2 SWAP1 PUSH2 0x21C JUMP JUMPDEST PUSH1 0x40 MLOAD DUP1 SWAP2 SUB SWAP1 RETURN JUMPDEST PUSH2 0xC9 PUSH2 0x1D5 JUMP JUMPDEST PUSH1 0x40 MLOAD PUSH2 0xD6 SWAP2 SWAP1 PUSH2 0x21C JUMP JUMPDEST PUSH1 0x40 MLOAD DUP1 SWAP2 SUB SWAP1 RETURN JUMPDEST PUSH2 0xE7 PUSH2 0x1DA JUMP JUMPDEST PUSH1 0x40 MLOAD PUSH2 0xF4 SWAP2 SWAP1 PUSH2 0x21C JUMP JUMPDEST PUSH1 0x40 MLOAD DUP1 SWAP2 SUB SWAP1 RETURN JUMPDEST PUSH2 0x105 PUSH2 0x1DF JUMP JUMPDEST PUSH1 0x40 MLOAD PUSH2 0x112 SWAP2 SWAP1 PUSH2 0x21C JUMP JUMPDEST PUSH1 0x40 MLOAD DUP1 SWAP2 SUB SWAP1 RETURN JUMPDEST PUSH2 0x123 PUSH2 0x1E5 JUMP JUMPDEST PUSH1 0x40 MLOAD PUSH2 0x130 SWAP2 SWAP1 PUSH2 0x21C JUMP JUMPDEST PUSH1 0x40 MLOAD DUP1 SWAP2 SUB SWAP1 RETURN JUMPDEST PUSH2 0x141 PUSH2 0x1EA JUMP JUMPDEST PUSH1 0x40 MLOAD PUSH2 0x14E SWAP2 SWAP1 PUSH2 0x21C JUMP JUMPDEST PUSH1 0x40 MLOAD DUP1 SWAP2 SUB SWAP1 RETURN JUMPDEST PUSH2 0x15F PUSH2 0x1EF JUMP JUMPDEST PUSH1 0x40 MLOAD PUSH2 0x16C SWAP2 SWAP1 PUSH2 0x21C JUMP JUMPDEST PUSH1 0x40 MLOAD DUP1 SWAP2 SUB SWAP1 RETURN JUMPDEST PUSH2 0x17D PUSH2 0x1F4 JUMP JUMPDEST PUSH1 0x40 MLOAD PUSH2 0x18A SWAP2 SWAP1 PUSH2 0x21C JUMP JUMPDEST PUSH1 0x40 MLOAD DUP1 SWAP2 SUB SWAP1 RETURN JUMPDEST PUSH2 0x19B PUSH2 0x1F9 JUMP JUMPDEST PUSH1 0x40 MLOAD PUSH2 0x1A8 SWAP2 SWAP1 PUSH2 0x21C JUMP JUMPDEST PUSH1 0x40 MLOAD DUP1 SWAP2 SUB SWAP1 RETURN JUMPDEST PUSH2 0x1B9 PUSH2 0x1FE JUMP JUMPDEST PUSH1 0x40 MLOAD PUSH2 0x1C6 SWAP2 SWAP1 PUSH2 0x21C JUMP JUMPDEST PUSH1 0x40 MLOAD DUP1 SWAP2 SUB SWAP1 RETURN JUMPDEST PUSH2 0x1F4 DUP2 JUMP JUMPDEST PUSH1 0x5 DUP2 JUMP JUMPDEST PUSH1 0x7 DUP2 JUMP JUMPDEST PUSH2 0x3E8 DUP2 JUMP JUMPDEST PUSH1 0x6 DUP2 JUMP JUMPDEST PUSH1 0xA DUP2 JUMP JUMPDEST PUSH1 0x7 DUP2 JUMP JUMPDEST PUSH1 0xA DUP2 JUMP JUMPDEST PUSH1 0x5 DUP2 JUMP JUMPDEST PUSH1 0x2 DUP2 JUMP JUMPDEST PUSH1 0x0 DUP2 SWAP1 POP SWAP2 SWAP1 POP JUMP JUMPDEST PUSH2 0x216 DUP2 PUSH2 0x203 JUMP JUMPDEST DUP3 MSTORE POP POP JUMP JUMPDEST PUSH1 0x0 PUSH1 0x20 DUP3 ADD SWAP1 POP PUSH2 0x231 PUSH1 0x0 DUP4 ADD DUP5 PUSH2 0x20D JUMP JUMPDEST SWAP3 SWAP2 POP POP JUMP INVALID LOG2 PUSH5 0x6970667358 0x22 SLT KECCAK256 ADD 0xD9 0xD8 PUSH12 0x524B072C82851D2DA1AF5686 ADD 0xB9 SWAP2 0xB5 EXTCODEHASH PUSH26 0xE36A726E5478A595E9964736F6C634300081200336080604052 CALLVALUE DUP1 ISZERO PUSH3 0x11 JUMPI PUSH1 0x0 DUP1 REVERT JUMPDEST POP PUSH1 0x40 MLOAD PUSH3 0x3DE2 CODESIZE SUB DUP1 PUSH3 0x3DE2 DUP4 CODECOPY DUP2 DUP2 ADD PUSH1 0x40 MSTORE DUP2 ADD SWAP1 PUSH3 0x37 SWAP2 SWAP1 PUSH3 0x162 JUMP JUMPDEST PUSH1 0x40 MLOAD PUSH3 0x45 SWAP1 PUSH3 0xEA JUMP JUMPDEST PUSH1 0x40 MLOAD DUP1 SWAP2 SUB SWAP1 PUSH1 0x0 CREATE DUP1 ISZERO DUP1 ISZERO PUSH3 0x62 JUMPI RETURNDATASIZE PUSH1 0x0 DUP1 RETURNDATACOPY RETURNDATASIZE PUSH1 0x0 REVERT JUMPDEST POP PUSH1 0x0 DUP1 PUSH2 0x100 EXP DUP2 SLOAD DUP2 PUSH20 0xFFFFFFFFFFFFFFFFFFFFFFFFFFFFFFFFFFFFFFFF MUL NOT AND SWAP1 DUP4 PUSH20 0xFFFFFFFFFFFFFFFFFFFFFFFFFFFFFFFFFFFFFFFF AND MUL OR SWAP1 SSTORE POP DUP1 PUSH1 0x1 PUSH1 0x0 PUSH2 0x100 EXP DUP2 SLOAD DUP2 PUSH20 0xFFFFFFFFFFFFFFFFFFFFFFFFFFFFFFFFFFFFFFFF MUL NOT AND SWAP1 DUP4 PUSH20 0xFFFFFFFFFFFFFFFFFFFFFFFFFFFFFFFFFFFFFFFF AND MUL OR SWAP1 SSTORE POP POP PUSH3 0x194 JUMP JUMPDEST PUSH2 0x28D DUP1 PUSH3 0x3B55 DUP4 CODECOPY ADD SWAP1 JUMP JUMPDEST PUSH1 0x0 DUP1 REVERT JUMPDEST PUSH1 0x0 PUSH20 0xFFFFFFFFFFFFFFFFFFFFFFFFFFFFFFFFFFFFFFFF DUP3 AND SWAP1 POP SWAP2 SWAP1 POP JUMP JUMPDEST PUSH1 0x0 PUSH3 0x12A DUP3 PUSH3 0xFD JUMP JUMPDEST SWAP1 POP SWAP2 SWAP1 POP JUMP JUMPDEST PUSH3 0x13C DUP2 PUSH3 0x11D JUMP JUMPDEST DUP2 EQ PUSH3 0x148 JUMPI PUSH1 0x0 DUP1 REVERT JUMPDEST POP JUMP JUMPDEST PUSH1 0x0 DUP2 MLOAD SWAP1 POP PUSH3 0x15C DUP2 PUSH3 0x131 JUMP JUMPDEST SWAP3 SWAP2 POP POP JUMP JUMPDEST PUSH1 0x0 PUSH1 0x20 DUP3 DUP5 SUB SLT ISZERO PUSH3 0x17B JUMPI PUSH3 0x17A PUSH3 0xF8 JUMP JUMPDEST JUMPDEST PUSH1 0x0 PUSH3 0x18B DUP5 DUP3 DUP6 ADD PUSH3 0x14B JUMP JUMPDEST SWAP2 POP POP SWAP3 SWAP2 POP POP JUMP JUMPDEST PUSH2 0x39B1 DUP1 PUSH3 0x1A4 PUSH1 0x0 CODECOPY PUSH1 0x0 RETURN INVALID PUSH1 0x80 PUSH1 0x40 MSTORE CALLVALUE DUP1 ISZERO PUSH2 0x10 JUMPI PUSH1 0x0 DUP1 REVERT JUMPDEST POP PUSH1 0x4 CALLDATASIZE LT PUSH2 0x158 JUMPI PUSH1 0x0 CALLDATALOAD PUSH1 0xE0 SHR DUP1 PUSH4 0x705DD6CD GT PUSH2 0xC3 JUMPI DUP1 PUSH4 0xAE5C1356 GT PUSH2 0x7C JUMPI DUP1 PUSH4 0xAE5C1356 EQ PUSH2 0x3A9 JUMPI DUP1 PUSH4 0xC8067B6F EQ PUSH2 0x3C7 JUMPI DUP1 PUSH4 0xD79B490E EQ PUSH2 0x3E5 JUMPI DUP1 PUSH4 0xD7DFA0DD EQ PUSH2 0x417 JUMPI DUP1 PUSH4 0xE3C8BFB9 EQ PUSH2 0x435 JUMPI DUP1 PUSH4 0xF9781033 EQ PUSH2 0x453 JUMPI PUSH2 0x158 JUMP JUMPDEST DUP1 PUSH4 0x705DD6CD EQ PUSH2 0x2E5 JUMPI DUP1 PUSH4 0x72DE5B2F EQ PUSH2 0x303 JUMPI DUP1 PUSH4 0x734692A9 EQ PUSH2 0x321 JUMPI DUP1 PUSH4 0x755F10FD EQ PUSH2 0x33F JUMPI DUP1 PUSH4 0x8BA47BDD EQ PUSH2 0x36F JUMPI DUP1 PUSH4 0x90EDE5D5 EQ PUSH2 0x38D JUMPI PUSH2 0x158 JUMP JUMPDEST DUP1 PUSH4 0x37C74779 GT PUSH2 0x115 JUMPI DUP1 PUSH4 0x37C74779 EQ PUSH2 0x221 JUMPI DUP1 PUSH4 0x39FEBF0C EQ PUSH2 0x251 JUMPI DUP1 PUSH4 0x45BAEE55 EQ PUSH2 0x26F JUMPI DUP1 PUSH4 0x49BBC37A EQ PUSH2 0x28D JUMPI DUP1 PUSH4 0x4FFDF11E EQ PUSH2 0x2AB JUMPI DUP1 PUSH4 0x5CD6925A EQ PUSH2 0x2C9 JUMPI PUSH2 0x158 JUMP JUMPDEST DUP1 PUSH4 0x1FD1951 EQ PUSH2 0x15D JUMPI DUP1 PUSH4 0x124A96C8 EQ PUSH2 0x17B JUMPI DUP1 PUSH4 0x1B7D40A5 EQ PUSH2 0x199 JUMPI DUP1 PUSH4 0x1E20530A EQ PUSH2 0x1CD JUMPI DUP1 PUSH4 0x27764F7D EQ PUSH2 0x1E9 JUMPI DUP1 PUSH4 0x35868AB7 EQ PUSH2 0x205 JUMPI JUMPDEST PUSH1 0x0 DUP1 REVERT JUMPDEST PUSH2 0x165 PUSH2 0x46F JUMP JUMPDEST PUSH1 0x40 MLOAD PUSH2 0x172 SWAP2 SWAP1 PUSH2 0x27C5 JUMP JUMPDEST PUSH1 0x40 MLOAD DUP1 SWAP2 SUB SWAP1 RETURN JUMPDEST PUSH2 0x183 PUSH2 0x475 JUMP JUMPDEST PUSH1 0x40 MLOAD PUSH2 0x190 SWAP2 SWAP1 PUSH2 0x27C5 JUMP JUMPDEST PUSH1 0x40 MLOAD DUP1 SWAP2 SUB SWAP1 RETURN JUMPDEST PUSH2 0x1B3 PUSH1 0x4 DUP1 CALLDATASIZE SUB DUP2 ADD SWAP1 PUSH2 0x1AE SWAP2 SWAP1 PUSH2 0x2820 JUMP JUMPDEST PUSH2 0x47B JUMP JUMPDEST PUSH1 0x40 MLOAD PUSH2 0x1C4 SWAP6 SWAP5 SWAP4 SWAP3 SWAP2 SWAP1 PUSH2 0x291E JUMP JUMPDEST PUSH1 0x40 MLOAD DUP1 SWAP2 SUB SWAP1 RETURN JUMPDEST PUSH2 0x1E7 PUSH1 0x4 DUP1 CALLDATASIZE SUB DUP2 ADD SWAP1 PUSH2 0x1E2 SWAP2 SWAP1 PUSH2 0x29DD JUMP JUMPDEST PUSH2 0x605 JUMP JUMPDEST STOP JUMPDEST PUSH2 0x203 PUSH1 0x4 DUP1 CALLDATASIZE SUB DUP2 ADD SWAP1 PUSH2 0x1FE SWAP2 SWAP1 PUSH2 0x2A1D JUMP JUMPDEST PUSH2 0x785 JUMP JUMPDEST STOP JUMPDEST PUSH2 0x21F PUSH1 0x4 DUP1 CALLDATASIZE SUB DUP2 ADD SWAP1 PUSH2 0x21A SWAP2 SWAP1 PUSH2 0x2A4A JUMP JUMPDEST PUSH2 0xB93 JUMP JUMPDEST STOP JUMPDEST PUSH2 0x23B PUSH1 0x4 DUP1 CALLDATASIZE SUB DUP2 ADD SWAP1 PUSH2 0x236 SWAP2 SWAP1 PUSH2 0x2A1D JUMP JUMPDEST PUSH2 0xD7C JUMP JUMPDEST PUSH1 0x40 MLOAD PUSH2 0x248 SWAP2 SWAP1 PUSH2 0x27C5 JUMP JUMPDEST PUSH1 0x40 MLOAD DUP1 SWAP2 SUB SWAP1 RETURN JUMPDEST PUSH2 0x259 PUSH2 0xD94 JUMP JUMPDEST PUSH1 0x40 MLOAD PUSH2 0x266 SWAP2 SWAP1 PUSH2 0x27C5 JUMP JUMPDEST PUSH1 0x40 MLOAD DUP1 SWAP2 SUB SWAP1 RETURN JUMPDEST PUSH2 0x277 PUSH2 0xD99 JUMP JUMPDEST PUSH1 0x40 MLOAD PUSH2 0x284 SWAP2 SWAP1 PUSH2 0x27C5 JUMP JUMPDEST PUSH1 0x40 MLOAD DUP1 SWAP2 SUB SWAP1 RETURN JUMPDEST PUSH2 0x295 PUSH2 0xD9E JUMP JUMPDEST PUSH1 0x40 MLOAD PUSH2 0x2A2 SWAP2 SWAP1 PUSH2 0x27C5 JUMP JUMPDEST PUSH1 0x40 MLOAD DUP1 SWAP2 SUB SWAP1 RETURN JUMPDEST PUSH2 0x2B3 PUSH2 0xDA4 JUMP JUMPDEST PUSH1 0x40 MLOAD PUSH2 0x2C0 SWAP2 SWAP1 PUSH2 0x27C5 JUMP JUMPDEST PUSH1 0x40 MLOAD DUP1 SWAP2 SUB SWAP1 RETURN JUMPDEST PUSH2 0x2E3 PUSH1 0x4 DUP1 CALLDATASIZE SUB DUP2 ADD SWAP1 PUSH2 0x2DE SWAP2 SWAP1 PUSH2 0x2A1D JUMP JUMPDEST PUSH2 0xDA9 JUMP JUMPDEST STOP JUMPDEST PUSH2 0x2ED PUSH2 0x10C6 JUMP JUMPDEST PUSH1 0x40 MLOAD PUSH2 0x2FA SWAP2 SWAP1 PUSH2 0x27C5 JUMP JUMPDEST PUSH1 0x40 MLOAD DUP1 SWAP2 SUB SWAP1 RETURN JUMPDEST PUSH2 0x30B PUSH2 0x10CB JUMP JUMPDEST PUSH1 0x40 MLOAD PUSH2 0x318 SWAP2 SWAP1 PUSH2 0x2AFC JUMP JUMPDEST PUSH1 0x40 MLOAD DUP1 SWAP2 SUB SWAP1 RETURN JUMPDEST PUSH2 0x329 PUSH2 0x10EF JUMP JUMPDEST PUSH1 0x40 MLOAD PUSH2 0x336 SWAP2 SWAP1 PUSH2 0x27C5 JUMP JUMPDEST PUSH1 0x40 MLOAD DUP1 SWAP2 SUB SWAP1 RETURN JUMPDEST PUSH2 0x359 PUSH1 0x4 DUP1 CALLDATASIZE SUB DUP2 ADD SWAP1 PUSH2 0x354 SWAP2 SWAP1 PUSH2 0x2A1D JUMP JUMPDEST PUSH2 0x10F4 JUMP JUMPDEST PUSH1 0x40 MLOAD PUSH2 0x366 SWAP2 SWAP1 PUSH2 0x27C5 JUMP JUMPDEST PUSH1 0x40 MLOAD DUP1 SWAP2 SUB SWAP1 RETURN JUMPDEST PUSH2 0x377 PUSH2 0x110C JUMP JUMPDEST PUSH1 0x40 MLOAD PUSH2 0x384 SWAP2 SWAP1 PUSH2 0x2B26 JUMP JUMPDEST PUSH1 0x40 MLOAD DUP1 SWAP2 SUB SWAP1 RETURN JUMPDEST PUSH2 0x3A7 PUSH1 0x4 DUP1 CALLDATASIZE SUB DUP2 ADD SWAP1 PUSH2 0x3A2 SWAP2 SWAP1 PUSH2 0x2A1D JUMP JUMPDEST PUSH2 0x1132 JUMP JUMPDEST STOP JUMPDEST PUSH2 0x3B1 PUSH2 0x1540 JUMP JUMPDEST PUSH1 0x40 MLOAD PUSH2 0x3BE SWAP2 SWAP1 PUSH2 0x27C5 JUMP JUMPDEST PUSH1 0x40 MLOAD DUP1 SWAP2 SUB SWAP1 RETURN JUMPDEST PUSH2 0x3CF PUSH2 0x1545 JUMP JUMPDEST PUSH1 0x40 MLOAD PUSH2 0x3DC SWAP2 SWAP1 PUSH2 0x27C5 JUMP JUMPDEST PUSH1 0x40 MLOAD DUP1 SWAP2 SUB SWAP1 RETURN JUMPDEST PUSH2 0x3FF PUSH1 0x4 DUP1 CALLDATASIZE SUB DUP2 ADD SWAP1 PUSH2 0x3FA SWAP2 SWAP1 PUSH2 0x2A1D JUMP JUMPDEST PUSH2 0x154A JUMP JUMPDEST PUSH1 0x40 MLOAD PUSH2 0x40E SWAP4 SWAP3 SWAP2 SWAP1 PUSH2 0x2BB8 JUMP JUMPDEST PUSH1 0x40 MLOAD DUP1 SWAP2 SUB SWAP1 RETURN JUMPDEST PUSH2 0x41F PUSH2 0x1581 JUMP JUMPDEST PUSH1 0x40 MLOAD PUSH2 0x42C SWAP2 SWAP1 PUSH2 0x2B26 JUMP JUMPDEST PUSH1 0x40 MLOAD DUP1 SWAP2 SUB SWAP1 RETURN JUMPDEST PUSH2 0x43D PUSH2 0x15A7 JUMP JUMPDEST PUSH1 0x40 MLOAD PUSH2 0x44A SWAP2 SWAP1 PUSH2 0x27C5 JUMP JUMPDEST PUSH1 0x40 MLOAD DUP1 SWAP2 SUB SWAP1 RETURN JUMPDEST PUSH2 0x46D PUSH1 0x4 DUP1 CALLDATASIZE SUB DUP2 ADD SWAP1 PUSH2 0x468 SWAP2 SWAP1 PUSH2 0x2A1D JUMP JUMPDEST PUSH2 0x15AC JUMP JUMPDEST STOP JUMPDEST PUSH1 0x3 SLOAD DUP2 JUMP JUMPDEST PUSH2 0x1F4 DUP2 JUMP JUMPDEST PUSH1 0x9 PUSH1 0x20 MSTORE DUP3 PUSH1 0x0 MSTORE PUSH1 0x40 PUSH1 0x0 KECCAK256 PUSH1 0x20 MSTORE DUP2 PUSH1 0x0 MSTORE PUSH1 0x40 PUSH1 0x0 KECCAK256 DUP2 DUP2 SLOAD DUP2 LT PUSH2 0x4A3 JUMPI PUSH1 0x0 DUP1 REVERT JUMPDEST SWAP1 PUSH1 0x0 MSTORE PUSH1 0x20 PUSH1 0x0 KECCAK256 SWAP1 PUSH1 0x7 MUL ADD PUSH1 0x0 SWAP3 POP SWAP3 POP POP POP DUP1 PUSH1 0x0 ADD DUP1 SLOAD PUSH2 0x4C8 SWAP1 PUSH2 0x2C1E JUMP JUMPDEST DUP1 PUSH1 0x1F ADD PUSH1 0x20 DUP1 SWAP2 DIV MUL PUSH1 0x20 ADD PUSH1 0x40 MLOAD SWAP1 DUP2 ADD PUSH1 0x40 MSTORE DUP1 SWAP3 SWAP2 SWAP1 DUP2 DUP2 MSTORE PUSH1 0x20 ADD DUP3 DUP1 SLOAD PUSH2 0x4F4 SWAP1 PUSH2 0x2C1E JUMP JUMPDEST DUP1 ISZERO PUSH2 0x541 JUMPI DUP1 PUSH1 0x1F LT PUSH2 0x516 JUMPI PUSH2 0x100 DUP1 DUP4 SLOAD DIV MUL DUP4 MSTORE SWAP2 PUSH1 0x20 ADD SWAP2 PUSH2 0x541 JUMP JUMPDEST DUP3 ADD SWAP2 SWAP1 PUSH1 0x0 MSTORE PUSH1 0x20 PUSH1 0x0 KECCAK256 SWAP1 JUMPDEST DUP2 SLOAD DUP2 MSTORE SWAP1 PUSH1 0x1 ADD SWAP1 PUSH1 0x20 ADD DUP1 DUP4 GT PUSH2 0x524 JUMPI DUP3 SWAP1 SUB PUSH1 0x1F AND DUP3 ADD SWAP2 JUMPDEST POP POP POP POP POP SWAP1 DUP1 PUSH1 0x1 ADD DUP1 SLOAD PUSH2 0x556 SWAP1 PUSH2 0x2C1E JUMP JUMPDEST DUP1 PUSH1 0x1F ADD PUSH1 0x20 DUP1 SWAP2 DIV MUL PUSH1 0x20 ADD PUSH1 0x40 MLOAD SWAP1 DUP2 ADD PUSH1 0x40 MSTORE DUP1 SWAP3 SWAP2 SWAP1 DUP2 DUP2 MSTORE PUSH1 0x20 ADD DUP3 DUP1 SLOAD PUSH2 0x582 SWAP1 PUSH2 0x2C1E JUMP JUMPDEST DUP1 ISZERO PUSH2 0x5CF JUMPI DUP1 PUSH1 0x1F LT PUSH2 0x5A4 JUMPI PUSH2 0x100 DUP1 DUP4 SLOAD DIV MUL DUP4 MSTORE SWAP2 PUSH1 0x20 ADD SWAP2 PUSH2 0x5CF JUMP JUMPDEST DUP3 ADD SWAP2 SWAP1 PUSH1 0x0 MSTORE PUSH1 0x20 PUSH1 0x0 KECCAK256 SWAP1 JUMPDEST DUP2 SLOAD DUP2 MSTORE SWAP1 PUSH1 0x1 ADD SWAP1 PUSH1 0x20 ADD DUP1 DUP4 GT PUSH2 0x5B2 JUMPI DUP3 SWAP1 SUB PUSH1 0x1F AND DUP3 ADD SWAP2 JUMPDEST POP POP POP POP POP SWAP1 DUP1 PUSH1 0x4 ADD PUSH1 0x0 SWAP1 SLOAD SWAP1 PUSH2 0x100 EXP SWAP1 DIV PUSH1 0xFF AND SWAP1 DUP1 PUSH1 0x5 ADD SLOAD SWAP1 DUP1 PUSH1 0x6 ADD PUSH1 0x0 SWAP1 SLOAD SWAP1 PUSH2 0x100 EXP SWAP1 DIV PUSH1 0xFF AND SWAP1 POP DUP6 JUMP JUMPDEST PUSH1 0x0 PUSH1 0x3 SLOAD SWAP1 POP PUSH2 0x617 DUP2 PUSH1 0x0 PUSH2 0x1801 JUMP JUMPDEST PUSH1 0x0 PUSH1 0x4 PUSH1 0x0 DUP4 DUP2 MSTORE PUSH1 0x20 ADD SWAP1 DUP2 MSTORE PUSH1 0x20 ADD PUSH1 0x0 KECCAK256 SWAP1 POP PUSH1 0x1 DUP2 PUSH1 0x3 ADD PUSH1 0x0 PUSH2 0x100 EXP DUP2 SLOAD DUP2 PUSH1 0xFF MUL NOT AND SWAP1 DUP4 PUSH1 0xA DUP2 GT ISZERO PUSH2 0x656 JUMPI PUSH2 0x655 PUSH2 0x2B41 JUMP JUMPDEST JUMPDEST MUL OR SWAP1 SSTORE POP DUP4 DUP2 PUSH1 0x1 ADD PUSH1 0x0 DUP2 SLOAD DUP2 LT PUSH2 0x673 JUMPI PUSH2 0x672 PUSH2 0x2C4F JUMP JUMPDEST JUMPDEST SWAP1 PUSH1 0x0 MSTORE PUSH1 0x20 PUSH1 0x0 KECCAK256 ADD PUSH1 0x0 PUSH2 0x100 EXP DUP2 SLOAD DUP2 PUSH20 0xFFFFFFFFFFFFFFFFFFFFFFFFFFFFFFFFFFFFFFFF MUL NOT AND SWAP1 DUP4 PUSH20 0xFFFFFFFFFFFFFFFFFFFFFFFFFFFFFFFFFFFFFFFF AND MUL OR SWAP1 SSTORE POP DUP3 DUP2 PUSH1 0x2 ADD PUSH1 0x0 DUP2 SLOAD DUP2 LT PUSH2 0x6D3 JUMPI PUSH2 0x6D2 PUSH2 0x2C4F JUMP JUMPDEST JUMPDEST SWAP1 PUSH1 0x0 MSTORE PUSH1 0x20 PUSH1 0x0 KECCAK256 ADD PUSH1 0x0 PUSH2 0x100 EXP DUP2 SLOAD DUP2 PUSH20 0xFFFFFFFFFFFFFFFFFFFFFFFFFFFFFFFFFFFFFFFF MUL NOT AND SWAP1 DUP4 PUSH20 0xFFFFFFFFFFFFFFFFFFFFFFFFFFFFFFFFFFFFFFFF AND MUL OR SWAP1 SSTORE POP PUSH1 0x1 PUSH1 0x3 PUSH1 0x0 DUP3 DUP3 SLOAD PUSH2 0x72E SWAP2 SWAP1 PUSH2 0x2CAD JUMP JUMPDEST SWAP3 POP POP DUP2 SWAP1 SSTORE POP PUSH32 0x58D4562CF15D1052E816FD24F6AF2C8A3A21416D6E4C01A9E11EF84FFE537E25 DUP3 DUP3 PUSH1 0x3 ADD PUSH1 0x0 SWAP1 SLOAD SWAP1 PUSH2 0x100 EXP SWAP1 DIV PUSH1 0xFF AND PUSH1 0x40 MLOAD PUSH2 0x777 SWAP3 SWAP2 SWAP1 PUSH2 0x2CE1 JUMP JUMPDEST PUSH1 0x40 MLOAD DUP1 SWAP2 SUB SWAP1 LOG1 POP POP POP POP JUMP JUMPDEST PUSH1 0x0 PUSH1 0x4 PUSH1 0x0 DUP4 DUP2 MSTORE PUSH1 0x20 ADD SWAP1 DUP2 MSTORE PUSH1 0x20 ADD PUSH1 0x0 KECCAK256 SWAP1 POP PUSH1 0x7 PUSH1 0xA DUP2 GT ISZERO PUSH2 0x7B0 JUMPI PUSH2 0x7AF PUSH2 0x2B41 JUMP JUMPDEST JUMPDEST DUP2 PUSH1 0x3 ADD PUSH1 0x0 SWAP1 SLOAD SWAP1 PUSH2 0x100 EXP SWAP1 DIV PUSH1 0xFF AND PUSH1 0xA DUP2 GT ISZERO PUSH2 0x7D4 JUMPI PUSH2 0x7D3 PUSH2 0x2B41 JUMP JUMPDEST JUMPDEST EQ PUSH2 0x814 JUMPI PUSH1 0x40 MLOAD PUSH32 0x8C379A000000000000000000000000000000000000000000000000000000000 DUP2 MSTORE PUSH1 0x4 ADD PUSH2 0x80B SWAP1 PUSH2 0x2D8D JUMP JUMPDEST PUSH1 0x40 MLOAD DUP1 SWAP2 SUB SWAP1 REVERT JUMPDEST PUSH1 0x0 JUMPDEST PUSH1 0x0 DUP1 SLOAD SWAP1 PUSH2 0x100 EXP SWAP1 DIV PUSH20 0xFFFFFFFFFFFFFFFFFFFFFFFFFFFFFFFFFFFFFFFF AND PUSH20 0xFFFFFFFFFFFFFFFFFFFFFFFFFFFFFFFFFFFFFFFF AND PUSH4 0xE3C8BFB9 PUSH1 0x40 MLOAD DUP2 PUSH4 0xFFFFFFFF AND PUSH1 0xE0 SHL DUP2 MSTORE PUSH1 0x4 ADD PUSH1 0x20 PUSH1 0x40 MLOAD DUP1 DUP4 SUB DUP2 DUP7 GAS STATICCALL ISZERO DUP1 ISZERO PUSH2 0x882 JUMPI RETURNDATASIZE PUSH1 0x0 DUP1 RETURNDATACOPY RETURNDATASIZE PUSH1 0x0 REVERT JUMPDEST POP POP POP POP PUSH1 0x40 MLOAD RETURNDATASIZE PUSH1 0x1F NOT PUSH1 0x1F DUP3 ADD AND DUP3 ADD DUP1 PUSH1 0x40 MSTORE POP DUP2 ADD SWAP1 PUSH2 0x8A6 SWAP2 SWAP1 PUSH2 0x2DC2 JUMP JUMPDEST DUP2 LT ISZERO PUSH2 0x9AC JUMPI DUP2 PUSH1 0x2 ADD DUP2 DUP2 SLOAD DUP2 LT PUSH2 0x8C3 JUMPI PUSH2 0x8C2 PUSH2 0x2C4F JUMP JUMPDEST JUMPDEST SWAP1 PUSH1 0x0 MSTORE PUSH1 0x20 PUSH1 0x0 KECCAK256 ADD PUSH1 0x0 SWAP1 SLOAD SWAP1 PUSH2 0x100 EXP SWAP1 DIV PUSH20 0xFFFFFFFFFFFFFFFFFFFFFFFFFFFFFFFFFFFFFFFF AND PUSH20 0xFFFFFFFFFFFFFFFFFFFFFFFFFFFFFFFFFFFFFFFF AND PUSH4 0xCCE71063 PUSH1 0x40 MLOAD DUP2 PUSH4 0xFFFFFFFF AND PUSH1 0xE0 SHL DUP2 MSTORE PUSH1 0x4 ADD PUSH1 0x20 PUSH1 0x40 MLOAD DUP1 DUP4 SUB DUP2 DUP7 GAS STATICCALL ISZERO DUP1 ISZERO PUSH2 0x938 JUMPI RETURNDATASIZE PUSH1 0x0 DUP1 RETURNDATACOPY RETURNDATASIZE PUSH1 0x0 REVERT JUMPDEST POP POP POP POP PUSH1 0x40 MLOAD RETURNDATASIZE PUSH1 0x1F NOT PUSH1 0x1F DUP3 ADD AND DUP3 ADD DUP1 PUSH1 0x40 MSTORE POP DUP2 ADD SWAP1 PUSH2 0x95C SWAP2 SWAP1 PUSH2 0x2E1B JUMP JUMPDEST PUSH2 0x99B JUMPI PUSH1 0x40 MLOAD PUSH32 0x8C379A000000000000000000000000000000000000000000000000000000000 DUP2 MSTORE PUSH1 0x4 ADD PUSH2 0x992 SWAP1 PUSH2 0x2EBA JUMP JUMPDEST PUSH1 0x40 MLOAD DUP1 SWAP2 SUB SWAP1 REVERT JUMPDEST DUP1 PUSH2 0x9A5 SWAP1 PUSH2 0x2EDA JUMP JUMPDEST SWAP1 POP PUSH2 0x817 JUMP JUMPDEST POP PUSH1 0x0 JUMPDEST PUSH1 0x0 DUP1 SLOAD SWAP1 PUSH2 0x100 EXP SWAP1 DIV PUSH20 0xFFFFFFFFFFFFFFFFFFFFFFFFFFFFFFFFFFFFFFFF AND PUSH20 0xFFFFFFFFFFFFFFFFFFFFFFFFFFFFFFFFFFFFFFFF AND PUSH4 0xE3C8BFB9 PUSH1 0x40 MLOAD DUP2 PUSH4 0xFFFFFFFF AND PUSH1 0xE0 SHL DUP2 MSTORE PUSH1 0x4 ADD PUSH1 0x20 PUSH1 0x40 MLOAD DUP1 DUP4 SUB DUP2 DUP7 GAS STATICCALL ISZERO DUP1 ISZERO PUSH2 0xA1B JUMPI RETURNDATASIZE PUSH1 0x0 DUP1 RETURNDATACOPY RETURNDATASIZE PUSH1 0x0 REVERT JUMPDEST POP POP POP POP PUSH1 0x40 MLOAD RETURNDATASIZE PUSH1 0x1F NOT PUSH1 0x1F DUP3 ADD AND DUP3 ADD DUP1 PUSH1 0x40 MSTORE POP DUP2 ADD SWAP1 PUSH2 0xA3F SWAP2 SWAP1 PUSH2 0x2DC2 JUMP JUMPDEST DUP2 LT ISZERO PUSH2 0xB17 JUMPI PUSH2 0xB06 DUP4 DUP3 DUP5 PUSH1 0x2 ADD DUP5 DUP2 SLOAD DUP2 LT PUSH2 0xA61 JUMPI PUSH2 0xA60 PUSH2 0x2C4F JUMP JUMPDEST JUMPDEST SWAP1 PUSH1 0x0 MSTORE PUSH1 0x20 PUSH1 0x0 KECCAK256 ADD PUSH1 0x0 SWAP1 SLOAD SWAP1 PUSH2 0x100 EXP SWAP1 DIV PUSH20 0xFFFFFFFFFFFFFFFFFFFFFFFFFFFFFFFFFFFFFFFF AND PUSH20 0xFFFFFFFFFFFFFFFFFFFFFFFFFFFFFFFFFFFFFFFF AND PUSH4 0x2F703E08 PUSH1 0x40 MLOAD DUP2 PUSH4 0xFFFFFFFF AND PUSH1 0xE0 SHL DUP2 MSTORE PUSH1 0x4 ADD PUSH1 0x0 PUSH1 0x40 MLOAD DUP1 DUP4 SUB DUP2 PUSH1 0x0 DUP8 GAS CALL ISZERO DUP1 ISZERO PUSH2 0xAD8 JUMPI RETURNDATASIZE PUSH1 0x0 DUP1 RETURNDATACOPY RETURNDATASIZE PUSH1 0x0 REVERT JUMPDEST POP POP POP POP PUSH1 0x40 MLOAD RETURNDATASIZE PUSH1 0x0 DUP3 RETURNDATACOPY RETURNDATASIZE PUSH1 0x1F NOT PUSH1 0x1F DUP3 ADD AND DUP3 ADD DUP1 PUSH1 0x40 MSTORE POP DUP2 ADD SWAP1 PUSH2 0xB01 SWAP2 SWAP1 PUSH2 0x3048 JUMP JUMPDEST PUSH2 0x1D4F JUMP JUMPDEST DUP1 PUSH2 0xB10 SWAP1 PUSH2 0x2EDA JUMP JUMPDEST SWAP1 POP PUSH2 0x9B0 JUMP JUMPDEST POP PUSH1 0x8 DUP2 PUSH1 0x3 ADD PUSH1 0x0 PUSH2 0x100 EXP DUP2 SLOAD DUP2 PUSH1 0xFF MUL NOT AND SWAP1 DUP4 PUSH1 0xA DUP2 GT ISZERO PUSH2 0xB40 JUMPI PUSH2 0xB3F PUSH2 0x2B41 JUMP JUMPDEST JUMPDEST MUL OR SWAP1 SSTORE POP PUSH32 0x58D4562CF15D1052E816FD24F6AF2C8A3A21416D6E4C01A9E11EF84FFE537E25 DUP3 DUP3 PUSH1 0x3 ADD PUSH1 0x0 SWAP1 SLOAD SWAP1 PUSH2 0x100 EXP SWAP1 DIV PUSH1 0xFF AND PUSH1 0x40 MLOAD PUSH2 0xB87 SWAP3 SWAP2 SWAP1 PUSH2 0x2CE1 JUMP JUMPDEST PUSH1 0x40 MLOAD DUP1 SWAP2 SUB SWAP1 LOG1 POP POP JUMP JUMPDEST PUSH1 0x0 PUSH1 0x4 PUSH1 0x0 DUP6 DUP2 MSTORE PUSH1 0x20 ADD SWAP1 DUP2 MSTORE PUSH1 0x20 ADD PUSH1 0x0 KECCAK256 SWAP1 POP PUSH1 0x1 PUSH1 0xA DUP2 GT ISZERO PUSH2 0xBBE JUMPI PUSH2 0xBBD PUSH2 0x2B41 JUMP JUMPDEST JUMPDEST DUP2 PUSH1 0x3 ADD PUSH1 0x0 SWAP1 SLOAD SWAP1 PUSH2 0x100 EXP SWAP1 DIV PUSH1 0xFF AND PUSH1 0xA DUP2 GT ISZERO PUSH2 0xBE2 JUMPI PUSH2 0xBE1 PUSH2 0x2B41 JUMP JUMPDEST JUMPDEST EQ PUSH2 0xC22 JUMPI PUSH1 0x40 MLOAD PUSH32 0x8C379A000000000000000000000000000000000000000000000000000000000 DUP2 MSTORE PUSH1 0x4 ADD PUSH2 0xC19 SWAP1 PUSH2 0x3103 JUMP JUMPDEST PUSH1 0x40 MLOAD DUP1 SWAP2 SUB SWAP1 REVERT JUMPDEST DUP3 DUP2 PUSH1 0x1 ADD PUSH1 0x1 DUP2 SLOAD DUP2 LT PUSH2 0xC3A JUMPI PUSH2 0xC39 PUSH2 0x2C4F JUMP JUMPDEST JUMPDEST SWAP1 PUSH1 0x0 MSTORE PUSH1 0x20 PUSH1 0x0 KECCAK256 ADD PUSH1 0x0 PUSH2 0x100 EXP DUP2 SLOAD DUP2 PUSH20 0xFFFFFFFFFFFFFFFFFFFFFFFFFFFFFFFFFFFFFFFF MUL NOT AND SWAP1 DUP4 PUSH20 0xFFFFFFFFFFFFFFFFFFFFFFFFFFFFFFFFFFFFFFFF AND MUL OR SWAP1 SSTORE POP DUP2 DUP2 PUSH1 0x2 ADD PUSH1 0x1 DUP2 SLOAD DUP2 LT PUSH2 0xC9A JUMPI PUSH2 0xC99 PUSH2 0x2C4F JUMP JUMPDEST JUMPDEST SWAP1 PUSH1 0x0 MSTORE PUSH1 0x20 PUSH1 0x0 KECCAK256 ADD PUSH1 0x0 PUSH2 0x100 EXP DUP2 SLOAD DUP2 PUSH20 0xFFFFFFFFFFFFFFFFFFFFFFFFFFFFFFFFFFFFFFFF MUL NOT AND SWAP1 DUP4 PUSH20 0xFFFFFFFFFFFFFFFFFFFFFFFFFFFFFFFFFFFFFFFF AND MUL OR SWAP1 SSTORE POP PUSH1 0x2 DUP2 PUSH1 0x3 ADD PUSH1 0x0 PUSH2 0x100 EXP DUP2 SLOAD DUP2 PUSH1 0xFF MUL NOT AND SWAP1 DUP4 PUSH1 0xA DUP2 GT ISZERO PUSH2 0xD0A JUMPI PUSH2 0xD09 PUSH2 0x2B41 JUMP JUMPDEST JUMPDEST MUL OR SWAP1 SSTORE POP PUSH2 0xD18 DUP5 PUSH2 0x24BE JUMP JUMPDEST PUSH2 0xD2C PUSH2 0x515 PUSH8 0xADBF78816EE7165 PUSH2 0x2577 JUMP JUMPDEST PUSH32 0x58D4562CF15D1052E816FD24F6AF2C8A3A21416D6E4C01A9E11EF84FFE537E25 DUP5 DUP3 PUSH1 0x3 ADD PUSH1 0x0 SWAP1 SLOAD SWAP1 PUSH2 0x100 EXP SWAP1 DIV PUSH1 0xFF AND PUSH1 0x40 MLOAD PUSH2 0xD6E SWAP3 SWAP2 SWAP1 PUSH2 0x2CE1 JUMP JUMPDEST PUSH1 0x40 MLOAD DUP1 SWAP2 SUB SWAP1 LOG1 POP POP POP POP JUMP JUMPDEST PUSH1 0x5 PUSH1 0x20 MSTORE DUP1 PUSH1 0x0 MSTORE PUSH1 0x40 PUSH1 0x0 KECCAK256 PUSH1 0x0 SWAP2 POP SWAP1 POP SLOAD DUP2 JUMP JUMPDEST PUSH1 0x5 DUP2 JUMP JUMPDEST PUSH1 0x7 DUP2 JUMP JUMPDEST PUSH2 0x3E8 DUP2 JUMP JUMPDEST PUSH1 0x6 DUP2 JUMP JUMPDEST PUSH1 0x0 PUSH1 0x4 PUSH1 0x0 DUP4 DUP2 MSTORE PUSH1 0x20 ADD SWAP1 DUP2 MSTORE PUSH1 0x20 ADD PUSH1 0x0 KECCAK256 SWAP1 POP PUSH2 0xDFE PUSH1 0x40 MLOAD DUP1 PUSH1 0x40 ADD PUSH1 0x40 MSTORE DUP1 PUSH1 0x17 DUP2 MSTORE PUSH1 0x20 ADD PUSH32 0x636F6D6D69746D656E745469636B202D2063616C6C6564000000000000000000 DUP2 MSTORE POP PUSH2 0x2677 JUMP JUMPDEST PUSH1 0x4 PUSH1 0xA DUP2 GT ISZERO PUSH2 0xE12 JUMPI PUSH2 0xE11 PUSH2 0x2B41 JUMP JUMPDEST JUMPDEST DUP2 PUSH1 0x3 ADD PUSH1 0x0 SWAP1 SLOAD SWAP1 PUSH2 0x100 EXP SWAP1 DIV PUSH1 0xFF AND PUSH1 0xA DUP2 GT ISZERO PUSH2 0xE36 JUMPI PUSH2 0xE35 PUSH2 0x2B41 JUMP JUMPDEST JUMPDEST EQ DUP1 PUSH2 0xE77 JUMPI POP PUSH1 0x9 PUSH1 0xA DUP2 GT ISZERO PUSH2 0xE51 JUMPI PUSH2 0xE50 PUSH2 0x2B41 JUMP JUMPDEST JUMPDEST DUP2 PUSH1 0x3 ADD PUSH1 0x0 SWAP1 SLOAD SWAP1 PUSH2 0x100 EXP SWAP1 DIV PUSH1 0xFF AND PUSH1 0xA DUP2 GT ISZERO PUSH2 0xE75 JUMPI PUSH2 0xE74 PUSH2 0x2B41 JUMP JUMPDEST JUMPDEST EQ JUMPDEST PUSH2 0xEB6 JUMPI PUSH1 0x40 MLOAD PUSH32 0x8C379A000000000000000000000000000000000000000000000000000000000 DUP2 MSTORE PUSH1 0x4 ADD PUSH2 0xEAD SWAP1 PUSH2 0x3195 JUMP JUMPDEST PUSH1 0x40 MLOAD DUP1 SWAP2 SUB SWAP1 REVERT JUMPDEST PUSH2 0xEDF DUP3 PUSH1 0x1 PUSH1 0x6 PUSH1 0x0 DUP7 DUP2 MSTORE PUSH1 0x20 ADD SWAP1 DUP2 MSTORE PUSH1 0x20 ADD PUSH1 0x0 KECCAK256 SLOAD PUSH2 0xEDA SWAP2 SWAP1 PUSH2 0x2CAD JUMP JUMPDEST PUSH2 0x1801 JUMP JUMPDEST PUSH2 0xF00 PUSH1 0x40 MLOAD DUP1 PUSH1 0x60 ADD PUSH1 0x40 MSTORE DUP1 PUSH1 0x29 DUP2 MSTORE PUSH1 0x20 ADD PUSH2 0x3953 PUSH1 0x29 SWAP2 CODECOPY PUSH2 0x2677 JUMP JUMPDEST PUSH1 0x0 JUMPDEST PUSH1 0x0 DUP1 SLOAD SWAP1 PUSH2 0x100 EXP SWAP1 DIV PUSH20 0xFFFFFFFFFFFFFFFFFFFFFFFFFFFFFFFFFFFFFFFF AND PUSH20 0xFFFFFFFFFFFFFFFFFFFFFFFFFFFFFFFFFFFFFFFF AND PUSH4 0xE3C8BFB9 PUSH1 0x40 MLOAD DUP2 PUSH4 0xFFFFFFFF AND PUSH1 0xE0 SHL DUP2 MSTORE PUSH1 0x4 ADD PUSH1 0x20 PUSH1 0x40 MLOAD DUP1 DUP4 SUB DUP2 DUP7 GAS STATICCALL ISZERO DUP1 ISZERO PUSH2 0xF6E JUMPI RETURNDATASIZE PUSH1 0x0 DUP1 RETURNDATACOPY RETURNDATASIZE PUSH1 0x0 REVERT JUMPDEST POP POP POP POP PUSH1 0x40 MLOAD RETURNDATASIZE PUSH1 0x1F NOT PUSH1 0x1F DUP3 ADD AND DUP3 ADD DUP1 PUSH1 0x40 MSTORE POP DUP2 ADD SWAP1 PUSH2 0xF92 SWAP2 SWAP1 PUSH2 0x2DC2 JUMP JUMPDEST DUP2 LT ISZERO PUSH2 0x104A JUMPI DUP2 PUSH1 0x1 ADD DUP2 DUP2 SLOAD DUP2 LT PUSH2 0xFAF JUMPI PUSH2 0xFAE PUSH2 0x2C4F JUMP JUMPDEST JUMPDEST SWAP1 PUSH1 0x0 MSTORE PUSH1 0x20 PUSH1 0x0 KECCAK256 ADD PUSH1 0x0 SWAP1 SLOAD SWAP1 PUSH2 0x100 EXP SWAP1 DIV PUSH20 0xFFFFFFFFFFFFFFFFFFFFFFFFFFFFFFFFFFFFFFFF AND PUSH20 0xFFFFFFFFFFFFFFFFFFFFFFFFFFFFFFFFFFFFFFFF AND PUSH4 0x606DEECD PUSH1 0x40 MLOAD DUP2 PUSH4 0xFFFFFFFF AND PUSH1 0xE0 SHL DUP2 MSTORE PUSH1 0x4 ADD PUSH1 0x0 PUSH1 0x40 MLOAD DUP1 DUP4 SUB DUP2 PUSH1 0x0 DUP8 DUP1 EXTCODESIZE ISZERO DUP1 ISZERO PUSH2 0x1021 JUMPI PUSH1 0x0 DUP1 REVERT JUMPDEST POP GAS CALL ISZERO DUP1 ISZERO PUSH2 0x1035 JUMPI RETURNDATASIZE PUSH1 0x0 DUP1 RETURNDATACOPY RETURNDATASIZE PUSH1 0x0 REVERT JUMPDEST POP POP POP POP DUP1 PUSH2 0x1043 SWAP1 PUSH2 0x2EDA JUMP JUMPDEST SWAP1 POP PUSH2 0xF03 JUMP JUMPDEST POP PUSH1 0x5 DUP2 PUSH1 0x3 ADD PUSH1 0x0 PUSH2 0x100 EXP DUP2 SLOAD DUP2 PUSH1 0xFF MUL NOT AND SWAP1 DUP4 PUSH1 0xA DUP2 GT ISZERO PUSH2 0x1073 JUMPI PUSH2 0x1072 PUSH2 0x2B41 JUMP JUMPDEST JUMPDEST MUL OR SWAP1 SSTORE POP PUSH32 0x58D4562CF15D1052E816FD24F6AF2C8A3A21416D6E4C01A9E11EF84FFE537E25 DUP3 DUP3 PUSH1 0x3 ADD PUSH1 0x0 SWAP1 SLOAD SWAP1 PUSH2 0x100 EXP SWAP1 DIV PUSH1 0xFF AND PUSH1 0x40 MLOAD PUSH2 0x10BA SWAP3 SWAP2 SWAP1 PUSH2 0x2CE1 JUMP JUMPDEST PUSH1 0x40 MLOAD DUP1 SWAP2 SUB SWAP1 LOG1 POP POP JUMP JUMPDEST PUSH1 0xA DUP2 JUMP JUMPDEST PUSH1 0x0 DUP1 SLOAD SWAP1 PUSH2 0x100 EXP SWAP1 DIV PUSH20 0xFFFFFFFFFFFFFFFFFFFFFFFFFFFFFFFFFFFFFFFF AND DUP2 JUMP JUMPDEST PUSH1 0x7 DUP2 JUMP JUMPDEST PUSH1 0x6 PUSH1 0x20 MSTORE DUP1 PUSH1 0x0 MSTORE PUSH1 0x40 PUSH1 0x0 KECCAK256 PUSH1 0x0 SWAP2 POP SWAP1 POP SLOAD DUP2 JUMP JUMPDEST PUSH1 0x2 PUSH1 0x0 SWAP1 SLOAD SWAP1 PUSH2 0x100 EXP SWAP1 DIV PUSH20 0xFFFFFFFFFFFFFFFFFFFFFFFFFFFFFFFFFFFFFFFF AND DUP2 JUMP JUMPDEST PUSH1 0x0 PUSH1 0x4 PUSH1 0x0 DUP4 DUP2 MSTORE PUSH1 0x20 ADD SWAP1 DUP2 MSTORE PUSH1 0x20 ADD PUSH1 0x0 KECCAK256 SWAP1 POP PUSH1 0x5 PUSH1 0xA DUP2 GT ISZERO PUSH2 0x115D JUMPI PUSH2 0x115C PUSH2 0x2B41 JUMP JUMPDEST JUMPDEST DUP2 PUSH1 0x3 ADD PUSH1 0x0 SWAP1 SLOAD SWAP1 PUSH2 0x100 EXP SWAP1 DIV PUSH1 0xFF AND PUSH1 0xA DUP2 GT ISZERO PUSH2 0x1181 JUMPI PUSH2 0x1180 PUSH2 0x2B41 JUMP JUMPDEST JUMPDEST EQ PUSH2 0x11C1 JUMPI PUSH1 0x40 MLOAD PUSH32 0x8C379A000000000000000000000000000000000000000000000000000000000 DUP2 MSTORE PUSH1 0x4 ADD PUSH2 0x11B8 SWAP1 PUSH2 0x3227 JUMP JUMPDEST PUSH1 0x40 MLOAD DUP1 SWAP2 SUB SWAP1 REVERT JUMPDEST PUSH1 0x0 JUMPDEST PUSH1 0x0 DUP1 SLOAD SWAP1 PUSH2 0x100 EXP SWAP1 DIV PUSH20 0xFFFFFFFFFFFFFFFFFFFFFFFFFFFFFFFFFFFFFFFF AND PUSH20 0xFFFFFFFFFFFFFFFFFFFFFFFFFFFFFFFFFFFFFFFF AND PUSH4 0xE3C8BFB9 PUSH1 0x40 MLOAD DUP2 PUSH4 0xFFFFFFFF AND PUSH1 0xE0 SHL DUP2 MSTORE PUSH1 0x4 ADD PUSH1 0x20 PUSH1 0x40 MLOAD DUP1 DUP4 SUB DUP2 DUP7 GAS STATICCALL ISZERO DUP1 ISZERO PUSH2 0x122F JUMPI RETURNDATASIZE PUSH1 0x0 DUP1 RETURNDATACOPY RETURNDATASIZE PUSH1 0x0 REVERT JUMPDEST POP POP POP POP PUSH1 0x40 MLOAD RETURNDATASIZE PUSH1 0x1F NOT PUSH1 0x1F DUP3 ADD AND DUP3 ADD DUP1 PUSH1 0x40 MSTORE POP DUP2 ADD SWAP1 PUSH2 0x1253 SWAP2 SWAP1 PUSH2 0x2DC2 JUMP JUMPDEST DUP2 LT ISZERO PUSH2 0x1359 JUMPI DUP2 PUSH1 0x1 ADD DUP2 DUP2 SLOAD DUP2 LT PUSH2 0x1270 JUMPI PUSH2 0x126F PUSH2 0x2C4F JUMP JUMPDEST JUMPDEST SWAP1 PUSH1 0x0 MSTORE PUSH1 0x20 PUSH1 0x0 KECCAK256 ADD PUSH1 0x0 SWAP1 SLOAD SWAP1 PUSH2 0x100 EXP SWAP1 DIV PUSH20 0xFFFFFFFFFFFFFFFFFFFFFFFFFFFFFFFFFFFFFFFF AND PUSH20 0xFFFFFFFFFFFFFFFFFFFFFFFFFFFFFFFFFFFFFFFF AND PUSH4 0xCCE71063 PUSH1 0x40 MLOAD DUP2 PUSH4 0xFFFFFFFF AND PUSH1 0xE0 SHL DUP2 MSTORE PUSH1 0x4 ADD PUSH1 0x20 PUSH1 0x40 MLOAD DUP1 DUP4 SUB DUP2 DUP7 GAS STATICCALL ISZERO DUP1 ISZERO PUSH2 0x12E5 JUMPI RETURNDATASIZE PUSH1 0x0 DUP1 RETURNDATACOPY RETURNDATASIZE PUSH1 0x0 REVERT JUMPDEST POP POP POP POP PUSH1 0x40 MLOAD RETURNDATASIZE PUSH1 0x1F NOT PUSH1 0x1F DUP3 ADD AND DUP3 ADD DUP1 PUSH1 0x40 MSTORE POP DUP2 ADD SWAP1 PUSH2 0x1309 SWAP2 SWAP1 PUSH2 0x2E1B JUMP JUMPDEST PUSH2 0x1348 JUMPI PUSH1 0x40 MLOAD PUSH32 0x8C379A000000000000000000000000000000000000000000000000000000000 DUP2 MSTORE PUSH1 0x4 ADD PUSH2 0x133F SWAP1 PUSH2 0x2EBA JUMP JUMPDEST PUSH1 0x40 MLOAD DUP1 SWAP2 SUB SWAP1 REVERT JUMPDEST DUP1 PUSH2 0x1352 SWAP1 PUSH2 0x2EDA JUMP JUMPDEST SWAP1 POP PUSH2 0x11C4 JUMP JUMPDEST POP PUSH1 0x0 JUMPDEST PUSH1 0x0 DUP1 SLOAD SWAP1 PUSH2 0x100 EXP SWAP1 DIV PUSH20 0xFFFFFFFFFFFFFFFFFFFFFFFFFFFFFFFFFFFFFFFF AND PUSH20 0xFFFFFFFFFFFFFFFFFFFFFFFFFFFFFFFFFFFFFFFF AND PUSH4 0xE3C8BFB9 PUSH1 0x40 MLOAD DUP2 PUSH4 0xFFFFFFFF AND PUSH1 0xE0 SHL DUP2 MSTORE PUSH1 0x4 ADD PUSH1 0x20 PUSH1 0x40 MLOAD DUP1 DUP4 SUB DUP2 DUP7 GAS STATICCALL ISZERO DUP1 ISZERO PUSH2 0x13C8 JUMPI RETURNDATASIZE PUSH1 0x0 DUP1 RETURNDATACOPY RETURNDATASIZE PUSH1 0x0 REVERT JUMPDEST POP POP POP POP PUSH1 0x40 MLOAD RETURNDATASIZE PUSH1 0x1F NOT PUSH1 0x1F DUP3 ADD AND DUP3 ADD DUP1 PUSH1 0x40 MSTORE POP DUP2 ADD SWAP1 PUSH2 0x13EC SWAP2 SWAP1 PUSH2 0x2DC2 JUMP JUMPDEST DUP2 LT ISZERO PUSH2 0x14C4 JUMPI PUSH2 0x14B3 DUP4 DUP3 DUP5 PUSH1 0x1 ADD DUP5 DUP2 SLOAD DUP2 LT PUSH2 0x140E JUMPI PUSH2 0x140D PUSH2 0x2C4F JUMP JUMPDEST JUMPDEST SWAP1 PUSH1 0x0 MSTORE PUSH1 0x20 PUSH1 0x0 KECCAK256 ADD PUSH1 0x0 SWAP1 SLOAD SWAP1 PUSH2 0x100 EXP SWAP1 DIV PUSH20 0xFFFFFFFFFFFFFFFFFFFFFFFFFFFFFFFFFFFFFFFF AND PUSH20 0xFFFFFFFFFFFFFFFFFFFFFFFFFFFFFFFFFFFFFFFF AND PUSH4 0x2F703E08 PUSH1 0x40 MLOAD DUP2 PUSH4 0xFFFFFFFF AND PUSH1 0xE0 SHL DUP2 MSTORE PUSH1 0x4 ADD PUSH1 0x0 PUSH1 0x40 MLOAD DUP1 DUP4 SUB DUP2 PUSH1 0x0 DUP8 GAS CALL ISZERO DUP1 ISZERO PUSH2 0x1485 JUMPI RETURNDATASIZE PUSH1 0x0 DUP1 RETURNDATACOPY RETURNDATASIZE PUSH1 0x0 REVERT JUMPDEST POP POP POP POP PUSH1 0x40 MLOAD RETURNDATASIZE PUSH1 0x0 DUP3 RETURNDATACOPY RETURNDATASIZE PUSH1 0x1F NOT PUSH1 0x1F DUP3 ADD AND DUP3 ADD DUP1 PUSH1 0x40 MSTORE POP DUP2 ADD SWAP1 PUSH2 0x14AE SWAP2 SWAP1 PUSH2 0x3048 JUMP JUMPDEST PUSH2 0x2710 JUMP JUMPDEST DUP1 PUSH2 0x14BD SWAP1 PUSH2 0x2EDA JUMP JUMPDEST SWAP1 POP PUSH2 0x135D JUMP JUMPDEST POP PUSH1 0x6 DUP2 PUSH1 0x3 ADD PUSH1 0x0 PUSH2 0x100 EXP DUP2 SLOAD DUP2 PUSH1 0xFF MUL NOT AND SWAP1 DUP4 PUSH1 0xA DUP2 GT ISZERO PUSH2 0x14ED JUMPI PUSH2 0x14EC PUSH2 0x2B41 JUMP JUMPDEST JUMPDEST MUL OR SWAP1 SSTORE POP PUSH32 0x58D4562CF15D1052E816FD24F6AF2C8A3A21416D6E4C01A9E11EF84FFE537E25 DUP3 DUP3 PUSH1 0x3 ADD PUSH1 0x0 SWAP1 SLOAD SWAP1 PUSH2 0x100 EXP SWAP1 DIV PUSH1 0xFF AND PUSH1 0x40 MLOAD PUSH2 0x1534 SWAP3 SWAP2 SWAP1 PUSH2 0x2CE1 JUMP JUMPDEST PUSH1 0x40 MLOAD DUP1 SWAP2 SUB SWAP1 LOG1 POP POP JUMP JUMPDEST PUSH1 0xA DUP2 JUMP JUMPDEST PUSH1 0x5 DUP2 JUMP JUMPDEST PUSH1 0x4 PUSH1 0x20 MSTORE DUP1 PUSH1 0x0 MSTORE PUSH1 0x40 PUSH1 0x0 KECCAK256 PUSH1 0x0 SWAP2 POP SWAP1 POP DUP1 PUSH1 0x0 ADD SLOAD SWAP1 DUP1 PUSH1 0x3 ADD PUSH1 0x0 SWAP1 SLOAD SWAP1 PUSH2 0x100 EXP SWAP1 DIV PUSH1 0xFF AND SWAP1 DUP1 PUSH1 0x4 ADD SLOAD SWAP1 POP DUP4 JUMP JUMPDEST PUSH1 0x1 PUSH1 0x0 SWAP1 SLOAD SWAP1 PUSH2 0x100 EXP SWAP1 DIV PUSH20 0xFFFFFFFFFFFFFFFFFFFFFFFFFFFFFFFFFFFFFFFF AND DUP2 JUMP JUMPDEST PUSH1 0x2 DUP2 JUMP JUMPDEST PUSH1 0x0 PUSH1 0x4 PUSH1 0x0 DUP4 DUP2 MSTORE PUSH1 0x20 ADD SWAP1 DUP2 MSTORE PUSH1 0x20 ADD PUSH1 0x0 KECCAK256 SWAP1 POP PUSH1 0x6 PUSH1 0xA DUP2 GT ISZERO PUSH2 0x15D7 JUMPI PUSH2 0x15D6 PUSH2 0x2B41 JUMP JUMPDEST JUMPDEST DUP2 PUSH1 0x3 ADD PUSH1 0x0 SWAP1 SLOAD SWAP1 PUSH2 0x100 EXP SWAP1 DIV PUSH1 0xFF AND PUSH1 0xA DUP2 GT ISZERO PUSH2 0x15FB JUMPI PUSH2 0x15FA PUSH2 0x2B41 JUMP JUMPDEST JUMPDEST EQ PUSH2 0x163B JUMPI PUSH1 0x40 MLOAD PUSH32 0x8C379A000000000000000000000000000000000000000000000000000000000 DUP2 MSTORE PUSH1 0x4 ADD PUSH2 0x1632 SWAP1 PUSH2 0x32B9 JUMP JUMPDEST PUSH1 0x40 MLOAD DUP1 SWAP2 SUB SWAP1 REVERT JUMPDEST PUSH1 0x0 JUMPDEST PUSH1 0x0 DUP1 SLOAD SWAP1 PUSH2 0x100 EXP SWAP1 DIV PUSH20 0xFFFFFFFFFFFFFFFFFFFFFFFFFFFFFFFFFFFFFFFF AND PUSH20 0xFFFFFFFFFFFFFFFFFFFFFFFFFFFFFFFFFFFFFFFF AND PUSH4 0xE3C8BFB9 PUSH1 0x40 MLOAD DUP2 PUSH4 0xFFFFFFFF AND PUSH1 0xE0 SHL DUP2 MSTORE PUSH1 0x4 ADD PUSH1 0x20 PUSH1 0x40 MLOAD DUP1 DUP4 SUB DUP2 DUP7 GAS STATICCALL ISZERO DUP1 ISZERO PUSH2 0x16A9 JUMPI RETURNDATASIZE PUSH1 0x0 DUP1 RETURNDATACOPY RETURNDATASIZE PUSH1 0x0 REVERT JUMPDEST POP POP POP POP PUSH1 0x40 MLOAD RETURNDATASIZE PUSH1 0x1F NOT PUSH1 0x1F DUP3 ADD AND DUP3 ADD DUP1 PUSH1 0x40 MSTORE POP DUP2 ADD SWAP1 PUSH2 0x16CD SWAP2 SWAP1 PUSH2 0x2DC2 JUMP JUMPDEST DUP2 LT ISZERO PUSH2 0x1785 JUMPI DUP2 PUSH1 0x2 ADD DUP2 DUP2 SLOAD DUP2 LT PUSH2 0x16EA JUMPI PUSH2 0x16E9 PUSH2 0x2C4F JUMP JUMPDEST JUMPDEST SWAP1 PUSH1 0x0 MSTORE PUSH1 0x20 PUSH1 0x0 KECCAK256 ADD PUSH1 0x0 SWAP1 SLOAD SWAP1 PUSH2 0x100 EXP SWAP1 DIV PUSH20 0xFFFFFFFFFFFFFFFFFFFFFFFFFFFFFFFFFFFFFFFF AND PUSH20 0xFFFFFFFFFFFFFFFFFFFFFFFFFFFFFFFFFFFFFFFF AND PUSH4 0x606DEECD PUSH1 0x40 MLOAD DUP2 PUSH4 0xFFFFFFFF AND PUSH1 0xE0 SHL DUP2 MSTORE PUSH1 0x4 ADD PUSH1 0x0 PUSH1 0x40 MLOAD DUP1 DUP4 SUB DUP2 PUSH1 0x0 DUP8 DUP1 EXTCODESIZE ISZERO DUP1 ISZERO PUSH2 0x175C JUMPI PUSH1 0x0 DUP1 REVERT JUMPDEST POP GAS CALL ISZERO DUP1 ISZERO PUSH2 0x1770 JUMPI RETURNDATASIZE PUSH1 0x0 DUP1 RETURNDATACOPY RETURNDATASIZE PUSH1 0x0 REVERT JUMPDEST POP POP POP POP DUP1 PUSH2 0x177E SWAP1 PUSH2 0x2EDA JUMP JUMPDEST SWAP1 POP PUSH2 0x163E JUMP JUMPDEST POP PUSH1 0x7 DUP2 PUSH1 0x3 ADD PUSH1 0x0 PUSH2 0x100 EXP DUP2 SLOAD DUP2 PUSH1 0xFF MUL NOT AND SWAP1 DUP4 PUSH1 0xA DUP2 GT ISZERO PUSH2 0x17AE JUMPI PUSH2 0x17AD PUSH2 0x2B41 JUMP JUMPDEST JUMPDEST MUL OR SWAP1 SSTORE POP PUSH32 0x58D4562CF15D1052E816FD24F6AF2C8A3A21416D6E4C01A9E11EF84FFE537E25 DUP3 DUP3 PUSH1 0x3 ADD PUSH1 0x0 SWAP1 SLOAD SWAP1 PUSH2 0x100 EXP SWAP1 DIV PUSH1 0xFF AND PUSH1 0x40 MLOAD PUSH2 0x17F5 SWAP3 SWAP2 SWAP1 PUSH2 0x2CE1 JUMP JUMPDEST PUSH1 0x40 MLOAD DUP1 SWAP2 SUB SWAP1 LOG1 POP POP JUMP JUMPDEST PUSH1 0x0 DUP2 SUB PUSH2 0x192D JUMPI PUSH1 0x0 JUMPDEST PUSH1 0x0 DUP1 SLOAD SWAP1 PUSH2 0x100 EXP SWAP1 DIV PUSH20 0xFFFFFFFFFFFFFFFFFFFFFFFFFFFFFFFFFFFFFFFF AND PUSH20 0xFFFFFFFFFFFFFFFFFFFFFFFFFFFFFFFFFFFFFFFF AND PUSH4 0xE3C8BFB9 PUSH1 0x40 MLOAD DUP2 PUSH4 0xFFFFFFFF AND PUSH1 0xE0 SHL DUP2 MSTORE PUSH1 0x4 ADD PUSH1 0x20 PUSH1 0x40 MLOAD DUP1 DUP4 SUB DUP2 DUP7 GAS STATICCALL ISZERO DUP1 ISZERO PUSH2 0x1877 JUMPI RETURNDATASIZE PUSH1 0x0 DUP1 RETURNDATACOPY RETURNDATASIZE PUSH1 0x0 REVERT JUMPDEST POP POP POP POP PUSH1 0x40 MLOAD RETURNDATASIZE PUSH1 0x1F NOT PUSH1 0x1F DUP3 ADD AND DUP3 ADD DUP1 PUSH1 0x40 MSTORE POP DUP2 ADD SWAP1 PUSH2 0x189B SWAP2 SWAP1 PUSH2 0x2DC2 JUMP JUMPDEST DUP2 LT ISZERO PUSH2 0x192B JUMPI PUSH1 0x4 PUSH1 0x0 DUP5 DUP2 MSTORE PUSH1 0x20 ADD SWAP1 DUP2 MSTORE PUSH1 0x20 ADD PUSH1 0x0 KECCAK256 PUSH1 0x1 ADD PUSH1 0x1 DUP2 PUSH1 0x1 DUP2 SLOAD ADD DUP1 DUP3 SSTORE DUP1 SWAP2 POP POP SUB SWAP1 PUSH1 0x0 MSTORE PUSH1 0x20 PUSH1 0x0 KECCAK256 ADD PUSH1 0x0 SWAP1 SLOAD SWAP1 PUSH2 0x100 EXP SWAP1 POP POP PUSH1 0x4 PUSH1 0x0 DUP5 DUP2 MSTORE PUSH1 0x20 ADD SWAP1 DUP2 MSTORE PUSH1 0x20 ADD PUSH1 0x0 KECCAK256 PUSH1 0x2 ADD PUSH1 0x1 DUP2 PUSH1 0x1 DUP2 SLOAD ADD DUP1 DUP3 SSTORE DUP1 SWAP2 POP POP SUB SWAP1 PUSH1 0x0 MSTORE PUSH1 0x20 PUSH1 0x0 KECCAK256 ADD PUSH1 0x0 SWAP1 SLOAD SWAP1 PUSH2 0x100 EXP SWAP1 POP POP DUP1 PUSH2 0x1924 SWAP1 PUSH2 0x2EDA JUMP JUMPDEST SWAP1 POP PUSH2 0x180C JUMP JUMPDEST POP JUMPDEST PUSH1 0x0 PUSH1 0x7 PUSH1 0x0 DUP5 DUP2 MSTORE PUSH1 0x20 ADD SWAP1 DUP2 MSTORE PUSH1 0x20 ADD PUSH1 0x0 KECCAK256 PUSH1 0x0 DUP4 DUP2 MSTORE PUSH1 0x20 ADD SWAP1 DUP2 MSTORE PUSH1 0x20 ADD PUSH1 0x0 KECCAK256 SWAP1 POP PUSH1 0x0 PUSH1 0x8 PUSH1 0x0 DUP6 DUP2 MSTORE PUSH1 0x20 ADD SWAP1 DUP2 MSTORE PUSH1 0x20 ADD PUSH1 0x0 KECCAK256 PUSH1 0x0 DUP5 DUP2 MSTORE PUSH1 0x20 ADD SWAP1 DUP2 MSTORE PUSH1 0x20 ADD PUSH1 0x0 KECCAK256 SWAP1 POP PUSH1 0x0 PUSH1 0x9 PUSH1 0x0 DUP7 DUP2 MSTORE PUSH1 0x20 ADD SWAP1 DUP2 MSTORE PUSH1 0x20 ADD PUSH1 0x0 KECCAK256 PUSH1 0x0 DUP6 DUP2 MSTORE PUSH1 0x20 ADD SWAP1 DUP2 MSTORE PUSH1 0x20 ADD PUSH1 0x0 KECCAK256 SWAP1 POP PUSH1 0x0 JUMPDEST PUSH1 0x0 DUP1 SLOAD SWAP1 PUSH2 0x100 EXP SWAP1 DIV PUSH20 0xFFFFFFFFFFFFFFFFFFFFFFFFFFFFFFFFFFFFFFFF AND PUSH20 0xFFFFFFFFFFFFFFFFFFFFFFFFFFFFFFFFFFFFFFFF AND PUSH4 0xE3C8BFB9 PUSH1 0x40 MLOAD DUP2 PUSH4 0xFFFFFFFF AND PUSH1 0xE0 SHL DUP2 MSTORE PUSH1 0x4 ADD PUSH1 0x20 PUSH1 0x40 MLOAD DUP1 DUP4 SUB DUP2 DUP7 GAS STATICCALL ISZERO DUP1 ISZERO PUSH2 0x1A13 JUMPI RETURNDATASIZE PUSH1 0x0 DUP1 RETURNDATACOPY RETURNDATASIZE PUSH1 0x0 REVERT JUMPDEST POP POP POP POP PUSH1 0x40 MLOAD RETURNDATASIZE PUSH1 0x1F NOT PUSH1 0x1F DUP3 ADD AND DUP3 ADD DUP1 PUSH1 0x40 MSTORE POP DUP2 ADD SWAP1 PUSH2 0x1A37 SWAP2 SWAP1 PUSH2 0x2DC2 JUMP JUMPDEST DUP2 LT ISZERO PUSH2 0x1D47 JUMPI DUP4 PUSH1 0x0 ADD PUSH1 0x0 SWAP1 DUP1 PUSH1 0x1 DUP2 SLOAD ADD DUP1 DUP3 SSTORE DUP1 SWAP2 POP POP PUSH1 0x1 SWAP1 SUB SWAP1 PUSH1 0x0 MSTORE PUSH1 0x20 PUSH1 0x0 KECCAK256 ADD PUSH1 0x0 SWAP1 SWAP2 SWAP1 SWAP2 SWAP1 SWAP2 POP SSTORE DUP3 PUSH1 0x1 DUP2 PUSH1 0x1 DUP2 SLOAD ADD DUP1 DUP3 SSTORE DUP1 SWAP2 POP POP SUB SWAP1 PUSH1 0x0 MSTORE PUSH1 0x20 PUSH1 0x0 KECCAK256 SWAP1 POP POP PUSH1 0x0 JUMPDEST PUSH1 0x0 DUP1 SLOAD SWAP1 PUSH2 0x100 EXP SWAP1 DIV PUSH20 0xFFFFFFFFFFFFFFFFFFFFFFFFFFFFFFFFFFFFFFFF AND PUSH20 0xFFFFFFFFFFFFFFFFFFFFFFFFFFFFFFFFFFFFFFFF AND PUSH4 0xAE5C1356 PUSH1 0x40 MLOAD DUP2 PUSH4 0xFFFFFFFF AND PUSH1 0xE0 SHL DUP2 MSTORE PUSH1 0x4 ADD PUSH1 0x20 PUSH1 0x40 MLOAD DUP1 DUP4 SUB DUP2 DUP7 GAS STATICCALL ISZERO DUP1 ISZERO PUSH2 0x1AF5 JUMPI RETURNDATASIZE PUSH1 0x0 DUP1 RETURNDATACOPY RETURNDATASIZE PUSH1 0x0 REVERT JUMPDEST POP POP POP POP PUSH1 0x40 MLOAD RETURNDATASIZE PUSH1 0x1F NOT PUSH1 0x1F DUP3 ADD AND DUP3 ADD DUP1 PUSH1 0x40 MSTORE POP DUP2 ADD SWAP1 PUSH2 0x1B19 SWAP2 SWAP1 PUSH2 0x2DC2 JUMP JUMPDEST DUP2 LT ISZERO PUSH2 0x1BEF JUMPI DUP4 DUP3 DUP2 SLOAD DUP2 LT PUSH2 0x1B33 JUMPI PUSH2 0x1B32 PUSH2 0x2C4F JUMP JUMPDEST JUMPDEST SWAP1 PUSH1 0x0 MSTORE PUSH1 0x20 PUSH1 0x0 KECCAK256 SWAP1 PUSH1 0x3 MUL ADD PUSH1 0x0 ADD PUSH1 0x1 DUP2 PUSH1 0x1 DUP2 SLOAD ADD DUP1 DUP3 SSTORE DUP1 SWAP2 POP POP SUB SWAP1 PUSH1 0x0 MSTORE PUSH1 0x20 PUSH1 0x0 KECCAK256 SWAP1 POP POP DUP4 DUP3 DUP2 SLOAD DUP2 LT PUSH2 0x1B73 JUMPI PUSH2 0x1B72 PUSH2 0x2C4F JUMP JUMPDEST JUMPDEST SWAP1 PUSH1 0x0 MSTORE PUSH1 0x20 PUSH1 0x0 KECCAK256 SWAP1 PUSH1 0x3 MUL ADD PUSH1 0x1 ADD PUSH1 0x1 DUP2 PUSH1 0x1 DUP2 SLOAD ADD DUP1 DUP3 SSTORE DUP1 SWAP2 POP POP SUB SWAP1 PUSH1 0x0 MSTORE PUSH1 0x20 PUSH1 0x0 KECCAK256 POP POP DUP4 DUP3 DUP2 SLOAD DUP2 LT PUSH2 0x1BB2 JUMPI PUSH2 0x1BB1 PUSH2 0x2C4F JUMP JUMPDEST JUMPDEST SWAP1 PUSH1 0x0 MSTORE PUSH1 0x20 PUSH1 0x0 KECCAK256 SWAP1 PUSH1 0x3 MUL ADD PUSH1 0x2 ADD PUSH1 0x1 DUP2 PUSH1 0x1 DUP2 SLOAD ADD DUP1 DUP3 SSTORE DUP1 SWAP2 POP POP SUB SWAP1 PUSH1 0x0 MSTORE PUSH1 0x20 PUSH1 0x0 KECCAK256 POP POP DUP1 PUSH2 0x1BE8 SWAP1 PUSH2 0x2EDA JUMP JUMPDEST SWAP1 POP PUSH2 0x1A8A JUMP JUMPDEST POP DUP2 PUSH1 0x1 DUP2 PUSH1 0x1 DUP2 SLOAD ADD DUP1 DUP3 SSTORE DUP1 SWAP2 POP POP SUB SWAP1 PUSH1 0x0 MSTORE PUSH1 0x20 PUSH1 0x0 KECCAK256 SWAP1 POP POP PUSH1 0x0 JUMPDEST PUSH1 0x0 DUP1 SLOAD SWAP1 PUSH2 0x100 EXP SWAP1 DIV PUSH20 0xFFFFFFFFFFFFFFFFFFFFFFFFFFFFFFFFFFFFFFFF AND PUSH20 0xFFFFFFFFFFFFFFFFFFFFFFFFFFFFFFFFFFFFFFFF AND PUSH4 0xAE5C1356 PUSH1 0x40 MLOAD DUP2 PUSH4 0xFFFFFFFF AND PUSH1 0xE0 SHL DUP2 MSTORE PUSH1 0x4 ADD PUSH1 0x20 PUSH1 0x40 MLOAD DUP1 DUP4 SUB DUP2 DUP7 GAS STATICCALL ISZERO DUP1 ISZERO PUSH2 0x1C7B JUMPI RETURNDATASIZE PUSH1 0x0 DUP1 RETURNDATACOPY RETURNDATASIZE PUSH1 0x0 REVERT JUMPDEST POP POP POP POP PUSH1 0x40 MLOAD RETURNDATASIZE PUSH1 0x1F NOT PUSH1 0x1F DUP3 ADD AND DUP3 ADD DUP1 PUSH1 0x40 MSTORE POP DUP2 ADD SWAP1 PUSH2 0x1C9F SWAP2 SWAP1 PUSH2 0x2DC2 JUMP JUMPDEST DUP2 LT ISZERO PUSH2 0x1D35 JUMPI DUP3 DUP3 DUP2 SLOAD DUP2 LT PUSH2 0x1CB9 JUMPI PUSH2 0x1CB8 PUSH2 0x2C4F JUMP JUMPDEST JUMPDEST SWAP1 PUSH1 0x0 MSTORE PUSH1 0x20 PUSH1 0x0 KECCAK256 SWAP1 PUSH1 0x7 MUL ADD PUSH1 0x2 ADD PUSH1 0x1 DUP2 PUSH1 0x1 DUP2 SLOAD ADD DUP1 DUP3 SSTORE DUP1 SWAP2 POP POP SUB SWAP1 PUSH1 0x0 MSTORE PUSH1 0x20 PUSH1 0x0 KECCAK256 POP POP DUP3 DUP3 DUP2 SLOAD DUP2 LT PUSH2 0x1CF8 JUMPI PUSH2 0x1CF7 PUSH2 0x2C4F JUMP JUMPDEST JUMPDEST SWAP1 PUSH1 0x0 MSTORE PUSH1 0x20 PUSH1 0x0 KECCAK256 SWAP1 PUSH1 0x7 MUL ADD PUSH1 0x3 ADD PUSH1 0x1 DUP2 PUSH1 0x1 DUP2 SLOAD ADD DUP1 DUP3 SSTORE DUP1 SWAP2 POP POP SUB SWAP1 PUSH1 0x0 MSTORE PUSH1 0x20 PUSH1 0x0 KECCAK256 POP POP DUP1 PUSH2 0x1D2E SWAP1 PUSH2 0x2EDA JUMP JUMPDEST SWAP1 POP PUSH2 0x1C10 JUMP JUMPDEST POP DUP1 PUSH2 0x1D40 SWAP1 PUSH2 0x2EDA JUMP JUMPDEST SWAP1 POP PUSH2 0x19A8 JUMP JUMPDEST POP POP POP POP POP POP JUMP JUMPDEST PUSH1 0x0 PUSH1 0x9 PUSH1 0x0 DUP6 DUP2 MSTORE PUSH1 0x20 ADD SWAP1 DUP2 MSTORE PUSH1 0x20 ADD PUSH1 0x0 KECCAK256 PUSH1 0x0 PUSH1 0x6 PUSH1 0x0 DUP8 DUP2 MSTORE PUSH1 0x20 ADD SWAP1 DUP2 MSTORE PUSH1 0x20 ADD PUSH1 0x0 KECCAK256 SLOAD DUP2 MSTORE PUSH1 0x20 ADD SWAP1 DUP2 MSTORE PUSH1 0x20 ADD PUSH1 0x0 KECCAK256 DUP4 DUP2 SLOAD DUP2 LT PUSH2 0x1D9A JUMPI PUSH2 0x1D99 PUSH2 0x2C4F JUMP JUMPDEST JUMPDEST SWAP1 PUSH1 0x0 MSTORE PUSH1 0x20 PUSH1 0x0 KECCAK256 SWAP1 PUSH1 0x7 MUL ADD SWAP1 POP PUSH1 0x0 DUP3 DUP1 MLOAD SWAP1 PUSH1 0x20 ADD KECCAK256 PUSH1 0x40 MLOAD PUSH1 0x20 ADD PUSH2 0x1DC4 SWAP2 SWAP1 PUSH2 0x32F2 JUMP JUMPDEST PUSH1 0x40 MLOAD PUSH1 0x20 DUP2 DUP4 SUB SUB DUP2 MSTORE SWAP1 PUSH1 0x40 MSTORE SWAP1 POP DUP2 PUSH1 0x0 ADD PUSH1 0x40 MLOAD PUSH2 0x1DE6 SWAP2 SWAP1 PUSH2 0x33B0 JUMP JUMPDEST PUSH1 0x40 MLOAD DUP1 SWAP2 SUB SWAP1 KECCAK256 DUP2 DUP1 MLOAD SWAP1 PUSH1 0x20 ADD KECCAK256 EQ PUSH2 0x1E36 JUMPI PUSH1 0x40 MLOAD PUSH32 0x8C379A000000000000000000000000000000000000000000000000000000000 DUP2 MSTORE PUSH1 0x4 ADD PUSH2 0x1E2D SWAP1 PUSH2 0x3439 JUMP JUMPDEST PUSH1 0x40 MLOAD DUP1 SWAP2 SUB SWAP1 REVERT JUMPDEST DUP3 DUP3 PUSH1 0x1 ADD SWAP1 DUP2 PUSH2 0x1E47 SWAP2 SWAP1 PUSH2 0x35E6 JUMP JUMPDEST POP PUSH1 0x0 DUP1 DUP5 DUP1 PUSH1 0x20 ADD SWAP1 MLOAD DUP2 ADD SWAP1 PUSH2 0x1E5F SWAP2 SWAP1 PUSH2 0x36B8 JUMP JUMPDEST SWAP2 POP SWAP2 POP PUSH1 0x0 DUP1 PUSH1 0x0 SWAP1 SLOAD SWAP1 PUSH2 0x100 EXP SWAP1 DIV PUSH20 0xFFFFFFFFFFFFFFFFFFFFFFFFFFFFFFFFFFFFFFFF AND PUSH20 0xFFFFFFFFFFFFFFFFFFFFFFFFFFFFFFFFFFFFFFFF AND PUSH4 0x45BAEE55 PUSH1 0x40 MLOAD DUP2 PUSH4 0xFFFFFFFF AND PUSH1 0xE0 SHL DUP2 MSTORE PUSH1 0x4 ADD PUSH1 0x20 PUSH1 0x40 MLOAD DUP1 DUP4 SUB DUP2 DUP7 GAS STATICCALL ISZERO DUP1 ISZERO PUSH2 0x1ED1 JUMPI RETURNDATASIZE PUSH1 0x0 DUP1 RETURNDATACOPY RETURNDATASIZE PUSH1 0x0 REVERT JUMPDEST POP POP POP POP PUSH1 0x40 MLOAD RETURNDATASIZE PUSH1 0x1F NOT PUSH1 0x1F DUP3 ADD AND DUP3 ADD DUP1 PUSH1 0x40 MSTORE POP DUP2 ADD SWAP1 PUSH2 0x1EF5 SWAP2 SWAP1 PUSH2 0x2DC2 JUMP JUMPDEST PUSH1 0x0 DUP1 SLOAD SWAP1 PUSH2 0x100 EXP SWAP1 DIV PUSH20 0xFFFFFFFFFFFFFFFFFFFFFFFFFFFFFFFFFFFFFFFF AND PUSH20 0xFFFFFFFFFFFFFFFFFFFFFFFFFFFFFFFFFFFFFFFF AND PUSH4 0x4FFDF11E PUSH1 0x40 MLOAD DUP2 PUSH4 0xFFFFFFFF AND PUSH1 0xE0 SHL DUP2 MSTORE PUSH1 0x4 ADD PUSH1 0x20 PUSH1 0x40 MLOAD DUP1 DUP4 SUB DUP2 DUP7 GAS STATICCALL ISZERO DUP1 ISZERO PUSH2 0x1F60 JUMPI RETURNDATASIZE PUSH1 0x0 DUP1 RETURNDATACOPY RETURNDATASIZE PUSH1 0x0 REVERT JUMPDEST POP POP POP POP PUSH1 0x40 MLOAD RETURNDATASIZE PUSH1 0x1F NOT PUSH1 0x1F DUP3 ADD AND DUP3 ADD DUP1 PUSH1 0x40 MSTORE POP DUP2 ADD SWAP1 PUSH2 0x1F84 SWAP2 SWAP1 PUSH2 0x2DC2 JUMP JUMPDEST PUSH2 0x1F8E SWAP2 SWAP1 PUSH2 0x2CAD JUMP JUMPDEST SWAP1 POP PUSH1 0x0 JUMPDEST PUSH1 0x0 DUP1 SLOAD SWAP1 PUSH2 0x100 EXP SWAP1 DIV PUSH20 0xFFFFFFFFFFFFFFFFFFFFFFFFFFFFFFFFFFFFFFFF AND PUSH20 0xFFFFFFFFFFFFFFFFFFFFFFFFFFFFFFFFFFFFFFFF AND PUSH4 0xAE5C1356 PUSH1 0x40 MLOAD DUP2 PUSH4 0xFFFFFFFF AND PUSH1 0xE0 SHL DUP2 MSTORE PUSH1 0x4 ADD PUSH1 0x20 PUSH1 0x40 MLOAD DUP1 DUP4 SUB DUP2 DUP7 GAS STATICCALL ISZERO DUP1 ISZERO PUSH2 0x1FFE JUMPI RETURNDATASIZE PUSH1 0x0 DUP1 RETURNDATACOPY RETURNDATASIZE PUSH1 0x0 REVERT JUMPDEST POP POP POP POP PUSH1 0x40 MLOAD RETURNDATASIZE PUSH1 0x1F NOT PUSH1 0x1F DUP3 ADD AND DUP3 ADD DUP1 PUSH1 0x40 MSTORE POP DUP2 ADD SWAP1 PUSH2 0x2022 SWAP2 SWAP1 PUSH2 0x2DC2 JUMP JUMPDEST DUP2 LT ISZERO PUSH2 0x2279 JUMPI PUSH1 0x0 DUP3 DUP3 PUSH2 0x2037 SWAP2 SWAP1 PUSH2 0x36F8 JUMP JUMPDEST DUP5 SWAP1 SHR SWAP1 POP PUSH1 0x1 PUSH1 0x0 DUP1 SLOAD SWAP1 PUSH2 0x100 EXP SWAP1 DIV PUSH20 0xFFFFFFFFFFFFFFFFFFFFFFFFFFFFFFFFFFFFFFFF AND PUSH20 0xFFFFFFFFFFFFFFFFFFFFFFFFFFFFFFFFFFFFFFFF AND PUSH4 0x4FFDF11E PUSH1 0x40 MLOAD DUP2 PUSH4 0xFFFFFFFF AND PUSH1 0xE0 SHL DUP2 MSTORE PUSH1 0x4 ADD PUSH1 0x20 PUSH1 0x40 MLOAD DUP1 DUP4 SUB DUP2 DUP7 GAS STATICCALL ISZERO DUP1 ISZERO PUSH2 0x20A9 JUMPI RETURNDATASIZE PUSH1 0x0 DUP1 RETURNDATACOPY RETURNDATASIZE PUSH1 0x0 REVERT JUMPDEST POP POP POP POP PUSH1 0x40 MLOAD RETURNDATASIZE PUSH1 0x1F NOT PUSH1 0x1F DUP3 ADD AND DUP3 ADD DUP1 PUSH1 0x40 MSTORE POP DUP2 ADD SWAP1 PUSH2 0x20CD SWAP2 SWAP1 PUSH2 0x2DC2 JUMP JUMPDEST PUSH1 0x2 PUSH2 0x20D9 SWAP2 SWAP1 PUSH2 0x386D JUMP JUMPDEST PUSH2 0x20E3 SWAP2 SWAP1 PUSH2 0x38B8 JUMP JUMPDEST PUSH1 0x0 DUP1 SLOAD SWAP1 PUSH2 0x100 EXP SWAP1 DIV PUSH20 0xFFFFFFFFFFFFFFFFFFFFFFFFFFFFFFFFFFFFFFFF AND PUSH20 0xFFFFFFFFFFFFFFFFFFFFFFFFFFFFFFFFFFFFFFFF AND PUSH4 0x45BAEE55 PUSH1 0x40 MLOAD DUP2 PUSH4 0xFFFFFFFF AND PUSH1 0xE0 SHL DUP2 MSTORE PUSH1 0x4 ADD PUSH1 0x20 PUSH1 0x40 MLOAD DUP1 DUP4 SUB DUP2 DUP7 GAS STATICCALL ISZERO DUP1 ISZERO PUSH2 0x214E JUMPI RETURNDATASIZE PUSH1 0x0 DUP1 RETURNDATACOPY RETURNDATASIZE PUSH1 0x0 REVERT JUMPDEST POP POP POP POP PUSH1 0x40 MLOAD RETURNDATASIZE PUSH1 0x1F NOT PUSH1 0x1F DUP3 ADD AND DUP3 ADD DUP1 PUSH1 0x40 MSTORE POP DUP2 ADD SWAP1 PUSH2 0x2172 SWAP2 SWAP1 PUSH2 0x2DC2 JUMP JUMPDEST DUP3 SWAP1 SHR AND DUP8 PUSH1 0x2 ADD DUP4 DUP2 SLOAD DUP2 LT PUSH2 0x218C JUMPI PUSH2 0x218B PUSH2 0x2C4F JUMP JUMPDEST JUMPDEST SWAP1 PUSH1 0x0 MSTORE PUSH1 0x20 PUSH1 0x0 KECCAK256 ADD DUP2 SWAP1 SSTORE POP PUSH1 0x1 PUSH1 0x0 DUP1 SLOAD SWAP1 PUSH2 0x100 EXP SWAP1 DIV PUSH20 0xFFFFFFFFFFFFFFFFFFFFFFFFFFFFFFFFFFFFFFFF AND PUSH20 0xFFFFFFFFFFFFFFFFFFFFFFFFFFFFFFFFFFFFFFFF AND PUSH4 0x45BAEE55 PUSH1 0x40 MLOAD DUP2 PUSH4 0xFFFFFFFF AND PUSH1 0xE0 SHL DUP2 MSTORE PUSH1 0x4 ADD PUSH1 0x20 PUSH1 0x40 MLOAD DUP1 DUP4 SUB DUP2 DUP7 GAS STATICCALL ISZERO DUP1 ISZERO PUSH2 0x2207 JUMPI RETURNDATASIZE PUSH1 0x0 DUP1 RETURNDATACOPY RETURNDATASIZE PUSH1 0x0 REVERT JUMPDEST POP POP POP POP PUSH1 0x40 MLOAD RETURNDATASIZE PUSH1 0x1F NOT PUSH1 0x1F DUP3 ADD AND DUP3 ADD DUP1 PUSH1 0x40 MSTORE POP DUP2 ADD SWAP1 PUSH2 0x222B SWAP2 SWAP1 PUSH2 0x2DC2 JUMP JUMPDEST PUSH1 0x2 PUSH2 0x2237 SWAP2 SWAP1 PUSH2 0x386D JUMP JUMPDEST PUSH2 0x2241 SWAP2 SWAP1 PUSH2 0x38B8 JUMP JUMPDEST DUP2 AND DUP8 PUSH1 0x3 ADD DUP4 DUP2 SLOAD DUP2 LT PUSH2 0x2259 JUMPI PUSH2 0x2258 PUSH2 0x2C4F JUMP JUMPDEST JUMPDEST SWAP1 PUSH1 0x0 MSTORE PUSH1 0x20 PUSH1 0x0 KECCAK256 ADD DUP2 SWAP1 SSTORE POP POP DUP1 PUSH2 0x2272 SWAP1 PUSH2 0x2EDA JUMP JUMPDEST SWAP1 POP PUSH2 0x1F93 JUMP JUMPDEST POP PUSH1 0x1 DUP1 PUSH1 0x0 DUP1 SLOAD SWAP1 PUSH2 0x100 EXP SWAP1 DIV PUSH20 0xFFFFFFFFFFFFFFFFFFFFFFFFFFFFFFFFFFFFFFFF AND PUSH20 0xFFFFFFFFFFFFFFFFFFFFFFFFFFFFFFFFFFFFFFFF AND PUSH4 0xAE5C1356 PUSH1 0x40 MLOAD DUP2 PUSH4 0xFFFFFFFF AND PUSH1 0xE0 SHL DUP2 MSTORE PUSH1 0x4 ADD PUSH1 0x20 PUSH1 0x40 MLOAD DUP1 DUP4 SUB DUP2 DUP7 GAS STATICCALL ISZERO DUP1 ISZERO PUSH2 0x22E8 JUMPI RETURNDATASIZE PUSH1 0x0 DUP1 RETURNDATACOPY RETURNDATASIZE PUSH1 0x0 REVERT JUMPDEST POP POP POP POP PUSH1 0x40 MLOAD RETURNDATASIZE PUSH1 0x1F NOT PUSH1 0x1F DUP3 ADD AND DUP3 ADD DUP1 PUSH1 0x40 MSTORE POP DUP2 ADD SWAP1 PUSH2 0x230C SWAP2 SWAP1 PUSH2 0x2DC2 JUMP JUMPDEST DUP4 PUSH2 0x2317 SWAP2 SWAP1 PUSH2 0x36F8 JUMP JUMPDEST DUP5 SWAP1 SHR AND EQ DUP6 PUSH1 0x6 ADD PUSH1 0x0 PUSH2 0x100 EXP DUP2 SLOAD DUP2 PUSH1 0xFF MUL NOT AND SWAP1 DUP4 ISZERO ISZERO MUL OR SWAP1 SSTORE POP PUSH1 0x1 DUP1 PUSH1 0x1 PUSH1 0x0 DUP1 SLOAD SWAP1 PUSH2 0x100 EXP SWAP1 DIV PUSH20 0xFFFFFFFFFFFFFFFFFFFFFFFFFFFFFFFFFFFFFFFF AND PUSH20 0xFFFFFFFFFFFFFFFFFFFFFFFFFFFFFFFFFFFFFFFF AND PUSH4 0xAE5C1356 PUSH1 0x40 MLOAD DUP2 PUSH4 0xFFFFFFFF AND PUSH1 0xE0 SHL DUP2 MSTORE PUSH1 0x4 ADD PUSH1 0x20 PUSH1 0x40 MLOAD DUP1 DUP4 SUB DUP2 DUP7 GAS STATICCALL ISZERO DUP1 ISZERO PUSH2 0x23A7 JUMPI RETURNDATASIZE PUSH1 0x0 DUP1 RETURNDATACOPY RETURNDATASIZE PUSH1 0x0 REVERT JUMPDEST POP POP POP POP PUSH1 0x40 MLOAD RETURNDATASIZE PUSH1 0x1F NOT PUSH1 0x1F DUP3 ADD AND DUP3 ADD DUP1 PUSH1 0x40 MSTORE POP DUP2 ADD SWAP1 PUSH2 0x23CB SWAP2 SWAP1 PUSH2 0x2DC2 JUMP JUMPDEST DUP5 PUSH2 0x23D6 SWAP2 SWAP1 PUSH2 0x36F8 JUMP JUMPDEST PUSH2 0x23E0 SWAP2 SWAP1 PUSH2 0x2CAD JUMP JUMPDEST DUP5 SWAP1 SHR AND EQ DUP6 PUSH1 0x4 ADD PUSH1 0x0 PUSH2 0x100 EXP DUP2 SLOAD DUP2 PUSH1 0xFF MUL NOT AND SWAP1 DUP4 ISZERO ISZERO MUL OR SWAP1 SSTORE POP PUSH1 0xF PUSH1 0x2 PUSH1 0x0 DUP1 SLOAD SWAP1 PUSH2 0x100 EXP SWAP1 DIV PUSH20 0xFFFFFFFFFFFFFFFFFFFFFFFFFFFFFFFFFFFFFFFF AND PUSH20 0xFFFFFFFFFFFFFFFFFFFFFFFFFFFFFFFFFFFFFFFF AND PUSH4 0xAE5C1356 PUSH1 0x40 MLOAD DUP2 PUSH4 0xFFFFFFFF AND PUSH1 0xE0 SHL DUP2 MSTORE PUSH1 0x4 ADD PUSH1 0x20 PUSH1 0x40 MLOAD DUP1 DUP4 SUB DUP2 DUP7 GAS STATICCALL ISZERO DUP1 ISZERO PUSH2 0x246F JUMPI RETURNDATASIZE PUSH1 0x0 DUP1 RETURNDATACOPY RETURNDATASIZE PUSH1 0x0 REVERT JUMPDEST POP POP POP POP PUSH1 0x40 MLOAD RETURNDATASIZE PUSH1 0x1F NOT PUSH1 0x1F DUP3 ADD AND DUP3 ADD DUP1 PUSH1 0x40 MSTORE POP DUP2 ADD SWAP1 PUSH2 0x2493 SWAP2 SWAP1 PUSH2 0x2DC2 JUMP JUMPDEST DUP4 PUSH2 0x249E SWAP2 SWAP1 PUSH2 0x36F8 JUMP JUMPDEST PUSH2 0x24A8 SWAP2 SWAP1 PUSH2 0x2CAD JUMP JUMPDEST DUP4 SWAP1 SHR AND DUP6 PUSH1 0x5 ADD DUP2 SWAP1 SSTORE POP POP POP POP POP POP POP POP POP JUMP JUMPDEST PUSH1 0x0 PUSH1 0x4 PUSH1 0x0 DUP4 DUP2 MSTORE PUSH1 0x20 ADD SWAP1 DUP2 MSTORE PUSH1 0x20 ADD PUSH1 0x0 KECCAK256 SWAP1 POP DUP2 PUSH1 0x5 PUSH1 0x0 PUSH2 0x515 DUP2 MSTORE PUSH1 0x20 ADD SWAP1 DUP2 MSTORE PUSH1 0x20 ADD PUSH1 0x0 KECCAK256 DUP2 SWAP1 SSTORE POP PUSH1 0x3 PUSH1 0xA DUP2 GT ISZERO PUSH2 0x2503 JUMPI PUSH2 0x2502 PUSH2 0x2B41 JUMP JUMPDEST JUMPDEST DUP2 PUSH1 0x3 ADD PUSH1 0x0 SWAP1 SLOAD SWAP1 PUSH2 0x100 EXP SWAP1 DIV PUSH1 0xFF AND PUSH1 0xA DUP2 GT ISZERO PUSH2 0x2527 JUMPI PUSH2 0x2526 PUSH2 0x2B41 JUMP JUMPDEST JUMPDEST POP POP PUSH32 0x58D4562CF15D1052E816FD24F6AF2C8A3A21416D6E4C01A9E11EF84FFE537E25 DUP3 DUP3 PUSH1 0x3 ADD PUSH1 0x0 SWAP1 SLOAD SWAP1 PUSH2 0x100 EXP SWAP1 DIV PUSH1 0xFF AND PUSH1 0x40 MLOAD PUSH2 0x256B SWAP3 SWAP2 SWAP1 PUSH2 0x2CE1 JUMP JUMPDEST PUSH1 0x40 MLOAD DUP1 SWAP2 SUB SWAP1 LOG1 POP POP JUMP JUMPDEST PUSH1 0x0 PUSH1 0x4 PUSH1 0x0 PUSH1 0x5 PUSH1 0x0 DUP7 DUP2 MSTORE PUSH1 0x20 ADD SWAP1 DUP2 MSTORE PUSH1 0x20 ADD PUSH1 0x0 KECCAK256 SLOAD DUP2 MSTORE PUSH1 0x20 ADD SWAP1 DUP2 MSTORE PUSH1 0x20 ADD PUSH1 0x0 KECCAK256 SWAP1 POP DUP2 DUP2 PUSH1 0x0 ADD DUP2 SWAP1 SSTORE POP PUSH1 0x4 DUP2 PUSH1 0x3 ADD PUSH1 0x0 PUSH2 0x100 EXP DUP2 SLOAD DUP2 PUSH1 0xFF MUL NOT AND SWAP1 DUP4 PUSH1 0xA DUP2 GT ISZERO PUSH2 0x25D2 JUMPI PUSH2 0x25D1 PUSH2 0x2B41 JUMP JUMPDEST JUMPDEST MUL OR SWAP1 SSTORE POP PUSH2 0x2615 PUSH1 0x40 MLOAD DUP1 PUSH1 0x40 ADD PUSH1 0x40 MSTORE DUP1 PUSH1 0x1B DUP2 MSTORE PUSH1 0x20 ADD PUSH32 0x66756C6C66696C5365656452657175657374202D2063616C6C65640000000000 DUP2 MSTORE POP PUSH2 0x2677 JUMP JUMPDEST PUSH32 0x58D4562CF15D1052E816FD24F6AF2C8A3A21416D6E4C01A9E11EF84FFE537E25 PUSH1 0x5 PUSH1 0x0 DUP6 DUP2 MSTORE PUSH1 0x20 ADD SWAP1 DUP2 MSTORE PUSH1 0x20 ADD PUSH1 0x0 KECCAK256 SLOAD DUP3 PUSH1 0x3 ADD PUSH1 0x0 SWAP1 SLOAD SWAP1 PUSH2 0x100 EXP SWAP1 DIV PUSH1 0xFF AND PUSH1 0x40 MLOAD PUSH2 0x266A SWAP3 SWAP2 SWAP1 PUSH2 0x2CE1 JUMP JUMPDEST PUSH1 0x40 MLOAD DUP1 SWAP2 SUB SWAP1 LOG1 POP POP POP JUMP JUMPDEST PUSH2 0x270D DUP2 PUSH1 0x40 MLOAD PUSH1 0x24 ADD PUSH2 0x268B SWAP2 SWAP1 PUSH2 0x3930 JUMP JUMPDEST PUSH1 0x40 MLOAD PUSH1 0x20 DUP2 DUP4 SUB SUB DUP2 MSTORE SWAP1 PUSH1 0x40 MSTORE PUSH32 0x41304FAC00000000000000000000000000000000000000000000000000000000 PUSH28 0xFFFFFFFFFFFFFFFFFFFFFFFFFFFFFFFFFFFFFFFFFFFFFFFFFFFFFFFF NOT AND PUSH1 0x20 DUP3 ADD DUP1 MLOAD PUSH28 0xFFFFFFFFFFFFFFFFFFFFFFFFFFFFFFFFFFFFFFFFFFFFFFFFFFFFFFFF DUP4 DUP2 DUP4 AND OR DUP4 MSTORE POP POP POP POP PUSH2 0x2783 JUMP JUMPDEST POP JUMP JUMPDEST PUSH1 0x0 PUSH1 0x9 PUSH1 0x0 DUP6 DUP2 MSTORE PUSH1 0x20 ADD SWAP1 DUP2 MSTORE PUSH1 0x20 ADD PUSH1 0x0 KECCAK256 PUSH1 0x0 PUSH1 0x6 PUSH1 0x0 DUP8 DUP2 MSTORE PUSH1 0x20 ADD SWAP1 DUP2 MSTORE PUSH1 0x20 ADD PUSH1 0x0 KECCAK256 SLOAD DUP2 MSTORE PUSH1 0x20 ADD SWAP1 DUP2 MSTORE PUSH1 0x20 ADD PUSH1 0x0 KECCAK256 DUP4 DUP2 SLOAD DUP2 LT PUSH2 0x275B JUMPI PUSH2 0x275A PUSH2 0x2C4F JUMP JUMPDEST JUMPDEST SWAP1 PUSH1 0x0 MSTORE PUSH1 0x20 PUSH1 0x0 KECCAK256 SWAP1 PUSH1 0x7 MUL ADD SWAP1 POP DUP2 DUP2 PUSH1 0x0 ADD SWAP1 DUP2 PUSH2 0x277C SWAP2 SWAP1 PUSH2 0x35E6 JUMP JUMPDEST POP POP POP POP POP JUMP JUMPDEST PUSH1 0x0 DUP2 MLOAD SWAP1 POP PUSH1 0x0 PUSH11 0x636F6E736F6C652E6C6F67 SWAP1 POP PUSH1 0x20 DUP4 ADD PUSH1 0x0 DUP1 DUP5 DUP4 DUP6 GAS STATICCALL POP POP POP POP POP JUMP JUMPDEST PUSH1 0x0 DUP2 SWAP1 POP SWAP2 SWAP1 POP JUMP JUMPDEST PUSH2 0x27BF DUP2 PUSH2 0x27AC JUMP JUMPDEST DUP3 MSTORE POP POP JUMP JUMPDEST PUSH1 0x0 PUSH1 0x20 DUP3 ADD SWAP1 POP PUSH2 0x27DA PUSH1 0x0 DUP4 ADD DUP5 PUSH2 0x27B6 JUMP JUMPDEST SWAP3 SWAP2 POP POP JUMP JUMPDEST PUSH1 0x0 PUSH1 0x40 MLOAD SWAP1 POP SWAP1 JUMP JUMPDEST PUSH1 0x0 DUP1 REVERT JUMPDEST PUSH1 0x0 DUP1 REVERT JUMPDEST PUSH2 0x27FD DUP2 PUSH2 0x27AC JUMP JUMPDEST DUP2 EQ PUSH2 0x2808 JUMPI PUSH1 0x0 DUP1 REVERT JUMPDEST POP JUMP JUMPDEST PUSH1 0x0 DUP2 CALLDATALOAD SWAP1 POP PUSH2 0x281A DUP2 PUSH2 0x27F4 JUMP JUMPDEST SWAP3 SWAP2 POP POP JUMP JUMPDEST PUSH1 0x0 DUP1 PUSH1 0x0 PUSH1 0x60 DUP5 DUP7 SUB SLT ISZERO PUSH2 0x2839 JUMPI PUSH2 0x2838 PUSH2 0x27EA JUMP JUMPDEST JUMPDEST PUSH1 0x0 PUSH2 0x2847 DUP7 DUP3 DUP8 ADD PUSH2 0x280B JUMP JUMPDEST SWAP4 POP POP PUSH1 0x20 PUSH2 0x2858 DUP7 DUP3 DUP8 ADD PUSH2 0x280B JUMP JUMPDEST SWAP3 POP POP PUSH1 0x40 PUSH2 0x2869 DUP7 DUP3 DUP8 ADD PUSH2 0x280B JUMP JUMPDEST SWAP2 POP POP SWAP3 POP SWAP3 POP SWAP3 JUMP JUMPDEST PUSH1 0x0 DUP2 MLOAD SWAP1 POP SWAP2 SWAP1 POP JUMP JUMPDEST PUSH1 0x0 DUP3 DUP3 MSTORE PUSH1 0x20 DUP3 ADD SWAP1 POP SWAP3 SWAP2 POP POP JUMP JUMPDEST PUSH1 0x0 JUMPDEST DUP4 DUP2 LT ISZERO PUSH2 0x28AD JUMPI DUP1 DUP3 ADD MLOAD DUP2 DUP5 ADD MSTORE PUSH1 0x20 DUP2 ADD SWAP1 POP PUSH2 0x2892 JUMP JUMPDEST PUSH1 0x0 DUP5 DUP5 ADD MSTORE POP POP POP POP JUMP JUMPDEST PUSH1 0x0 PUSH1 0x1F NOT PUSH1 0x1F DUP4 ADD AND SWAP1 POP SWAP2 SWAP1 POP JUMP JUMPDEST PUSH1 0x0 PUSH2 0x28D5 DUP3 PUSH2 0x2873 JUMP JUMPDEST PUSH2 0x28DF DUP2 DUP6 PUSH2 0x287E JUMP JUMPDEST SWAP4 POP PUSH2 0x28EF DUP2 DUP6 PUSH1 0x20 DUP7 ADD PUSH2 0x288F JUMP JUMPDEST PUSH2 0x28F8 DUP2 PUSH2 0x28B9 JUMP JUMPDEST DUP5 ADD SWAP2 POP POP SWAP3 SWAP2 POP POP JUMP JUMPDEST PUSH1 0x0 DUP2 ISZERO ISZERO SWAP1 POP SWAP2 SWAP1 POP JUMP JUMPDEST PUSH2 0x2918 DUP2 PUSH2 0x2903 JUMP JUMPDEST DUP3 MSTORE POP POP JUMP JUMPDEST PUSH1 0x0 PUSH1 0xA0 DUP3 ADD SWAP1 POP DUP2 DUP2 SUB PUSH1 0x0 DUP4 ADD MSTORE PUSH2 0x2938 DUP2 DUP9 PUSH2 0x28CA JUMP JUMPDEST SWAP1 POP DUP2 DUP2 SUB PUSH1 0x20 DUP4 ADD MSTORE PUSH2 0x294C DUP2 DUP8 PUSH2 0x28CA JUMP JUMPDEST SWAP1 POP PUSH2 0x295B PUSH1 0x40 DUP4 ADD DUP7 PUSH2 0x290F JUMP JUMPDEST PUSH2 0x2968 PUSH1 0x60 DUP4 ADD DUP6 PUSH2 0x27B6 JUMP JUMPDEST PUSH2 0x2975 PUSH1 0x80 DUP4 ADD DUP5 PUSH2 0x290F JUMP JUMPDEST SWAP7 SWAP6 POP POP POP POP POP POP JUMP JUMPDEST PUSH1 0x0 PUSH20 0xFFFFFFFFFFFFFFFFFFFFFFFFFFFFFFFFFFFFFFFF DUP3 AND SWAP1 POP SWAP2 SWAP1 POP JUMP JUMPDEST PUSH1 0x0 PUSH2 0x29AA DUP3 PUSH2 0x297F JUMP JUMPDEST SWAP1 POP SWAP2 SWAP1 POP JUMP JUMPDEST PUSH2 0x29BA DUP2 PUSH2 0x299F JUMP JUMPDEST DUP2 EQ PUSH2 0x29C5 JUMPI PUSH1 0x0 DUP1 REVERT JUMPDEST POP JUMP JUMPDEST PUSH1 0x0 DUP2 CALLDATALOAD SWAP1 POP PUSH2 0x29D7 DUP2 PUSH2 0x29B1 JUMP JUMPDEST SWAP3 SWAP2 POP POP JUMP JUMPDEST PUSH1 0x0 DUP1 PUSH1 0x40 DUP4 DUP6 SUB SLT ISZERO PUSH2 0x29F4 JUMPI PUSH2 0x29F3 PUSH2 0x27EA JUMP JUMPDEST JUMPDEST PUSH1 0x0 PUSH2 0x2A02 DUP6 DUP3 DUP7 ADD PUSH2 0x29C8 JUMP JUMPDEST SWAP3 POP POP PUSH1 0x20 PUSH2 0x2A13 DUP6 DUP3 DUP7 ADD PUSH2 0x29C8 JUMP JUMPDEST SWAP2 POP POP SWAP3 POP SWAP3 SWAP1 POP JUMP JUMPDEST PUSH1 0x0 PUSH1 0x20 DUP3 DUP5 SUB SLT ISZERO PUSH2 0x2A33 JUMPI PUSH2 0x2A32 PUSH2 0x27EA JUMP JUMPDEST JUMPDEST PUSH1 0x0 PUSH2 0x2A41 DUP5 DUP3 DUP6 ADD PUSH2 0x280B JUMP JUMPDEST SWAP2 POP POP SWAP3 SWAP2 POP POP JUMP JUMPDEST PUSH1 0x0 DUP1 PUSH1 0x0 PUSH1 0x60 DUP5 DUP7 SUB SLT ISZERO PUSH2 0x2A63 JUMPI PUSH2 0x2A62 PUSH2 0x27EA JUMP JUMPDEST JUMPDEST PUSH1 0x0 PUSH2 0x2A71 DUP7 DUP3 DUP8 ADD PUSH2 0x280B JUMP JUMPDEST SWAP4 POP POP PUSH1 0x20 PUSH2 0x2A82 DUP7 DUP3 DUP8 ADD PUSH2 0x29C8 JUMP JUMPDEST SWAP3 POP POP PUSH1 0x40 PUSH2 0x2A93 DUP7 DUP3 DUP8 ADD PUSH2 0x29C8 JUMP JUMPDEST SWAP2 POP POP SWAP3 POP SWAP3 POP SWAP3 JUMP JUMPDEST PUSH1 0x0 DUP2 SWAP1 POP SWAP2 SWAP1 POP JUMP JUMPDEST PUSH1 0x0 PUSH2 0x2AC2 PUSH2 0x2ABD PUSH2 0x2AB8 DUP5 PUSH2 0x297F JUMP JUMPDEST PUSH2 0x2A9D JUMP JUMPDEST PUSH2 0x297F JUMP JUMPDEST SWAP1 POP SWAP2 SWAP1 POP JUMP JUMPDEST PUSH1 0x0 PUSH2 0x2AD4 DUP3 PUSH2 0x2AA7 JUMP JUMPDEST SWAP1 POP SWAP2 SWAP1 POP JUMP JUMPDEST PUSH1 0x0 PUSH2 0x2AE6 DUP3 PUSH2 0x2AC9 JUMP JUMPDEST SWAP1 POP SWAP2 SWAP1 POP JUMP JUMPDEST PUSH2 0x2AF6 DUP2 PUSH2 0x2ADB JUMP JUMPDEST DUP3 MSTORE POP POP JUMP JUMPDEST PUSH1 0x0 PUSH1 0x20 DUP3 ADD SWAP1 POP PUSH2 0x2B11 PUSH1 0x0 DUP4 ADD DUP5 PUSH2 0x2AED JUMP JUMPDEST SWAP3 SWAP2 POP POP JUMP JUMPDEST PUSH2 0x2B20 DUP2 PUSH2 0x299F JUMP JUMPDEST DUP3 MSTORE POP POP JUMP JUMPDEST PUSH1 0x0 PUSH1 0x20 DUP3 ADD SWAP1 POP PUSH2 0x2B3B PUSH1 0x0 DUP4 ADD DUP5 PUSH2 0x2B17 JUMP JUMPDEST SWAP3 SWAP2 POP POP JUMP JUMPDEST PUSH32 0x4E487B7100000000000000000000000000000000000000000000000000000000 PUSH1 0x0 MSTORE PUSH1 0x21 PUSH1 0x4 MSTORE PUSH1 0x24 PUSH1 0x0 REVERT JUMPDEST PUSH1 0xB DUP2 LT PUSH2 0x2B81 JUMPI PUSH2 0x2B80 PUSH2 0x2B41 JUMP JUMPDEST JUMPDEST POP JUMP JUMPDEST PUSH1 0x0 DUP2 SWAP1 POP PUSH2 0x2B92 DUP3 PUSH2 0x2B70 JUMP JUMPDEST SWAP2 SWAP1 POP JUMP JUMPDEST PUSH1 0x0 PUSH2 0x2BA2 DUP3 PUSH2 0x2B84 JUMP JUMPDEST SWAP1 POP SWAP2 SWAP1 POP JUMP JUMPDEST PUSH2 0x2BB2 DUP2 PUSH2 0x2B97 JUMP JUMPDEST DUP3 MSTORE POP POP JUMP JUMPDEST PUSH1 0x0 PUSH1 0x60 DUP3 ADD SWAP1 POP PUSH2 0x2BCD PUSH1 0x0 DUP4 ADD DUP7 PUSH2 0x27B6 JUMP JUMPDEST PUSH2 0x2BDA PUSH1 0x20 DUP4 ADD DUP6 PUSH2 0x2BA9 JUMP JUMPDEST PUSH2 0x2BE7 PUSH1 0x40 DUP4 ADD DUP5 PUSH2 0x27B6 JUMP JUMPDEST SWAP5 SWAP4 POP POP POP POP JUMP JUMPDEST PUSH32 0x4E487B7100000000000000000000000000000000000000000000000000000000 PUSH1 0x0 MSTORE PUSH1 0x22 PUSH1 0x4 MSTORE PUSH1 0x24 PUSH1 0x0 REVERT JUMPDEST PUSH1 0x0 PUSH1 0x2 DUP3 DIV SWAP1 POP PUSH1 0x1 DUP3 AND DUP1 PUSH2 0x2C36 JUMPI PUSH1 0x7F DUP3 AND SWAP2 POP JUMPDEST PUSH1 0x20 DUP3 LT DUP2 SUB PUSH2 0x2C49 JUMPI PUSH2 0x2C48 PUSH2 0x2BEF JUMP JUMPDEST JUMPDEST POP SWAP2 SWAP1 POP JUMP JUMPDEST PUSH32 0x4E487B7100000000000000000000000000000000000000000000000000000000 PUSH1 0x0 MSTORE PUSH1 0x32 PUSH1 0x4 MSTORE PUSH1 0x24 PUSH1 0x0 REVERT JUMPDEST PUSH32 0x4E487B7100000000000000000000000000000000000000000000000000000000 PUSH1 0x0 MSTORE PUSH1 0x11 PUSH1 0x4 MSTORE PUSH1 0x24 PUSH1 0x0 REVERT JUMPDEST PUSH1 0x0 PUSH2 0x2CB8 DUP3 PUSH2 0x27AC JUMP JUMPDEST SWAP2 POP PUSH2 0x2CC3 DUP4 PUSH2 0x27AC JUMP JUMPDEST SWAP3 POP DUP3 DUP3 ADD SWAP1 POP DUP1 DUP3 GT ISZERO PUSH2 0x2CDB JUMPI PUSH2 0x2CDA PUSH2 0x2C7E JUMP JUMPDEST JUMPDEST SWAP3 SWAP2 POP POP JUMP JUMPDEST PUSH1 0x0 PUSH1 0x40 DUP3 ADD SWAP1 POP PUSH2 0x2CF6 PUSH1 0x0 DUP4 ADD DUP6 PUSH2 0x27B6 JUMP JUMPDEST PUSH2 0x2D03 PUSH1 0x20 DUP4 ADD DUP5 PUSH2 0x2BA9 JUMP JUMPDEST SWAP4 SWAP3 POP POP POP JUMP JUMPDEST PUSH1 0x0 DUP3 DUP3 MSTORE PUSH1 0x20 DUP3 ADD SWAP1 POP SWAP3 SWAP2 POP POP JUMP JUMPDEST PUSH32 0x4552523A204D61746368206E6F7420696E20636F727265637420737461676520 PUSH1 0x0 DUP3 ADD MSTORE PUSH32 0x746F20726563656976652052657665616C732100000000000000000000000000 PUSH1 0x20 DUP3 ADD MSTORE POP JUMP JUMPDEST PUSH1 0x0 PUSH2 0x2D77 PUSH1 0x33 DUP4 PUSH2 0x2D0A JUMP JUMPDEST SWAP2 POP PUSH2 0x2D82 DUP3 PUSH2 0x2D1B JUMP JUMPDEST PUSH1 0x40 DUP3 ADD SWAP1 POP SWAP2 SWAP1 POP JUMP JUMPDEST PUSH1 0x0 PUSH1 0x20 DUP3 ADD SWAP1 POP DUP2 DUP2 SUB PUSH1 0x0 DUP4 ADD MSTORE PUSH2 0x2DA6 DUP2 PUSH2 0x2D6A JUMP JUMPDEST SWAP1 POP SWAP2 SWAP1 POP JUMP JUMPDEST PUSH1 0x0 DUP2 MLOAD SWAP1 POP PUSH2 0x2DBC DUP2 PUSH2 0x27F4 JUMP JUMPDEST SWAP3 SWAP2 POP POP JUMP JUMPDEST PUSH1 0x0 PUSH1 0x20 DUP3 DUP5 SUB SLT ISZERO PUSH2 0x2DD8 JUMPI PUSH2 0x2DD7 PUSH2 0x27EA JUMP JUMPDEST JUMPDEST PUSH1 0x0 PUSH2 0x2DE6 DUP5 DUP3 DUP6 ADD PUSH2 0x2DAD JUMP JUMPDEST SWAP2 POP POP SWAP3 SWAP2 POP POP JUMP JUMPDEST PUSH2 0x2DF8 DUP2 PUSH2 0x2903 JUMP JUMPDEST DUP2 EQ PUSH2 0x2E03 JUMPI PUSH1 0x0 DUP1 REVERT JUMPDEST POP JUMP JUMPDEST PUSH1 0x0 DUP2 MLOAD SWAP1 POP PUSH2 0x2E15 DUP2 PUSH2 0x2DEF JUMP JUMPDEST SWAP3 SWAP2 POP POP JUMP JUMPDEST PUSH1 0x0 PUSH1 0x20 DUP3 DUP5 SUB SLT ISZERO PUSH2 0x2E31 JUMPI PUSH2 0x2E30 PUSH2 0x27EA JUMP JUMPDEST JUMPDEST PUSH1 0x0 PUSH2 0x2E3F DUP5 DUP3 DUP6 ADD PUSH2 0x2E06 JUMP JUMPDEST SWAP2 POP POP SWAP3 SWAP2 POP POP JUMP JUMPDEST PUSH32 0x4552523A204E6F7420616C6C207465616D732068617665206973737565642063 PUSH1 0x0 DUP3 ADD MSTORE PUSH32 0x6F6D6D69746D656E747321000000000000000000000000000000000000000000 PUSH1 0x20 DUP3 ADD MSTORE POP JUMP JUMPDEST PUSH1 0x0 PUSH2 0x2EA4 PUSH1 0x2B DUP4 PUSH2 0x2D0A JUMP JUMPDEST SWAP2 POP PUSH2 0x2EAF DUP3 PUSH2 0x2E48 JUMP JUMPDEST PUSH1 0x40 DUP3 ADD SWAP1 POP SWAP2 SWAP1 POP JUMP JUMPDEST PUSH1 0x0 PUSH1 0x20 DUP3 ADD SWAP1 POP DUP2 DUP2 SUB PUSH1 0x0 DUP4 ADD MSTORE PUSH2 0x2ED3 DUP2 PUSH2 0x2E97 JUMP JUMPDEST SWAP1 POP SWAP2 SWAP1 POP JUMP JUMPDEST PUSH1 0x0 PUSH2 0x2EE5 DUP3 PUSH2 0x27AC JUMP JUMPDEST SWAP2 POP PUSH32 0xFFFFFFFFFFFFFFFFFFFFFFFFFFFFFFFFFFFFFFFFFFFFFFFFFFFFFFFFFFFFFFFF DUP3 SUB PUSH2 0x2F17 JUMPI PUSH2 0x2F16 PUSH2 0x2C7E JUMP JUMPDEST JUMPDEST PUSH1 0x1 DUP3 ADD SWAP1 POP SWAP2 SWAP1 POP JUMP JUMPDEST PUSH1 0x0 DUP1 REVERT JUMPDEST PUSH1 0x0 DUP1 REVERT JUMPDEST PUSH32 0x4E487B7100000000000000000000000000000000000000000000000000000000 PUSH1 0x0 MSTORE PUSH1 0x41 PUSH1 0x4 MSTORE PUSH1 0x24 PUSH1 0x0 REVERT JUMPDEST PUSH2 0x2F64 DUP3 PUSH2 0x28B9 JUMP JUMPDEST DUP2 ADD DUP2 DUP2 LT PUSH8 0xFFFFFFFFFFFFFFFF DUP3 GT OR ISZERO PUSH2 0x2F83 JUMPI PUSH2 0x2F82 PUSH2 0x2F2C JUMP JUMPDEST JUMPDEST DUP1 PUSH1 0x40 MSTORE POP POP POP JUMP JUMPDEST PUSH1 0x0 PUSH2 0x2F96 PUSH2 0x27E0 JUMP JUMPDEST SWAP1 POP PUSH2 0x2FA2 DUP3 DUP3 PUSH2 0x2F5B JUMP JUMPDEST SWAP2 SWAP1 POP JUMP JUMPDEST PUSH1 0x0 PUSH8 0xFFFFFFFFFFFFFFFF DUP3 GT ISZERO PUSH2 0x2FC2 JUMPI PUSH2 0x2FC1 PUSH2 0x2F2C JUMP JUMPDEST JUMPDEST PUSH2 0x2FCB DUP3 PUSH2 0x28B9 JUMP JUMPDEST SWAP1 POP PUSH1 0x20 DUP2 ADD SWAP1 POP SWAP2 SWAP1 POP JUMP JUMPDEST PUSH1 0x0 PUSH2 0x2FEB PUSH2 0x2FE6 DUP5 PUSH2 0x2FA7 JUMP JUMPDEST PUSH2 0x2F8C JUMP JUMPDEST SWAP1 POP DUP3 DUP2 MSTORE PUSH1 0x20 DUP2 ADD DUP5 DUP5 DUP5 ADD GT ISZERO PUSH2 0x3007 JUMPI PUSH2 0x3006 PUSH2 0x2F27 JUMP JUMPDEST JUMPDEST PUSH2 0x3012 DUP5 DUP3 DUP6 PUSH2 0x288F JUMP JUMPDEST POP SWAP4 SWAP3 POP POP POP JUMP JUMPDEST PUSH1 0x0 DUP3 PUSH1 0x1F DUP4 ADD SLT PUSH2 0x302F JUMPI PUSH2 0x302E PUSH2 0x2F22 JUMP JUMPDEST JUMPDEST DUP2 MLOAD PUSH2 0x303F DUP5 DUP3 PUSH1 0x20 DUP7 ADD PUSH2 0x2FD8 JUMP JUMPDEST SWAP2 POP POP SWAP3 SWAP2 POP POP JUMP JUMPDEST PUSH1 0x0 PUSH1 0x20 DUP3 DUP5 SUB SLT ISZERO PUSH2 0x305E JUMPI PUSH2 0x305D PUSH2 0x27EA JUMP JUMPDEST JUMPDEST PUSH1 0x0 DUP3 ADD MLOAD PUSH8 0xFFFFFFFFFFFFFFFF DUP2 GT ISZERO PUSH2 0x307C JUMPI PUSH2 0x307B PUSH2 0x27EF JUMP JUMPDEST JUMPDEST PUSH2 0x3088 DUP5 DUP3 DUP6 ADD PUSH2 0x301A JUMP JUMPDEST SWAP2 POP POP SWAP3 SWAP2 POP POP JUMP JUMPDEST PUSH32 0x4552523A20596F752063616E206F6E6C79206A6F696E2061206E65776C792063 PUSH1 0x0 DUP3 ADD MSTORE PUSH32 0x726561746564206D617463682100000000000000000000000000000000000000 PUSH1 0x20 DUP3 ADD MSTORE POP JUMP JUMPDEST PUSH1 0x0 PUSH2 0x30ED PUSH1 0x2D DUP4 PUSH2 0x2D0A JUMP JUMPDEST SWAP2 POP PUSH2 0x30F8 DUP3 PUSH2 0x3091 JUMP JUMPDEST PUSH1 0x40 DUP3 ADD SWAP1 POP SWAP2 SWAP1 POP JUMP JUMPDEST PUSH1 0x0 PUSH1 0x20 DUP3 ADD SWAP1 POP DUP2 DUP2 SUB PUSH1 0x0 DUP4 ADD MSTORE PUSH2 0x311C DUP2 PUSH2 0x30E0 JUMP JUMPDEST SWAP1 POP SWAP2 SWAP1 POP JUMP JUMPDEST PUSH32 0x4552523A204D61746368206E6F7420696E20636F727265637420737461676520 PUSH1 0x0 DUP3 ADD MSTORE PUSH32 0x746F20666574636820436F6D6D69746D656E7473210000000000000000000000 PUSH1 0x20 DUP3 ADD MSTORE POP JUMP JUMPDEST PUSH1 0x0 PUSH2 0x317F PUSH1 0x35 DUP4 PUSH2 0x2D0A JUMP JUMPDEST SWAP2 POP PUSH2 0x318A DUP3 PUSH2 0x3123 JUMP JUMPDEST PUSH1 0x40 DUP3 ADD SWAP1 POP SWAP2 SWAP1 POP JUMP JUMPDEST PUSH1 0x0 PUSH1 0x20 DUP3 ADD SWAP1 POP DUP2 DUP2 SUB PUSH1 0x0 DUP4 ADD MSTORE PUSH2 0x31AE DUP2 PUSH2 0x3172 JUMP JUMPDEST SWAP1 POP SWAP2 SWAP1 POP JUMP JUMPDEST PUSH32 0x4552523A204D61746368206E6F7420696E20636F727265637420737461676520 PUSH1 0x0 DUP3 ADD MSTORE PUSH32 0x746F207265636569766520436F6D6D69746D656E747321000000000000000000 PUSH1 0x20 DUP3 ADD MSTORE POP JUMP JUMPDEST PUSH1 0x0 PUSH2 0x3211 PUSH1 0x37 DUP4 PUSH2 0x2D0A JUMP JUMPDEST SWAP2 POP PUSH2 0x321C DUP3 PUSH2 0x31B5 JUMP JUMPDEST PUSH1 0x40 DUP3 ADD SWAP1 POP SWAP2 SWAP1 POP JUMP JUMPDEST PUSH1 0x0 PUSH1 0x20 DUP3 ADD SWAP1 POP DUP2 DUP2 SUB PUSH1 0x0 DUP4 ADD MSTORE PUSH2 0x3240 DUP2 PUSH2 0x3204 JUMP JUMPDEST SWAP1 POP SWAP2 SWAP1 POP JUMP JUMPDEST PUSH32 0x4552523A204D61746368206E6F7420696E20636F727265637420737461676520 PUSH1 0x0 DUP3 ADD MSTORE PUSH32 0x746F206665746368205265617665616C73210000000000000000000000000000 PUSH1 0x20 DUP3 ADD MSTORE POP JUMP JUMPDEST PUSH1 0x0 PUSH2 0x32A3 PUSH1 0x32 DUP4 PUSH2 0x2D0A JUMP JUMPDEST SWAP2 POP PUSH2 0x32AE DUP3 PUSH2 0x3247 JUMP JUMPDEST PUSH1 0x40 DUP3 ADD SWAP1 POP SWAP2 SWAP1 POP JUMP JUMPDEST PUSH1 0x0 PUSH1 0x20 DUP3 ADD SWAP1 POP DUP2 DUP2 SUB PUSH1 0x0 DUP4 ADD MSTORE PUSH2 0x32D2 DUP2 PUSH2 0x3296 JUMP JUMPDEST SWAP1 POP SWAP2 SWAP1 POP JUMP JUMPDEST PUSH1 0x0 DUP2 SWAP1 POP SWAP2 SWAP1 POP JUMP JUMPDEST PUSH2 0x32EC DUP2 PUSH2 0x32D9 JUMP JUMPDEST DUP3 MSTORE POP POP JUMP JUMPDEST PUSH1 0x0 PUSH1 0x20 DUP3 ADD SWAP1 POP PUSH2 0x3307 PUSH1 0x0 DUP4 ADD DUP5 PUSH2 0x32E3 JUMP JUMPDEST SWAP3 SWAP2 POP POP JUMP JUMPDEST PUSH1 0x0 DUP2 SWAP1 POP SWAP3 SWAP2 POP POP JUMP JUMPDEST PUSH1 0x0 DUP2 SWAP1 POP DUP2 PUSH1 0x0 MSTORE PUSH1 0x20 PUSH1 0x0 KECCAK256 SWAP1 POP SWAP2 SWAP1 POP JUMP JUMPDEST PUSH1 0x0 DUP2 SLOAD PUSH2 0x333A DUP2 PUSH2 0x2C1E JUMP JUMPDEST PUSH2 0x3344 DUP2 DUP7 PUSH2 0x330D JUMP JUMPDEST SWAP5 POP PUSH1 0x1 DUP3 AND PUSH1 0x0 DUP2 EQ PUSH2 0x335F JUMPI PUSH1 0x1 DUP2 EQ PUSH2 0x3374 JUMPI PUSH2 0x33A7 JUMP JUMPDEST PUSH1 0xFF NOT DUP4 AND DUP7 MSTORE DUP2 ISZERO ISZERO DUP3 MUL DUP7 ADD SWAP4 POP PUSH2 0x33A7 JUMP JUMPDEST PUSH2 0x337D DUP6 PUSH2 0x3318 JUMP JUMPDEST PUSH1 0x0 JUMPDEST DUP4 DUP2 LT ISZERO PUSH2 0x339F JUMPI DUP2 SLOAD DUP2 DUP10 ADD MSTORE PUSH1 0x1 DUP3 ADD SWAP2 POP PUSH1 0x20 DUP2 ADD SWAP1 POP PUSH2 0x3380 JUMP JUMPDEST DUP4 DUP9 ADD SWAP6 POP POP POP JUMPDEST POP POP POP SWAP3 SWAP2 POP POP JUMP JUMPDEST PUSH1 0x0 PUSH2 0x33BC DUP3 DUP5 PUSH2 0x332D JUMP JUMPDEST SWAP2 POP DUP2 SWAP1 POP SWAP3 SWAP2 POP POP JUMP JUMPDEST PUSH32 0x4552523A2052657665616C20646F65736E277420636F72726573706F6E642074 PUSH1 0x0 DUP3 ADD MSTORE PUSH32 0x6F2074686520436F6D6D69746D656E7400000000000000000000000000000000 PUSH1 0x20 DUP3 ADD MSTORE POP JUMP JUMPDEST PUSH1 0x0 PUSH2 0x3423 PUSH1 0x30 DUP4 PUSH2 0x2D0A JUMP JUMPDEST SWAP2 POP PUSH2 0x342E DUP3 PUSH2 0x33C7 JUMP JUMPDEST PUSH1 0x40 DUP3 ADD SWAP1 POP SWAP2 SWAP1 POP JUMP JUMPDEST PUSH1 0x0 PUSH1 0x20 DUP3 ADD SWAP1 POP DUP2 DUP2 SUB PUSH1 0x0 DUP4 ADD MSTORE PUSH2 0x3452 DUP2 PUSH2 0x3416 JUMP JUMPDEST SWAP1 POP SWAP2 SWAP1 POP JUMP JUMPDEST PUSH1 0x0 PUSH1 0x20 PUSH1 0x1F DUP4 ADD DIV SWAP1 POP SWAP2 SWAP1 POP JUMP JUMPDEST PUSH1 0x0 DUP3 DUP3 SHL SWAP1 POP SWAP3 SWAP2 POP POP JUMP JUMPDEST PUSH1 0x0 PUSH1 0x8 DUP4 MUL PUSH2 0x34A6 PUSH32 0xFFFFFFFFFFFFFFFFFFFFFFFFFFFFFFFFFFFFFFFFFFFFFFFFFFFFFFFFFFFFFFFF DUP3 PUSH2 0x3469 JUMP JUMPDEST PUSH2 0x34B0 DUP7 DUP4 PUSH2 0x3469 JUMP JUMPDEST SWAP6 POP DUP1 NOT DUP5 AND SWAP4 POP DUP1 DUP7 AND DUP5 OR SWAP3 POP POP POP SWAP4 SWAP3 POP POP POP JUMP JUMPDEST PUSH1 0x0 PUSH2 0x34E3 PUSH2 0x34DE PUSH2 0x34D9 DUP5 PUSH2 0x27AC JUMP JUMPDEST PUSH2 0x2A9D JUMP JUMPDEST PUSH2 0x27AC JUMP JUMPDEST SWAP1 POP SWAP2 SWAP1 POP JUMP JUMPDEST PUSH1 0x0 DUP2 SWAP1 POP SWAP2 SWAP1 POP JUMP JUMPDEST PUSH2 0x34FD DUP4 PUSH2 0x34C8 JUMP JUMPDEST PUSH2 0x3511 PUSH2 0x3509 DUP3 PUSH2 0x34EA JUMP JUMPDEST DUP5 DUP5 SLOAD PUSH2 0x3476 JUMP JUMPDEST DUP3 SSTORE POP POP POP POP JUMP JUMPDEST PUSH1 0x0 SWAP1 JUMP JUMPDEST PUSH2 0x3526 PUSH2 0x3519 JUMP JUMPDEST PUSH2 0x3531 DUP2 DUP5 DUP5 PUSH2 0x34F4 JUMP JUMPDEST POP POP POP JUMP JUMPDEST JUMPDEST DUP2 DUP2 LT ISZERO PUSH2 0x3555 JUMPI PUSH2 0x354A PUSH1 0x0 DUP3 PUSH2 0x351E JUMP JUMPDEST PUSH1 0x1 DUP2 ADD SWAP1 POP PUSH2 0x3537 JUMP JUMPDEST POP POP JUMP JUMPDEST PUSH1 0x1F DUP3 GT ISZERO PUSH2 0x359A JUMPI PUSH2 0x356B DUP2 PUSH2 0x3318 JUMP JUMPDEST PUSH2 0x3574 DUP5 PUSH2 0x3459 JUMP JUMPDEST DUP2 ADD PUSH1 0x20 DUP6 LT ISZERO PUSH2 0x3583 JUMPI DUP2 SWAP1 POP JUMPDEST PUSH2 0x3597 PUSH2 0x358F DUP6 PUSH2 0x3459 JUMP JUMPDEST DUP4 ADD DUP3 PUSH2 0x3536 JUMP JUMPDEST POP POP JUMPDEST POP POP POP JUMP JUMPDEST PUSH1 0x0 DUP3 DUP3 SHR SWAP1 POP SWAP3 SWAP2 POP POP JUMP JUMPDEST PUSH1 0x0 PUSH2 0x35BD PUSH1 0x0 NOT DUP5 PUSH1 0x8 MUL PUSH2 0x359F JUMP JUMPDEST NOT DUP1 DUP4 AND SWAP2 POP POP SWAP3 SWAP2 POP POP JUMP JUMPDEST PUSH1 0x0 PUSH2 0x35D6 DUP4 DUP4 PUSH2 0x35AC JUMP JUMPDEST SWAP2 POP DUP3 PUSH1 0x2 MUL DUP3 OR SWAP1 POP SWAP3 SWAP2 POP POP JUMP JUMPDEST PUSH2 0x35EF DUP3 PUSH2 0x2873 JUMP JUMPDEST PUSH8 0xFFFFFFFFFFFFFFFF DUP2 GT ISZERO PUSH2 0x3608 JUMPI PUSH2 0x3607 PUSH2 0x2F2C JUMP JUMPDEST JUMPDEST PUSH2 0x3612 DUP3 SLOAD PUSH2 0x2C1E JUMP JUMPDEST PUSH2 0x361D DUP3 DUP3 DUP6 PUSH2 0x3559 JUMP JUMPDEST PUSH1 0x0 PUSH1 0x20 SWAP1 POP PUSH1 0x1F DUP4 GT PUSH1 0x1 DUP2 EQ PUSH2 0x3650 JUMPI PUSH1 0x0 DUP5 ISZERO PUSH2 0x363E JUMPI DUP3 DUP8 ADD MLOAD SWAP1 POP JUMPDEST PUSH2 0x3648 DUP6 DUP3 PUSH2 0x35CA JUMP JUMPDEST DUP7 SSTORE POP PUSH2 0x36B0 JUMP JUMPDEST PUSH1 0x1F NOT DUP5 AND PUSH2 0x365E DUP7 PUSH2 0x3318 JUMP JUMPDEST PUSH1 0x0 JUMPDEST DUP3 DUP2 LT ISZERO PUSH2 0x3686 JUMPI DUP5 DUP10 ADD MLOAD DUP3 SSTORE PUSH1 0x1 DUP3 ADD SWAP2 POP PUSH1 0x20 DUP6 ADD SWAP5 POP PUSH1 0x20 DUP2 ADD SWAP1 POP PUSH2 0x3661 JUMP JUMPDEST DUP7 DUP4 LT ISZERO PUSH2 0x36A3 JUMPI DUP5 DUP10 ADD MLOAD PUSH2 0x369F PUSH1 0x1F DUP10 AND DUP3 PUSH2 0x35AC JUMP JUMPDEST DUP4 SSTORE POP JUMPDEST PUSH1 0x1 PUSH1 0x2 DUP9 MUL ADD DUP9 SSTORE POP POP POP JUMPDEST POP POP POP POP POP POP JUMP JUMPDEST PUSH1 0x0 DUP1 PUSH1 0x40 DUP4 DUP6 SUB SLT ISZERO PUSH2 0x36CF JUMPI PUSH2 0x36CE PUSH2 0x27EA JUMP JUMPDEST JUMPDEST PUSH1 0x0 PUSH2 0x36DD DUP6 DUP3 DUP7 ADD PUSH2 0x2DAD JUMP JUMPDEST SWAP3 POP POP PUSH1 0x20 PUSH2 0x36EE DUP6 DUP3 DUP7 ADD PUSH2 0x2DAD JUMP JUMPDEST SWAP2 POP POP SWAP3 POP SWAP3 SWAP1 POP JUMP JUMPDEST PUSH1 0x0 PUSH2 0x3703 DUP3 PUSH2 0x27AC JUMP JUMPDEST SWAP2 POP PUSH2 0x370E DUP4 PUSH2 0x27AC JUMP JUMPDEST SWAP3 POP DUP3 DUP3 MUL PUSH2 0x371C DUP2 PUSH2 0x27AC JUMP JUMPDEST SWAP2 POP DUP3 DUP3 DIV DUP5 EQ DUP4 ISZERO OR PUSH2 0x3733 JUMPI PUSH2 0x3732 PUSH2 0x2C7E JUMP JUMPDEST JUMPDEST POP SWAP3 SWAP2 POP POP JUMP JUMPDEST PUSH1 0x0 DUP2 PUSH1 0x1 SHR SWAP1 POP SWAP2 SWAP1 POP JUMP JUMPDEST PUSH1 0x0 DUP1 DUP3 SWAP2 POP DUP4 SWAP1 POP JUMPDEST PUSH1 0x1 DUP6 GT ISZERO PUSH2 0x3791 JUMPI DUP1 DUP7 DIV DUP2 GT ISZERO PUSH2 0x376D JUMPI PUSH2 0x376C PUSH2 0x2C7E JUMP JUMPDEST JUMPDEST PUSH1 0x1 DUP6 AND ISZERO PUSH2 0x377C JUMPI DUP1 DUP3 MUL SWAP2 POP JUMPDEST DUP1 DUP2 MUL SWAP1 POP PUSH2 0x378A DUP6 PUSH2 0x373A JUMP JUMPDEST SWAP5 POP PUSH2 0x3751 JUMP JUMPDEST SWAP5 POP SWAP5 SWAP3 POP POP POP JUMP JUMPDEST PUSH1 0x0 DUP3 PUSH2 0x37AA JUMPI PUSH1 0x1 SWAP1 POP PUSH2 0x3866 JUMP JUMPDEST DUP2 PUSH2 0x37B8 JUMPI PUSH1 0x0 SWAP1 POP PUSH2 0x3866 JUMP JUMPDEST DUP2 PUSH1 0x1 DUP2 EQ PUSH2 0x37CE JUMPI PUSH1 0x2 DUP2 EQ PUSH2 0x37D8 JUMPI PUSH2 0x3807 JUMP JUMPDEST PUSH1 0x1 SWAP2 POP POP PUSH2 0x3866 JUMP JUMPDEST PUSH1 0xFF DUP5 GT ISZERO PUSH2 0x37EA JUMPI PUSH2 0x37E9 PUSH2 0x2C7E JUMP JUMPDEST JUMPDEST DUP4 PUSH1 0x2 EXP SWAP2 POP DUP5 DUP3 GT ISZERO PUSH2 0x3801 JUMPI PUSH2 0x3800 PUSH2 0x2C7E JUMP JUMPDEST JUMPDEST POP PUSH2 0x3866 JUMP JUMPDEST POP PUSH1 0x20 DUP4 LT PUSH2 0x133 DUP4 LT AND PUSH1 0x4E DUP5 LT PUSH1 0xB DUP5 LT AND OR ISZERO PUSH2 0x383C JUMPI DUP3 DUP3 EXP SWAP1 POP DUP4 DUP2 GT ISZERO PUSH2 0x3837 JUMPI PUSH2 0x3836 PUSH2 0x2C7E JUMP JUMPDEST JUMPDEST PUSH2 0x3866 JUMP JUMPDEST PUSH2 0x3849 DUP5 DUP5 DUP5 PUSH1 0x1 PUSH2 0x3747 JUMP JUMPDEST SWAP3 POP SWAP1 POP DUP2 DUP5 DIV DUP2 GT ISZERO PUSH2 0x3860 JUMPI PUSH2 0x385F PUSH2 0x2C7E JUMP JUMPDEST JUMPDEST DUP2 DUP2 MUL SWAP1 POP JUMPDEST SWAP4 SWAP3 POP POP POP JUMP JUMPDEST PUSH1 0x0 PUSH2 0x3878 DUP3 PUSH2 0x27AC JUMP JUMPDEST SWAP2 POP PUSH2 0x3883 DUP4 PUSH2 0x27AC JUMP JUMPDEST SWAP3 POP PUSH2 0x38B0 PUSH32 0xFFFFFFFFFFFFFFFFFFFFFFFFFFFFFFFFFFFFFFFFFFFFFFFFFFFFFFFFFFFFFFFF DUP5 DUP5 PUSH2 0x379A JUMP JUMPDEST SWAP1 POP SWAP3 SWAP2 POP POP JUMP JUMPDEST PUSH1 0x0 PUSH2 0x38C3 DUP3 PUSH2 0x27AC JUMP JUMPDEST SWAP2 POP PUSH2 0x38CE DUP4 PUSH2 0x27AC JUMP JUMPDEST SWAP3 POP DUP3 DUP3 SUB SWAP1 POP DUP2 DUP2 GT ISZERO PUSH2 0x38E6 JUMPI PUSH2 0x38E5 PUSH2 0x2C7E JUMP JUMPDEST JUMPDEST SWAP3 SWAP2 POP POP JUMP JUMPDEST PUSH1 0x0 DUP2 MLOAD SWAP1 POP SWAP2 SWAP1 POP JUMP JUMPDEST PUSH1 0x0 PUSH2 0x3902 DUP3 PUSH2 0x38EC JUMP JUMPDEST PUSH2 0x390C DUP2 DUP6 PUSH2 0x2D0A JUMP JUMPDEST SWAP4 POP PUSH2 0x391C DUP2 DUP6 PUSH1 0x20 DUP7 ADD PUSH2 0x288F JUMP JUMPDEST PUSH2 0x3925 DUP2 PUSH2 0x28B9 JUMP JUMPDEST DUP5 ADD SWAP2 POP POP SWAP3 SWAP2 POP POP JUMP JUMPDEST PUSH1 0x0 PUSH1 0x20 DUP3 ADD SWAP1 POP DUP2 DUP2 SUB PUSH1 0x0 DUP4 ADD MSTORE PUSH2 0x394A DUP2 DUP5 PUSH2 0x38F7 JUMP JUMPDEST SWAP1 POP SWAP3 SWAP2 POP POP JUMP INVALID PUSH4 0x6F6D6D69 PUSH21 0x6D656E745469636B43616C6C6564202D2070617373 PUSH6 0x642072657175 PUSH10 0x72656D656E74A2646970 PUSH7 0x735822122003A1 0xBA PUSH6 0x9B25402A4354 0x28 CHAINID 0x23 0xBF 0xA9 0xCC 0xC9 0xB9 0x26 GASLIMIT 0xD9 0xDD 0xB3 0xD9 CALL GAS STATICCALL SWAP16 0xDB 0x5D OR LOG4 PUSH5 0x736F6C6343 STOP ADDMOD SLT STOP CALLER PUSH1 0x80 PUSH1 0x40 MSTORE CALLVALUE DUP1 ISZERO PUSH2 0x10 JUMPI PUSH1 0x0 DUP1 REVERT JUMPDEST POP PUSH2 0x26D DUP1 PUSH2 0x20 PUSH1 0x0 CODECOPY PUSH1 0x0 RETURN INVALID PUSH1 0x80 PUSH1 0x40 MSTORE CALLVALUE DUP1 ISZERO PUSH2 0x10 JUMPI PUSH1 0x0 DUP1 REVERT JUMPDEST POP PUSH1 0x4 CALLDATASIZE LT PUSH2 0x9E JUMPI PUSH1 0x0 CALLDATALOAD PUSH1 0xE0 SHR DUP1 PUSH4 0x705DD6CD GT PUSH2 0x66 JUMPI DUP1 PUSH4 0x705DD6CD EQ PUSH2 0x139 JUMPI DUP1 PUSH4 0x734692A9 EQ PUSH2 0x157 JUMPI DUP1 PUSH4 0xAE5C1356 EQ PUSH2 0x175 JUMPI DUP1 PUSH4 0xC8067B6F EQ PUSH2 0x193 JUMPI DUP1 PUSH4 0xE3C8BFB9 EQ PUSH2 0x1B1 JUMPI PUSH2 0x9E JUMP JUMPDEST DUP1 PUSH4 0x124A96C8 EQ PUSH2 0xA3 JUMPI DUP1 PUSH4 0x39FEBF0C EQ PUSH2 0xC1 JUMPI DUP1 PUSH4 0x45BAEE55 EQ PUSH2 0xDF JUMPI DUP1 PUSH4 0x49BBC37A EQ PUSH2 0xFD JUMPI DUP1 PUSH4 0x4FFDF11E EQ PUSH2 0x11B JUMPI JUMPDEST PUSH1 0x0 DUP1 REVERT JUMPDEST PUSH2 0xAB PUSH2 0x1CF JUMP JUMPDEST PUSH1 0x40 MLOAD PUSH2 0xB8 SWAP2 SWAP1 PUSH2 0x21C JUMP JUMPDEST PUSH1 0x40 MLOAD DUP1 SWAP2 SUB SWAP1 RETURN JUMPDEST PUSH2 0xC9 PUSH2 0x1D5 JUMP JUMPDEST PUSH1 0x40 MLOAD PUSH2 0xD6 SWAP2 SWAP1 PUSH2 0x21C JUMP JUMPDEST PUSH1 0x40 MLOAD DUP1 SWAP2 SUB SWAP1 RETURN JUMPDEST PUSH2 0xE7 PUSH2 0x1DA JUMP JUMPDEST PUSH1 0x40 MLOAD PUSH2 0xF4 SWAP2 SWAP1 PUSH2 0x21C JUMP JUMPDEST PUSH1 0x40 MLOAD DUP1 SWAP2 SUB SWAP1 RETURN JUMPDEST PUSH2 0x105 PUSH2 0x1DF JUMP JUMPDEST PUSH1 0x40 MLOAD PUSH2 0x112 SWAP2 SWAP1 PUSH2 0x21C JUMP JUMPDEST PUSH1 0x40 MLOAD DUP1 SWAP2 SUB SWAP1 RETURN JUMPDEST PUSH2 0x123 PUSH2 0x1E5 JUMP JUMPDEST PUSH1 0x40 MLOAD PUSH2 0x130 SWAP2 SWAP1 PUSH2 0x21C JUMP JUMPDEST PUSH1 0x40 MLOAD DUP1 SWAP2 SUB SWAP1 RETURN JUMPDEST PUSH2 0x141 PUSH2 0x1EA JUMP JUMPDEST PUSH1 0x40 MLOAD PUSH2 0x14E SWAP2 SWAP1 PUSH2 0x21C JUMP JUMPDEST PUSH1 0x40 MLOAD DUP1 SWAP2 SUB SWAP1 RETURN JUMPDEST PUSH2 0x15F PUSH2 0x1EF JUMP JUMPDEST PUSH1 0x40 MLOAD PUSH2 0x16C SWAP2 SWAP1 PUSH2 0x21C JUMP JUMPDEST PUSH1 0x40 MLOAD DUP1 SWAP2 SUB SWAP1 RETURN JUMPDEST PUSH2 0x17D PUSH2 0x1F4 JUMP JUMPDEST PUSH1 0x40 MLOAD PUSH2 0x18A SWAP2 SWAP1 PUSH2 0x21C JUMP JUMPDEST PUSH1 0x40 MLOAD DUP1 SWAP2 SUB SWAP1 RETURN JUMPDEST PUSH2 0x19B PUSH2 0x1F9 JUMP JUMPDEST PUSH1 0x40 MLOAD PUSH2 0x1A8 SWAP2 SWAP1 PUSH2 0x21C JUMP JUMPDEST PUSH1 0x40 MLOAD DUP1 SWAP2 SUB SWAP1 RETURN JUMPDEST PUSH2 0x1B9 PUSH2 0x1FE JUMP JUMPDEST PUSH1 0x40 MLOAD PUSH2 0x1C6 SWAP2 SWAP1 PUSH2 0x21C JUMP JUMPDEST PUSH1 0x40 MLOAD DUP1 SWAP2 SUB SWAP1 RETURN JUMPDEST PUSH2 0x1F4 DUP2 JUMP JUMPDEST PUSH1 0x5 DUP2 JUMP JUMPDEST PUSH1 0x7 DUP2 JUMP JUMPDEST PUSH2 0x3E8 DUP2 JUMP JUMPDEST PUSH1 0x6 DUP2 JUMP JUMPDEST PUSH1 0xA DUP2 JUMP JUMPDEST PUSH1 0x7 DUP2 JUMP JUMPDEST PUSH1 0xA DUP2 JUMP JUMPDEST PUSH1 0x5 DUP2 JUMP JUMPDEST PUSH1 0x2 DUP2 JUMP JUMPDEST PUSH1 0x0 DUP2 SWAP1 POP SWAP2 SWAP1 POP JUMP JUMPDEST PUSH2 0x216 DUP2 PUSH2 0x203 JUMP JUMPDEST DUP3 MSTORE POP POP JUMP JUMPDEST PUSH1 0x0 PUSH1 0x20 DUP3 ADD SWAP1 POP PUSH2 0x231 PUSH1 0x0 DUP4 ADD DUP5 PUSH2 0x20D JUMP JUMPDEST SWAP3 SWAP2 POP POP JUMP INVALID LOG2 PUSH5 0x6970667358 0x22 SLT KECCAK256 ADD 0xD9 0xD8 PUSH12 0x524B072C82851D2DA1AF5686 ADD 0xB9 SWAP2 0xB5 EXTCODEHASH PUSH26 0xE36A726E5478A595E9964736F6C634300081200330000000000 "},"methodIdentifiers":{"BALL_STEPS_PER_MOVE()":"734692a9","BITS_PER_PLAYER_X_POS()":"4ffdf11e","BITS_PER_PLAYER_Y_POS()":"45baee55","FIELD_H()":"124a96c8","FIELD_W()":"49bbc37a","MAX_BALL_DISTANCE_REQUIRED()":"c8067b6f","NUMBER_OF_PLAYERS_PER_TEAM()":"ae5c1356","NUMBER_OF_TEAMS()":"e3c8bfb9","PLAYER_STEPS_PER_MOVE()":"39febf0c","STAMINA_REQUIREMENT_FOR_ADVANCEMENT()":"705dd6cd","commitmentTick(uint256)":"5cd6925a","constants()":"72de5b2f","createMatch(address,address)":"1e20530a","getProgression(uint256,uint256)":"44c1dc78","getTeamStateProgression(uint256,uint256,uint256,uint256)":"d5792e35","joinMatch(uint256,address,address)":"35868ab7","logic()":"d7dfa0dd","manager()":"481c6a75","matchCounter()":"01fd1951","matchIdToMatchStateId(uint256)":"755f10fd","matchInfo(uint256)":"d79b490e","revealTick(uint256)":"f9781033","seedRequestIdMatchId(uint256)":"37c74779","stateUpdate(uint256)":"e5bcd450","teamMove(uint256,uint256,uint256)":"1b7d40a5","ticker()":"8ba47bdd","updateCommitmentInfo(uint256)":"90ede5d5","updateRevealInfo(uint256)":"27764f7d"}}}}}