{"contracts/mockups/CommitmentChainlinkFunctionConsumer.sol":{"CommitmentChainlinkFunctionConsumer":{"abi":[{"inputs":[],"stateMutability":"nonpayable","type":"constructor"},{"inputs":[],"name":"_dataIsReady","outputs":[{"internalType":"bool","name":"","type":"bool"}],"stateMutability":"view","type":"function"},{"inputs":[],"name":"commitment","outputs":[{"internalType":"bytes32","name":"","type":"bytes32"}],"stateMutability":"view","type":"function"},{"inputs":[],"name":"copyData","outputs":[{"internalType":"bytes","name":"","type":"bytes"}],"stateMutability":"nonpayable","type":"function"},{"inputs":[],"name":"dataHasBeenRead","outputs":[{"internalType":"bool","name":"","type":"bool"}],"stateMutability":"view","type":"function"},{"inputs":[],"name":"dataIsReady","outputs":[{"internalType":"bool","name":"","type":"bool"}],"stateMutability":"view","type":"function"},{"inputs":[],"name":"encodedData","outputs":[{"internalType":"bytes","name":"","type":"bytes"}],"stateMutability":"view","type":"function"},{"inputs":[],"name":"requestData","outputs":[],"stateMutability":"nonpayable","type":"function"},{"inputs":[{"internalType":"uint256","name":"seed","type":"uint256"}],"name":"updateData","outputs":[],"stateMutability":"nonpayable","type":"function"}],"evm":{"bytecode":{"linkReferences":{},"object":"60806040526000600260006101000a81548160ff0219169083151502179055506001600260016101000a81548160ff0219169083151502179055503480156200004757600080fd5b506200005a607b6200006060201b60201c565b6200050f565b600081905081816040516020016200007a929190620000d8565b6040516020818303038152906040526000908162000099919062000375565b506000604051620000ab9190620004f6565b60405180910390206001819055505050565b6000819050919050565b620000d281620000bd565b82525050565b6000604082019050620000ef6000830185620000c7565b620000fe6020830184620000c7565b9392505050565b600081519050919050565b7f4e487b7100000000000000000000000000000000000000000000000000000000600052604160045260246000fd5b7f4e487b7100000000000000000000000000000000000000000000000000000000600052602260045260246000fd5b600060028204905060018216806200018757607f821691505b6020821081036200019d576200019c6200013f565b5b50919050565b60008190508160005260206000209050919050565b60006020601f8301049050919050565b600082821b905092915050565b600060088302620002077fffffffffffffffffffffffffffffffffffffffffffffffffffffffffffffffff82620001c8565b620002138683620001c8565b95508019841693508086168417925050509392505050565b6000819050919050565b600062000256620002506200024a84620000bd565b6200022b565b620000bd565b9050919050565b6000819050919050565b620002728362000235565b6200028a62000281826200025d565b848454620001d5565b825550505050565b600090565b620002a162000292565b620002ae81848462000267565b505050565b5b81811015620002d657620002ca60008262000297565b600181019050620002b4565b5050565b601f8211156200032557620002ef81620001a3565b620002fa84620001b8565b810160208510156200030a578190505b620003226200031985620001b8565b830182620002b3565b50505b505050565b600082821c905092915050565b60006200034a600019846008026200032a565b1980831691505092915050565b600062000365838362000337565b9150826002028217905092915050565b620003808262000105565b67ffffffffffffffff8111156200039c576200039b62000110565b5b620003a882546200016e565b620003b5828285620002da565b600060209050601f831160018114620003ed5760008415620003d8578287015190505b620003e4858262000357565b86555062000454565b601f198416620003fd86620001a3565b60005b82811015620004275784890151825560018201915060208501945060208101905062000400565b8683101562000447578489015162000443601f89168262000337565b8355505b6001600288020188555050505b505050505050565b600081905092915050565b6000815462000476816200016e565b6200048281866200045c565b94506001821660008114620004a05760018114620004b657620004ed565b60ff1983168652811515820286019350620004ed565b620004c185620001a3565b60005b83811015620004e557815481890152600182019150602081019050620004c4565b838801955050505b50505092915050565b600062000504828462000467565b915081905092915050565b6109c3806200051f6000396000f3fe608060405234801561001057600080fd5b50600436106100885760003560e01c806358194ff21161005b57806358194ff214610103578063606deecd14610121578063cce710631461012b578063d2b0bf7c1461014957610088565b8063036279591461008d57806309e96008146100ab5780631303a484146100c75780632f703e08146100e5575b600080fd5b610095610167565b6040516100a29190610397565b60405180910390f35b6100c560048036038101906100c091906103ed565b61017a565b005b6100cf6101d1565b6040516100dc9190610433565b60405180910390f35b6100ed6101d7565b6040516100fa91906104de565b60405180910390f35b61010b610236565b6040516101189190610397565b60405180910390f35b610129610249565b005b6101336102d7565b6040516101409190610397565b60405180910390f35b6101516102ee565b60405161015e91906104de565b60405180910390f35b600260019054906101000a900460ff1681565b6000819050818160405160200161019292919061050f565b604051602081830303815290604052600090816101af9190610773565b5060006040516101bf91906108d3565b60405180910390206001819055505050565b60015481565b60606001600260016101000a81548160ff0219169083151502179055506000600260006101000a81548160ff0219169083151502179055506001546040516020016102229190610433565b604051602081830303815290604052905090565b600260009054906101000a900460ff1681565b60011515600260019054906101000a900460ff1615151461029f576040517f08c379a00000000000000000000000000000000000000000000000000000000081526004016102969061096d565b60405180910390fd5b6001600260006101000a81548160ff0219169083151502179055506000600260016101000a81548160ff021916908315150217905550565b6000600260009054906101000a900460ff16905090565b600080546102fb90610596565b80601f016020809104026020016040519081016040528092919081815260200182805461032790610596565b80156103745780601f1061034957610100808354040283529160200191610374565b820191906000526020600020905b81548152906001019060200180831161035757829003601f168201915b505050505081565b60008115159050919050565b6103918161037c565b82525050565b60006020820190506103ac6000830184610388565b92915050565b600080fd5b6000819050919050565b6103ca816103b7565b81146103d557600080fd5b50565b6000813590506103e7816103c1565b92915050565b600060208284031215610403576104026103b2565b5b6000610411848285016103d8565b91505092915050565b6000819050919050565b61042d8161041a565b82525050565b60006020820190506104486000830184610424565b92915050565b600081519050919050565b600082825260208201905092915050565b60005b8381101561048857808201518184015260208101905061046d565b60008484015250505050565b6000601f19601f8301169050919050565b60006104b08261044e565b6104ba8185610459565b93506104ca81856020860161046a565b6104d381610494565b840191505092915050565b600060208201905081810360008301526104f881846104a5565b905092915050565b610509816103b7565b82525050565b60006040820190506105246000830185610500565b6105316020830184610500565b9392505050565b7f4e487b7100000000000000000000000000000000000000000000000000000000600052604160045260246000fd5b7f4e487b7100000000000000000000000000000000000000000000000000000000600052602260045260246000fd5b600060028204905060018216806105ae57607f821691505b6020821081036105c1576105c0610567565b5b50919050565b60008190508160005260206000209050919050565b60006020601f8301049050919050565b600082821b905092915050565b6000600883026106297fffffffffffffffffffffffffffffffffffffffffffffffffffffffffffffffff826105ec565b61063386836105ec565b95508019841693508086168417925050509392505050565b6000819050919050565b600061067061066b610666846103b7565b61064b565b6103b7565b9050919050565b6000819050919050565b61068a83610655565b61069e61069682610677565b8484546105f9565b825550505050565b600090565b6106b36106a6565b6106be818484610681565b505050565b5b818110156106e2576106d76000826106ab565b6001810190506106c4565b5050565b601f821115610727576106f8816105c7565b610701846105dc565b81016020851015610710578190505b61072461071c856105dc565b8301826106c3565b50505b505050565b600082821c905092915050565b600061074a6000198460080261072c565b1980831691505092915050565b60006107638383610739565b9150826002028217905092915050565b61077c8261044e565b67ffffffffffffffff81111561079557610794610538565b5b61079f8254610596565b6107aa8282856106e6565b600060209050601f8311600181146107dd57600084156107cb578287015190505b6107d58582610757565b86555061083d565b601f1984166107eb866105c7565b60005b82811015610813578489015182556001820191506020850194506020810190506107ee565b86831015610830578489015161082c601f891682610739565b8355505b6001600288020188555050505b505050505050565b600081905092915050565b6000815461085d81610596565b6108678186610845565b945060018216600081146108825760018114610897576108ca565b60ff19831686528115158202860193506108ca565b6108a0856105c7565b60005b838110156108c2578154818901526001820191506020810190506108a3565b838801955050505b50505092915050565b60006108df8284610850565b915081905092915050565b600082825260208201905092915050565b7f4552523a2050726576696f7573206461746120686173206e6f74206265656e2060008201527f7265616421000000000000000000000000000000000000000000000000000000602082015250565b60006109576025836108ea565b9150610962826108fb565b604082019050919050565b600060208201905081810360008301526109868161094a565b905091905056fea2646970667358221220a893bc6182c560d13296da137c6ddfabdfe84734ab296f1ee8370f54251d52c964736f6c63430008120033","opcodes":"PUSH1 0x80 PUSH1 0x40 MSTORE PUSH1 0x0 PUSH1 0x2 PUSH1 0x0 PUSH2 0x100 EXP DUP2 SLOAD DUP2 PUSH1 0xFF MUL NOT AND SWAP1 DUP4 ISZERO ISZERO MUL OR SWAP1 SSTORE POP PUSH1 0x1 PUSH1 0x2 PUSH1 0x1 PUSH2 0x100 EXP DUP2 SLOAD DUP2 PUSH1 0xFF MUL NOT AND SWAP1 DUP4 ISZERO ISZERO MUL OR SWAP1 SSTORE POP CALLVALUE DUP1 ISZERO PUSH3 0x47 JUMPI PUSH1 0x0 DUP1 REVERT JUMPDEST POP PUSH3 0x5A PUSH1 0x7B PUSH3 0x60 PUSH1 0x20 SHL PUSH1 0x20 SHR JUMP JUMPDEST PUSH3 0x50F JUMP JUMPDEST PUSH1 0x0 DUP2 SWAP1 POP DUP2 DUP2 PUSH1 0x40 MLOAD PUSH1 0x20 ADD PUSH3 0x7A SWAP3 SWAP2 SWAP1 PUSH3 0xD8 JUMP JUMPDEST PUSH1 0x40 MLOAD PUSH1 0x20 DUP2 DUP4 SUB SUB DUP2 MSTORE SWAP1 PUSH1 0x40 MSTORE PUSH1 0x0 SWAP1 DUP2 PUSH3 0x99 SWAP2 SWAP1 PUSH3 0x375 JUMP JUMPDEST POP PUSH1 0x0 PUSH1 0x40 MLOAD PUSH3 0xAB SWAP2 SWAP1 PUSH3 0x4F6 JUMP JUMPDEST PUSH1 0x40 MLOAD DUP1 SWAP2 SUB SWAP1 KECCAK256 PUSH1 0x1 DUP2 SWAP1 SSTORE POP POP POP JUMP JUMPDEST PUSH1 0x0 DUP2 SWAP1 POP SWAP2 SWAP1 POP JUMP JUMPDEST PUSH3 0xD2 DUP2 PUSH3 0xBD JUMP JUMPDEST DUP3 MSTORE POP POP JUMP JUMPDEST PUSH1 0x0 PUSH1 0x40 DUP3 ADD SWAP1 POP PUSH3 0xEF PUSH1 0x0 DUP4 ADD DUP6 PUSH3 0xC7 JUMP JUMPDEST PUSH3 0xFE PUSH1 0x20 DUP4 ADD DUP5 PUSH3 0xC7 JUMP JUMPDEST SWAP4 SWAP3 POP POP POP JUMP JUMPDEST PUSH1 0x0 DUP2 MLOAD SWAP1 POP SWAP2 SWAP1 POP JUMP JUMPDEST PUSH32 0x4E487B7100000000000000000000000000000000000000000000000000000000 PUSH1 0x0 MSTORE PUSH1 0x41 PUSH1 0x4 MSTORE PUSH1 0x24 PUSH1 0x0 REVERT JUMPDEST PUSH32 0x4E487B7100000000000000000000000000000000000000000000000000000000 PUSH1 0x0 MSTORE PUSH1 0x22 PUSH1 0x4 MSTORE PUSH1 0x24 PUSH1 0x0 REVERT JUMPDEST PUSH1 0x0 PUSH1 0x2 DUP3 DIV SWAP1 POP PUSH1 0x1 DUP3 AND DUP1 PUSH3 0x187 JUMPI PUSH1 0x7F DUP3 AND SWAP2 POP JUMPDEST PUSH1 0x20 DUP3 LT DUP2 SUB PUSH3 0x19D JUMPI PUSH3 0x19C PUSH3 0x13F JUMP JUMPDEST JUMPDEST POP SWAP2 SWAP1 POP JUMP JUMPDEST PUSH1 0x0 DUP2 SWAP1 POP DUP2 PUSH1 0x0 MSTORE PUSH1 0x20 PUSH1 0x0 KECCAK256 SWAP1 POP SWAP2 SWAP1 POP JUMP JUMPDEST PUSH1 0x0 PUSH1 0x20 PUSH1 0x1F DUP4 ADD DIV SWAP1 POP SWAP2 SWAP1 POP JUMP JUMPDEST PUSH1 0x0 DUP3 DUP3 SHL SWAP1 POP SWAP3 SWAP2 POP POP JUMP JUMPDEST PUSH1 0x0 PUSH1 0x8 DUP4 MUL PUSH3 0x207 PUSH32 0xFFFFFFFFFFFFFFFFFFFFFFFFFFFFFFFFFFFFFFFFFFFFFFFFFFFFFFFFFFFFFFFF DUP3 PUSH3 0x1C8 JUMP JUMPDEST PUSH3 0x213 DUP7 DUP4 PUSH3 0x1C8 JUMP JUMPDEST SWAP6 POP DUP1 NOT DUP5 AND SWAP4 POP DUP1 DUP7 AND DUP5 OR SWAP3 POP POP POP SWAP4 SWAP3 POP POP POP JUMP JUMPDEST PUSH1 0x0 DUP2 SWAP1 POP SWAP2 SWAP1 POP JUMP JUMPDEST PUSH1 0x0 PUSH3 0x256 PUSH3 0x250 PUSH3 0x24A DUP5 PUSH3 0xBD JUMP JUMPDEST PUSH3 0x22B JUMP JUMPDEST PUSH3 0xBD JUMP JUMPDEST SWAP1 POP SWAP2 SWAP1 POP JUMP JUMPDEST PUSH1 0x0 DUP2 SWAP1 POP SWAP2 SWAP1 POP JUMP JUMPDEST PUSH3 0x272 DUP4 PUSH3 0x235 JUMP JUMPDEST PUSH3 0x28A PUSH3 0x281 DUP3 PUSH3 0x25D JUMP JUMPDEST DUP5 DUP5 SLOAD PUSH3 0x1D5 JUMP JUMPDEST DUP3 SSTORE POP POP POP POP JUMP JUMPDEST PUSH1 0x0 SWAP1 JUMP JUMPDEST PUSH3 0x2A1 PUSH3 0x292 JUMP JUMPDEST PUSH3 0x2AE DUP2 DUP5 DUP5 PUSH3 0x267 JUMP JUMPDEST POP POP POP JUMP JUMPDEST JUMPDEST DUP2 DUP2 LT ISZERO PUSH3 0x2D6 JUMPI PUSH3 0x2CA PUSH1 0x0 DUP3 PUSH3 0x297 JUMP JUMPDEST PUSH1 0x1 DUP2 ADD SWAP1 POP PUSH3 0x2B4 JUMP JUMPDEST POP POP JUMP JUMPDEST PUSH1 0x1F DUP3 GT ISZERO PUSH3 0x325 JUMPI PUSH3 0x2EF DUP2 PUSH3 0x1A3 JUMP JUMPDEST PUSH3 0x2FA DUP5 PUSH3 0x1B8 JUMP JUMPDEST DUP2 ADD PUSH1 0x20 DUP6 LT ISZERO PUSH3 0x30A JUMPI DUP2 SWAP1 POP JUMPDEST PUSH3 0x322 PUSH3 0x319 DUP6 PUSH3 0x1B8 JUMP JUMPDEST DUP4 ADD DUP3 PUSH3 0x2B3 JUMP JUMPDEST POP POP JUMPDEST POP POP POP JUMP JUMPDEST PUSH1 0x0 DUP3 DUP3 SHR SWAP1 POP SWAP3 SWAP2 POP POP JUMP JUMPDEST PUSH1 0x0 PUSH3 0x34A PUSH1 0x0 NOT DUP5 PUSH1 0x8 MUL PUSH3 0x32A JUMP JUMPDEST NOT DUP1 DUP4 AND SWAP2 POP POP SWAP3 SWAP2 POP POP JUMP JUMPDEST PUSH1 0x0 PUSH3 0x365 DUP4 DUP4 PUSH3 0x337 JUMP JUMPDEST SWAP2 POP DUP3 PUSH1 0x2 MUL DUP3 OR SWAP1 POP SWAP3 SWAP2 POP POP JUMP JUMPDEST PUSH3 0x380 DUP3 PUSH3 0x105 JUMP JUMPDEST PUSH8 0xFFFFFFFFFFFFFFFF DUP2 GT ISZERO PUSH3 0x39C JUMPI PUSH3 0x39B PUSH3 0x110 JUMP JUMPDEST JUMPDEST PUSH3 0x3A8 DUP3 SLOAD PUSH3 0x16E JUMP JUMPDEST PUSH3 0x3B5 DUP3 DUP3 DUP6 PUSH3 0x2DA JUMP JUMPDEST PUSH1 0x0 PUSH1 0x20 SWAP1 POP PUSH1 0x1F DUP4 GT PUSH1 0x1 DUP2 EQ PUSH3 0x3ED JUMPI PUSH1 0x0 DUP5 ISZERO PUSH3 0x3D8 JUMPI DUP3 DUP8 ADD MLOAD SWAP1 POP JUMPDEST PUSH3 0x3E4 DUP6 DUP3 PUSH3 0x357 JUMP JUMPDEST DUP7 SSTORE POP PUSH3 0x454 JUMP JUMPDEST PUSH1 0x1F NOT DUP5 AND PUSH3 0x3FD DUP7 PUSH3 0x1A3 JUMP JUMPDEST PUSH1 0x0 JUMPDEST DUP3 DUP2 LT ISZERO PUSH3 0x427 JUMPI DUP5 DUP10 ADD MLOAD DUP3 SSTORE PUSH1 0x1 DUP3 ADD SWAP2 POP PUSH1 0x20 DUP6 ADD SWAP5 POP PUSH1 0x20 DUP2 ADD SWAP1 POP PUSH3 0x400 JUMP JUMPDEST DUP7 DUP4 LT ISZERO PUSH3 0x447 JUMPI DUP5 DUP10 ADD MLOAD PUSH3 0x443 PUSH1 0x1F DUP10 AND DUP3 PUSH3 0x337 JUMP JUMPDEST DUP4 SSTORE POP JUMPDEST PUSH1 0x1 PUSH1 0x2 DUP9 MUL ADD DUP9 SSTORE POP POP POP JUMPDEST POP POP POP POP POP POP JUMP JUMPDEST PUSH1 0x0 DUP2 SWAP1 POP SWAP3 SWAP2 POP POP JUMP JUMPDEST PUSH1 0x0 DUP2 SLOAD PUSH3 0x476 DUP2 PUSH3 0x16E JUMP JUMPDEST PUSH3 0x482 DUP2 DUP7 PUSH3 0x45C JUMP JUMPDEST SWAP5 POP PUSH1 0x1 DUP3 AND PUSH1 0x0 DUP2 EQ PUSH3 0x4A0 JUMPI PUSH1 0x1 DUP2 EQ PUSH3 0x4B6 JUMPI PUSH3 0x4ED JUMP JUMPDEST PUSH1 0xFF NOT DUP4 AND DUP7 MSTORE DUP2 ISZERO ISZERO DUP3 MUL DUP7 ADD SWAP4 POP PUSH3 0x4ED JUMP JUMPDEST PUSH3 0x4C1 DUP6 PUSH3 0x1A3 JUMP JUMPDEST PUSH1 0x0 JUMPDEST DUP4 DUP2 LT ISZERO PUSH3 0x4E5 JUMPI DUP2 SLOAD DUP2 DUP10 ADD MSTORE PUSH1 0x1 DUP3 ADD SWAP2 POP PUSH1 0x20 DUP2 ADD SWAP1 POP PUSH3 0x4C4 JUMP JUMPDEST DUP4 DUP9 ADD SWAP6 POP POP POP JUMPDEST POP POP POP SWAP3 SWAP2 POP POP JUMP JUMPDEST PUSH1 0x0 PUSH3 0x504 DUP3 DUP5 PUSH3 0x467 JUMP JUMPDEST SWAP2 POP DUP2 SWAP1 POP SWAP3 SWAP2 POP POP JUMP JUMPDEST PUSH2 0x9C3 DUP1 PUSH3 0x51F PUSH1 0x0 CODECOPY PUSH1 0x0 RETURN INVALID PUSH1 0x80 PUSH1 0x40 MSTORE CALLVALUE DUP1 ISZERO PUSH2 0x10 JUMPI PUSH1 0x0 DUP1 REVERT JUMPDEST POP PUSH1 0x4 CALLDATASIZE LT PUSH2 0x88 JUMPI PUSH1 0x0 CALLDATALOAD PUSH1 0xE0 SHR DUP1 PUSH4 0x58194FF2 GT PUSH2 0x5B JUMPI DUP1 PUSH4 0x58194FF2 EQ PUSH2 0x103 JUMPI DUP1 PUSH4 0x606DEECD EQ PUSH2 0x121 JUMPI DUP1 PUSH4 0xCCE71063 EQ PUSH2 0x12B JUMPI DUP1 PUSH4 0xD2B0BF7C EQ PUSH2 0x149 JUMPI PUSH2 0x88 JUMP JUMPDEST DUP1 PUSH4 0x3627959 EQ PUSH2 0x8D JUMPI DUP1 PUSH4 0x9E96008 EQ PUSH2 0xAB JUMPI DUP1 PUSH4 0x1303A484 EQ PUSH2 0xC7 JUMPI DUP1 PUSH4 0x2F703E08 EQ PUSH2 0xE5 JUMPI JUMPDEST PUSH1 0x0 DUP1 REVERT JUMPDEST PUSH2 0x95 PUSH2 0x167 JUMP JUMPDEST PUSH1 0x40 MLOAD PUSH2 0xA2 SWAP2 SWAP1 PUSH2 0x397 JUMP JUMPDEST PUSH1 0x40 MLOAD DUP1 SWAP2 SUB SWAP1 RETURN JUMPDEST PUSH2 0xC5 PUSH1 0x4 DUP1 CALLDATASIZE SUB DUP2 ADD SWAP1 PUSH2 0xC0 SWAP2 SWAP1 PUSH2 0x3ED JUMP JUMPDEST PUSH2 0x17A JUMP JUMPDEST STOP JUMPDEST PUSH2 0xCF PUSH2 0x1D1 JUMP JUMPDEST PUSH1 0x40 MLOAD PUSH2 0xDC SWAP2 SWAP1 PUSH2 0x433 JUMP JUMPDEST PUSH1 0x40 MLOAD DUP1 SWAP2 SUB SWAP1 RETURN JUMPDEST PUSH2 0xED PUSH2 0x1D7 JUMP JUMPDEST PUSH1 0x40 MLOAD PUSH2 0xFA SWAP2 SWAP1 PUSH2 0x4DE JUMP JUMPDEST PUSH1 0x40 MLOAD DUP1 SWAP2 SUB SWAP1 RETURN JUMPDEST PUSH2 0x10B PUSH2 0x236 JUMP JUMPDEST PUSH1 0x40 MLOAD PUSH2 0x118 SWAP2 SWAP1 PUSH2 0x397 JUMP JUMPDEST PUSH1 0x40 MLOAD DUP1 SWAP2 SUB SWAP1 RETURN JUMPDEST PUSH2 0x129 PUSH2 0x249 JUMP JUMPDEST STOP JUMPDEST PUSH2 0x133 PUSH2 0x2D7 JUMP JUMPDEST PUSH1 0x40 MLOAD PUSH2 0x140 SWAP2 SWAP1 PUSH2 0x397 JUMP JUMPDEST PUSH1 0x40 MLOAD DUP1 SWAP2 SUB SWAP1 RETURN JUMPDEST PUSH2 0x151 PUSH2 0x2EE JUMP JUMPDEST PUSH1 0x40 MLOAD PUSH2 0x15E SWAP2 SWAP1 PUSH2 0x4DE JUMP JUMPDEST PUSH1 0x40 MLOAD DUP1 SWAP2 SUB SWAP1 RETURN JUMPDEST PUSH1 0x2 PUSH1 0x1 SWAP1 SLOAD SWAP1 PUSH2 0x100 EXP SWAP1 DIV PUSH1 0xFF AND DUP2 JUMP JUMPDEST PUSH1 0x0 DUP2 SWAP1 POP DUP2 DUP2 PUSH1 0x40 MLOAD PUSH1 0x20 ADD PUSH2 0x192 SWAP3 SWAP2 SWAP1 PUSH2 0x50F JUMP JUMPDEST PUSH1 0x40 MLOAD PUSH1 0x20 DUP2 DUP4 SUB SUB DUP2 MSTORE SWAP1 PUSH1 0x40 MSTORE PUSH1 0x0 SWAP1 DUP2 PUSH2 0x1AF SWAP2 SWAP1 PUSH2 0x773 JUMP JUMPDEST POP PUSH1 0x0 PUSH1 0x40 MLOAD PUSH2 0x1BF SWAP2 SWAP1 PUSH2 0x8D3 JUMP JUMPDEST PUSH1 0x40 MLOAD DUP1 SWAP2 SUB SWAP1 KECCAK256 PUSH1 0x1 DUP2 SWAP1 SSTORE POP POP POP JUMP JUMPDEST PUSH1 0x1 SLOAD DUP2 JUMP JUMPDEST PUSH1 0x60 PUSH1 0x1 PUSH1 0x2 PUSH1 0x1 PUSH2 0x100 EXP DUP2 SLOAD DUP2 PUSH1 0xFF MUL NOT AND SWAP1 DUP4 ISZERO ISZERO MUL OR SWAP1 SSTORE POP PUSH1 0x0 PUSH1 0x2 PUSH1 0x0 PUSH2 0x100 EXP DUP2 SLOAD DUP2 PUSH1 0xFF MUL NOT AND SWAP1 DUP4 ISZERO ISZERO MUL OR SWAP1 SSTORE POP PUSH1 0x1 SLOAD PUSH1 0x40 MLOAD PUSH1 0x20 ADD PUSH2 0x222 SWAP2 SWAP1 PUSH2 0x433 JUMP JUMPDEST PUSH1 0x40 MLOAD PUSH1 0x20 DUP2 DUP4 SUB SUB DUP2 MSTORE SWAP1 PUSH1 0x40 MSTORE SWAP1 POP SWAP1 JUMP JUMPDEST PUSH1 0x2 PUSH1 0x0 SWAP1 SLOAD SWAP1 PUSH2 0x100 EXP SWAP1 DIV PUSH1 0xFF AND DUP2 JUMP JUMPDEST PUSH1 0x1 ISZERO ISZERO PUSH1 0x2 PUSH1 0x1 SWAP1 SLOAD SWAP1 PUSH2 0x100 EXP SWAP1 DIV PUSH1 0xFF AND ISZERO ISZERO EQ PUSH2 0x29F JUMPI PUSH1 0x40 MLOAD PUSH32 0x8C379A000000000000000000000000000000000000000000000000000000000 DUP2 MSTORE PUSH1 0x4 ADD PUSH2 0x296 SWAP1 PUSH2 0x96D JUMP JUMPDEST PUSH1 0x40 MLOAD DUP1 SWAP2 SUB SWAP1 REVERT JUMPDEST PUSH1 0x1 PUSH1 0x2 PUSH1 0x0 PUSH2 0x100 EXP DUP2 SLOAD DUP2 PUSH1 0xFF MUL NOT AND SWAP1 DUP4 ISZERO ISZERO MUL OR SWAP1 SSTORE POP PUSH1 0x0 PUSH1 0x2 PUSH1 0x1 PUSH2 0x100 EXP DUP2 SLOAD DUP2 PUSH1 0xFF MUL NOT AND SWAP1 DUP4 ISZERO ISZERO MUL OR SWAP1 SSTORE POP JUMP JUMPDEST PUSH1 0x0 PUSH1 0x2 PUSH1 0x0 SWAP1 SLOAD SWAP1 PUSH2 0x100 EXP SWAP1 DIV PUSH1 0xFF AND SWAP1 POP SWAP1 JUMP JUMPDEST PUSH1 0x0 DUP1 SLOAD PUSH2 0x2FB SWAP1 PUSH2 0x596 JUMP JUMPDEST DUP1 PUSH1 0x1F ADD PUSH1 0x20 DUP1 SWAP2 DIV MUL PUSH1 0x20 ADD PUSH1 0x40 MLOAD SWAP1 DUP2 ADD PUSH1 0x40 MSTORE DUP1 SWAP3 SWAP2 SWAP1 DUP2 DUP2 MSTORE PUSH1 0x20 ADD DUP3 DUP1 SLOAD PUSH2 0x327 SWAP1 PUSH2 0x596 JUMP JUMPDEST DUP1 ISZERO PUSH2 0x374 JUMPI DUP1 PUSH1 0x1F LT PUSH2 0x349 JUMPI PUSH2 0x100 DUP1 DUP4 SLOAD DIV MUL DUP4 MSTORE SWAP2 PUSH1 0x20 ADD SWAP2 PUSH2 0x374 JUMP JUMPDEST DUP3 ADD SWAP2 SWAP1 PUSH1 0x0 MSTORE PUSH1 0x20 PUSH1 0x0 KECCAK256 SWAP1 JUMPDEST DUP2 SLOAD DUP2 MSTORE SWAP1 PUSH1 0x1 ADD SWAP1 PUSH1 0x20 ADD DUP1 DUP4 GT PUSH2 0x357 JUMPI DUP3 SWAP1 SUB PUSH1 0x1F AND DUP3 ADD SWAP2 JUMPDEST POP POP POP POP POP DUP2 JUMP JUMPDEST PUSH1 0x0 DUP2 ISZERO ISZERO SWAP1 POP SWAP2 SWAP1 POP JUMP JUMPDEST PUSH2 0x391 DUP2 PUSH2 0x37C JUMP JUMPDEST DUP3 MSTORE POP POP JUMP JUMPDEST PUSH1 0x0 PUSH1 0x20 DUP3 ADD SWAP1 POP PUSH2 0x3AC PUSH1 0x0 DUP4 ADD DUP5 PUSH2 0x388 JUMP JUMPDEST SWAP3 SWAP2 POP POP JUMP JUMPDEST PUSH1 0x0 DUP1 REVERT JUMPDEST PUSH1 0x0 DUP2 SWAP1 POP SWAP2 SWAP1 POP JUMP JUMPDEST PUSH2 0x3CA DUP2 PUSH2 0x3B7 JUMP JUMPDEST DUP2 EQ PUSH2 0x3D5 JUMPI PUSH1 0x0 DUP1 REVERT JUMPDEST POP JUMP JUMPDEST PUSH1 0x0 DUP2 CALLDATALOAD SWAP1 POP PUSH2 0x3E7 DUP2 PUSH2 0x3C1 JUMP JUMPDEST SWAP3 SWAP2 POP POP JUMP JUMPDEST PUSH1 0x0 PUSH1 0x20 DUP3 DUP5 SUB SLT ISZERO PUSH2 0x403 JUMPI PUSH2 0x402 PUSH2 0x3B2 JUMP JUMPDEST JUMPDEST PUSH1 0x0 PUSH2 0x411 DUP5 DUP3 DUP6 ADD PUSH2 0x3D8 JUMP JUMPDEST SWAP2 POP POP SWAP3 SWAP2 POP POP JUMP JUMPDEST PUSH1 0x0 DUP2 SWAP1 POP SWAP2 SWAP1 POP JUMP JUMPDEST PUSH2 0x42D DUP2 PUSH2 0x41A JUMP JUMPDEST DUP3 MSTORE POP POP JUMP JUMPDEST PUSH1 0x0 PUSH1 0x20 DUP3 ADD SWAP1 POP PUSH2 0x448 PUSH1 0x0 DUP4 ADD DUP5 PUSH2 0x424 JUMP JUMPDEST SWAP3 SWAP2 POP POP JUMP JUMPDEST PUSH1 0x0 DUP2 MLOAD SWAP1 POP SWAP2 SWAP1 POP JUMP JUMPDEST PUSH1 0x0 DUP3 DUP3 MSTORE PUSH1 0x20 DUP3 ADD SWAP1 POP SWAP3 SWAP2 POP POP JUMP JUMPDEST PUSH1 0x0 JUMPDEST DUP4 DUP2 LT ISZERO PUSH2 0x488 JUMPI DUP1 DUP3 ADD MLOAD DUP2 DUP5 ADD MSTORE PUSH1 0x20 DUP2 ADD SWAP1 POP PUSH2 0x46D JUMP JUMPDEST PUSH1 0x0 DUP5 DUP5 ADD MSTORE POP POP POP POP JUMP JUMPDEST PUSH1 0x0 PUSH1 0x1F NOT PUSH1 0x1F DUP4 ADD AND SWAP1 POP SWAP2 SWAP1 POP JUMP JUMPDEST PUSH1 0x0 PUSH2 0x4B0 DUP3 PUSH2 0x44E JUMP JUMPDEST PUSH2 0x4BA DUP2 DUP6 PUSH2 0x459 JUMP JUMPDEST SWAP4 POP PUSH2 0x4CA DUP2 DUP6 PUSH1 0x20 DUP7 ADD PUSH2 0x46A JUMP JUMPDEST PUSH2 0x4D3 DUP2 PUSH2 0x494 JUMP JUMPDEST DUP5 ADD SWAP2 POP POP SWAP3 SWAP2 POP POP JUMP JUMPDEST PUSH1 0x0 PUSH1 0x20 DUP3 ADD SWAP1 POP DUP2 DUP2 SUB PUSH1 0x0 DUP4 ADD MSTORE PUSH2 0x4F8 DUP2 DUP5 PUSH2 0x4A5 JUMP JUMPDEST SWAP1 POP SWAP3 SWAP2 POP POP JUMP JUMPDEST PUSH2 0x509 DUP2 PUSH2 0x3B7 JUMP JUMPDEST DUP3 MSTORE POP POP JUMP JUMPDEST PUSH1 0x0 PUSH1 0x40 DUP3 ADD SWAP1 POP PUSH2 0x524 PUSH1 0x0 DUP4 ADD DUP6 PUSH2 0x500 JUMP JUMPDEST PUSH2 0x531 PUSH1 0x20 DUP4 ADD DUP5 PUSH2 0x500 JUMP JUMPDEST SWAP4 SWAP3 POP POP POP JUMP JUMPDEST PUSH32 0x4E487B7100000000000000000000000000000000000000000000000000000000 PUSH1 0x0 MSTORE PUSH1 0x41 PUSH1 0x4 MSTORE PUSH1 0x24 PUSH1 0x0 REVERT JUMPDEST PUSH32 0x4E487B7100000000000000000000000000000000000000000000000000000000 PUSH1 0x0 MSTORE PUSH1 0x22 PUSH1 0x4 MSTORE PUSH1 0x24 PUSH1 0x0 REVERT JUMPDEST PUSH1 0x0 PUSH1 0x2 DUP3 DIV SWAP1 POP PUSH1 0x1 DUP3 AND DUP1 PUSH2 0x5AE JUMPI PUSH1 0x7F DUP3 AND SWAP2 POP JUMPDEST PUSH1 0x20 DUP3 LT DUP2 SUB PUSH2 0x5C1 JUMPI PUSH2 0x5C0 PUSH2 0x567 JUMP JUMPDEST JUMPDEST POP SWAP2 SWAP1 POP JUMP JUMPDEST PUSH1 0x0 DUP2 SWAP1 POP DUP2 PUSH1 0x0 MSTORE PUSH1 0x20 PUSH1 0x0 KECCAK256 SWAP1 POP SWAP2 SWAP1 POP JUMP JUMPDEST PUSH1 0x0 PUSH1 0x20 PUSH1 0x1F DUP4 ADD DIV SWAP1 POP SWAP2 SWAP1 POP JUMP JUMPDEST PUSH1 0x0 DUP3 DUP3 SHL SWAP1 POP SWAP3 SWAP2 POP POP JUMP JUMPDEST PUSH1 0x0 PUSH1 0x8 DUP4 MUL PUSH2 0x629 PUSH32 0xFFFFFFFFFFFFFFFFFFFFFFFFFFFFFFFFFFFFFFFFFFFFFFFFFFFFFFFFFFFFFFFF DUP3 PUSH2 0x5EC JUMP JUMPDEST PUSH2 0x633 DUP7 DUP4 PUSH2 0x5EC JUMP JUMPDEST SWAP6 POP DUP1 NOT DUP5 AND SWAP4 POP DUP1 DUP7 AND DUP5 OR SWAP3 POP POP POP SWAP4 SWAP3 POP POP POP JUMP JUMPDEST PUSH1 0x0 DUP2 SWAP1 POP SWAP2 SWAP1 POP JUMP JUMPDEST PUSH1 0x0 PUSH2 0x670 PUSH2 0x66B PUSH2 0x666 DUP5 PUSH2 0x3B7 JUMP JUMPDEST PUSH2 0x64B JUMP JUMPDEST PUSH2 0x3B7 JUMP JUMPDEST SWAP1 POP SWAP2 SWAP1 POP JUMP JUMPDEST PUSH1 0x0 DUP2 SWAP1 POP SWAP2 SWAP1 POP JUMP JUMPDEST PUSH2 0x68A DUP4 PUSH2 0x655 JUMP JUMPDEST PUSH2 0x69E PUSH2 0x696 DUP3 PUSH2 0x677 JUMP JUMPDEST DUP5 DUP5 SLOAD PUSH2 0x5F9 JUMP JUMPDEST DUP3 SSTORE POP POP POP POP JUMP JUMPDEST PUSH1 0x0 SWAP1 JUMP JUMPDEST PUSH2 0x6B3 PUSH2 0x6A6 JUMP JUMPDEST PUSH2 0x6BE DUP2 DUP5 DUP5 PUSH2 0x681 JUMP JUMPDEST POP POP POP JUMP JUMPDEST JUMPDEST DUP2 DUP2 LT ISZERO PUSH2 0x6E2 JUMPI PUSH2 0x6D7 PUSH1 0x0 DUP3 PUSH2 0x6AB JUMP JUMPDEST PUSH1 0x1 DUP2 ADD SWAP1 POP PUSH2 0x6C4 JUMP JUMPDEST POP POP JUMP JUMPDEST PUSH1 0x1F DUP3 GT ISZERO PUSH2 0x727 JUMPI PUSH2 0x6F8 DUP2 PUSH2 0x5C7 JUMP JUMPDEST PUSH2 0x701 DUP5 PUSH2 0x5DC JUMP JUMPDEST DUP2 ADD PUSH1 0x20 DUP6 LT ISZERO PUSH2 0x710 JUMPI DUP2 SWAP1 POP JUMPDEST PUSH2 0x724 PUSH2 0x71C DUP6 PUSH2 0x5DC JUMP JUMPDEST DUP4 ADD DUP3 PUSH2 0x6C3 JUMP JUMPDEST POP POP JUMPDEST POP POP POP JUMP JUMPDEST PUSH1 0x0 DUP3 DUP3 SHR SWAP1 POP SWAP3 SWAP2 POP POP JUMP JUMPDEST PUSH1 0x0 PUSH2 0x74A PUSH1 0x0 NOT DUP5 PUSH1 0x8 MUL PUSH2 0x72C JUMP JUMPDEST NOT DUP1 DUP4 AND SWAP2 POP POP SWAP3 SWAP2 POP POP JUMP JUMPDEST PUSH1 0x0 PUSH2 0x763 DUP4 DUP4 PUSH2 0x739 JUMP JUMPDEST SWAP2 POP DUP3 PUSH1 0x2 MUL DUP3 OR SWAP1 POP SWAP3 SWAP2 POP POP JUMP JUMPDEST PUSH2 0x77C DUP3 PUSH2 0x44E JUMP JUMPDEST PUSH8 0xFFFFFFFFFFFFFFFF DUP2 GT ISZERO PUSH2 0x795 JUMPI PUSH2 0x794 PUSH2 0x538 JUMP JUMPDEST JUMPDEST PUSH2 0x79F DUP3 SLOAD PUSH2 0x596 JUMP JUMPDEST PUSH2 0x7AA DUP3 DUP3 DUP6 PUSH2 0x6E6 JUMP JUMPDEST PUSH1 0x0 PUSH1 0x20 SWAP1 POP PUSH1 0x1F DUP4 GT PUSH1 0x1 DUP2 EQ PUSH2 0x7DD JUMPI PUSH1 0x0 DUP5 ISZERO PUSH2 0x7CB JUMPI DUP3 DUP8 ADD MLOAD SWAP1 POP JUMPDEST PUSH2 0x7D5 DUP6 DUP3 PUSH2 0x757 JUMP JUMPDEST DUP7 SSTORE POP PUSH2 0x83D JUMP JUMPDEST PUSH1 0x1F NOT DUP5 AND PUSH2 0x7EB DUP7 PUSH2 0x5C7 JUMP JUMPDEST PUSH1 0x0 JUMPDEST DUP3 DUP2 LT ISZERO PUSH2 0x813 JUMPI DUP5 DUP10 ADD MLOAD DUP3 SSTORE PUSH1 0x1 DUP3 ADD SWAP2 POP PUSH1 0x20 DUP6 ADD SWAP5 POP PUSH1 0x20 DUP2 ADD SWAP1 POP PUSH2 0x7EE JUMP JUMPDEST DUP7 DUP4 LT ISZERO PUSH2 0x830 JUMPI DUP5 DUP10 ADD MLOAD PUSH2 0x82C PUSH1 0x1F DUP10 AND DUP3 PUSH2 0x739 JUMP JUMPDEST DUP4 SSTORE POP JUMPDEST PUSH1 0x1 PUSH1 0x2 DUP9 MUL ADD DUP9 SSTORE POP POP POP JUMPDEST POP POP POP POP POP POP JUMP JUMPDEST PUSH1 0x0 DUP2 SWAP1 POP SWAP3 SWAP2 POP POP JUMP JUMPDEST PUSH1 0x0 DUP2 SLOAD PUSH2 0x85D DUP2 PUSH2 0x596 JUMP JUMPDEST PUSH2 0x867 DUP2 DUP7 PUSH2 0x845 JUMP JUMPDEST SWAP5 POP PUSH1 0x1 DUP3 AND PUSH1 0x0 DUP2 EQ PUSH2 0x882 JUMPI PUSH1 0x1 DUP2 EQ PUSH2 0x897 JUMPI PUSH2 0x8CA JUMP JUMPDEST PUSH1 0xFF NOT DUP4 AND DUP7 MSTORE DUP2 ISZERO ISZERO DUP3 MUL DUP7 ADD SWAP4 POP PUSH2 0x8CA JUMP JUMPDEST PUSH2 0x8A0 DUP6 PUSH2 0x5C7 JUMP JUMPDEST PUSH1 0x0 JUMPDEST DUP4 DUP2 LT ISZERO PUSH2 0x8C2 JUMPI DUP2 SLOAD DUP2 DUP10 ADD MSTORE PUSH1 0x1 DUP3 ADD SWAP2 POP PUSH1 0x20 DUP2 ADD SWAP1 POP PUSH2 0x8A3 JUMP JUMPDEST DUP4 DUP9 ADD SWAP6 POP POP POP JUMPDEST POP POP POP SWAP3 SWAP2 POP POP JUMP JUMPDEST PUSH1 0x0 PUSH2 0x8DF DUP3 DUP5 PUSH2 0x850 JUMP JUMPDEST SWAP2 POP DUP2 SWAP1 POP SWAP3 SWAP2 POP POP JUMP JUMPDEST PUSH1 0x0 DUP3 DUP3 MSTORE PUSH1 0x20 DUP3 ADD SWAP1 POP SWAP3 SWAP2 POP POP JUMP JUMPDEST PUSH32 0x4552523A2050726576696F7573206461746120686173206E6F74206265656E20 PUSH1 0x0 DUP3 ADD MSTORE PUSH32 0x7265616421000000000000000000000000000000000000000000000000000000 PUSH1 0x20 DUP3 ADD MSTORE POP JUMP JUMPDEST PUSH1 0x0 PUSH2 0x957 PUSH1 0x25 DUP4 PUSH2 0x8EA JUMP JUMPDEST SWAP2 POP PUSH2 0x962 DUP3 PUSH2 0x8FB JUMP JUMPDEST PUSH1 0x40 DUP3 ADD SWAP1 POP SWAP2 SWAP1 POP JUMP JUMPDEST PUSH1 0x0 PUSH1 0x20 DUP3 ADD SWAP1 POP DUP2 DUP2 SUB PUSH1 0x0 DUP4 ADD MSTORE PUSH2 0x986 DUP2 PUSH2 0x94A JUMP JUMPDEST SWAP1 POP SWAP2 SWAP1 POP JUMP INVALID LOG2 PUSH5 0x6970667358 0x22 SLT KECCAK256 0xA8 SWAP4 0xBC PUSH2 0x82C5 PUSH1 0xD1 ORIGIN SWAP7 0xDA SGT PUSH29 0x6DDFABDFE84734AB296F1EE8370F54251D52C964736F6C634300081200 CALLER "},"methodIdentifiers":{"_dataIsReady()":"58194ff2","commitment()":"1303a484","copyData()":"2f703e08","dataHasBeenRead()":"03627959","dataIsReady()":"cce71063","encodedData()":"d2b0bf7c","requestData()":"606deecd","updateData(uint256)":"09e96008"}}}}}